:020000040800F2
:10000000000001200971050889710508D9EE03086F
:100010003DEF03088971050889710508000000009B
:1000200000000000000000000000000089710508C9
:100030008971050800000000897105080D5B010841
:100040008971050889710508897105088971050894
:100050008971050889710508F97401083976010864
:10006000F9750108B975010879750108792D01083C
:10007000692D0108592D0108492D0108352D010868
:10008000212D01080D2D01088971050889710508C8
:100090008971050889710508897105083975010894
:1000A00039030108C103010829030108E903010814
:1000B000B1030108A1030108910301088971050832
:1000C0008971050889710508897105088971050814
:1000D000897105084D670108E96401088562010816
:1000E000B9740108897105088971050819030108A7
:1000F000490301088971050871030108F92C0108F9
:10010000897105088971050881030108897105084D
:1001100021600108BD5D0108897105088B54030841
:10012000E52C0108D12C0108BD2C0108A92C0108DF
:10013000952C0108000000000000000000000000F5
:100140000000000000000000000000007D680308BF
:10015000812C01086D2C0108592C0108595B0108FC
:100160008971050889710508897105088971050873
:100170008971050889710508000000000000000071
:100180008971050889710508897105088971050853
:10019000897105088971050800000000897105084A
:1001A0000000000000000000000000008971050848
:1001B0008971050889710508000000000000000031
:1001C000000000000000000000000000000000002F
:1001D0000000000000000000000000008971050818
:0801E000586C0500010000004D
:1001E8001002010001000000F4210120F02101208B
:1001F80000000000F00800081D02020006000000D0
:10020800781F0120FC2101200000000000000000F0
:100218000812040014000000801F0120042201209D
:1002280000000000C5870008270001000400000046
:10023800C81801201822012000000000F208000858
:100248002802040004000000D041012014420120CB
:10025800000000002D8800082702040004000000A8
:10026800CC4101201842012000000000218800082C
:10027800F821010006000000104B0120344B01203A
:1002880000000000F608000803000100010000005B
:10029800204B01203C4B0120000000000000000022
:1002A80010100100020000002C4B0120404B0120DF
:1002B80000000000FC08000825201E002C0100009A
:1002C800F4470120444B012000000000000000001A
:1002D800190001000500000098470120704C01201A
:1002E80000000000FE0800081A0001000E000000CF
:1002F8003C440120784C012000000000040900085B
:10030800203201000A000000A0460120884C01208C
:100318000000000099B101081500100070000000ED
:10032800AC450120944C01200000000000000000B2
:100338002A00080060000000CC460120044D01207E
:100348000000000019AA0108012001000C000000AB
:100358006C570120D45F0120000000001409000838
:100368000C20060034020000A8540120E05F0120A0
:1003780000000000212205080EF003009E01000085
:10038800E45201201462012000000000B9B1010804
:100398001300010004000000C05E0120B4630120C6
:1003A800000000002009000801010100040000000D
:1003B80024520120B8630120000000000000000062
:1003C80000010100040000001C520120BC63012050
:1003D80000000000240900080201010003000000D9
:1003E80018520120C06301200000000041220508C6
:1003F800220201001C010000285C0120C4630120C6
:100408000000000091900008010201000B000000AC
:1004180030520120E064012000000000B587000888
:100428001B02010010000000AC5A0120EC640120FE
:1004380000000000318800081B1001000C000000BB
:10044800E84E0120FC64012000000000B16A0208A7
:1004580021020100F00000006C4D01200865012018
:100468000000000099690208020001000C00000069
:1004780064660120FC660120000000000000000006
:100488000B3001001A000000F8700120E87B012001
:1004980000000000280900081F30010024000000A7
:1004A800C0700120047C01200000000044090008FD
:1004B8000502010004000000F0790120287C0120D9
:1004C8000000000068090008030101000A0000009C
:1004D8005C7001202C7C0120000000001536030808
:1004E8001A0201003C00000020800120BC8101208C
:1004F80000000000C9910008031201003D0000003F
:10050800B47F0120F8810120000000006C09000878
:100518003810010001000000447C012038820120CD
:1005280000000000AA0900082320010010000000B4
:1005380050A10120D0A20120000000008969040810
:100548000D10010070000000D4A00120E0A20120DD
:100558000000000041F502080400080080000000C7
:1005680014A0012050A3012000000000000000009A
:10057800FD01010024000000B89F0120D0A3012044
:10058800000000000B3601081820010032000000AE
:10059800809F0120F4A30120000000004D91000875
:1005A800FB01010001000000409F012028A4012058
:1005B80000000000F58F0008FC01010009000000A0
:1005C8000C9E01202CA401200000000005900008CA
:1005D800F701010006000000049E012038A4012054
:1005E80000000000AC090008F90101000400000047
:1005F800009E012040A4012000000000B936010837
:10060800160215003F0000006086012044A4012066
:1006180000000000DD900008340001001000000018
:100628002C9D012084A401200000000025B60108AB
:100638001102010008000000049D012094A401207B
:1006480000000000B20900081212010004000000B6
:10065800FC9C01209CA4012000000000BA090008AD
:100668000A80010028000000D49C0120A0A40120D9
:100678000000000071680408061001001C0000005A
:1006880044860120C8A4012000000000259000082D
:100698001220010011000000F49B0120E4A40120B5
:1006A80000000000BE090008000201000B00000065
:1006B80030990120F8A4012000000000000000008B
:1006C8001302010004000000F098012004A5012095
:1006D80000000000D0090008FA0101000300000032
:1006E8000096012008A5012000000000A987000845
:1006F8000202010003000000A09101200CA50120C6
:1007080000000000000000000C02010004000000CE
:100718007C91012010A501200000000091870008AD
:100728001F02080010000000CC95012014A501202C
:100738000000000049870008FE01010014000000C5
:10074800E488012024A50120000000001987000882
:100758002C00040010000000E4AF0120D4AF0120F9
:1007680000000000598904082B0012002400000032
:1007780018B00120F4AF0120000000002989040806
:1007880029201400780000008CAE01203CB0012024
:100798000000000000000000F62101000C0000002D
:1007A80070AD0120B4B0012000000000D409000899
:1007B8001C0202001C000000F8AD012004B1012059
:1007C80000000000698C000814000100040000000B
:1007D80034AD012020B1012000000000E00900082C
:1007E800231201001000000058B3012060B7012057
:1007F80000000000E40900080510010006000000E0
:1008080050B3012070B7012000000000F40900086F
:10081800371001002E0000000CB7012078B7012026
:1008280000000000FA0900080E02010002000000A2
:100838004CB30120A8B7012000000000280A0008D6
:10084800161001000600000044B30120ACB70120D7
:10085800000000002A0A00082F10010022000000F2
:100868003CB70120B4B7012000000000300A00089E
:100878001E0001000900000078B20120D8B701204D
:1008880000000000520A0008F5810100680000001D
:1008980034B10120E4B7012000000000C966020855
:1008A800FD0701007600000070B601204CB8012059
:1008B80000000000F954020829020100400000006D
:1008C800ACBB01208CC10120000000005C0A0008BC
:1008D8000A020100140000000CC10120ECC1012033
:0808E80000000000492605088C
:1008F0000000200300000101F401140000050000C5
:10090000280100007E05EA05B4053200E803D0079F
:1009100000000000E8036400040A000114001E0047
:100920004804443090010000AE014A015E012C01F0
:1009300064010100000001000A019A01001E0A0082
:10094000000200000000000000010000000500009F
:100950000102030000000000000000000000000091
:100960000000000000800700000000000000000000
:100970000000000000000000000000000000000077
:100980000000000000000000000000000000000067
:100990000000000000000000000000000000000057
:1009A0000000000000000000010000002201000023
:1009B00000002000000001010101FFFFFFFF000017
:1009C00000010000054D4246370000000002000013
:1009D0000000010000000000010000000202000011
:1009E00003000023000000000000000000000000E1
:1009F0000000000020000101000020003200C800BB
:100A0000D00796001400320028004C044006000570
:100A1000500014000F0008006400010000000500F1
:100A20000A000000F40196000000C409000019004B
:100A300000000000000000000000000000000000B6
:100A400000000000000000000000000000000000A6
:100A50000000000501000000000000000000000090
:100A60000000000000000000000000000000000086
:100A70000000000000000000000000000000000076
:100A80000000000000000000000000000000000066
:0C0A90000000000000000000000000005A
:100A9C00794503083D3B0308635F03080000000031
:100AAC0000000000355D03086D5D030800000000C8
:100ABC0000000000000000007D2D0308712D0308CC
:100ACC00652D0308592D03085992000879880008F0
:100ADC0075880008718800085D9500086D8800080D
:100AEC006988000820B10508FF010000F40100002E
:100AFC00FF0000001F0000001C0000001F00000091
:100B0C001E0000001F0000001E0000001F0000005F
:100B1C001F0000001E0000001F0000001E0000004F
:100B2C001F0000000068214CC0BA0508B00100008D
:100B3C000200000009000000FFFF0000FFFFFFFFA4
:100B4C001C7E0608000008020503040000000000DB
:100B5C00247E0608010008020504040000000000C1
:100B6C0094B406080200FE0101100300000000000E
:100B7C002C7E060803001402000300000000000095
:100B8C00347E060804001F0202000800000000006A
:100B9C003C7E060805001F02020108000000000050
:100BAC00FFFFFFFF0000803F00000000000000007E
:100BBC00000000000000803F00000000000000006A
:100BCC000000000000000000000000000000000019
:100BDC000000000000000000000000000000803F4A
:100BEC0000000000000000000000000001000000F8
:100BFC000000FA430000FA43FFFFFFFF0000803FB4
:100C0C000000000000000000000000000000803F19
:100C1C0000000100E0010100895D020800000000F5
:100C2C0000000000A8EA0508000000000000000019
:100C3C000000000050010608000000000000000049
:100C4C000000000008020608000000000000000080
:100C5C0000000000B40106080801FF0000000000BD
:100C6C0000000000AD940208315B01200101FF007F
:100C7C00FFFFFFFF2DB40208000000000000000081
:100C8C00DC02060865B70208000000000000000046
:100C9C00940206082D202D2D202D2D2D2D202D2DAF
:100CAC002D0000000000000000000000000000000B
:100CBC0000000000FFFFFFFFB19C020800000000D5
:100CCC0000000000E000060801000000FA0000002F
:100CDC000100000001000000685701200000F40131
:100CEC0001000000665701200000F4010100000023
:100CFC00645701200000F40101000000625701203C
:100D0C000000F40101000000605701200000F40114
:100D1C00010000005E5701200000F40101000000FA
:100D2C005C5701200000F4010100000081650208FD
:100D3C0045650208000000006CED05084C570120C9
:100D4C00053201005A5701206400F4010100000033
:100D5C00585701206400C409010000004A570120C3
:100D6C00E803D0070100000048570120E803D00732
:100D7C000100000046570120E803D00701000000E5
:100D8C00445701201E00B80B0100000052570120EF
:100D9C0005000F00010000005457012003000A0059
:100DAC0001000000425701201E00F4010100000068
:100DBC005657012002000000F8ED050840570120AD
:100DCC0014006400010000004E5701203200E803BB
:100DDC00010000003E5701200000C8000100000087
:100DEC00A554012000C80100A454012000500100AA
:100DFC00A3540120005A0100A1540120020000005C
:100E0C0004EE0508AC850608B48506082EB301204F
:100E1C000100C409000000002CB301200100C4092A
:100E2C00000000002AB301200100C40900000000EA
:100E3C0028B301200100C4090000000024B30120E4
:100E4C000100C4090000000026B301200100C40900
:100E5C000000000022B301200100C40900000000C2
:100E6C0020B301200100C409000000004F520120F2
:100E7C0000C801004E52012000C801004C52012054
:100E8C000000FFFF0A0000004A5201200100C800C8
:100E9C000100000048520120320030753200000081
:100EAC0046520120058205004452012005002C0108
:100EBC000500000043520120055A05004052012054
:100ECC0000FF0100425201200200000074030120C7
:100EDC003E52012003000000D42A06083F52012094
:100EEC0000FF0100415201200200000074030120A8
:100EFC003D52012003000000D42A0608D5640208E4
:100F0C00656402080000000010EE05087C57012003
:100F1C00EE02CA08010000007A57012000C8010047
:100F2C00640000007957012000C801006400000033
:100F3C0078570120020000001CEF05082A520120FE
:100F4C000000803E050000002852012080C1803E38
:100F5C0005000000225201200083007D05000000E6
:100F6C002052012080C1803E050000001B52012050
:100F7C0000FF0100145201206400F4010100000084
:100F8C00125201200400000028EF05081152012024
:100F9C00020000003CEF0508D55201200D000000B6
:100FAC0048EF0508D252012000640100D052012004
:100FBC00320010270A000000CE5201200D00000064
:100FCC0048EF0508CD5201200D00000048EF050840
:100FDC00CC5201200200000080EF05080000000048
:100FEC0000000000000000008CEF05088257012073
:100FFC003E000000C4EF0508805701200100FF7F70
:10100C00010000007F57012002000000C0F005081D
:10101C00D752012003000000D0F00508D652012061
:10102C0003000000D0F0050892540120000A0100D2
:10103C00905401200000E803010000008E540120B0
:10104C000000E803010000008C5401200000E803BC
:10105C00010000008A5401200000E8030100000098
:10106C00825401200000E803010000008854012094
:10107C000000E80301000000865401200000E80392
:10108C00010000008454012000140100A054012030
:10109C0002000000E0F005089E5401200000F4015D
:1010AC00010000009C5401200000F401010000002C
:1010BC009A5401200000F401010000009854012012
:1010CC000000F40101000000965401200000A00F64
:1010DC0001000000945401200000A00F010000004A
:1010EC002B570120196401002A570120020000002F
:1010FC00ECF00508EC560120E803D0070A000000CC
:10110C00EA560120006401000A000000DF560120AD
:10111C0000640100DE56012000640100E656012047
:10112C00006401000A000000E55601200064010083
:10113C000A000000E4560120006401000A000000CF
:10114C00E956012000FF01000A000000E8560120CA
:10115C0000FF01000A000000E756012000FF01001B
:10116C000A000000E356012001FF01000A00000004
:10117C00E256012001FF01000A000000E1560120A7
:10118C0001FF01000A000000E05201200000F40100
:10119C0001000000DE5201200000A00F0100000041
:1011AC00DC5201200000A00F01000000DA520120E7
:1011BC000000A00F01000000D85201200000A00F79
:1011CC0001000000795B012000C80100785B012060
:1011DC0000640100775B012000640100765B012054
:1011EC0000640100755B012000640100745B012048
:1011FC00FF080100735B012001640100DD6302083C
:10120C00A163020800000000F8F005087C5B0120D7
:10121C00013201007B5B01200100000068F1050830
:10122C007A5B01200400000070F10508725B01205C
:10123C0000640100705B01201400E8030100000051
:10124C006E5B0120E80330750A0000006D5B012025
:10125C0000C801006C5B012000C801006B5B012021
:10126C0000C801006A5B0120003201007E5B012096
:10127C00004B01007D5B01200400000084F1050897
:10128C00695B0120006401000A0000008C5B0120F6
:10129C000000D00701000000875B012000C801009E
:1012AC00865B012000C80100855B012000C801009D
:1012BC008A5B01200000D00701000000845B012044
:1012CC0000C80100835B012000C80100825B012083
:1012DC0000C80100885B01200000D007010000005D
:1012EC00815B012000C80100805B012000C8010067
:1012FC007F5B012000C8010089610208716102084E
:10130C000000000098F10508C9520120005A0100A4
:10131C00C852012000C80100C6520120E803D007C2
:10132C00010000000000000000000000ED94020825
:10133C0034F205084D414D4241463732320000002F
:10134C003C520120000301003B520120000301002C
:10135C00AD60020861600208000000007CF2050824
:10136C0021600208D95F02080000000018F305088C
:10137C00F960020831A202080000000098F3050889
:10138C002C520120010301000D660208E1650208E0
:10139C0000000000F0F605085D5F0208115F02080E
:1013AC000000000060F7050899610208EDBE020814
:1013BC0000000000FCF70508B9A002083966020815
:1013CC0000000000A4F80508F56102080000000008
:1013DC000000000030F90508D162020879620208A9
:1013EC000000000094F905086563020829630208EF
:1013FC00000000003CFA0508B1D502081964020887
:10140C0000000000C8FA05083D5701200106010044
:10141C003D6202080962020800000000C4FB0508D6
:10142C00E3D40208359E02080000000034FC0508D5
:10143C00E9D50208FD9E02080000000084FD0508A5
:10144C003C570120010301004161020811610208AF
:10145C000000000058FE050845D6020800000000F8
:10146C0000000000BCFE0508A95F0208999C020858
:10147C00000000003CFF0508000000000000000018
:10148C0000000000C8FF05083D640208759F0208B3
:10149C0000000000380006080000000000000000FA
:1014AC0000000000500206089C7901209CFF2C01D2
:1014BC0000000000D85D0120E0150C1700000000B2
:1014CC002F5B012002000000880206080C5201204C
:1014DC0088136F17010000000E52012088136F173C
:1014EC0000000000C6A10120000000000000000068
:1014FC00C4A101200000000000000000C2A10120D6
:10150C000000000000000000C0A10120000000004D
:10151C0000000000BEA1012000000000000000003F
:10152C00BCA101200000000000000000240F0120DD
:10153C000000000000000000945101200300000096
:10154C00780306080452012088136F17010000006D
:10155C00E679012088136F1700000000515E020825
:10156C00000000000000000088030608305B01202A
:10157C0001000000DC030608E879012001000000EE
:10158C00E8030608DE79012002000000F0030608DB
:10159C00000000000000000000000000FC03060832
:1015AC00395E0208000000000000000098040608E4
:1015BC00000000000000000000000000EC04060821
:1015CC000000000000000000000000005C050608A0
:1015DC00105201200200000094050608E279012057
:1015EC00E0150C1700000000013B03084D2D03080B
:1015FC00A13A0308DD3A0308052D0308C93A03088C
:10160C00B53A0308C92B0308AD2B0308692B030853
:10161C00000000005D2B0308492B0308352B030841
:10162C0000000000000000000000000000000000AE
:10163C00292B0308000000001D2B03087D53030811
:10164C00192B0308992A03085F39030800C201000B
:10165C00000008000A060002000000400100000023
:10166C0009026400030100C03209040000010300F8
:10167C00000009211101000122360007058303082F
:10168C00000A080B01020202010009040100010218
:10169C0002010005240010010524010002042402AB
:1016AC00020524060102070582030800FF09040253
:1016BC0000020A0000000705010240000007058136
:1016CC000240000001460308913B03083562030801
:1016DC0000000000F52D0308695E0308212E0308A5
:1016EC00000000000000000000000000DD2D0308D9
:1016FC00E92D0308D12D0308C52D03081A0300009A
:10170C0000000000000000000000000000000000CD
:10171C000000000000000000040309040A06000297
:10172C00000000400100000009072000010104C076
:10173C00320904000002080650050705810240002A
:10174C00000705010240000009022000010104C04D
:10175C00320904000002080650050705810240000A
:10176C00000705010240000009022000010104C02D
:10177C003209040000020806500507058102000228
:10178C0000070501020002000A06000200000040EA
:10179C000100000009022200010100E032090400EE
:1017AC00000103010200092111010001223600078A
:1017BC0005830308000A000009022200010100E071
:1017CC00320904000001030102000921110100018A
:1017DC0022360007058303080007000009022200D7
:1017EC00010100E03209040000010301020009219B
:1017FC00110100012236000705830308000A0000CE
:10180C000A06000200000040010000000907430026
:10181C00020104C032090400000102020100052487
:10182C000010010524010001042402020524060015
:10183C00010705820308001009040100020A0000D8
:10184C00000705010240000007058102400000006E
:10185C0009024300020100C0320904000001020227
:10186C0001000524001001052401000104240202DA
:10187C000524060001070582030800100904010075
:10188C00020A0000000705010200020007058102A0
:10189C000002000009024300020100C032090400EA
:1018AC0000010202010005240010010524010001C1
:1018BC000424020205240600010705820308001017
:1018CC0009040100020A00000007050102400000A3
:1018DC00070581024000000000FF0000000000002E
:1018EC000000AA55070100000100000012010002CF
:1018FC000000004083042A5700020102030100008B
:10190C001201000202000040830440570002010251
:10191C000301000012010002EF0201408304563261
:10192C00000201020301AA55050100000800000095
:10193C008C0A0608FF1FFF1F05010905A101A10064
:10194C0005010930093109320933093509340936E1
:10195C0009371581257F750895088102050919013C
:10196C00290815002501950875018102C0C00000E9
:10197C000921110100012236002D202D2D202D2DA5
:10198C002D2D202D2D2D2D0000000000000000001D
:10199C000000000000000000AA550B010000AA5531
:1019AC0005010000AA550902000000AA5503009F7A
:1019BC0001000000C012000001000000A00F000098
:1019CC00B80B00000102FFFF01FF00000000000047
:1019DC0004010000000700000000000000000000EF
:1019EC0000020000100000000000000000000000D9
:1019FC0007000000100000007D00000000600240A5
:101A0C00106002400000000000000000000B00000D
:101A1C000000000000000000000000000060024018
:101A2C00286002400100000000000000060C0000CD
:101A3C0000000000000000000000000000600240F8
:101A4C00406002400200000000000000100D000089
:101A5C0000000000000000000000000000600240D8
:101A6C00586002400300000000000000160E000049
:101A7C0000000000000000000000000000600240B8
:101A8C00706002400400000000000000200F000005
:101A9C000000000000000000000000000060024098
:101AAC0088600240050000000000000026100000C5
:101ABC000000000000000000000000000060024078
:101ACC00A060024006000000000000003011000081
:101ADC000000000000000000000000000060024058
:101AEC00B86002400700000000000000362F000024
:101AFC000000000000000000000000000064024034
:101B0C0010640240000000000000000000380000DB
:101B1C000000000000000000000000000064024013
:101B2C00286402400100000000000000063900009B
:101B3C0000000000000000000000000000640240F3
:101B4C00406402400200000000000000103A000057
:101B5C0000000000000000000000000000640240D3
:101B6C00586402400300000000000000163B000017
:101B7C0000000000000000000000000000640240B3
:101B8C00706402400400000000000000203C0000D3
:101B9C000000000000000000000000000064024093
:101BAC00886402400500000000000000264400008C
:101BBC000000000000000000000000000064024073
:101BCC00A064024006000000000000003045000048
:101BDC000000000000000000000000000064024053
:101BEC00B864024007000000000000003646000008
:101BFC0000000000000000000000000001000000D8
:101C0C000000803F70A70120C4A70120D60101FF6E
:101C1C000100000000010101000000007EFF000037
:101C2C00FFFFFFFFC4B8012000000000ECB801204A
:101C3C0000000000C87E060894AD060800000000F5
:101C4C00B1220508A086010004000000000000007D
:101C5C000000000000000000000000000000000078
:101C6C000000000000000000000000000000000068
:101C7C0000000000C87E060810AE06080000000038
:101C8C00C98E0308E80300000400000000000000F7
:101C9C000000000000000000000000000000000038
:101CAC000000000000000000000000000000000028
:101CBC0000000000F07D060800000000000000009D
:101CCC00553400007D000000FF0000000000000003
:101CDC0000000000000000000000000000000000F8
:101CEC0000000000000000000000000000000000E8
:101CFC0000000000708206080000000000000000D8
:101D0C00752A00007D000000FF00000000000000AC
:101D1C0000000000000000000000000000000000B7
:101D2C0000000000000000000000000000000000A7
:101D3C0000000000CC8D0608000000000000000030
:101D4C00950800007D000000FF000000000000006E
:101D5C000000000000000000000000000000000077
:101D6C000000000000000000000000000000000067
:101D7C0000000000F87D06080000000000000000D4
:101D8C00A9E90308E80300000300000000000000BC
:101D9C000000000000000000000000000000000037
:101DAC000000000000000000000000000000000027
:101DBC000000000018AE0608000000000000000043
:101DCC00D10B0208102700000300000000000000E7
:101DDC0000000000000000000000000000000000F7
:101DEC0000000000000000000000000000000000E7
:101DFC0000000000287E0608000000004185040851
:101E0C00C9C003085F760000050000000000000058
:101E1C0000000000000000000000000000000000B6
:101E2C0000000000000000000000000000000000A6
:101E3C0000000000EC81060800000000000000001B
:101E4C0031F9030810270000010000000000000019
:101E5C000000000000000000000000000000000076
:101E6C000000000000000000000000000000000066
:101E7C000000000024AE0608000000000000000076
:101E8C00CD8E0308E80300000500000000000000F0
:101E9C000000000000000000000000000000000036
:101EAC000000000000000000000000000000000026
:101EBC000000000030AE060800000000000000002A
:101ECC00A9280508204E00000300000000000000B7
:101EDC0000000000000000000000000000000000F6
:101EEC0000000000000000000000000000000000E6
:101EFC000000000040AE06080000000000000000DA
:101F0C0085260508204E000003000000000000009C
:101F1C0000000000000000000000000000000000B5
:101F2C0000000000000000000000000000000000A5
:101F3C000000000050AE0608000000000000000089
:101F4C0071BD0308400D03000300000000000000F9
:101F5C000000000000000000000000000000000075
:101F6C000000000000000000000000000000000065
:101F7C0000000000C07F0608000000000000000008
:101F8C0079F6020810270000010000000000000094
:101F9C000000000000000000000000000000000035
:101FAC000000000000000000000000000000000025
:101FBC0000000000107E0608000000000000000079
:101FCC003D7602081027000003000000000000000E
:101FDC0000000000000000000000000000000000F5
:101FEC0000000000000000000000000000000000E5
:101FFC000000000008880608000000000000000037
:10200C00AD8D0308A8610000010000000000000075
:10201C0000000000000000000000000000000000B4
:10202C0000000000000000000000000000000000A4
:10203C0000000000F4810608000000000000000011
:10204C00058F0308A00F0000010000000000000035
:10205C000000000000000000000000000000000074
:10206C000000000000000000000000000000000064
:10207C000000000060AE0608000000000000000038
:10208C0029BA02081027000001000000000000001F
:10209C000000000000000000000000000000000034
:1020AC000000000000000000000000000000000024
:1020BC0000000000C87F06080000000000000000BF
:1020CC00491205081A410000010000000000000040
:1020DC0000000000000000000000000000000000F4
:1020EC0000000000000000000000000000000000E4
:1020FC00000000004C8206080000000000000000F8
:10210C004936030810270000010000000000000001
:10211C0000000000000000000000000000000000B3
:10212C0000000000000000000000000000000000A3
:10213C0000000000A8AD0608000000000000000030
:10214C006DC7020850C30000010000000000000031
:10215C000000000000000000000000000000000073
:10216C000000000000000000000000000000000063
:10217C00000000006CAE060800000000000000002B
:10218C00993E0308400D0300000000000000000011
:10219C000000000000000000000000000000000033
:1021AC000000000000000000000000000000000023
:1021BC000000000074AE06080000000000000000E3
:1021CC0057D70208400D030000000000000000007B
:1021DC0000000000000000000000000000000000F3
:1021EC0000000000000000000000000000000000E3
:1021FC00000000007CAE060800000000000000009B
:10220C0069A8020850C30000030000000000000091
:10221C0000000000000000000000000000000000B2
:10222C0000000000000000000000000000000000A2
:10223C000000000088AE060800000000000000004E
:10224C006145050840420F0000000000000000003E
:10225C000000000000000000000000000000000072
:10226C000000000000000000000000000000000062
:10227C000000000094AE0608000000000000000002
:10228C0099D7020850C300000000000000000000B5
:10229C000000000000000000000000000000000032
:1022AC000000000000000000000000000000000022
:1022BC00000000000101000081F80208000000008D
:1022CC00000000000000000000000000DCC1012044
:1022DC000800000000000000CCC101200800000034
:1022EC000100000058180120000000000000000050
:1022FC0000000000000000000000000000000000D2
:10230C0000000000000000000000000000000000C1
:10231C0000000000000000000000000000000000B1
:10232C0000000000000000000000000000000000A1
:10233C000000000000000000000000000000000091
:08234C00000000000000000089
:10235400C83300200000000001000000010000005C
:042364002000000055
:082800000000000000000000D0
:10800000DFED2A7AB4EEE70AF1EE10FA4BDDDFED90
:10801000286A9FED287AB4EEC70A70EE667AF1EE10
:1080200010FAB0EE670AF6DC9FED237AF4EEC77A19
:10803000F1EE10FA34D5DFED1E6A9FED207AF4EEF2
:10804000C77A37EEA60AF1EE10FAF0EE407AF6D4CF
:10805000DFED1B7AB4EEE70AF1EE10FA14DDDFED86
:10806000137A37EEC00A60EE006A9FED166A9FED44
:10807000167ADFED167AA6EE867A20EE266AE6EE0E
:10808000877AA6EE270A7047DFED117AB4EEE70A89
:10809000F1EE10FAE7D5DFED087A37EEC00AE2E735
:1080A000B0EE670AD4E7F0EE407ABDE7DB0F494057
:1080B000DB0FC940E4CB1641DB0F49C0E4CB16C14E
:1080C000DB0FC93F92E741B99730083C15A82ABE9B
:1080D000DB0FC9BF0378092B01D0202B05D110F885
:1080E000013F202BFBD0092BF9D02D2B00F0A980CC
:1080F0002B2B75D0B7EE000AA3F13002D1B20929BB
:1081000077D8F2EE046ADFED5F7A07EE102A10F8F6
:10811000013FB8EEC77AA3F13002D1B2A7EEA67A3A
:108120000929F0EE477AF0D92E2B66D003F0DF0351
:10813000452B40F0838010B442782D2A00F09680C1
:108140002B2A00F08380A2F130030130092B00F2CA
:1081500084800024002303EB830302EB430310F825
:10816000012FA2F13001303B0929F4D9B3F59A7FF0
:108170001A46B7EE007A28BF4FF49A72072B09D936
:108180001346DFED416A083B27EE267A072BFAD823
:1081900002F00702DAB1F2EE046A012A27EE267A2B
:1081A00015D0022A27EE267A11D0032A27EE267A46
:1081B0000DD0042A27EE267A09D0052A27EE267A42
:1081C00005D027EE267A062A18BF27EE267A002C3D
:1081D00045D0C7EE877A5DF8044B20EE270A70473A
:1081E0004378B7EE000A0130A3F13002D1B2092979
:1081F00087D92E2BDFED237A98D143780130A3F174
:108200003002D1B2092991D8B2EE047AF0EE475A81
:1082100006EE902A10F8013FB8EEE66AA3F13002AC
:10822000D1B2C6EE076A092927EE257A77EEA67A3B
:10823000EED903F0DF03452B3FF47DAF20EE270A94
:1082400070474378BFEE000A013055E7827802306C
:10825000A2F13003092B7FF67CAFB7EE007A67EE10
:10826000877A5DF8044B20EE270A70478278023047
:10827000A2F13003092B01D801246BE7B7EE007A95
:10828000A7E700BF0000000020BCBE4C0028F0B5EE
:1082900004DA2D234042013101F8013C092804464B
:1082A0004FF0010307DD03EB83035B00B0FBF3F248
:1082B000092AF8D883B10E48A0FB0356B4FBF3F2A9
:1082C000092A02F1570C02F1300708DD03FB1244C2
:1082D000F30801F801CBEFD100230B70F0BD03FBD5
:1082E0001244F30801F8017BE6D100230B70F0BDC6
:1082F000CDCCCCCC884270B44FF0010442D301FB0A
:1083000004F4B0FBF4F58D42F9D2ECB142BB092D77
:1083100004FB150005F1570605F130020EDD03F8E8
:10832000016BB4FBF1F47CB1B0FBF4F5092D04FB57
:10833000150005F1570605F13002F0DC03F8012BBA
:10834000B4FBF1F4002CEFD1002270BC1A7070471E
:10835000B4FBF1F403F8016B002CF5D0B0FBF4F59D
:10836000092D04FB150005F1370605F13002EFDC9D
:1083700003F8012BB4FBF1F4002CEFD1002270BC08
:108380001A7070470546002AEAD1C0E70388B3F5A2
:10839000FA6F17D38378013B0B2B13D8C378013BBB
:1083A0001E2B0FD80379172B0CD843793B2B09D8F8
:1083B00083793B2B06D80089B0F57A7F2CBF00204B
:1083C00001207047002070472DE9F84F14461D46E4
:1083D00006464FF47A720023204629464E4F4EF04F
:1083E000AFFC4E4B4E4A40F2B55C0344DFF83CA173
:1083F00082FB0301D81787FB03784A4F194498443E
:1084000087FB037EC0EB6111C0EBE8279E4482FB33
:1084100001824FEAE179C0EB2E4E8AFB078A0A44BB
:10842000C1EB011BC9EB62193F4AA3EB8B0BC9EBF4
:10843000091982FB0E824FEAE77886F806B0A1EBB5
:108440008901DFF8EC90C8EBAA08717189FB03136E
:108450004FEAEE7108EB4808C1EBE212A7EBC8083F
:108460000CFB12E2C0EBE35386F80480B2F5896F8F
:108470004FEA83003CDA40F2DA239A4242DCB2F55A
:10848000B77FDFF8B080B4BF4FF0000E4FF0010EA1
:108490004FEA4E091FFA8EFC09EB0E0308EBC303EB
:1084A000DF8A09EB0E010B2308EBC101163101E055
:1084B00031F8027D974218DD013BF9D1CE4401230A
:1084C00038F83E7000F5FA6E0132B3702046F4447D
:1084D000D71B29464FF47A720023A6F800C0F77024
:1084E0004EF02EFC3281BDE8F88F0133DBB2E9E7B4
:1084F0004FF0030C40F29657DFF838804FF0060932
:10850000E646CEE74FF0020C40F22947DFF8248020
:108510004FF00409E646C4E7C5B3A29180BC92C7F8
:108520008988888807452EC273B06D16ABAAAA2A1F
:10853000792D031138A9050803685A1C02601970C7
:10854000704700BF2DE9F047089C002B884607467E
:1085500021780CBF4FF020094FF03009651C29B37A
:10856000002A27DD2B4601E00246A8B113F8016B73
:10857000501E002EF8D1961E70B1B2460AF1FF3A95
:1085800049463846C0470AF10103002BF6DC26EACB
:10859000E6702178013039B1041B3846C0472819EC
:1085A00015F8011B0029F8D1BDE8F087002A03DC8B
:1085B0000846F9E70020EFE7561EDEE79FED540A74
:1085C000D0ED005A35EE800A08B5FDEEC07A2DEDEB
:1085D000028B17EE903A2033402B40F294809FEDAF
:1085E0004D5AFDEEE57A17EE903A2033402B40F2DB
:1085F0008380DFED485AD0ED014A9FED450A34EE05
:10860000800AFDEEC07A17EE903A2033402B6AD9EB
:108610009FED402AB0EE428AB0EE424AFDEEE47A87
:1086200017EE903A2033402B56D9DFED3A3AD0ED91
:10863000022A9FED370A32EE800AFDEEC07A17EE6D
:10864000903A2033402B3AD9DFED324AB0EE643A0B
:10865000B0EE641AF0EE640AF0EE641AFDEEE27A0F
:1086600017EE903A2033402B24D99FED2A0A20EEB2
:10867000057A81ED058A60EE257AC1ED001A24EEB7
:10868000404AC1ED023AE7EE234A81ED082AA7EEFF
:10869000E33A37EE207A81ED014A77EEC17ABDECFC
:1086A000028B81ED037AC1ED074A81ED043AC1EDF9
:1086B000067A08BDB0EE620AFFF7A2FCD7E7FFF723
:1086C0009FFC60EE254A20EE053A60EE041A63EE48
:1086D000A40A23EE831AC1E7B0EE640AFFF790FC08
:1086E000F0EE403AA3E7FFF78BFCB0EE404A25EEF0
:1086F000C08A20EE052A91E7B0EE650AFFF780FCFC
:10870000F0EE405A77E7FFF77BFCB0EE405A68E79F
:10871000DB0FC93F00000000032231234FF6FF7139
:108720000272012243700023018202700271827082
:1087300043818381C381837430B4332532244571EE
:10874000C47030BC704700BFFF22034600F1100127
:1087500070B41A70023303F8012C8B42F9D10B4B21
:108760004FF0FF31002203F10F060C4605E093F9AC
:10877000044093F9051013F8032F00EB42059E42C5
:1087800000F812406970F2D170BC704798A90508D2
:1087900010B42C2101240222002304704170827045
:1087A000C3705DF8044B70471F22032302704370AF
:1087B000704700BF00230222037002714370837070
:1087C000C3707047F0B5154B4FF0FF34FF211727EA
:1087D00003F10C0EA446162615250022C170017166
:1087E00001724172417381738174C17402EB820220
:1087F000734500EB020185544E708F7081F803C001
:108800000C710AD093F9062006335D789E78DF78E4
:1088100093F904C093F90540E8E7F0BDACA9050859
:108820000023037043708370C3707047F8E700BF84
:10883000002306214FF47A7201700373C0E901230B
:10884000704700BF30B41D6995420AD314460A46EA
:1088500021448D42996938BF2A1B214430BC4FF016
:10886000F7BB30BC704700BF002070470120704745
:108870000120704700207047054B002010B49B6812
:108880004FF4007414800B605DF8044B704700BF18
:10889000F8980120144B2DE9F0471D6884B0ED0ACB
:1088A0001BD0DFF84880002604AFC146AC19D8F8C9
:1088B000001010236A466410D1F824A04846E10253
:1088C000D0470F2809DD6B4653F8042B013208D13D
:1088D0009F42F9D12546B542E8DCE80204B0BDE884
:1088E000F087661CF7E700BF905B01201896012017
:1088F00004307047704700BF4161704740F2E93370
:1089000000E09BB18268013B12F0020F9BB2F8D0ED
:10891000017340F2E93300E043B18268013B12F099
:10892000010F9BB2F8D0C068C0B270470C4A9042A9
:1089300009D00C4B984211D003F58063984201D0C6
:10894000FF2070470223084AD82101FB03239A899C
:10895000013292B29A819889C0B270470123F2E73E
:108960000030014000380040588A01204FF4006375
:1089700083837047012380F8483070474368426D15
:1089800070B49A61EFF31182502383F31288416827
:10899000D2B2856C0B68046D23EA050323430B6098
:1089A00082F311884369002184681A68246822F0E0
:1089B0000102D0E908561A601D60C26A856A5E61CC
:1089C0005D60056B9A60B0F86C20DD60E262017753
:1089D00070BC7047024B03EB4010407F704700BFF4
:1089E000E0670020704700BF404A4301F0B5D4184B
:1089F000257F05B9F0BD3E4E00EB80053D4F06EBEF
:108A000045153D4E3F7895F802C0367884F802C08F
:108A10000024B742AC701CD07500384C05EB060C36
:108A200014F83CC00CF1FF3EBEF1010F08D9BCF1B7
:108A3000030F0ED106F1010C0CF0030CBC4508D05D
:108A40002E4404EBC6042044417B11B1D01801240C
:108A50008470D152D018EFF31181902484F31288DE
:108A6000D45A00258278CBB2857042EA440292B291
:108A700083F31188224B110A1B7881EA12115140AD
:108A8000CBB11301C94382690124456801F00F018C
:108A90009BB2D2F8AC20AC400B4302F1C0005900AD
:108AA00013F4004F8BB202D15168214351600C3254
:108AB0008242F4D1F0BD13014468826901F00F01D4
:108AC00004F110009BB2D2F8AC2001240B43844087
:108AD00002F1C000590013F4004F8BB202D151686B
:108AE000214351600C329042F4D1F0BDE067002088
:108AF000D854002008920120A5910120A8910120BE
:108B0000D0670020BCEEC00A10EE103A99B26BE7B5
:108B1000F0B4C76982B006461FB1BB883A681B042F
:108B20009361726903206D463E4C536823F4805371
:108B3000536040F2E93301E0013B54D0916889076A
:108B4000FAD5002C4CD034F8023B938140F2E93343
:108B500001E0013B47D09168C907FAD5D3680DB150
:108B600025F8023B0138E4D1516840F2E93341F481
:108B70008051516001E0013B35D091688807FAD5FA
:108B8000002C47D02378137340F2E93301E0013B16
:108B900042D09168C907FAD5D368F76905B12B703F
:108BA00017B13B68BA889A619DF8014001209DF891
:108BB00003309DF802109DF8042041EA04219DF83D
:108BC000054042EA03229DF80630A6F8481043EA21
:108BD0000423A6F84A20A6F84C3002B0F0BC704737
:108BE0004FF6FF73B1E710498A4207D00F4B9A4204
:108BF0000ED003F580639A42D2D102230C4AD821C9
:108C000001FB03239A89013292B29A819B89C7E7BB
:108C10000123F3E7FF23B6E70349F7698A42E5D169
:108C2000ECE700BFC0A90508003001400038004053
:108C3000588A01204B1E0022590003F003030280D2
:108C400001F00801194301F003038908C3EB031382
:108C5000914214BF4FF4E1611146C3EB031341800D
:108C60009B008380704700BFF0B58DB0002504469F
:108C7000032102AE0570029502273046ADF80C5074
:108C8000FFF7D8FF142308AA6770E3704FF44D7301
:108C90000095ADF8045096E80300E38001230890A6
:108CA0006E46A370A373ADF8241092E80300ADF8EC
:108CB0002C101946BDF82C30A0603046A381FFF778
:108CC000B9FF4FF4807204ABE77325746574A28218
:108CD00096E803000490ADF8141093E80300ADF893
:108CE0001C10BDF81C30C4F8160063830DB0F0BD35
:108CF00070B584880B4605460021C4F30B04184662
:108D0000224651F0EFFC6969084A0346914202D3BA
:108D1000074A914204D341B11846BDE87040084764
:108D20002246BDE870404FF093B970BDF0080008CE
:108D30009C0A00082DE9F047089C88461646002149
:108D400020221F46054651F0CDFC5CB16189D4E973
:108D500000236982C2F30F40EA81C3F30F42EB8222
:108D600028822A8340464DF0DFFA16F0100910D110
:108D7000431E70B118F803202E2A51D008EB0301CE
:108D800004E011F801CDBCF12E0F41D013F1FF33F7
:108D9000F7D208280246C2464FF00009A8BF0822B1
:108DA0004FF020334146284605F108082B606B60E0
:108DB0004FF04EF91E4B4A4651462B81404688F8EB
:108DC00002304FF045F96A1EE81D12F8013FA3F189
:108DD0006101203B192998BF13708242F5D14046AA
:108DE00005F10B0110F8013BA3F16102203B192AA8
:108DF00098BF00F8013C8142F4D1C7F30F42182319
:108E0000EE72AA82099A6F83EA612B73BDE8F0873C
:108E1000C01A00F1FF39B9F1030FA8BF4FF00309E1
:108E2000082B03F1010AA8BF0823C2441A46B7E77A
:108E30002020200070B50D4E3368002B13DD0C4C44
:108E4000002503E033682034AB420CDD237F01357D
:108E5000002BF7D0217D203454F8140C0EF0A4F927
:108E60003368AB42F2DC012070BD00BFD467002044
:108E7000E06700200FF056B838B5054658B14C1ED3
:108E800014F8011F284619B9BDE838400FF03CB866
:108E90000FF048F8F4E738BD03682DE9F0410C46BF
:108EA000C3F30D0186B00646002944D1394A01209A
:108EB000394D0223AA42CDE90211CDE904031DD99F
:108EC00036498A4225D901F580418A4217D9344B67
:108ED0009A4220D903F580339A421ED903F5003314
:108EE0009A421CD903F500339A421AD903F500338C
:108EF0009A4218D9052036F09DFAFBE70B460393FA
:108F0000284B1B7D012B10D14FF0FF3006B0BDE880
:108F1000F0810346F3E70323F1E70423EFE705239A
:108F2000EDE70623EBE70723E9E701A902A82EF006
:108F3000C7FB0028E8D11B4D2B7D012B02D16FF020
:108F40000100E3E701233768D4F800802B753AF07D
:108F50007BFAB0B9144C236923F44073236123696D
:108F600043F400732361236943F001032361C7F8CD
:108F70000080BFF34F8F3AF067FA236923F00103B3
:108F8000236100232B750028D9D133680433336063
:108F9000BCE700BF00400008FF3F0008FF7F00085B
:108FA000FFFF0008B49C0120003C02402DE9F04185
:108FB00004460D468E18002700F10808B5422069C6
:108FC00001D1BDE8F081E368591C2344E160042924
:108FD00015F8012B1A72F1D118B941462046FFF756
:108FE0005BFFC4E90370E9E7014B18680DF036BD7B
:108FF0006481012010B504460021012036F0AAF852
:10900000207010BD38B50023451E1C460372E1B226
:109010000134022036F09EF8082C05F8010FF6D135
:1090200038BD00BF194B70B51B780646012B22D006
:1090300040F22E414FF4F072092381820280837046
:109040004FF4FA604FF47A7140F226220123F51DA5
:109050000024F082318372827371E1B20134042002
:1090600036F078F8082C05F8010BF6D10E22022311
:10907000B276338270BD4FF47A704FF47A51042285
:109080003371B0823180B270DAE700BFF0C00120E6
:1090900038B5002305461C46038021460134284686
:1090A00021F000FF082CF8D10023284685F8EA308B
:1090B0001946A5F8EC30A5F8EE30A5F8F030A5F883
:1090C000F230A5F8F430A5F8F630A5F8F830A5F898
:1090D000FA30BDE8384021F0A9BE00BF2DE9F047C5
:1090E000174E81462921002706F1E008154C164B42
:1090F0001022012503E02033A3421AD01A799142AD
:10910000F9D118683268904201D00135F3E75879F7
:1091100072799042F9D107EB47030137304609EBEA
:10912000030A09F803108AF801500EF0A5FA8AF82C
:1091300002002036464501D03179D8E7BDE8F087F6
:10914000B0150608B0150608F00B060838B532222F
:10915000002151F0C7FA02250346642140F2DC5495
:1091600040F21A4040F26C721D72197440F20225EE
:1091700013215C829882192440F27530DA8240F61D
:1091800043021D8399760E2503211C77D8830A2478
:109190001E201A84012283F82A1083F82C00194615
:1091A00083F8225083F82B409A7383F8252083F8A4
:1091B000292083F82D2083F82E200248BDE838406E
:1091C00042F0C2BBD03606081D4B1B7870B5044672
:1091D00000F1250593B105221A49203051F078FBA2
:1091E00028461522184951F073FB012384F83A30C0
:1091F000164B1B7873B984F83B3070BD2846152296
:10920000134951F065FB012384F83A300F4B1B786A
:10921000002BF0D00F4A0123166855689068D1687A
:1092200026606560A060E160D16916695569906942
:1092300084F83B3026616561A061E16170BD00BFCB
:10924000F866012074C101205CC10120F96601208B
:10925000DC360608CC660120002108B508460EF071
:1092600007F9002008BD00BF38B50C4B0C4D1C6839
:109270002B68E31A322B09D86B68A34200D338BDA0
:10928000323400200DF07CFC6C6038BD00210846B3
:109290000EF0EEF800236B6038BD00BF908801200F
:1092A000B81801202DE9F0434FF416728FB0002159
:1092B000714851F017FA714B714D4FF080415A6C63
:1092C000A5F120092C4642F00102DFF8C08109F522
:1092D0001E676C4E5A645A6C02F001020092009AAA
:1092E0001A6C42F001021A641A6C02F00102019237
:1092F000019A1A6C42F002021A641A6C02F002021D
:109300000292029A1A6C42F004021A641A6C02F079
:1093100004020392039A1A6C42F008021A641A6C4F
:1093200002F008020492049A1A6C42F010021A64C5
:109330001A6C02F010020592059A1A6C42F0200293
:109340001A641A6C02F020020692069A5A6C42F0D5
:1093500002025A645A6C02F002020792079A5A6C8F
:1093600042F480325A645A6C02F480320892089AAD
:109370005A6C42F400325A645A6C02F40032099278
:10938000099A5A6C42F480225A645A6C02F4802280
:109390000A920A9A1A6C42F040021A641A6C02F09D
:1093A00040020B920B9A1A6C42F080021A641A6CFB
:1093B00002F080020C920C9A1A6C42F480721A64C9
:1093C0001B6C03F480730D930D9B4246002304E055
:1093D00001330E2B10D056F833209142F8D12A4A8F
:1093E000203402EBC30393F8940037F001FCA7424A
:1093F00008D054F8201CE8E72034002037F0F8FBB0
:10940000A742F6D109F51C6609F12009B1450FD034
:1094100099F80630002BF7D099F8040009F12009DB
:109420000DF0B0FC19F8181C38F0ECFAB145EFD18A
:109430004FF08041154F134E3A46002304E00133AC
:109440000E2B10D056F833208A42F8D10E4A203520
:1094500002EBC30393F8940037F0CAFBAC4208D088
:1094600055F8201CE8E72035002037F0C1FBAC425E
:10947000F6D10FB0BDE8F083F8B801200038024003
:10948000100C0608C8A9050838A905080000014005
:109490004369016870B45D699C682A68246822F099
:1094A00001021E8A2A60E26822EA0602E260027C69
:1094B0001F2A06D9203A08204C689040204240D00C
:1094C000FEE708200C6890402042F9D1202000FAE5
:1094D00002F28A60204A1278002A30D01A7F012ACC
:1094E00034D0D3F800210132C3F80021EFF3118109
:1094F000502282F312885868C9B29D6C0268DC6CF5
:1095000022EA05022243026081F31188996801254D
:109510005A695C6B986B09681460DC6B5061186C5D
:1095200054605C6C9060B3F8B400D460C862146896
:10953000188A2C4314601D77CB680343CB6070BC42
:109540007047202000FA02F2CA60C3E7D3F8042172
:109550000132C3F80421F2E7D0670020D3482DE997
:10956000F04F0C461546D24985B002680A60002BC0
:1095700061D02B44DFF854B3CE4E02931CE0002D93
:1095800000F0E081DBF81430AB4261D0DBF8103042
:10959000AB4200F09780DBE90631AB424FD88D42F9
:1095A000C0F07681691A204639F0CEFC0135029B65
:1095B00004F500749D423ED0DBF82070AF42DED847
:1095C000EF1BDBF830804FEAD70AD8F8303007F0CD
:1095D00007070AF1020A9A4503D3D8F838309A45AA
:1095E00009D94146504639F07DFC8046002800F0FC
:1095F0005481CBF8300098F80430002B40F0E7801D
:10960000D8F82890B9F1000F00F0FA81D8F830109E
:109610004346D8F80C202046AAEB010A4FF400710B
:10962000013504F5007407EBCA0A02EB4A22C84769
:10963000029B9D42C0D1002005B0BDE8F08F8D4255
:10964000B0D24FF400720021204651F04BF8ADE744
:10965000722300274FF0FF3C4FF0520E6122412051
:1096600084F8E431394684F8E531DBF82830A2701B
:1096700084F8E7214FF4F072E07084F8E601201DD1
:1096800084F800E084F801E084F8ECC1C4F8E83123
:1096900084F8EDC184F8EEC184F8EFC151F022F8EE
:1096A00055216FF05502C4F8F071C4F8F471C4F894
:1096B000F87184F8FC7184F8FD7184F8FE1184F867
:1096C000FF2173E74FF40072002120467A4F51F0DA
:1096D00009F85821EB2002226170F82120704FF028
:1096E000080C61753F219023227421764FF0FF3ED4
:1096F000A370002384F80DC04FF029082273A273D1
:1097000084F81AE04FF0800EE372E3736374A3747D
:10971000E3742375A375E3756376E3766377A377C4
:10972000E37703CF3E27C4F80300C4F80710DBF843
:109730000810DBF8100027770127081ADBF81C1047
:109740002062DBF8180084F82C20091A5B4A942068
:1097500084F8307061620E210D2784F8430084F88C
:10976000441084F84570564F84F846C04FF0AA0C58
:1097700084F840E04FF0550E84F8283084F8293002
:1097800084F82A3084F82B3084F82D3084F82E3079
:1097900084F82F3084F8313084F8323084F8333054
:1097A00084F8428003CAC4F84B101188C4F84700FB
:1097B0009278A4F84F1084F8512003CFC4F85200D7
:1097C000C4F8561084F8FEE184F8FFC1EEE64FF4C9
:1097D00000720021204650F085FFD8F84030002F5D
:1097E00076D104F120020392002B00F08E80D8F88D
:1097F0003030112201972046009704F14009314989
:10980000FFF798FAD8F840301A6C002A00F08F80E1
:109810001B6B112201974FF4E07A039800972A49B5
:10982000FFF788FAD8F8448018F1000318BF012325
:10983000002B3FF4BBAE474603940CE00024AAF192
:10984000200AC146CDE900C4FFF774FABF6CEFB13E
:10985000BAF11F0F1AD997F804E01122484609F10E
:109860002008396807F11C0C3B6BBEF1000FE5D1F5
:109870007A79AAF1200A3C69C14642F02102CDE979
:1098800000C4FFF757FABF6C002FE1D1039C8DE6AF
:10989000E91A204639F058FB88E6231F04F5FE72CA
:1098A00043F8046F9A42FBD180E600BF9088012004
:1098B000B8180120DEADBEEFF0360608FC3606080B
:1098C00008370608E8360608EC360608F89801203E
:1098D000002BD8F8448014BF02230123B8F1000FF5
:1098E000C3EB071714BF012300231CD0424600E03E
:1098F00033B1926C013F131C18BF0123002FF7DC1A
:109900009046A1464FF4007A92E7DBF80C103B46F4
:109910000197082200972046DDF80C904FF4F07A6A
:10992000FFF708FA7EE7A1464FF4007A80E7019737
:109930003B460097112203984FF4E07A4749FFF71E
:10994000F9F96FE74FF400722946204650F0CAFE3D
:1099500080220C2384F8B85184F8BE2184F8C231E7
:109960003F4BDBF81020DBF8080083FB02314FEAA5
:10997000E27C84F8B951CCEB213184F8BA5184F8F7
:10998000BB51B1F5806F84F8BC5184F8BD51C4F867
:10999000C621C4F8CA0142DBFF2384F8BF3184F832
:1099A000C13184F8C031421E2D4BD71783FB0231E1
:1099B000C7EB2131B1F5806F29DA2A4B84F8C51144
:1099C000891083FB0203284821F03F011344C7EBB1
:1099D0006313C3EB831780FB03C0D21B1844DF174C
:1099E0000132C7EBE0100A43034484F8C42184F831
:1099F000C3315522AA2384F8FE2184F8FF31D5E52E
:109A000049464FF40072204650F06CFECEE5FF232D
:109A100084F8C33184F8C53184F8C431E9E7114BC7
:109A200084F8C111891083FB02730F4F21F03F01AD
:109A30001344CCEB6313C3EB831C87FB03E7A2EB5C
:109A40000C021F444FEAE37C0132CCEBE7170A43D8
:109A50003B4484F8C02184F8BF31A4E7EC36060803
:109A600097554541832008828180808070B52AF017
:109A70003BFD1B200DF086F918B1292200238271CD
:109A8000C37137F0EDF918B1292200238271C37137
:109A9000124CD4F88C3213B10023C4F88C32104B22
:109AA00001250026C4F8883284F87452267038F0F4
:109AB000DDFF0C4A0C4B9278C4F88C32AA4201D0DC
:109AC000284670BD3833D4F8A802C4F8A4322DF06B
:109AD00001FC064B304683F8236070BD449601209C
:109AE000580B012050B301200000012000ED00E0E0
:109AF00008B5064B986838B10DF0D4FC044B9B7840
:109B000013B180F00100C0B208BD00BFB818012039
:109B1000F09801200269C3682DE9F04712EA0309B1
:109B200027D00E4605464FF000474FF00008B9FA1F
:109B300089F327FA03F21B3BD2432A6109EA02099F
:109B4000042B13D8DFE803F0322920170300736ACF
:109B5000002B34D1EB6A1FFA83FA346A34B12368DC
:109B60002046514698476468002CF8D1B9F1000F9F
:109B7000DDD1BDE8F0873068696B036889B298472A
:109B8000B9F1000FD3D1F4E77068A96B036889B20B
:109B90009847B9F1000FCAD1EBE7B068E96B0368E9
:109BA00089B29847B9F1000FC1D1E2E7F068296C9A
:109BB000036889B29847B9F1000FB8D1D9E703F12A
:109BC000FF3AC6F824801FFA8AFAC6E740699C303B
:109BD0002DF0F2BD426910B50832184C54F822003D
:109BE0002DF0EAFD164B1A8823460C2A0DD8DFE823
:109BF00002F0070C0C0C130C0C0C190C0C0C1F00B5
:109C00002168CA6822F40072CA60012283F83D20EC
:109C100000220C4B1A7010BD2168CA6822F48062C1
:109C2000CA60F2E72168CA6822F40062CA60ECE701
:109C30002168CA6822F48052CA60E6E7EC5A012023
:109C40002C5B0120E05A0120054B2DE9F04F1C78D8
:109C500087B03CB90124204607B0BDE8F08F00BFB3
:109C6000D0670020CC4B1D680BF0DAFECB4B029086
:109C700093F82C30002B00F0C282C94A4FF0000844
:109C8000C84BA2FB0512C84CDFF848935209A4F157
:109C9000640AA3FB0213DB0803EB8303A2EB430379
:109CA000DAB29B0003920493C04B029A1B68D31A4A
:109CB00004D454F8082C9A4200F38C824FEA8805A9
:109CC000206B54F85C2C05EB0803C1B2176820F038
:109CD000FF000AEB4313B64A103993F85830A2FB41
:109CE000012103F0FF0209090192002B00F0C58059
:109CF000B04B34F8582C5B5C03445E68FB68B6B22A
:109D000023EA0203C6F11606FB60072E40F2B58077
:109D1000A94B0120A16B00229B6886468B460591CA
:109D20008C460344A44917468B60DBF800105CF8AE
:109D300004BF8642ABEB010140F25A82142F12DCC1
:109D400011F1080348BF01F117031B111F44013033
:109D5000594603F1FF3B02FA03F386420EFA0BF277
:109D600042EA0302E3D2152F40F00F829349C2F377
:109D70008427C2F3441602F01F0001EB8707C2F3E9
:109D8000C43201EB8606D7F8007101EB8000D6F8EB
:109D9000006101EB82023F02D0F80031D2F80021CD
:109DA00047EA06173B4343EA023282EA122383EA78
:109DB000131303F00F030F2B40F0E781130940F654
:109DC000FF718B4200F01882C3F30803520B13FAA1
:109DD00002F200F0DA817A4B4FF6FF7003EB520388
:109DE000B3FBF2F291B2814200F0CF81724B0120BD
:109DF000B8F1030F2B449981987306DC714B1B78E3
:109E00002D2B02D1704B23F8182099F85830039A63
:109E1000D9F800609342049B09EB030211D09368C8
:109E20000020D9F80410F31AC9F80030136BCB1ACC
:109E3000C9F8043090601063039BD9F8006089F87A
:109E40005830206B013654F85C7CC9F80060C1B210
:109E5000936820F0FF001039554E01333F68A6FB90
:109E600001619360019B09093BB9D9F804300133C2
:109E7000C9F80430136B0133136345442BF022F807
:109E800000230AEB451585F8583054F8102C012AA8
:109E900000F08781042A00F08481102A00F0848178
:109EA000402A00F07E81B2F5807F00F08381B2F518
:109EB000806F00F07F81B2F5805F00F09581B2F590
:109EC000803F4FF03C0314BF6FF400666FF008064C
:109ED00007F1180522463846E9583140E95054F850
:109EE000101C2AF05AFC54F8103C012B00F057814A
:109EF000042B00F05481102B00F05981402B00F00E
:109F00004E81B3F5807F00F05981B3F5806F00F08A
:109F10005581B3F5805F00F06281B3F5803F07F1B2
:109F2000540514BF4FF4006208222B6840272748CD
:109F30001343274E2B60216B54F83C5C54F8403C93
:109F40005FFA81FE44F8447C21F0FF022B43AEF11E
:109F5000100E174D54F8387CA5FB0E5E43F04005FB
:109F600054F8243C4FEA1E1E2F4354F8345C10F87A
:109F70000EC02F4354F8305C5CF802000CEB020E6C
:109F80003D43064054F8200C1D432E434CF802601C
:109F900000283DD020E000BF908801209867002075
:109FA0001F85EB51CDCCCCCC3C55002014000020BB
:109FB000ABAAAAAABC0A0608D06A002038A90508DC
:109FC000C02709009191012094910120BC0A060844
:109FD0001F80FCFFE0300020DEF8145054F81C3CD9
:109FE00025F0070554F8186C034354F8147C2B43F0
:109FF000CEF814305CF8023023F0C0731E434CF8E6
:10A0000002605CF8023023F4C0031F434CF8027076
:10A0100054F8483C08F1010854F84C0C09F15C096B
:10A02000CEF80C30A034CEF80800764BDEF80400F1
:10A0300054F8CC5C034054F8C80C2B43CEF80430E1
:10A040005CF8023023F0F05303434CF802300B6805
:10A0500043F010030B606C4B93F82C3043453FF7F3
:10A0600023AE002269490A60002B3FF4F3AD9AF851
:10A070001020DAF8540012F0020FDAF80820116804
:10A080000A6A0CBF024342EA8002012B0A623FF4D3
:10A09000E1AD9AF8B020DAF8F40012F0020FDAF825
:10A0A000A82011680A6A0CBF024342EA8002022B10
:10A0B0000A623FF4CFAD9AF85021DAF8940112F019
:10A0C000020FDAF8482111680A6A0CBF024342EA1B
:10A0D0008002032B0A623FF4BDAD9AF8F021DAF852
:10A0E000340212F0020FDAF8E82111680A6A0CBF94
:10A0F000024342EA8002042B0A623FF4ABAD9AF8B5
:10A100009022DAF8D40212F0020FDAF888221168ED
:10A110000A6A0CBF024342EA8002052B0A623FF43E
:10A1200099AD9AF83023DAF8740312F0020FDAF8D6
:10A13000282311680A6A0CBF024342EA8002062BF8
:10A140000A623FF487AD9AF8D023DAF8140412F0CB
:10A15000020FDAF8C82311680A6A0CBF024342EA08
:10A160008002082B0A627FF475AD9AF87034DAF831
:10A17000B41413F0020FDAF868341A68136A14BFC3
:10A1800043EA81030B43136264E5214A53680133B8
:10A190005360B8F1000F15D00023019335E6082273
:10A1A000C3E66FF0080693E66FF4006690E64FF49E
:10A1B0000062BAE66FF00806042389E607F11C0581
:10A1C0000822B2E60599582212484DF041FFCDF819
:10A1D00004801AE60024204607B0BDE8F08F07F19E
:10A1E0001C054FF40062A0E66FF4006604236FE6DE
:10A1F000C7F115031527AAE500221146F6E5034A23
:10A20000136028E50000FFFF98670020140000207D
:10A21000D06A0020FC6A0020224A234B2DE9F0413D
:10A2200012781B789A4236D1204E3368002B13DD0A
:10A2300000251F4C1F4FA8463B7801353BB1237FBB
:10A24000012B22D06269136843F001031360336865
:10A2500004F58674AB42EFDC0BF0E2FB164BD3F84F
:10A26000CC45C3F8C805002C0DDD03F5BA6303EB3C
:10A27000C4041968083333F8042CC868A34242EABE
:10A280000002CA60F5D1BDE8F081204684F8FC8068
:10A29000FEF774FBD6E738F035F80028C4D1BDE8E6
:10A2A000F08100BF08920120A5910120405A0020B2
:10A2B000445A0020D067002014000020CC4B1B78AB
:10A2C0002DE9F04F87B0EBB9CA4F3B68002B15DD85
:10A2D0000025C94829464669D0F8AC30346803F1F6
:10A2E000C00224F00104346059600C339A42FBD15F
:10A2F00001353B6800F58670AB42ECDC012007B00D
:10A30000BDE8F08FBD4B1C680BF08AFBBC4AD2F84D
:10A31000C835D2F8F025C31A1432B3EB420FC0F29D
:10A320008B81B84B4FF00008B74AA3FB0413B74822
:10A33000DFF8FCE25B09B649DFF8F892A2FB032CD8
:10A3400002684FEADC0C0292B24A0CEB8C0C90686B
:10A35000A3EB4C0C526801905FFA8CF304920EEB65
:10A360008C0C0A7803930592029B434540F3398194
:10A37000D9F818200121D9F8043056699940D2F84B
:10A38000F440F3B2D2F8F850A34A26F0FF06103B8F
:10A390002088A24FA2FB032300EA010218091346FA
:10A3A000385C30449E4E406880B22D1AAE1904EBE2
:10A3B0004606B44280F07D81608800EA01021746BB
:10A3C000002B00F06A81A08800EA01021346002FEA
:10A3D00000F06581E08800EA0102002B00F0618155
:10A3E00004F108032089EAB1B24600EA01029A4565
:10A3F000174619D9588800EA01021646002F00F0C6
:10A400004681988800EA01021746002E00F041813B
:10A41000D88800EA0102002F00F03D8133F8080FD0
:10A42000002AE2D100EA0102002A40F0CE801C1B83
:10A43000A5EB6404452C28BF452403EB440083426C
:10A4400080F0C3801C46164615464FF0010A009264
:10A4500016E0B3F802B00BEA010B5A4540F00A814E
:10A46000B3F804B00BEA010B5A4540F00E81DA88CC
:10A4700008330A40954206D1984207D91A880A4003
:10A48000AA42E6D00233984200F2DA80009F112FF0
:10A4900040F29B80C7F11507002FC0F2ED8000F05D
:10A4A0000A81791E012306FA07F75E4A8B401F4393
:10A4B000C7F3130107F01F07CC0BC1F3441002EBE5
:10A4C0008703C1F3842102EB840402EB8000D3F8FC
:10A4D0008031D4F8804102EB8102D0F8801143EA48
:10A4E0000433D2F8802143EA011343EA022383EACA
:10A4F000132282EA121202F00F020F2A40F0BC80EF
:10A50000B3F5803F80F0B8801A0940F6FF718A42A7
:10A5100000F0C980C2F308025B0B12FA03F300F0EB
:10A52000AB80414A02EB53004FF6FE72B0FBF3F0F2
:10A5300090424AD0019A4FF6FF730132984201923D
:10A5400000F09D8081B2334B0122B8F1030F03EB81
:10A55000880399819A7305DC059B2D2B02D1334B1F
:10A5600023F818009EF85830039CDEF80010A34230
:10A5700014D0DCF80830DEF80420CB1ACEF8003016
:10A58000DCF83030D31ACEF804300023CCF8083091
:10A59000CCF83030DEF800108EF8584001314FF61C
:10A5A000FF72CEF800109042DCF8083003F101038E
:10A5B000CCF8083009D1DEF804300133CEF804308D
:10A5C000DCF830300133CCF8303008F101080EF1FE
:10A5D0005C0E0CF15C0C09F12009B8F1080F7FF456
:10A5E000C3AE0C4B019A9A60049A5A606CE600BFA5
:10A5F000D0670020405A0020445A00209088012053
:10A60000140000201F85EB51CDCCCCCCD4670020AA
:10A6100091910120D06A0020ABAAAAAABC0A060820
:10A62000C7FFFF7F38A90508C027090094910120C2
:10A63000E0300020E0670020002007B0BDE8F08F88
:10A640001A1B304F33F8025C1C4652100D40013289
:10A6500087FB027B009FABEBE272012AB8BF0122AD
:10A6600002F1FF3B964017440AFA0BFB00974BEAB6
:10A67000060603E7043306E7019B01330193049BBD
:10A680004FF6FF70013304936CE70633FBE60233A9
:10A69000CAE60433C8E60633C6E6A31CC4E6231D97
:10A6A000C2E6A31DC0E6019B0021013308460193C9
:10A6B00049E72346B8E6C6F31301134B06F01F0221
:10A6C000CC0BC1F3441003EB8202C1F3842103EBF2
:10A6D000840403EB8000D2F88021D4F8804103EB9E
:10A6E0008103D0F8800142EA0432D3F8801142EAB3
:10A6F000001343EA012383EA132282EA121202F0D2
:10A700000F02FAE65655555538A9050820B10078CC
:10A71000B0FA80F0400970470120704708B5202149
:10A7200050F0AFF8034618461BB102780133202AD7
:10A73000F9D008BD037903F01803082B0AD002D81A
:10A740002BB100207047102B17D0182BF9D1B0F87F
:10A750000B007047124BB0F80B0093F90030591CF6
:10A7600009D1104B1B7803EB031203EB820300EBC0
:10A77000430080B27047DBB2F5E70B4BB0F80B003B
:10A7800093F900305A1C09D1064B5B7803EB430266
:10A79000C3EB021300EB430080B27047DBB2F5E776
:10A7A000A9000120F49B0120A800012070B5084DEC
:10A7B0002A782AB9074C084EB44202D301232B70E1
:10A7C00070BDA288D4E902104DF042FC1834F3E7C2
:10A7D00048410120E8010008F0080008F0B50679BA
:10A7E00006F0E003402B09D144794FF0FF350023F8
:10A7F000012006F00706A3420BD1F0BD602B4FF0FD
:10A80000010403D1457904FA05F5F0E74FF0FF356F
:10A81000EDE7042E0CD8DFE806F0030D18242E0017
:10A8200030B1C85CD75C784028420CBF01200020C2
:10A830000133E0E70028FBD0C856D756A0EB070C41
:10A84000DCF1000040EB0C00F2E70028F0D031F81A
:10A85000130032F81370784028420CBF012000200A
:10A86000E6E70028E4D031F9130032F91370C71B72
:10A8700078427841DCE70028DAD051F8230052F81A
:10A880002370784028420CBF01200020D0E7034B02
:10A890000146186808B10DF045BB704710A00120B3
:10A8A000024B01461868FEF7E7BA00BF10A001206E
:10A8B0000048F5E70734060808B5FFF7F1FFBDE8E3
:10A8C0000840F5E710B504460348FFF7E9FF2046C6
:10A8D000BDE81040F0E700BFD832060808B532B135
:10A8E000C30600D519B11046FFF7ECFF0022104651
:10A8F00008BD034B186808B10DF006BB704700BFD8
:10A9000010A00120044BC0431A6802401A60034A99
:10A910001368034013607047C05E0120FC9F012054
:10A92000034B01224FF400101A7024F0F7BF00BF50
:10A93000F8570120022810B5044611D800EB001387
:10A940000A4A0B4900EB83030A4802EB43030470F5
:10A9500018460B6014F040FD15F028FE15F0CAFDF6
:10A96000601CBDE81040C0B224F072BFE452012068
:10A9700044A10120F49B01207A4B9A88B2F57A6FAA
:10A9800030B52DED028B85B002D94FF47A629A80F2
:10A99000DA88B2F57A6F02D94FF47A62DA801C89CC
:10A9A000B4F57A6F03D94FF47A6214461A81588944
:10A9B000B0F57A6F02D9002210465A819989B1F513
:10A9C0007A6F03D94FF47A6211469A81DA89B2F527
:10A9D0007A6F02D900252A46DD81844201D8002001
:10A9E0001881914201D800229A81598B9A8B914209
:10A9F00001D900225A835C4C2388002B51D05B4D37
:10AA0000AA78062A7CD85A4901EB820292ED808A04
:10AA10002A79002A79D1574907EE903AAB790A781A
:10AA2000F8EEE77A07EE102AF8EEC76AB0EE667A1B
:10AA300086EEA76A0BB138EE088AB4EEC68AF1EE4C
:10AA400010FA21DD27EE888ABCEEC87A8DED017AF6
:10AA50009DF8043007EE103AB8EEC77AB4EEC78A14
:10AA6000F1EE10FA01DD0133DBB2002B6BD0102BBD
:10AA7000A8BF10239A4204D807EE103A1A46F8EEFF
:10AA8000C76AB0EE667A0A70DFED3B6A27EE267A77
:10AA9000C7EE276AFCEEE66A16EE903AB3F5FA7F47
:10AAA0004CD8364B9A78022A01D100229A70344948
:10AAB0004B78052B14D803EB4300324AC3EB001349
:10AAC000314802EB43030A78022A036010D90023BD
:10AAD0002E4A0B702E4B1A6005B0BDEC028B30BDB8
:10AAE0000022284B28484A700A780360022AEED8D0
:10AAF00002EB0211254B02EB810203EB4202E9E774
:10AB00002A799FED248A002A85D0002304A800F822
:10AB1000013D38F005FB9DF80F300BB9AB78A3B9B8
:10AB20002388002BBDD0134A07EE903A1378F8EE35
:10AB3000E77A07EE103AB8EEC77AA5E74FF0005073
:10AB4000FFF7E0FEADE7012394E7B7EE000A80EEE1
:10AB5000080A4DF015FB2B88984228BF184628801C
:10AB6000DEE700BFD49C0120705F002044860120F6
:10AB700038A90508104B01200024744950B3012066
:10AB8000F49B0120A854012070B30120E45201205D
:10AB900044A101206F120338A64B2DE9F04F1B781A
:10ABA00083B0A3F11702022A0FD9A34A12F8331077
:10ABB000002940F0A182D9000A4452782AB19F4A64
:10ABC00012F83330002B00F04D839D4E00259D4C34
:10ABD00096F8088004F16C099B4F32E0DDB253080F
:10ABE000201F4FEA920A0C3403F0773B4FEAD20E53
:10ABF0000AF0333A4146A2EB0B030EF0113EA3EBF1
:10AC00000A03A3EB0E0303EB131303F00F33A7FBAD
:10AC100003AE4FEADE1ECEEB0E2EA3EB0E0EBEF100
:10AC2000010F0BD9BEF1020F15D1BCF1000F02D0FC
:10AC300012F42F7F02D145F0B1FD60B14C4500F018
:10AC4000B88154F8042C6B1C12F0010CC6D194F995
:10AC50000030142BC3D17D4824F072FC022024F074
:10AC600065FB7B4B1B78022B00F06F82002800F005
:10AC7000FF82784D4FF47A68774F4FF0000E4FF017
:10AC8000640B2B4697F809A005F5CF795A88B2F5E1
:10AC90007A6FB3F84C2088BFA3F80280B2F57A6FC0
:10ACA0009A8888BFA3F84C80B2F57A6FDA8888BF9B
:10ACB000A3F80480B2F57A6F02D90022A3F806E067
:10ACC000998803F16B009142B3F86010B3F86220E9
:10ACD00098BFA3F804E0914293F87120194602F15D
:10ACE000FF3288BFA3F860E0632A93F8722002F174
:10ACF000010288BF83F871B0D2B2092A4FF0000276
:10AD000088BF83F872E08C7A013210F801CF0631E7
:10AD1000A44528BF80F800E0032AF4D1BAF1010F5E
:10AD200003F18A0318BF03F801EC4B45AED14B4C3D
:10AD3000A378042B00F0FB8123B92388B3F5F07FBF
:10AD400000F2E481DFF83481FFF716FE98F807106F
:10AD5000092904D019B108F10800FDF76BFF98F834
:10AD60001510092903D011B13D48FDF763FF3D4B94
:10AD7000B3F9042022B9B3F90620002A00F0D181EA
:10AD800001225A813849394BD1F80090DFF8F08020
:10AD900009EA0303002B00F06F8219F0010F40F065
:10ADA0001B8219F4804F40F0208219F0080F40F008
:10ADB000258219F4005F40F02A8219F4004F00F058
:10ADC00090810023F37386F8233017F06DFD00287F
:10ADD00000F02181737E032B00F01D815A1E012A91
:10ADE00000F22981023B022B00F2308119F4805FCE
:10ADF00000F037811E4BDA79022A01D10122DA7183
:10AE0000072017F031FC002840F007824FF48060E3
:10AE100024F08CFA002800F00A82164B1E4603F13B
:10AE2000780A03F17D097179002937D0307898B319
:10AE3000114B2AE034AD01205C21060888E60508A4
:10AE4000809F0120D8A0012081808080D4A0012093
:10AE500078B20120E4520120F870012044860120DC
:10AE60000EAE012050A10120C05E01200960000249
:10AE70006C5701208CAE012091AE0120F8AD01206D
:10AE8000FC9F01200633994508D013F8052C8A420F
:10AE9000F8D11A78002AF5D017F092FB0636B245A1
:10AEA000C1D1A378082B00F06781797A4FF4007044
:10AEB000BA7AA1F10101D8F80060A2F10102B84B01
:10AEC000B1FA81F1C6F3C036B2FA82F249099E7036
:10AED0005209B44E19701A71FFF714FD4FF4003087
:10AEE000FFF710FD4FF40010FFF70CFD4FF000705E
:10AEF000FFF708FDB388002B40F04981AA4B1A6880
:10AF000012F07F4F01D000221A609968A74A0A40C8
:10AF10000AB100229A601A79013A042A01D9012261
:10AF20001A7102A8002600F8016D38F0F9F89DF8B2
:10AF30000730002B40F0BF80A379002B40F0D98070
:10AF4000002385F87E3085F8083185F89231984BDA
:10AF5000DA8802F00F01032959D8C2F30312022A3A
:10AF600055D81A8902F00F0103294CD8C2F30312F5
:10AF7000022A48D88F4B904A5C78507819788442DE
:10AF800040F2918000205870002940F08B8092F8A8
:10AF9000EA209978914201D900229A70874B03F5F3
:10AFA0000D719A78013A032A6CD8DFE802F0161C7A
:10AFB0000707013D022D7FF651AE4CE65C7A987A88
:10AFC000C82CDA7AA8BFC824C828A8BFC820C82AB5
:10AFD0005C72A8BFC8229872DA725E339942E0D1DF
:10AFE00003B0BDE8F08F5C7A987A632CDA7AA8BF58
:10AFF00063246328A8BF6320632A5C72A8BF63220E
:10B000009872DA72E9E740F601221A81B2E74FF44A
:10B010002062DA80A5E70023AB816B82A5F8963029
:10B02000A5F89C30A5F82031A5F8263117F03CFC96
:10B03000002840F0078100232B83A5F8A230A5F853
:10B040002C3117F031FC002840F0F680002319F471
:10B05000805F85F84F3085F8D93085F863317FF40B
:10B06000C9AE19F0800F3FF4C5AE554B19781829B9
:10B070003FF6CCAE0122534B8A401340002B3FF4E5
:10B08000C5AEB7E65C7A987A642CDA7AA8BF6424F5
:10B090006428A8BF6420642A5C72A8BF64229872E6
:10B0A000DA729AE7988010788842BFF470AF002176
:10B0B000197099806BE7227C2671A37952B3424ABA
:10B0C000D27B002A3FF439AF002B3FF439AF3F4B1E
:10B0D0001A78002A7FF43BAF1B79002B7FF437AF3F
:10B0E0002EE7F37B002B00F0B380002386F823309B
:10B0F0006BE60023A37123E7D900501840680028AD
:10B100007FF45AAD17202E4C207055E54FF4F073A4
:10B11000238017E66279012AD1D1002B3FF410AFCA
:10B12000E7E7B3F90820002A3FF42CAE28E64FF4F5
:10B130008050FFF7E7FB238BB3F57A7F80F0968092
:10B140004FF47A72A3782283F6E500283FF491AD9C
:10B150001F4FFF251F4B90F90440397B03F16C0012
:10B1600093F90820A24202D101391D72C9B20C33F1
:10B170008342F5D139737CE5A379002B3FF495AE7A
:10B18000237C012B7FF491AE022323748DE630786B
:10B1900034F086F800287FF4B1AEB080AEE600BF90
:10B1A000E4880120049E012070AD0120FDFDFFFF19
:10B1B00034B101205C700120285C0120A8540120DA
:10B1C00034AD012000410001F49B0120A046012084
:10B1D000B8180120F86501202D48FFF793FBD1F83E
:10B1E000009019F4804F3FF4E0AD2A48FFF78AFB46
:10B1F000D1F8009019F0080F3FF4DBAD2648FFF7B7
:10B2000081FBD1F8009019F4005F3FF4D6AD2348DC
:10B21000FFF778FBD1F80090CFE5072017F0D0F9C1
:10B220004FF4806024F082F800287FF4F6AD4FF0F0
:10B230000060FFF767FBF0E5737E023B022B7FF6B1
:10B24000D5AD03E7737E5A1E012A7FF6CBADF2E639
:10B2500042F2010319EA030F3FF4B7AD002386F869
:10B260002330B2E518230E4A1370AEE4A37863E5E9
:10B270008020FFF747FBFCE4D8F8003049F00809CC
:10B2800043F00803C1F80090C8F8003085E500BF1E
:10B29000086000020920000201600002094000026B
:10B2A00034AD0120734B2DE9F04F1B7883B0DFF8EC
:10B2B0001C92013B012B40F2C6806F4B6F4A9342B8
:10B2C00080F0D58003F118069B464FF0010ADFF8A5
:10B2D0000082CDF804906A4C258862197DB1424500
:10B2E0000DD2052D0BD936F8183C6188C3F30B033A
:10B2F00099426FD0144625886219002DEFD156F877
:10B30000101C5846FDF7F4FC4FF0000A0BF1180B27
:10B310005A4B18369B45DED3DDF80490594A5A4BF8
:10B3200012681A60FFF738FC584BDA7B012A76D096
:10B33000022A6DD020251A785B7802EB021454485B
:10B3400003EB430102EB8402524CC3EB011352495D
:10B3500000EB420201EB430350492260504A0B606C
:10B36000156017F0AFFA4F4B4FF0FF322068C8243A
:10B370001A6014F031F817F005FA4B4864210023E5
:10B380000289007901FB02F211FB00414748224487
:10B39000474C89F8243089F825300460C9E9011246
:10B3A000C9E90333C9E90533C9E907333FF0C4FAF2
:10B3B000404B997C188A15F0D7FA1EF0B7FF4AF077
:10B3C000E5FD2C4B1B78013B012B2AD9504603B0DD
:10B3D000BDE8F08F637913F003038BD156F8101C8E
:10B3E000584694F80490FDF783FC36F8182CB9EB16
:10B3F000123F89D136F8143CAA1FA11D56F8100C33
:10B40000C3F30B039A42A8BF1A464CF021FE7DE716
:10B41000294A9279002A0CBF202528258BE7282568
:10B4200089E70AF0FDFA254B254A02211C68012311
:10B4300010605046234AC9F80C40117089F8253035
:10B4400003B0BDE8F08F0AF0EBFAD9F80C301E4AD1
:10B45000022403F2DC531B4902441948C9F80C309A
:10B460000260054B054A0C709342FFF42BAF4FF07E
:10B47000010A53E7DC9F0120E8010008F0080008FA
:10B4800002400008C05E0120FC9F0120F49B0120C7
:10B49000E452012044A10120A854012070B30120EE
:10B4A00010000020680101206C570120F47F01206A
:10B4B00054A10120B8180120448601209088012061
:10B4C000047F0120007F012060E3160068700120E6
:10B4D00000800008026830B41146541CD31C151DAE
:10B4E000046011F8024B01605178036093780560A5
:10B4F0001B04D07843EA0123234330BC43EA0060B5
:10B50000704700BF0368591C1A46016012F8021BFD
:10B510000260587841EA0020704700BF03685A1C57
:10B5200002601878704700BF70B504460E460846A2
:10B530004AF0FAFE31460546024620684CF088FD86
:10B5400020682844206070BD38B504460068154660
:10B550004CF07EFD22682A44226038BD03680A0A46
:10B5600070B45E1C0D0E0C0C06601D7003685D1C33
:10B5700005601C7003685C1C04601A7003685A1C28
:10B580000260197070BC704703680A0A10B45C1C32
:10B5900004601A7003685A1C026019705DF8044B4D
:10B5A000704700BF03680A0E70B45E1C0D0A0C0CD5
:10B5B000066019700368591C01601D700368591CEE
:10B5C00001601C700368591C01601A7070BC7047E0
:10B5D00003680A0A10B45C1C046019700368591CE3
:10B5E00001601A705DF8044B704700BF03469FED81
:10B5F000146AB3F9002006EE902AB3F90220B3F9D9
:10B60000043007EE102AF8EEE66A07EE903AB8EE3C
:10B61000C77AF8EEE77A66EE866A27EE067A67EE74
:10B62000867A00B585B001A8CDED016A8DED027A6C
:10B63000CDED037AFCF7C2FF05B05DF804FB00BF57
:10B6400088C3E43A07EE901A9FED827AF8EE677AA3
:10B6500027EE800A20EE070AFDEEC07A17EE903A38
:10B660002033402B7ED8DFED7C7AB4EEE70AF1EE92
:10B6700010FA40F3E380B0EE407A9FED786ADFED98
:10B68000786AB4EEE67A77EE467AF1EE10FAB0EE2A
:10B69000677AF6DC9FED737AF4EEC77AF1EE10FA72
:10B6A00040F1CF809FED6D6ADFED6F6AF4EEE67AD0
:10B6B00037EE867AF1EE10FAF0EE477AF6D4DFED47
:10B6C0006B7AB4EEE77AF1EE10FA40F3A580DFED85
:10B6D000627A37EEC77A67EE075A9FED655A9FED9B
:10B6E000656AF7EE007ADFED646AA5EE856A9FED84
:10B6F000635A67EE254AE5EE866AF0EE675AA4EED5
:10B70000A67AE7EE055AE7EE457A87EEA55ADFED11
:10B71000577A30EE277AFDEEC76A16EE903A20335C
:10B72000402B24D9F6EE006A9FED557AB7EE006AF9
:10B73000F7EE004A002380ED045A8361C4EEA57A37
:10B7400043610362C36167EEA66A27EE866A27EE4D
:10B75000877AC0ED006AC0ED026A80ED016A80ED73
