:020000040800F2
:10000000F0FF0010C1B70508E345040879EE0008C9
:1000100061B8050861B8050861B80508000000006E
:10002000000000000000000000000000E14504089E
:10003000DF45040800000000DD450408D12E020859
:1000400061B8050861B8050861B8050861B8050818
:1000500061B8050861B80508813E0208AD3F020895
:10006000713F0208353F0208F93E020809D804082A
:10007000F9D70408E9D70408D9D70408C5D7040874
:10008000B1D704089DD7040861B8050861B8050810
:1000900061B8050861B8050861B80508BD3E0208E9
:1000A00091F600082DFC0008C1F50008FDFC0008D1
:1000B0006DFB0008ADFA0008E1F9000805E004084E
:1000C0000BE00408FBDF040801E0040861B8050840
:1000D00061B805084531020861B805088930020891
:1000E000453E020861B80508618C0408F1F4000877
:1000F00061F7000821F4000841F8000889D70408D6
:1001000061B8050861B8050811F9000861B805086B
:10011000CD2F020861B80508D9950108619401083E
:1001200075D7040861D704084DD7040839D70408E7
:1001300025D7040861B8050861B8050861B8050845
:1001400061B8050861B8050861B80508195C0408BC
:1001500011D70408FDD60408E9D60408112F0208B7
:10016000F1DF0408F7DF040861B8050861B8050885
:1001700061B8050861B8050861B8050861B80508E7
:0801800061B8050861B805082B
:0801880068B30500010000004E
:100190001A0201003C000000A81D0020441F00209E
:1001A00000000000ED490308031201003D000000BB
:1001B000281D0020801F002000000000F808000813
:1001C0003810010001000000B4190020C01F0020F9
:1001D00000000000360900080A02010014000000B7
:1001E000242800201C2B00200000000039280108D2
:1001F000F821010006000000F4220020302B00202E
:1002000000000000380900080300010001000000A0
:1002100014230020382B0020000000000000000004
:100220001010010002000000C02200203C2B002022
:10023000000000003E09000825201E002C010000DF
:1002400040280020402B002000000000000000009B
:10025000020001000C000000242D0020B82D002019
:100260000000000000000000290201004000000022
:10027000882C0020C42D0020000000004009000848
:1002800028020400040000008C2E0020902E002084
:1002900000000000054203082702040004000000DB
:1002A000882E0020942E002000000000F941030851
:1002B0001900010005000000B0390020703A00204C
:1002C00000000000800900081A0001000E00000074
:1002D00038390020783A0020000000008609000824
:1002E000203201000A00000004380020883A002073
:1002F000000000000D7E02081500100070000000D4
:1003000098350020943A0020000000000000000012
:100310002A00080060000000103A0020043B002082
:1003200000000000E57D02082C0004001000000021
:10033000743B0020643B002000000000B97B0208F1
:100340002B00120024000000A83B0020843B00206A
:1003500000000000897B02082920140078000000BA
:1003600044330020CC3B00200000000000000000CF
:100370000702010002000000AC42002000470020FC
:1003800000000000940900081D02020006000000A1
:100390000C42002004470020000000000000000084
:1003A000060203000C000000944200200C4D0020C7
:1003B0000000000059450308081203000F00000068
:1003C00018420020184D002000000000A141030841
:1003D0002700010004000000543D0020284D0020AB
:1003E0000000000096090008F62101000C00000042
:1003F0006C7A0020347B0020000000009C0900087B
:100400001C0202001C000000F47A0020847B002003
:10041000000000008D4403081400010004000000E7
:10042000407A0020A07B002000000000A8090008FE
:10043000012001000C00000024720020A47B002099
:1004400000000000AC0900080EF003009E0100004F
:100450009C6D0020B07B0020000000002D7E020873
:1004600013000100040000006C770020507D002084
:1004700000000000B80900080101010004000000AC
:10048000E86C0020547D0020000000000000000007
:100490000001010004000000E06C0020587D0020F5
:1004A00000000000BC090008020101000300000078
:1004B000DC6C00205C7D0020000000003D13010882
:1004C000220201001C01000054750020607D002004
:1004D00000000000B94803080C20060034020000A8
:1004E000606F00207C7E0020000000001D130108CA
:1004F000FD070100760000000C9700208497002083
:1005000000000000B9E304080B3001001A000000ED
:10051000D49000202C98002000000000C0090008A2
:100520001F3001002400000010880020489800209F
:1005300000000000DC0900080502010004000000C2
:10054000A89300206C98002000000000000A00081A
:10055000030101000A00000058900020709800205C
:1005600000000000292E040813020100040000000E
:10057000DC8000207C98002000000000040A0008B5
:10058000100201000100000090AC00208CAC0020A3
:1005900000000000080A0008010201000B00000032
:1005A0003CB500200CC3002000000000914103086E
:1005B0001B0201001000000028B5002018C3002015
:1005C00000000000094203081B1001000C0000009D
:1005D00088AE002028C30020000000006D0A050836
:1005E00021020100F000000008AD002034C300200B
:1005F00000000000E50705082312010010000000BC
:1006000028B2002024C40020000000000C0A0008CA
:10061000051001000600000020B2002034C40020B4
:10062000000000001C0A0008371001002E00000026
:1006300098B400203CC4002000000000220A0008FA
:100640000E020100020000001CB200206CC4002059
:1006500000000000500A000816100100060000000B
:1006600014B2002070C4002000000000520A0008EC
:100670002F10010022000000E8C2002078C40020F2
:1006800000000000580A00081E00010009000000D8
:1006900038B100209CC40020000000007A0A000845
:1006A000F58101006800000098AC0020A8C400207B
:1006B00000000000C12B05082320010010000000ED
:1006C000C0B1002010C50020000000008DAD03085F
:1006D0000D10010058000000FCEE002044F800203E
:1006E00000000000E1CD01080400080080000000C7
:1006F0003CEE00209CF800200000000000000000FC
:100700000902010001000000E4ED00201CF90020B6
:1007100000000000840A0008FD0101002400000020
:1007200088ED002020F90020000000008704020866
:10073000182001003200000050ED002044F9002094
:100740000000000071490308FB01010001000000E6
:1007500010ED002078F90020000000002148030877
:10076000FC01010009000000DCEB00207CF9002006
:100770000000000031480308F701010006000000F6
:10078000D4EB002088F9002000000000860A000851
:10079000F901010004000000D0EB002090F90020D6
:1007A0000000000035050208160215003F00000099
:1007B00058C9002094F900200000000001490308F6
:1007C0003400010010000000FCEA0020D4F90020F1
:1007D00000000000719402081102010008000000EE
:1007E000D4EA0020E4F90020000000008C0A000890
:1007F0001212010004000000CCEA0020ECF90020F5
:1008000000000000940A00080A800100280000008F
:10081000A4EA0020F0F900200000000075AC0308F5
:10082000061001001C0000003CC9002018FA00203E
:10083000000000004D4803081220010011000000D4
:10084000E4E9002034FA002000000000980A0008C3
:10085000000201000B00000020E7002048FA002001
:100860000000000000000000FA0101000300000089
:10087000B4E0002054FA0020000000008541030885
:10088000020201000300000034C9002058FA0020D1
:1008900000000000000000000C0201000400000045
:1008A000E4C800205CFA0020000000006D4103084D
:1008B0001F0208001000000080E0002060FA002005
:1008C0000000000049410308110001000C00000075
:1008D0001AD5002070FA0020000000001DAE0108AB
:1008E000FE010100140000008CD400207CFA0020DE
:0808F000000000002141030893
:1008F80000000000000000000000000000000000F0
:1009080000000000000000000000000000000000DF
:1009180000000000000000000000000000000000CF
:1009280000000000000000000000000001000000BE
:100938000101F4011400000500000000000000009F
:10094800000000000000000000000000000000009F
:10095800000000000000000000000000000000008F
:10096800000000000000000000000000000000007F
:1009780000000000000000000000280100007E05C3
:10098800EA05B4053200E803D0070000013C200363
:10099800000000000000000001000000020200004A
:1009A8001A000023E8036400040A000114001E0072
:1009B8000800403090010000AE014A015E012C01A0
:1009C80064000200000001000A019A01001E0A00EA
:1009D8000002000000000000000100000005000007
:1009E80001020300000000000000000000000000F9
:1009F8000000000000800700000000000000013532
:100A080000000000000000000000000000000000DE
:100A18000000000020000301000020003200C80090
:100A2800D00796001400320028004C044006000548
:100A3800500014000F0008006400010000000500C9
:100A48000A000000F40196000000C4090000190023
:100A5800000000000000000000000000000000008E
:100A6800000000000000000000000000000000007E
:100A7800000000050100000000000000360024000E
:100A8800010000000000000001010101FFFFFFFF5D
:100A980000000001000005524F5344000008000206
:010AA800004D
:100AA90001000000A00F0000B80B00000102FFFFC9
:100AB90001FF00000000FA430000FA430000803FF4
:100AC9000000803F0000000000000000000000005E
:100AD90021D1010800000000000000000000000012
:100AE900FFFFFFFF000000000C2B002008000000A2
:100AF90000000000FC2A002008000000F14C040856
:100B090027290408854C0408000000000928040866
:100B19005D550408C54B040831480408000000006D
:100B290000000000C927040895270408872704083E
:100B3900B5460408D1460408994604087D460408C8
:100B490063460408A74C040805290408C74B040890
:100B590000000000E127040833480408994B040801
:100B69009B4704080000000000000000D527040886
:100B7900FFFF0000FFFFFFFFF0D406080000080296
:100B89000503030000000000F8D40608010008026C
:100B99000504030000000000F49106080200FE01AC
:100BA900011003000000000000D50608030014022C
:100BB900000300000000000008D5060804001F0219
:100BC900020008000000000010D5060805001F02F9
:100BD9000201080000000000A42E0020F82E0020C9
:100BE90001D601FFFFFFFFFF0000803F000000006A
:100BF90000000000000000000000803F000000002D
:100C090000000000000000000000000000000000DB
:100C190000000000000000000000000000000000CB
:100C29000000803F000000000000000000000000FC
:100C3900010000001A03000000000000000000008D
:100C4900000000000000000000000000000000009B
:100C59000403090412010002000000408304205724
:100C690000020102030100007D4A03085142030802
:100C79004D42030849420308C94A0308454203088B
:100C890041420308503C0608F9540408E7280408BF
:100C9900DD5304080000000000000000714B040847
:100CA900814A040800000000000000000000000064
:100CB900BD270408E9420308DD420308FD4F030884
:100CC9001950030895420308E14F0308C54F03086B
:100CD9001F0000001C0000001F0000001E00000093
:100CE9001F0000001E0000001F0000001F00000080
:100CF9001E0000001F0000001E0000001F00000071
:100D09000068214CF04506080100000051A30308C2
:100D1900000000000000000038470608000000003D
:100D29000000000000000000E46006080000000068
:100D390000000000000000009C610608000000009F
:100D490000000000000000004861060800000000E3
:100D590000000000D1C60308B5740020010100009D
:100D6900B9D90308000000000000000070620608FD
:100D7900EDDC0308000000000000000028620608FE
:100D89002D202D2D202D2D2D2D202D2D2D00000038
:100D9900000000000000000000000000000000004A
:100DA900FFFFFFFF75CC03080000000000000000F2
:100DB9007460060801000000FA000000010000004C
:100DC9000100000001000000000101010000000015
:100DD900207200200000F401010000001E720020B2
:100DE9000000F401010000001C7200200000F40161
:100DF900010000001A7200200000F4010100000047
:100E0900187200200000F401010000001672002091
:100E19000000F40101000000147200200000F40138
:100E2900010000002DAB0308F1AA0308000000002F
:100E3900004D0608047200200532010012720020DC
:100E49006400F40101000000107200206400C4096C
:100E59000100000002720020E803D0070100000031
:100E690000720020E803D00701000000FE71002095
:100E7900E803D00701000000FC7100201E00B80B38
:100E8900010000000A72002005000F0001000000A7
:100E99000C72002003000A0001000000FA71002012
:100EA9001E00F401010000000E7200200200000083
:100EB9008C4D0608F8710020140064000100000040
:100EC900067200203200E80301000000F6710020DC
:100ED9000000C800010000005D6F002000C801008B
:100EE9005C6F0020005001005B6F0020005A010078
:100EF900596F002002000000984D0608B8E2060864
:100F0900C0E206087AEF00200100C40900000000D1
:100F190078EF00200100C4090000000076EF0020EE
:100F29000100C4090000000074EF00200100C40999
:100F39000000000070EF00200100C409000000005B
:100F490072EF00200100C409000000006EEF0020CC
:100F59000100C409000000006CEF00200100C40971
:100F690000000000076D002000C80100066D002088
:100F790000C80100046D00200000FFFF0A00000006
:100F8900026D00200100C80001000000006D002072
:100F99003200307532000000FE6C00200582050029
:100FA900FC6C002005002C0105000000FA6C0020F3
:100FB900055A0500F76C002000FF0100F96C0020BC
:100FC90002000000E4050020F56C00200300000089
:100FD900606B0608F66C002000FF0100F86C002029
:100FE90002000000E4050020F46C0020030000006A
:100FF900606B060881AA030811AA03080000000013
:10100900A44D060834720020EE02CA08010000004F
:101019003272002000C80100640000003172002013
:1010290000C80100640000003072002002000000C6
:10103900B04E0608EE6C00200000803E050000005E
:10104900EC6C002080C1803E05000000E66C0020A9
:101059000083007D05000000E46C002080C1803E13
:1010690005000000DF6C002000FF0100D86C0020A3
:101079006400F40101000000D66C002004000000A7
:10108900BC4E0608D56C002002000000D04E0608B0
:101099008D6D00200D000000DC4E06088A6D0020D1
:1010A90000640100886D0020320010270A0000004A
:1010B900866D00200D000000DC4E0608856D0020BD
:1010C9000D000000DC4E0608846D002002000000BF
:1010D900144F060800000000000000000000000096
:1010E900204F06083A7200203E000000584F0608BB
:1010F900387200200100FF7F0100000037720020D4
:1011090002000000545006088F6D00200300000003
:10111900645006088E6D0020030000006450060824
:101129004A6F0020000A0100486F00200000E80310
:1011390001000000466F00200000E80301000000E4
:10114900446F00200000E80301000000426F002006
:101159000000E803010000003A6F00200000E803E6
:1011690001000000406F00200000E80301000000BA
:101179003E6F00200000E803010000003C6F0020E2
:1011890000140100586F0020020000007450060886
:10119900566F00200000F40101000000546F002088
:1011A9000000F40101000000526F00200000F4016A
:1011B90001000000506F00200000F4010100000050
:1011C9004E6F00200000A00F010000004C6F0020AE
:1011D9000000A00F01000000E37100201964010064
:1011E900E27100200200000080500608A47100206E
:1011F900E803D0070A000000A27100200064010082
:101209000A00000097710020006401009671002017
:10121900006401009E710020006401000A000000C2
:101229009D710020006401000A0000009C710020EB
:10123900006401000A000000A171002000FF010004
:101249000A000000A071002000FF01000A00000050
:101259009F71002000FF01000A0000009B7100201F
:1012690001FF01000A0000009A71002001FF01003E
:101279000A0000009971002001FF01000A00000026
:10128900986D00200000F40101000000966D002017
:101299000000A00F01000000946D00200000A00FC5
:1012A90001000000926D00200000A00F0100000065
:1012B900906D00200000A00F01000000FD740020C7
:1012C90000C80100FC74002000640100FB740020C8
:1012D90000640100FA74002000640100F974002020
:1012E90000640100F8740020FF080100F774002071
:1012F9000164010089A903084DA903080000000041
:101309008C5006080075002001320100FF7400208E
:1013190001000000FC500608FE74002004000000D3
:1013290004510608F674002000640100F4740020DA
:101339001400E80301000000F2740020E80330758E
:101349000A000000F174002000C80100F0740020B8
:1013590000C80100EF74002000C80100EE740020ED
:101369000032010002750020004B010001750020C8
:101379000400000018510608ED7400200064010003
:101389000A000000107500200000D00701000000CD
:101399000B75002000C801000A75002000C8010073
:1013A9000975002000C801000E7500200000D00753
:1013B900010000000875002000C801000775002021
:1013C90000C801000675002000C801000C75002046
:1013D9000000D007010000000575002000C80100C9
:1013E9000475002000C801000375002000C8010031
:1013F90041A7030829A70308000000002C5106088B
:10140900816D0020005A0100806D002000C8010094
:101419007E6D0020E803D0070100000000000000F5
:101429000000000011C70308C85106085245564F6D
:101439004C544F5344000000F36C0020000301009A
:10144900F26C00200003010065A6030819A6030831
:101459000000000010520608D9A5030891A5030849
:1014690000000000AC520608B1A6030859CC0308D5
:10147900000000002C530608F06C00200103010055
:10148900B9AB03088DAB03080000000084560608B9
:1014990015A50308C9A4030800000000F4560608AE
:1014A90051A70308E9E50308000000009057060862
:1014B90079D00308E5AB0308000000003858060896
:1014C900A1A703080000000000000000C458060896
:1014D9007DA8030825A8030800000000285906086C
:1014E90011A90308D5A8030800000000D05906086F
:1014F900A9240408C5A90308000000005C5A0608CD
:10150900F571002001060100E9A70308B5A7030842
:1015190000000000585B0608DF230408F5CD030826
:1015290000000000C85B0608E1240408BDCE0308DA
:1015390000000000185D0608F47100200103010095
:10154900F9A60308C9A6030800000000EC5D060817
:10155900392504080000000000000000505E06085C
:1015690061A5030841CC030800000000D05E06080D
:101579000000000000000000000000005C5F060899
:10158900E9A9030835CF030800000000CC5F06086D
:10159900000000000000000000000000E4610608EF
:1015A900549300209CFF2C010000000004770020C8
:1015B900E0150C17000000004A740020020000002A
:1015C9001C620608D06C002088136F170100000008
:1015D900D26C002088136F1700000000BEEF0020B6
:1015E9000000000000000000BCEF00200000000027
:1015F90000000000BAEF0020000000000000000019
:10160900B8EF00200000000000000000B6EF002045
:101619000000000000000000B4EF002000000000FE
:1016290000000000B40F00200000000000000000CE
:10163900586C0020030000000C630608C86C0020E9
:1016490088136F17010000009E93002088136F17FD
:101659000000000009A403080000000000000000C9
:101669001C6306084B740020010000007063060823
:10167900A0930020010000007C63060896930020D7
:10168900020000008463060800000000000000005A
:101699000000000090630608F1A3030800000000A1
:1016A900000000002C640608000000000000000093
:1016B900000000008064060800000000000000002F
:1016C90000000000F0640608D46C0020020000004D
:1016D900286506089A930020E0150C170000000001
:1016E9000403090412010002EF0201408304563287
:1016F900000201020301000012010002020200407F
:10170900830440570002010203010000090220007E
:10171900010104C03209040000020806500507054A
:10172900810240000007050102400000090264002F
:10173900030100C03209040000010300000009216F
:10174900110100012236000705830309000A080B6D
:10175900010202020100090401000102020100055F
:1017690024001001052401000204240202052406B4
:101779000102070582030800FF09040200020A00AA
:101789000000070501024000000705810240000032
:1017990009024300020100C03209040000010202EB
:1017A900010005240010010524010001042402029E
:1017B9000524060001070582030800FF090401004A
:1017C900020A000000070501024000000705810226
:1017D90040000000FF00000000FF000000000000C2
:1017E9000000AA550701000001AA550501000008DB
:1017F9000C670608FF1FFF1F05010905A101A100CC
:101809000501093009310932093309350934093625
:1018190009371581257F7508950881020509190180
:10182900290815002501950875018102C0C000002D
:1018390009022200010100E032090400000103014C
:10184900020009211101000122360007058303095D
:10185900000A000000000000010203040102030461
:1018690006070809934D0408915204080D4E04080F
:101879003F280408F12904084F2804086B280408A4
:10188900192804080B2804080000000000000000C3
:101899002D202D2D202D2D2D2D202D2D2D2D0000F0
:1018A900000000000000000000000000000000AA85
:1018B900550B010000AA5505010000AA55090200AF
:1018C9000000AA5503009F0001000000C01200009B
:1018D900FC97002000000000249800200000000070
:1018E9009CD506089CF6060800000000CDAB01084F
:1018F900A0860100040000000000000000000000B4
:1019090000000000000000000000000000000000CE
:1019190000000000000000000000000000000000BE
:101929009CD50608A4F60608000000007581000889
:10193900E8030000040000000000000000000000AF
:10194900000000000000000000000000000000008E
:10195900000000000000000000000000000000007E
:10196900C4D406080000000000000000512301084B
:101979007D000000FF0000000000000000000000E2
:10198900000000000000000000000000000000004E
:10199900000000000000000000000000000000003E
:1019A90030D9060800000000000000008D3701084A
:1019B9007D000000FF0000000000000000000000A2
:1019C900000000000000000000000000000000000E
:1019D90000000000000000000000000000000000FE
:1019E900BCEA06080000000000000000855B010851
:1019F9007D000000FF000000000000000000000062
:101A090000000000000000000000000000000000CD
:101A190000000000000000000000000000000000BD
:101A2900CCD40608000000000000000065E50008AD
:101A3900E8030000030000000000000000000000AF
:101A4900000000000000000000000000000000008D
:101A5900000000000000000000000000000000007D
:101A6900ACF6060800000000000000007518030825
:101A79001027000003000000000000000000000023
:101A8900000000000000000000000000000000004D
:101A9900000000000000000000000000000000003D
:101AA900FCD4060800000000A5770208B9B50008B3
:101AB9005F76000005000000000000000000000043
:101AC900000000000000000000000000000000000D
:101AD90000000000000000000000000000000000FD
:101AE900B8D806080000000000000000C90001087D
:101AF90010270000010000000000000000000000A5
:101B090000000000000000000000000000000000CC
:101B190000000000000000000000000000000000BC
:101B2900B8F60608000000000000000079810008EE
:101B3900E8030000050000000000000000000000AC
:101B4900000000000000000000000000000000008C
:101B5900000000000000000000000000000000007C
:101B6900C4F606080000000000000000992A0108D8
:101B7900204E0000030000000000000000000000EB
:101B8900000000000000000000000000000000004C
:101B9900000000000000000000000000000000003C
:101BA900D4F60608000000000000000075280108AE
:101BB900204E0000030000000000000000000000AB
:101BC900000000000000000000000000000000000C
:101BD90000000000000000000000000000000000FC
:101BE900E4F6060800000000000000006DB20008DD
:101BF900400D030003000000000000000000000089
:101C090000000000000000000000000000000000CB
:101C190000000000000000000000000000000000BB
:101C290054920608000000000000000015CF0108CA
:101C39001027000001000000000000000000000063
:101C4900000000000000000000000000000000008B
:101C5900000000000000000000000000000000007B
:101C6900E4D4060800000000000000000116050881
:101C79001027000003000000000000000000000021
:101C8900000000000000000000000000000000004B
:101C9900000000000000000000000000000000003B
:101CA90014E5060800000000000000004580000857
:101CB900A861000001000000000000000000000011
:101CC900000000000000000000000000000000000B
:101CD90000000000000000000000000000000000FB
:101CE900F4F60608000000000000000075EF030884
:101CF900A0860100010000000000000000000000B3
:101D090000000000000000000000000000000000CA
:101D190000000000000000000000000000000000BA
:101D29007C92060800000000000000008183000882
:101D3900A00F0000010000000000000000000000EA
:101D4900000000000000000000000000000000008A
:101D5900000000000000000000000000000000007A
:101D690000F706080000000000000000BD36050865
:101D79001027000001000000000000000000000022
:101D8900000000000000000000000000000000004A
:101D9900000000000000000000000000000000003A
:101DA900B8D6060800000000000000000DAC0108CC
:101DB900A00F00000100000000000000000000006A
:101DC900000000000000000000000000000000000A
:101DD90000000000000000000000000000000000FA
:101DE90094D606080000000000000000CD2E05086A
:101DF9001A4100000100000000000000000000007E
:101E090000000000000000000000000000000000C9
:101E190000000000000000000000000000000000B9
:101E29000CD9060800000000000000005D2E04081F
:101E39001027000001000000000000000000000061
:101E49000000000000000000000000000000000089
:101E59000000000000000000000000000000000079
:101E69000CF706080000000000000000C1F8030894
:101E790050C3000001000000000000000000000045
:101E89000000000000000000000000000000000049
:101E99000000000000000000000000000000000039
:101EA90010F706080000000000000000F1350408E2
:101EB900400D0300000000000000000000000000C9
:101EC9000000000000000000000000000000000009
:101ED90000000000000000000000000000000000F9
:101EE90018F7060800000000000000000180000843
:101EF900400D030000000000000000000000000089
:101F090000000000000000000000000000000000C8
:101F190000000000000000000000000000000000B8
:101F290020F706080000000000000000B541050880
:101F390050C3000003000000000000000000000082
:101F49000000000000000000000000000000000088
:101F59000000000000000000000000000000000078
:101F69002CF706080000000000000000B5A80108D1
:101F790040420F00000000000000000000000000C7
:101F89000000000000000000000000000000000048
:101F99000000000000000000000000000000000038
:101FA90038F70608000000000000000041AE0108F3
:101FB90050C3000000000000000000000000000005
:101FC9000000000000000000000000000000000008
:101FD90000000000000000000000000000000000F8
:101FE90001000000FF010000F4010000FF000000F3
:101FF90000000000000000000102030406070809B0
:1020090000000100E0017EFFFFFFFFFFFF0000006D
:10201900FFFFFFFF0801FF010800000000000401A5
:10202900000000000000000210000000070000008E
:102039007D000000006002401060024000000000C6
:1020490000000000000B000000000000000000007C
:10205900000000000060024028600240010000000A
:1020690000000000060C0000000000000000000055
:1020790000000000006002404060024002000000D1
:1020890000000000100D000000000000000000002A
:102099000000000000600240586002400300000098
:1020A90000000000160E0000000000000000000003
:1020B900000000000060024070600240040000005F
:1020C90000000000200F00000000000000000000D8
:1020D9000000000000600240886002400500000026
:1020E90000000000261000000000000000000000B1
:1020F9000000000000600240A060024006000000ED
:102109000000000030110000000000000000000085
:102119000000000000600240B860024007000000B3
:1021290000000000362F0000000000000000000041
:10213900000000000064024010640240000000003A
:10214900000000000038000000000000000000004E
:102159000000000000640240286402400100000001
:102169000000000006390000000000000000000027
:1021790000000000006402404064024002000000C8
:1021890000000000103A00000000000000000000FC
:10219900000000000064024058640240030000008F
:1021A90000000000163B00000000000000000000D5
:1021B9000000000000640240706402400400000056
:1021C90000000000203C00000000000000000000AA
:1021D900000000000064024088640240050000001D
:1021E900000000002644000000000000000000007C
:1021F9000000000000640240A064024006000000E4
:102209000000000030450000000000000000000050
:102219000000000000640240B864024007000000AA
:102229000000000036460000000000000000000029
:102239000000000085270408832704088127040873
:102249007B270408792704087F2704087D270408C9
:10225900010000000000803F010000004819002033
:102269000000000000000000000000000000000065
:102279000000000000000000000000000000000055
:102289000000000000000000000000000000000045
:102299000000000000000000000000000000000035
:1022A9000000000000000000000000000000000025
:1022B9000000000000000000000000000000000015
:082800000000000000000000D0
:108000000C4B1B78DB0700D570470B4A1368002B1D
:10801000FAD04FF47A7101FB03F39842F4D3074B83
:108020001B781BB9064B99681B690B600023136012
:10803000704700BF629000203828002024280020CC
:1080400034220020F0B43D4C236846F2A712C31A34
:10805000934201D8F0BC7047394B20601B6813F085
:10806000200337D1DFED377A1E461D46364A3749A1
:108070001278087812F001023CD1002841D06068E3
:108080000A70A2684042AA1A3BB1237B13F0FD0F8D
:1080900003D12F492F4B0A601E802F4B1B780E2BCC
:1080A000D8D19FED2E7A2B4B2D4C1D8867EE877A09
:1080B0000021FDEEE77A0B4617EE906A62F30F039C
:1080C00066F30F0165F31F4360F31F41C4E900131A
:1080D000F0BC7047234B1B7813F0020316D0224AE2
:1080E0002249538A9568B1F90060A3B9DFED157A8A
:1080F0000123BBE728B901270246C4E901050F7037
:10810000C2E7D4E901024042AA1ABDE7DFED0D7AC9
:108110001E461D46AAE707EE903A9FED106ADFED76
:10812000146AB8EEE77AC6EE077AF4EEE67AF1EE74
:1081300010FA88BFF0EE667ADAE700BFA8190020CF
:10814000089100209A99993E62900020CCB40020BA
:10815000FC9300200691002025C900200000C842A1
:1081600028C90020B4900020E4EE002060B2002076
:108170006666663F704700BF70B50C4C23689BB1C4
:108180005A68821A002A0FDB0546002603E05A6867
:10819000AA1A002A08DB9A681E73226018461A6819
:1081A00090472368002BF2D170BD00BFE822002069
:1081B0002DE9F043077B91F800C0DFF8B8E0476194
:1081C0000023C0E90677C0E90877C0E90A77C0E96B
:1081D0000C77C0E90E73C0E91033C0E91233C0E96F
:1081E0001433C0E916336FEA0C0C5FFA8CFC03669B
:1081F0009846142405254CFA05F303F00103002BDF
:1082000014BF19260A26434415F0010F04EB06019A
:108210005FFA83F889B214BFB9464FF000092346CC
:1082200000EB830201339BB29942C2F81490F7D15C
:10823000013D34446A1CA4B2DDD118F0010F14BF13
:1082400019230A23E518ADB2224600EB8201013260
:1082500092B2AA424F61F8D123449BB21A1D00EB9F
:10826000820201339BB200215160AEF80E300361EF
:10827000BDE8F083A8190020254B1B8A0B332DE99C
:10828000F04F8A4601F1060B1FFA83F94FF00108FF
:10829000002100251AF801EB2C464A460127A2F1DD
:1082A0000B039BB207E001339BB2B0F80CC0C6F8D9
:1082B00014C093420AD000EB8306002FF3D100EBE9
:1082C000830601339BB293427761F4D1043300EB10
:1082D00083030134092D5960E4B20CD0092C14D069
:1082E00008FA05F313EA0E0F14BF012700270C321A
:1082F00092B20135D3E709F17809DA451FFA89F915
:10830000C7D1034B1982BDE8F08F0027EFE700BF0C
:10831000A81900202DE9F047DFF860E0BEF8123020
:1083200004338A461FFA83FC01F1090801271AF871
:10833000016BE1460025A9F1040307FA05F29BB29F
:108340003240C2B1818900EB830401339BB24B45BB
:108350006161F6D101350433082D1FFA83F9EAD1A2
:108360000CF1200CC2451FFA8CFCE0D10023AEF8C2
:108370001230BDE8F0871146E5E700BFA8190020DC
:108380002DE9F04F054B2DED028B1D78ABB03DB1C3
:108390002BB0BDEC028BBDE8F08F00BFA090002099
:1083A000DFF898A3DAF800305905F1D5C54C9FEDF8
:1083B000C67AD4F82C310290C31A07EE903AF8EE40
:1083C000E77AF4EEC77AF1EE10FA04DB39F0A0F8A0
:1083D000029BC4F82C31BD4B1B78012B00F03A8274
:1083E000BB4B1B78002B3ED0D4F83C310299B94AE4
:1083F000CB1A934200F26A82B74E96F80080B8F129
:10840000000F00F08E83B54B196861B3DFF8049359
:10841000D4F85021029ED9F80800B21A824222D321
:1084200094F84C21002A00F0BE8694F85561AC48BF
:1084300094F854710068013AD2B2013684F84C21A4
:108440005FFA86FC002A00F046860E4684F855C185
:1084500016F8011B1E60CA1984F854211AF026FF71
:10846000029BC4F850311AF0CDFB9E4B1F7800F5EB
:108470007A70012F209000F0B4819B4B1B78002B69
:1084800000F0BC80994F3B68002B00F0B780984A01
:10849000D4F85C31D2F800B0ABEB0303632B40F2AD
:1084A000AD80DFF89C92934EDFF8988241203FF038
:1084B00011F8B9F9023086FB0320DB17C3EBA000EB
:1084C00080B23EF0EBFFB9F9003086FB0320DB17EA
:1084D000C3EBA00080B23EF0E1FFB9F9043086FBA7
:1084E0000320DB17C3EBA00080B23EF0D7FF98F863
:1084F000001038681AF0DAFE94F8609119F001065D
:1085000000F0F3857C4B1B68980668D57B4B7C4E4E
:108510001B78990742F1DE80337D042B8CBF032347
:108520000223039347203EF0D5FF30683EF082FFE0
:1085300070683EF07FFFF289724B3868A3FB02231C
:10854000C3F3471949461AF0B1FE98F80030B068F5
:1085500089EA030388F800303EF06CFF039B367D08
:10856000386843EA8606F6B231461AF09FFE98F85C
:10857000003038685E40314688F800601AF096FE98
:1085800094F86091B9F1000F29D15F4E4F203EF071
:10859000A1FF30683EF04EFF70683EF04BFF48464A
:1085A0003EF048FF012138681AF080FE534A98F8DF
:1085B00000301678386806F0010683F00103314672
:1085C00088F800301AF072FE98F80030386873406E
:1085D000194688F800301AF069FE94F860914B4A09
:1085E000C4F85CB109F10103DBB2A2FB0312D208AB
:1085F00002EB8202A3EB420384F86031444F3B78E4
:10860000022B00F04E83434E737B032B00F05B8301
:10861000414B1B78002B3AD0404F3B68BBB31AF05C
:10862000F1FAD4F86C31039044F61F62C31A9342F6
:108630002DD994F87231002B01F01083013B84F89E
:10864000723194F87331002B01F0EC81013B84F816
:10865000733194F87631002B00F0D486013B84F816
:10866000763194F87A91B9F1000F00F0E58509F1BF
:10867000FF3984F87A9194F87B310493002B01F050
:10868000E983013B84F87B31039BC4F86C31244BB4
:108690001B78002B40F09D82224B1B78002B00F0B2
:1086A0009780214B1B78002B40F097801F4B1B7845
:1086B000002B3FF46DAE1E4F1E4D1F4E07F10108FB
:1086C00042E000BFA8190020001B374AF99400209F
:1086D000069500203F0D03002894002024940020DC
:1086E0001C9400200795002014950020F093002092
:1086F00038D400206766666608910020B490002098
:10870000E4EE00201F85EB514CB20020CDCCCCCC48
:108710002B310020880100201C950020209500208E
:1087200050960020449400202F32002026950020EF
:10873000641C00202C95002030950020CCED0020FA
:1087400000910020F493002028681AF0ABFD002867
:108750003FF41EAE28681AF09DFD3378814673B150
:10876000013B286833701AF09DFD00283FF410AEDD
:1087700028681AF08FFD33788146002BF0D14146EE
:1087800003224A4856F079FB94F8BC1284F8BF9251
:10879000023911F0FF0100F08082444A39444FF65B
:1087A000FF7312F8010B1B1A91429BB2F9D11A0AFE
:1087B0001FFA89F99145C7D194F8BE22DBB29A42DB
:1087C000C2D138463EF0DCFB337818443070BBE74A
:1087D000374B1B78002B7FF469AF02983FF014FCF5
:1087E00064E7344E306800283FF447AE4FF000088D
:1087F0008DF878801AF056FD38B3DFF8CC903068E9
:108800001AF048FD83B27E2B00F0128499F80C20F8
:10881000D6F800C0002A40F0538394F8571100297D
:1088200000F0B4811B2B84F8572140F05083604640
:108830001AF038FD002800F0D784306889F80C70F1
:108840001AF030FD0028DAD1002020AA1EA93EF03F
:108850005BFE12E6184B1B68002B3FF4C1ADD4F849
:1088600030310299154ACB1A93427FF7B9AD144EB5
:1088700094F834313768C4F830110133BA0784F8FA
:10888000343101F1A38517F0340F41F06E8594F86F
:10889000347117F0070801F02A85282F01F0B886F7
:1088A000084B5E201B6898479AE500BF641C0020B7
:1088B0007594002010940020B090002047E801003B
:1088C000089100203488002088010020CE4BCF483A
:1088D0001B88CF49CF4E4F7A3168CF4A0533A0FB72
:1088E0000303D4F84001081A4FF47A71DB0801FB46
:1088F00007F15FFA83FC00271B0A884282F81EC03A
:10890000D37782F814C053759770177180F0CF83B6
:10891000C24BC3481B68C34EC349B6F900C00F68B9
:10892000DFF83483896880FB03E6DB17C3EB66134B
:1089300003F5FA739BB293761B0AD37688FB0793F1
:1089400088FB0198FF17C917C7EBA307C1EBA80164
:108950000CF5EA43DFF804E3177782F820103F12A2
:1089600009123033577782F8211080FB0C874FEAC9
:10897000EC711B12AD4E9EF800E082F82330C1EB83
:1089800067117831AA4B82F824100CF1300C317D3C
:1089900004911EF0020F82F822C0997600F0458300
:1089A000D6F800E0A34AD6F804C0DFF8B4B2DFF886
:1089B000B49282FB0E714FEAEE7782FB0C82C7EB1A
:1089C000A1574FEAEC71C1EBA2520BFB07E10BFB85
:1089D00002CB01EB41010BEB4B0B49004FEA4B0B78
:1089E000059189FB011889FB0B194FEAA941B6F8DB
:1089F0000E90079102EB820209EBC90902EB820299
:108A000008924FEA8902B1680992059E049A03917F
:108A100007EB8707052A4FEAA8484FEAE67207EBFB
:108A2000870706978449A8EB02073A4601FB1262C2
:108A30000699039E4FEADE7E7FB283F809E007EBDA
:108A4000810E07997C4FCDF810E04FEAEB79A1EB4E
:108A50000908414607FB18B8089F80FB069E49B2EB
:108A60004FEAE676C6EB6E164FEADC7C80FB02EB43
:108A7000DFF8F49183F80EC001EB87014FEAE27250
:108A8000099FDFF8E8C1C2EB6B1280FB08E003929C
:108A9000A9FB07E74FEAE878BDF81090BCF800C0E2
:108AA000DFF8CCE183F80A90C8EB601289B2039832
:108AB000049206F5FA764FEA112B4FEA192886F34D
:108AC00010064FEA97174FEA2229039A83F810B04D
:108AD00083F813C0BEF800E083F80B80D9734FEA27
:108AE0001C2C1A734FEA2020C6F307284FEA1721DF
:108AF00034BF4FF0320B4FF0330B049A58735A7453
:108B000083F812905E7583F81680DF71197283F80E
:108B100014C083F81BB083F81CE0029BC4F83C31FE
:108B20006AE4464F38681AF0BDFBC0B2012812D97A
:108B30000228DFF8409140F03A8399F80030002B8A
:108B400041F06E84D4F844310299D9F80420CB1A4C
:108B5000934281F0C7853A4B196800293FF483ACF2
:108B60003278002A7FF452AC364B38681B681B7988
:108B70001E3B012B41F24F84383002213FF08CF92B
:108B800001220023327084F8543169E47D2B01F016
:108B90004E8494F85A2122B180F02003DBB284F88D
:108BA0005A11B4F8582194F856111A44062992B271
:108BB00064D804EB010E60460131A4F858218EF808
:108BC000143084F856111AF06DFB00287FF417AEAC
:108BD0003AE61D4E327832B11C4B1D4918681AF026
:108BE00031FB002333701B4F3E78002E77D0DFF827
:108BF00088A0DAF86030002B40F02A82029B3D709A
:108C0000C4F8B43248E500BFB8900020CDCCCCCC3D
:108C10001088002038D4002048950020FC930020C4
:108C20001F85EB5106910020F0900020E4EE00201B
:108C3000749500206BCA5F6B40420F001C940020AB
:108C40002494002020940020F89400204C960020CA
:108C5000B89400205296002067666666B4900020A3
:108C6000806967FF83DE1B43D34D6210B6900020FE
:108C700094AC0020880100205C960020D3B203EB66
:108C80001222FF2A89F80C70A4F8582140F01881AC
:108C900060461AF007FB9848D7E5FF224FF6FF73AE
:108CA00086E519F0AFFF954B1B68C01A40F6B83344
:108CB000984200F21881924E33793A2B01F0C48326
:108CC00000233B70A4E48F4B18681AF0DFFA0028E9
:108CD0003FF49EAC0222002372733B7098E48A4DED
:108CE0002A78002A40F02A81884D95F82B61002EC1
:108CF00040F06382864A87491268096891422DD8FC
:108D000095F82021002A41F0508495F82131002B5C
:108D100041F0508695F82231002B41F0478795F8B5
:108D20002331002B41F0408795F82431002B41F08E
:108D3000418795F82531002B41F03A8795F8263187
:108D4000002B41F0418795F82731002B41F02C840E
:108D500095F828310826002B41F02784D4F8B42256
:108D60006D4D6E4B297893FBF1F31344029A9A42AE
:108D7000FFF492AC114694F8B832694AC4F8B412C0
:108D8000D65CF70744D5DFF8B0819FED668AB8F965
:108D9000023007EE903AF8EEE77A634B219367EEE4
:108DA000887A2AAFFDEEE77AA3F13D0247F8282D35
:108DB00017EE902A91B240F6C80223F8402C1E22EA
:108DC00003F83E2C38462DF0A7F8B8F9003007EE2E
:108DD000903AF8EEE77A384667EE887AFDEEE77A61
:108DE00017EE903A99B22DF097F8B8F9043007EEE3
:108DF000903AF8EEE77A384667EE887AFDEEE77A41
:108E000017EE903A99B22DF087F838463FF094F972
:108E1000B00701F12186710701F15E86330743D562
:108E2000414B424F21932AAEA3F13D0246F8282D33
:108E300041F2C811022203F83E2C23F8401C3046B0
:108E400039682DF051F8304679682DF04DF8FB89DE
:108E5000242101FB03F14FF064083046323191FBCD
:108E6000F8F189B22DF058F83B8A03EB83035900DF
:108E700089B230462DF050F82D4B2E4A1B68934294
:108E8000A8BF134623EAE37393FBF8F303F57A7163
:108E900089B230462DF040F8209B3A7D591C209134
:108EA00030461A703FF048F994F8B8322978013307
:108EB00093FBF1F201FB123384F8B832FFF7ECBBFD
:108EC00060461AF0EFF900287FF499ACBCE40D2B52
:108ED0007FF4B3AC6046A4F858211AF0E3F90028F7
:108EE0007FF48DACB0E4B4F8623100220133A4F811
:108EF00062313A70FFF78CBBBC1900203031002082
:108F0000F0300020483400205196002094AE00201C
:108F100038D4002038B2002058960020A0860100E6
:108F20005496002058A08B41B8940020E4EE002015
:108F3000FC93002020A1070000910020B04FB14B0E
:108F40000093A7F13F014FF0C808CDE91E1707F8BD
:108F5000408CAD4BAD4AAE4920A82FF025FE1E9F98
:108F60007B1C1E933E701E9B2922591C1E911A7059
:108F70001E9BEA22591C1E911A701E9B5A1C1E929F
:108F800020A883F8008051F043FD00F1010820A9DA
:108F900042461E9853F0A8FB1E9A02EB08030133C9
:108FA0001E9302F808601E9B5A1C1E921E701E9B88
:108FB0005A1C1E921E701E9B5A1C1E921E701E9BD7
:108FC0005A1C1E921E701E9B5A1C1E921E701E9BC7
:108FD0005A1C1E921E701E9B5A1C1E921E701E9BB7
:108FE0005A1C1E921E701E9B5A1C1E921E701E9BA7
:108FF0005A1C1E921E701E9B5A1C1E921E701E9B97
:109000005A1C1E921E701E9B012299182AA81E919E
:109010001A7050F8303DDB1B3B703FF08DF8029B1F
:109020002E70C4F8B432FFF737BB2D22DA7674E520
:1090300030688DF8788084F8568184F8577189F803
:109040000C801AF02FF900287FF4D9ABFFF7FCBB96
:10905000DFF8E09100264FF050080BE01E44EFF3DC
:10906000118388F31288DAF86020964218DADBB2AE
:1090700083F311881AF806B0701C59465044002238
:109080003EF0C4F80BF101030028E7D049463A202E
:109090003EF01AF80BF1010B0543EDB25E44DEE73A
:1090A0000022DBB2CAF8602083F31188A6E5594B91
:1090B00031681B78C4F84011013B012B41F2A282B8
:1090C000554B1B78013B012B3FF622AC16210123A7
:1090D000917013711CE47B1C394684F855C184F8E7
:1090E00054311AF0E3F8FFF7BBB94C4B1B88DA0593
:1090F00001F1A7815E0601F1F182D80701F1ED834C
:1091000013F0020F0CBF04230C230393444A454B76
:109110001678DB7806F001060BB146F00206532004
:109120003EF0D8F9404B1B8803EB8303580080B214
:109130003EF0B4F900203EF0B1F920F0CDFA3B4BFF
:10914000C0EB002083FB002303444FEAE079C9EB26
:109150006329B9F1FF0FA8BF4FF0FF095FFA89F942
:10916000494638681AF0A2F8039A98F8003038682F
:109170003243164689EA0309002188F800901AF064
:1091800095F8314638681AF091F898F80030386848
:109190007340DBB2194688F800301AF087F894F86B
:1091A0006091FFF7EFB93EF0AFFEFFF759B93EF01F
:1091B0009BFE012389F80030CDE4114B85F82B216B
:1091C0002AA8A3F13A021A4940F8282D4FF4327226
:1091D00043F8401C23F83C2C21933EF0ADFF029B4A
:1091E000C4F8B432FFF758BA30688DF8787089F84F
:1091F0000C701AF057F800287FF401ABFFF724BB7E
:10920000B8940020EBE90020687A0608707A060816
:109210007C7A0608D52A0020E42A0020FC90002051
:109220006290002064900020B89000200308208005
:10923000C8057DEA6D8104086C4B94F882E1B3F9AE
:109240000220B3F90010B3F904309FED696A84F885
:10925000219007EE103A674B84F820E01B682093BA
:109260008EF06A0383EA031306EE901AD9B20B0953
:1092700083F0D50343EA012383EAC1031BB283EAE7
:109280000311C3F307265342C9B207EE903A86EAA8
:10929000111646EA0126F8EEE77AF8EEE66AB8EE2D
:1092A000C77A86EAC10636B267EE867A66EE866AC5
:1092B00027EE067A002086F0C80CCDED227ACDED9F
:1092C000216A8DED237A2490259026900DF1800857
:1092D0008CEA0C1CB8E80F005FFA8CFCC6F307267A
:1092E00086EA1C1646EA0C2686EACC06DFF80CC194
:1092F00036B2ACE80F0086F01E0398E8070083EA58
:109300000313DBB2C6F3072686EA131646EA0326E2
:109310008CE807000EF1010886EAC30341F6FE411E
:10932000ACF110064FF005094FF01E0EC822E18384
:1093300084F87A9184F823E084F8222006F11C0155
:1093400084F88281A38316F8012B5A4082EA021224
:10935000D2B2100980EA132343EA022383EAC2024D
:1093600012B293B28E42A383EDD182F0270282EA39
:109370000212D2B21E0A86EA121686EA022686EA8D
:10938000C20636B2B3B24FEA132BF6B2DFF86890DA
:10939000A38384F841B084F8406004F11E0C04F10A
:1093A0003E08DCF80000DCF80410DCF80820DCF8EB
:1093B0000C30CE46AEE80F000CF1100CC445F1465F
:1093C000EFD1DFF83C80BCF80030AEF8003008F197
:1093D000240984F8CE6184F8CFB118F8011F3868E9
:1093E00019F064FFC145F8D1FFF745B9009100209D
:1093F00088C3E43A38D40020541B0020CC19002044
:10940000531B0020CA4B1B681922980684F876214A
:109410007FF527A9C74BC84E1B78990741F15582A4
:10942000337D042B8CBF4FF003084FF0020819F076
:10943000E9FB338AB268209003EB83035B00ADF84D
:109440009A3002EB820233682293B6F80EE0317D47
:1094500073688DF89C804FF0000C20A852004FF0EC
:10946000FF39ADF898E0CDF884C0249223938DF8AD
:109470009D10CDF8949080460590B8E80F00DFF875
:10948000C0E2AEE80F0098E80F00AEE807007146B2
:10949000182221F81C39069194F8821184F82320AF
:1094A00081F0780383EA0313DAB2130983F0F60339
:1094B00043EA022383EAC2031BB283EA0312D2B255
:1094C000C3F3072383EA121343EA022383EAC203A6
:1094D0001BB283F0C80282EA0212D2B2C3F307239E
:1094E00083EA121343EA022383EAC2031BB284F81D
:1094F00021C083F0180C8CEA0C1C5FFA8CFCC3F3BF
:109500000722481C82EA1C1242EA0C2284F88201DB
:10951000069884F8201082EACC0CC82341F6FE623B
:109520000146A4F81CC01E30E28384F8223011F8F2
:10953000013B83EA0C0383EA0313DBB21A0982EAD4
:109540001C2242EA032282EAC3031BB21FFA83FCF5
:109550008142A4F81CC0EAD183F0180383EA031304
:10956000DBB24FEA1C2282EA131282EA032282EA69
:10957000C3031AB293B27149A3834FEA1329D3B23A
:109580000791049384F8439084F84230884604F1AC
:109590001E0C04F13E0BDCF80000DCF80410DCF8D3
:1095A0000820DCF80C30C646AEE80F000CF1100CB9
:1095B000DC45F046EFD1DCF80000CEF80000DFF823
:1095C00084B1049B84F8D1910BF1260884F8D03142
:1095D000D94619F8011F386819F068FEC845F8D156
:1095E00019F010FBB36832687168049203EB8303CF
:1095F0005E00804608913DF0FFFE94F88291CDF820
:10960000808089F06A0282EA0212D2B2130983F0E2
:10961000D50343EA022383EAC2031BB283EA03129F
:10962000D2B2C3F3072383EA121343EA022383EA85
:10963000C2031BB2CDE92366049A219283F0C806C7
:1096400086EA0612D2B2C3F307264FF00008089943
:10965000DDF814E0ADF89A0086EA12162291CDF8F2
:109660009480ADF8988046EA022686EAC206BEE8F3
:109670000F00DDF818C084F8209036B2ACE80F0077
:1096800086F0210383EA0313DBB2C6F307269EE8C4
:10969000070086EA131646EA032686EAC306284B25
:1096A0000693C82384F821808CE8070084F82230D0
:1096B000234BA683212141F6FE4209F1010984F8DA
:1096C0002310E28384F882911A4603F11C0112F8F8
:1096D000013B734083EA0313DBB2180980EA1620CA
:1096E00040EA032080EAC3031BB29EB28A42A683EB
:1096F000EDD183F0680282EA0212D2B2360A86EA1B
:10970000121686EA022686EAC20636B2B3B24FEADB
:109710001329F6B2A383DFF8248084F8419004F182
:109720003E0384F8406004F11E0C04930CE000BF7B
:1097300008910020B4900020E4EE0020541B00208B
:10974000CC190020531B0020DCF80C30DCF80000A2
:10975000DCF80410DCF80820C646AEE80F00049BD5
:109760000CF1100C9C45F046EED1BCF80030AEF880
:109770000030079B84F8CE6103F1230884F8CF9171
:109780005E4616F8011F386819F090FDB045F8D113
:10979000A24A94F882C1DFF8888284F820C0D2E916
:1097A000002321938CF0EB0383EA0313D9B20B0956
:1097B00083F0C50343EA012383EAC1031BB283EAB2
:1097C0000311C9B2C3F3072383EA111343EA012348
:1097D00083EAC1031BB283F0C80686EA0616F6B216
:1097E0004FF0000E2092C3F30723059ACDF888E0CE
:1097F00083EA161307CA43EA062383EAC6030FFA6D
:1098000083F9069B84F821E089F0310683E807009C
:1098100086EA0616F6B2C9F3072383EA161343EA6B
:10982000062383EAC60394F8246094F8250094F88C
:10983000261094F827201BB25E4086EA0616F6B280
:10984000C3F3072383EA161343EA062383EAC60316
:109850001BB2584080EA0010C0B2C3F3072383EA6A
:10986000101343EA002383EAC0031BB2594081EA84
:109870000111C9B2C3F3072383EA111343EA012399
:1098800083EAC1031BB25A4082EA0212D2B2C3F386
:10989000072383EA121343EA022383EAC20394F8FC
:1098A000286094F8290094F82A1094F82B201BB211
:1098B0005E4086EA0616F6B2C3F3072383EA161360
:1098C00043EA062383EAC6031BB2584080EA00102D
:1098D000C0B2C3F3072383EA101343EA002383EAE9
:1098E000C0031BB2594081EA0110C0B2C3F3072183
:1098F00081EA101141EA002181EAC00109B24A401F
:1099000082EA0212D2B2C1F3072383EA121343EAB6
:10991000022383EAC20394F82C6094F82D0094F893
:109920002E1094F82F201BB25E4086EA0616F6B27F
:10993000C3F3072383EA161343EA062383EAC60325
:109940001BB2584080EA0010C0B2C3F3072383EA79
:10995000101343EA002383EAC0031BB2594081EA93
:109960000111C9B2C3F3072383EA111343EA0123A8
:1099700083EAC1031BB25A4082EA0212D2B2C3F395
:10998000072383EA121343EA022383EAC2031BB2CA
:1099900083F0270686EA0612D2B2C3F3072686EAC8
:1099A000121646EA022686EAC20636B2B2B20CF1B6
:1099B00001034FEA122EF6B24FF0310C40F6FE4092
:1099C000C82184F88231A28384F823C084F83060EF
:1099D000E08384F831E084F82210D8F80C30D8F80D
:1099E0000000D8F80410D8F80820B8F8109008F54E
:1099F000C77CACE80F00079BACF8009003F113089C
:109A000084F8BE6184F8BFE11BF8011F386819F0C3
:109A10004DFCD845F8D1FEF724BE00BF4CB2002063
:109A2000C61900208749884A8978126808920A2254
:109A300084F87321002900F03D86844A01291088AA
:109A4000099041F2CE8350880690022900F04987A0
:109A500090880790032901F0DA83D08805900429C3
:109A600001F0CF8310890490052901F0E2830629D3
:109A7000B2F80A9001F0D9830729968901F0D283C0
:109A8000B2F80E801FF028FE94F882B1089B209354
:109A90008BF0300383EA0313DBB21A096C4984F8B4
:109AA00020B082F07A02C0EB002042EA032282EA70
:109AB000C30381FB00210144C217C2EB6122099953
:109AC0004FF0000E61F30F0E07994FF0000C61F399
:109AD0000F0C049900201BB261F30F00002166F304
:109AE0000F0183EA0316C3F307230493069B63F372
:109AF0001F4E059B69F31F4063F31F4C68F31F4122
:109B0000049BCDE921ECF6B2CDE92301FF2A83EADB
:109B10001613A8BFFF224FF000098DF895208DF88D
:109B2000949043EA062C0DF18008B8E80F008CEA07
:109B3000C60636B286F0C80EDFF818C18EEA0E1ED1
:109B40005FFA8EFEC6F30726ACE80F0086EA1E1306
:109B500043EA0E2398E8030083EACE031BB283F0A6
:109B600023024CF8040B82EA0210C0B2C3F30722AE
:109B700082EA10122CF8141942EA00220BF10101BA
:109B800082EAC000232641F2FE62C82384F88211D3
:109B9000A0830CF1160184F8219084F82360E283FD
:109BA00084F822301CF8013B434083EA0313DBB204
:109BB0001A0982EA102242EA032282EAC3031BB294
:109BC00098B28C45A083EDD183F0F40383EA0313AC
:109BD000DBB2060A86EA131686EA032686EAC3067D
:109BE000A04636B21FFA86F958F81E0FDFF868C093
:109BF000A4F81C904FEA192EF6B284F83A6084F863
:109C00003BE0D8F80410D8F80820D8F80C30ACE8BD
:109C10000F00D8F81000D8F81410D8F8182004F263
:109C2000C919ACE8070004F2AB1884F8C9E184F85C
:109C3000C86118F8011F386819F038FBC145F8D120
:109C4000FEF707BDACED002038D400206CEF0020FB
:109C500003082080CC190020541B0020784B1A6880
:109C600002F00803002B48F603414AF60B404BF67E
:109C70000F4349F6074604BF03460E4612F0040F91
:109C800018BF1E4693066F4B1B7848BF46F48046AC
:109C90004FF0190148BF46F02006022B84F87211DC
:109CA00040F2678564204FF0FF3B4FF0000994F8C5
:109CB0008281209688F0F10282EA0212D2B2130960
:109CC00083F0E703C6F3090143EA0223CDE92161EA
:109CD00083EAC2034FF0000E1EB2ADF88E90ADF8CD
:109CE00090B08DF89E00ADF88CE0CDF892E0CDF804
:109CF00096E0CDF89AE086EA06190DF1800CBCE8F2
:109D00000F005FFA89F9C6F3072686EA191646EAB4
:109D1000092686EAC906DFF8349184F821E0A9E82B
:109D20000F0036B29CE80F0086F0C80C8CEA0C1CC1
:109D30005FFA8CFCC6F3072686EA1C16A9E8070022
:109D400046EA0C2181EACC0109B281F0010080EAE7
:109D5000001029F8023BC0B2C1F3072282EA1012B8
:109D60001B0C09F81E3942EA0022012682EAC000D3
:109D700041F6FE71C82208EB0603E18384F82360F4
:109D800084F8222009F11F0184F82080A08384F840
:109D9000823119F8013B434083EA0313DBB21A090D
:109DA00082EA102242EA032282EAC3031BB298B27B
:109DB0008945A083EDD183F07C0383EA0313DBB2F2
:109DC000060A86EA131686EA032686EAC30636B230
:109DD000B3B24FEA132BF6B2DFF86C90A38384F88A
:109DE00044B084F8436004F11E0C04F13E08DCF832
:109DF0000000DCF80410DCF80820DCF80C30CE465B
:109E0000AEE80F000CF1100CC445F146EFD1DCF8C0
:109E10000000CEF80000DFF838809CF804308EF89F
:109E2000043008F1270984F8D16184F8D2B118F818
:109E3000011F386819F03AFAC145F8D1FEF701BCA4
:109E40000891002082AE0020541B0020CC19002075
:109E5000531B0020854B1B68052284F87B219A0642
:109E600040F13284824BDFED837ADA89D3ED028AC6
:109E700008EE102AF8EEE88AB8EEC88A68EEA78ADB
:109E800028EE278A3DF0B8FA94F882817A4BADF833
:109E90009000B3F9066079498DED218A88F022039C
:109EA00083EA0313DAB21309B6F5FA6F83F05903A4
:109EB000A8BF4FF4FA6643EA022383EAC203B6F569
:109EC0007A7F1BB2B8BF4FF47A76A6F57A7C83EA24
:109ED00003126420D2B2C3F3072600FB0CF386EA18
:109EE0001216A1FB03134FF0000E20A946EA02262A
:109EF000C3F38F13CDF880E0CDF88CE0CDED228A4E
:109F000086EAC206ADF89230894636B20591B9E8C4
:109F10000F0086F0C80C8CEA0C1C5FFA8CFCC6F3B0
:109F20000726DFF870E1D9F8009084F8208086EAEF
:109F30001C16AEE80F0046EA0C2686EACC0212B2E6
:109F400082F04A0383EA03137146DBB2C2F30722AD
:109F500082EA131241F8109942EA032282EAC3030B
:109F600008F101084FF04A0E41F2FE4C0026C820CD
:109F700006910A4684F88281A383143184F823E091
:109F8000A4F81EC084F8216084F8220012F8010BA6
:109F9000584080EA0010C0B2060986EA132343EA5B
:109FA000002383EAC00000B283B28A42A383EDD1CA
:109FB00080F0140080EA0010C0B24FEA132B8BEA45
:109FC000101B8BEA002B8BEAC00B26460FFA8BFB8B
:109FD0001FFA8BFC56F81E0F294B07934FEA1C2ED5
:109FE0005FFA8BFB84F838B084F839E07168B268A6
:109FF000F368A4F81CC0DFF888C0B6F81880ACE895
:10A000000F0030697169ACE8030004F2AB16ACF8DC
:10A010000080B14684F8C7E184F8C6B104F2C718DD
:10A0200019F8011F386819F041F9C845F8D1154BE6
:10A03000154A1B781278013B12F00101DBB214BF04
:10A04000C0224022172B04D81048034493F814313F
:10A0500004930F4B1B889B071ABF42F0100200238A
:10A060000123002940F00684032015E00891002018
:10A07000E4EE00200AD7233C6CEF0020D34D6210A1
:10A08000541B0020407A00206290002054EF050805
:10A09000FC900020CC19002094F882B120938BF022
:10A0A000460383EA0313D9B20B0983F0920343EA10
:10A0B000012383EAC1031BB283EA0311C9B2C3F3CC
:10A0C000072C8CEA111C4CEA012C8CEAC10C0FFA0B
:10A0D0008CFC8CF0C80E04998DF884108EEA0E1E4C
:10A0E0005FFA8EFE00238DF886200321059A8DF8F5
:10A0F0008530CCF3072C8DF887008DF888108CEA1A
:10A100001E1C07CA4CEA0E2C8CEACE0C0FFA8CFCF3
:10A11000DDF818E084F821308CEA0C18AEE8030072
:10A120005FFA88F8CCF3072181EA181141EA082187
:10A1300081EAC80194F824808EF8002009B288EAE8
:10A14000010888EA08185FFA88F8C1F3072282EA52
:10A15000181242EA082294F825C094F8260094F8D0
:10A1600027E094F82C9084F8233082EAC80212B2D7
:10A170008CEA020C8CEA0C1C5FFA8CFCC2F30721FF
:10A1800081EA1C1141EA0C2181EACC0109B2484064
:10A1900080EA0010C0B2C1F3072282EA101242EA3C
:10A1A000002282EAC00212B28EEA020E8EEA0E1E6F
:10A1B0005FFA8EFEC2F3072282EA1E1242EA0E22E4
:10A1C00094F828C094F8290094F82A1094F82B8069
:10A1D00084F820B082EACE0212B28CEA020C8CEA39
:10A1E0000C1C5FFA8CFCC2F3072282EA1C1242EAC2
:10A1F0000C2282EACC0212B2504080EA0010C0B2B7
:10A20000C2F3072282EA101242EA002282EAC00266
:10A2100012B2514081EA0111C9B2C2F3072282EAA7
:10A22000111242EA012282EAC10212B288EA02084D
:10A2300088EA08185FFA88F8C2F3072282EA18123F
:10A2400042EA082282EAC80213B289EA030282EAD9
:10A250000212D2B2C3F3072383EA121343EA0223A2
:10A2600083EAC2031BB283F0320282EA0212D2B244
:10A27000C3F3072383EA121343EA022383EAC203E8
:10A280001BB2DFF818C49AB240F6FE1EC8200BF1CC
:10A290000101A4F81EE0DBB24FEA122E84F822007E
:10A2A000DCF8000084F88211A28384F82EE084F8A0
:10A2B0002D30DCF80820DCF80410BCF80CB00CF5EC
:10A2C000C77CACE80700079A8CF80290ACF800B0A5
:10A2D00002F1100884F8BCE184F8BB3116F8011FC4
:10A2E000386818F0E3FFB045F8D1FEF7CDB9FF208C
:10A2F0003CF042FD002800F0EC820378FF2B00F0D8
:10A30000EA8290F9011002203DF01AFEFF203CF095
:10A3100033FD002800F0A3810378FF2B00F09F811C
:10A32000B0F90C30CF49D04A897E03EB830303EBAD
:10A33000830349089B0093FBF1F382FB0312D917B7
:10A34000C1EBA20109B2DFF8588303203DF0F8FD0C
:10A3500098F80930002B40F0948233689E0600F193
:10A36000178294F83471FEF798BA4FF400603DF00C
:10A370001DFF28B1BD4B3020B3F900103DF0E0FDCA
:10A3800094F83471BB077EF484AA4FF480603DF0EA
:10A390000DFF00283EF47DAAB54AB64BD2F80080E6
:10A3A000D4F830214FF064099A4298BF4FF000086A
:10A3B000102098FBF9F739B23DF0C2FD09FB178177
:10A3C00009B221203DF0BCFDFEF761BA70203DF0DE
:10A3D000EDFE00283EF457AADFF8C8822427A8F132
:10A3E0005009B8EC017AD9ED007A67EE277A384641
:10A3F000FDEEE77A013717EE903AC3EB431103EB1A
:10A400008103D90009B2FFB23DF09AFD272FE8D1B0
:10A410003768FEF738BA022118F034FFFEF7B0BBF8
:10A42000029BC4F8443189F80080FEF794BB604673
:10A4300084F85A7118F036FF00287EF4E0A9FEF780
:10A4400003BA0396FEF762BEB17830461FF008FFEC
:10A4500000287EF435AC884B186818F023FF0028DC
:10A460007EF4D1A8DFF84092F378069399F80E2095
:10A4700094F8643104930423079289F80D30002A7C
:10A4800000F0228499F80F607C4ADFF820B2013690
:10A49000F6B206EB460802EB8808F3B2152B3146FC
:10A4A000584689F80F3006F1010600F2A3860392A0
:10A4B0002EF04CFC039A28B998F80830FF2B08F1CD
:10A4C0000C08EAD199F80F800C2303FB08F3D61887
:10A4D000D1580391084650F09BFA73680793C6B2AF
:10A4E000184650F095FA33465FFA80FB5B446448A7
:10A4F00005960833C371059B039906460BEBC3030E
:10A5000028F00F0208F00F08B373827280F80D80F4
:10A51000059A03960F3052F0E7F8039E05980799C5
:10A5200006F1060809305A46404452F0DDF8F37946
:10A5300003F1010EBBB1013B06F1070C514E5CFA71
:10A5400083FC4046002310F8012F5A409300D108A5
:10A5500083EA420301F01801534046FA01F25340E6
:10A560008445DBB2EFD10EF8083006984EF0DEFFDE
:10A5700099F80E8008F1FF385FFA88F889F80E80A4
:10A58000B8F1000F00F0A184049E039B3C499A7827
:10A59000394B186818F056FE032384F8646189F873
:10A5A0000D303B70FEF734B80726374B95F82A215B
:10A5B00021930DF1A808A3F13901A3F1400748F850
:10A5C000281DC821101D03F8401C4FF4E4734EF6FB
:10A5D0007D2178707980404602FB0651BB80BE71B8
:10A5E0002BF078FC209B7A1C9B1A7B7040463DF038
:10A5F000A3FDAB1900220299C4F8B41283F82021FC
:10A60000FEF74AB81021022391701371FEF780B94A
:10A610001E4A1F4B16681F4FA3FB06239B0BA7FB6D
:10A6200003214909C1EB0111A3EB8103190209B20E
:10A630000023172084F834313DF082FC164BA3FB35
:10A6400006239B09A7FB03125209C2EB0212A3EBDC
:10A65000820319B218203DF073FCFEF721B90021E6
:10A6600071E600BF3CC9002067666666069100205F
:10A67000FC9300203F4B4C004834002054EF050869
:10A68000BCEE00200007090EB894002038D400204A
:10A6900073B2E74589888888D34D6210C6190020B7
:10A6A000D49000203423001088010020149400204E
:10A6B000000000000E468946CDE90411CDE90611DF
:10A6C00009918846FFF7DEB91FED078AF0EE488A48
:10A6D000FFF7D8BB01230393FDF724BF1023039397
:10A6E000FEF714BD4FF00103386889F8003018F008
:10A6F000D1FD8346386818F0CDFD1BF07F0F8046F2
:10A7000000F0F780802800F03282BBF17F0F7EF4EA
:10A7100022AADFF82CB39BF80030002B00F0D6847F
:10A7200008F0F003E02B7EF416AA94F84D21DFF830
:10A7300020B308F00F08002A00F09E8400228BF856
:10A74000013084F84D21B54B03931B78002B00F0AA
:10A750008284A8F10708B8F1070F00F26A84DFE8E5
:10A7600018F0760468046004680434056804300551
:10A770002C05AB4A537A927A002B40F01D81002AB7
:10A7800040F01485914664204FF0FF3BFFF78FBAED
:10A790004FF400503DF00AFD002840F02081A14E0A
:10A7A0004FF480603DF002FD002840F00582718A80
:10A7B00094F83421337DB1F5967F08D902F00F0269
:10A7C000072A04D842F20F738B4228BF0B46964FDC
:10A7D000FA79CAB1203B07EE903A9FED947AF8EEF1
:10A7E000E77AF6EE006A67EE877ABEEE007AF5EE5B
:10A7F000C07AF1EE10FA58BFB0EE667A77EE877A3B
:10A80000FDEEE77A17EE903A052019B23DF098FB7D
:10A810004FF480503DF0CAFC00283FF4A2AD844BB9
:10A820001A7800239207CDE91E3300F1DD8194F8F8
:10A830003831012B00F0D881B7F90030DFED7D6AA7
:10A8400007EE103AB7F9023007EE903AB8EEC77A41
:10A85000F8EEE77A27EE267A67EEA67ABDEEC77A9B
:10A86000FDEEE77A20A88DED207ACDED217A3DF03E
:10A870007FFB76E57049C97800290CBF04200520CC
:10A880000AE401203DF092FC00284CD198F80A30EF
:10A89000002B3FF462AD02203DF088FC002840F020
:10A8A000DE8104203DF082FC00283FF456ADB8F86C
:10A8B0000C30002B40F0DF82604B996881F310016F
:10A8C00009B204203DF03CFB47E54FF00108FEF7DC
:10A8D000AEBD014617E5414615E508230393FEF793
:10A8E00015BC1E469946CDE9043307939846FFF7F9
:10A8F000C9B8534B1A78002A40F03E81B8F18A0F4C
:10A9000000F02581B8F18E0F7EF425A93378002B55
:10A910007DF479AD4B4B4C4A1A602D2284F84C21C2
:10A920001968FEF71DB9DFF82C91484F99F80020FF
:10A93000002A40F084811346110189B241EA0321C3
:10A94000C3F30323194309B20620A4F836213DF0CE
:10A95000F7FA3548B4F836113B88077A99F80020A1
:10A96000C07A0131012F03F105034FF00A0CA4F85E
:10A97000361193FBFCF399B200F09D8201EB810349
:10A980009FB210B10AB197FBF2F74FF0640B3A2077
:10A99000B7FBFBF90FFA89F13DF0D2FA0BFB197105
:10A9A00089B20A2305313B2091FBF3F109B23DF056
:10A9B000C7FA6BE70126F8E5244B1B8803EB8303FA
:10A9C0004FEA43091FFA89F9002A00F027841B4B3C
:10A9D000B3F900B00FF0B6FD40B2FFF768B9144B01
:10A9E0001B78980700F14B824FF480603DF0DEFB4E
:10A9F0000C4E00283FF4DBAE4FF000084FF0640926
:10AA0000012098FBF9F739B23DF09AFA09FB17815A
:10AA100009B209203DF094FAC9E600BF2B9400204A
:10AA2000D4900020E4EE002010880020E4380E3F8F
:10AA3000B49000200050C34764900020F0900020A4
:10AA40003BB500202494002048950020B8900020B9
:10AA5000A0950020C0900020864B874A8749D27A73
:10AA6000219340F6C82023F8400C082003F83E0C40
:10AA70003D3B20930B88002A40F0A88020A8053396
:10AA80000A2193FBF1F189B205902BF045FADDF82C
:10AA900014807B4F0A223B6893FBF2F3404699B245
:10AAA0002BF03AFA0FF04EFDBF68209B3A0C591C70
:10AAB00020911A70209B3A0A591C20911A70209BF1
:10AAC0005A1C20921F70209B5A1C209218704046DE
:10AAD0003DF032FBFEF79FB9664BDFF8E88121932A
:10AAE000C82223F8402C98F80020A3F140073D3BF2
:10AAF0002093D2074FF02103BB7040F18380614B5C
:10AB00001B8858057CD4190500F19580DA0500F101
:10AB10008A80D80700F1D882990740F1CD825A493E
:10AB200020AB184605932BF0C5F998F80030DA07EA
:10AB30007BD5209B554A0598591C209100211970FE
:10AB4000209B9B1A7B703DF0F7FAFEF767B9504BDC
:10AB50001B689B067DF5FFAF3378002B7DF453AC6B
:10AB60004C4B4D4A1A602D2284F84C21D8E64B4BB1
:10AB70001A78002A3DF4EFAFD4F84821002A08DD06
:10AB800047480A2AB8BF0A220021C0F85024C4F856
:10AB900048114FF47A6240F6B831C9F80420002217
:10ABA000C9F808101A70A9E60326FEE40226FCE4A0
:10ABB0000526FAE40426F8E43A4B1B7899077FF55A
:10ABC0001BAFD6F8088019E70626EEE4364A20A81F
:10ABD000117893FBF1F10A23053191FBF3F189B26E
:10ABE00005902BF099F952E7D6E9002301211EA820
:10ABF00084F83811CDE91E233DF0BAF9FFF7B1BB57
:10AC00002A498DE72A4B1B68BBB9DAF800301B06CE
:10AC10007FF575AF234B1B7803F00303032B3FF441
:10AC20006EAF24497CE724497AE7209B2A22591CED
:10AC300020911A707DE7214972E7214970E7B4F845
:10AC400036013B8890FBF2F14FF0640C02FB1101DE
:10AC50000CFB032350008AB2B3FBF0F36CE6084A06
:10AC60000A23116891FBF3F1282009B23DF068F93D
:10AC700017E600BFB894002010880020B89000208C
:10AC8000F0900020FC900020587A0608799400206B
:10AC90000891002024940020749500203BB50020EA
:10ACA000C80F0020B4900020C09000203C7A060815
:10ACB00004940020347A0608487A0608447A060884
:10ACC0002C7A060862900020AB4BAC4E1A8B93EDA9
:10ACD000167AD3ED157A93ED145AA94B039306EE29
:10ACE000102AA84ADFF8C082136892681D92B268E1
:10ACF0001792328A1692F2891392B8EEC66A327DA2
:10AD00000E92B8F900201592C7EE066A9E4A059386
:10AD1000128814929D4A9E4BB2F900200D92B3F90D
:10AD20000420DFF888B20C92DFF884E2B3F9022045
:10AD300071680B9287EE867AB3F90020D6F800C0CE
:10AD4000BEF800E00A92DBF8002092481C9200292D
:10AD50004FEA61428CEAEC73B8BF494202F4804288
:10AD60004FEA6C46C5EE067AA3EBEC7342F4005250
:10AD7000B1FBF0FC00FB1C11099142EA0C02B3FB91
:10AD8000F0F100FB11330498DFF828B206F4804894
:10AD900092B2DFED815A109200F0F00C48EA010106
:10ADA000099A059866EEA56A06260CF1100889B284
:10ADB000CDF8208006FB02F21291FDEEE66A4FF418
:10ADC0007A71B2FBF1F292B20EFB00F006FB03F3D4
:10ADD0000F92B3FBF1F390FBF1F29EB209920A23BA
:10ADE0000EF1050E27EE257A9EFBF3F29DF820303A
:10ADF000089316EE903ABDEEC77A1BB267EEA57ABD
:10AE00001A9317EE103AFDEEE77A1BB2199317EE7C
:10AE1000903A1196DFF88C81049E1B921BB208F8C1
:10AE200003CC18933046089B834240F292800C2357
:10AE300003FB00B2431E167A46EA001288F800208F
:10AE400008F10101142B4ED8DFE813F088018601C8
:10AE500090018E018C018A01AE01AC01AA01A8010A
:10AE60009F01960194019201C9014D00C701C501DE
:10AE7000C301840182010FF065FB01B221E53F4E61
:10AE8000464BF1894FF4F36707FB01F1112091FB69
:10AE9000F3F109B23DF054F8F389642107FB03F3A1
:10AEA00093FBF1F393FBF1F201FB123109B219208C
:10AEB0003DF046F874E418B112B193FBF2F399B285
:10AEC00009B239203DF03CF8E0E4DAF80030344AC9
:10AED000190616787FF559AB40463CF0CFFF89F84C
:10AEE0001080FFF752BB4FF0FF330BEB060292F8D6
:10AEF0000821012A0DD9023AD2B202F1020CE04433
:10AF00008C460CF8013BC4454FEA1323F9D10132BA
:10AF10001144092EDBB201F1010806D00C2202FB1C
:10AF200000B223F06003527A13430B703CF08CFFA5
:10AF30001C4BA8EB0302049B83420AD20C2303FBA5
:10AF400000B31B7A5B4493F808311344102B7FF74E
:10AF50006AAF144B0399DFF860C0A8EB0302063216
:10AF6000D2B242F04003CB71064602F1010EDFF887
:10AF70004C80079B002136E0E4220010E4EE002024
:10AF8000BCEE0020F0900020B6900020069100203A
:10AF9000009100208096980000007A44A08601006D
:10AFA00018940020C9EE002094AC0020FC930020EF
:10AFB000B890002054EF05080007090EC2EE0020EB
:10AFC0009BF807B083EA0B0B4FEA8B034FEADB00D9
:10AFD00083EA4B0300F0180083EA0B034CFA00F0FD
:10AFE00043400131DBB2039800EB010BC8B282424F
:10AFF000E6D80EF8083006984EF098FA99F8103016
:10B00000002B7FF4C2AA8D4B1B689A067FF5BDAA60
:10B010003CF00EFF012389F81030FFF7B6BA884BD9
:10B020000393039B1B7823B1864B0121186837F0EB
:10B0300095FA002051F0DEFA3378002B7DF4E3A975
:10B04000814BAD22C3F800B084F84C2168E40320A2
:10B0500051F0D0FAF0E799467C4A7D4B116889455A
:10B060004CD2CDE9042334F035F9059B049A834290
:10B0700044D009F10109F1E79BF80130012B7FF47D
:10B0800062ABA8F1070884F84D31B8F1070FD0D8AA
:10B0900001A353F828F000BF35B1000833B0000811
:10B0A0001FB0000833B00008CBB1000833B000086F
:10B0B000C3B10008BBB10008664B67491A78674BFB
:10B0C000002A08BF19462BE5654929E520A911206A
:10B0D0000FF03EFD4FF001036248239A8BF80030D9
:10B0E00041F288314FF47A73C0F85034C9F808300F
:10B0F000C4F84821C9F80410FFF712BBA8F10708EB
:10B1000034F002F99BF80190B8F1070F91D801A330
:10B1100053F828F041B1000833B0000823B000080C
:10B1200033B00008CBB1000833B00008C3B1000849
:10B13000BBB10008032051F05DFA34F0E5F87BE77D
:10B14000032051F057FAB9F1010F7FF475AFF4E71E
:10B150001A9BCAE6199BC8E6059BC6E61B9BC4E67C
:10B160000A9BC2E6099BC0E61D9BBEE61C9BBCE693
:10B17000149BBAE6139BB8E6119BA4F86831129BA6
:10B18000A4F86A31D4F86831AFE60F9BA4F86831AF
:10B19000109BA4F86A31D4F86831A6E60E9BA4E6A9
:10B1A0000D9BA2E60C9BA0E60B9B9EE62E4A9946C1
:10B1B000B2F900B06420FEF77ABD042051F01AFA0B
:10B1C0003AE7022051F016FA36E7012051F012FA60
:10B1D00032E7189B89E6179B87E6169B85E6159B49
:10B1E00083E61E469946CDE90433CDE906339846F9
:10B1F000FEF748BC162B04BF002389F80F30FFF779
:10B2000061B91E46994604939846FEF73BBC1E461C
:10B210009946CDE904339846FEF734BC4FF0FF3B26
:10B22000FFF7D8BB9846FEF72DBC1E469846FEF7A2
:10B2300029BC1E4699469846FEF724BC089100207A
:10B240002B9400202C94002024940020A8C20020DD
:10B25000349500204DB10020647A06085C7A060817
:10B26000507A0608C80F0020F09000202DE9F04F1A
:10B27000A84BA94D1B7895F80080DB0785B00746E1
:10B280007BD5A64CA64EB8F1010F52D01DD3B8F114
:10B29000020F06D1A34AA44B12881B889A4200F2DF
:10B2A0008280E37B002B2DD0A3895BB39F4B1B785F
:10B2B00043B30FF047F9002800F0F380237C83426A
:10B2C0002CBF0122002232701DE0994B954A1B8849
:10B2D000617C12885B1A9A42964A3CDC9649E37D6F
:10B2E0001268D1F8C01203EB8303521A03EB8303F5
:10B2F000B2EB830FD5DBE37B4FF0010885F80080CC
:10B30000002BD1D13278217A632907D88B48B8F144
:10B31000020F037800F08780002B70D18849A37B4F
:10B32000904538BF904681F80080CBB905B0BDE8A4
:10B33000F08F7D4B7B4A1B88617C12885B1A9A4296
:10B3400037DD7B4B1B88934238BF4FF00008794AAA
:10B3500038BF85F80080784B1268C3F8C022A0E798
:10B36000B8F1010F00F09780B8F1020FDED107208D
:10B3700005B0BDE8F04F11F08BBD6A49674C0A88F3
:10B38000A8F10303012B54D94B88D31A002BB8BF63
:10B390005B42142B05DCE38893421ED8218891423E
:10B3A0001BD35F4E6FE7634A634B1268C3F8C0223A
:10B3B000A1E7604A6049237E1268D1F8C01203EB0E
:10B3C0008303521A03EB8303B2EB830FFFF669AFDB
:10B3D0004FF0020885F8008063E7B2EB430F504E50
:10B3E0003FF751AF0323514851494F4A33702B70F7
:10B3F000002303700B8013804FF0030851E743686C
:10B40000504DFB1AAB42C8BF417087DCC1F16401EB
:10B410004D4D03FB01F385FB0351DB17A3EBA15358
:10B42000643343707AE7002BE9D10125476005704A
:10B43000ECE7E388934225D82088904222D34B88BA
:10B44000374ED31A002BB8BF5B42142B3FF729AFFE
:10B45000237D00203070287033B3344A8046137047
:10B46000A188334AB4F802C02F489BB211FB03F104
:10B4700011801CFB03F3314A0380642100235170C7
:10B48000536000E7B2EB430FD9DCB8F1030F7FF450
:10B490007BAF234EB0E7082005B0BDE8F04F11F0B8
:10B4A000F7BC022232702EE7284B21881B68B2FBC2
:10B4B000F1F10131082993F97220DFF87080A8BFFB
:10B4C0000821CBB28A4288F800306CD0002A6AD0BA
:10B4D0001F4ADFF880E092F800A00AF10102AEFBFB
:10B4E000029C4FEA5C0C0CEB4C0CA2EB0C0CD44510
:10B4F000624658D0DFF860B08A2000FB0CB999F999
:10B500007290894555D0CDE901E003934FF0FF30AB
:10B5100028E000BF62900020D52A0020D4900020AF
:10B52000E42A0020B8900020D82A0020C0900020F3
:10B53000D62A002038D40020A8190020DC2A0020B8
:10B5400082AE00207F9698006BCA5F6B54EF00209C
:10B55000E4E90020ABAAAAAA9C6D00209EF9729093
:10B56000894523D002F1010E019AA2FB0E32520846
:10B5700002EB4202029BAEEB0202002803FB02BE7A
:10B5800003DAB9F1000F08BF604652459446E5D191
:10B59000039B002807DBC0B229F0A6FE98F8003014
:10B5A00095F800805CE74FF0000859E7039B1046D0
:10B5B000EFE76046EFE700BF2DE9F04FBB4DDFF846
:10B5C00070B36B692DED068B82469FB0002B00F0A7
:10B5D00011879847044617F015FBDBF8C832E31AC9
:10B5E000A0EB040200F00687CBF8C432CBF8C842C7
:10B5F000AF4909783E2915D1AE49AF4881FB0364B4
:10B6000081FB0261DB17D217C2EBA102C3EBA403DB
:10B6100047F6FF718B42A8BF0B468A42A8BF0A4675
:10B6200003804280A54C23782BB12B699F48984713
:10B6300080F001002070A24B1A780692002A00F0D8
:10B640008E860AF5EC429F489BF8CC125F3202606E
:10B6500000221A70DBF8D032002900F085869A4566
:10B6600084BF01F1FF388BF8CC82974B0593974B41
:10B670000293974B0093974B07936B69002B00F055
:10B68000EC869847044617F0BDFADBF8C822031B86
:10B69000A21A039300F0E186CBF8C422CBF8C8428B
:10B6A000DBF85C330399AAEB03038B42C8BF134654
:10B6B00047F230529342A8BF1346029A8649126855
:10B6C000CBF85CA3B3F57A7FB8BF4FF47A73D60496
:10B6D0000B8001F16683814B1B78022B01F0FF8305
:10B6E000042B01F03F84012B01F015847C4B079A59
:10B6F0009A45927801F20A82002A41F00B82794B36
:10B700000393029B1C68009BE504B3F9069001F1CA
:10B710005483059B9D8A4D45CCBF4FF000094FF0E7
:10B72000010907F0C5FF704B09931A78039BDFF8F6
:10B7300004821B7898F800100028B8BF4042C5B2B8
:10B74000019503F00103002A40F06F86674D002643
:10B750002E70B9F1000F01F0AF824FF00109644E75
:10B76000644D0027377001262E70514D2D78002B27
:10B7700000F08C87DFF8C0C19CF8016026B15E4EF6
:10B780003678002E01F09C865C4A0A921F2D00F04C
:10B7900082875B4B0893012901F06585594D9FED28
:10B7A0005A7A6B7807EE903AF8EEE77AE20667EE9F
:10B7B000877AFCEEE77A17EE903A02F15781534A06
:10B7C0000192534A534413601F2152482DF0BEFA90
:10B7D00020B9514B1B78002B01F0AE85029B1B68F2
:10B7E000580701F180824D4B1B680DF15C09194629
:10B7F0004FF00042002300291793CDE919331C9321
