:020000040800F2
:10000000F0FF001011C905083BEB03086943020823
:10001000B1C90508B1C90508B1C90508000000004B
:1000200000000000000000000000000039EB0308A1
:1000300037EB03080000000035EB0308CD4302084E
:10004000B1C90508B1C90508B1C90508B1C9050894
:10005000B1C90508B1C90508298E0308558F0308E1
:10006000198F0308DD8E0308A18E030815220508E9
:1000700005220508F5210508E5210508D121050817
:10008000BD210508A9210508B1C90508B1C90508A0
:10009000B1C90508B1C90508B1C90508658E0308CD
:1000A0001DFB0108B90002084DFA01088901020888
:1000B000F9FF010839FF01086DFE0108E92A05086A
:1000C000F12A0508DD2A0508E52A0508B1C9050851
:1000D000B1C90508D9450208B1C905081D4502087E
:1000E000ED8D0308B1C90508812804087DF90108D0
:1000F000EDFB0108ADF80108CDFC010895210508CC
:10010000B1C90508B1C905089DFD0108B1C90508B7
:10011000B1C90508B1C90508990D0108210C0108EC
:10012000812105086D21050859210508452105088B
:1001300031210508B1C90508B1C90508B1C90508CB
:10014000B1C90508B1C90508B1C90508710104089C
:100150001D21050809210508F5200508614402084C
:10016000D12A0508D92A0508B1C90508B1C9050869
:10017000B1C90508B1C90508B1C90508B1C9050863
:08018000B1C90508B1C9050869
:08018800B8C4050001000000ED
:100190000A02010014000000482200203C25002033
:1001A00000000000959F0008F821010006000000F3
:1001B000181D002050250020000000001009000834
:1001C0000300010001000000381D00205825002018
:1001D00000000000000000001010010002000000FC
:1001E000E41C00205C250020000000001609000827
:1001F00025201E002C010000642200206025002024
:1002000000000000000000000702010002000000E2
:10021000A82C00200C310020000000001809000864
:100220001D02020006000000742C00201031002086
:100230000000000000000000060203000C000000A7
:10024000902C00209835002000000000A9340108FF
:10025000081203000F000000802C0020A4350020AD
:1002600000000000C92A0108270001000400000066
:10027000BC270020B4350020000000001A09000847
:10028000020001000C000000785500200C560020F0
:1002900000000000000000002902010040000000F2
:1002A000EC54002018560020000000001E09000831
:1002B0002802040004000000C85800202C5A002026
:1002C000000000002D2B010827020400040000009C
:1002D000C4580020305A002000000000212B0108E3
:1002E0001A0201003C00000084570020345A00200C
:1002F0000000000091370108031201003D000000DA
:1003000074580020705A0020000000005E090008A8
:10031000381001000100000074560020B05A00207F
:10032000000000009C090008012001000C000000F2
:10033000507000201477002000000000A009000881
:100340000EF003009E010000C46B00202077002007
:1003500000000000652D05081300010004000000E6
:10036000D8760020C078002000000000AC0900080A
:100370000101010004000000046B0020C47800208B
:100380000000000000000000000101000400000067
:10039000FC6A0020C878002000000000B0090008B6
:1003A0000201010003000000F86A0020CC78002060
:1003B00000000000A58A0008220201001C010000C4
:1003C000A0740020D0780020000000005D360108F5
:1003D0000C20060034020000886D0020EC7900201B
:1003E00000000000858A0008010201000B000000E7
:1003F000106B0020207C002000000000B92A0108BA
:100400001B02010010000000187300202C7C00204B
:1004100000000000312B01081B1001000C0000003F
:10042000385C00203C7C002000000000E9670208E6
:1004300021020100F0000000BC5A0020487C00208E
:1004400000000000C96602082C0004001000000033
:10045000B8890020A88900200000000091EF020860
:100460002B00120024000000EC890020C889002025
:100470000000000061EF020829201400780000004D
:10048000F4870020108A0020000000000000000017
:10049000F62101000C00000078860020888A0020E8
:1004A00000000000B40900081C0202001C0000004B
:1004B0000C860020D88A002000000000DD330108EF
:1004C000282001001800000028860020F48A00205F
:1004D00000000000F5F302080B3001001A000000D4
:1004E000089A0020849F002000000000C009000836
:1004F0001F3001002400000044910020A09F002034
:1005000000000000DC0900080502010004000000F2
:10051000D89C0020C49F002000000000000A0008B2
:10052000030101000A0000008C990020C89F0020F0
:1005300000000000C9D203081302010004000000FB
:10054000B48B0020D49F002000000000040A0008A3
:100550002312010010000000BCA10020E4A800202C
:1005600000000000080A0008051001000600000055
:10057000B4A10020F4A8002000000000180A000820
:10058000371001002E00000090A80020FCA80020D9
:10059000000000001E0A00080E0201000200000018
:1005A000B0A100202CA90020000000004C0A000887
:1005B0001610010006000000A8A1002030A90020AC
:1005C000000000004E0A00082F1001002200000069
:1005D000C0A8002038A9002000000000540A00082C
:1005E0001E00010009000000CCA000205CA9002032
:1005F00000000000760A0008F58101006800000094
:10060000DC9F002068A9002000000000CD650208E2
:10061000232001001000000054A10020D0A90020D8
:10062000000000007DD00208FD07010076000000F8
:10063000F4A70020E0A900200000000049500208B3
:10064000261001000E00000068AA002058AA002011
:1006500000000000CD280408140001000400000080
:10066000C0A5002078AA002000000000800A000831
:100670000D1001004C000000B8C90020F4D2002089
:100680000000000021A6010804000800800000000E
:10069000F8C8002040D30020000000000000000047
:1006A0000902010001000000A0C80020C0D3002002
:1006B00000000000840A0008FD0101002400000081
:1006C00038C80020C4D300200000000057DC010817
:1006D000182001003200000000C80020E8D30020EC
:1006E0000000000015370108FB01010001000000B7
:1006F000C0C700201CD4002000000000C93501083C
:10070000FC010100090000008CC6002020D400205C
:1007100000000000D9350108F701010006000000C3
:1007200084C600202CD4002000000000860A0008A7
:10073000F90101000400000080C6002034D400202C
:1007400000000000255C0308160215003F000000B1
:1007500088AE002038D4002000000000A536010833
:100760003400010010000000ACC5002078D4002047
:1007700000000000952D050811020100080000008E
:1007800084C5002088D40020000000008C0A0008E6
:1007900012120100040000007CC5002090D400204B
:1007A00000000000940A00080A80010028000000F0
:1007B00054C5002094D400200000000065CF02083A
:1007C000061001001C0000006CAE0020BCD400200C
:1007D00000000000F53501081220010011000000A2
:1007E00094C40020D8D4002000000000980A00081B
:1007F000000201000B000000D0C10020ECD400205A
:100800000000000000000000FA01010003000000E9
:1008100064BB0020F8D4002000000000AD2A0108CD
:10082000020201000300000064AE0020FCD400209E
:1008300000000000000000000C02010004000000A5
:1008400044AE002000D5002000000000952A0108D9
:100850001F02080010000000ECBA002004D50020A0
:1008600000000000752A0108FE01010014000000CC
:10087000BCB9002014D5002000000000452A010862
:10088000100201000100000030F900202CF90020C6
:1008900000000000AA0A000819000100050000007D
:1008A0006CFE002034FF002000000000AC0A0008AD
:1008B0001A0001000E000000F4FD00203CFF0020A3
:1008C00000000000B20A0008203201000A00000007
:1008D000C0FC00204CFF002000000000452D050852
:1008E000150010007000000054FA002058FF00208E
:1008F00000000000000000002A0008006000000066
:10090000D4FE0020C8FF0020000000001D2D0508B7
:100910000101F40114000005013C20030000000067
:1009200000000000000000000000000000000000C7
:1009300000000000000000000000000000000000B7
:1009400000000000000000000000000000000000A7
:100950000000000000000000000000000000000097
:100960000000000000000000000000000000000087
:100970000000000000000000000000000000000077
:100980000000000000000000000000000000000067
:100990000000000000000000000001000000000056
:1009A000E8036400040A000114001E00080044303B
:1009B00090010000000000000100000002020000A1
:1009C000AE014A015E012C01640102000000010039
:1009D0000A019A01001E0A00000200000000000047
:1009E00000010000000500000102030000000000FB
:1009F0000000000000000000000000000080070070
:100A000000000000000001350000000000000000B0
:100A10000000000000000000200001010000200094
:100A20003200C800D00796001400320028004C04A1
:100A300040060005500014000F000800640001008B
:100A4000010005000A000000F40196000000C4093E
:100A5000000019000000000000000000000000007D
:100A60000000000000000000000000000000000086
:100A70000000000000000005010000000000000070
:100A800003000023390018010000000000000000EE
:100A900001010101FFFFFFFF00000001000005460A
:100AA00059344F0000080002000000000000280137
:100AB00000007E05EA05B4053200E803D007000017
:100AC0000000FA430000FA430000803F0000803F2E
:100AD00000000000000000000000000061A9010803
:100AE000000000000000000000000000FFFFFFFF0A
:100AF000000000002C25002008000000000000007D
:100B00001C250020080000001A030000000000005F
:100B100000000000000000000000000000000000D5
:100B2000000000000403090412010002000000405C
:100B3000830420570002010203010000213801084C
:100B4000792B0108752B0108712B01086D380108FC
:100B50006D2B0108692B01089010060851FA030853
:100B600087CD030835F903080000000000000000ED
:100B7000C9F00308D9EF03080000000000000000DE
:100B8000000000005DCC0308112C0108052C0108B1
:100B9000A13D0108BD3D0108BD2B0108853D0108AF
:100BA000693D01081F0000001C0000001F0000003C
:100BB0001E0000001F0000001E0000001F000000BB
:100BC0001F0000001E0000001F0000001E000000AB
:100BD0001F0000000068214C301A0608F4010000D4
:100BE000FFFF000049F20308C7CD0308DDF1030849
:100BF00000000000A9CC0308B5FA03081DF10308A2
:100C000089ED0308000000000000000069CC030823
:100C100035CC030827CC03080DEC030829EC0308A6
:100C2000F1EB0308D5EB0308BBEB0308FFF1030866
:100C3000A5CD03081FF103080000000081CC0308C4
:100C40008BED0308F1F00308F3EC0308000000004B
:100C50000000000075CC0308685E0C0002FF000075
:100C600000000100E00101FF01000000915C0208AA
:100C700000000000000000004031060800000000F5
:100C800000000000000000007C37060800000000A3
:100C900000000000000000003438060800000000DA
:100CA0000000000000000000E03706080800000017
:100CB0000000000000000000E99102089773002086
:100CC0000101FF00FFFFFFFFD9B90208000000008B
:100CD000000000000839060815BD020800000000E9
:100CE00000000000C03806082D202D2D202D2D2DB0
:100CF0002D202D2D2D000000000000000000000020
:100D000000000000000000000000000000000000E3
:100D1000000000007C380608849C00209CFF2C0109
:100D20000000000050760020E0150C1700000000C5
:100D30009573002002000000B4380608EC6A002019
:100D400088136F1701000000EE6A002088136F17E8
:100D5000000000006ECA002000000000000000003B
:100D60006CCA002000000000000000006ACA0020D9
:100D7000000000000000000068CA00200000000021
:100D80000000000066CA0020000000000000000013
:100D900064CA00200000000000000000700F002066
:100DA0000000000000000000756A00200300000041
:100DB000A4390608E46A002088136F1701000000B8
:100DC000CE9C002088136F1700000000615D0208B0
:100DD0000000000000000000B439060896730020EF
:100DE00001000000083A0608D09C00200100000025
:100DF000143A0608C69C0020020000001C3A0608AF
:100E0000000000000000000000000000283A060872
:100E1000495D02080000000000000000C43A060816
:100E2000000000000000000000000000183B060861
:100E3000000000000000000000000000883B0608E1
:100E4000F06A002002000000C03B0608CA9C002097
:100E5000E0150C17000000006C7F0020C07F002010
:100E6000D60101FFFFFFFFFF75A002080000000090
:100E7000000000006C51060801000000FA000000AC
:100E8000010000000100000001000000000101015C
:100E900000000000487000200000F4010100000084
:100EA000467000200000F4010100000044700020A2
:100EB0000000F40101000000427000200000F40175
:100EC00001000000407000200000F401010000005B
:100ED0003E7000200000F401010000003C70002082
:100EE0000000F401010000006164020825640208AA
:100EF00000000000EC3D06082C70002005320100C7
:100F00003A7000206400F4010100000038700020F5
:100F10006400C409010000002A700020E803D00723
:100F20000100000028700020E803D0070100000045
:100F300026700020E803D007010000002470002084
:100F40001E00B80B010000003270002005000F00E9
:100F5000010000003470002003000A0001000000BE
:100F6000227000201E00F4010100000036700020F5
:100F700002000000783E0608207000201400640083
:100F8000010000002E7000203200E8030100000084
:100F90001E7000200000C80001000000856D0020C8
:100FA00000C80100846D002000500100836D002006
:100FB000005A0100816D002002000000843E0608F6
:100FC00094B606089CB606082ACA00200100C40987
:100FD0000000000028CA00200100C4090000000031
:100FE00026CA00200100C4090000000024CA002015
:100FF0000100C4090000000020CA00200100C4094B
:101000000000000022CA00200100C4090000000006
:101010001ECA00200100C409000000001CCA0020F4
:101020000100C409000000002F6B002000C801006F
:101030002E6B002000C801002C6B00200000FFFF79
:101040000A0000002A6B00200100C8000100000017
:10105000286B00203200307532000000266B002023
:1010600005820500246B002005002C01050000000E
:10107000236B0020055A0500206B002000FF0100B3
:10108000226B002002000000880600201E6B00205A
:1010900003000000048006081F6B002000FF010011
:1010A000216B002002000000880600201D6B00203C
:1010B0000300000004800608B563020845630208C7
:1010C00000000000903E060860700020EE02CA0892
:1010D000010000005E70002000C8010064000000F4
:1010E0005D70002000C80100640000005C700020FA
:1010F000020000009C3F06080A6B00200000803EB2
:1011000005000000086B002080C1803E0500000043
:10111000026B00200083007D05000000006B0020B2
:1011200080C1803E05000000FB6A002000FF010036
:10113000F46A00206400F40101000000F26A00205B
:1011400004000000A83F0608F16A00200200000029
:10115000BC3F0608B56B00200D000000C83F060824
:10116000B26B002000640100B06B00203200102739
:101170000A000000AE6B00200D000000C83F06080A
:10118000AD6B00200D000000C83F0608AC6B0020CE
:1011900002000000004006080000000000000000FF
:1011A000000000000C400608667000203E000000B1
:1011B00044400608647000200100FF7F0100000029
:1011C000637000200200000040410608B76B002059
:1011D0000300000050410608B66B00200300000029
:1011E00050410608726D0020000A0100706D002059
:1011F0000000E803010000006E6D00200000E8031D
:10120000010000006C6D00200000E80301000000F8
:101210006A6D00200000E80301000000626D0020FC
:101220000000E80301000000686D00200000E803F2
:1012300001000000666D00200000E80301000000CE
:10124000646D002000140100806D00200200000089
:10125000604106087E6D00200000F40101000000DE
:101260007C6D00200000F401010000007A6D002078
:101270000000F40101000000786D00200000F4017E
:1012800001000000766D00200000A00F01000000AA
:10129000746D00200000A00F010000000B70002002
:1012A000196401000A700020020000006C41060869
:1012B000CC6F0020E803D0070A000000CA6F0020AE
:1012C000006401000A000000BF6F002000640100FC
:1012D000BE6F002000640100C66F002000640100A2
:1012E0000A000000C56F0020006401000A00000031
:1012F000C46F0020006401000A000000C96F0020D4
:1013000000FF01000A000000C86F002000FF01007C
:101310000A000000C76F002000FF01000A00000063
:10132000C36F002001FF01000A000000C26F00200F
:1013300001FF01000A000000C16F002001FF010051
:101340000A000000C06B00200000F4010100000052
:10135000BE6B00200000A00F01000000BC6B00204D
:101360000000A00F01000000BA6B00200000A00FD9
:1013700001000000B86B00200000A00F0100000079
:10138000DF73002000C80100DE730020006401004C
:10139000DD73002000640100DC73002000640100A4
:1013A000DB73002000640100DA730020FF080100F5
:1013B000D973002001640100BD6202088162020845
:1013C0000000000078410608E273002001320100AD
:1013D000E173002001000000E8410608E0730020EE
:1013E00004000000F0410608D873002000640100EA
:1013F000D67300201400E80301000000D47300201D
:10140000E80330750A000000D373002000C8010013
:10141000D273002000C80100D173002000C8010071
:10142000D073002000320100E4730020004B010063
:10143000E37300200400000004420608CF7300207C
:10144000006401000A000000F27300200000D007D1
:1014500001000000ED73002000C80100EC730020C3
:1014600000C80100EB73002000C80100F0730020E9
:101470000000D00701000000EA73002000C801004E
:10148000E973002000C80100E873002000C80100D3
:10149000EE7300200000D00701000000E773002079
:1014A00000C80100E673002000C80100E5730020B9
:1014B00000C8010099600208816002080000000075
:1014C00018420608A96B0020005A0100A86B0020F2
:1014D00000C80100A66B0020E803D007010000004F
:1014E000000000000000000029920208B442060833
:1014F0004655525946344F53440000001C6B00209F
:10150000000301001B6B002000030100BD5F020807
:10151000715F02080000000008430608315F0208FE
:10152000E95E020800000000A44306080960020802
:1015300081A5020800000000244406080C6B00206E
:101540000103010009650208DD64020800000000D3
:101550007C4706086D5E0208215E0208000000005C
:10156000EC470608A9600208D1C802080000000084
:101570008848060809A40208356502080000000032
:1015800030490608F9600208000000000000000071
:10159000BC490608B1610208596102080000000058
:1015A000204A06084562020809620208000000009D
:1015B000C84A0608B1CE0208F9620208000000001D
:1015C000544B06081D70002001060100316102081D
:1015D0000961020800000000504C0608E7CD02082F
:1015E000EDA1020800000000C04C0608E9CE020888
:1015F000B1A2020800000000104E06081C70002076
:10160000010301005160020821600208000000008F
:10161000E44E060841CF0208000000000000000070
:10162000484F0608B95E02085DA0020800000000ED
:10163000C84F060800000000000000000000000085
:10164000545006081D63020829A302080000000088
:10165000C4500608FFFF0000FFFFFFFFB80C07089B
:10166000000008020503030000000000C00C07088A
:10167000010008020504030000000000FC9E0608AB
:101680000200FE01011003000000000010BA06086D
:10169000030014020003000000000000C80C07084B
:1016A00004001F020200080000000000D00C070820
:1016B00005001F02020108000000000004030904E5
:1016C00012010002EF0201408304563200020102BF
:1016D000030100001201000202020040830440578F
:1016E000000201020301000009022000010104C000
:1016F0003209040000020806500507058102400077
:10170000000705010240000009026400030100C057
:101710003209040000010300000009211101000149
:101720002236000705830309000A080B01020202A2
:10173000010009040100010202010005240010015A
:101740000524010002042402020524060102070503
:1017500082030800FF09040200020A0000000705D6
:101760000102400000070581024000000902430019
:10177000020100C032090400000102020100052438
:1017800000100105240100010424020205240600C2
:1017900001070582030800FF09040100020A000096
:1017A000000705010240000007058102400000001B
:1017B000FF00000000FF0000000000000000AA552C
:1017C0000701000001AA550501000008A87E0608CF
:1017D000FF1FFF1F05010905A101A1000501093037
:1017E00009310932093309350934093609371581B8
:1017F000257F75089508810205091901290815003A
:101800002501950875018102C0C00000090222006F
:10181000010100E032090400000103010200092176
:10182000110100012236000705830309000A0000A8
:101830000000000001020304010203040607080976
:10184000EBF20308E9F7030865F30308DFCC0308AC
:1018500091CE0308EFCC03080BCD0308B9CC0308E5
:10186000ABCC030800000000000000002D202D2D4F
:10187000202D2D2D2D202D2D2D2D000000000000C0
:101880000000000000000000000000AA550B01004D
:1018900000AA5505010000AA550902000000AA553A
:1018A00003009F0001000000C0120000549F0020B0
:1018B000000000007C9F0020000000007EFF000070
:1018C000FFFFFFFF01000000A00F0000540D0708FC
:1018D0007C17070800000000158B0008A086010097
:1018E00004000000000000000000000000000000F4
:1018F00000000000000000000000000000000000E8
:10190000000000000000000000000000540D070867
:10191000E417070800000000EDDA0108E803000002
:1019200004000000000000000000000000000000B3
:1019300000000000000000000000000000000000A7
:101940000000000000000000000000006CBC060861
:101950000000000000000000AD9A00087D000000BB
:10196000FF00000000000000000000000000000078
:101970000000000000000000000000000000000067
:10198000000000000000000000000000C410070874
:10199000000000000000000019AF00087D000000FA
:1019A000FF00000000000000000000000000000038
:1019B0000000000000000000000000000000000027
:1019C0000000000000000000000000005CBF0608EE
:1019D000000000000000000011D300087D0000009E
:1019E000FF000000000000000000000000000000F8
:1019F00000000000000000000000000000000000E7
:101A000000000000000000000000000010BD0608FB
:101A10000000000000000000C9E20108E803000027
:101A200003000000000000000000000000000000B3
:101A300000000000000000000000000000000000A6
:101A4000000000000000000000000000EC17070884
:101A500000000000000000005D970508102700004E
:101A60000300000000000000000000000000000073
:101A70000000000000000000000000000000000066
:101A8000000000000000000000000000C40C070877
:101A90000000000085EB0208991102085F76000043
:101AA0000500000000000000000000000000000031
:101AB0000000000000000000000000000000000026
:101AC000000000000000000000000000681007088F
:101AD0000000000000000000794802081027000004
:101AE00001000000000000000000000000000000F5
:101AF00000000000000000000000000000000000E6
:101B0000000000000000000000000000F8170708B7
:101B10000000000000000000F1DA0108E803000006
:101B200005000000000000000000000000000000B0
:101B300000000000000000000000000000000000A5
:101B4000000000000000000000000000041807086A
:101B50000000000000000000F5A10008204E000079
:101B60000300000000000000000000000000000072
:101B70000000000000000000000000000000000065
:101B8000000000000000000000000000141807081A
:101B90000000000000000000D19F0008204E00005F
:101BA0000300000000000000000000000000000032
:101BB0000000000000000000000000000000000025
:101BC00000000000000000000000000024180708CA
:101BD0000000000000000000C5E80108400D0300FF
:101BE00003000000000000000000000000000000F2
:101BF00000000000000000000000000000000000E5
:101C0000000000000000000000000000E8A106083D
:101C1000000000000000000055A701081027000088
:101C200001000000000000000000000000000000B3
:101C300000000000000000000000000000000000A4
:101C400000000000000000000000000090B4060842
:101C5000000000000000000081730208102700004F
:101C60000300000000000000000000000000000071
:101C70000000000000000000000000000000000064
:101C800000000000000000000000000034180708F9
:101C90000000000000000000E1260308A08601000B
:101CA0000100000000000000000000000000000033
:101CB0000000000000000000000000000000000024
:101CC00000000000000000000000000074BB0608D7
:101CD000000000000000000055E1010850C30000B2
:101CE00001000000000000000000000000000000F3
:101CF00000000000000000000000000000000000E4
:101D00000000000000000000000000001CB90608F0
:101D1000000000000000000055DD0108A86100007F
:101D200001000000000000000000000000000000B2
:101D300000000000000000000000000000000000A3
:101D40000000000000000000000000003C18070830
:101D500000000000000000009DC90208A0860100EC
:101D60000100000000000000000000000000000072
:101D70000000000000000000000000000000000063
:101D800000000000000000000000000010A2060893
:101D9000000000000000000005DD0108A00F0000A9
:101DA0000100000000000000000000000000000032
:101DB0000000000000000000000000000000000023
:101DC00000000000000000000000000048180708A4
:101DD000000000000000000019C4020810270000E5
:101DE00001000000000000000000000000000000F2
:101DF00000000000000000000000000000000000E3
:101E000000000000000000000000000034C70608C9
:101E10000000000000000000A57B04081A4100003B
:101E200001000000000000000000000000000000B1
:101E300000000000000000000000000000000000A2
:101E4000000000000000000000000000DCB80608F0
:101E50000000000000000000FDD203081027000071
:101E60000100000000000000000000000000000071
:101E70000000000000000000000000000000000062
:101E800000000000000000000000000088170708A4
:101E90000000000000000000CD07030850C3000050
:101EA0000100000000000000000000000000000031
:101EB0000000000000000000000000000000000022
:101EC0000000000000000000000000005418070897
:101ED000000000000000000091DA0308400D03003C
:101EE00000000000000000000000000000000000F2
:101EF00000000000000000000000000000000000E2
:101F00000000000000000000000000005C1807084E
:101F10000000000000000000A9DA0108400D0300E5
:101F200000000000000000000000000000000000B1
:101F300000000000000000000000000000000000A1
:101F40000000000000000000000000006418070806
:101F5000000000000000000085AB020850C3000034
:101F6000030000000000000000000000000000006E
:101F70000000000000000000000000000000000061
:101F800000000000000000000000000070180708BA
:101F900000000000000000008120010840420F0006
:101FA0000000000000000000000000000000000031
:101FB0000000000000000000000000000000000021
:101FC0000000000000000000000000007C1807086E
:101FD0000000000000000000A586010850C30000BA
:101FE00000000000000000000000000000000000F1
:101FF00000000000000000000000000000000000E1
:10200000000000000000000000000000B80B00000D
:102010000102FFFF010101000800000000000401AF
:102020000000000000000002100000000700000097
:102030007D000000006002401060024000000000CF
:1020400000000000000B0000000000000000000085
:102050000000000000600240286002400100000013
:1020600000000000060C000000000000000000005E
:1020700000000000006002404060024002000000DA
:1020800000000000100D0000000000000000000033
:1020900000000000006002405860024003000000A1
:1020A00000000000160E000000000000000000000C
:1020B0000000000000600240706002400400000068
:1020C00000000000200F00000000000000000000E1
:1020D000000000000060024088600240050000002F
:1020E00000000000261000000000000000000000BA
:1020F0000000000000600240A060024006000000F6
:10210000000000003011000000000000000000008E
:102110000000000000600240B860024007000000BC
:1021200000000000362F000000000000000000004A
:102130000000000000640240106402400000000043
:102140000000000000380000000000000000000057
:10215000000000000064024028640240010000000A
:102160000000000006390000000000000000000030
:1021700000000000006402404064024002000000D1
:1021800000000000103A0000000000000000000005
:102190000000000000640240586402400300000098
:1021A00000000000163B00000000000000000000DE
:1021B000000000000064024070640240040000005F
:1021C00000000000203C00000000000000000000B3
:1021D0000000000000640240886402400500000026
:1021E0000000000026440000000000000000000085
:1021F0000000000000640240A064024006000000ED
:102200000000000030450000000000000000000059
:102210000000000000640240B864024007000000B3
:102220000000000036460000000000000000000032
:102230000000000025CC030823CC030821CC0308B0
:102240001BCC030819CC03081FCC03081DCC0308C2
:10225000010000000000803F0100000000000000BD
:10226000000000000102030406070809FFFFFFFF4A
:102270000000803F0000000000000000000000009F
:102280000000803F0000000000000000000000008F
:10229000000000000000000000000000000000003E
:1022A00000000000000000000000803F000000006F
:1022B000000000000000000001010000881900205B
:1022C000000000000000000000000000000000000E
:1022D00000000000000000000000000000000000FE
:1022E00000000000000000000000000000000000EE
:1022F00000000000000000000000000000000000DE
:1023000000000000000000000000000000000000CD
:1023100000000000000000000000000000000000BD
:082800000000000000000000D0
:10800000104B1A68431C17D00C29A2F5FA630AD04A
:10801000212908D030B40C4B0C4D0D4C2960206048
:108020001A6030BC7047084A12689B1A002BA2BF26
:10803000064B00221A607047034B1B68A2F5FA62D8
:10804000D31AF3E768B90020E8190020D8A000206F
:10805000880F00202C4B1B68184483799BB107EED6
:10806000903ADFED2A6AF8EEE77A20EEA07A67EE22
:10807000A67A27EE207AF7EE006AD7EE877A77EEB7
:10808000A67A20EE270AC378DFED206A07EE903A41
:10809000F8EEE77AB0EE007A67EEA67AF4EEC77AE9
:1080A000F1EE10FA05DD37EEC77ADFED196AE7EE7B
:1080B000267A437A9FED177A20EE070A20EE270AE8
:1080C00003B3DFED127A9FED147A06EE903A60EE7C
:1080D000A77AF8EEE60A60EEA70AF4EEC70AF1EE18
:1080E00010FA04DDDFED0D7A20EE270A7047F5EE79
:1080F000C00AF1EE10FA05D4F7EE007A77EEE00A46
:1081000080EE200A704700BFE49E00200AD7233C7F
:10811000D7A3684100004843A4707D3F0000C842D7
:10812000174B9FED185A1B681844BFEE007A437A2C
:1081300006EE103AC378A0EE007A07EE903A837903
:10814000B8EE466A05EE903A60EE850AF7EE006AF0
:10815000F2EE044AB0EE664A20EE240AA6EE204A69
:1081600027EE057AF8EEE55AF8EEE77AE5EE876A4B
:1081700067EE807A24EE270A20EE260A704700BFB9
:10818000E49E00200AD7233C2C4BDFED2D7A1B68A0
:10819000DFED2C6A184420EEA76A437A00EE903A8D
:1081A0008379F8EEE00A07EE103A60EE860AB8EE40
:1081B000C77AF4EEE60AF1EE10FA27EE277A0BDC26
:1081C000F5EEC00AF1EE10FA34D4F7EE007A77EE4D
:1081D000E00A87EEA05A01E09FED1B5AC378DFED5D
:1081E0001B5A9FED1B6A60EE006A07EE903A96EE0E
:1081F000877AF0EE476AB8EEE77A70EE007AB7EE6B
:10820000000A67EE277A36EE807A67EE877A67EEA5
:10821000857AF4EEE57AF1EE10FA88BFF0EE657A31
:10822000F4EEC67AF1EE10FAB4BFB0EE460AB0EE44
:10823000670A7047B7EE005AD0E700BFE49E0020FF
:108240000AD7233CA4707D3F0000C84200C0F94417
:1082500000C0F9C42E4BDFED2F3A1B689FED2E5A5C
:108260001844F7EE005A427AC378817902EB820211
:1082700052005B009A42B8BF1A4607EE902AF8EE09
:10828000676A07EE903AF8EEE77A07EE101A86EE84
:10829000A76AB8EEC77A36EE656A20EEA04AC6EE47
:1082A000264A27EE237A67EEA00A97EE047A37EE85
:1082B000257A27EE207A27EE247AB4EEC57AF1EEFD
:1082C00010FA09DCB5EEC07AF1EE10FA1DD435EEE5
:1082D000C77A85EE876A01E09FED106ADFED106ACC
:1082E0009FED107A67EE807A27EE860AB4EEE60AF2
:1082F000F1EE10FA88BFB0EE660AB4EEC70AF1EEEE
:1083000010FAB8BFB0EE470A7047B0EE656AE5E70D
:10831000E49E00200AD7233CA4707D3F0000C842A1
:1083200000C0F94400C0F9C41B4BDFED1C4A1B68B8
:108330009FED1B5A1844F2EE045A437A07EE903A26
:10834000837907EE103AC378F8EEE77A06EE903AB2
:1083500020EE006AB8EEC77AF8EEE66A67EEA57A14
:1083600027EE247A26EE066AE6EEE57A96EE077A9E
:10837000F4EEC57AB7EE006AF1EE10FA37EE067A3F
:10838000B8BFF0EE457A67EE877A67EEA07AE6EE40
:10839000A57A27EE800A7047E49E00200AD7233C86
:1083A00000000000D0E90920101AB0FA80F040095E
:1083B000704700BF0171704703799B070AD5436A74
:1083C0008269D154436A01690133B3FBF1F201FBC5
:1083D00012334362704700BF037913F0010317D0D3
:1083E000D0E90731C26810B45B1A541E23400BD089
:1083F00043694C1C5B5CB4FBF2F102FB114202626C
:108400005DF8044BD8B2704718465DF8044B7047CE
:1084100018467047037913F0020308D0D0E9092108
:108420000369581E531A0340DBB2C01A704718463E
:10843000704700BF037913F0010306D0D0E907317C
:10844000C268581A531E184070471846704700BF3C
:1084500010F8113C0133DBB20A2B00F8113C07D9AC
:10846000044A10F8131C002322F8113000F8113CC4
:10847000704700BF28810020F0B45D4E5D4832791E
:108480005D4B5E4DDC6B2D780132A0FB0270000964
:1084900000EB8000A2EB80001A683071914201EB82
:1084A00004005C6811D293F84520002A4ED000F5F4
:1084B0008030B0FBF5F084420BD2041B4FF48032C5
:1084C00092FBF5F2A21A9A600AE0B0FBF5F0844242
:1084D00044D34FF4803292FBF5F2121B02449A60AF
:1084E00040F68C240025A242C3E9001083F84550D1
:1084F00017D993F8402093F942108A4256B241D0DE
:10850000002093F9411083F843008A4247D00121AB
:10851000002283F8426083F8441083F84020F0BCC6
:10852000704793F844100029F9D0A2F2EF2040F2EE
:10853000DA5188421AD893F840100B2916D803EB69
:1085400081000131C26083F84010E8E7B0FBF5F02C
:108550008442BED2041BA21A9A60C1E793F8452058
:10856000002AAAD1041BA21A9A60B9E7244A002162
:1085700002F1300083F8441042F8041F8242FBD11C
:10858000F0BC7047111F0829BAD893F84310182976
:1085900026D8013183F8431093F94110B5E793F8D9
:1085A00044100029B3D0FAB11649154C0FFA82FCD9
:1085B000084601EB4C0754F8045F20F8025BB84210
:1085C000F9D10B2A07DC104801EB4C02002122F8FC
:1085D000021B9042FBD10D490A7801320A7096E7DE
:1085E00083F84160314690E794460649EBE700BFC7
:1085F000E8190020CDCCCCCC78C700201819002079
:1086000080C7002028810020408100201C8100209C
:1086100030B40E4D0E4B2A790E4C0132A3FB0203EF
:108620001B09E06B03EB8303A2EB83034FF6FF729E
:10863000914200F101002B71084408BF0123E0635F
:1086400008BF84F8453030BC704700BFE8190020EF
:10865000CDCCCCCC78C70020BCEEC00A10EE103ACE
:1086600098B2704707EE900AB8EE670A704700BFED
:10867000AF4A92F82C30002B00F0F980AD4B197CFA
:10868000F0B4002940F0938019680020086092F847
:108690002C1001294FD993F8281000294DD1996940
:1086A0000020086092F82C10022944D993F8401059
:1086B00000295FD1196B0020086092F82C10032963
:1086C00039D993F85810002940F08E80996C002019
:1086D000086092F82C1004292DD993F87010002905
:1086E00040F0C680196E0020086092F82C10052911
:1086F00021D993F88810002940F0D780996F002085
:10870000086092F82C10062915D993F8A0100029BA
:1087100040F0E880D3F890100020086092F82C20F8
:10872000072A08D993F8B820002A40F08180D3F8AE
:10873000A83000221A60F0BC7047D869810AA1F500
:108740008011522970D87C4C615CEFF31184502564
:1087500085F31288794E476A858A01EB810106EB21
:10876000C101013745F00105CF62E4B2858284F38F
:10877000118894E7596B880AA0F58010522855D8C3
:108780006D4C205CEFF31184502585F312886B4EFD
:108790004F6A8D8A00EB800006EBC000013745F080
:1087A0000105C762E4B28D8284F3118882E75968BB
:1087B000880AA0F58010522834D85F4C205CEFF373
:1087C0001184502585F312885C4E4F6A8D8A00EB28
:1087D000800006EBC000013745F00105C762E4B236
:1087E0008D8284F311884FE7D96C880AA0F5801038
:1087F000522800F29580504C205CEFF311845025F4
:1088000085F312884D4E4F6A8D8A00EB800006EB8F
:10881000C000013745F00105C762E4B28D8284F3E0
:10882000118853E7FE20CAE7FE218EE7FE20A9E764
:10883000D3F8AC20910AA1F58011522996BF3E4889
:10884000FE21415CEFF31180502484F312883B4DEC
:10885000566A948A01EB810105EBC105013644F0AB
:108860000104EE62C1B2948281F311885FE7704720
:10887000586E810AA1F58011522953D82E4C615CA3
:10888000EFF31184502585F312882C4E476A858AB0
:1088900001EB810106EBC101013745F00105CF6213
:1088A000E4B2858284F311881CE7D86F810AA1F5B0
:1088B0008011522938D8204C615CEFF31184502587
:1088C00085F312881D4E476A858A01EB810106EB0C
:1088D000C101013745F00105CF62E4B2858284F31E
:1088E00011880BE7D3F89410880AA0F5801052285D
:1088F0001CD8114C205CEFF31184502585F31288AD
:108900000E4E4F6A8D8A00EB800006EBC0000137E7
:1089100045F00105C762E4B28D8284F31188F9E65F
:10892000FE206AE7FE21ABE7FE21C6E7FE20E2E774
:10893000E40A0010180B0010D4070608E8190020FC
:10894000034B00EB400003EBC003587C704700BFB3
:10895000180B001001207047704700BF224991F8A2
:108960002C30002B3ED0214A106818B10023036040
:1089700091F82C30012B35D9906918B10023036090
:1089800091F82C30022B2DD9106B18B10023036005
:1089900091F82C30032B25D9906C18B1002303607B
:1089A00091F82C30042B1DD9106E18B100230360F0
:1089B00091F82C30052B15D9906F18B10023036066
:1089C00091F82C30062B0DD9D2F8900018B1002365
:1089D000036091F82C30072B04D9D2F8A8300BB1E2
:1089E00000221A60704700BFE40A0010180B001044
:1089F000224991F82C30002B3ED0214A106818B142
:108A00000023036091F82C30012B35D9906918B1FF
:108A10000023036091F82C30022B2DD9106B18B174
:108A20000023036091F82C30032B25D9906C18B1EA
:108A30000023036091F82C30042B1DD9106E18B15F
:108A40000023036091F82C30052B15D9906F18B1D5
:108A50000023036091F82C30062B0DD9D2F890003A
:108A600018B10023036091F82C30072B04D9D2F8F9
:108A7000A8300BB100221A60704700BFE40A001052
:108A8000180B001070B5064E044600F50D755E22F9
:108A900020463146144454F04FFDAC42F7D170BD2E
:108AA00028080608034B33F8B42F02809B788370A4
:108AB000704700BFD407060870B4114B1149B3F8D2
:108AC0003822114BB1F90250B1F900601C780F49FE
:108AD00000FB02F2120B42F2107303FB02F393FB52
:108AE000F6F32B4481FB0310212C4FEAE373C3EB15
:108AF000A00002D1064B1A80588070BC704700BF9E
:108B0000E8190020FC6A002055AE00206766666602
:108B100058AE0020084B196869B110B49C68002059
:108B2000642202FB04F21860B2FBF1F298609A80B2
:108B30005DF8044B704770471400001007280AD8EE
:108B400000EB4000044B10B553F8304014B154F022
:108B5000D1FD206010BD7047BCC5002038B500EBCA
:108B60004000084DC4002B1993ED027AD3ED037A2F
:108B7000E7EE007AB0EE670A54F0BCFD2B5918609E
:108B800038BD00BF180B00102DE9F04F9C4B2DEDA8
:108B9000028B93F83A3283B0002B34D0994A9A4929
:108BA0001368097801331360002940F01F83DFF850
:108BB0009882964E98ED007AD6ED007A944D954CB9
:108BC0002B6887EE270A0020F0EEC00A9847D6ED02
:108BD000007A98ED017A84ED000A87EE270A2B6867
:108BE0000120F0EEC00A9847D6ED017A98ED027A9E
:108BF00084ED010A87EE270A2B680220F0EEC00AF6
:108C0000984784ED020A844A92F82530012B79D1E5
:108C1000824D297B002940F0D0811746804C92F884
:108C2000266097F8290092F82A2084F894007A4860
:108C300097F828C097F82B7084F8B0C0032A2B73DC
:108C40002170C4F8A01084F8B17084F8956084F89D
:108C500098201FFA86FC90F8270000F044834FF01C
:108C6000000E4FF6FF7384F8992084F89A00C4F838
:108C7000A810A4F896C0C4F8A4E0C4F8AC30002A48
:108C800000F06484674B1B6893F88330002B00F07E
:108C9000FD84002840F04083C7F1640300EE103AE1
:108CA000022AB8EEC00A11D1DFED5F7A60EE277AB2
:108CB00017EE900A53F0C0F841EC100B54F064FF2B
:108CC00051EC100B53F008FC00EE100A54F012FDAA
:108CD000A4F89C00002E40F03C84217801232B74E2
:108CE000474A524B92F83A021F78002840F07081B0
:108CF000FB0700F1A384BE0700F17185BE104FEAA7
:108D0000E70AF7E3444B1F7E3D4B93F83A32002FBE
:108D100040F0A080414DDFF834812F8598F8002085
:108D2000072A00F03F81002B40F04281002F00F025
:108D30002382022FA8BF0227DFF810810197DFF8F6
:108D400010B13B4E3B4FDFF8C890DFF8FCA09FED21
:108D50003A8A3A4D5B460024B3461E4641E02B4911
:108D60000AEB8403D1ED007A93ED007A87EE270AAF
:108D7000D9F800302046F0EEC00A8BED000AC5EDB0
:108D8000000A98473B6803EB4403B3F84E3007EE04
:108D9000903AF8EEE77AB1EE677AB4EEC07AF1EE87
:108DA00010FA08DCF4EEC07AF1EE10FA8CBFB0EEE7
:108DB000407AB0EE677A98F80030A6EC017A082B7A
:108DC00006D1BDEEC00A1E4910EE102A21F814206B
:108DD000019A013494420BF1040B05F1040500F3F0
:108DE0007681022CBBD1174B1B88180500F1F4814A
:108DF000064B9AED027AD3ED017A87EE270AB7E7A0
:108E0000E81900208C1900100819001088010020B2
:108E1000BCFC0020E4FB002000C80020140000106F
:108E20004415001004CA00200000A042F8150010EC
:108E3000B8FB0020E49E002000000000C4FB0020DE
:108E400058AE0020309A0020F899002055AE00203E
:108E5000A0FB0020022F00F06282032F40F0A683C7
:108E6000CA4A927EC2EB421102EB8102D20092B258
:108E7000002B00F05C82002A00F05982C449C54BE7
:108E80000C68B2FBF4F214B207EE904A1B78C24DA4
:108E9000F8EEE77AF7EE006A13F0010B2C8586EE08
:108EA000A77A0AD0BD4AD5ED0F6AD2ED007A77EEE7
:108EB000E67A67EE877AC5ED0B7A5F10FA070AD576
:108EC000B64AD5ED106AD2ED017A77EEE67A67EE12
:108ED000877AC5ED0C7A4FEAA30A1AF0010F0AD07F
:108EE000AE4AD5ED116AD2ED027A77EEE67A67EEF8
:108EF000877AC5ED0D7ADE10F3070AD5A74BD5EDBD
:108F0000126AD3ED037A77EEE67A67EE877AC5EDDB
:108F10000E7ADFF8C08298F80030072B00F02C841E
:108F2000002C47DDBBF1000F0AD095ED0F7AD5ED8F
:108F30000B7A9A4B77EE877AC5ED0F7AC3ED007AFC
:108F4000FF070AD595ED107AD5ED0C7A934B77EEA5
:108F5000877AC5ED107AC3ED017A1AF0010F0AD0B5
:108F600095ED117AD5ED0D7A8C4B77EE877AC5EDBC
:108F7000117AC3ED027AF4070AD5D5ED127A95ED90
:108F80000E7A864B77EE877AC5ED127AC3ED037AB7
:108F900098F80020824B072A93F83A324FF00407E2
:108FA0007FF4C1AE7F4A298D9180002B3FF4BEAE85
:108FB000DFF8208202230193C1E6794A754B7A4C8F
:108FC00092F83A221F782178002A00F06481287CE8
:108FD00017F0010204D0DFF8C481D8F800606E6198
:108FE0004FEA670B1BF0010F04D0DFF8B081D8F80F
:108FF0000460AE61BE1016F0010F05D0DFF89C8151
:10900000D8F808C0C5F81CC04FEAE70A1AF0010FEB
:1090100005D0DFF88881D8F80CC0C5F820C000283A
:1090200000F04081614A126841F28830824240F289
:10903000298157480068002800F025815C4806789F
:10904000002E00F0F0835B48B0F800C04BF668706B
:10905000ACF57A77874200F2E6836F6A002F40F022
:109060007784002914BF4FF4FA674FF47A771744D6
:109070006F620020BA4240F20681002900F0778436
:10908000D4F8A02094ED287ADFED4B5AACEB020225
:10909000002AB8BF524207EE902AB8EEC77AF8EE1F
:1090A000E77AB3EE046AC7EE876A66EEA57AF4EE55
:1090B000C67AF1EE10FA40F15A8400220020C4F87A
:1090C000A4204FF6FF72C4E92A020220DBE0072B3E
:1090D00008D13A4BD3ED007A324BFDEEE77A17EE2A
:1090E000902ADA80294BDC7E002C45D016213448AA
:1090F0000DF01EFA00283FD0324B1B8859063BD496
:10910000274A92F86832A34240F0C6822E4BD2ED35
:109110009B7AD3ED026A294BDFED2C5A93ED025A6C
:10912000D3ED004A9FED2A6A27EEC57A64EEA77A4E
:10913000A4EEA67AE5EE267AB4EEE57AF1EE10FA20
:1091400088BFB0EE657AB4EEC67AF1EE10FAF4EEAE
:10915000E57AB8BFB0EE467AF1EE10FA88BFF0EECD
:10916000657AF4EEC67AF1EE10FAB8BFF0EE467A00
:1091700083ED007AC3ED027A094A002382F83A327D
:1091800003B0BDEC028BBDE8F08F00BF00C800202B
:1091900040150010F815001014000010F899002078
:1091A000E819002058AE00204415001068B90020CE
:1091B0002E5C0020FCFB00200000C842A0FB002029
:1091C00020840020309A00208801002000C0F9444B
:1091D00000C0F9C455AE0020CE4ACF4B82ED028AC2
:1091E000CE4A93ED000A82ED028ACBE5CC4BCD4806
:1091F0001A88CD4BCD49CE4E0068DFF84883096808
:10920000D8ED037A4C8EA3FB02329309642292FBC1
:10921000F3F2142AA8BF1422C304D6F83C32BDEEE0
:10922000E77A06EB430003F101034CBF650825B262
:10923000934291F83020C6F83C3217EE104AA4BF92
:109240000023C6F83C32012AA0F840427FF4B1ACBA
:10925000B74A02EB4303B3F9403207EE103AB8EED7
:10926000C77A77EEC77AFDEEE77A17EE903A1BB22F
:10927000002BB8BF5B42AB4200F3C482AD4B00226F
:109280001A6096E40020DFF8C08298F80020292AAE
:1092900000F095821F7807F001024FEA670BBE10BD
:1092A0004FEAE70A00295DD1002A00F0778195EDA9
:1092B000057ADFF890821BF0010F88ED007A00F04C
:1092C000678195ED067A88ED017AF40700F16381F4
:1092D0001AF0010F03D095ED087A88ED037A944BCC
:1092E00093F83A321FE5914A126892F88320002AD7
:1092F00000F0AF81002284F899304FF6FF7384F8B4
:109300009A00C4F8A810A4F896C0C4F8A420C4F821
:10931000AC30002800F06E82A4F89C00DAE4804AA9
:10932000128802F57A7292B2002B7FF4A4AD824DBE
:109330002A8D013A12B2002A2A8540F33B827F4BE4
:10934000DFF804821B7803F0010B5F104FEAA30AD9
:10935000DE10E7E51F7807F001024FEA670BBE1049
:109360004FEAE70ADFF8E08198F80030272B00F099
:10937000AA80002A00F0B98095ED057A94F894301F
:10938000D4ED016AD4ED027A002B00F03E81D4EDD9
:10939000065A94ED073AD4ED033A94ED086A94ED39
:1093A000044AD4ED094A94ED055ADFF8988184ED1A
:1093B000067A65EEA77AC4ED075AE7EE267A84EDC1
:1093C000096AE3EE237AE6EE447AE4EEC57AC4ED68
:1093D000087AC8ED007A1BF0010F00F0CA8095ED05
:1093E000067A94F89430D4ED0A6AD4ED0B7A002B07
:1093F00000F01681D4ED0F5A94ED103AD4ED0C3AEA
:1094000094ED116A94ED0D4AD4ED124A94ED0E5A82
:1094100084ED0F7A65EEA77AC4ED105AE7EE267A4E
:1094200084ED126AE3EE237AE6EE447AE4EEC57A3E
:10943000C4ED117AC8ED017AF2072CD595ED077AC3
:1094400094F89430D4ED136AD4ED147A002B00F024
:10945000B080D4ED185A94ED193AD4ED153A94ED44
:109460001A6A94ED164AD4ED1B4A94ED175A84ED0E
:10947000187A65EEA77AC4ED195AE7EE267A84EDDC
:109480001B6AE3EE237AE6EE447AE4EEC57AC4ED95
:109490001A7AC8ED027A1AF0010F3FF420AF95ED69
:1094A000087A94F89430D4ED1C6AD4ED1D7A002B20
:1094B00040F0888037EE667AE7EE276AC4ED1C6AD2
:1094C000C8ED036A0BE794F8B030019205EB830313
:1094D00093ED050A54F00EF91949019AD4F8A03019
:1094E0000880CB80002A7FF447AF1BF0010F40F0CB
:1094F000A0800121F00740D595ED077ADFF8448080
:1095000000299DD11AF0010F88ED027A7FF4E3AEB5
:10951000E5E600BFB8FB002074FE0020C4FB00207D
:10952000FCFB00207CC80020D34D621004CA002040
:10953000E8190020AC0A001014000010F815001003
:1095400058AE0020F899002055AE0020002E3FF4C0
:10955000C5AB00232B7443F0E3FBDA4B93F83A12CC
:1095600001232370D84B00293FF4F4AE287C1F78E8
:109570002EE5F3073FF562AF01211AF0010F3FF42A
:10958000AEAE95ED087ADFF87483002989D1A4E6A0
:1095900016F00101F1D095ED077AB3E71BF0010F4A
:1095A000A8D095ED067ADFF854838CE6C74A9288F6
:1095B0005EE437EE667AE7EE276AC4ED136AC8ED1B
:1095C000026A68E7D4ED215AD4ED223A94ED1E3AAE
:1095D00094ED236A94ED1F4A94ED245AD4ED204A69
:1095E00084ED217A65EEA77AC4ED225AE7EE267A59
:1095F00084ED246AE3EE237AE4EE467AE4EEC57A5B
:10960000C4ED237AC8ED037A69E637EE667ADFF8AF
:10961000EC82E7EE276AC4ED016AC8ED006ADAE67B
:1096200037EE667AE7EE276AC4ED0A6AC8ED016A8A
:1096300002E795ED067ADFF8C482D2E695ED057A69
:109640004FEA670BBE104FEAE70A00293FF431AE3C
:1096500094E60021C4F8A8204FF6FF73022284F894
:109660009A00A4F896C0A4F89C00C4F8A41084F84A
:109670009920C4F8AC30002E3FF42FAB00287FF4C3
:1096800068AF01232B742178FFF72ABBA4F89C0054
:10969000002E3FF422ABF1E707EE904ADFED8C6A33
:1096A0009FED8C7A874BF8EEE77A83F8684267EE95
:1096B000A67A77EE876ABDEEE66A16EE103A203398
:1096C000402B40F2B980DFED846A844BBDEEE77A2F
:1096D000C3ED026A17EE103A2033402B00F2A0804F
:1096E0009FED7F7AF4EEC77AF1EE10FA40F33681FF
:1096F000DFED7C5A9FED7C6A01E0F0EE477AF4EEF4
:10970000C67AF1EE10FA37EEE57AF6DCDFED837A11
:10971000B4EEE77AF1EE10FA40F11D81DFED715AF7
:109720009FED726A01E0B0EE677AB4EEC67AF1EEB0
:1097300010FA77EE257AF6D49FED667AF4EEC77AC2
:10974000F1EE10FA40F3EC809FED657A77EE677AE0
:1097500067EEA75A9FED665A9FED666A9FED667A9F
:10976000A5EE856A25EEA75AA5EE867AE5EE077A7C
:10977000544BC3ED9B7ACEE4604B93ED000A53F05B
:10978000B9FF5F4B5F491B885F4AA1FB03139B092D
:1097900007EE903AF8EEE77A002CFDEEE77A1080BB
:1097A00017EE903A53803FF7BDAB022394800193AC
:1097B000FFF7C5BADFF85C810027FFF7AFBA504A60
:1097C000514EB2F800C01F78D4F8A820D4F8A030C9
:1097D000A6F800C0F0807280B380FFF789BA95EDDB
:1097E000067ADFF81881BE104FEAE70A00293FF435
:1097F0006AADF6E5C7F1640300EE103AB8EEC00AB0
:10980000FFF764BA8B8E9FED417A07EE903AF8EE3F
:10981000E77A3F4B67EE877AC3ED007AFFF7C9B965
:10982000DFED2D7AA4E7002600204FF6FF72C4F882
:10983000A460C4E92A0226E5F4EEC77AF1EE10FA34
:1098400040F38F80DFED275A9FED276A01E0F0EEAD
:10985000476AF4EEC66AF1EE10FA36EEE57AF6DC07
:10986000DFED2E6AB4EEE67AF1EE10FA7CD5DFED8C
:109870001D5A9FED1E6A01E0B0EE667AB4EEC67A1C
:10988000F1EE10FA77EE256AF6D49FED127AF4EE37
:10989000C76AF1EE10FA4FDD9FED117A77EE666A36
:1098A00066EEA65A9FED125A9FED126A9FED127A4C
:1098B000A5EE856A25EEA65AA5EE867AE5EE076A3C
:1098C00003E700BFE8190020F81500105CC800206D
:1098D00035FA8E3CDB0FC93F0000000088010020F4
:1098E000DB0F4940DB0FC940E4CB1641E4CB16C186
:1098F00092E741B99730083C15A82ABEF899002094
:10990000FCFB0020D34D621058AE00206F12833A4A
:10991000AC0A001055AE0020DB0FC9BFDB0F49C0F9
:109920001FED037AF4EEC77AF1EE10FA44BF1FED93
:10993000057A77EE677A0BE71FED097AF4EEC76ACE
:10994000F1EE10FA44BF1FED0B7A77EE666AA7E7D7
:109950000120FFF78FBBF0EE477AEDE6B0EE677AB5
:10996000D4E6B0EE667A7BE7F0EE476A8DE7B4F8AE
:10997000AE00B4F8AC70D4ED297AD4F8A82007EE84
:1099800010CA6045B8BF6046B8EEC77A6745A8BF41
:109990006746002902F1010C77EE277A14BF4FF0D9
:1099A000140E4FF0320EF445A4F8AE00A4F8AC70DB
:1099B000C4ED297AC4F8A8C028DB07EE107AF8EEC7
:1099C000C76A07EE100A0193531E00EE103AB8EE74
:1099D000C77A77EEE67AB8EEC00A77EEC77A002744
:1099E00087EE800A53F086FE4FF6FF72C4E92A72B2
:1099F0000022C4F8A000C4F8A42043F091F9012289
:109A00006F62314622700220019B3CE402203AE45E
:109A1000D0B1F8B50446224BA26A266A93F84C509E
:109A2000084621692062831A93FBF1F301FB0323AB
:109A30001C4AA362861B0023E6611460E38225B9F9
:109A4000E36898472846F8BD704717F053FBE36872
:109A50000546984717F04EFB07EE906A94ED0B7A97
:109A6000E16BDFED116AE269F8EE677AD4E90C3751
:109A700077EEC77A401B0D18A7EEA67AA16B3A4481
:109A80008142A3EB53130344A2EB571238BF0146A4
:109A90002363C4E90E1584ED0B7A6263F8BD00BF41
:109AA00014000010E00A0010CDCC4C3D10B55A4C0B
:109AB00094F83A37012B71D05FD3022B2ED094F853
:109AC000383094ED040A002B00F08980D4F8483235
:109AD00052489847D4F8483284ED0B0A504894ED28
:109AE000050A9847D4F8483284ED0C0A4D4894EDA5
:109AF000060A984784ED0D0A4B494C4A91F85030BC
:109B00001078B3FBF0F200FB123212F0FF0F1ABF15
:109B10000133DBB2012381F8503010BD04F13C0069
:109B200028F0E4FA04F5847028F0E0FAD4F804315F
:109B3000002BC4D1D4F8D031002BC0D1D4ED497A58
:109B400094ED4D0A94ED4E7AD4ED4F4AD4ED166A59
:109B500094ED1A5AD4ED1B5A94ED1C6A27EE800A34
:109B600027EE877A67EEA47AA5EE260AA6EEA57AF6
:109B7000E6EE867AF6EE006A20E004F13C0028F07A
:109B8000B5FAD4F80431002B99D1D4ED166A94EDCE
:109B90001A0A94ED1B7AD4ED1C7A0FE004F5847058
:109BA00028F0A4FAD4F8D031002B88D1D4ED496A3A
:109BB00094ED4D0A94ED4E7AD4ED4F7A94F8383006
:109BC00020EE260A27EE267A67EEA67A84ED040AAE
:109BD00084ED057AC4ED067A002B7FF477AFD4EDDF
:109BE0000B6A94ED0C7AD4ED0D7AD4ED055A94ED10
:109BF000066A94F8283036EE800A37EE257A77EE3A
:109C0000867A013384ED0B0A84ED0C7AC4ED0D7A6B
:109C100084F8283070E700BFD80B0010240E001025
:109C2000480E00106C0E001014000010040000100C
:109C3000F8B5A0F51A7423796179DB0746D594F855
:109C40004C32606C0BBB94F84F32012B3FD0002B91
:109C500041D194F84E3294F84D629E420CD9B4F83A
:109C60005622012707FA03F501332A43DDB2AE423B
:109C700092B2F7D8A4F856220123C94384F84F3290
:109C80001940BDE8F84041F019BA0268D36A5B0890
:109C9000536294F85D32012B07D094F8513223B10E
:109CA000B4F858320133A4F85832C94301F0010125
:109CB00041F004FA0023012284F84F2284F84D3247
:109CC00084F84E32A4F8563284F84C32F8BD94F839
:109CD0004D3284F84E32002384F84F3201F00101F6
:109CE000BDE8F84041F0EAB9836C006C1BB11A7A08
:109CF00001212EF0E5BE01212EF0B2BF10B543794F
:109D000003F0200113F0010F436C04461A7AC06B74
:109D100017D000290CBF422102212EF0D1FE626C27
:109D2000012384F85032A4F84C32517912688B40E8
:109D3000118C9BB221EA03011184118C0B43138413
:109D400010BD00290CBF222102212EF0B9FEE6E74A
:109D500070B5054600680E4646F06EFB02460446A6
:109D6000B4FBF6F1B1F5803F07D3012CFAD96408B2
:109D7000B4FBF6F1B1F5803FF7D2284689B2BDE8D1
:109D8000704016F0D9BA00BF8160406CE0E700BFB8
:109D90004379006CDB0748BF81F0010109B92FF05E
:109DA00007B82FF00BB800BF38B5A0F518742379A9
:109DB000990747D4D80700D438BD94F84C32002B0B
:109DC000FAD194F84D320133DBB2092B84F84D32CD
:109DD00070D00A2BF0D194F84F52B4F85632002DBF
:109DE00000F0A980990503F0010200F1AB80002A80
:109DF00000F0A8801A46E36A5208002B00F0AC80FD
:109E0000D0B2216B984794F84F520122002395421B
:109E100084F84D3284F84C22CED1617984F84F32E7
:109E20001140606C41F04AF9636C1A68597905FA7F
:109E300001F3118C9BB221EA03011184118C0B43B5
:109E4000138438BD94F851226ABBD4E90950854285
:109E500094F8501246D0451CA369A5621B5C20698A
:109E6000DBB285424FEA430328BFA26243F400738A
:109E70000A200122A4F8543284F8520284F85122B4
:109E800011B161790D073FD45A08A4F8542203F0A8
:109E900001012046FFF77CFF94F852222379013A12
:109EA00084F8522286E794F95222002A63D184F87A
:109EB00051227FE794F84F32002B7FF47DAF94F866
:109EC0004E32082B3FF678AFB4F85622012000FA44
:109ED00003F101330A43D9B2082992B2F7D9A4F8A1
:109EE000562238BD00297FF465AF627912077FF5ED
:109EF00061AFA36C206C5BB31A7A2EF0E1FD2046B3
:109F0000FFF7FCFE237955E7616CE06B0B684D7938
:109F1000198CAA4021EA02021A841A8C92B21A847D
:109F200000212EF09DFE002384F850322046FFF7DA
:109F3000DBFE23793EE743F001029B05A4F856229D
:109F40007FF559AFB4F85A320133A4F85A325CE7BE
:109F500019462EF085FED2E7E3696169D2B2CA5490
:109F6000E369E16894F84F520133B3FBF1F201FB6E
:109F70001233E36149E7B4F8543285E7044B93F8B0
:109F80008422D3F874020AB92EF012BF2EF016BF45
:109F9000E819002070B5B42200254FF4EB734FF49C
:109FA000A571044641808280C380057029468020C7
:109FB00016F062FB4FF4E1764FF48771962244234A
:109FC0002072657265826681A181E281238270BD03
:109FD000734B1B78002B45D02DE9F041714B724D2E
:109FE0009B7AD5F88842C5F88802013B041B032BF5
:109FF00000F29180DFE803F051023B3451F0F8FCAD
:10A000006A4BDFF8EC811F78B8F8026007F00107AF
:10A01000002800F08780664BDFED667A93ED000A3A
:10A0200020EE270A53F066FBC5F8AC62002F40F023
:10A03000918006FB04F007EE900ADFED5F6A5F4B4C
:10A04000B8EEE77AD5EDAA7AE7EE267AC3E900669C
:10A05000BDEEE77AC5EDAA7A85EDA97A83ED027A9D
:10A06000BDE8F081554AC2E9003393607047544B14
:10A070001B681B01F4D5FF2037F000F918B10378F5
:10A080000A2B6FD9002003464C4AC5F8B002C5F828
:10A09000B432C2E900339060E2E74A4A4A4BD279CF
:10A0A00033F81260B6B23046FEF706FD07EE906A4E
:10A0B000C5F89802B8EE670A444808F06BFABCEE9F
:10A0C000C00A10EE103A98B2FEF7F6FCD5F89812D6
:10A0D000D5EDA47ADFED386A384B3D4AC5F89402D5
:10A0E00001FB04F407EE104AB8EEC77A1860E7EEF9
:10A0F000267A107859602128BDEEE77AC5EDA47A5A
:10A1000017EE102A83ED027A85EDA37AA8D1314BA0
:10A110009980DA80A4E7294B0022C3E900229A60E3
:10A12000BDE8F081264B1B68DA067FF574AFC5F8F1
:10A13000AC62002F3FF47DAFB8F90020264B00FB46
:10A1400002F083FB0023C017C0EBA3100644C5F840
:10A15000AC626EE7214A00FB00F3A2FB032300EB95
:10A160001310E9E71E4A1F4B51881A68D0ED027A96
:10A17000DFED1D6A1D4C436802FB01F207EE102A59
:10A18000F8EEE77AB8EE477AA4FB0121E7EE267AEB
:10A1900003EBD103FDEEE77A17EE900A74E700BFF8
:10A1A000F4990020089A0020E819002096990020D0
:10A1B000B409001000007A442FE33E31249A0020B5
:10A1C0007CC80020A8B90020DCB90020841C002035
:10A1D00055AE002058AE0020D34D62101F85EB51C4
:10A1E000D89C002068B900207D219534CDCCCCCC02
:10A1F000046B0020F8B52DED028B5B4B5B7A012BD5
:10A2000014D0022B40F08280584B1B681B0100F1D8
:10A210008280574B1B78022B05D1564A564B5188EA
:10A22000128819805A80BDEC028BF8BD534A544BFA
:10A230009278544C33F81230534D544E9FB207EE7F
:10A24000907AB8EE678A04F52F70B0EE480A08F0ED
:10A25000A1F9B4F838222B7895F801C094F8D012FF
:10A26000A878BCEEC00A02FB03F310EE102A92B2EB
:10A2700003FB02F203FB07F3A6FB0373A6FB0272C8
:10A2800044F6FB77CCEB0C3C07EBD20207EBD30395
:10A29000B2FBFCF2B3FBFCF3B2FBF0F2B3FBF0F366
:10A2A00092B29BB2A4F8B822A4F8BA3259B304F51A
:10A2B0003270B0EE480A08F06DF9B4F8381295F82B
:10A2C00000E0687895F802C0B4F8B822B4F8BA3261
:10A2D000BCEEC00A01FB0EF510EE101A89B201FBAC
:10A2E00005F1A6FB011607EBD607C0EB0030B7FB64
:10A2F000F0F7B7FBFCF7BFB2A4F8C4721D490A809F
:10A300004B808F8085E7B4F8C472F7E7194B0022C1
:10A310001A609A807DE7FF2036F0B0FFF8B103782D
:10A320000A2B16D99FED1A0A0023164C04F5367035
:10A33000A4F8D63208F02EF9BCEEC00A10EE103A9E
:10A340009BB2A4F8D4320B4AB4F8D61251801380D1
:10A350005FE7438807EE903AB8EE670AE5E7094CF5
:10A36000B4F8D432EFE700BF089A00207CC8002080
:10A3700055AE0020EC99002058AE0020A8B900206E
:10A38000DCB90020E8190020F86A0020CDCCCCCC44
:10A3900000000000054B93F8252022B9187E0030FC
:10A3A00018BF012070470120704700BF00C800207F
:10A3B0002DE9F041C44AC54B15681A7895F800C0DC
:10A3C0005B78C34F9FEDC37AC348C44C06EE903A06
:10A3D0001FFA8CF3594209B207EE902A6A780029D5
:10A3E00014BF6646012601FB01FE06FB06F602FBD2
:10A3F0000EFE9EFBF6FEC2F16406B64401FB0EF1B2
:10A40000F8EEE77A03EB830EF8EEE66A87FB017855
:10A41000CF174FEA4E01C7EBA80777EE677A01F531
:10A420007A7137EE667AC3F10A080F44CCF1640EF4
:10A43000B8F1000FA4F8E0725FFA8EFEC0ED007A6A
:10A4400080ED017A40F3C281774608FB08F017FBE4
:10A4500007F702FB00F090FBF7F09D4F304408FB3C
:10A4600000F087FB0078C717C7EBA807C3F11400FB
:10A470000F440028A4F8E27240F3A281774600FB63
:10A4800000F817FB07F702FB08F898FBF7F8904F66
:10A49000B04400FB08F087FB0078C717C7EBA8079C
:10A4A000C3F11E000F440028A4F8E47240F3828137
:10A4B000774600FB00F817FB07F702FB08F898FB4C
:10A4C000F7F8834FB04400FB08F087FB0078C7170C
:10A4D000C7EBA807C3F128000F440028A4F8E672D0
:10A4E00040F36281774600FB00F817FB07F702FB99
:10A4F00008F898FBF7F8764FB04400FB08F087FBAC
:10A500000078C717C7EBA807C3F132000F44002833
:10A51000A4F8E87240F34281774600FB00F817FB8D
:10A5200007F702FB08F898FBF7F8694FB04400FB07
:10A5300008F087FB0078C717C7EBA807C3F13C00FA
:10A540000F440028A4F8EA7240F32281774600FB0A
:10A5500000F817FB07F702FB08F898FBF7F85C4FC9
:10A56000B04400FB08F087FB0078C717C7EBA807CB
:10A57000C3F146000F440028A4F8EC7240F30281B6
:10A58000774600FB00F817FB07F702FB08F898FB7B
:10A59000F7F84F4FB04400FB08F087FB0078C7176F
:10A5A000C7EBA807C3F150000F440028A4F8EE72CF
:10A5B00040F3E280774600FB00F817FB07F702FB49
:10A5C00008F898FBF7F8424FB04400FB08F087FB0F
:10A5D0000078C717C7EBA807C3F15A000F4400283B
:10A5E000A4F8F07240F3C280774600FB00F817FB36
:10A5F00007F702FB08F898FBF7F8354FB04400FB6B
:10A6000008F087FB0078C717C7EBA807C3F1640001
:10A610000F440028A4F8F27240F3A180F04600FB3A
:10A6200000F718FB08F802FB07F797FBF8F7DFF8CD
:10A63000A080374400FB07F088FB0087C017C0EB01
:10A64000A700C3F16E030844002BA4F8F40203DC56
:10A650000CBF4FF0010EE64603FB03F002FB00F2D5
:10A660001EFB0EFE1A4892FBFEF2324403FB02F37D
:10A6700080FB0302DB17C3EBA2031944A4F8F61214
:10A68000AB78013B032B00F2B880DFE803F019152B
:10A690001102134A134B1360134A1449527E0020CF
:10A6A0000870042A2CD8DFE802F058AE56AC290016
:10A6B0000B4A0F4B1360EFE7094A0E4B1360EBE7B1
:10A6C000074A0D4B1360E7E7E49E00206CFE002074
:10A6D000676666660000FA4388010020E8190020DA
:10A6E000BCFC00205582000800C80020F8150010AE
:10A6F0002983000889810008218100080B220A7043
:10A70000F7EE000AB0EE600A022098473F4B5A7DF0
:10A71000012A6AD0022A5FD1FDEEC07A3C4917EEC9
:10A72000903A17EE902A002BB8BFDA1C9210C82A74
:10A73000ACBF9B18C83340F29E729342A8BF134629
:10A74000B3F5FA7FB8BF4FF4FA73012281F85420B1
:10A750008B65BDE8F0810F22D1E70322CFE718BF58
:10A76000E0467FF45CAF4FF0010858E718BF67463A
:10A770007FF43BAF012738E718BF67467FF41BAF74
:10A78000012718E718BF67467FF4FBAE0127F8E6FC
:10A7900018BF67467FF4DBAE0127D8E618BF6746CF
:10A7A0007FF4BBAE0127B8E618BF67467FF49BAEC7
:10A7B000012798E618BF67467FF47BAE012778E64D
:10A7C00018BF67467FF45BAE012758E618BF67469F
:10A7D0007FF43BAE012738E60D4940F29E7300221C
:10A7E00081F854208B65BDE8F0810949B3F9163032
:10A7F00081F854208B65BDE8F081064A064B136052
:10A800004AE708227BE7072279E700BF54C500200A
:10A8100014000010BCFC0020558000082DE9F04F0A
:10A82000AE4E3468A50583B000F1D081AC4AAD4B83
:10A8300092F80090AC4F00221A70B9F1000F00F0AE
:10A84000B2810621A9480BF073FE002800F01181A7
:10A8500044F01004A64AA74B1268B3F906500192BF
:10A8600012F480533460009340F0DF80A24B9B8A47
:10A87000AB4200F3F18044F08004A04B34601D68CB
:10A8800015F0020A10D09E4B1B78002B00F0E780D9
:10A890009C4A9D4B92ED087AD3ED007AB4EEE77AAC
:10A8A000F1EE10FA40F3DB8024F48074974B9B8820
:10A8B000642B8CBF44F4006424F40064E80714D5CE
:10A8C000934B93F83A27012A07D0022A40F0B4812B
:10A8D000D3F80421002A40F0D480D3F8D031B3FA61
:10A8E00083F35B09002B00F0CC80BAF1000F04D099
:10A8F000884B1B88002B40F0C480690700F1BC80A6
:10A900002A0700F1CF8124F48054DFF83C823460C0
:10A9100008F17805434602E006339D4216D01A78C6
:10A920001C2AF9D19978DA78914202D35A79002A0F
:10A93000F2D01C216D480BF0FBFD20B1764B1B784B
:10A940005B0740F19A8144F480643460734B93F860
:10A9500007B0BBF1020F03D0072050F0BBFDA8B138
:10A960006F4B93F8213023B96E4B1B78980740F159
:10A97000548124F4802407215C4834600BF0D8FD16
:10A98000002800F0468144F400243460664890F8C2
:10A9900006E0BEF1000F16D0644B1A780AB91B7995
:10A9A0008BB1634B1B6893F82CC0BCF1000F00F017
:10A9B0007F81604B0022997B01320433002900F033
:10A9C00077816245F7D124F48014037C012B00F0D9
:10A9D000DF80022B00F0D48024F480041F21434840
:10A9E00034600BF0A5FD00284ED1BAF1000F51D113
:10A9F000514B1B7824F400043460002B66D0B9F16D
:10AA0000000F00F0A380002C66D1002387F8FE32EF
:10AA100016F070FBD7F80033C01A0028C0F2C080CF
:10AA200003B0BDE8F04F0EF057B815212F480BF0DA
:10AA30007FFD00287FF41AAF404B1A7B002A7FF479
:10AA400015AF2D49DA884B8A991AA942BFF613AF80
:10AA50001344AB427FF70FAF24F080040DE71B21B6
:10AA600022480BF065FD00287FF41EAF44F480748B
:10AA70001CE724F01004EDE6314B1B88002B3FF45B
:10AA80003FAF44F4805440E744F400343460BAF1FA
:10AA9000000FADD02B4BB3F90A30002BA8D12A4BB5
:10AAA00003E006339D4200F01F811A78012AF8D195
:10AAB0009978DA78914202D35A79002AF1D01E4B64
:10AAC0001B7844F400043460002B98D144F0807467
:10AAD0003460B9F1000F39D0022397E7DC9E0020E3
:10AAE0008019002050A10020E819002020840020B7
:10AAF0007CC800201CCA002000C80020249100202F
:10AB000002FE0020CC72002004FE00201400001081
:10AB1000D80B00104C700020969900205070002037
:10AB200090A80020E89900206CAE0020C0FC002016
:10AB30002C140010280A0010C1C70020F4FD0020CA
:10AB40004A70002054A10020F48700200021AE4864
:10AB50000BF0EEFC8046002800F0BD8097F8FC5218
:10AB6000002D40F08E80009B002B73D1002C00F054
:10AB70009380B8F1000F7CD044F000743460ABE7F0
:10AB8000BEF1000F3FF428AF8378082B3FF424AFC9
:10AB90009E4B1B78002B3FF41FAF44F480041DE74D
:10ABA00003B0BDE8F08F9A4A97F8F8321578002B79
:10ABB0004BD1002D4BD0494693480BF0B9FC0028EF
:10ABC00040F0A38024F00804346040E0914B924AA6
:10ABD000987911684FF47A7303FB00F38B423FF6C8
:10ABE00025AE8E4B1B7883B18D4B1B6893F82E10CE
:10ABF00000293FF41BAE1B6B002B3FF417AE12680D
:10AC000003F6B8339342BFF411AE24F400743460F9
:10AC10000CE624F400243460B8E6824B1B789907D4
:10AC20003FF5A7AE1B2178480BF082FC00287FF48B
:10AC3000A0AE44F480249EE6D3F80431B3FA83F343
:10AC40005B09002B7FF451AE1BE7002D72D187F812
:10AC5000F852F6E515216C480BF06AFC10B9724BFE
:10AC60001B7B43B3C4B1002D83D0B8F1000F7FF438
:10AC700033AF24F000743460C5E624F4806434609B
:10AC800064E624F0007323F48053009AB3FA83F54A
:10AC90006D09002ADED1B4B94446B8F1000F7FF443
:10ACA000B4AEE6E7614B1B68002B7FF4EAAE2AE600
:10ACB00044F4801489E624F0007323F08003002C10
:10ACC000EAD0002DD1D1002B7FF453AFB8F1000FA3
:10ACD0007FF402AFCDE7014624F060044A483460B7
:10ACE0000BF026FC804639E7514B02E006339D42CB
:10ACF0000FD01A78022AF9D19978DA789142FFF4C4
:10AD0000DEAE5A79002AF1D0D9E644F00804346066
:10AD10009DE7474B02E006339D4212D01A78072A7E
:10AD2000F9D19978DA789142FFF4C9AE5A79002ABC
:10AD3000F1D0C4E6494634480BF0FAFB002886D12E
:10AD400040E73B4B02E006339D421BD01A780A2AAB
:10AD5000F9D19978DA789142FFF4B1AE5A79002AA4
:10AD6000F1D0ACE698F8022098F803309A42FFF44C
:10AD7000A6AE98F80530002B7FF4A1AE08F10608C6
:10AD8000454504D098F800300D2BF7D1EAE725208F
:10AD900050F0A0FB00287FF492AE272050F09AFBE1
:10ADA00030B1244B1B6893F86630002B7FF487AEDC
:10ADB000019B5A0304D4BBF1020F7FF419AE7EE667
:10ADC0001D4B5B695B043FF57AAE032052F0A0FB9C
:10ADD00000287FF474AE1A2052F09AFB00287FF40A
:10ADE0006EAE1B2052F094FB00287FF468AE2A2040
:10ADF00052F08EFB00287FF462AE2D2052F088FBCB
:10AE000000287FF45CAED6E720840020C4C7002071
:10AE10002E5C002094C4002068B90020C2C7002026
:10AE20002C14001096990020F4FD0020408600208C
:10AE3000F487002004CA0020DC9F0020314A324BF6
:10AE400010B5B2F906401B68B4F5FA6FA8BF4FF40D
:10AE5000FA64B4F57A7FB8BF4FF47A74DB0410D487
:10AE60002A4B9B8A6420E41A00FB04F0C3F5FA63C2
:10AE700090FBF3F06428A8BF642020EAE07040B2A1
:10AE800010BD152122480BF053FBB8B9214B187B9C
:10AE90000028E5D11D49DA884B8A9918A14225DBA3
:10AEA0009B1AA342ECDD1C1B6FF06300A3F57A73C1
:10AEB00000FB04F090FBF3F040B210BD134A154BB9
:10AEC000908A1A7B241A6423C0F5FA6003FB04F409
:10AED00094FBF0F49C42A8BF1C4624EAE474E0B260
:10AEE00012B1404240B210BD60B210BDE01A841AE7
:10AEF000C3F5FA6364209B1A00FB04F090FBF3F0A7
:10AF000040B210BD1CCA00207CC8002000C8002030
:10AF100020840020F4FD00202DE9F04F2DED048B5E
:10AF2000AF4C85B094F83B570190002D40F07081F4
:10AF300004F20C43DFF8D4B2AA4F9FEDAB8A029320
:10AF400004F11C0904F52F7804F54B7604F5EE7A2C
:10AF500094F83830002B00F0398199ED040ADBF8C1
:10AF60000020002A00F08680A04B1878002800F00E
:10AF7000818005EB450302EBC30311780022002911
:10AF800073D093ED0B7AD3ED077A93ED0A6AD3ED84
:10AF9000063AD3ED0C6A93ED084AD3ED0D4A93EDD2
:10AFA000095AD3ED055A83ED0B6A67EE277A01291A
:10AFB000E6EE237A83ED0A0AE6EEC47AC3ED0D6A63
:10AFC000E4EEC57AE0EE257AC3ED0C7A00F0FB8062
:10AFD00093ED140A93ED107A93ED136AD3ED0F3AC3
:10AFE000D3ED156A93ED114AD3ED164A93ED125A3B
:10AFF000D3ED0E5AC3ED137A20EE070A0229A6EE0E
:10B00000230A83ED146AA6EEC40AC3ED166AA4EE01
:10B01000C50AA5EEA70AF0EE407A83ED150A00F006
:10B02000D28093ED1D7A93ED190A93ED1C6AD3ED4E
:10B03000183AD3ED1E6A93ED1A4A93ED1F5AD3EDD9
:10B040001B4AD3ED175A83ED1D6A20EE070AC3EDA4
:10B050001C7AA3EE860AC3ED1F6AA4EE660AA4EE6C
:10B06000C50AA5EEA70A83ED1E0A0132824203F14A
:10B070006C0384D1D4F8B83208EB05009847D4F8B3
:10B08000283370199847D4F8D8310AEB050098474F
:10B090003B68980000F1438224356C2DA9EC010A2D
:10B0A0007FF456AF0022990084F8282000F19F8198
:10B0B00094F83D37E3B394F83A37012B00F0E68279
:10B0C000C0F01883022B33D1494B1B78152B01F0AC
:10B0D0006381322B40F0AA8794ED168A94ED1A0A08
:10B0E00028EE000A52F006FB94ED1B0A28EE000A37
:10B0F000074652F0FFFA94ED498A94ED4D0A28EE86
:10B10000000A054652F0F6FA94ED4E0A28EE000ABF
:10B11000064652F0EFFA00231A4666F30F0267F371
:10B120000F03344965F31F4360F31F42C1E9003246
:10B13000314B324A9B7C117823B194F83C070028AC
:10B1400000F068822E4B93F85420002A40F02082B1
:10B15000A1BB2C4A94ED077A93ED193AD4ED017A0C
:10B16000D4ED083AD3ED1A4A94ED094A93ED1B5AEF
:10B17000D2ED005A92ED016A83ED197AFBEEEF7A77
:10B1800037EE037AD2ED026A1F48C3ED1A3A73EE26
:10B19000A44A34EE055AE7EE875A0168B0EE467AC3
:10B1A000A7EEA47A01310160E5EE276AC2ED005AEC
:10B1B00082ED017AC2ED026A83ED1B4A05B0BDEC57
:10B1C000048BBDE8F08FB0EE670A4EE794F82830A4
:10B1D000002B40F09B81B0EE480A89ED048ABEE660
:10B1E000D80B00107CC8002000000000C00900102F
:10B1F00055AE002058AE002054C50020381A00106B
:10B2000014000010F01A0010EC1A00102C19001095
:10B21000DFF87483DFF874B398F80090D54FDFED52
:10B22000D68AA24604F52F760025B9F1140F94F8BA
:10B230003E3700F05881B9F1060F40F08A819AED4F
:10B24000040A029352F056FACC4B23F81500029BE5
:10B2500094F83820002A00F00D819D429AED0B8A67
:10B26000DBF8002000F01381002A00F08A80C44B34
:10B270001878002800F085804FF4587303FB0523ED
:10B2800011780022002972D093ED0B7AD3ED077A62
:10B2900093ED0A6AD3ED063AD3ED0C6A93ED084AB2
:10B2A000D3ED0D4A93ED095AD3ED055A83ED0B6AA0
:10B2B00067EE277A0129E6EE237A83ED0A8AE6EE25
:10B2C000C47AC3ED0D6AE4EEC57AE8EE257AC3EDE3
:10B2D0000C7A00F09F8093ED148A93ED107A93ED31
:10B2E000136AD3ED0F3AD3ED156A93ED114AD3EDFE
:10B2F000164A93ED125AD3ED0E5AC3ED137A28EE87
:10B30000078A0229A6EE238A83ED146AA6EEC48A70
:10B31000C3ED166AA4EEC58AA5EEA78AF0EE487AB8
:10B3200083ED158A76D093ED1D7A93ED198A93ED0E
:10B330001C6AD3ED183AD3ED1E6A93ED1A4A93EDC9
:10B340001F5AD3ED1B4AD3ED175A83ED1D6A28EE21
:10B35000078AC3ED1C7AA3EE868AC3ED1F6AA4EEAA
:10B36000668AA4EEC58AA5EEA78A83ED1E8A0132FD
:10B37000824203F16C0385D194F83E379D4200F080
:10B38000A680B0EE480AD4F8B83230469847D4F8D0
:10B39000283306F170009847D4F8D831A6F1E000C0
:10B3A000984794F83E37AB42B0EE408A3B6834D0C1
:10B3B0009B0048D498F80090B9F1030F06D1B0EE85
:10B3C000480A52F097F96D4B23F815000135032D0B
:10B3D0008AED078A06F124060AF1040A7FF425AFF4
:10B3E0003B680022990084F828207FF561AE94F82C
:10B3F000783494F879140133DBB2994284F87834C4
:10B4000000F0928194F81036002B3FF451AEDFF833
:10B410007881BCE1B0EE678AA9E798F80090B9F1AD
:10B420003D0F03F0005300F0EB80002BC4D0B9F1C6
:10B430000F0F00F0D885B9F1110F41F0888052F05C
:10B4400059F94E4B98800AF59063D3ED007AD4F801
:10B45000982377EE887AB0EE480AC3ED007A06F1B9
:10B46000E4009047D4F89C3306F5A8709847B0EEF6
:10B47000408A9FE794F82820002A3ED1B0EE688ADF
:10B480009D42CAED0B8ADBF800207FF4EDAE3B68ED
:10B49000B9F13D0F03F0005300F0A0807BB1B9F18A
:10B4A0000F0F00F09385B9F1110F40F0EA85B0EE6F
:10B4B000480A029252F01EF9304B029AD880002AB4
:10B4C0003FF45FAF2E4B187800287FF4D5AEB9F16A
:10B4D0003D0F7FF456AFB0EE480A52F00BF900B2C0
:10B4E000264B98804DE7D4F8D421244902EB45023D
:10B4F000B2F8442021F81520AAE607EE902A9AED2A
:10B500000B7AF8EEE77A87EE278AB9E707EE903AEA
:10B5100099ED047AF8EEE77A87EE270A5DE609F2FC
:10B52000644393ED007A1749D4F8982377EE007AB4
:10B530004819C3ED007A9047029AD4F89C33501909
:10B54000984724356C2DA9EC010A7FF401AD3B68C6
:10B5500047E79D427FF47CAEB9F13D0F7FF478AEB2
:10B560009AED040A029352F0C5F8044B1880029B2E
:10B570006EE600BF7CC800200000000058AE00202E
:10B58000C0090010780F001055AE00202C190010D3
:10B59000002940F0A780D4ED097A8748996D027898
:10B5A000002A00F0268507EE101ADFED846AB8EE57
:10B5B000C77AF0EEE77A37EE667AB4EEE77AF1EE24
:10B5C00010FA40F3F28601991A6E8A1A44F6206145
:10B5D0008A427FF7BEAD00220270BAE5B0EE480A9B
:10B5E000CDE9022352F086F8754B00B25880DDE9B0
:10B5F0000223002B00F00D85002A7FF463AF6AE779
:10B60000029352F077F86E4BD880029B002B7FF4A8
:10B610001AAFDBE6D4ED077A94ED037AF0EEE77A21
:10B6200000294DD19FED676AD4ED086A94F844175C
:10B6300027EE067AF0EEE66AB4EEE77AD4ED097A00
:10B64000F1EE10FAB4EEE67AF0EEE76A4CBF0123B1
:10B650000023F1EE10FAB4EEE67A48BF43F002039D
:10B66000F1EE10FA48BF43F004030B4200F0D68419
:10B670005549019C504B91F85400CC6500240121A0
:10B680001C70117000283FF499AD2CE04F4B1B78D3
:10B69000152B00F07B86322B7FF44AAD94ED498A5E
:10B6A00094ED4D0A464D28EE000A52F023F894ED31
:10B6B0004E0AA88028EE000A52F01CF8E88037E510
:10B6C000DFED436A27EE267AB4EEE77AF1EE10FA60
:10B6D00000F302853C4B019ADA6593F85430002B55
:10B6E0003FF46CAD344B00221A7005B0BDEC048BF6
:10B6F000BDE8F08F354B1B78152B00F04186322BBF
:10B700007FF416AD94ED168A94ED1A0A2C4D28EEAE
:10B71000000A51F0EFFF94ED1B0A288028EE000A82
:10B7200051F0E8FF688003E5DFF8A080294D98F824
:10B730000030234F84F878240F2B95ED008AB7F959
:10B74000040094F88C6400F0348695ED017AD5ED10
:10B75000027A27EE087A67EE887A2B1F03EB860CB5
:10B760008CED067ACCED267AD5ED037A27EE888A21
:10B7700000228CED468A6A60AA60EA60731C03F0BE
:10B780001F030C2284F88C34B88084F8102698F8B3
:10B790000070102F00F0308694F811360026062B2A
:10B7A00000F20084DFE813F01F05BD04CE0418008A
