:020000040800F2
:10000000F0FF001031080608BB69040851EC000835
:10001000D1080608D1080608D1080608000000002B
:10002000000000000000000000000000B9690408A2
:10003000B769040800000000B5690408B5EC0008C1
:10004000D1080608D1080608D1080608D108060814
:10005000D1080608D1080608A91B0208D51C020809
:10006000991C02085D1C0208211C020821FB0408DF
:1000700011FB040801FB0408F1FA0408DDFA040886
:10008000C9FA0408B5FA0408D1080608D108060818
:10009000D1080608D1080608D1080608E51B0208A1
:1000A00009A40008A5A9000839A3000875AA00083A
:1000B000E5A8000825A8000859A7000817060508A4
:1000C0001D0605080D06050813060508D1080608D3
:1000D000D108060839F000087DEF0008C1EE0008DD
:1000E0006D1B0208D1080608F1AF040869A20008D8
:1000F000D9A4000899A10008B9A50008A1FA04082C
:10010000D1080608D108060889A60008D108060803
:1001100005EE000849ED0008C5FC02084DFB020889
:100120008DFA040879FA040865FA040851FA0408FB
:100130003DFA0408D1080608D1080608D1080608C7
:10014000D1080608D1080608D1080608CD9D040884
:1001500029FA040815FA040801FA0408D108060867
:100160000306050809060508D1080608D10806088F
:10017000D1080608D1080608D1080608D1080608E3
:08018000D1080608D1080608A9
:08018800D8030600010000008D
:100190001A0201003C000000841B0020241E0020E5
:1001A00000000000CD900308031201003D00000094
:1001B000741C0020601E00200000000028090008B8
:1001C0003810010001000000741A0020A01E002059
:1001D0000000000066090008F62101000C00000084
:1001E000082B0020F02C0020000000006809000807
:1001F0001C0202001C000000B42A0020402D002038
:10020000000000000D8D0308101001000200000026
:10021000AC2A00205C2D00200000000074090008BA
:100220002820010018000000942A0020602D0020E2
:1002300000000000F12D0108203201000A0000003A
:10024000882A0020782D002000000000710E05088B
:100250001900010005000000802A0020842D0020E4
:100260000000000076090008012001000C000000D9
:10027000F42100208C2D0020000000007C090008E3
:100280000EF003009E010000A01F0020982D00200A
:1002900000000000910E050813000100040000009A
:1002A00018270020382F00200000000088090008CF
:1002B0000101010004000000EC1E00203C2F002082
:1002C0000000000000000000000101000400000028
:1002D000E41E0020402F0020000000008C090008D0
:1002E0000201010003000000E01E0020442F002056
:1002F00000000000E9650208020001000C00000097
:10030000FC2F0020903000200000000000000000C2
:100310002902010040000000582F00209C300020DE
:1003200000000000900900082802040004000000FA
:10033000603100209431002000000000D1880308C3
:1003400027020400040000005C31002098310020E6
:1003500000000000C58803080A0201001400000024
:10036000E0390020D43C002000000000157A02088B
:10037000F821010006000000C8340020E83C0020FD
:1003800000000000D0090008030001000100000087
:10039000F0340020F03C00200000000000000000CD
:1003A00025201E002C010000FC390020F43C002018
:1003B0000000000000000000161001000600000010
:1003C000CC420020844A002000000000D809000828
:1003D0002F10010022000000604A00208C4A0020FB
:1003E00000000000DE0900081E00010009000000F6
:1003F000B8490020B04A002000000000000A0008B0
:100400000510010006000000A8420020BC4A0020A0
:10041000000000000A0A0008F581010068000000E1
:100420000C420020C44A002000000000F7F103083D
:1004300023200100100000000C4A00202C4B00205B
:10044000000000007D030108FD07010076000000A8
:10045000404900203C4B002000000000F1DE030872
:10046000261001000E000000C44B0020B44B0020F9
:10047000000000005D1503081400010004000000E6
:100480000C470020D44B002000000000100A000898
:100490000B3001001A000000E43F0020084C00204F
:1004A00000000000140A00081F30010024000000B2
:1004B00000400020244C002000000000300A00080A
:1004C0000702010002000000305200209456002074
:1004D00000000000540A00081D020200060000008F
:1004E000105200209856002000000000000000007C
:1004F000060203000C00000018520020205E0020BD
:1005000000000000D98D030827000100040000004E
:10051000584D00202C5E002000000000560A000804
:10052000220201001C01000064930020A09500201D
:1005300000000000998F03080C2006003402000020
:100540007C900020BC96002000000000C9650208D5
:10055000010201000B00000040900020F0980020F4
:10056000000000005D8803081B020100100000006D
:1005700014900020FC98002000000000D58803089B
:100580001B1001000C000000E47E00200C990020EC
:1005900000000000CDF2030821020100F00000007D
:1005A000647D0020189900200000000055F1030828
:1005B0002312010010000000288D0020089A00205E
:1005C000000000005C0A0008371001002E00000047
:1005D000848F0020189A0020000000006C0A000898
:1005E000050201000400000050AA002064AA0020B7
:1005F000000000009A0A0008030101000A00000040
:10060000FCA7002068AA002000000000F55D040897
:100610000E0201000200000058A8002074AA002069
:10062000000000009E0A0008130201000400000000
:100630006C9A002078AA002000000000A00A0008A0
:100640001002010001000000A4BE0020A0BE002096
:1006500000000000A40A00081A0001000E000000BB
:1006600070C60020A8C7002000000000A60A0008ED
:100670001500100070000000E4C20020B8C7002080
:1006800000000000000000002A00080060000000D8
:1006900048C7002028C8002000000000490E0508B7
:1006A0002C0004001000000098C8002088C800201A
:1006B00000000000250B05082B001200240000009C
:1006C000CCC80020A8C8002000000000F50A0508DA
:1006D000292014007800000094C00020F0C80020F9
:1006E00000000000000000000D1001006400000088
:1006F000F8E800204CF200200000000079B2010868
:10070000040008008000000038E80020B0F200205B
:1007100000000000000000000902010001000000CC
:10072000E0E7002030F3002000000000B40A0008D9
:10073000FD0101002400000078E7002034F30020D0
:1007400000000000DB8100081820010032000000DA
:1007500040E7002058F300200000000051900308FB
:10076000FB0101000100000000E700208CF30020E5
:1007700000000000018F0308FC01010009000000D7
:10078000CCE5002090F3002000000000118F03084A
:10079000F701010006000000C4E500209CF30020E2
:1007A00000000000B60A0008F90101000400000082
:1007B000C0E50020A4F3002000000000B9E6010815
:1007C000160215003F00000070CD0020A8F30020A5
:1007D00000000000E18F0308340001001000000059
:1007E000ECE40020E8F30020000000000D160508EE
:1007F0001102010008000000C4E40020F8F300200A
:1008000000000000BC0A00081212010004000000F1
:10081000BCE4002000F4002000000000C40A00082E
:100820000A8001002800000094E4002004F4002065
:100830000000000065020108061001001C00000015
:1008400054CD00202CF40020000000002D8F030860
:100850001220010011000000D4E3002048F4002021
:1008600000000000C80A0008000201000B000000A0
:1008700010E100205CF400200000000000000000F7
:10088000FF110100060000004CE0002068F4002089
:10089000000000001D880308081203000F0000007C
:1008A000C8E0002070F40020000000006D880308FC
:1008B000FA0101000300000018DA002080F4002093
:1008C000000000005188030802020100030000003C
:1008D0004CCD002084F40020000000000000000047
:1008E0000C020100040000002CCD002088F4002040
:1008F00000000000398803081F02080010000000F3
:10090000A0D900208CF4002000000000C987030853
:10091000FE01010014000000A4D800209CF4002077
:080920000000000099870308A4
:1009280000000000000000000000000000000000BF
:1009380000000000000000000000000000000000AF
:10094800000000000000000000000000000000009F
:10095800000000000000000000000000010000008E
:100968000000000001000000020200000005000075
:1009780028010000E8036400040A000114001E00B6
:1009880048044430B30000000000000000000000EC
:10099800000000000000000000000000000000004F
:1009A800000000000000000000000000000000003F
:1009B800000000000000000000000000000000002F
:1009C80000000000000000000101F4011400000014
:1009D800C409000019000000000000000000000029
:1009E80000000000000000000000000000000000FF
:1009F80000000000000000000005010000000000E9
:100A0800000020000201000003000023AE014A019B
:100A18005E012C0164010100000001000A019A0135
:100A2800001E0A0000020000000000000001000093
:100A380000050000010203000000000000000000A3
:100A4800000000000000000000800700013C2003B7
:100A5800000000000000000000000000000000008E
:100A68000000000020003200C800D00796001400E3
:100A7800320028004C0440060005500014000F0006
:100A8800080064000100010005000A000000F401EC
:100A980096000000000000000000012C00007E0508
:100AA800EA05B4053200E803D007000013003D0151
:100AB800000000000000000001010101FFFFFFFF2E
:100AC800000000010000054D4B46340000080002FC
:010AD800001D
:100AD900685E0C0002FF0000010000001DF900081B
:100AE9000000000000000000C45706084C24002044
:100AF900A0240020D6010101DD1E0108000000002C
:100B090000000000846F0608BD23010800000000F2
:100B1900000000003C6F0608000000000000000013
:100B290000000000F86D0608000000000000000049
:100B390000000000B06E0608000000000000000080
:100B4900000000005C6E06080000000000000000C4
:100B5900F5200108DD260020FF2D202D2D202D2D2B
:100B69002D2D202D2D2D000000000000000000007B
:100B79000000000000000000FFFFFFFF9D260108A4
:100B89000000000000000000886D06080100000058
:100B9900FA0000000100000001000000010000004F
:100BA9000001010100000000EE2100200000F40115
:100BB90001000000EC2100200000F4010100000008
:100BC900EA2100200000F40101000000E8210020D2
:100BD9000000F40101000000E62100200000F401FA
:100BE90001000000E42100200000F40101000000E0
:100BF900E22100200000F40101000000E9000108E1
:100C0900AD00010800000000085A0608D2210020A2
:100C190005320100E02100206400F4010100000018
:100C2900DE2100206400C40901000000D021002059
:100C3900E803D00701000000CE210020E803D00717
:100C490001000000CC210020E803D00701000000CA
:100C5900CA2100201E00B80B01000000D821002085
:100C690005000F0001000000DA21002003000A003E
:100C790001000000C82100201E00F401010000004D
:100C8900DC21002002000000945A0608C621002039
:100C99001400640001000000D42100203200E803A0
:100CA90001000000C42100200000C800010000006C
:100CB9006121002000C801006021002000500100CE
:100CC9005F210020005A01005D2100200200000080
:100CD900A05A060858EC060860EC060882E90020CC
:100CE9000100C4090000000080E900200100C409D6
:100CF900000000007EE900200100C4090000000096
:100D09007CE900200100C4090000000078E9002006
:100D19000100C409000000007AE900200100C409AB
:100D29000000000076E900200100C409000000006D
:100D390074E900200100C409000000000B1F002015
:100D490000C801000A1F002000C80100081F002078
:100D59000000FFFF0A000000061F00200100C80074
:100D690001000000041F002032003075320000002D
:100D7900021F002005820500001F002005002C012C
:100D890005000000FE1E0020055A0500FB1E00207C
:100D990000FF0100FD1E0020020000008C0300205E
:100DA900F91E00200300000048BD0608FA1E0020B5
:100DB90000FF0100FC1E0020020000008C0300203F
:100DC900F81E00200300000048BD06083D00010888
:100DD900CDFF000800000000AC5A060804220020DC
:100DE900EE02CA08010000000222002000C801002A
:100DF900640000000122002000C801006400000016
:100E09000022002002000000B85B0608F21E002044
:100E19000000803E05000000F01E002080C1803ED9
:100E290005000000EA1E00200083007D0500000087
:100E3900E81E002080C1803E05000000E31E00205E
:100E490000FF0100DC1E00206400F4010100000025
:100E5900DA1E002004000000C45B0608D91E002029
:100E690002000000D85B0608911F00200D00000059
:100E7900E45B06088E1F0020006401008C1F00201F
:100E8900320010270A0000008A1F00200D00000010
:100E9900E45B0608891F00200D000000E45B0608DA
:100EA900881F0020020000001C5C060800000000EA
:100EB9000000000000000000285C06080A2200204B
:100EC9003E000000605C0608082200200100FF7F48
:100ED9000100000007220020020000005C5D0608F6
:100EE900931F0020030000006C5D0608921F00207C
:100EF900030000006C5D06084E210020000A010075
:100F09004C2100200000E803010000004A210020D4
:100F19000000E80301000000482100200000E80368
:100F290001000000462100200000E8030100000044
:100F39003E2100200000E8030100000044210020B8
:100F49000000E80301000000422100200000E8033E
:100F59000100000040210020001401005C21002054
:100F6900020000007C5D06085A2100200000F401FF
:100F790001000000582100200000F40101000000D8
:100F8900562100200000F401010000005421002036
:100F99000000F40101000000522100200000A00F10
:100FA90001000000502100200000A00F01000000F6
:100FB900B121002019640100B021002002000000C5
:100FC900885D060872210020E803D0070A000000A6
:100FD90070210020006401000A0000006521002042
:100FE9000064010064210020006401006C210020DC
:100FF900006401000A0000006B2100200064010068
:101009000A0000006A210020006401000A000000B3
:101019006F21002000FF01000A0000006E2100205E
:1010290000FF01000A0000006D21002000FF0100FF
:101039000A0000006921002001FF01000A000000E8
:101049006821002001FF01000A000000672100203B
:1010590001FF01000A0000009C1F00200000F401AC
:10106900010000009A1F00200000A00F01000000ED
:10107900981F00200000A00F01000000961F00200B
:101089000000A00F01000000941F00200000A00F25
:10109900010000002D27002000C801002C27002096
:1010A900006401002B270020006401002A2700208A
:1010B900006401002927002000640100282700207E
:1010C900FF080100272700200164010045FF0008EF
:1010D90009FF000800000000945D06083027002081
:1010E900013201002F27002001000000045E0608DC
:1010F9002E270020040000000C5E06082627002089
:1011090000640100242700201400E8030100000006
:1011190022270020E80330750A000000202700205C
:1011290000C801001F27002000C801001E27002059
:1011390000C801001D2700200032010032270020CD
:10114900004B01003127002004000000205E060842
:101159001C270020006401000A000000402700202D
:101169000000D007010000003B27002000C8010053
:101179003A27002000C801003927002000C80100D3
:101189003E2700200000D00701000000382700207A
:1011990000C801003727002000C8010036270020B9
:1011A90000C801003C2700200000D0070100000012
:1011B9003527002000C801003427002000C801009D
:1011C9003327002000C80100FDFC0008E5FC0008E9
:1011D90000000000345E0608851F0020005A010047
:1011E900841F002000C80100821F0020E803D007E7
:1011F9000100000000000000000000003521010886
:10120900D05E06084D4154454B4634303500000048
:10121900F71E002000030100F61E00200003010054
:1012290021FC0008D5FB000800000000245F060827
:1012390095FB00084DFB000800000000C05F060890
:101249006DFC0008812601080000000040600608C6
:10125900F41E002001030100910101086501010844
:101269000000000098630608D5FA00088DFA000806
:1012790000000000086406080DFD0008D5270108D4
:1012890000000000A4640608AD2B0108BD01010897
:10129900000000004C6506085DFD00080000000024
:1012A90000000000D865060839FE0008E1FD0008C5
:1012B900000000003C660608CDFE000891FE00080B
:1012C90000000000E4660608E988010881FF0008BB
:1012D9000000000070670608C32100200106010014
:1012E900A5FD000871FD0008000000006C680608F3
:1012F9001F880108A128010800000000DC68060811
:101309002189010869290108000000002C6A0608E2
:10131900C221002001030100B5FC000885FC00087A
:1013290000000000006B0608798901080000000030
:1013390000000000646B06081DFB0008692601080F
:1013490000000000E46B0608000000000000000037
:1013590000000000706C0608A5FF0008E1290108DB
:1013690000000000E06C060800000000000000001A
:1013790000000000F86E0608FCA900209CFF2C0163
:1013890000000000FC250020E0150C1700000000FB
:10139900FE25002002000000306F0608D41E002040
:1013A90088136F1701000000D61E002088136F17DD
:1013B90000000000C6E90020000000000000000055
:1013C900C4E900200000000000000000C2E900207C
:1013D9000000000000000000C0E90020000000003B
:1013E90000000000BEE9002000000000000000002D
:1013F900BCE90020000000000000000020170020C8
:101409000000000000000000A41E002003000000EE
:1014190020700608CC1E002088136F1701000000F9
:1014290046AA002088136F1700000000D1F90008B0
:101439000000000000000000307006084926002066
:10144900010000008470060848AA0020010000007D
:10145900907006083EAA0020020000009870060855
:10146900000000000000000000000000A470060851
:10147900BDF90008000000000000000040710608E6
:101489000000000000000000000000009471060840
:1014990000000000000000000000000004720608BF
:1014A900D81E0020020000003C72060842AA002053
:1014B900E0150C1700000000698D0408F3580408B2
:1014C900FD8C040800000000D5570408D5950408D0
:1014D900418C0408B18804080000000000000000E5
:1014E900955704085D5604084F56040839870408BF
:1014F900558704081D87040801870408E78604083E
:101509001F8D0408D1580408438C0408000000000A
:10151900AD570408B3880408158C04081F8804080B
:101529000000000000000000A1570408FFFF0000B0
:10153900FFFFFFFFC4470708000008020503030077
:1015490000000000CC470708010008020504030059
:1015590000000000284E07080200FE0101100300E8
:1015690000000000E8EF0608030014020003000071
:1015790000000000D447070804001F020200080009
:1015890000000000DC47070805001F0202010800EF
:10159900000000000000FA430000FA430000803F09
:1015A9000000803F00000000000000000000000073
:1015B9000D8200080000000000000000000000008B
:1015C900FFFFFFFFFFFFFFFF00000000C43C0020FA
:1015D9000800000000000000B43C002008000000E2
:1015E9007EFF0000FFFFFFFFD84B00200000000036
:1015F900004C00200000000001000000A00F0000C6
:10160900604807085C52070800000000E18E0108E5
:10161900A086010004000000000000000000000096
:1016290000000000000000000000000000000000B1
:1016390000000000000000000000000000000000A1
:1016490060480708C45207080000000055910008C7
:10165900E803000004000000000000000000000092
:101669000000000000000000000000000000000071
:101679000000000000000000000000000000000061
:1016890044F2060800000000000000002D75020861
:101699007D000000FF0000000000000000000000C5
:1016A9000000000000000000000000000000000031
:1016B9000000000000000000000000000000000021
:1016C900D04B07080000000000000000A1890208B3
:1016D9007D000000FF000000000000000000000085
:1016E90000000000000000000000000000000000F1
:1016F90000000000000000000000000000000000E1
:101709004CF506080000000000000000B1AD020819
:101719007D000000FF000000000000000000000044
:1017290000000000000000000000000000000000B0
:1017390000000000000000000000000000000000A0
:10174900E8F2060800000000000000000D8800080B
:10175900E803000003000000000000000000000092
:101769000000000000000000000000000000000070
:101779000000000000000000000000000000000060
:10178900CC5207080000000000000000257A050877
:101799001027000003000000000000000000000006
:1017A9000000000000000000000000000000000030
:1017B9000000000000000000000000000000000020
:1017C900D0470708000000004908050881BA000849
:1017D9005F76000005000000000000000000000026
:1017E90000000000000000000000000000000000F0
:1017F90000000000000000000000000000000000E0
:10180900744B0708000000000000000039F10008CF
:101819001027000001000000000000000000000087
:1018290000000000000000000000000000000000AF
:10183900000000000000000000000000000000009F
:10184900D852070800000000000000007580000859
:10185900E80300000500000000000000000000008F
:10186900000000000000000000000000000000006F
:10187900000000000000000000000000000000005F
:10188900E45207080000000000000000757C02080F
:10189900204E0000030000000000000000000000CE
:1018A900000000000000000000000000000000002F
:1018B900000000000000000000000000000000001F
:1018C900F45207080000000000000000517A0208E5
:1018D900204E00000300000000000000000000008E
:1018E90000000000000000000000000000000000EF
:1018F90000000000000000000000000000000000DF
:10190900045307080000000000000000098E0008C9
:10191900400D03000300000000000000000000006B
:1019290000000000000000000000000000000000AE
:10193900000000000000000000000000000000009E
:10194900400107080000000000000000A9B30108D9
:101959001027000001000000000000000000000046
:10196900000000000000000000000000000000006E
:10197900000000000000000000000000000000005E
:10198900B84707080000000000000000A9FE03088E
:101999001027000003000000000000000000000004
:1019A900000000000000000000000000000000002E
:1019B900000000000000000000000000000000001E
:1019C90014530708000000000000000055750108C5
:1019D900A0860100010000000000000000000000D6
:1019E90000000000000000000000000000000000EE
:1019F90000000000000000000000000000000000DE
:101A09004CF106080000000000000000998600085B
:101A190050C30000010000000000000000000000A9
:101A290000000000000000000000000000000000AD
:101A3900000000000000000000000000000000009D
:101A4900F4EE06080000000000000000998200087A
:101A5900A861000001000000000000000000000073
:101A6900000000000000000000000000000000006D
:101A7900000000000000000000000000000000005D
:101A89001C53070800000000000000001953040857
:101A9900A086010001000000000000000000000015
:101AA900000000000000000000000000000000002D
:101AB900000000000000000000000000000000001D
:101AC90068010708000000000000000049820008C2
:101AD900A00F00000100000000000000000000004D
:101AE90000000000000000000000000000000000ED
:101AF90000000000000000000000000000000000DD
:101B0900285307080000000000000000194E0408CF
:101B19001027000001000000000000000000000084
:101B290000000000000000000000000000000000AC
:101B3900000000000000000000000000000000009C
:101B490068FD060800000000000000004D2B040895
:101B59001A41000001000000000000000000000020
:101B6900000000000000000000000000000000006C
:101B7900000000000000000000000000000000005C
:101B8900B4EE06080000000000000000295E040809
:101B99001027000001000000000000000000000004
:101BA900000000000000000000000000000000002C
:101BB900000000000000000000000000000000001C
:101BC900685207080000000000000000993C010865
:101BD90050C30000010000000000000000000000E8
:101BE90000000000000000000000000000000000EC
:101BF90000000000000000000000000000000000DC
:101C0900345307080000000000000000B166040812
:101C1900400D03000000000000000000000000006B
:101C290000000000000000000000000000000000AB
:101C3900000000000000000000000000000000009B
:101C49003C53070800000000000000000180000864
:101C5900400D03000000000000000000000000002B
:101C6900000000000000000000000000000000006B
:101C7900000000000000000000000000000000005B
:101C8900445307080000000000000000253904083B
:101C990050C3000003000000000000000000000025
:101CA900000000000000000000000000000000002B
:101CB900000000000000000000000000000000001B
:101CC900505307080000000000000000AD0F030892
:101CD90040420F000000000000000000000000006A
:101CE90000000000000000000000000000000000EB
:101CF90000000000000000000000000000000000DB
:101D09005C530708000000000000000091900108E2
:101D190050C30000000000000000000000000000A7
:101D290000000000000000000000000000000000AA
:101D3900000000000000000000000000000000009A
:101D4900B80B00000102FFFF010100001A030000A7
:101D5900000000000000000000000000000000007A
:101D69000000000000000000040309041201000241
:101D79000000004083042057000201020301000013
:101D89005D970308899703084D9703081D89030880
:101D9900FD960308A59603080D8903080015002080
:101DA9005D91030825890308218903081989030816
:101DB900A991030815890308118903089CB206082B
:101DC90071950408B35804085594040800000000EC
:101DD90000000000ED8B0408FD8A040800000000E3
:101DE900000000000000000089570408BD890308AD
:101DF900B1890308D9970308F59703086989030886
:101E0900BD970308A19703081F0000001C000000EC
:101E19001F0000001E0000001F0000001E0000003F
:101E29001F0000001F0000001E0000001F0000002E
:101E39001E0000001F0000000068214C3CBC060881
:101E4900F4010000FFFF0000008002021F000000F3
:101E590053544D202020202050726F647574202027
:101E69002020202020202020302E303100000100A9
:101E7900E001010801FFFF00FFFFFFFF0403090460
:101E890012010002EF0201408304563200020102EE
:101E990003010000120100020202004083044057BE
:101EA900000201020301000009022000010104C02F
:101EB90032090400000208065005070581024000A6
:101EC900000705010240000009026400030100C087
:101ED9003209040000010300000009211101000179
:101EE9002236000705830309000A080B01020202D2
:101EF900010009040100010202010005240010018A
:101F09000524010002042402020524060102070532
:101F190082030800FF09040200020A000000070505
:101F29000102400000070581024000000902430048
:101F3900020100C032090400000102020100052467
:101F490000100105240100010424020205240600F1
:101F590001070582030800FF09040100020A0000C5
:101F6900000705010240000007058102400000004A
:101F7900FF00000000FF0000000000000000AA555B
:101F89000701000001AA55050100000864C40608FC
:101F9900FF1FFF1F05010905A101A1000501093066
:101FA90009310932093309350934093609371581E7
:101FB900257F750895088102050919012908150069
:101FC9002501950875018102C0C00000090222009F
:101FD900010100E0320904000001030102000921A6
:101FE900110100012236000705830309000A0000D8
:101FF90000000000010203040102030406070809A6
:102009000B8E040809930408858E04080B580408EC
:10201900BD5904081B58040837580408E557040833
:10202900D757040800000000000000002D202D2DC6
:10203900202D2D2D2D202D2D2D2D000000000000EF
:102049000000000000000000000000AA550B01007C
:1020590000AA5505010000AA550902000000AA5569
:1020690003009F0001000000C012000001000000F1
:102079000000040100000000000000021000000040
:102089000700000000000000000000000102030436
:1020990006070809010000000000803F0000000059
:1020A90000000000000000000000803F0000000068
:1020B9000000000000000000000000000000000017
:1020C9000000000000000000000000000000000007
:1020D9000000803F00000000000000000000000038
:1020E90001000000080000007D00000000600240BF
:1020F900106002400000000000000000000B00001A
:102109000000000000000000000000000060024024
:10211900286002400100000000000000060C0000D9
:102129000000000000000000000000000060024004
:10213900406002400200000000000000100D000095
:1021490000000000000000000000000000600240E4
:10215900586002400300000000000000160E000055
:1021690000000000000000000000000000600240C4
:10217900706002400400000000000000200F000011
:1021890000000000000000000000000000600240A4
:1021990088600240050000000000000026100000D1
:1021A9000000000000000000000000000060024084
:1021B900A06002400600000000000000301100008D
:1021C9000000000000000000000000000060024064
:1021D900B86002400700000000000000362F000030
:1021E9000000000000000000000000000064024040
:1021F90010640240000000000000000000380000E8
:10220900000000000000000000000000006402401F
:1022190028640240010000000000000006390000A7
:1022290000000000000000000000000000640240FF
:10223900406402400200000000000000103A000063
:1022490000000000000000000000000000640240DF
:10225900586402400300000000000000163B000023
:1022690000000000000000000000000000640240BF
:10227900706402400400000000000000203C0000DF
:10228900000000000000000000000000006402409F
:102299008864024005000000000000002644000098
:1022A900000000000000000000000000006402407F
:1022B900A064024006000000000000003045000054
:1022C900000000000000000000000000006402405F
:1022D900B864024007000000000000003646000014
:1022E9000000000000000000000000004D56040836
:1022F9004B56040849560408435604084156040835
:1023090047560408455604087163040861620408C5
:10231900A163040881800408A9980408FD800408C1
:10232900755704086157040859570408010000004B
:102339000000803F01000000F419002000000000A7
:102349000000000000000000000000000000000084
:102359000000000000000000000000000000000074
:102369000000000000000000000000000000000064
:102379000000000000000000000000000000000054
:102389000000000000000000000000000000000044
:0C23990000000000000000000000000038
:082800000000000000000000D0
:108000000C4B1B78DB0700D570470B4A1368002B1D
:10801000FAD04FF47A7101FB03F39842F4D3074B83
:108020001B781BB9064B99681B690B600023136012
:10803000704700BF06A80020F4390020E039002076
:108040000C34002010B5094C238823EA0000984224
:10805000208009D0064B41F20241FF2219809A701C
:108060000E2013F05FF92388184610BD74400020DD
:10807000FC2C002070B50C4C23689BB15A68821A06
:10808000002A0FDB0546002603E05A68AA1A002AD8
:1080900008DB9A681E73226018461A6890472368A6
:1080A000002BF2D170BD00BFBC340020436A82694E
:1080B000D154436A0169026C01338B4228BF00230B
:1080C0004362E2B1EFF31183502282F31288026C13
:1080D0001168C90703D5DBB283F311887047516873
:1080E00089B270B4F1B9D0E90954A5420DD1012289
:1080F00080F86420DBB283F3118870BC7047026E95
:10810000D36843F08003D360704786692644D66005
:10811000A4B210D805692C1BA4B25460816200215E
:1081200080F86410116841F00101DBB2116083F343
:10813000118870BC70472C1BA4B254608562EEE7B6
:10814000034610B4C46BD968406954B15A6D8C1A97
:10815000013A005D5DF8044B08BF0A46C0B25A659B
:1081600070471A6A805C01328A4228BF2246C0B238
:108170001A625DF8044B7047036C13B190F8640009
:108180007047D0E90903181AB0FA80F04009704727
:10819000D0E909120369914238BFC9188A1A016CE3
:1081A000013B21B1496812FA81F29A4201D2981A30
:1081B00070470020704700BFC36B33B15B68426DEE
:1081C0009BB29A4205D3D01A7047D0E907239A424E
:1081D000F9D2C0681044C01A70470B4B30B503F198
:1081E0001C0493F900205D78092AC8BF143A81184D
:1081F00004330D7313F8025C855413F8012C0A76CE
:108200009C42EED130BD00BF4C47060808B50A4B72
:108210001B78DB0700D508BD084B1B781BB1084B4A
:1082200000221A7008BD074B02229A7333F0ACF893
:10823000042013F077F8F2E706A80020903C002015
:10824000C4340020D4E3002038B50F4B1B7803B1B1
:1082500038BD0E4B1B685B05FAD50D4D9FED0D7AB1
:108260002B68C31A07EE903AF8EEE77A0446F4EE6C
:10827000C77AF1EE10FA02DB0EF062FD2C602046A8
:10828000BDE838402CF0CEB844A80020BCE7002060
:10829000581A0020001B374A2DE9F043D64D6C6870
:1082A0002DED028B041B46F2A7139C4283B004D829
:1082B00003B0BDEC028BBDE8F083D04B68601E6854
:1082C00016F0040140F08E800F4616F0200344D1D2
:1082D0009FEDCB8A9C461846CA4ECB4A367892F818
:1082E000008016F0010672D1B8F1000F00D01670B0
:1082F000AA6901926A69BF1A019AA0EB0208002BD1
:108300003ED151B12B7F012B07D8C04B21463846B7
:108310001F6051F035F9BE4B1880BE4B1B780E2BF9
:10832000C6D1DFEDBD7ABA4BBC49188828EE278A42
:108330000022BDEEC88A134618EE104A68F30F03F8
:1083400064F30F0267F31F4260F31F43C1E9002388
:1083500003B0BDEC028BBDE8F083B14B1B7813F08A
:10836000020300F0F080AF4AAF4E538A9068B6F92E
:1083700000C0002B40F029819FEDA18A0123ABE7CB
:108380002B7F002900F0D480002B40F01A81002EB2
:1083900000F08081F7EE007A37EEC87A07EE907A27
:1083A000F8EEE77A67EE877A07EE108AB8EEC77ABA
:1083B000E7EE087AFDEEE77A17EE903A934A214607
:1083C0003846136051F0DCF8914B1880A5E7B8F1FE
:1083D000000F8DD14FF0010EC5E9057082F800E065
:1083E00047468CE7DFF8A482904898F80620078873
:1083F000AB68013AB3FBF2F3002F00F0A9808C497F
:108400009FED8C6A0A689FED8C7A9FED8C2ADFEDD8
:108410008C2A9FED8C3ADFED8C3ADFED8C8ADFED14
:108420008C0A9FED8C4A9FED8C8A9FED8C0ADFEDC4
:108430008C7ADFED8C1A9FED8C1ADFED8C4A9FED64
:108440008C5ADFED8C5A002A9446B8BF02F1070C13
:10845000A2EBEC021344002B1A46B8BFDA1DD2106F
:1084600006EE902AF8EEE66A0B6066EE866A2969E7
:1084700016EE902AC2F3160C4CF07E5C06EE10CA83
:10848000A6EE072AD21507EE102AE6EE022AB8EE6B
:10849000C77AA6EE223A27EE287AE6EE033AF4EE01
:1084A000E06AA6EE237AF1EE10FAD4BFF0EE486A45
:1084B000F0EE446A37EE267A9FED6F6A9FED6F4AC1
:1084C000E7EE007AB7EE007AF4EEE17AF1EE10FA18
:1084D00088BFF0EE617AF4EEE07AF1EE10FAB8BF00
:1084E000F0EE607AFDEEE77A8B4217EE902AC2F347
:1084F000160C4CF07E5C06EE90CAE6EE814A02F065
:10850000FF4207EE902AA6EEA45AE6EE855AA6EEA2
:10851000A56AA7EEC67A67EE047AFDEEE77AC5EDA6
:10852000037A64D0013F002107802B610F46CCE61F
:1085300013F0FD0F7FF4F1AE344A354BC2F80080E2
:10854000A3F800C0E9E69FED2E8A9C461846C3E6D4
:1085500007EE903A9FED370ADFED490ADFF83091D8
:10856000F8EE677AB7EE008A27EE800A59F024FB0E
:10857000DFED427A38EE400A20EE270A59F076F80D
:10858000B8F80830DFED3F6A07EE103AEB68C01A22
:10859000B8EEC77A07EE900AA7EE668AB8EEE70A49
:1085A000D9ED0D7AF8EEE77A20EE080A67EEA67AA2
:1085B000A7EE270A59F05AF801210746C9F83400F6
:1085C00083E6022B7FF49FAEB6E707EE903ADFED2D
:1085D000126A9FED2D7AF8EEE77A86EEA78AB4EE5E
:1085E000C78AF1EE10FA88BFB0EE478AC6E60023CC
:1085F000194603801F4668E6581A0020203E0020D6
:108600009A99993E06A80020B88F002000430020C8
:10861000764000203DCD00200000C84240CD002023
:1086200044400020E0E800204C8D0020F021002094
:108630008801002008942537DACDFE3CB9D593BED9
:108640005CB8903FAA841DC022E061401872313F9F
:108650000000000007F1B3C2000080FF64890C4AEB
:1086600000007E4E0000FF4EED185E3C81900FBB77
:10867000AF9D2A3EB2D19F3EE886023FD048874A4E
:10868000B1DC423E6F12833A6666663FC44B0020FF
:10869000B0D90020434691E6534B1B685B0700D4DA
:1086A00070472DE9F04F514D514C2A782379372AE4
:1086B00008BF504A83B008BF1380042B76D8DFE888
:1086C00003F06D635B4F03004B4FFB6A38469847DE
:1086D000002849D0494E3B6B06F1200106F12400E9
:1086E0009847474BD6F808809879D6E90AA2D6E988
:1086F000083B0AF10109511C814508BF4FF00009F0
:108700000329C7F83CB0BB635DD03E48F16296F8E0
:10871000301040F822B000295DD1584606EB8A0A95
:1087200006EB8902CAF83400397CD2F834C02A78C2
:10873000C6F828900029A8EB0C080CBF05210221DF
:108740004044372AB060217104D12A4A5380A2F8EC
:1087500004B0D0807B8A002B42D103B0BDE8F08FFB
:108760002548836A984748BB4FF47A73264A1268B3
:10877000136103B0BDE8F08F1F4D6B6A2846984720
:108780000322AB8A2271E6E71B48036A9847002858
:10879000EAD0022323714FF47A73E7E71648C369DE
:1087A00098470028E0D001232371DDE7124DAB6923
:1087B0002846984700226B8A2271CCE70423237154
:1087C0004FF47A73D2E70F4A0121C2F808B00022B1
:1087D00086F83010F262019355F064F9019B9DE731
:1087E0000A2BB8BF0A23C1E7203E00203DCD002060
:1087F0008801002040CD0020B0D90020581A002068
:10880000C44B0020C0E70020880900102DE9F04784
:10881000CF4C2DED028BA36820469847002800F02E
:10882000D480CC4B1B780122042B84F85C2000F010
:10883000D080B4F91A3006EE903AB4F91C3007EE45
:10884000103AB4F91E3007EE903AF8EEE66AB8EE48
:10885000C77AF8EEE77AC4ED146A84ED157AC4EDB0
:10886000167ABD4B1B88002B60D0BC4B94ED142AAC
:10887000D4ED152A94ED163A93ED008AD3ED054A0E
:1088800093ED090AD3ED0E3AD3ED120A93ED174A90
:1088900093ED011A93ED065AD3ED0A1A93ED0F6A80
:1088A000D3ED137A93ED187AD3ED045AD3ED0D6A14
:1088B000E8EE024AE0EE223AA3EE204AA1EE025A86
:1088C000A1EEA26AA3EE277A93ED038AD3ED167A7E
:1088D00093ED020AD3ED0C0A93ED0B1AD3ED151AA2
:1088E000C4ED144A65EEE45AA8EE645A66EEE36AF3
:1088F000D3ED144A83ED055A67EEC47AE0EE025ACE
:10890000A0EEE36AE1EE226AA4EE617AE3EE247A55
:10891000C3ED065AC4ED153A83ED0E6AC3ED0F6A36
:1089200083ED177AC3ED187A84ED164A94F8221075
:1089300009296BD08A480EF07FFA8A4E8A4D328818
:10894000D5F8F430002A40F02581884A1268500793
:1089500000F1BF80B3F9022094ED146A94ED167A09
:1089600094ED155A824905EE902AB3F90420B3F923
:10897000003007EE902A06EE903AF8EEE55A7D4B6D
:108980000A68D3ED013A93ED004AD3ED024AF8EEBE
:10899000E66AF8EEE77A75EE655A76EE666A77EE85
:1089A000677AC4ED155A34EE266A73EEA55A34EE92
:1089B000A77A0132C3ED015AC4ED146A83ED006A4F
:1089C000C4ED167A83ED027A0A60BDEC028BBDE835
:1089D000F087B4F91A00B4F91C10B4F91E20664BE4
:1089E00007EE900AF8EEE76A07EE901AB8EEE77A1B
:1089F00007EE902AF8EEE77AC4ED146A18805980E1
:108A00009A8084ED157AC4ED167A2AE794ED157AEA
:108A1000D4ED0D6AD4ED0E7A94ED0F2AD4ED145AEC
:108A2000D4ED0A2A94ED0B3AD4ED0C3A94ED166A83
:108A300094ED104AD4ED114A94ED125A4F4B67EE63
:108A4000266A67EE277A27EE027AE5EEA26A1B789D
:108A5000E5EE837AA5EEA37AE6EE046AE6EE247AE2
:108A6000A6EE057AC4ED146AC4ED157A84ED167A83
:108A7000002B7FF462AF424B93ED046AD3ED035AAF
:108A800093ED052A93ED013AD3ED002AD3ED023A96
:108A900093ED064AD3ED074A93ED085A27EE866A0E
:108AA00067EEA55A67EE827AA6EE836AE6EEA25AD0
:108AB000E6EEA37AF0EE466AE7EE045AE7EE246AA1
:108AC000E7EE057AC4ED145AC4ED156AC4ED167AC2
:108AD00033E7B5F80421322A00F0E680002A40F09E
:108AE0000C8195F82221002A3FF434AFD5F81C01FF
:108AF000244ED5F81411D5F81821278B86FB00ECED
:108B0000C017C0EB2C10C01B86FB01C786FB02C63A
:108B1000C917D217C1EB2711C2EB26121A4E1980C2
:108B200098805A80DFF864C000230222B381F38169
:108B3000012785F822318CF80E20778132F024FC51
:108B400031F078FC384612F01DFDD5F8F43001E71D
:108B5000740800103DCD0020722B0020742B0020E3
:108B6000C4080010F2210020581A0020BCE70020A1
:108B70009CC60020A0C6002040CD0020540200204A
:108B8000E42A00201F85EB510C4A0020D4E300208A
:108B900000000000B2F5C87F18BFD5ED3E7A94ED15
:108BA000147A0CBF5FED067AF8EEE77A4FF0000C0E
:108BB000002077EE877AC4F850C018803788FDEE21
:108BC000E77AB7F5C87F17EE902AC5ED3E7A58D000
:108BD000D5ED3F7A94ED156AD4ED166AC4F854C009
:108BE000B8EEE77AD5ED407A5880F8EEE77A37EEBE
:108BF000067A77EEA67ABDEEC77AFDEEE77A012F08
:108C0000C4F858C017EE108A17EE901A85ED3F7A17
:108C1000C5ED407A988031D1DFF8E0C1B4F818E0B2
:108C2000C8318CFB01A9C832C91708F1C808C1EBCB
:108C3000E9118CFB02A9D2178CFB08ACC2EBE91935
:108C40004FEAE878674AA3F80090A1EB0E01C8EB61
:108C5000EC18DFF8ACC19980A3F802800223908160
:108C6000D08157818CF80E3032F08EFB31F0E2FB70
:108C7000384612F087FC3788D5F8F430013F37804A
:108C800063E694ED157AD4ED167AC4F854C0BDEEBF
:108C9000C77AFDEEE77A588085ED3F7AC4F858C070
:108CA000C5ED407A9880E9E7D4ED146A94ED157A21
:108CB000D4ED167A4B491E68C968C5F80861FDEE07
:108CC000E66ABDEEC77AFDEEE77AB3F90460C5F84F
:108CD000101100200021A5F80C61C5ED456A206542
:108CE000198085ED467A60655980A065C5ED477AA3
:108CF0009980013AA5F80421F3E6D5ED457A94ED83
:108D0000145AD4ED155A94ED166AF8EEE76AD5EDCB
:108D1000467AB8EEE77AD5ED477AF8EEE77A76EE5E
:108D2000856A37EE257A77EE867AFDEEE66ABDEE45
:108D3000C77AFDEEE77A00200021012AC5ED456AD9
:108D40002065198085ED467A60655980A065C5ED7E
:108D5000477A9980CDD1244885F82011016885F89B
:108D60002121890332D4214E002031460F780B2F68
:108D700001F10C010DD001301928F7D1D5F80811F7
:108D800019601849B5F90C61D5F810019E80C860CA
:108D9000AFE7174FD7F800C04100BCF1000F09D072
:108DA00001EB000E06EB8E0E9CF801C09EF801E070
:108DB000E645E3D20144DFF84CC00E4806EB8106DD
:108DC00000213E60ACF800100160D7E70A4909783D
:108DD0000329C8D112F08AFAD5F8F430B5F8042185
:108DE000CCE700BF0C4A0020082B0020485806089A
:108DF000142B00201C2B0020054200201F85EB5166
:108E0000D4E30020182B00202DE9F04FA84BA94DEA
:108E10001B7895F80080DB0785B007467BD5A64C0C
:108E2000A64EB8F1010F52D01DD3B8F1020F06D1F2
:108E3000A34AA44B12881B889A4200F28280E37BEB
:108E4000002B2DD0A3895BB39F4B1B7843B327F036
:108E5000EFFE002800F0F380237C83422CBF012228
:108E6000002232701DE0994B954A1B88617C128864
:108E70005B1A9A42964A3CDC9649E37D1268D1F827
:108E8000241103EB8303521A03EB8303B2EB830F2A
:108E9000D5DBE37B4FF0010885F80080002BD1D1B2
:108EA0003278217A632907D88B48B8F1020F03780A
:108EB00000F08780002B70D18849A37B904538BF94
:108EC000904681F80080CBB905B0BDE8F08F7D4BAE
:108ED0007B4A1B88617C12885B1A9A4237DD7B4B88
:108EE0001B88934238BF4FF00008794A38BF85F895
:108EF0000080784B1268C3F82421A0E7B8F1010F75
:108F000000F09780B8F1020FDED1072005B0BDE870
:108F1000F04F12F007BA6A49674C0A88A8F10303B8
:108F2000012B54D94B88D31A002BB8BF5B42142BAA
:108F300005DCE38893421ED8218891421BD35F4E03
:108F40006FE7634A634B1268C3F82421A1E7604AC4
:108F50006049237E1268D1F8241103EB8303521A6F
:108F600003EB8303B2EB830FFFF669AF4FF0020808
:108F700085F8008063E7B2EB430F504E3FF751AFE7
:108F80000323514851494F4A33702B70002303701B
:108F90000B8013804FF0030851E74368504DFB1AD4
:108FA000AB42C8BF417087DCC1F164014D4D03FB8A
:108FB00001F385FB0351DB17A3EBA153643343702B
:108FC0007AE7002BE9D1012547600570ECE7E388DB
:108FD000934225D82088904222D34B88374ED31A0B
:108FE000002BB8BF5B42142B3FF729AF237D002035
:108FF0003070287033B3344A80461370A188334AE6
:10900000B4F802C02F489BB211FB03F111801CFB86
:1090100003F3314A0380642100235170536000E759
:10902000B2EB430FD9DCB8F1030F7FF47BAF234ED3
:10903000B0E7082005B0BDE8F04F12F073B9022286
:1090400032702EE7284B21881B68B2FBF1F1013109
:10905000082993F97220DFF87080A8BF0821CBB2ED
:109060008A4288F800306CD0002A6AD01F4ADFF8A4
:1090700080E092F800A00AF10102AEFB029C4FEAE8
:109080005C0C0CEB4C0CA2EB0C0CD445624658D09B
:10909000DFF860B08A2000FB0CB999F9729089451D
:1090A00055D0CDE901E003934FF0FF3028E000BF39
:1090B00006A8002074440020E43F002075440020EE
:1090C00058400020943C002060400020923C00204A
:1090D00050D80020581A0020983C0020054200205B
:1090E0007F9698006BCA5F6B5CE90020D4E3002098
:1090F000ABAAAAAAA01F00209EF97290894523D08E
:1091000002F1010E019AA2FB0E32520802EB42025A
:10911000029BAEEB0202002803FB02BE03DAB9F1A8
:10912000000F08BF604652459446E5D1039B0028D6
:1091300007DBC0B230F0D6FC98F8003095F800801C
:109140005CE74FF0000859E7039B1046EFE76046E5
:10915000EFE700BF2DE9F04B84B03EF053FFE8B1DC
:109160009A4C41F2CC63E358002B1ADC6378022B53
:109170001CD0032B12D141F2E873E35C2BBB41F20C
:10918000D463E35C4BBB41F21873E35C0BBB41F26D
:109190005C73E35C13B18E483EF0A4FE04B0BDE8FE
:1091A000F08B3DF037FC6378022BE2D1A3784FF0CF
:1091B0000109072BF2D8DFE813F05600E5006C0038
:1091C00051001700A600B000140082483EF08AFE4D
:1091D000D5E781483EF086FED9E780483EF082FE22
:1091E000D1E703236370D9E72278237DDFF80C826F
:1091F0007B4E032A14BF4FF480778027002B00F0AA
:10920000AD80012BFAD1774B62681968D8F800005D
:109210004FEA412C00234FF0FF31B1FBFCF112EB80
:10922000010B43F1000C0021614500F1020008BF71
:10923000584538BF83465A466B4902203EF0DAF85B
:10924000032800F2C08001A353F820F09D9100088C
:10925000339300089D910008339300086348037816
:10926000002B9BD098E7002303AD2946184609221E
:109270003DF04BFD012891D1039B93F8FE21552A27
:1092800000F0BE8041F2E47202210123A154637018
:1092900084E7574B00930325302305225549534853
:1092A000A57041F0CBFE79E723690622652BA270F9
:1092B00033D92278032A14BF6FF0FF026FF07F02C8
:1092C000A3F1650303EA020303F1010314BF4FF4A2
:1092D000807280229A4223611FD2D8F80020E6686B
:1092E00002329F19974202D33DF004FC2369424A9F
:1092F0006660D16FA760490203FB01F342E90733BF
:1093000005211660A170A268354901203DF053FF88
:10931000012840F013810623A370002133483DF05B
:1093200089FE012840F00A81A3780133DBB2A370E3
:109330003FE7D4E901232569991AA94288BFC4E906
:1093400003210328B0D00133B3FBF7F207FB12323D
:109350000AB13B449B1A002263602275D8F80020B2
:109360003146023200203EF045F803282BD801A3F5
:1093700053F820F09D910008BB9300089D910008D0
:10938000A992000803AD41F62C062946A0590023F6
:1093900009223DF0BAFC01287FF400AF0023039AB4
:1093A0002370B2F80B30B3F5007F6BD041F2E4725A
:1093B00003210123A1546370F0E6636884F81490DC
:1093C0000133A3601FE7237D18E700BFB00401202D
:1093D0000C1C0120981C0120C81B0120841B0120AB
:1093E000B4040120F01C0120B8040120501C01200D
:1093F00085560408D8D40608741C0120E81C0120F6
:1094000093F8FF21AA2A7FF43DAFD3F8C61149B1E2
:1094100093F8C221A2F10B0001282DD902F0F70226
:10942000062A29D0D3F8D61149B193F8D221A2F156
:109430000B00012820D902F0F702062A1CD0D3F82D
:10944000E61149B193F8E221A2F10B00012813D9EA
:1094500002F0F702062A0FD0D3F8F61100293FF4E4
:1094600011AF93F8F231A3F10B02012A04D903F0F2
:10947000F703062B7FF406AF41F62C020123A1501F
:10948000A37080E7137C022B90D192F8FE31552B0C
:109490008CD192F8FF31AA2B88D1D589A7592F49B1
:1094A00041F630002F442750567B0E60731E7F2BF1
:1094B0003FF67CAF734236EA03037FF477AF41F6A1
:1094C00048017302013B6350D18A01B9516A41F6E8
:1094D000340341F65000E150B2F811305B0103F261
:1094E000FF135B122350B2F8130000B9106A490051
:1094F0001D440D44401B41F6380C40F6F475B0FB9A
:10950000F6F0A84244F80C0025D94FF6F475A842AD
:109510001DD903202070D56A41F610023B440B444C
:1095200041F63C0041F64C01A25C235065500AB95B
:109530003DF044FAA3780133A3702FE602287FF4AC
:109540002DAE41F2E4720123A354637026E6022299
:1095500022700025E0E70123237027E7F01C01209B
:10956000038A2DE9F047B0F80C9019EA030928D0D6
:109570000E4605464FF000474FF00008B9FA89F350
:1095800027FA03F2D24391B21B3B09EA020929826E
:10959000042B13D8DFE803F0322920170300736A85
:1095A000002B34D1EB6A1FFA83FA346A34B1236892
:1095B0002046514698476468002CF8D1B9F1000F55
:1095C000DCD1BDE8F0873068696B036889B29847E1
:1095D000B9F1000FD2D1F4E77068A96B036889B2C2
:1095E0009847B9F1000FC9D1EBE7B068E96B0368A0
:1095F00089B29847B9F1000FC0D1E2E7F068296C51
:10960000036889B29847B9F1000FB7D1D9E703F1E0
:10961000FF3A1FFA8AFAC6F82480C6E7F0B5056E4D
:1096200001710446A889A668814F20F40050000407
:10963000000CA88162792B8A10039BB223F440535B
:1096400000F40050184312F0040F01F001034FEA38
:109650000222288202F480620CBF00204FF4805066
:10966000002B0CBF08230C2342EA00020CBF002091
:10967000042011F0020FA98908BF03461A430F40C6
:109680003A43AA81AA8A22F44072120491B0120CC1
:10969000AA8201A840F04CFB664B9D4205D003F521
:1096A00080639D4201D0039B00E0049BAA891204C1
:1096B0004CBF7100B100604EAA8903EB830303EB3A
:1096C0008303B3FBF1F1A6FB0130400964231704C7
:1096D00003FB10134FEA001000F18D801B013233A1
:1096E000A6FB0323C3F3431303439BB22B8162798D
:1096F000236E12F0080F9A8A05BF22F008021204A6
:1097000042F00802120C9A829A8942F400529A811D
:109710002279D60734D5E26B002A7BD001A840F02D
:109720001FF84FF48070E36D0A904FF4803002937D
:109730000B9000234FF48060626CE1680693CDE9E2
:109740000833CDE90C33CDE90E33049307906369F8
:10975000E06B01920393059140F03EF801A9E06BA4
:1097600040F00FF8E26B236E116841F001011160C7
:10977000998A41F0400199825168227989B26165E4
:10978000950732D5226C002A3FD001A83FF0E8FFB0
:10979000A36D02934FF480330B934FF48063002545
:1097A000A26C21690793206C0192402304930591D8
:1097B0000A950695CDE90855CDE90C55CDE90E552C
:1097C00040F00AF801A9206C3FF0DBFF226C236E09
:1097D000516941F080015161116841F01601116039
:1097E00055609A8A42F080029A829A8942F4005225
:1097F0009A8111B0F0BDDB0003F13202A6FB022317
:10980000C3F3421242EA00036FE7DA6842F08002D3
:10981000DA60EAE74FF6DF721A80DA6842F0200277
:10982000DA60DA6842F01002DA602279A8E700BF55
:10983000F3E9FFFF001001401F85EB51F0B5056E05
:1098400081600E46A98921F4005109040446090CDF
:10985000A98162792B8A27797D4811039BB223F471
:10986000405301F40051194312F0040F07F00103B3
:109870004FEA0222298202F480620CBF00214FF4D9
:109880008051002B0BBF08230C234FF0000C4FF02E
:10989000040C0A4317F0020FA98908BF63461A4354
:1098A00008400243AA81AA8A22F44072120491B0AD
:1098B000120CAA8201A840F03BFA664B9D4205D0EB
:1098C00003F580639D4201D0039B00E0049BAA89BD
:1098D00012044CBF7100B1005F4EAA8903EB8303F1
:1098E00003EB8303B3FBF1F1A6FB013040096423D2
:1098F000170403FB10134FEA001000F18D801B01C9
:109900003233A6FB0323C3F3431303439BB22B81E0
:109910006279236E12F0080F9A8A05BF22F00802BE
:10992000120442F00802120C9A829A8942F4005200
:109930009A812279D60734D5E26B002A7BD001A820
:109940003FF00EFF4FF48070E36D0A904FF48030CB
:1099500002930B9000234FF48060626CE1680693E1
:10996000CDE90833CDE90C33CDE90E3304930790EC
:109970006369E06B0192039305913FF02DFF01A90C
:10998000E06B3FF0FEFEE26B236E116841F00101D7
:109990001160998A41F0400199825168227989B217
:1099A0006165950732D5226C002A3FD001A83FF0AF
:1099B000D7FEA36D02934FF480330B934FF4806373
:1099C0000025A26C21690793206C01924023049327
:1099D00005910A950695CDE90855CDE90C55CDE9D7
:1099E0000E553FF0F9FE01A9206C3FF0CAFE226C33
:1099F000236E516941F080015161116841F01601F7
:109A0000116055609A8A42F080029A829A8942F4E3
:109A100000529A8111B0F0BDDB0003F13202A6FBC7
:109A20000223C3F3421242EA00036FE7DA6842F00E
:109A30008002DA60EAE74FF6DF721A80DA6842F0F5
:109A40002002DA60DA6842F01002DA602279A8E7D0
:109A5000F3E9FFFF001001401F85EB5110B5094CE1
:109A6000238818439842208009D0074B41F20241D5
:109A7000FF2219809A700E2011F054FC238818469A
:109A800010BD00BF74400020FC2C0020024A136867
:109A900018431060704700BF08430020884B894876
:109AA0002DE9F04178220124874E1C7000215AF0E4
:109AB000F9FD864A8649874D002330460B601360C6
:109AC0000FF082FB2146204627F078FA2146082035
:109AD00027F074FA6F7A804A804BB2F8602093FBCB
:109AE000F2F3391C18BF01210A20C6F8103227F002
:109AF00065FA7B4B1B78002B40F09E8095F80A801E
:109B000018F100014FF00B0018BF012127F056FAA1
:109B1000AB7B002B00F08180724C002F40F08A80DC
:109B200018F1000118BF01216F4D0C2027F046FAF3
:109B30002B68D80700F19480990705D56B4FB7F8CB
:109B40004C30002B40F0AC800121072027F036FA82
:109B5000674B092093F8281127F030FA01210D20D6
:109B600027F02CFA21680E20C1F3C01127F026FA45
:109B700029680F20C1F3C00127F020FA29681020BE
:109B8000C1F3800127F01AFA2B685A0756BF2168E3
:109B90000121C1F3C011112027F010FA2168122011
:109BA000C1F3404127F00AFA21684B0549D4C1F3BB
:109BB0000041142027F002FA216811F4802104D01A
:109BC0004C4B1968003118BF0121152027F0F6F918
:109BD00021681620C1F3C06127F0F0F901211B2094
:109BE00027F0ECF901211C2027F0E8F901211720CA
:109BF00027F0E4F90121182027F0E0F901211920CC
:109C000027F0DCF93C4B196800314FF01A0018BFFF
:109C10000121BDE8F04127F0D1B9EB7B314C002B9D
:109C20007FF47BAF216811F480213FF47DAF002FDA
:109C30003FF476AF012177E741F28833C6F89032DE
:109C40005CE70121132027F0B9F92C4B21685B78E0
:109C5000083B012B9CBF4FF4FA63C6F8D034A6E74B
:109C6000274BD3E901320A2AB8BF0A220A2BB8BF10
:109C70000A2301210220C6F89020C6F8D030C6F889
:109C8000103127F09BF90121032027F097F90121DA
:109C9000042027F093F91B4A2B68012111704BE730
:109CA0000121052027F08AF901210620B7F84C2070
:109CB0000A4B93FBF2F3C6F8503127F07FF943E7E4
:109CC00064080010E4070010B80C0020E007001042
:109CD00060080010E43F0020F8E8002040420F0038
:109CE0006C340020BCE70020203E002074080010E7
:109CF000581A0020BCE30020DC9200209CE70020E2
:109D0000A42500105C080010074B1B7853B9074BC3
:109D100000F1200250F8041B43F8041B9042F9D1D3
:109D200001207047002070478D30002060300020F7
:109D300008B5094B1B78014613B1084B1B7843B992
:109D4000152206485AF0ECFC054B012083F8290146
:109D500008BD0020FCE700BF8C300020602A0020F6
:109D6000581A002008B5094B1B78014613B1084B5F
:109D70001B7843B9052206485AF0D2FC054B012056
:109D800083F8290108BD0020FCE700BF8C300020CB
:109D9000782A0020581A002038B5164C94F86631FD
:109DA000002B154B14BF012200221A700BD0052284
:109DB00004F5A67111485AF0B3FC152204F25111B2
:109DC0000F485AF0ADFC94F86731002B0D4B14BFCF
:109DD000012200221A700CD00B4C0C4A04F1200511
:109DE000234603CBAB42106051601C4602F10802CF
:109DF000F6D138BD581A00208C300020782A002077
:109E0000602A00208D300020841B0020603000205C
:109E100038B50C4B1B789BB90B4B0C4C03F1200550
:109E200018685968224603C20833AB421446F7D17A
:109E3000074B012483F86741FFF7AEFF204638BD8A
:109E40000020FCE78D30002060300020841B0020C3
:109E5000581A002038B50B4C94F8295185B10522C9
:109E6000094904F5A6705AF05BFC1522074904F273
:109E700051105AF055FC012384F86631FFF78CFF2E
:109E8000284638BD581A0020782A0020602A002071
:109E9000F0B50C2934D8DFE801F08A3333335F336F
:109EA0003333343333330700048C9689B2F802C05D
:109EB0001788744D24F480542404240C0484038CE7
:109EC0008488818B23F4005321F4E6411B040904A8
:109ED0001B0C46EA0C06090C43EA063341EA07214B
:109EE000A8429BB2A4B289B200F09E8005F58065BD
:109EF000A84200F099809268848081830264038480
:109F0000F0BD048C9589B2F802E017885D4E24F408
:109F100080742404240C0484038CB0F804C0818B66
:109F200023F400731B0421F0730145EA0E041B0C9B
:109F3000090443EA0423090CB0429BB21FFA8CF5D2
:109F400041EA07015BD0504CA04258D0926885800E
:109F50008183C2630384F0BD048C9589B2F802E06A
:109F6000B2F800C0474E24F010042404240C0484EA
:109F7000038C8788018B23F0200321F4E6411B0426
:109F800009041B0C45EA0E04090C43EA041341EAD8
:109F90000C21B0429BB2BFB289B25BD03A4CA04216
:109FA00058D092688780018382630384F0BD048C5B
:109FB0009589B2F802C01788324E24F001042404B7
:109FC000240C0484018C8488038B21F0020123F08B
:109FD000730309041B04090C45EA0C051B0CB04271
:109FE00041EA0501A4B243EA070324D0264DA84262
:109FF00021D092688480038342630184F0BDD489B8
:10A00000168A578A23F4006343EA04234FF6FF3489
:10A010001C40938825F440553E4344EA032345EA17
:10A0200006149BB2A5B291E7158A24F4804444EA51
:10A030008514A4B25FE7D689158A578A21F00801F2
:10A040003143968824F4407421F004013D433143A8
:10A050002C43CEE7D489168AB2F812C023F08003CD
:10A0600043EA04134FF6BF741C40938827F44065FD
:10A0700046EA0C0644EA031345EA86049BB2A7B2FB
:10A080008FE700BF00000140000401402DE9F047C8
:10A090004FF40C7200213448344D354E354FDFF803
:10A0A000E480DFF8E490DFF8E4A05AF0FBFA324AEB
:10A0B0003248DFF8DCC0DFF8DCE002F51C6426E0A3
:10A0C000B3F1804F2FD0B34232D0BB4232D0634580
:10A0D00032D0734532D0434532D04B4532D0534510
:10A0E00032D027498B4232D001F580618B4231D08A
:10A0F000A1F598318B4230D001F580618B422ED092
:10A1000001F580618B422CD02032944209D0136833
:10A110008342D5D101216B6C20320B4394426B6496
:10A12000F5D1BDE8F08701212B6C0B432B64EBE7E5
:10A130000221F9E70421F7E70821F5E71021F3E709
:10A140002021F1E70221E6E74FF48031E3E74FF405
:10A150000031E0E74FF48021DDE74021E4E7802192
:10A16000E2E74FF48071DFE7A431002000380240BD
:10A170000004004000080040684706080000014055
:10A180000044014000140040000401400040014030
:10A19000000C0040001000402DE9F843304D2B8AA0
:10A1A000B5F80C8018EA030827D02E4E4FF0004770
:10A1B000B8FA88F327FA03F2D24391B21B3B08EABC
:10A1C00002082982042B15D8DFE803F0372D231964
:10A1D0000300D6F82C32002B39D1EB6A1FFA83F931
:10A1E000D6F8284234B12368204649469847646827
:10A1F000002CF8D1B8F1000FDAD1BDE8F883D6F819
:10A200000802696B036889B29847B8F1000FCFD193
:10A21000F3E7D6F80C02A96B036889B29847B8F146
:10A22000000FC5D1E9E7D6F81002E96B036889B2DF
:10A230009847B8F1000FBBD1DFE7D6F81402296CBC
:10A24000036889B29847B8F1000FB1D1D5E703F19F
:10A25000FF3900231FFA89F9C6F82C32C0E700BF86
:10A2600000200040A43100202DE9F843304D2B8A16
:10A27000B5F80C8018EA030827D02E4E4FF000479F
:10A28000B8FA88F327FA03F2D24391B21B3B08EAEB
:10A2900002082982042B15D8DFE803F0372D231993
:10A2A0000300D6F8DC31002B39D1EB6A1FFA83F9B1
:10A2B000D6F8D84134B123682046494698476468A7
:10A2C000002CF8D1B8F1000FDAD1BDE8F883D6F848
:10A2D000B801696B036889B29847B8F1000FCFD114
:10A2E000F3E7D6F8BC01A96B036889B29847B8F1C7
:10A2F000000FC5D1E9E7D6F8C001E96B036889B260
:10A300009847B8F1000FBBD1DFE7D6F8C401296C3C
:10A31000036889B29847B8F1000FB1D1D5E703F1CE
:10A32000FF3900231FFA89F9C6F8DC31C0E700BF06
:10A3300000180040A43100202DE9F843304D2B8A4D
:10A34000B5F80C8018EA030827D02E4E4FF00047CE
:10A35000B8FA88F327FA03F2D24391B21B3B08EA1A
:10A3600002082982042B15D8DFE803F0372D2319C2
:10A370000300D6F8B431002B39D1EB6A1FFA83F908
:10A38000D6F8B04134B123682046494698476468FE
:10A39000002CF8D1B8F1000FDAD1BDE8F883D6F877
:10A3A0009001696B036889B29847B8F1000FCFD16B
:10A3B000F3E7D6F89401A96B036889B29847B8F11E
:10A3C000000FC5D1E9E7D6F89801E96B036889B2B7
:10A3D0009847B8F1000FBBD1DFE7D6F89C01296C94
:10A3E000036889B29847B8F1000FB1D1D5E703F1FE
:10A3F000FF3900231FFA89F9C6F8B431C0E700BF5E
:10A4000000480140A43100202DE9F843304D2B8A4B
:10A41000B5F80C8018EA030827D02E4E4FF00047FD
:10A42000B8FA88F327FA03F2D24391B21B3B08EA49
:10A4300002082982042B15D8DFE803F0372D2319F1
:10A440000300D6F86431002B39D1EB6A1FFA83F987
:10A45000D6F8604134B1236820464946984764687D
:10A46000002CF8D1B8F1000FDAD1BDE8F883D6F8A6
:10A470004001696B036889B29847B8F1000FCFD1EA
:10A48000F3E7D6F84401A96B036889B29847B8F19D
:10A49000000FC5D1E9E7D6F84801E96B036889B236
:10A4A0009847B8F1000FBBD1DFE7D6F84C01296C13
:10A4B000036889B29847B8F1000FB1D1D5E703F12D
:10A4C000FF3900231FFA89F9C6F86431C0E700BFDD
:10A4D00000400140A43100202DE9F843324D2B8A81
:10A4E000B5F80C8018EA030827D0304E4FF000472B
:10A4F000B8FA88F327FA03F2D24391B21B3B08EA79
:10A5000002082982042B15D8DFE803F03B31271D10
:10A510000300D6F83C31002B3DD1EB6A1FFA83F9DA
:10A52000D6F8384134B123682046494698476468D4
:10A53000002CF8D1B8F1000FDAD11D491D48BDE853
:10A54000F843FFF70DB8D6F81801696B036889B2B4
:10A550009847B8F1000FCBD1EFE7D6F81C01A96BF3
:10A56000036889B29847B8F1000FC1D1E5E7D6F882
:10A570002001E96B036889B29847B8F1000FB7D1A1
:10A58000DBE7D6F82401296C036889B29847B8F153
:10A59000000FADD1D1E703F1FF3900231FFA89F98C
:10A5A000C6F83C31BCE700BF00040140A4310020E4
:10A5B00084330020001C00402DE9F843304D2B8AE5
:10A5C000B5F80C8018EA030827D02E4E4FF000474C
:10A5D000B8FA88F327FA03F2D24391B21B3B08EA98
:10A5E00002082982042B15D8DFE803F0372D231940
:10A5F0000300D6F83C31002B39D1EB6A1FFA83F9FE
:10A60000D6F8384134B123682046494698476468F3
:10A61000002CF8D1B8F1000FDAD1BDE8F883D6F8F4
:10A620001801696B036889B29847B8F1000FCFD160
:10A63000F3E7D6F81C01A96B036889B29847B8F113
:10A64000000FC5D1E9E7D6F82001E96B036889B2AC
:10A650009847B8F1000FBBD1DFE7D6F82401296C89
:10A66000036889B29847B8F1000FB1D1D5E703F17B
:10A67000FF3900231FFA89F9C6F83C31C0E700BF53
:10A6800000040140A43100202DE9F843304D2B8A0D
:10A69000B5F80C8018EA030827D02E4E4FF000477B
:10A6A000B8FA88F327FA03F2D24391B21B3B08EAC7
:10A6B00002082982042B15D8DFE803F0372D23196F
:10A6C0000300D6F8C430002B39D1EB6A1FFA83F9A6
:10A6D000D6F8C04034B1236820464946984764689C
:10A6E000002CF8D1B8F1000FDAD1BDE8F883D6F824
:10A6F000A000696B036889B29847B8F1000FCFD109
:10A70000F3E7D6F8A400A96B036889B29847B8F1BB
:10A71000000FC5D1E9E7D6F8A800E96B036889B254
:10A720009847B8F1000FBBD1DFE7D6F8AC00296C31
:10A73000036889B29847B8F1000FB1D1D5E703F1AA
:10A74000FF3900231FFA89F9C6F8C430C0E700BFFB
:10A75000000C0040A43100202DE9F8432F4D2B8A36
:10A76000B5F80C8018EA030827D02D4E4FF00047AB
:10A77000B8FA88F327FA03F2D24391B21B3B08EAF6
:10A7800002082982042B15D8DFE803F0352B2219A3
:10A790000300D6F89C30002B37D1EB6A1FFA83F9FF
:10A7A000D6F8984034B123682046494698476468F3
:10A7B000002CF8D1B8F1000FDAD1BDE8F883B06F02
:10A7C000696B036889B29847B8F1000FD0D1F4E7FC
:10A7D000F06FA96B036889B29847B8F1000FC7D131
:10A7E000EBE7D6F88000E96B036889B29847B8F1C7
:10A7F000000FBDD1E1E7D6F88400296C036889B267
:10A800009847B8F1000FB3D1D7E703F1FF39002320
:10A810001FFA89F9C6F89C30C2E700BF0008004063
:10A82000A43100202DE9F8432C4D2B8AB5F80C807B
:10A8300018EA030825D02A4E4FF00047B8FA88F3EB
:10A8400027FA03F2D24391B21B3B08EA020829829D
:10A85000042B13D8DFE803F0322920170300736FAD
:10A86000002B34D1EB6A1FFA83F9346F34B12368BB
:10A870002046494698476468002CF8D1B8F1000F8B
:10A88000DCD1BDE8F883306D696B036889B2984705
:10A89000B8F1000FD2D1F4E7706DA96B036889B2EB
:10A8A0009847B8F1000FC9D1EBE7B06DE96B0368C9
:10A8B00089B29847B8F1000FC0D1E2E7F06D296C7A
:10A8C000036889B29847B8F1000FB7D1D9E703F10F
:10A8D000FF3900231FFA89F97367C6E700040040B7
:10A8E000A43100202DE9F8434FF080452B8AB5F8BC
:10A8F0000C8018EA030825D0294E4FF00047B8FA1B
:10A9000088F327FA03F2D24391B21B3B08EA02080C
:10A910002982042B13D8DFE803F032292017030023
:10A92000F36C002B34D1EB6A1FFA83F9B46C34B1A9
:10A9300023682046494698476468002CF8D1B8F14E
:10A94000000FDCD1BDE8F883B06A696B036889B297
:10A950009847B8F1000FD2D1F4E7F06AA96B036809
:10A9600089B29847B8F1000FC9D1EBE7306BE96BBA
:10A97000036889B29847B8F1000FC0D1E2E7706B65
:10A98000296C036889B29847B8F1000FB7D1D9E7AD
:10A9900003F1FF3900231FFA89F9F364C6E700BF0A
:10A9A000A43100202DE9F8432E4D2B8AB5F80C80F8
:10A9B00018EA030825D02C4E4FF00047B8FA88F368
:10A9C00027FA03F2D24391B21B3B08EA020829821C
:10A9D000042B13D8DFE803F0362D241B0300736A21
:10A9E000002B38D1EB6A1FFA83F9346A34B123683B
:10A9F0002046494698476468002CF8D1B8F1000F0A
:10AA0000DCD11A491A48BDE8F843FEF7A9BD306801
:10AA1000696B036889B29847B8F1000FCED1F0E7AF
:10AA20007068A96B036889B29847B8F1000FC5D167
:10AA3000E7E7B068E96B036889B29847B8F1000F9F
:10AA4000BCD1DEE7F068296C036889B29847B8F199
:10AA5000000FB3D1D5E703F1FF3900231FFA89F9BD
:10AA60007362C2E700000140A43100200C330020D3
:10AA7000004401402DE9F8432C4D2B8AB5F80C8099
:10AA800018EA030825D02A4E4FF00047B8FA88F399
:10AA900027FA03F2D24391B21B3B08EA020829824B
:10AAA000042B13D8DFE803F0322920170300736A60
:10AAB000002B34D1EB6A1FFA83F9346A34B123686E
:10AAC0002046494698476468002CF8D1B8F1000F39
:10AAD000DCD1BDE8F8833068696B036889B29847B8
:10AAE000B8F1000FD2D1F4E77068A96B036889B29E
:10AAF0009847B8F1000FC9D1EBE7B068E96B03687C
:10AB000089B29847B8F1000FC0D1E2E7F068296C2C
:10AB1000036889B29847B8F1000FB7D1D9E703F1BC
:10AB2000FF3900231FFA89F97362C6E7000001406C
:10AB3000A4310020F0B40568AB0AA3F58013522BB2
:10AB40005AD8364CE45C0D2C56D84379B5F80CC075
:10AB5000022023FA00F6B04087B2A000334606195F
:10AB600003EB46032E4E00294ED047EA0C0703F1B3
:10AB7000040C46F8231046F82C20AF812023282708
:10AB800017FB0437F319EFF31181502282F3128877
:10AB9000021906EBC202D2F810C0BCF1000F03D0BC
:10ABA00046F807C013690433021906EBC20257695D
:10ABB00017B11F6053690433021906EBC20297698B
:10ABC00017B11F6093690433021906EBC202D769FB
:10ABD00017B11F60D36904330022C9B21A6081F330
:10ABE0001188044406EBC406336A3BB9AB8923F0F1
:10ABF00001031B041B0CAB81F0BC7047AB8943F015
:10AC00000103AB81F0BC70472CEA070703F1040C89
:10AC1000AF8146F8231046F82C20AFE770A5060850
:10AC2000A431002010B503687D487E4C0139834271
:10AC300082B0246889B200F0B180A0F580608342C0
:10AC400000F0AC8000F58040834200F0828000F587
:10AC5000806083427DD000F58060834279D018887F
:10AC60006408B4FBF2F4013CA4B282B2B3F1804FA9
:10AC70000AD06D48834207D000F58060834203D03C
:10AC800000F58060834202D122F0700292B26748E0
:10AC9000834200F0918000F58060834200F095804F
:10ACA00022F4407200F56C4092B283421A80D9625D
:10ACB0001C8540F09380012100221A869982198810
:10ACC0005B4841F00101834219804AD0B3F1804FC3
:10ACD00000F08F80544A934200F08D8002F580622C
:10ACE000934200F08A8002F58062934200F08780F0
:10ACF00002F58062934200F0848002F58062934204
:10AD000000F0818002F5704293427ED002F57052CD
:10AD100093427CD002F5806293427AD002F5806241
:10AD2000934278D0A2F59832934276D002F58062B1
:10AD3000934215D002F58062934208BF0D2210D0D5
:10AD400002A84FF0012340F8043D3EF04DFC02B054
:10AD500010BD1888B4FBF2F4013CA4B282B285E7BE
:10AD60000C22344B03EBC20201A892F8E1498DF8A2
:10AD70000440012300228DF805308DF807308DF84E
:10AD800006203EF031FC1B2C0FD02E2CDFD12A4B9D
:10AD9000019301A83EF028FC02B010BD1888B4FB56
:10ADA000F2F4013CA4B282B26EE7244B019301A8F5
:10ADB0003EF01AFC02B010BD01201A80D9621C8539
:10ADC00098821A8802431A8084E701201A80D96287
:10ADD0001C8598821A8802431A8077E7104A9342AA
:10ADE0003FF469AF01229A821A8842F001021A8068
:10ADF0006CE70122B5E70222B3E70322B1E70422A0
:10AE0000AFE70522ADE70622ABE70722A9E7082254
:10AE1000A7E70922A5E70A22A3E70B22A1E700BFC3
:10AE20000004014064CF00200004004000100040F6
:10AE3000000001404C4706082C01000119010001E7
:10AE40002C4B98423DD0B0F1804F3CD0A3F57C43D1
:10AE500098423AD003F58063984238D003F5806376
:10AE6000984236D003F58063984234D003F580636E
:10AE7000984234D003F57043984232D003F57053B2
:10AE800098422AD003F5806398422CD003F5806362
:10AE900098422AD0A3F59833984228D003F58063CE
:10AEA000984207D003F58063984208BF0D2202D074
:10AEB000002070470C22104B03EBC20393F8E0090B
:10AEC00070470022F7E70122F5E70222F3E70322A9
:10AED000F1E70422EFE70522EDE70822EBE706227F
:10AEE000E9E70722E7E70922E5E70A22E3E70B2281
:10AEF000E1E700BF000001404C470608800AA0F5CA
:10AF00008010522808D8054B1B5C0D2B04D8044A2E
:10AF1000134493F94C0A70470020704770A5060847
:10AF20004C47060870B40E4E10243346012500220B
:10AF300003E001324E2A0BD01C79A04203F120031A
:10AF4000F7D18D4207D0013201354E2AEDB2F3D14F
:10AF5000002070BC704706EB421070BC704700BF09
:10AF600068470608002330B40E4A1D46012403E05A
:10AF700001330C2B0CD0947930EA040402F1200246
:10AF8000F6D1A94207D0013301350C2BEDB2F2D135
:10AF9000002030BC7047044A02EB431330BC93F8E6
:10AFA000600A7047A85106084C4706082DE9F84387
:10AFB000214C06460F46002514F8010C58B12378A1
:10AFC000194643B1FFF7AEFF014620B10068FFF715
:10AFD00095FFB04222D00135152D04F10304EBD1C9
:10AFE000164BD3F80090B9F1000F21DD03F10408EE
:10AFF0004146002402E00134A14519D08D6828683B
:10B00000FFF77CFF864201F58071F4D16B79BB427A
:10B01000F1D108EB042303F1FC000AE04B79BB42B9
:10B02000D9D1074810F8153000EB45000BB9D7E728
:10B030000448BDE8F88300BF71CD00201400001063
:10B04000B0CD0020285306082DE9F04128B3154E55
:10B05000002402E00134152C1FD065002B19F718CD
:10B06000F35C8342F6D17B78ABB18846194617462C
:10B07000FFF758FF06460068FFF740FF7179FFF7BA
:10B0800095FF03784BB9084B1D4403F814806F708B
:10B090003046BDE8F0811B68FFDE00263046BDE883
:10B0A000F08100BF70CD0020B0CD002010B40B495E
:10B0B000002301E0152B0CD003EB430201338C5C21
:10B0C00084420A44F6D1517818B111B15DF8044BAD
:10B0D00028E700205DF8044B704700BF70CD0020CA
:10B0E00008B101B11EE70020704700BF10B40A4943
:10B0F000002301E0152B0AD003EB430201338C5CE3
:10B1000084420A44F6D110465DF8044B7047002093
:10B110005DF8044B704700BF70CD00209A4AF0B430
:10B1200002F5C470994F9A4D012603E0083290420F
:10B1300000F020819379002BF8D1136803F13F418F
:10B1400001F57E01890A795C01F01F044909032990
:10B1500006FA04F400F01481042900F00D8102299C
:10B1600002D1696C0C436C649188CC070DD51C68C6
:10B1700024F003041C601C681C60DC6824F00304D9
:10B18000DC60DC6844F00104DC608C070DD51C68D1
:10B1900024F00C041C601C681C60DC6824F00C04A7
:10B1A000DC60DC6844F00404DC604C070DD51C68EE
:10B1B00024F030041C601C681C60DC6824F030043F
:10B1C000DC60DC6844F01004DC600C070DD51C6802
:10B1D00024F0C0041C601C681C60DC6824F0C004FF
:10B1E000DC60DC6844F04004DC60CC060DD51C68F3
:10B1F00024F440741C601C681C60DC6824F44074F7
:10B20000DC60DC6844F48074DC608C060DD51C685E
:10B2100024F440641C601C681C60DC6824F44064F6
:10B22000DC60DC6844F48064DC604C060DD51C688E
:10B2300024F440541C601C681C60DC6824F44054F6
:10B24000DC60DC6844F48054DC600C060DD51C68BE
:10B2500024F440441C601C681C60DC6824F44044F6
:10B26000DC60DC6844F48044DC60CC050DD51C68EF
:10B2700024F440341C601C681C60DC6824F44034F6
:10B28000DC60DC6844F48034DC608C050DD51C681F
:10B2900024F440241C601C681C60DC6824F44024F6
:10B2A000DC60DC6844F48024DC604C050DD51C684F
:10B2B00024F440141C601C681C60DC6824F44014F6
:10B2C000DC60DC6844F48014DC600C050DD51C687F
:10B2D00024F440041C601C681C60DC6824F44004F6
:10B2E000DC60DC6844F48004DC60CC040DD51C68B0
:10B2F00024F040741C601C681C60DC6824F04074FE
:10B30000DC60DC6844F08074DC608C040DD51C6863
:10B3100024F040641C601C681C60DC6824F04064FD
:10B32000DC60DC6844F08064DC604C040DD51C6893
:10B3300024F040541C601C681C60DC6824F04054FD
:10B34000DC60DC6844F08054DC6009047FF5EEAE1C
:10B35000196821F04041196019681960D96821F015
:10B360004041D960D968083241F080419042D960AB
:10B370007FF4E0AEF0BC7047296B0C432C63F3E61E
:10B38000296C0C432C64EFE6DCCD002098C906083C
:10B39000003802402DE98048013085B0C3B20393E4
:10B3A000954C964FDFF860A2954D964E0A23029376
:10B3B0004FF00EFC4FF4FA73DFF850E201934FF0B8
:10B3C0001008DAF80430C3F30803002B40F0D280F1
:10B3D000EFF31183002B40F0CD802068AA6823682A
:10B3E0009842FAD133689A42F7D8D7F800C04FF4A0
:10B3F0007A7101FB0CF39B1AB3FBFCF301FB0030E9
:10B400004FF47A7C4FF00109DAF80430C3F30803F3
:10B41000002B40F09180EFF31183002B40F08C80E3
:10B420002368A96822689342FAD132689142F7D81A
:10B430003A680CFB02FBABEB0101B1FBF2F10CFB38
:10B4400003131B1AB3F57A7FDED3019B013B0193F3
:10B45000B7D103984FF010FA4FF47A73DFF8ACE1EC
:10B4600001934FF01008DAF80430C3F30803002BFF
:10B4700040F0A180EFF31183002B40F09C80206806
:10B48000AA6823689842FAD133689A42F7D8D7F865
:10B4900000C04FF47A7101FB0CF39B1AB3FBFCF371
:10B4A00001FB00304FF47A7C4FF00109DAF80430E8
:10B4B000C3F3080313BBEFF31183FBB92368A96837
:10B4C00022689342FAD132689142F7D83A680CFB6D
:10B4D00002FBABEB0101B1FBF2F10CFB03131B1AF6
:10B4E000B3F57A7FE2D3019B013B0193BBD1029B71
:10B4F000013B02937FF45CAF54F050FAEFF31181FB
:10B5000088F31288D5F808B02B68DB0344BFCEF867
:10B510000090D5F808B02368DEF80020C9B281F3A6
:10B520001188396813440CFB01F2A2EB0B02B2FB49
:10B53000F1F20CFB0323D2E7EFF3118188F31288B9
:10B54000D5F808B02B68DB0344BFCEF80090D5F8DF
:10B5500008B02368DEF80020C9B281F31188396889
:10B5600013440CFB01F2A2EB0B02B2FBF1F20CFB59
:10B57000032366E7EFF3118388F31288D5F808C038
:10B580002A68D20304D50122CEF80020D5F808C0DD
:10B590002068DEF80090DBB283F3118839684FF43D
:10B5A0007A72484402FB01F3A3EB0C03B3FBF1F303
:10B5B00002FB003024E7EFF3118388F31288D5F8FB
:10B5C00008C02A68D20304D50122CEF80020D5F89D
:10B5D00008C02068DEF80090DBB283F31188396878
:10B5E0004FF47A72484402FB01F3A3EB0C03B3FB64
:10B5F000F1F302FB003055E750D8002054D800206A
:10B6000010E000E058D8002000ED00E04CD8002009
:10B610002DE9F04F85B0CDE902109B4DDFF878A2FF
:10B62000029B013B0293013300F02A814FF0D0FAD4
:10B63000964C974FDFF864E2964E4FF4FA730193FD
:10B640004FF01008DEF80430C3F30803002B40F07D
:10B65000F680EFF31183002B40F0F1802068AA6898
:10B6600023689842FAD133689A42F7D8D7F800C0D5
:10B670004FF47A7101FB0CF39B1AB3FBFCF301FB53
:10B6800000304FF47A7C4FF00109DEF80430C3F348
:10B690000803002B40F0B580EFF31183002B40F03E
:10B6A000B0802368A96822689342FAD13268914237
:10B6B000F7D83A680CFB02FBABEB0101B1FBF2F1EE
:10B6C0000CFB03131B1AB3F57A7FDED3019B013BFE
:10B6D0000193B7D1039B6F4E581CC0B24FF0CCF80A
:10B6E000DFF8B8E14FF47A730193DEF80430C3F366
:10B6F00008034FF01008002B44D1EFF31183002B07
:10B7000040D12068AA6823689842FAD133689A42E7
:10B71000F7D8D7F800C04FF47A7101FB0CF39B1AED
