:020000040800F2
:10000000F0FF00108DCB0508F3D9030841DF01088C
:100010002DCC05082DCC05082DCC050800000000CE
:10002000000000000000000000000000F1D90308FB
:10003000EFD9030800000000EDD90308A5DF01088F
:100040002DCC05082DCC05082DCC05082DCC050898
:100050002DCC05082DCC0508DD7C0308097E03089E
:10006000CD7D0308917D0308557D0308CD1005085B
:10007000BD100508AD1005089D100508891005087C
:1000800075100508611005082DCC05082DCC050854
:100090002DCC05082DCC05082DCC0508197D0308AD
:1000A000F9960108959C010829960108659D0108AB
:1000B000D59B0108159B0108499A0108A11905085B
:1000C000A9190508951905089D1905082DCC0508DD
:1000D0002DCC0508B1E101082DCC0508F5E001089B
:1000E000A17C03082DCC050839170408599501088F
:1000F000C997010889940108A99801084D100508BD
:100100002DCC05082DCC0508799901082DCC0508C2
:100110002DCC05082DCC0508B53C01083D3B010858
:10012000391005082510050811100508FD0F0508F0
:10013000E90F05082DCC05082DCC05082DCC0508A8
:100140002DCC05082DCC05082DCC050829F0030879
:10015000D50F0508C10F0508AD0F050839E00108E6
:1001600089190508911905082DCC05082DCC05081D
:100170002DCC05082DCC05082DCC05082DCC050867
:080180002DCC05082DCC05086B
:0801880034C70500010000006E
:100190000702010002000000042000206824002063
:1001A00000000000100900081D0202000600000007
:1001B000D01F00206C240020000000000000000080
:1001C000060203000C000000EC1F0020F4280020B1
:1001D0000000000085900008081203000F000000D6
:1001E000DC1F00200029002000000000A586000878
:1001F0002700010004000000181B00201029002027
:1002000000000000120900080A02010014000000AA
:100210004C50002084530020000000009900010889
:10022000F82101000600000024530020985300200C
:100230000000000016090008030001000100000092
:1002400030530020A05300200000000000000000F8
:1002500010100100020000003C4B0020A4530020BD
:10026000000000001C09000825201E002C010000D1
:1002700068500020A853002000000000000000008B
:10028000280204000400000044570020A858002061
:100290000000000009870008270204000400000095
:1002A00040570020AC58002000000000FD860008E8
:1002B0001A0201003C00000000560020B058002047
:1002C000000000006D930008031201003D000000D3
:1002D000F0560020EC580020000000001E09000825
:1002E0003810010001000000F05400202C590020BB
:1002F000000000005C090008012001000C00000063
:10030000F46E0020B87500200000000060090008AD
:100310000EF003009E010000406A0020C47500201A
:10032000000000001D1C050813000100040000006F
:100330007C75002064770020000000006C09000834
:10034000010101000400000080690020687700209E
:100350000000000000000000000101000400000097
:10036000786900206C770020000000007009000808
:100370000201010003000000746900207077002072
:1003800000000000A9EB0008220201001C0100008F
:1003900044730020747700200000000039920008A8
:1003A0000C20060058020000046C00209078002009
:1003B0000000000089EB0008010201000B000000B2
:1003C0008C690020E87A0020000000009586000873
:1003D0001B02010010000000BC710020F47A002014
:1003E000000000000D8700081B1001000C00000039
:1003F000B45A0020047B002000000000C103020862
:1004000021020100F000000038590020107B00207C
:1004100000000000A1020208020001000C00000020
:10042000947C0020247D00200000000000000000DB
:100430002902010040000000087C0020307D0020DF
:1004400000000000740900082C00040010000000E7
:10045000F0890020E08900200000000045DE02084D
:100460002B00120024000000248A0020008A0020B3
:100470000000000015DE02082920140078000000AA
:100480002C880020488A00200000000000000000A6
:10049000F62101000C000000B0860020C08A002078
:1004A00000000000B40900081C0202001C0000004B
:1004B00044860020108B002000000000B98F000847
:1004C0002820010018000000608600202C8B0020EE
:1004D00000000000A9E202080B3001001A00000031
:1004E000409A0020BC9F002000000000C0090008C6
:1004F0001F300100240000007C910020D89F0020C4
:1005000000000000DC0900080502010004000000F2
:10051000109D0020FC9F002000000000000A000841
:10052000030101000A000000C499002000A000207F
:100530000000000081C10308130201000400000054
:10054000EC8B00200CA0002000000000040A000832
:100550002312010010000000F4A100201CA90020BB
:1005600000000000080A0008051001000600000055
:10057000ECA100202CA9002000000000180A0008AF
:10058000371001002E000000C8A8002034A9002068
:10059000000000001E0A00080E0201000200000018
:1005A000E8A1002064A90020000000004C0A000817
:1005B0001610010006000000E0A1002068A900203C
:1005C000000000004E0A00082F1001002200000069
:1005D000F8A8002070A9002000000000540A0008BC
:1005E0001E0001000900000004A1002094A90020C1
:1005F00000000000760A0008F58101006800000094
:1006000014A00020A0A9002000000000A5010208FD
:1006100023200100100000008CA1002008AA002067
:100620000000000031BF0208FD0701007600000055
:100630002CA8002018AA00200000000021EC0108CE
:10064000261001000E000000A0AA002090AA0020A1
:1006500000000000851704081400010004000000D9
:10066000F8A50020B0AA002000000000800A0008C1
:100670000D1001004C000000F0C900202CD3002018
:1006800000000000658902080400080080000000E6
:1006900030C9002078D300200000000000000000D6
:1006A0000902010001000000D8C80020F8D3002092
:1006B00000000000840A0008FD0101002400000081
:1006C00070C80020FCD3002000000000337801082F
:1006D000182001003200000038C8002020D400207B
:1006E00000000000F1920008FB0101000100000081
:1006F000F8C7002054D4002000000000A591000895
:10070000FC01010009000000C4C6002058D40020EC
:1007100000000000B5910008F7010100060000008C
:10072000BCC6002064D4002000000000860A000837
:10073000F901010004000000B8C600206CD40020BC
:1007400000000000D94A0308160215003F0000000F
:10075000C0AE002070D4002000000000819200088C
:100760003400010010000000E4C50020B0D40020D7
:10077000000000004D1C05081102010008000000E7
:10078000BCC50020C0D40020000000008C0A000876
:100790001212010004000000B4C50020C8D40020DB
:1007A00000000000940A00080A80010028000000F0
:1007B0008CC50020CCD400200000000019BE020827
:1007C000061001001C000000A4AE0020F4D400209C
:1007D00000000000D191000812200100110000006B
:1007E000CCC4002010D5002000000000980A0008AA
:1007F000000201000B00000008C2002024D50020E8
:100800000000000000000000FA01010003000000E9
:100810009CBB002030D50020000000008986000825
:1008200002020100030000009CAE002034D500202D
:1008300000000000000000000C02010004000000A5
:100840007CAE002038D50020000000007186000832
:100850001F0208001000000024BB00203CD500202F
:100860000000000051860008FE0101001400000095
:10087000F4B900204CD500200000000021860008BB
:10088000100201000100000068F9002064F9002056
:1008900000000000AA0A000819000100050000007D
:1008A0003CFF002084FF002000000000AC0A00088C
:1008B0001A0001000E00000008FE00208CFF00203E
:1008C00000000000B20A0008203201000A00000007
:1008D000F8FC00209CFF002000000000FD1B050824
:1008E00015001000700000008CFA0020A8FF002006
:1008F00000000000000000002A0008006000000066
:1009000070FE00201800012000000000D51B050823
:10091000013C200300000101F40114000005000067
:1009200000000000000000000000000000000000C7
:1009300000000000000000000000000000000000B7
:1009400000000000000000000000000000000000A7
:100950000000000000000000000001000000000096
:10096000E8036400040A000114001E0008004400AB
:1009700090010000000000000000000000000000E6
:100980000000000000000000000000000000000067
:100990000000000000000000000000000000000057
:1009A0000000000000000000000000000000000047
:1009B0000000000000000000010000000202000032
:1009C000AE014A015E012C01640102000000010039
:1009D0000A019A01001E0A00000200000000000047
:1009E00000010000000500000102030000000000FB
:1009F0000000000000000000000000000080070070
:100A000000000000000001350000000000000000B0
:100A10000000000000000000200001010000200094
:100A20003200C800D00796001400320028004C04A1
:100A300040060005500014000F000800640001008B
:100A4000010005000A000000F40196000000C4093E
:100A5000000019000000000000000000000000007D
:100A60000000000000000000000000000000000086
:100A70000000000000000005010000000000000070
:100A800003000023390018010000000000000000EE
:100A900001010101FFFFFFFF00000001000005460A
:100AA00059344F0000080002000000000000280137
:100AB00000007E05EA05B4053200E803D007000017
:100AC0001A03000000000000000000000000000009
:100AD0000000000000000000000000000403090402
:100AE00012010002000000408304205700020102AE
:100AF00003010000FD930008558700085187000896
:100B00004D87000849940008498700084587000878
:100B10009C0E060809E903083FBC0308EDE703083B
:100B2000000000000000000081DF030891DE0308E0
:100B300000000000000000000000000015BB0308DA
:100B4000ED870008E18700087D9900089999000861
:100B50009987000861990008459900081F00000066
:100B60001C0000001F0000001E0000001F0000000D
:100B70001E0000001F0000001F0000001E000000FB
:100B80001F0000001E0000001F0000000068214C34
:100B90003C180608F4010000FFFF00000000FA43C3
:100BA0000000FA430000803F0000803F000000008A
:100BB0000000000000000000A58C020800000000FA
:100BC0000000000000000000FFFFFFFF0000000029
:100BD000745300200800000000000000645300204F
:100BE00008000000685E0C0002FF00000000010029
:100BF000E00101FF0100000069F8010800000000A9
:100C0000000000006C2D060800000000000000003D
:100C100000000000A83306080000000000000000EB
:100C20000000000060340608000000000000000022
:100C3000000000000C34060808000000000000005E
:100C400000000000C12D02083B7200200101FF00DE
:100C5000FFFFFFFFB1550208000000000000000088
:100C600034350608ED5802080000000000000000BE
:100C7000EC3406082D202D2D202D2D2D2D202D2D51
:100C80002D00000000000000000000000000000037
:100C90000000000000000000000000000000000054
:100CA000A8340608BC9C00209CFF2C01000000001A
:100CB000F4740020E0150C170000000039720020C9
:100CC00002000000E03406086869002088136F17EE
:100CD000010000006A69002088136F1700000000FF
:100CE000A6CA00200000000000000000A4CA0020E6
:100CF0000000000000000000A2CA00200000000068
:100D000000000000A0CA0020000000000000000059
:100D10009ECA002000000000000000009CCA0020C5
:100D20000000000000000000700F00200000000024
:100D300000000000F168002003000000D035060824
:100D40006069002088136F1701000000069D0020D5
:100D500088136F170000000039F901080000000037
:100D600000000000E03506083A7200200100000093
:100D700034360608089D00200100000040360608B1
:100D8000FE9C00200200000048360608000000001B
:100D900000000000000000005436060821F9010898
:100DA0000000000000000000F0360608000000000F
:100DB00000000000000000004437060800000000AA
:100DC0000000000000000000B43706086C69002035
:100DD00002000000EC370608029D0020E0150C1709
:100DE0000000000001E103087FBC030895E0030850
:100DF0000000000061BB03086DE90308D5DF0308AC
:100E000041DC0308000000000000000021BB0308D3
:100E1000EDBA0308DFBA0308C5DA0308E1DA03080C
:100E2000A9DA03088DDA030873DA0308B7E00308C8
:100E30005DBC0308D7DF03080000000039BB0308CE
:100E400043DC0308A9DF0308ABDB03080000000054
:100E5000000000002DBB0308A47F0020F87F0020C5
:100E6000D60101FFFFFFFFFF4D3C0208000000001C
:100E700000000000FC53060801000000FA0000001A
:100E8000010000000100000001000000000101015C
:100E900000000000EE6E00200000F40101000000E0
:100EA000EC6E00200000F40101000000EA6E00205A
:100EB0000000F40101000000E86E00200000F401D1
:100EC00001000000E66E00200000F40101000000B7
:100ED000E46E00200000F40101000000E26E00203A
:100EE0000000F4010100000039000208FDFF0108C4
:100EF000000000007C400608D26E00200532010090
:100F0000E06E00206400F40101000000DE6E0020AD
:100F10006400C40901000000D06E0020E803D0077F
:100F200001000000CE6E0020E803D00701000000A1
:100F3000CC6E0020E803D00701000000CA6E00203C
:100F40001E00B80B01000000D86E002005000F0045
:100F500001000000DA6E002003000A00010000001A
:100F6000C86E00201E00F40101000000DC6E0020AD
:100F70000200000008410608C66E0020140064004C
:100F800001000000D46E00203200E80301000000E0
:100F9000C46E00200000C80001000000016C0020A9
:100FA00000C80100006C002000500100FF6B002011
:100FB000005A0100FD6B00200200000014410608E9
:100FC00070B9060878B9060862CA00200100C40991
:100FD0000000000060CA00200100C40900000000F9
:100FE0005ECA00200100C409000000005CCA0020A5
:100FF0000100C4090000000058CA00200100C40913
:10100000000000005ACA00200100C40900000000CE
:1010100056CA00200100C4090000000054CA002084
:101020000100C40900000000AB69002000C80100F5
:10103000AA69002000C80100A86900200000FFFF85
:101040000A000000A66900200100C800010000009D
:10105000A46900203200307532000000A26900202F
:1010600005820500A069002005002C010500000094
:101070009F690020055A05009C69002000FF0100BF
:101080009E69002002000000880600209A69002066
:1010900003000000BC8206089B69002000FF0100DD
:1010A0009D69002002000000880600209969002048
:1010B00003000000BC8206088DFF01081DFF010827
:1010C0000000000020410608046F0020EE02CA085C
:1010D00001000000026F002000C801006400000051
:1010E000016F002000C8010064000000006F0020B4
:1010F000020000002C420608866900200000803EA5
:10110000050000008469002080C1803E05000000C9
:101110007E6900200083007D050000007C690020BE
:1011200080C1803E050000007769002000FF0100BB
:10113000706900206400F401010000006E69002065
:1011400004000000384206086D690020020000001B
:101150004C420608316A00200D0000005842060883
:101160002E6A0020006401002C6A00203200102743
:101170000A0000002A6A00200D00000058420608FC
:10118000296A00200D00000058420608286A002045
:10119000020000009042060800000000000000006D
:1011A000000000009C4206080A6F00203E0000007C
:1011B000D4420608086F00200100FF7F01000000F4
:1011C000076F002002000000D0430608336A0020A9
:1011D00003000000E0430608326A0020030000001C
:1011E000E0430608EE6B0020000A0100EC6B0020D3
:1011F0000000E80301000000EA6B00200000E803A3
:1012000001000000E86B00200000E803010000007E
:10121000E66B00200000E80301000000DE6B002008
:101220000000E80301000000E46B00200000E80378
:1012300001000000E26B00200000E8030100000054
:10124000E06B002000140100FC6B00200200000095
:10125000F0430608FA6B00200000F40101000000D2
:10126000F86B00200000F40101000000F66B002084
:101270000000F40101000000F46B00200000F40104
:1012800001000000F26B00200000A00F0100000030
:10129000F06B00200000A00F01000000B16E0020E4
:1012A00019640100B06E002002000000FC43060833
:1012B0006C6E0020E803D0070A0000006A6E002070
:1012C000006401000A0000005F6E0020006401005D
:1012D0005E6E002000640100666E00200064010064
:1012E0000A000000656E0020006401000A00000092
:1012F000646E0020006401000A000000696E002096
:1013000000FF01000A000000686E002000FF0100DD
:101310000A000000676E002000FF01000A000000C4
:10132000636E002001FF01000A000000626E0020D1
:1013300001FF01000A000000616E002001FF0100B2
:101340000A0000003C6A00200000F40101000000D7
:101350003A6A00200000A00F01000000386A002057
:101360000000A00F01000000366A00200000A00F5E
:1013700001000000346A00200000A00F01000000FE
:101380008372002000C80100827200200064010006
:10139000817200200064010080720020006401005E
:1013A0007F720020006401007E720020FF080100AF
:1013B0007D7200200164010095FE010859FE0108BC
:1013C0000000000008440608867200200132010077
:1013D0008572002001000000784406088472002015
:1013E00004000000804406087C72002000640100B4
:1013F0007A7200201400E8030100000078720020D7
:10140000E80330750A0000007772002000C8010070
:101410007672002000C801007572002000C801002B
:10142000747200200032010088720020004B01001D
:1014300087720020040000009444060873720020A4
:10144000006401000A000000967200200000D0072E
:10145000010000009172002000C80100907200207D
:1014600000C801008F72002000C8010094720020A3
:101470000000D007010000008E72002000C80100AB
:101480008D72002000C801008C72002000C801008D
:10149000927200200000D007010000008B72002033
:1014A00000C801008A72002000C801008972002073
:1014B00000C8010071FC010859FC0108000000008F
:1014C000A8440608256A0020005A0100246A00206A
:1014D00000C80100226A0020E803D00701000000D4
:1014E0000000000000000000012E0208444506082C
:1014F0004655525946344F53440000009869002025
:1015000000030100976900200003010095FB01081A
:1015100049FB0108000000009845060809FB010886
:10152000C1FA01080000000034460608E1FB01088A
:101530005941020800000000B446060888690020EE
:1015400001030100E1000208B500020800000000EC
:101550000C4A060845FA0108F9F9010800000000E4
:101560007C4A060881FC0108A9640208000000000A
:10157000184B0608E13F02080D01020800000000B8
:10158000C04B0608D1FC010800000000000000006C
:101590004C4C060889FD010831FD010800000000DF
:1015A000B04C06081DFE0108E1FD01080000000026
:1015B000584D0608896A0208D1FE010800000000A3
:1015C000E44D0608C36E00200106010009FD010874
:1015D000E1FC010800000000E04E0608BF690208B7
:1015E000C53D020800000000504F0608C16A02080D
:1015F000893E020800000000A0500608C26E0020CC
:101600000103010029FC0108F9FB010800000000AA
:1016100074510608196B0208000000000000000069
:10162000D851060891FA0108353C02080000000074
:1016300058520608000000000000000000000000F2
:10164000E4520608F5FE0108013F02080000000010
:1016500054530608FFFF0000FFFFFFFFB80F070805
:10166000000008020503030000000000C00F070887
:1016700001000802050403000000000054A406084D
:101680000200FE010110030000000000ECBC06088F
:10169000030014020003000000000000C80F070848
:1016A00004001F020200080000000000D00F07081D
:1016B00005001F02020108000000000004030904E5
:1016C00012010002EF0201408304563200020102BF
:1016D000030100001201000202020040830440578F
:1016E000000201020301000009022000010104C000
:1016F0003209040000020806500507058102400077
:10170000000705010240000009026400030100C057
:101710003209040000010300000009211101000149
:101720002236000705830309000A080B01020202A2
:10173000010009040100010202010005240010015A
:101740000524010002042402020524060102070503
:1017500082030800FF09040200020A0000000705D6
:101760000102400000070581024000000902430019
:10177000020100C032090400000102020100052438
:1017800000100105240100010424020205240600C2
:1017900001070582030800FF09040100020A000096
:1017A000000705010240000007058102400000001B
:1017B000FF00000000FF0000000000000000AA552C
:1017C0000701000001AA5505010000086081060814
:1017D000FF1FFF1F05010905A101A1000501093037
:1017E00009310932093309350934093609371581B8
:1017F000257F75089508810205091901290815003A
:101800002501950875018102C0C00000090222006F
:10181000010100E032090400000103010200092176
:10182000110100012236000705830309000A0000A8
:101830000000000001020304010203040607080976
:10184000A3E10308A1E603081DE2030897BB030810
:1018500049BD0308A7BB0308C3BB030871BB03084A
:1018600063BB030800000000000000002D202D2DA8
:10187000202D2D2D2D202D2D2D2D000000000000C0
:101880000000000000000000000000AA550B01004D
:1018900000AA5505010000AA550902000000AA553A
:1018A00003009F0001000000C01200008C9F002078
:1018B00000000000B49F0020000000007EFF000038
:1018C000FFFFFFFF01000000A00F000054100708F9
:1018D000881A07080000000019EC0008A086010023
:1018E00004000000000000000000000000000000F4
:1018F00000000000000000000000000000000000E8
:101900000000000000000000000000005410070864
:10191000F01A070800000000C9760108E80300007B
:1019200004000000000000000000000000000000B3
:1019300000000000000000000000000000000000A7
:1019400000000000000000000000000048BF060882
:101950000000000000000000B1FB00087D00000056
:10196000FF00000000000000000000000000000078
:101970000000000000000000000000000000000067
:10198000000000000000000000000000D013070865
:1019900000000000000000001D1001087D00000094
:1019A000FF00000000000000000000000000000038
:1019B0000000000000000000000000000000000027
:1019C00000000000000000000000000038C206080F
:1019D0000000000000000000B55501087D00000077
:1019E000FF000000000000000000000000000000F8
:1019F00000000000000000000000000000000000E7
:101A0000000000000000000000000000ECBF06081D
:101A10000000000000000000A57E0108E8030000AF
:101A200003000000000000000000000000000000B3
:101A300000000000000000000000000000000000A6
:101A4000000000000000000000000000F81A070875
:101A50000000000000000000159D05081027000090
:101A60000300000000000000000000000000000073
:101A70000000000000000000000000000000000066
:101A8000000000000000000000000000C40F070874
:101A90000000000039DA020875AD01085F76000029
:101AA0000500000000000000000000000000000031
:101AB0000000000000000000000000000000000026
:101AC000000000000000000000000000681307088C
:101AD000000000000000000051E401081027000091
:101AE00001000000000000000000000000000000F5
:101AF00000000000000000000000000000000000E6
:101B0000000000000000000000000000041B0708A7
:101B10000000000000000000CD760108E80300008E
:101B200005000000000000000000000000000000B0
:101B300000000000000000000000000000000000A5
:101B4000000000000000000000000000101B07085B
:101B50000000000000000000F9020108204E000013
:101B60000300000000000000000000000000000072
:101B70000000000000000000000000000000000065
:101B8000000000000000000000000000201B07080B
:101B90000000000000000000D5000108204E0000F9
:101BA0000300000000000000000000000000000032
:101BB0000000000000000000000000000000000025
:101BC000000000000000000000000000301B0708BB
:101BD0000000000000000000A1840108400D030087
:101BE00003000000000000000000000000000000F2
:101BF00000000000000000000000000000000000E5
:101C0000000000000000000000000000DCB6060834
:101C10000000000000000000998A02081027000060
:101C200001000000000000000000000000000000B3
:101C300000000000000000000000000000000000A4
:101C400000000000000000000000000068B5060869
:101C50000000000000000000590F020810270000DB
:101C60000300000000000000000000000000000071
:101C70000000000000000000000000000000000064
:101C8000000000000000000000000000401B0708EA
:101C9000000000000000000095150308A086010068
:101CA0000100000000000000000000000000000033
:101CB0000000000000000000000000000000000024
:101CC00000000000000000000000000050BE0608F8
:101CD0000000000000000000317D010850C300003A
:101CE00001000000000000000000000000000000F3
:101CF00000000000000000000000000000000000E4
:101D0000000000000000000000000000F8BB060812
:101D1000000000000000000031790108A861000007
:101D200001000000000000000000000000000000B2
:101D300000000000000000000000000000000000A3
:101D4000000000000000000000000000481B070821
:101D5000000000000000000075650208A086010078
:101D60000100000000000000000000000000000072
:101D70000000000000000000000000000000000063
:101D800000000000000000000000000004B706088A
:101D90000000000000000000E1780108A00F000032
:101DA0000100000000000000000000000000000032
:101DB0000000000000000000000000000000000023
:101DC000000000000000000000000000541B070895
:101DD0000000000000000000F15F02081027000072
:101DE00001000000000000000000000000000000F2
:101DF00000000000000000000000000000000000E3
:101E000000000000000000000000000010CA0608EA
:101E100000000000000000005D6A04081A41000094
:101E200001000000000000000000000000000000B1
:101E300000000000000000000000000000000000A2
:101E4000000000000000000000000000B8BB060811
:101E50000000000000000000B5C1030810270000CA
:101E60000100000000000000000000000000000071
:101E70000000000000000000000000000000000062
:101E8000000000000000000000000000941A070895
:101E9000000000000000000081F6020850C30000AE
:101EA0000100000000000000000000000000000031
:101EB0000000000000000000000000000000000022
:101EC000000000000000000000000000601B070888
:101ED000000000000000000049C90308400D030095
:101EE00000000000000000000000000000000000F2
:101EF00000000000000000000000000000000000E2
:101F0000000000000000000000000000681B07083F
:101F1000000000000000000085760108400D03006D
:101F200000000000000000000000000000000000B1
:101F300000000000000000000000000000000000A1
:101F4000000000000000000000000000701B0708F7
:101F500000000000000000005D47020850C30000C0
:101F6000030000000000000000000000000000006E
:101F70000000000000000000000000000000000061
:101F80000000000000000000000000007C1B0708AB
:101F90000000000000000000994F010840420F00BF
:101FA0000000000000000000000000000000000031
:101FB0000000000000000000000000000000000021
:101FC000000000000000000000000000881B07085F
:101FD00000000000000000004D6C020850C300002B
:101FE00000000000000000000000000000000000F1
:101FF00000000000000000000000000000000000E1
:10200000000000000000000000000000B80B00000D
:102010000102FFFF010101000800000000000401AF
:102020000000000000000002100000000700000097
:102030007D000000006002401060024000000000CF
:1020400000000000000B0000000000000000000085
:102050000000000000600240286002400100000013
:1020600000000000060C000000000000000000005E
:1020700000000000006002404060024002000000DA
:1020800000000000100D0000000000000000000033
:1020900000000000006002405860024003000000A1
:1020A00000000000160E000000000000000000000C
:1020B0000000000000600240706002400400000068
:1020C00000000000200F00000000000000000000E1
:1020D000000000000060024088600240050000002F
:1020E00000000000261000000000000000000000BA
:1020F0000000000000600240A060024006000000F6
:10210000000000003011000000000000000000008E
:102110000000000000600240B860024007000000BC
:1021200000000000362F000000000000000000004A
:102130000000000000640240106402400000000043
:102140000000000000380000000000000000000057
:10215000000000000064024028640240010000000A
:102160000000000006390000000000000000000030
:1021700000000000006402404064024002000000D1
:1021800000000000103A0000000000000000000005
:102190000000000000640240586402400300000098
:1021A00000000000163B00000000000000000000DE
:1021B000000000000064024070640240040000005F
:1021C00000000000203C00000000000000000000B3
:1021D0000000000000640240886402400500000026
:1021E0000000000026440000000000000000000085
:1021F0000000000000640240A064024006000000ED
:102200000000000030450000000000000000000059
:102210000000000000640240B864024007000000B3
:102220000000000036460000000000000000000032
:1022300000000000DDBA0308DBBA0308D9BA0308BE
:10224000D3BA0308D1BA0308D7BA0308D5BA03082A
:10225000010000000000803F0100000000000000BD
:10226000000000000102030406070809FFFFFFFF4A
:102270000000803F0000000000000000000000009F
:102280000000803F0000000000000000000000008F
:10229000000000000000000000000000000000003E
:1022A00000000000000000000000803F000000006F
:1022B000000000000000000001010000881900205B
:1022C000000000000000000000000000000000000E
:1022D00000000000000000000000000000000000FE
:1022E00000000000000000000000000000000000EE
:1022F00000000000000000000000000000000000DE
:1023000000000000000000000000000000000000CD
:1023100000000000000000000000000000000000BD
:082800000000000000000000D0
:1080000090ED057A90ED004AD0ED066AD0ED014A78
:10801000D0ED047A90ED035AD0ED025AA4EE007A26
:10802000B0EE406AB0EE470AB0EE667AA4EE867A09
:1080300067EEC07AA5EE407AE5EE867A80ED057AA5
:10804000C0ED067A704700BFD0ED057A90ED013A99
:10805000D0ED003AD0ED064A90ED024A90ED077A55
:1080600090ED035A90ED086AD0ED045AC0ED067AFF
:10807000F0EE406A27EE830AC0ED056AA3EEA60A79
:1080800080ED087AA4EE240AA5EE470AA5EEC60AFA
:1080900080ED070A704700BFDFED2B7AB4EEE70AE8
:1080A000F1EE10FA4ADDDFED296A9FED297A01E051
:1080B000B0EE670AB4EEC70AF1EE10FA70EE667A17
:1080C000F6DC9FED247AF4EEC77AF1EE10FA38D59B
:1080D000DFED1E6A9FED207A01E0F0EE407AF4EECB
:1080E000C77AF1EE10FA37EEA60AF6D4DFED1B7A66
:1080F000B4EEE70AF1EE10FA14DDDFED137A37EE95
:10810000C00A60EE006A9FED166A9FED167ADFEDF9
:10811000167AA6EE867A20EE266AE6EE877AA6EE34
:10812000270A7047DFED117AB4EEE70AF1EE10FA94
:1081300044BFDFED087A37EEC00AE2E7F0EE407A9E
:10814000BFE7B0EE670AD1E7DB0F4940DB0FC9405C
:10815000E4CB1641DB0F49C0E4CB16C1DB0FC93FAE
:1081600092E741B99730083C15A82ABEDB0FC9BF7A
:10817000D0ED007A90ED017A30EE670AE7EE007AF2
:10818000B0EE670AC0ED007A704700BF704700BFCD
:108190000028F0B403DA2D230B7040420131092886
:1081A00004464FF0010307DD03EB83035B00B0FBE4
:1081B000F3F2092AF8D883B10F48A0FB0326B4FBD9
:1081C000F3F2092A02F1570C02F1300709DD03FB33
:1081D0001244F30801F801CBEFD100230B70F0BC7F
:1081E000704703FB1244F30801F8017BE5D100233B
:1081F0000B70F0BC704700BFCDCCCCCC884270B4C3
:108200004FF0010442D301FB04F4B0FBF4F58D42BE
:10821000F9D2ECB142BB092D04FB150005F157065C
:1082200005F130020EDDB4FBF1F403F8016B7CB113
:10823000B0FBF4F5092D04FB150005F1570605F117
:108240003002F0DCB4FBF1F403F8012B002CEFD189
:1082500000221A7070BC704703F8016BB4FBF1F494
:10826000002CF5D0B0FBF4F5092D04FB150005F149
:10827000370605F13002EFDCB4FBF1F403F8012B13
:10828000002CEFD100221A7070BC70470546002AFE
:10829000EAD1C0E70388B3F5FA6F17D38378013BBF
:1082A0000B2B13D8C378013B1E2B0FD80379172B48
:1082B0000CD843793B2B09D883793B2B06D800890E
:1082C000B0F57A7F2CBF0020012070470020704756
:1082D0002DE9F04714461D4606464FF47A720023F6
:1082E0002046294654F086FA4D4BDFF848814D4A26
:1082F0004D4F034488FB03101844D91782FB032C0D
:10830000C1EB601088FB002887FB03279C44474A89
:10831000C1EBEC2CC0EB001E82FB0C29A3EB8E0EF4
:108320001F44434A86F806E0C1EB27474FEAEC7E3C
:1083300008EB000ACEEBA90E82FB07824FEAE07839
:108340000EEB4E0EC8EB6A18ACEBCE0CC8EB08185F
:10835000DFF8E4E086F804C0A0EB880070718EFBC3
:108360000303F817C0EBE21240F2B55000FB1272A3
:10837000C1EBE353B2F5896F4FEA83073CDA40F271
:10838000DA239A4242DCB2F5B77FB4BF4FF0000E59
:108390004FF0010E4FEA4E09DFF8A08009EB0E0303
:1083A00008EBC3031FFA8EFCD88A09EB0E0108EB19
:1083B000C10116310B2301E031F8020D904218DDA6
:1083C000013BF9D1CE44012338F83E00B37007F5E4
:1083D000FA670132121ABC44F270A6F800C02046B7
:1083E00029464FF47A72002354F004FA3281BDE832
:1083F000F0870133DBB2E9E74FF0030CE64640F2C9
:108400009650DFF838804FF00609CEE74FF0020CA7
:10841000DFF82880E64640F229404FF00409C4E71F
:1084200080BC92C7C5B3A29107452EC2ABAAAA2AA7
:1084300073B06D1689888888792D0311540A06084F
:1084400003685A1C02601970704700BF2DE9F0479D
:10845000089C2578002B804689460CBF4FF0200AE7
:108460004FF0300A661C25B3002A26DD334601E0B2
:10847000024698B113F8011B501E0029F8D1971E2F
:1084800060B13D46013D51464046C8476B1C002B3C
:10849000F8DC257827EAE770013045B1041B29464E
:1084A0004046C847301916F8015B002DF7D1BDE8EA
:1084B000F087002A03DC2846F9E70020EEE7571E84
:1084C000DFE700BFD0ED005A9FED530A35EE800A7A
:1084D00008B5FDEEC07A2DED028B17EE903A2033F1
:1084E000402B40F294809FED4D5AFDEEE57A17EE59
:1084F000903A2033402B40F28380DFED485AD0ED94
:10850000014A9FED450A34EE800AFDEEC07A17EE6F
:10851000903A2033402B6AD99FED402AB0EE421AA0
:10852000B0EE424AFDEEE47A17EE903A2033402B4B
:1085300056D9DFED3A3AD0ED022A9FED370A32EEF6
:10854000800AFDEEC07A17EE903A2033402B3AD9DC
:10855000DFED324AB0EE643AF0EE640AB0EE648ABF
:10856000F0EE641AFDEEE27A17EE903A2033402BDB
:1085700024D99FED2A0AC1ED001A20EE057A60EE9B
:10858000257AE7EE234A37EE087ABDEC028BA7EE98
:10859000E33A24EE404A77EEE07AC1ED074A81EDF6
:1085A000037A81ED043AC1ED067A81ED014AC1ED0D
:1085B000023A81ED051A81ED082A08BDB0EE620A83
:1085C000FFF76AFDD7E7FFF767FD60EE254A20EE6B
:1085D000053A23EEA48A60EE041A63EE830AC1E72B
:1085E000B0EE640AFFF758FDF0EE403AA3E7FFF75C
:1085F00053FDB0EE404A25EEC01A20EE052A91E761
:10860000B0EE650AFFF748FDF0EE405A77E7FFF756
:1086100043FDB0EE405A68E7DB0FC93F00000000A1
:1086200030B43123332232254FF60174FF214370D9
:10863000427101230022C5700482817403720370A9
:108640000371837042818281C28130BC704700BF58
:10865000034600F11001FF221A705A70023399424A
:10866000FAD102704270027142718272C272704716
:1086700010B42C2101240222002304704170827066
:10868000C3705DF8044B70472322032302704370CC
:10869000704700BF00230222027103704370837091
:1086A000C3707047144BFF22F0B54FF0FF34C27017
:1086B0000271027242724273827303F10C0EA4467D
:1086C000172716261525002202EB820281189E45E7
:1086D00085544E708F7081F803C00C710AD093F9E5
:1086E0000620DD791E7A5F7A93F90AC093F90B4070
:1086F0000633E9E7F0BD00BFB40A060800230370A3
:1087000043708370C3707047F8E700BF00230621F1
:108710004FF47A720170C0E901230373704700BF00
:1087200030B41D6995420AD314460A4621448D424D
:10873000996938BF2A1B214430BC55F03BB830BC86
:10874000704700BF0020704701207047012070472C
:10875000002070474FF40070024B10609B680B6064
:1087600000207047D0C10020013A30B4D2B28C1C36
:1087700004EB42040025020F092AD3B203F13002B0
:108780008ABF37330A700B704D7002318C424FEA4A
:108790000010F0D130BC70470B4A0C4B10681B68BE
:1087A0001A22C0180A8001D10948704710B5094B38
:1087B00009491C680822FFF7D7FF20460422074911
:1087C000FFF7D2FF024810BDE8F7FF1FECF7FF1FCD
:1087D00088010020EAF7FF1F8A0100209A0100208B
:1087E00004230B8000487047A401002012230B8053
:1087F00000487047A80100202DE9F047134B1D6881
:10880000ED0A84B01BD0DFF848800026C14604AFD3
:10881000D8F80030AC196410D3F824A0E10210237A
:108820006A464846D0470F2809DD6B4653F8042BAB
:10883000013208D19F42F9D12546B542E8DCE80271
:1088400004B0BDE8F087661CF7E700BF987200200F
:10885000B0BB002004307047704700BF41617047D3
:108860002DE9F04FDFF8E8C1784CDCF800502288A1
:10887000C2EB25135200C2EBE502B4F902505B4390
:108880006A43B4F904501B135D43AD1305EBE225B5
:10889000B5F5FA324FEAE57985B049F1FF33CDE914
:1088A0000023DDE900325343009ACCF80450A2FBC8
:1088B00002ABB4F90820CDE902010199009812B287
:1088C0000BEB430B5143D31700FB0311A2FB002317
:1088D0000B441F03160347EA1257B4F90A200FFA94
:1088E00082F84FEAE87908FB0BF10AFB0913A8FBB1
:1088F0000A0119444FEA102848EA016818EB0602F9
:10890000E6884FEA212949EB0703B6B212F10008C5
:1089100043F50049A8FB060106FB09114A10CB17D5
:1089200052EA030100F09080B4F91060B4F90E002F
:1089300036B2F71706FB0BF10AFB0711A6FB0AABD1
:10894000019E00B200FB06FE009E8B44C11706FB91
:1089500001EEA0FB060171444FEA4149DCF8081022
:108960004FEA4048C1F5801C1AEB080649EAD039A5
:108970004BEB09074FEAEC794FEAC97141EA5C0118
:108980004FEACC70B4F90CC04FF0000A1AEB06089D
:108990004FEACC0B4BEB0709B0EB080061EB090188
:1089A00040F635468B46A0FB060106FB0B1153F043
:1089B00021FFB4F916204E1312B2470B47EAC14704
:1089C00002FB06FCD31707FB03CCA2FB072363447F
:1089D000564307FB0366A2FB07233344560E46EAC1
:1089E000C3163218B4F914604FEA63670FFA86FAB7
:1089F00047EB010380460AFB01F14FEAEA7B08FBE3
:108A00000B17AAFB08013944C60C46EA413612EBA3
:108A10000608B4F912204FEAE14743EB07094FEA91
:108A2000182112B241EA096113010B44029A0AB1FA
:108A30001B0A1360039B23B105EB850580352D12BE
:108A40001D6005B0BDE8F08F0023EFE7A087002090
:108A5000E81900200378012B07D190F904300E4A61
:108A6000242101FB03235B7DA3B90C4B5A7B197BAB
:108A7000120142EA0132997B42EA11129A601A7C91
:108A8000D97B120142EA0132597C42EA11121A6082
:108A900001207047002070471CBA0020E819002010
:108AA000012070470120704770476D4B2DE9F04F52
:108AB0005C696C4BB3F80AE0B3F804809A894FEA1A
:108AC0000E2AB4EB0A044FEA1E6B4FF0000587B084
:108AD00065EB0B05CDE900450746009C1889019E12
:108AE000A0FB044500FB0655E00940EA45604FEA5B
:108AF00008448C46E9114FEA184510EB0408D88861
:108B0000009C41EB0509CDE90489A0FB0445B3F8BD
:108B1000028000FB0655200A40EA05604FEAC8348F
:108B200029124FEA584510EB040841EB050900995A
:108B3000A2FB010102FB06114FEAD05A4AEA412A80
:108B40001AF5FA634FEAE15B4BF10004B3F5FA6FF3
:108B5000CDE9023474F10003414E64DA0524AAFB26
:108B6000040104FB0B1100FB0BF40AFB0144DDE9DB
:108B70000423A0FB0A0121444D104FEA3004121BCC
:108B80004FEA900463EB050344EA8174B8EB0408F0
:108B9000CDE90423DDE9023433484FEAA10569EB4E
:108BA00005094FF0FF31834274EB010326DA40F6EA
:108BB000AC501AEB00024FF000014BEB010302FB3B
:108BC00003F1A2FB022303EB4103D400DD00101BE1
:108BD00045EA527563EB0501DDE9044524184D4172
:108BE000CDE904450B24A2FB040104FB0311491049
:108BF0004FEA3000B8EB000869EB0109DDE900320B
:108C00005343009ADDE90201A2FB02AB0BEB430BDD
:108C10004FEADA7242EA4B02801A4FEAEB7361EBD9
:108C20000301CDE9020197B1B169A1FB082301FB62
:108C30000933540D5D1544EAC324DDE90423A21A67
:108C400065EB03031D46D30B43EA45433B60BCF190
:108C5000000F02D0029BCCF8003007B0BDE8F08FC7
:108C6000E81900208C87002024FAFFFF0378012BED
:108C700007D190F90430094A242101FB03235B7DCD
:108C800053B9074A537F117F1B0243EA0143917F87
:108C90000B43936101207047002070471CBA0020ED
:108CA000E81900200378012B07D190F90430094A14
:108CB000242101FB03235B7D53B9074A537F117FB6
:108CC0001B0243EA0143917F0B435361012070472C
:108CD000002070471CBA0020E819002030B5437E00
:108CE00083B004461BB90120637603B030BD052371
:108CF000ADF80430056A00BFA8682EF0B3FF6A46DD
:108D000001A90223686848F0E9F9A8682EF0B0FFCD
:108D100000BF9DF8013003F0010383F0010063768A
:108D200003B030BD38B50446074D04E02B68E26956
:108D30009B1A002B06DA2046FFF7D0FF0028F5D05B
:108D40000023E36138BD00BFA0B90020F0B5077E65
:108D500083B004464FF0030C0020009016461D46D9
:108D60008DF804008DF800C0002F30D00B0E8DF868
:108D700001300DF102030F0C0A0A997020461F7092
:108D80005A70FFF7CFFF00B3236A00BF98682EF038
:108D900069FF237E226A002B14BF05230423694642
:108DA0005068002248F09AF9236A32460021586838
:108DB0002B4648F093F9236A98682EF059FF00BFBC
:108DC000044B1B6806332846E36103B0F0BD0DF188
:108DD0000103D0E7A0B900202FF0E2BC38B505466A
:108DE00058B14C1E14F8011F284619B9BDE8384087
:108DF0002FF0C8BC2FF0D4FCF4E738BDF8B50468F8
:108E0000C4F30D0405460E460CB32F68366835F0E2
:108E1000EFFD092840F08880454C236923F4407316
:108E20002361236943F400732361236943F0010341
:108E300023613E6035F0DCFD2369092823F001033E
:108E4000236171D12B6804332B60002035E0394B4E
:108E5000394A93422BD902F58042934226D902F532
:108E6000804293422AD902F58042934228D902F5E2
:108E70008032934226D902F50032934224D902F57A
:108E80000032934222D902F50032934220D902F5F2
:108E9000003293421ED902F5802293421CD9B3F1CD
:108EA000016F1BD3052011F0EFFBFBE7082435F021
:108EB0009FFD092814D04FF0FF30F8BD1024F6E7CD
:108EC0001824F4E72024F2E72824F0E73024EEE722
:108ED0003824ECE74024EAE74824E8E75824E6E7AA
:108EE000134F3B6923F440733B613B6943F40073C8
:108EF0003B613B6923F0F8033B613B6943F00203AC
:108F00001C433C613B6943F480333B6135F070FDA9
:108F10003B6923F002033B613B69092823F0F80316
:108F20003B613FF472AFC6E76FF00100C5E700BFD9
:108F3000003C024000400008FF3F00082DE9F041DE
:108F400004460D468E18002700F10808B542206936
:108F500001D1BDE8F081E368591CE160234415F8B4
:108F6000012B1A720429F1D118B941462046FFF7A6
:108F700045FFC4E90370E9E701394B0003F008033A
:108F800001F00301194301F00303C3EB03130022B3
:108F90008908C3EB0313914214BF4FF4E1611146FA
:108FA0009B00028041808380704700BF092900D068
:108FB00001B97047E0E700BFF0B58DB0002502AE03
:108FC00004460570032130460295ADF80C50FFF7BA
:108FD000D3FF96E8030008AB0890ADF8241093E89F
:108FE00003001426ADF82C10BDF82C30E6700121DA
:108FF0004FF44D7202276E46A060E280A381A170FB
:10900000A173304667700095ADF80450FFF7B4FFC8
:1090100096E8030004AB0490ADF8141093E8030045
:10902000ADF81C10BDF81C30E7734FF48072257446
:109030006574A282C4F8160063830DB0F0BD00BF52
:1090400070B584880546C4F30B0422460846002107
:1090500057F0ACFC6969094A9142034602D3084AB9
:10906000914204D341B11846BDE8704008472246FA
:10907000BDE8704054F09EBB70BD00BF10090008F1
:10908000C00A000801232621272201704270837044
:10909000C37070472DE9F047089C884616460021AA
:1090A00020221F46054657F081FC5CB1D4E900320E
:1090B0006189EB81C3F30F432B82C2F30F43EA8232
:1090C0002B836982404652F089FE16F0100A11D1B6
:1090D000431E78B118F803202E2A18BF08EB0301AD
:1090E00005D14EE011F801CDBCF12E0F41D013F1A6
:1090F000FF33F7D208280246C146A8BF08224FF026
:10910000000A4FF0203341462B606B6005F10808E0
:10911000284654F04FFB1F4B2B81524688F80230F3
:109120004946404654F046FB6B1EE81D13F8012FDC
:10913000A2F1610119299CBF203A1A708342F5D12E
:10914000404605F10B0110F8013BA3F16102192A19
:109150009CBF203B00F8013C8142F4D1C7F30F4291
:109160001823AA82EE72099A2B736F83EA61BDE815
:10917000F087C01A00F1FF3ABAF1030FA8BF4FF011
:10918000030A082B03F10109A8BF0823C1441A46AA
:10919000B7E700BF20202000014B186815F0BCB8CD
:1091A0005058002010B500210446012011F052F85B
:1091B000207010BD38B500240472451EE1B20220B3
:1091C00011F048F80134082C05F8010FF6D138BD2C
:1091D00070B5184B1B78012B064621D040F22E416A
:1091E0004FF4F07209238182028083704FF4FA6198
:1091F0004FF47A7240F226230024F1823283738284
:109200007471F51DE1B2042011F024F80134082C2A
:1092100005F8010BF6D10E220223B276338270BD1F
:109220004FF47A704FF47A5104223371B082318056
:10923000B270DBE74850002038B5002405460480B2
:109240002146284601341BF0E1FE082CF8D100210C
:1092500085F8EA10A5F8EC10A5F8EE10A5F8F010C6
:10926000A5F8F210A5F8F410A5F8F610A5F8F81076
:10927000A5F8FA102846BDE838401BF089BE00BFAB
:109280002DE9F047174E184C814606F1E0083921C8
:109290000027164B1022012503E02033A3421AD0E9
:1092A0001A799142F9D118683268904201D001359B
:1092B000F3E7587972799042F9D107EB470309EB4C
:1092C000030A09F8031030468AF801502EF0D2FD47
:1092D00001378AF802002036464501D03179D8E7B7
:1092E000BDE8F0873C270608BC260608FC1C0608DB
:1092F00038B53222002157F059FB03460225642479
:1093000040F2DC5040F21A4140F26C721D721C7443
:1093100040F20225132458829982192040F27531B7
:10932000DA8240F643021D839C760E2503241877CB
:10933000D9830A201E211A84012283F82B0083F886
:109340002C1083F8225083F82A409A7383F8252042
:1093500083F8292083F82D2083F82E20194602480F
:10936000BDE8384029F050BDA097060838B51D4B20
:109370001B78044600F1250593B105221A492030D7
:1093800057F052FB28461522184957F04DFB012390
:1093900084F83A30164B1B7873B984F83B3038BDEB
:1093A00028461522134957F03FFB012384F83A3031
:1093B0000F4B1B78002BF0D00F4B186859689A6838
:1093C000DD68E56020606160A260DD691869596947
:1093D0009A69A2610123E5612061616184F83B30F3
:1093E00038BD00BF207D0020545300203C53002096
:1093F000217D0020AC970608F47C002008B50021F0
:1094000008460FF0DDFD002008BD00BF38B50C4B4D
:109410000C4D1C682B6AE31A322B09D86B6AA342E5
:1094200000D338BD002032342EF0CCF96C6238BD48
:10943000002108460FF0C4FD00236B6238BD00BF59
:10944000A0B90020E81900202DE9F04FCE4CCF48FC
:109450002468046287B0002B63D013440C46DFF805
:109460004493DFF844B3039315461CE0002D00F04D
:10947000D781D9F81430AB4260D0D9F81030AB4264
:1094800000F09380D9E90631AB424ED8A94200F2F0
:109490006E81691A204640F085FC039B01359D4290
:1094A00004F500743DD0D9F82060AE42DED8D9F87A
:1094B0003080AE1B4FEAD60AD8F830300AF1020AE3
:1094C0009A4506F0070603D3D8F838309A4509D9EB
:1094D0004146504640F034FC8046002800F04C8164
:1094E000C9F8300098F80430002B40F0DF80D8F83D
:1094F0002870002F00F0F181D8F83030D8F80C2017
:10950000AAEB030A06EBCA0A4346204602EB4A22AC
:109510004FF40071B847039B01359D4204F5007478
:10952000C1D1002007B0BDE8F08FA942B1D94FF4F6
:1095300000720021204657F039FAAEE7522261202E
:109540004123002622706270A070722284F8E70125
:1095500084F8E631D9F82800E3704FF0FF33314644
:1095600084F8E42184F8E521C4F8E8014FF4F072AE
:1095700084F8EC3184F8ED3184F8EE3184F8EF3181
:10958000201D57F013FA55216FF05502C4F8F06111
:10959000C4F8F461C4F8F86184F8FC6184F8FD61F2
:1095A00084F8FE1184F8FF2177E74FF40072002160
:1095B000204657F0FBF9764B764A03CBEB23C4F8F1
:1095C0000300237002204FF0080C58279026F82340
:1095D000A670207484F80DC0C4F807106770637516
:1095E000D9F81010D9F80830D9F81C702073591A1E
:1095F00021624FF0FF3100233F26A1763E21A07368
:10960000E372E3736374A374E3742375A375E37562
:109610006376E3766377A377E37721772676D9F8C5
:10962000186084F82C0003CA84F8283084F82930A4
:1096300084F82A3084F82B3084F82D3084F82E30CA
:1096400084F82F3084F8313084F8323084F83330A5
:10965000BE1B80236662C4F8470084F8403004F1E2
:109660004706292094234C4F84F846C084F84200D2
:1096700084F843300E200D234FF0010C84F8440091
:1096800084F8453084F830C03346716003CF1688C3
:109690001E8197789F725526AA22C4F85200C4F8FA
:1096A000561084F8FE6184F8FF21F6E64FF400724C
:1096B0000021204657F07AF9D8F84030002E75D1B5
:1096C00004F12007002B00F08B80D8F830303349AC
:1096D0001122CDE900662046FFF7DCFCD8F84030C7
:1096E0001A6C04F1400A002A00F08C801B6B2C4994
:1096F000CDE9006638461122FFF7CCFCD8F844606B
:10970000002E3FF4CAAE4FF4E078CDE904450CE0FA
:109710000024CDE900C4FFF7BDFCB66CBA46A8F141
:1097200020080EB3B8F11F0F1ED93468356B96F8B8
:1097300004E011222B46214650460AF1200706F18B
:109740001C0CBEF1000FE3D172793369019342F032
:1097500021022B46CDF800C0FFF79CFCB66CBA4640
:10976000A8F12008002EDDD1DDE9044595E6E91ACF
:10977000204640F017FB90E6231F04F5FE7243F8E5
:1097800004BF9A42FBD188E6A0B90020E819002066
:10979000C0970608CC970608D8970608B897060819
:1097A000BC970608D0C10020DEADBEEF002BD8F874
:1097B00044200CBF01230223C3EB0613002A3FF40D
:1097C0006CAE966C013B002E3FF467AE013BB66C6D
:1097D000F9D1002E3FF461AEA2464FF4007894E731
:1097E000CDE900663346D9F80C1008222046FFF771
:1097F00051FCD8F84460002E3FF44FAEBA464FF407
:10980000F07882E7CDE900663346384611224949AF
:10981000FFF740FCD8F84460002E7FF474AF3CE6BC
:109820004FF400722946204657F0C0F880220C23DE
:1098300084F8BE2184F8C231D9F810003E4BD9F823
:10984000086084F8B85183FB0032C117C1EB2232A3
:10985000B2F5806F84F8B95184F8BA5184F8BB51DD
:1098600084F8BC5184F8BD51C4F8C601C4F8CA617B
:1098700042DBFF2384F8BF3184F8C13184F8C03162
:109880002D4B711E83FB0132CE17C6EB2232B2F58F
:10989000806F29DA294B84F8C52183FB01030B442F
:1098A0002748C6EB6313C3EB831680FB0370891B49
:1098B0001844DE17921022F03F020131C6EBE0108F
:1098C0000A43034484F8C42184F8C3315522AA23EF
:1098D00084F8FE2184F8FF31DFE539464FF4007249
:1098E000204657F063F8D8E5FF2384F8C33184F8A5
:1098F000C53184F8C431E9E7104B84F8C12183FBFA
:10990000007303440E4FC1EB631387FB0317C3EBD4
:10991000831C9110A0EB0C02F818DF1721F03F0117
:109920000132C7EBE0100A43034484F8C02184F8F5
:10993000BF31A5E7BC9706089755454183200882AB
:109940008180808010B5044C04480A46214634F0DA
:109950006BF8204610BD00BF101A0020E4970608DF
:1099600010B5044C04480A46214634F05DF8204600
:1099700010BD00BF101A0020F497060810B5044C63
:1099800004480A46214634F04FF8204610BD00BF77
:10999000101A0020009806080A4608B5054920B1AB
:1099A000054834F041F8034808BD044834F03CF859
:1099B000004808BD101A00202C98060814980608C4
:1099C00008B533F0EDFF1B202DF00CFF18B1292254
:1099D00000238271C3713EF03FF818B129220023A1
:1099E0008271C371094B9B78012B01D0012008BD06
:1099F000074B084A03F1200103F14C0013603FF0CC
:109A00008DFF054B002083F8230008BDECA100204A
:109A1000BC010020F8CA002000ED00E008B5064BAC
:109A2000D3F8280138B12EF031F9044B9B7813B1EB
:109A300080F00100C0B208BDE8190020EC8B0020C6
:109A400010B500F10C040022212120462EF084FEE6
:109A5000FC22202120462EF07FFE40222421204699
:109A60002EF07AFE0C22232120462EF075FE0022D5
:109A7000222120462EF070FE642014F0BDF9012052
:109A800010BD10B500F10C0401220B2120462EF070
:109A900063FE20B11D22092120462EF05DFE00F05C
:109AA000010010BD10B500F10C0470220021204609
:109AB0002EF052FE2022012120462EF04DFE0022E3
:109AC000022120462EF048FE642014F095F9012072
:109AD00010BD13B506230C466A4628210C302EF023
:109AE000BFFDF0B19DF801309DF8002042EA03224D
:109AF00004219DF8033012B292FBF1F222809DF80E
:109B0000022042EA032212B29DF8043092FBF1F2E5
:109B100062809DF8052043EA02231BB293FBF1F318
:109B2000A38002B010BD7FB5002500F10C060C46E5
:109B30000D804D808D8001230DF1070206213046F6
:109B40002EF08EFD10B9002004B070BD9DF80730D6
:109B50005B07F8D5062302AA294630462EF080FD81
:109B60000028F0D09DF809209DF8083043EA022330
:109B700023809DF80B209DF80A3043EA022363807E
:109B80009DF80D209DF80C3043EA0223A380DBE70B
:109B900013B506230C466A4603210C302EF060FDF7
:109BA000A0B19DF800209DF8013043EA02232380F4
:109BB0009DF802209DF8033043EA0223A3809DF81C
:109BC00004209DF8053043EA0223638002B010BDF3
:109BD00037B50478012C054614D190F90400184AD1
:109BE000242303FB00235B7D3BBB431C1DD00328C8
:109BF0001BDC144B009369790623F72247F00EFC17
:109C0000204618E0022C10D1836813B11A689B8893
:109C10005383F721686845F01BFB0623094A6868EF
:109C2000002147F05BFAAB680BB9012003E01A682A
:109C30009B881383012003B030BD0020FBE700BFE9
:109C40001CBA0020F419002013B50478012C034637
:109C500014D1124990F90400242202FB0012517D14
:109C600001F0FF02A9B9411C10D003280EDC59797C
:109C70000B4B0093032347F0D1FB07E0022C0AD1E2
:109C80000323074A00212EF03DFC0124204602B0A8
:109C900010BD0024FAE70124F8E700BF1CBA002039
:109CA000041A0020D0E70378012B014605D0022BCF
:109CB00010D1312274212EF07FBC074B90F90400A3
:109CC00031221A70421C05D0032803DCF4224979A2
:109CD0003EF00ABE704700BF74BB002048213FF031
:109CE000EFB958213FF0ECB920B10078B0FA80F01C
:109CF000400970470120704708B5202156F06DFEDD
:109D00000346184623B10278202A03F10103F8D054
:109D100008BD037903F01803082B0AD002D82BB131
:109D200000207047102B16D0182BF9D1B0F80B007B
:109D30007047124BB0F80B0093F90030591C06BF66
:109D40000F4B1B78DBB203EB031203EB820300EB38
:109D5000430080B270470B4BB0F80B0093F9003012
:109D60005A1C06BF064B5B78DBB203EB830303EBA5
:109D7000830300EB830080B2704700BF1D0D0020FD
:109D8000CCC400201C0D002070B5084D2A782AB9DB
:109D9000074C084EB44202D301232B7070BDA28839
:109DA000D4E9021053F006FD1834F3E7448B002089
:109DB0009001000810090008F0B5067906F0E003EC
:109DC000402B09D144794FF0FF350023012006F0E4
:109DD0000706A3420BD1F0BD602B08BF45794FF0B9
:109DE00001040CBF04FA05F54FF0FF35EDE7042E32
:109DF0000CD8DFE806F0030D18242E0030B1C85C43
:109E0000D75C784028420CBF012000200133E0E7F6
:109E10000028FBD0C856D756A0EB070CDCF1000099
:109E200040EB0C00F2E70028F0D031F8130032F8D4
:109E30001370784028420CBF01200020E6E700287C
:109E4000E4D031F9130032F91370C71B784278411E
:109E5000DCE70028DAD051F8230052F8237078406C
:109E600028420CBF01200020D0E7034B01461868B0
:109E700008B12EF095BC7047D4C80020024B0146B3
:109E80001868FEF7ABBF00BFD4C800200048F5E754
:109E900091D9060808B5FFF7F1FFBDE80840F5E7DE
:109EA00010B504460348FFF7E9FF2046BDE810401F
:109EB000F0E700BF9796060808B532B1C30600D593
:109EC00019B11046FFF7ECFF0022104608BD034B06
:109ED000186808B12EF056BC704700BFD4C80020E7
:109EE000044B1A68C04302401A60034A13680340D7
:109EF000136070477C750020B4C80020034B01221A
:109F00004FF400101A701EF01BBF00BF0B6F002033
:109F1000022838B5044611D80B4A0C490C4D0C7078
:109F200000EB001300EB830302EB430318462B60A6
:109F30004BF0FCF94FF0EAFB4FF086FB601CC0B21F
:109F4000BDE838401EF096BE406A0020CCC4002018
:109F50003CCA0020774B30B59A881C89588999896A
:109F6000B2F57A6F88BF4FF47A622DED028B88BF0D
:109F70009A80DA88B2F57A6F84BF4FF47A62DA8019
:109F8000B4F57A6F84BF4FF47A641C81B0F57A6FB0
:109F900088BF0020DA8988BF5881B1F57A6F84BF05
:109FA0004FF47A619981B2F57A6F84BF0022DA8129
:109FB00084429CBF0020188191429CBF00229A815C
:109FC000598B9A8B5C4C914284BF00225A83238820
:109FD00085B0002B53D0594DAA78062A97BF58490F
:109FE0009FED588A01EB820292ED1D8A2A79002AA0
:109FF00074D15549A8790A7807EE903A07EE102AED
:10A00000F8EEE77AF8EEC76AB0EE667A86EEA76AEF
:10A0100008B138EE088AB4EEC68AF1EE10FA21DDF6
:10A0200027EE888ABCEEC87A8DED017A9DF804305F
:10A0300007EE103AB8EEC77AB4EEC78AF1EE10FA1E
:10A04000C4BF0133DBB2002B66D0102BA8BF102396
:10A050009A4204D807EE103AF8EEC76A1A460A7018
:10A06000B0EE667ADFED396A27EE267AC7EE276A08
:10A07000FCEEE66A16EE903AB3F5FA7F47D8344B19
:10A0800034499A78022A04BF00229A704B78052B33
:10A0900014D8314A314803EB830303EB830302EB0B
:10A0A00083030A780360022A10D900232C4A0B701C
:10A0B0002C4B1A6005B0BDEC028B30BD00224A70FB
:10A0C0000A782648244B0360022AEED802EB0211DC
:10A0D000234B02EB810203EB4202E9E704A80023D1
:10A0E00000F8013D3FF0F2FF9DF80F300BB9AB785F
:10A0F000A3B92388002BC2D0134A127807EE903AF6
:10A1000007EE102AF8EEE77AB8EEC77AAAE74FF022
:10A110000050FFF7E5FEB2E7012399E7B7EE000A2A
:10A1200080EE080A53F026FC2B88984228BF184678
:10A130002880DEE78CC50020D80B0010A4AE0020DC
:10A14000540A06086F12033824530020002474496F
:10A15000ECA10020CCC40020046C00201C9F002037
:10A16000406A00203CCA00202DE9F04FAB4B1B7821
:10A17000A3F11702022A83B00FD9A94A12F83310AB
:10A18000002940F0B582D9000A4452782AB1A54A84
:10A1900012F83330002B00F04283A34EA34D96F803
:10A1A0000890DFF8B882002427462A5912F0010CE3
:10A1B00005EB040307F1010100F04A82CFB2510818
:10A1C00001F077319308511AD00803F03333CB1ADA
:10A1D00000F011315B1A03EB131303F00F33A8FBEC
:10A1E000031E4FEADE1ECEEB0E2EA3EB0E0EBEF1CB
:10A1F000010F05EB0400494604F10C040ED9BEF131
:10A20000020F40F02A82BCF1000F02D012F42F7F1F
:10A2100004D13BF0C3FE002800F01F82482CC4D1BB
:10A22000013F022F00F2198202201EF0A3FA804B98
:10A230001B78022B00F07482002800F0F4827D4F1E
:10A240007D4D97F809A02B4605F5CF794FF47A6834
:10A250004FF0000E4FF0640B5A88B2F57A6FB3F8E6
:10A260004C2088BFA3F80280B2F57A6F9A8888BF25
:10A27000A3F84C80B2F57A6FDA8888BFA3F804801F
:10A280009988B2F57A6F84BF0022A3F806E0914264
:10A29000B3F86010B3F8622098BFA3F804E09142CD
:10A2A00093F8712088BFA3F860E0013A632A93F81D
:10A2B000722088BF83F871B00132D2B2092A88BFF8
:10A2C00083F872E003F16B00194600228C7A10F8D3
:10A2D00001CF0132A44528BF80F800E0032A01F134
:10A2E0000601F3D1BAF1010F18BF83F889E08A3370
:10A2F0004B45B1D1514CA378042B00F0038233B904
:10A300002388B3F5F07F84BF4FF4F0732380FFF709
:10A3100021FE4B48DFF8488181781230FEF746FE77
:10A3200098F8071008F10800FEF740FE98F815109D
:10A3300008F11600FEF73AFE424BB3F9042022B9A9
:10A34000B3F90620002A00F0CD8101225A813E494E
:10A350003E4BD1F80090DFF80C8109EA0303002B93
:10A3600000F0658219F0010F40F03A8219F4804F35
:10A3700040F01E8219F0080F40F0238219F4005FAC
:10A3800040F0288219F4004F00F09A810023F37303
:10A3900086F8233006F080F8002800F02981737ECB
:10A3A000032B00F025815A1E012A40F23881002338
:10A3B0002B83A5F8A230A5F82C3106F06DF8002803
:10A3C00040F02C81002319F4805F85F84F3085F828
:10A3D000D93085F8633100F02A811D4BDA79022AE1
:10A3E00008BF01224FF0070008BFDA7151F04EFBA1
:10A3F000002840F0FB814FF480601EF0BBF900287C
:10A4000000F0FE81134B1E4603F1780A03F17D092B
:10A410007179A9B3307888B30F4B28E0F8A50020F4
:10A42000948B0608BC94060838C80020F0C90020A8
:10A4300004A10020409A0020406A0020A4AE002021
:10A44000608600208CA100207C750020096000023D
:10A45000F46E00202C8800203188002081808080CC
:10A4600044860020B4C8002006334B4508D013F8BA
:10A47000052C8A42F8D11A78002AF5D051F0B0FAAA
:10A480000636B245C4D1A378082B00F06281797AF0
:10A49000BA7AD8F80000B44BB44EA1F10101A2F190
:10A4A0000102C0F3C030B1FA81F1B2FA82F29870C1
:10A4B000490952094FF4007019701A71FFF710FD25
:10A4C0004FF40010FFF70CFD4FF00070FFF708FD90
:10A4D000B388002B40F06481A54A136813F07F4FC6
:10A4E0001CBF00231360936823F4007323F002035E
:10A4F0000BB100239360137902A8013B042B4FF0AA
:10A50000000688BF012300F8016D88BF13713FF07A
:10A51000DDFD9DF80730002B40F0BC80A379002BB7
:10A5200040F0D680002385F87E3085F8083185F824
:10A530009231904BDA8802F00F01032954D8C2F30C
:10A540000312022A50D81A8902F00F01032947D8B2
:10A55000C2F30312022A43D8874B884A5C785078AA
:10A560001978844240F28E8000205870002940F013
:10A570008880997892F8EA20914284BF00229A70EC
:10A580007F4B03F516719A78013A032A69D8DFE800
:10A5900002F0111702025C7A987ADA7AC82CA8BF06
:10A5A000C824C828A8BFC820C82AA8BFC8225C726F
:10A5B0009872DA7264338B42E5D103B0BDE8F08F54
:10A5C0005C7A987ADA7A632CA8BF63246328A8BFE0
:10A5D0006320632AA8BF63225C729872DA72E9E78B
:10A5E00040F601221A81B7E74FF42062DA80AAE729
:10A5F0000023AB816B82A5F89630A5F89C30A5F8B6
:10A600002031A5F8263105F047FF00283FF4CFAEF2
:10A61000737E5A1E012A3FF6CAAE00E0737E023BEB
:10A62000022B3FF6CFAE19F4805F7FF4D6AE19F05F
:10A63000800F3FF4D2AE534B197818293FF6DBAEAA
:10A640000122514B8A401340002B3FF4D4AEC4E6A4
:10A6500093F90430142B7FF4B2AD4C481EF082F90C
:10A66000E2E55C7A987ADA7A642CA8BF64246428DC
:10A67000A8BF6420642AA8BF64225C729872DA7250
:10A6800098E7988010788842BFF473AF0021197062
:10A6900099806EE7227C2671A379E2B13C4AD27B95
:10A6A000002A3FF43CAF002B3FF43CAF394B1A7803
:10A6B000002A7FF43EAF1B79002B7FF43AAF31E7DD
:10A6C000F37B002B00F0A180002386F8233061E6A5
:10A6D0000023A37126E76279012ADFD1002B3FF422
:10A6E00021AFF5E7B3F90820002A3FF430AE2CE69D
:10A6F000D9005018406800287FF446AD214C17203F
:10A70000207041E54FF48050FFF7EAFB238BB3F54F
:10A710007A7F37BF4FF47A72A378A3782283EEE56D
:10A7200000283FF48CAD1C4F1C4B97F82C1190F96E
:10A730000440FF2503F1480093F90820A24202D10A
:10A740000139C9B21D720C338342F5D187F82C113F
:10A7500075E5A379002B3FF49AAE237C012B04BF4F
:10A760000223237493E600BFF4B90020BCC6002086
:10A77000B086002014A00020C4990020447300205B
:10A78000046C0020F8A5002000410001F0C9002061
:10A79000CCC40020F8FC0020E81900204C7C0020EC
:10A7A00030780FF0FDFD00287FF496AEB08093E680
:10A7B0002448FFF795FBD1F8009019F0080F3FF4FB
:10A7C000DDAD2148FFF78CFBD1F8009019F4005F54
:10A7D0003FF4D8AD1D48FFF783FBD1F80090D1E5D9
:10A7E0001B48FFF77DFBD1F80090BFE5072051F033
:10A7F000F7F84FF480601DF0BDFF00287FF402AE33
:10A800004FF00060FFF76CFBFCE542F2010319EA30
:10A81000030F3FF4BFAD002386F82330BAE50D4A9D
:10A8200018231370B9E48020FFF75AFB07E5D8F826
:10A83000003049F0080943F00803C1F80090C8F857
:10A8400000308FE50920000201600002094000028B
:10A8500008600002F8A500202DE9F04F764B1B7828
:10A86000013B012B83B040F2CC80744B744ADFF87B
:10A870001C92934280F0DD80DFF81482CDF80490C2
:10A8800003F118069B464FF0010A6E4C25886219A9
:10A890007DB142450DD2052D0BD936F8183C6188A3
:10A8A000C3F30B03994272D0144625886219002D18
:10A8B000EFD156F8101C5846FEF7C2FB4FF0000AC5
:10A8C0005F4B0BF1180B9B4506F11806DDD3DDF845
:10A8D00004905D4A5D4B12681A60FFF745FC5C4BC3
:10A8E000DA7B012A79D0022A70D020241A785B788A
:10A8F00058485949594D03EB830303EB830300EB9D
:10A9000083035748036002EB021302EB8302554BAB
:10A9100001EB42022A601C6005F0CCFD524B286816
:10A920004FF0FF321A604AF001FD51F03FF94F4BF2
:10A930004F4918791A894F4B0B60642303FB02F2CD
:10A94000C8210A4413FB00110023C9E90112C9E917
:10A950000333C9E90533C9E9073389F8243089F895
:10A96000253026F023FF444B93F83211B3F8300121
:10A970004FF098F819F060FC1CF07CF92E4B1B7816
:10A98000013B012B2BD9504603B0BDE8F08F637912
:10A9900013F0030388D156F8101C94F8049058461D
:10A9A000FEF74EFB36F8182CB9EB123F86D136F87D
:10A9B000143C56F8100CAA1FC3F30B039A4204F17F
:10A9C0000601A8BF1A4652F0F5FE79E72B4A9279A4
:10A9D000002A0CBF2024282488E7282486E710F0CA
:10A9E00077F92749274B0C68274A18600221012371
:10A9F0005046C9F80C40117089F8253003B0BDE805
:10AA0000F08F10F065F9DFF884901E49D9F80C300A
:10AA10001D4A00F5B71000F5587003F2DC530860CA
:10AA20000221C9F80C301170044B054A9342FFF41F
:10AA300023AF4FF0010A4CE794C8002090010008B2
:10AA400010090008024000087C750020B4C80020EE
:10AA5000CCC40020046C0020406A00203CCA0020C6
:10AA60001C9F00200000001090020020F46E0020C7
:10AA7000C855002090A10020E8190020A4AE0020B5
:10AA8000A0B900204856002044560020D09900204C
:10AA90000080000830B402681146531C036011F8AE
:10AAA000024B0160D31C517803609378151D05603B
:10AAB0001B0443EA0123D078234343EA006030BCFF
:10AAC000704700BF0368591C1A46016012F8021B48
:10AAD0000260587841EA0020704700BF03685A1CA2
:10AAE00002601878704700BF70B5044608460E46ED
:10AAF00051F074F9314605460246206852F05AFE7C
:10AB000020682844206070BD38B5044600681546AA
:10AB100052F050FE22682A44226038BD036810B407
:10AB20000A0E5C1C04601A7003680A0C5C1C04604A
:10AB30001A7003680A0A5C1C04601A7003685A1CC5
:10AB4000026019705DF8044B704700BF036810B4D1
:10AB50000A0A5C1C04601A7003685A1C02601970AF
:10AB60005DF8044B704700BF03685A1C026010B4C4
:10AB7000197003680A0A5C1C04601A7003680A0CE6
:10AB80005C1C04601A700368090E5A1C026019707C
:10AB90005DF8044B704700BF03685A1C02601970CF
:10ABA0000368090A5A1C026019707047B0F9003036
:10ABB0009FED126A06EE903AB0F9023007EE103AB5
:10ABC000B0F9043000B507EE903AF8EEE66AB8EE58
:10ABD000C77AF8EEE77A85B066EE866A27EE067ADF
:10ABE00067EE867A01A8CDED016A8DED027ACDED92
:10ABF000037AFDF767FC05B05DF804FB88C3E43A0F
:10AC000007EE901AF8EE677A9FED837A27EE800AB6
:10AC100020EE070AFDEEC07A17EE903A2033402B63
:10AC200000F28180DFED7D7AB4EEE70AF1EE10FAF2
:10AC300040F3E680B0EE407A9FED796ADFED796A05
:10AC400001E0B0EE677AB4EEE67AF1EE10FA77EE54
:10AC5000467AF6DC9FED747AF4EEC77AF1EE10FADC
:10AC600040F1D1809FED6E6ADFED706A01E0F0EE99
:10AC7000477AF4EEE67AF1EE10FA37EE867AF6D4F9
:10AC8000DFED6B7AB4EEE77AF1EE10FA40F3A780CD
:10AC9000DFED627A37EEC77A27EE076ADFED655A95
:10ACA000DFED657ADFED656A9FED655AE6EE257AA0
:10ACB00067EE065AE6EE276AF7EE007AA5EEA67A68
:10ACC000F0EE675AE7EE055AE7EE457A87EEA55AA9
:10ACD000DFED577A30EE277AFDEEC76A16EE903A2E
:10ACE0002033402B24D99FED577AF6EE006AB7EE59
:10ACF000006AF7EE004AC4EEA57A0023836143613F
:10AD00000362C36180ED045A67EEA66A27EE866A85
:10AD100027EE877AC0ED006AC0ED026A80ED016A15
:10AD200080ED037A7047B7EE005AF0EE455ACFE750
:10AD3000B4EEE70AF1EE10FA6BDD9FED396ADFED54
:10AD4000396A01E0B0EE677AB4EEE67AF1EE10FA15
:10AD500077EE467AF6DC9FED347AF4EEC77AF1EEC0
:10AD600010FA53D59FED2E6ADFED306A01E0F0EE68
:10AD7000477AF4EEE67AF1EE10FA37EE867AF6D4F8
:10AD8000DFED2B7AB4EEE77AF1EE10FA33DCDFED8B
:10AD90002E7AB4EEE77AF1EE10FA44BFDFED227AB4
:10ADA00037EEC77A27EE076ADFED224ADFED226A27
:10ADB000DFED227AE6EE246A67EE064AE6EE267AB0
:10ADC000B7EE006AA4EEA77AF6EE006A36EE476A9E
:10ADD000F8EE007A27EE277A66EE266A89E7DFED3D
:10ADE0001A7AB4EEE77AF1EE10FA44BFDFED0E7A8C
:10ADF00037EEC77A50E7DFED097A37EEC77AD1E749
:10AE0000F0EE407A26E7B0EE677A39E7B0EE677A7F
:10AE1000B6E7F0EE477A9EE727D4D236DB0F4940FB
:10AE2000DB0FC940E4CB1641DB0F49C0E4CB16C1B0
:10AE3000DB0FC93F92E741B99730083C15A82ABEFD
:10AE4000F304353F00000000DB0FC9BFDFED317AAE
:10AE500030EE277AFDEEC76A16EE903A2033402B8B
:10AE600002D99FED2D0A7047B4EEE70AF1EE10FA11
:10AE70004DDD9FED2A6ADFED2A6A01E0B0EE677AC8
:10AE8000B4EEE67AF1EE10FA77EE467AF6DC9FED54
:10AE9000257AF4EEC77AF1EE10FA35D5DFED1F6AA8
:10AEA0009FED217A01E0F0EE407AF4EEC77AF1EE00
:10AEB00010FA37EEA60AF6D4DFED167AB4EEE70AFA
:10AEC000F1EE10FA1BDCDFED197AB4EEE70AF1EED1
:10AED00010FA44BFDFED137A37EEC00A60EE006A65
:10AEE0009FED136A9FED137ADFED137AA6EE867A53
:10AEF00020EE266AE6EE877AA6EE270A7047DFED97
:10AF00000F7A37EEC00AE9E7B0EE670AD4E7F0EE51
:10AF1000477ABCE7DB0FC93F00000000DB0FC940E8
:10AF2000E4CB1641DB0F49C0E4CB16C1DB0FC9BF30
:10AF300092E741B99730083C15A82ABEDB0F49407B
:10AF400002B370B48E1803E0121B14D1B14215D0B5
:10AF500010F8012BA2F14103192B11F8013BA3F1C9
:10AF6000410598BF2032192D03F12004ECD9D21AE3
:10AF700001D1002BEAD1104670BC70470022104668
:10AF800070BC70471046704770B5044608460D46C1
:10AF900050F024FF064602E014F8013F43B1324668
:10AFA00029462046FFF7CCFF0028F5D1204670BD8A
:10AFB0001C46204670BD00BF6FF00042FFF7C0BFC7
:10AFC000A0F16103192B98BF20387047A0F141030D
:10AFD000192B98BF20307047202805D00938042845
:10AFE0008CBF00200120704701207047613819286C
:10AFF0008CBF002001207047413819288CBF0020E9
:10B0000001207047303809288CBF0020012070478C
:10B01000A0F13003092B07D920F02000413819286E
:10B020008CBF002001207047012070472DE9F041BE
:10B030001F46064603461C782046FFF7CDFF1D46F7
:10B0400001330028F7D12B2C51D02D2C24D0102ADD
:10B05000804628D04FF0FF33B3FBF2F302FB03FC32
:10B060006FEA0C0C5FFA8CFC013500200BE0303CE1
:10B07000E4B2944225DA98422E461DD81AD002FB3B
:10B08000004015F8014B392CF1D944F02004602C14
:10B0900017D9573CE4B2ECE74FF00108102A6C785E
:10B0A00005F10105D6D1302C23D06FF070434FF05D
:10B0B0000F0CD9E76445E2D907EA08084FF0FF30E2
:10B0C000DFE701B10E60B8F1000F08D027B1B0F191
:10B0D000004F28BF4FF000404042BDE8F081002FF4
:10B0E000FBD06FF00043984228BF1846F5E7804632
:10B0F000D4E76C782046FFF769FF782805F1010650
:10B1000005D035466FF070434FF00F0CACE7AC78CC
:10B110006FF0704302354FF00F0CA5E701230A22B0
:10B12000002183E770B50D461446FEF7E5FD06469F
:10B13000A0B1FFF7F3FF40F634039842A8BF1846CA
:10B14000B0F5617FB8BF4FF461701923A0F561704D
:10B1500090FBF3F028702378013323703046FEF71C
:10B16000CBFD0646A0B1FFF7D9FF40F63403984265
:10B17000A8BF1846B0F5617FB8BF4FF461701923BE
:10B18000A0F5617090FBF3F06870237801332370B1
:10B19000304670BD002349E70378202B024600F1BA
:10B1A0000100F9D0092BF7D02D2B00F0A4802B2B18
:10B1B00003BF5378B7EE000A0246B7EE000AA3F1C8
:10B1C0003001C8B209289FED577A10D8F2EE046A10
:10B1D00007EE901AF8EEE77A12F8013FE7EE267ACA
:10B1E000A3F13001C8B20928B0EE677AF0D92E2B4E
:10B1F00063D003F0DF03452B02D020EE070A70472F
:10B2000010B451782D294FD02B2979D0A1F13003DA
:10B21000092B02F101027AD80024002303EB8303F7
:10B2200001EB430312F8011FA1F130000928A3F13B
:10B230003003F3D9B3F59A7F1A4628BF4FF49A72B8
:10B24000072B6CD9DFED386A1346F7EE007A083B1E
:10B25000072B67EEA67AFAD802F00702DAB1F2EE0F
:10B26000046A012A67EEA67A15D0022A67EEA67A4A
:10B2700011D0032A67EEA67A0DD0042A67EEA67ACB
:10B2800009D0052A67EEA67A05D067EEA67A062AC7
:10B2900018BF67EEA67A002C3BD087EE277A5DF8C0
:10B2A000044B20EE070A70479178A1F13003092B77
:10B2B00002F1020230D80124AFE75378A3F1300144
:10B2C000C8B2092802F1010293D8F2EE046AF0EE46
:10B2D000665A07EE901AF8EEE77A12F8013F87EE09
:10B2E000A66AA3F13001C8B2092866EEA56A37EE56
:10B2F000067AEED97DE75378BFEE000A02465EE794
:10B300009178A1F13003092B02F1020284D9F7EE02
:10B31000007A27EE277AC2E7F7EE007ABDE7F7EE6C
:10B32000007A9BE70000000020BCBE4CF8B5064642
:10B3300015460846B6FBF2F434B905FB14640C4B11
:10B340001B5D00F8013BF8BDB4FBF2F75FB905FBEC
:10B350001747074B05FB1464DA5D00F8012B1B5DF2
:10B3600000F8013BF8BD3846FFF7E0FFEFE700BF0C
:10B3700044980608B5EEC00ADFED677A674AF1EE39
:10B3800010FACCBF30EE270A30EE670ADFED647AA0
:10B3900020EE270A2DE9F047FDEEC07A88B017EEBF
:10B3A000904A84EAE4760023A6EBE476CDE9023302
:10B3B0000493A2FB06325FEAD208054641D105AFED
:10B3C00058483946554BA3FB0623DB0803EB8303A0
:10B3D000A6EB4303002CC35C0B704FF00002ACBF24
:10B3E00020232D234A7038468DF8083050F0F6FCA3
:10B3F0000128394639D0022842D0032805BF30231E
:10B4000002A802A88DF8093055F0D8FA02A850F029
:10B41000E5FC0338C4B2224602A9284652F0CAF914
:10B4200000232B55284650F0D9FC2E22431C02A99C
:10B430002A542144E81855F0DDFA284608B0BDE842
:10B44000F087394BA3FB06235B0922D105AF3548B2
:10B450003946324AA2FB0832D20802EB8202A8EB3C
:10B460004202835C01F8013BACE7302302A88DF86F
:10B4700009308DF80A308DF80B3055F09FFAC5E78A
:10B48000302302A88DF809308DF80A3055F096FA6D
:10B49000BCE7264AA2FB06125FEA92190ED105AF5D
:10B4A000204839461D4AA2FB03C2D20802EB8202A1
:10B4B000A3EB4203C35C01F8013BCAE71C4AA2FBB1
:10B4C00006125FEA523A0ED105AF16483946134AC2
:10B4D000A2FB09C2D20802EB8202A9EB4202825C03
:10B4E00001F8012BDEE71348B6FBF0F058B905AFC1
:10B4F00039460A20BAFBF0F200FB12A20948825C2E
:10B5000001F8012BE3E705AF39460A220193FFF763
:10B510000DFF019B0146ECE76F12033ACDCCCCCC7A
:10B5200000007A44449806081F85EB51D34D621001
:10B530005917B7D1A0860100802819D9F2B130B4CB
:10B5400000234C1E01E09A420ED060F07F05C00936
:10B55000802803F1010304F8015FF4D89A4203D96B
:10B56000C85430BC581C70474FF0FF3030BC704797
:10B5700000239A4202D9C854581C70474FF0FF303C
:10B58000704700BF0F4B2DE93048D3E9004554EA1E
:10B5900005020AD1034640F201120020188098806B
:10B5A00098715A801881BDE83088074B1A6814EBEF
:10B5B000020B45F1000C5A466346FCF789FE012058
:10B5C000BDE83088109B0020A0B9002030B403886B
:10B5D0008278C478154DA3F5FA6303F0030101EBFB
:10B5E0004101013A02EB81029B0835F812500279C1
:10B5F000611E40F2B55404FB03132B4403EB4303D9
:10B6000002EBC3034279847909490089C3EB031330
:10B6100002EB83032144C3EB031301EB83034FF4D9
:10B620007A720021C2FB030130BC7047540A06083D
:10B6300080436D3870B406688E4217D90139751E83
:10B64000002311F8014F0822634013F0800F4FEAE6
:10B65000430318BF83F0D503013ADBB2F5D18D4225
:10B66000EFD1721C0260337070BC7047721C0023F3
:10B670000260337070BC70470A44914215D010B418
:10B680000139541E11F8012F0823504010F0800F8B
:10B690004FEA400018BF80F0D500013BC0B2F5D1A1
:10B6A000A142EFD15DF8044B704770474840082332
:10B6B00010F0800F4FEA400018BF80F0D500013B2A
:10B6C000C0B2F5D1704700BF0A44914215D030B4E2
:10B6D0000139551E41F2210211F8014F082380EA79
:10B6E000042004044CBF82EA40004000013B80B2C9
:10B6F000F7D18D42F0D130BC7047704770B502224F
:10B700001349144C144E4FF6FF70FFF7DDFF2288EB
:10B710004AB1A518B54218D2052A16D92146FFF715
:10B72000D3FF2C46F3E721460222FFF7CDFF02228A
:10B73000A118FFF7C9FF094BE41A094B1C8041F619
:10B740000F53C31A5842584170BD0020FCE700BF98
:10B75000004000080240000800800008FA3F00088E
:10B76000468B00202DE9F04F8DB0FEF7FDFC704BAD
:10B770001B78013B012B40F2CA806E4ADFF8DC9156
:10B780006D4BB2F890206D4FDFF8D481ADF80620F4
:10B79000A3EB090300934FF0030A0026CDE90866E6
:10B7A000CDE90A66009BCDF818900793D8F81030C1
