:020000040800F2
:10800000000001209DF604081DF7040881BD030847
:10801000E5BD03081DF704081DF704080000000073
:108020000000000000000000000000001DF7040830
:108030001DF70408000000001DF70408E92E0108E0
:108040001DF704081DF704081DF704081DF70408B0
:108050001DF704081DF704081DF704081DF70408A0
:108060001DF704081DF704081DF7040835FA000879
:1080700025FA000815FA000805FA0008F1F90008C9
:10808000DDF90008C9F900081DF704081DF7040808
:108090001DF704081DF704081DF704081DF7040860
:1080A00021DB0008A9DB000811DB0008D1DB000898
:1080B00099DB000889DB000879DB00081DF704085C
:1080C0001DF704081DF704081DF704081DF7040830
:1080D0001DF70408C538010861360108FD330108A1
:1080E0001DF704081DF704081DF7040801DB00084C
:1080F00031DB00081DF7040859DB0008B5F900085A
:108100001DF704081DF7040869DB00081DF70408C3
:1081100099310108352F01081DF704081DF70408DF
:10812000A1F900088DF9000879F9000865F900083F
:1081300051F90008000000000000000000000000ED
:108140000000000000000000000000001DF704080F
:108150003DF9000829F9000815F900081DF7040881
:108160001DF704081DF704081DF704081DF704088F
:108170001DF704081DF704080000000000000000BF
:108180001DF704081DF704081DF704081DF704086F
:108190001DF704081DF70408000000001DF704087F
:1081A0000000000000000000000000001DF70408AF
:1081B0001DF704081DF7040800000000000000007F
:1081C00000000000000000000000000000000000AF
:1081D0000000000000000000000000001DF704087F
:1081E000DFED2A7AB4EEE70AF1EE10FA4BDDDFEDAF
:1081F000286A9FED287AB4EEC70A70EE667AF1EE2F
:1082000010FAB0EE670AF6DC9FED237AF4EEC77A37
:10821000F1EE10FA34D5DFED1E6A9FED207AF4EE10
:10822000C77A37EEA60AF1EE10FAF0EE407AF6D4ED
:10823000DFED1B7AB4EEE70AF1EE10FA14DDDFEDA4
:10824000137A37EEC00A60EE006A9FED166A9FED62
:10825000167ADFED167AA6EE867A20EE266AE6EE2C
:10826000877AA6EE270A7047DFED117AB4EEE70AA7
:10827000F1EE10FAE7D5DFED087A37EEC00AE2E753
:10828000B0EE670AD4E7F0EE407ABDE7DB0F494075
:10829000DB0FC940E4CB1641DB0F49C0E4CB16C16C
:1082A000DB0FC93F92E741B99730083C15A82ABEB9
:1082B000DB0FC9BF0378092B01D0202B05D110F8A3
:1082C000013F202BFBD0092BF9D02D2B00F0A980EA
:1082D0002B2B75D0B7EE000AA3F13002D1B20929D9
:1082E00077D8F2EE046ADFED5F7A07EE102A10F815
:1082F000013FB8EEC77AA3F13002D1B2A7EEA67A59
:108300000929F0EE477AF0D92E2B66D003F0DF036F
:10831000452B40F0838010B442782D2A00F09680DF
:108320002B2A00F08380A2F130030130092B00F2E8
:1083300084800024002303EB830302EB430310F843
:10834000012FA2F13001303B0929F4D9B3F59A7F0E
:108350001A46B7EE007A28BF4FF49A72072B09D954
:108360001346DFED416A083B27EE267A072BFAD841
:1083700002F00702DAB1F2EE046A012A27EE267A49
:1083800015D0022A27EE267A11D0032A27EE267A64
:108390000DD0042A27EE267A09D0052A27EE267A60
:1083A00005D027EE267A062A18BF27EE267A002C5B
:1083B00045D0C7EE877A5DF8044B20EE270A704758
:1083C0004378B7EE000A0130A3F13002D1B2092997
:1083D00087D92E2BDFED237A98D143780130A3F192
:1083E0003002D1B2092991D8B2EE047AF0EE475AA0
:1083F00006EE902A10F8013FB8EEE66AA3F13002CB
:10840000D1B2C6EE076A092927EE257A77EEA67A59
:10841000EED903F0DF03452B3FF47DAF20EE270AB2
:1084200070474378BFEE000A013055E7827802308A
:10843000A2F13003092B7FF67CAFB7EE007A67EE2E
:10844000877A5DF8044B20EE270A70478278023065
:10845000A2F13003092B01D801246BE7B7EE007AB3
:10846000A7E700BF0000000020BCBE4C0028F0B50C
:1084700004DA2D234042013101F8013C0928044669
:108480004FF0010307DD03EB83035B00B0FBF3F266
:10849000092AF8D883B10E48A0FB0356B4FBF3F2C7
:1084A000092A02F1570C02F1300708DD03FB1244E0
:1084B000F30801F801CBEFD100230B70F0BD03FBF3
:1084C0001244F30801F8017BE6D100230B70F0BDE4
:1084D000CDCCCCCC884270B44FF0010442D301FB28
:1084E00004F4B0FBF4F58D42F9D2ECB142BB092D96
:1084F00004FB150005F1570605F130020EDD03F807
:10850000016BB4FBF1F47CB1B0FBF4F5092D04FB75
:10851000150005F1570605F13002F0DC03F8012BD8
:10852000B4FBF1F4002CEFD1002270BC1A7070473C
:10853000B4FBF1F403F8016B002CF5D0B0FBF4F5BB
:10854000092D04FB150005F1370605F13002EFDCBB
:1085500003F8012BB4FBF1F4002CEFD1002270BC26
:108560001A7070470546002AEAD1C0E70388B3F5C0
:10857000FA6F17D38378013B0B2B13D8C378013BD9
:108580001E2B0FD80379172B0CD843793B2B09D816
:1085900083793B2B06D80089B0F57A7F2CBF002069
:1085A00001207047002070472DE9F84F14461D4602
:1085B00006464FF47A720023204629464E4F46F075
:1085C00089FE4E4B4E4A40F2B55C0344DFF83CA1B5
:1085D00082FB0301D81787FB03784A4F194498445C
:1085E00087FB037EC0EB6111C0EBE8279E4482FB52
:1085F00001824FEAE179C0EB2E4E8AFB078A0A44DA
:10860000C1EB011BC9EB62193F4AA3EB8B0BC9EB12
:10861000091982FB0E824FEAE77886F806B0A1EBD3
:108620008901DFF8EC90C8EBAA08717189FB03138C
:108630004FEAEE7108EB4808C1EBE212A7EBC8085D
:108640000CFB12E2C0EBE35386F80480B2F5896FAD
:108650004FEA83003CDA40F2DA239A4242DCB2F578
:10866000B77FDFF8B080B4BF4FF0000E4FF0010EBF
:108670004FEA4E091FFA8EFC09EB0E0308EBC30309
:10868000DF8A09EB0E010B2308EBC101163101E073
:1086900031F8027D974218DD013BF9D1CE44012328
:1086A00038F83E7000F5FA6E0132B3702046F4449B
:1086B000D71B29464FF47A720023A6F800C0F77042
:1086C00046F008FE3281BDE8F88F0133DBB2E9E7FE
:1086D0004FF0030C40F29657DFF838804FF0060950
:1086E000E646CEE74FF0020C40F22947DFF824803F
:1086F0004FF00409E646C4E7C5B3A29180BC92C717
:108700008988888807452EC273B06D16ABAAAA2A3D
:10871000792D0311982C050803685A1C0260197002
:10872000704700BF2DE9F047089C002B884607469C
:1087300021780CBF4FF020094FF03009651C29B398
:10874000002A27DD2B4601E00246A8B113F8016B91
:10875000501E002EF8D1961E70B1B2460AF1FF3AB3
:1087600049463846C0470AF10103002BF6DC26EAE9
:10877000E6702178013039B1041B3846C04728190A
:1087800015F8011B0029F8D1BDE8F087002A03DCA9
:108790000846F9E70020EFE7561EDEE79FED540A92
:1087A000D0ED005A35EE800A08B5FDEEC07A2DED09
:1087B000028B17EE903A2033402B40F294809FEDCD
:1087C0004D5AFDEEE57A17EE903A2033402B40F2F9
:1087D0008380DFED485AD0ED014A9FED450A34EE23
:1087E000800AFDEEC07A17EE903A2033402B6AD90A
:1087F0009FED402AB0EE428AB0EE424AFDEEE47AA6
:1088000017EE903A2033402B56D9DFED3A3AD0EDAF
:10881000022A9FED370A32EE800AFDEEC07A17EE8B
:10882000903A2033402B3AD9DFED324AB0EE643A29
:10883000B0EE641AF0EE640AF0EE641AFDEEE27A2D
:1088400017EE903A2033402B24D99FED2A0A20EED0
:10885000057A81ED058A60EE257AC1ED001A24EED5
:10886000404AC1ED023AE7EE234A81ED082AA7EE1D
:10887000E33A37EE207A81ED014A77EEC17ABDEC1A
:10888000028B81ED037AC1ED074A81ED043AC1ED17
:10889000067A08BDB0EE620AFFF7A2FCD7E7FFF741
:1088A0009FFC60EE254A20EE053A60EE041A63EE66
:1088B000A40A23EE831AC1E7B0EE640AFFF790FC26
:1088C000F0EE403AA3E7FFF78BFCB0EE404A25EE0E
:1088D000C08A20EE052A91E7B0EE650AFFF780FC1A
:1088E000F0EE405A77E7FFF77BFCB0EE405A68E7BE
:1088F000DB0FC93F0000000030B4002321254FF6F4
:1089000001740122FF214570048281740272027099
:1089100043818381C38130BC704700BFFF2203467F
:1089200000F1100170B41A70023303F8012C8B426D
:10893000F9D10E4B4FF0FF31002203F10C060C462B
:1089400000EB42059E4200F8124069700CD093F98A
:10895000044093F9051013F8032F00EB42059E42E3
:1089600000F812406970F2D170BC7047F82C05080D
:10897000152216232E2102702F224370FF238171AE
:10898000C271437383738374C374C37003710372BE
:10899000437230B417252D248570447130BC704764
:1089A0000023037043708370C3707047F8E700BF03
:1089B000002306214FF47A7201700373C0E901238A
:1089C00070474FF400638383704700BF4368426D74
:1089D00070B49A61EFF31182502383F312884168D7
:1089E000D2B2856C0B68046D23EA050323430B6048
:1089F00082F311884369002184681A68246822F090
:108A00000102D0E908561A601D60C26A856A5E617B
:108A10005D60056B9A60B0F86C20DD60E262017702
:108A200070BC7047024B03EB4010407F704700BFA3
:108A300068590020704700BF404A4301F0B5D41880
:108A4000257F05B9F0BD3E4E00EB80053D4F06EB9E
:108A500045153D4E3F7895F802C0367884F802C03F
:108A60000024B742AC701CD07500384C05EB060CE6
:108A700014F83CC00CF1FF3EBEF1010F08D9BCF167
:108A8000030F0ED106F1010C0CF0030CBC4508D00D
:108A90002E4404EBC6042044417B11B1D0180124BC
:108AA0008470D152D018EFF31181902484F312888E
:108AB000D45A00258278CBB2857042EA440292B241
:108AC00083F31188224B110A1B7881EA121151405D
:108AD000CBB11301C94382690124456801F00F013C
:108AE0009BB2D2F8AC20AC400B4302F1C00059005D
:108AF00013F4004F8BB202D15168214351600C3204
:108B00008242F4D1F0BD13014468826901F00F0183
:108B100004F110009BB2D2F8AC2001240B43844036
:108B200002F1C000590013F4004F8BB202D151681A
:108B3000214351600C329042F4D1F0BD68590020BD
:108B4000E4490020C05A01205C5A0120605A0120EB
:108B500058590020BCEEC00A10EE103A99B26BE7EB
:108B600040F2E93300E09BB18268013B12F0020F52
:108B70009BB2F8D0017340F2E93300E043B1826860
:108B8000013B12F0010F9BB2F8D0C068C0B2704731
:108B9000094A904203D0094B98420BD10123084A5D
:108BA000D82101FB03239A89013292B29A819889D4
:108BB000C0B27047FF2070470030014000380040CD
:108BC000FC560120F0B4C76982B006461FB1BB88CD
:108BD0003A681B049361726903206D463B4C5368ED
:108BE00023F48053536040F2E93301E0013B54D059
:108BF00091688907FAD5002C4CD034F8023B938158
:108C000040F2E93301E0013B47D09168C907FAD54A
:108C1000D3680DB125F8023B0138E4D1516840F228
:108C2000E93341F48051516001E0013B35D0916856
:108C30008807FAD5002C41D02378137340F2E9332A
:108C400001E0013B3CD09168C907FAD5D368F769C8
:108C500005B12B7017B13B68BA889A619DF8014045
:108C600001209DF803309DF802109DF8042041EA90
:108C700004219DF8054042EA03229DF80630A6F83B
:108C8000481043EA0423A6F84A20A6F84C3002B064
:108C9000F0BC70474FF6FF73B1E70D498A4203D02D
:108CA0000C4B9A42D6D101230B4AD82101FB032356
:108CB0009A89013292B29A819B89CBE7FF23BCE764
:108CC0000349F7698A42EBD1EEE700BF082D05089A
:108CD0000030014000380040FC5601204B1E0022AD
:108CE000590003F00303028001F00801194301F069
:108CF00003038908C3EB0313914214BF4FF4E161EE
:108D00001146C3EB031341809B008380704700BF73
:108D1000F0B58DB000250221044602AE05700F4665
:108D200002953046ADF80C50FFF7D8FF2C2308AA67
:108D30006770E3704FF40073A770E3800123009520
:108D4000ADF8045096E80300A3736E460890ADF8A2
:108D5000241092E80300ADF82C101946BDF82C3011
:108D6000A0603046A381FFF7B9FF4FF4807204ABD7
:108D7000E77325746574A28296E803000490ADF849
:108D8000141093E80300ADF81C10BDF81C30C4F8B3
:108D9000160063830DB0F0BD70B584880B460546A0
:108DA0000021C4F30B041846224649F013FF6969F9
:108DB000084A0346914202D3074A914204D341B183
:108DC0001846BDE8704008472246BDE8704047F0AD
:108DD000C7BB70BD906506083C67060870B50D4EB0
:108DE0003368002B13DD0C4C002503E0336820347E
:108DF000AB420CDD237F0135002BF7D0217D2034E1
:108E000054F8140C0BF074FA3368AB42F2DC012016
:108E100070BD00BF5C590020685900200BF066BF90
:108E200038B5054658B14C1E14F8011F284619B92B
:108E3000BDE838400BF04CBF0BF058FFF4E738BDED
:108E400003682DE9F0410C46C3F30D0186B00646D8
:108E5000002944D1394A0120394D0223AA42CDE9E3
:108E60000211CDE904031DD936498A4225D901F5FD
:108E700080418A4217D9344B9A4220D903F5803376
:108E80009A421ED903F500339A421CD903F50033E8
:108E90009A421AD903F500339A4218D9052033F0C3
:108EA0001DFAFBE70B460393284B1B7D012B10D1CA
:108EB0004FF0FF3006B0BDE8F0810346F3E703232F
:108EC000F1E70423EFE70523EDE70623EBE70723AC
:108ED000E9E701A902A836F0D7FA0028E8D11B4D2E
:108EE0002B7D012B02D16FF00100E3E701233768EE
:108EF000D4F800802B753BF0B7FFB0B9144C236950
:108F000023F440732361236943F4007323612369CD
:108F100043F001032361C7F80080BFF34F8F3BF09C
:108F2000A3FF236923F00103236100232B7500288D
:108F3000D9D1336804333360BCE700BF0040000878
:108F4000FF3F0008FF7F0008FFFF0008205E0120B0
:108F5000003C02402DE9F04104460D468E180027E2
:108F600000F10808B542206901D1BDE8F081E3684D
:108F7000591C2344E160042915F8012B1A72F1D120
:108F800018B941462046FFF75BFFC4E90370E9E7E3
:108F9000014B18680AF01EBE2846012010B5044691
:108FA0000021012033F02AF8207010BD38B50023CD
:108FB000451E1C460372E1B20134022033F01EF854
:108FC000082C05F8010FF6D138BD00BF194B70B55C
:108FD0001B780646012B22D040F22E414FF4F0724E
:108FE000092381820280837000234FF4FA604FF4DA
:108FF0007A7140F226221C46F51D7371F08231838E
:109000007282E1B20134042032F0F8FF082C05F836
:10901000010BF6D10E220223B276338270BD4FF4DB
:109020007A704FF47A5104223371B0823180B27079
:10903000DAE700BFAD3F012038B5002305461C46E6
:1090400003802146013428461EF048FD082CF8D143
:109050000023284685F8EA301946A5F8EC30A5F833
:10906000EE30A5F8F030A5F8F230A5F8F430A5F808
:10907000F630A5F8F830A5F8FA30BDE838401EF013
:10908000F1BC00BF2DE9F047174E814612210027A1
:1090900006F58078154C164B1022012503E020338D
:1090A000A3421AD01A799142F9D1186832689042D5
:1090B00001D00135F3E7587972799042F9D107EB85
:1090C00047030137304609EB030A09F803108AF811
:1090D00001500BF089FA8AF802002036464501D08B
:1090E0003179D8E7BDE8F087B88B0508B88B05085B
:1090F000F881050838B53222002149F06BFD0225C0
:109100000346642140F2DC5440F21A4040F26C7293
:109110001D72197440F2022519215C82988240F276
:10912000753440F64300DA820E221D831977032539
:109130000A21DC8318841E24132083F822200122B4
:1091400083F82B10D8721946987683F82A5083F842
:109150002C409A7383F8252083F8292083F82D204A
:1091600083F82E200248BDE8384022F085BA00BFBF
:10917000D4A705081D4B1B7870B5044600F12505E2
:1091800093B105221A49203049F062FD2846152284
:10919000184949F05DFD012384F83A30164B1B78DD
:1091A00073B984F83B3070BD28461522134949F045
:1091B0004FFD012384F83A300F4B1B78002BF0D081
:1091C0000F4A0123166855689068D168266065606B
:1091D000A060E160D16916695569906984F83B30F7
:1091E00026616561A061E16170BD00BF3C3C01206A
:1091F00030400120184001203D3C0120E0A7050837
:10920000103C01202DE9F0434FF416728FB000217D
:10921000714849F0DFFC714B714D4FF080415A6C41
:10922000A5F120092C4642F00102DFF8C08109F5C2
:109230001E676C4E5A645A6C02F001020092009A4A
:109240001A6C42F001021A641A6C02F001020192D7
:10925000019A1A6C42F002021A641A6C02F00202BD
:109260000292029A1A6C42F004021A641A6C02F01A
:1092700004020392039A1A6C42F008021A641A6CF0
:1092800002F008020492049A1A6C42F010021A6466
:109290001A6C02F010020592059A1A6C42F0200234
:1092A0001A641A6C02F020020692069A5A6C42F076
:1092B00002025A645A6C02F002020792079A5A6C30
:1092C00042F480325A645A6C02F480320892089A4E
:1092D0005A6C42F400325A645A6C02F40032099219
:1092E000099A5A6C42F480225A645A6C02F4802221
:1092F0000A920A9A1A6C42F040021A641A6C02F03E
:1093000040020B920B9A1A6C42F080021A641A6C9B
:1093100002F080020C920C9A1A6C42F480721A6469
:109320001B6C03F480730D930D9B4246002304E0F5
:1093300001330E2B10D056F833209142F8D12A4A2F
:10934000203402EBC30393F87C003AF009F9A742FA
:1093500008D054F8201CE8E7203400203AF000F947
:10936000A742F6D109F51C6609F12009B1450FD0D5
:1093700099F80630002BF7D099F8040009F120097C
:109380000AF076FD19F8181C3AF058FFB145EFD1F4
:109390004FF08041154F134E3A46002304E001334D
:1093A0000E2B10D056F833208A42F8D10E4A2035C1
:1093B00002EBC30393F87C003AF0D2F8AC4208D039
:1093C00055F8201CE8E7203500203AF0C9F8AC42F7
:1093D000F6D10FB0BDE8F083503C012000380240C8
:1093E00018820508102D0508982C0508000001407A
:1093F0004369016870B45D699C682A68246822F03A
:1094000001021E8A2A60E26822EA0602E260027C09
:109410001F2A06D9203A08204C689040204240D0AC
:10942000FEE708200C6890402042F9D1202000FA85
:1094300002F28A60204A1278002A30D01A7F012A6C
:1094400034D0D3F800210132C3F80021EFF31181A9
:10945000502282F312885868C9B29D6C0268DC6C95
:1094600022EA05022243026081F3118899680125EE
:109470005A695C6B986B09681460DC6B5061186CFE
:1094800054605C6C9060B3F8B400D460C862146837
:10949000188A2C4314601D77CB680343CB6070BCE3
:1094A0007047202000FA02F2CA60C3E7D3F8042113
:1094B0000132C3F80421F2E75859002040699C307A
:1094C00036F05EB8426910B50832184C54F82200E4
:1094D00036F056F8164B1A8823460C2A0DD8DFE8CA
:1094E00002F0070C0C0C130C0C0C190C0C0C1F00CC
:1094F0002168CA6822F40072CA60012283F83D2004
:1095000000220C4B1A7010BD2168CA6822F48062D8
:10951000CA60F2E72168CA6822F40062CA60ECE718
:109520002168CA6822F48052CA60E6E7A0310120AF
:10953000E0310120F07201200269C3682DE9F04793
:1095400012EA030927D00E4605464FF000474FF0B8
:109550000008B9FA89F327FA03F21B3BD2432A61C8
:1095600009EA0209042B13D8DFE803F03229201797
:109570000300736A002B34D1EB6A1FFA83FA346A52
:1095800034B123682046514698476468002CF8D1CE
:10959000B9F1000FDDD1BDE8F0873068696B036871
:1095A00089B29847B9F1000FD3D1F4E77068A96B7D
:1095B000036889B29847B9F1000FCAD1EBE7B068E8
:1095C000E96B036889B29847B9F1000FC1D1E2E7AE
:1095D000F068296C036889B29847B9F1000FB8D1D7
:1095E000D9E703F1FF3AC6F824801FFA8AFAC6E7E2
:1095F000054B2DE9F04F1C7887B03CB9012420467B
:1096000007B0BDE8F08F00BF58590020CC4B1D6853
:1096100009F0F4FBCB4B029093F82C30002B00F0B8
:10962000C282C94A4FF00008C84BA2FB0512C84CC1
:10963000DFF848935209A4F1640AA3FB0213DB0884
:1096400003EB8303A2EB4303DAB29B000392049380
:10965000C04B029A1B68D31A04D454F8082C9A42BF
:1096600000F38C824FEA8805206B54F85C2C05EBE4
:109670000803C1B2176820F0FF000AEB4313B64A93
:10968000103993F85830A2FB012103F0FF020909B9
:109690000192002B00F0C580B04B34F8582C5B5C75
:1096A00003445E68FB68B6B223EA0203C6F11606FD
:1096B000FB60072E40F2B580A94B0120A16B002270
:1096C0009B6886468B4605918C460344A449174601
:1096D0008B60DBF800105CF804BF8642ABEB010145
:1096E00040F25A82142F12DC11F1080348BF01F135
:1096F00017031B111F440130594603F1FF3B02FAC7
:1097000003F386420EFA0BF242EA0302E3D2152F6C
:1097100040F00F829349C2F38427C2F3441602F04B
:109720001F0001EB8707C2F3C43201EB8606D7F8AE
:10973000E87001EB8000D6F8E86001EB82023F029E
:10974000D0F8E830D2F8E82047EA06173B4343EA6E
:10975000023282EA122383EA131303F00F030F2B62
:1097600040F0E781130940F6FF718B4200F0188248
:10977000C3F30803520B13FA02F200F0DA817A4BBA
:109780004FF6FF7003EB5203B3FBF2F291B281424A
:1097900000F0CF81724B0120B8F1030F2B44998167
:1097A000987306DC714B1B782D2B02D1704B23F87C
:1097B000182099F85830039AD9F800609342049B16
:1097C00009EB030211D093680020D9F80410F31AB2
:1097D000C9F80030136BCB1AC9F8043090601063DD
:1097E000039BD9F8006089F85830206B013654F893
:1097F0005C7CC9F80060C1B2936820F0FF001039AA
:10980000554E01333F68A6FB01619360019B090936
:109810003BB9D9F804300133C9F80430136B013374
:10982000136345443FF0F8F800230AEB451585F82B
:10983000583054F8102C012A00F08781042A00F0D7
:109840008481102A00F08481402A00F07E81B2F5E4
:10985000807F00F08381B2F5806F00F07F81B2F5E8
:10986000805F00F09581B2F5803F4FF03C0314BF5C
:109870006FF400666FF0080607F1180522463846B7
:10988000E9583140E95054F8101C3EF037FE54F8C6
:10989000103C012B00F05781042B00F05481102B59
:1098A00000F05981402B00F04E81B3F5807F00F02D
:1098B0005981B3F5806F00F05581B3F5805F00F0FA
:1098C0006281B3F5803F07F1540514BF4FF4006285
:1098D00008222B68402727481343274E2B60216B13
:1098E00054F83C5C54F8403C5FFA81FE44F8447CF8
:1098F00021F0FF022B43AEF1100E174D54F8387CC7
:10990000A5FB0E5E43F0400554F8243C4FEA1E1EB2
:109910002F4354F8345C10F80EC02F4354F8305CD9
:109920005CF802000CEB020E3D43064054F8200C9C
:109930001D432E434CF8026000283DD020E000BFBC
:1099400068550120205900201F85EB51CDCCCCCC8F
:10995000484A002014000020ABAAAAAA789A050859
:10996000744F0020982C0508C0270900B66201201A
:10997000B8620120789A05081F80FCFFD0420020C1
:10998000DEF8145054F81C3C25F0070554F8186C08
:10999000034354F8147C2B43CEF814305CF80230A7
:1099A00023F0C0731E434CF802605CF8023023F4CD
:1099B000C0031F434CF8027054F8483C08F10108FA
:1099C00054F84C0C09F15C09CEF80C30A034CEF8F8
:1099D0000800764BDEF8040054F8CC5C034054F8E1
:1099E000C80C2B43CEF804305CF8023023F0F0535F
:1099F00003434CF802300B6843F010030B606C4BD0
:109A000093F82C3043453FF723AE002269490A60A2
:109A1000002B3FF4F3AD9AF81020DAF8540012F05E
:109A2000020FDAF8082011680A6A0CBF024342EA02
:109A30008002012B0A623FF4E1AD9AF8B020DAF817
:109A4000F40012F0020FDAF8A82011680A6A0CBFBD
:109A5000024342EA8002022B0A623FF4CFAD9AF839
:109A60005021DAF8940112F0020FDAF84821116857
:109A70000A6A0CBF024342EA8002032B0A623FF4E7
:109A8000BDAD9AF8F021DAF8340212F0020FDAF8DC
:109A9000E82111680A6A0CBF024342EA8002042BE3
:109AA0000A623FF4ABAD9AF89022DAF8D40212F0D1
:109AB000020FDAF8882211680A6A0CBF024342EAF0
:109AC0008002052B0A623FF499AD9AF83023DAF848
:109AD000740312F0020FDAF8282311680A6A0CBF27
:109AE000024342EA8002062B0A623FF487AD9AF8ED
:109AF000D023DAF8140412F0020FDAF8C823116840
:109B00000A6A0CBF024342EA8002082B0A627FF411
:109B100075AD9AF87034DAF8B41413F0020FDAF86D
:109B200068341A68136A14BF43EA81030B43136253
:109B300064E5214A536801335360B8F1000F15D032
:109B40000023019335E60822C3E66FF0080693E68A
:109B50006FF4006690E64FF40062BAE66FF0080614
:109B6000042389E607F11C050822B2E6059958226C
:109B7000124846F0F5FCCDF804801AE60024204691
:109B800007B0BDE8F08F07F11C054FF40062A0E6B6
:109B90006FF4006604236FE6C7F115031527AAE5E5
:109BA00000221146F6E5034A136028E50000FFFF96
:109BB0002059002014000020744F0020A04F0020E6
:109BC000224A234B2DE9F04112781B789A4236D174
:109BD000204E3368002B13DD00251F4C1F4FA84675
:109BE0003B7801353BB1237F012B22D0626913689A
:109BF00043F001031360336804F58674AB42EFDC75
:109C000009F0FCF8164BD3F8CC45C3F8C805002C76
:109C10000DDD03F5BA6303EBC4041968083333F8A8
:109C2000042CC868A34242EA0002CA60F5D1BDE82C
:109C3000F081204684F8FC80FEF7C8FED6E73AF0B3
:109C400077FE0028C4D1BDE8F08100BFC05A0120D2
:109C50005C5A0120B0450020B4450020585900202E
:109C600014000020CC4B1B782DE9F04F87B0EBB9E6
:109C7000CA4F3B68002B15DD0025C94829464669B7
:109C8000D0F8AC30346803F1C00224F00104346031
:109C900059600C339A42FBD101353B6800F5867060
:109CA000AB42ECDC012007B0BDE8F08FBD4B1C6877
:109CB00009F0A4F8BC4AD2F8C835D2F8F025C31A86
:109CC0001432B3EB420FC0F28B81B84B4FF0000857
:109CD000B74AA3FB0413B748DFF8FCE25B09B649B7
:109CE000DFF8F892A2FB032C02684FEADC0C029228
:109CF000B24A0CEB8C0C9068A3EB4C0C52680190B0
:109D00005FFA8CF304920EEB8C0C0A7803930592A5
:109D1000029B434540F33981D9F818200121D9F835
:109D2000043056699940D2F8F440F3B2D2F8F850B2
:109D3000A34A26F0FF06103B2088A24FA2FB032374
:109D400000EA010218091346385C30449E4E406810
:109D500080B22D1AAE1904EB4606B44280F07D8124
:109D6000608800EA01021746002B00F06A81A08893
:109D700000EA01021346002F00F06581E08800EA46
:109D80000102002B00F0618104F108032089EAB18F
:109D9000B24600EA01029A45174619D9588800EAE6
:109DA00001021646002F00F04681988800EA010261
:109DB0001746002E00F04181D88800EA0102002FEA
:109DC00000F03D8133F8080F002AE2D100EA0102D9
:109DD000002A40F0CE801C1BA5EB6404452C28BF54
:109DE000452403EB4400834280F0C3801C461646A2
:109DF00015464FF0010A009216E0B3F802B00BEAE4
:109E0000010B5A4540F00A81B3F804B00BEA010B8C
:109E10005A4540F00E81DA8808330A40954206D14F
:109E2000984207D91A880A40AA42E6D002339842DB
:109E300000F2DA80009F112F40F29B80C7F11507D6
:109E4000002FC0F2ED8000F00A81791E012306FA8E
:109E500007F75E4A8B401F43C7F3130107F01F0744
:109E6000CC0BC1F3441002EB8703C1F3842102EB56
:109E7000840402EB8000D3F86831D4F8684102EB27
:109E80008102D0F8681143EA0433D2F8682143EA2A
:109E9000011343EA022383EA132282EA121202F038
:109EA0000F020F2A40F0BC80B3F5803F80F0B880ED
:109EB0001A0940F6FF718A4200F0C980C2F3080215
:109EC0005B0B12FA03F300F0AB80414A02EB530044
:109ED0004FF6FE72B0FBF3F090424AD0019A4FF673
:109EE000FF7301329842019200F09D8081B2334BA2
:109EF0000122B8F1030F03EB880399819A7305DC03
:109F0000059B2D2B02D1334B23F818009EF85830B7
:109F1000039CDEF80010A34214D0DCF80830DEF811
:109F20000420CB1ACEF80030DCF83030D31ACEF84B
:109F300004300023CCF80830CCF83030DEF80010C4
:109F40008EF8584001314FF6FF72CEF80010904263
:109F5000DCF8083003F10103CCF8083009D1DEF851
:109F600004300133CEF80430DCF830300133CCF863
:109F7000303008F101080EF15C0E0CF15C0C09F1B7
:109F80002009B8F1080F7FF4C3AE0C4B019A9A6018
:109F9000049A5A606CE600BF58590020B045002072
:109FA000B445002068550120140000201F85EB51A6
:109FB000CDCCCCCC5C590020B6620120744F00207F
:109FC000ABAAAAAA789A0508C7FFFF7F982C0508B4
:109FD000C0270900B8620120D04200206859002043
:109FE000002007B0BDE8F08F1A1B304F33F8025C39
:109FF0001C4652100D40013287FB027B009FABEBE9
:10A00000E272012AB8BF012202F1FF3B96401744D9
:10A010000AFA0BFB00974BEA060603E7043306E750
:10A02000019B01330193049B4FF6FF7001330493AE
:10A030006CE70633FBE60233CAE60433C8E60633B0
:10A04000C6E6A31CC4E6231DC2E6A31DC0E6019B11
:10A05000002101330846019349E72346B8E6C6F3D9
:10A060001301134B06F01F02CC0BC1F3441003EB9A
:10A070008202C1F3842103EB840403EB8000D2F855
:10A080006821D4F8684103EB8103D0F8680142EA03
:10A090000432D3F8681142EA001343EA012383EA49
:10A0A000132282EA121202F00F02FAE656555555B3
:10A0B000982C05080368104A23F04003904203607F
:10A0C00017D00E4B984214D0002991FAA1F10368E1
:10A0D000B1FA81F108BF4FF0FF3123F038030139A5
:10A0E000C90089B219430160036843F0400303606B
:10A0F00070474908E8E700BF00380040003C0040D6
:10A1000038B505464FF4807140680624FFF7D2FF4A
:10A1100080226B2128460AF063FD962008F02CFD72
:10A12000F52128460AF004FD682805D0013C14F00A
:10A13000FF04F2D1002038BD8C2128460AF0F8FC3B
:10A140001428F7D3182802D954380628F2D8032047
:10A15000F1E720B10078B0FA80F0400970470120A3
:10A16000704708B5202148F04CFD034618461BB146
:10A1700002780133202AF9D008BD037903F01803CF
:10A18000082B0AD002D82BB100207047102B17D013
:10A19000182BF9D1B0F80B007047134BB0F80B0037
:10A1A00093F90030591C09D1104B1B7803EB0312B3
:10A1B00003EB820300EB430080B27047DBB2F5E7AC
:10A1C0000B4BB0F80B0093F900305A1C09D1074B28
:10A1D0005B7803EB830303EB830300EB830080B224
:10A1E0007047DBB2F5E700BF0D000120244A0120D3
:10A1F0000C00012070B5084D2A782AB9074C084E8A
:10A20000B44202D301232B7070BDA288D4E902109E
:10A2100046F0A6F91834F3E714150120E85E0608A5
:10A2200090650608F0B5067906F0E003402B09D1E9
:10A2300044794FF0FF350023012006F00706A342C2
:10A240000BD1F0BD602B4FF0010403D1457904FA26
:10A2500005F5F0E74FF0FF35EDE7042E0CD8DFE809
:10A2600006F0030D18242E0030B1C85CD75C78408E
:10A2700028420CBF012000200133E0E70028FBD07A
:10A28000C856D756A0EB070CDCF1000040EB0C00E1
:10A29000F2E70028F0D031F8130032F8137078405C
:10A2A00028420CBF01200020E6E70028E4D031F965
:10A2B000130032F91370C71B78427841DCE700289D
:10A2C000DAD051F8230052F82370784028420CBFAE
:10A2D00001200020D0E7034B0146186808B10AF0BE
:10A2E00005BD70477C610120024B01461868FEF7EE
:10A2F00097BD00BF7C6101200048F5E7BDA50508BA
:10A3000008B5FFF7F1FFBDE80840F5E710B50446D2
:10A310000348FFF7E9FF2046BDE81040F0E700BF23
:10A3200088A4050808B532B1C30600D519B1104696
:10A33000FFF7ECFF0022104608BD034B186808B178
:10A340000AF0C6BC704700BF7C610120044BC043CB
:10A350001A6802401A60034A13680340136070478A
:10A360004832012064610120034B01224FF40010A8
:10A370001A7023F0B7BD00BF782F0120022810B556
:10A38000044611D800EB00130A4A0B4900EB830383
:10A390000A4802EB4303047018460B6011F018FBE7
:10A3A00014F09AFF14F03CFF601CBDE81040C0B2EE
:10A3B00023F032BD582501208C620120244A01205F
:10A3C0007A4B9A88B2F57A6F30B52DED028B85B055
:10A3D00002D94FF47A629A80DA88B2F57A6F02D99C
:10A3E0004FF47A62DA801C89B4F57A6F03D94FF49E
:10A3F0007A6214461A815889B0F57A6F02D9002220
:10A4000010465A819989B1F57A6F03D94FF47A626F
:10A4100011469A81DA89B2F57A6F02D900252A4667
:10A42000DD81844201D800201881914201D80022A8
:10A430009A81598B9A8B914201D900225A835C4CA4
:10A440002388002B51D05B4DAA78062A7DD85A4923
:10A4500001EB820292ED7A8A2A79002A7AD1574951
:10A4600007EE903AAB790A78F8EEE77A07EE102A11
:10A47000F8EEC76AB0EE667A86EEA76A0BB138EEE0
:10A48000088AB4EEC68AF1EE10FA21DD27EE888A3A
:10A49000BCEEC87A8DED017A9DF8043007EE103AD3
:10A4A000B8EEC77AB4EEC78AF1EE10FA01DD0133D7
:10A4B000DBB2002B6CD0102BA8BF10239A4204D81B
:10A4C00007EE103A1A46F8EEC76AB0EE667A0A70DE
:10A4D000DFED3B6A27EE267AC7EE276AFCEEE66AD6
:10A4E00016EE903AB3F5FA7F4DD8364A9378013B91
:10A4F000012B01D80023937033494B78052B14D8D6
:10A5000003EB8303314A324803EB830302EB8303FB
:10A510000A78022A036010D900232E4A0B702E4BB2
:10A520001A6005B0BDEC028B30BD0022274B2848D5
:10A530004A700A780360022AEED802EB0211254B1A
:10A5400002EB810203EB4202E9E72A799FED238ABD
:10A55000002A84D0002304A800F8013D3AF0F4FA60
:10A560009DF80F300BB9AB78A3B92388002BBCD072
:10A57000124A07EE903A1378F8EEE77A07EE103AAF
:10A58000B8EEC77AA4E74FF00050FFF7DFFEACE764
:10A59000012393E7B7EE000A80EE080A46F078F848
:10A5A0002B88984228BF18462880DEE7405E0120AD
:10A5B000F85000201C530120982C05086040012011
:10A5C00000247449D84A0120244A01201C27012074
:10A5D000CC4D0120582501208C6201206F120338D8
:10A5E000A54B2DE9F04F1B7883B0A3F11702022A87
:10A5F0000FD9A24A12F83310002940F0AC82D900DA
:10A600000A4452782AB19E4A12F83330002B00F0E7
:10A610004F839C4E00249C4D96F808902746DFF807
:10A6200098822A592B19791C12F0010C00F04582EE
:10A63000CFB2530828194FEA920A0C3403F0773B43
:10A640004FEAD20E0AF0333A4946A2EB0B030EF062
:10A65000113EA3EB0A03A3EB0E0303EB131303F06A
:10A660000F33A8FB03AE4FEADE1ECEEB0E2EA3EB9C
:10A670000E0EBEF1010F0ED9BEF1020F40F0228284
:10A68000BCF1000F02D012F42F7F04D137F0C4FCCC
:10A69000002800F01782482CC3D1013F022F00F29E
:10A6A0001182022023F07AF9784B1B78022B00F0FC
:10A6B0007B82002800F00283754D4FF47A68754F55
:10A6C0004FF0000E4FF0640B2B4697F809A005F5EC
:10A6D000CF795A88B2F57A6FB3F84C2088BFA3F8C7
:10A6E0000280B2F57A6F9A8888BFA3F84C80B2F5E1
:10A6F0007A6FDA8888BFA3F80480B2F57A6F02D93E
:10A700000022A3F806E0998803F16B009142B3F8A8
:10A710006010B3F8622098BFA3F804E0914293F868
:10A720007120194602F1FF3288BFA3F860E0632A66
:10A7300093F8722002F1010288BF83F871B0D2B29F
:10A74000092A4FF0000288BF83F872E08C7A013248
:10A7500010F801CF0631A44528BF80F800E0032A95
:10A76000F4D1BAF1010F03F18A0318BF03F801EC29
:10A770004B45AED1484CA378042B00F0FC8123B9A3
:10A780002388B3F5F07F00F2E281DFF83081FFF734
:10A7900017FE98F80710092904D019B108F108002C
:10A7A000FEF79CFA98F81510092903D011B13B481F
:10A7B000FEF794FA3A4BB3F9042022B9B3F9062014
:10A7C000002A00F0D28101225A813649364BD1F855
:10A7D0000090DFF8EC8009EA0303002B00F072829E
:10A7E00019F0010F40F01E8219F4804F40F02382CF
:10A7F00019F0080F40F0288219F4005F40F02D8214
:10A8000019F4004F00F091810023F37386F8233090
:10A8100017F01CF9002800F01981737E032B00F05B
:10A8200015815A1E012A00F22181023B022B00F2FF
:10A83000288119F4805F00F02F811C4BDA79022AFD
:10A8400001D10122DA71072016F0E2FF002840F062
:10A850000A824FF4806023F0A1F8002800F00D82F6
:10A86000134B1E4603F1780A03F17D097179A9B3F0
:10A87000307888B30F4B28E0783401207C960508A7
:10A88000985D0508E8600120406201204C4C0120E1
:10A8900058250120444B01201C5301205235012032
:10A8A0009862012048320120096000020C2A012030
:10A8B000481701204D170120818080803C35012000
:10A8C000646101200633994508D013F8052C8A42AB
:10A8D000F8D11A78002AF5D016F040FF0636B245B6
:10A8E000C4D1A378082B00F05481797A4FF400701A
:10A8F000BA7AA1F10101D8F80060A2F10102B64BC9
:10A90000B1FA81F1C6F3C036B2FA82F249099E70FB
:10A910005209B24E19701A71FFF718FD4FF400304A
:10A92000FFF714FD4FF40010FFF710FD4FF000701B
:10A93000FFF70CFDB388002B40F06C81A84B1A6820
:10A9400012F07F4F01D000221A609968A54A0A4090
:10A950000AB100229A601A79013A042A01D9012227
:10A960001A7102A8002600F8016D3AF0EDF89DF882
:10A970000730002B40F0C380A379002B40F0DD802E
:10A98000002385F87E3085F8083185F89231964BA2
:10A99000DA8802F00F01032954D8C2F30312022A05
:10A9A00050D81A8902F00F01032947D8C2F30312C5
:10A9B000022A43D88D4B8E4A5C78507819788442AD
:10A9C00040F2958000205870002940F08F8092F866
:10A9D000EA209978914201D900229A70854B03F5BB
:10A9E00016719A78013A032A70D8DFE802F011173D
:10A9F00002025C7A987AC82CDA7AA8BFC824C828E0
:10AA0000A8BFC820C82A5C72A8BFC8229872DA7290
:10AA100064339942E5D103B0BDE8F08F5C7A987A4F
:10AA2000632CDA7AA8BF63246328A8BF6320632A53
:10AA30005C72A8BF63229872DA72E9E740F60122DD
:10AA40001A81B7E74FF42062DA80AAE70023AB81CE
:10AA50006B82A5F89630A5F89C30A5F82031A5F8B2
:10AA6000263116F0F3FF002840F01C8100232B83D1
:10AA7000A5F8A230A5F82C3116F0E8FF002840F028
:10AA80000181002319F4805F85F84F3085F8D930B3
:10AA900085F863317FF4D1AE19F0800F3FF4CDAE6D
:10AAA000554B197818293FF6D4AE0122534B8A40F2
:10AAB0001340002B3FF4CDAEBFE693F90430142BC6
:10AAC0007FF4B7AD4E4823F01FF8EAE55C7A987A38
:10AAD000642CDA7AA8BF64246428A8BF6420642A9E
:10AAE0005C72A8BF64229872DA7291E7988010783D
:10AAF0008842BFF46CAF00211970998067E7227C0F
:10AB00002671A379E2B13F4A527C002A3FF435AF67
:10AB1000002B3FF435AF3C4B1A78002A7FF437AF57
:10AB20001B79002B7FF433AF2AE7F37B002B00F077
:10AB3000AF80002386F823306AE60023A3711FE765
:10AB40006279012ADFD1002B3FF41AAFF5E74FF409
:10AB5000F073238019E6D9005018406800287FF46C
:10AB60004FAD1720244C20704AE5B3F90820002A85
:10AB70003FF42BAE27E64FF48050FFF7E7FB238B23
:10AB8000B3F57A7F80F098804FF47A72A3782283AD
:10AB9000F5E5A379002B3FF4A8AE237C012B7FF4CD
:10ABA000A4AE02232374A0E600283FF485AD174F1E
:10ABB000FF25174B90F90440397803F1480093F9C9
:10ABC0000820A24202D101391D72C9B20C3383425E
:10ABD000F5D1397070E500BF885501206C5F012008
:10ABE000B4340120FDFDFFFF3C4A0120A64A0120AC
:10ABF000942F01201C2701207834012000410001FE
:10AC000040620120244A0120501B012088140120A9
:10AC1000B83B0120307831F097FA00287FF48EAEEF
:10AC2000B0808BE62D48FFF791FBD1F8009019F426
:10AC3000804F3FF4DDAD2A48FFF788FBD1F8009044
:10AC400019F0080F3FF4D8AD2648FFF77FFBD1F885
:10AC5000009019F4005F3FF4D3AD2348FFF776FB73
:10AC6000D1F80090CCE5072016F078FD4FF4806015
:10AC700022F094FE00287FF4F3AD4FF00060FFF760
:10AC800065FBEDE5737E023B022B7FF6D2ADF8E665
:10AC900042F2010319EA030F3FF4BAAD002386F82C
:10ACA0002330B5E5737E5A1E012A7FF6BEADDDE680
:10ACB00018230E4A1370ACE4A37860E58020FFF7F8
:10ACC00045FBF9E4D8F8003049F0080943F00803DF
:10ACD000C1F80090C8F8003082E500BF08600002AB
:10ACE00009200002016000020940000278340120BE
:10ACF000734B2DE9F04F1B7883B0DFF81C92013BBA
:10AD0000012B40F2C6806F4B6F4A934280F0D58092
:10AD100003F118069B464FF0010ADFF80082CDF8D8
:10AD200004906A4C258862197DB142450DD2052DEB
:10AD30000BD936F8183C6188C3F30B0399426FD0E6
:10AD4000144625886219002DEFD156F8101C58467C
:10AD5000FEF722F84FF0000A0BF1180B5A4B183689
:10AD60009B45DED3DDF80490594A5A4B12681A60AD
:10AD7000FFF736FC584B5A7C012A76D0022A6DD058
:10AD800020241A785B7802EB0211544803EB83030A
:10AD9000534D02EB8102534903EB8303524E01EB07
:10ADA0004202524900EB83030C60C82433602A60DE
:10ADB00016F05AFE4E4B4FF0FF3228681A6010F022
:10ADC00007FE16F0B3FD4B48642100230289007989
:10ADD00001FB02F211FB004147482244474C89F82D
:10ADE000243089F825300460C9E90112C9E9033328
:10ADF000C9E90533C9E907331FF02EFC404B9979A7
:10AE0000988814F081FE42F08FFD2AF031FF2C4B20
:10AE10001B78013B012B2AD9504603B0BDE8F08FC7
:10AE2000637913F003038BD156F8101C584694F83D
:10AE30000490FDF7B1FF36F8182CB9EB123F89D119
:10AE400036F8143CAA1FA11D56F8100CC3F30B03CF
:10AE50009A42A8BF1A4645F083FB7DE7294A9279BA
:10AE6000002A0CBF202428248BE7282489E707F038
:10AE7000C5FF254B254A02211C680123106050465E
:10AE8000234AC9F80C40117089F8253003B0BDE899
:10AE9000F08F07F0B3FFD9F80C301E4A022403F2FA
:10AEA000DC531B4902441948C9F80C300260054BB9
:10AEB000054A0C709342FFF42BAF4FF0010A53E7A1
:10AEC00044610120E85E060890650608024000081B
:10AED0004832012064610120244A01201C270120FE
:10AEE0008C62012058250120CC4D01200C0000204F
:10AEF000CC0001200C2A0120B84401209C620120D2
:10AF0000881401201C53012068550120C8430120EA
:10AF1000C443012060E31600B04A0120008000080D
:10AF2000026830B41146541CD31C151D046011F87E
:10AF3000024B016051780360937805601B04D07860
:10AF400043EA0123234330BC43EA0060704700BF5B
:10AF50000368591C1A46016012F8021B02605878F7
:10AF600041EA0020704700BF03685A1C026018784D
:10AF7000704700BF70B504460E46084643F09EFC7D
:10AF8000314605460246206845F0EAFA2068284422
:10AF9000206070BD38B504460068154645F0E0FAFB
:10AFA00022682A44226038BD03680A0A70B45E1C15
:10AFB0000D0E0C0C06601D7003685D1C05601C7096
:10AFC00003685C1C04601A7003685A1C02601970E4
:10AFD00070BC704703680A0A10B45C1C04601A70E5
:10AFE00003685A1C026019705DF8044B704700BF7B
:10AFF00003680A0E70B45E1C0D0A0C0C0660197012
:10B000000368591C01601D700368591C01601C70A5
:10B010000368591C01601A7070BC704703680A0A03
:10B0200010B45C1C046019700368591C01601A702C
:10B030005DF8044B704700BF03469FED146AB3F9F7
:10B04000002006EE902AB3F90220B3F9043007EE8F
:10B05000102AF8EEE66A07EE903AB8EEC77AF8EEF4
:10B06000E77A66EE866A27EE067A67EE867A00B59C
:10B0700085B001A8CDED016A8DED027ACDED037AA0
:10B08000FDF78CFB05B05DF804FB00BF88C3E43A14
:10B0900007EE901A9FED827AF8EE677A27EE800A23
:10B0A00020EE070AFDEEC07A17EE903A2033402BCF
:10B0B0007ED8DFED7C7AB4EEE70AF1EE10FA40F3C9
:10B0C000E380B0EE407A9FED786ADFED786AB4EE07
:10B0D000E67A77EE467AF1EE10FAB0EE677AF6DCB1
:10B0E0009FED737AF4EEC77AF1EE10FA40F1CF805B
:10B0F0009FED6D6ADFED6F6AF4EEE67A37EE867AE1
:10B10000F1EE10FAF0EE477AF6D4DFED6B7AB4EE9A
:10B11000E77AF1EE10FA40F3A580DFED627A37EEC0
:10B12000C77A67EE075A9FED655A9FED656AF7EE9D
:10B13000007ADFED646AA5EE856A9FED635A67EEDB
:10B14000254AE5EE866AF0EE675AA4EEA67AE7EEA7
:10B15000055AE7EE457A87EEA55ADFED577A30EECD
:10B16000277AFDEEC76A16EE903A2033402B24D999
:10B17000F6EE006A9FED557AB7EE006AF7EE004AE8
:10B18000002380ED045A8361C4EEA57A4361036213
:10B19000C36167EEA66A27EE866A27EE877AC0ED5E
:10B1A000006AC0ED026A80ED016A80ED037A7047A3
:10B1B000B7EE005AF0EE455ACFE7B4EEE70AF1EEEB
:10B1C00010FA67DD9FED386ADFED386AB4EEE67A93
:10B1D00077EE467AF1EE10FAB0EE677AF6DC9FED84
:10B1E000347AF4EEC77AF1EE10FA56D59FED2E6A56
:10B1F000DFED306AF4EEE67A37EE867AF1EE10FA99
:10B20000F0EE477AF6D4DFED2C7AB4EEE77AF1EE81
:10B2100010FA34DCDFED2E7AB4EEE77AF1EE10FAB4
:10B2200003D5DFED237A37EEC77A27EE074ADFED45
:10B23000236ADFED234AB7EE006ADFED227AF8EEEB
:10B24000003AE4EE264A27EE043AF6EE006AE4EE0F
:10B25000247AA3EE277A36EE476A27EE237A66EE43
:10B26000266A8BE7DFED1A7AB4EEE77AF1EE10FA90
:10B270007FF557AFDFED0E7A37EEC77A51E7DFED96
:10B28000097A37EEC77AD0E7F0EE407A28E7B0EED9
:10B29000677A3AE7F0EE477AA1E7B0EE677AB2E76D
:10B2A00027D4D236DB0F4940DB0FC940E4CB16412F
:10B2B000DB0F49C0E4CB16C1DB0FC93F92E741B9B0
:10B2C0009730083C15A82ABEF304353F0000000063
:10B2D000DB0FC9BFDFED307A30EE277AFDEEC76AAB
:10B2E00016EE903A2033402B02D99FED2C0A70477E
:10B2F000B4EEE70AF1EE10FA4BDD9FED296ADFEDBF
:10B30000296AB4EEE67A77EE467AF1EE10FAB0EEFC
:10B31000677AF6DC9FED247AF4EEC77AF1EE10FA44
:10B3200034D5DFED1F6A9FED217AF4EEC77A37EE50
:10B33000A60AF1EE10FAF0EE407AF6D4DFED167AB6
:10B34000B4EEE70AF1EE10FA1BDCDFED197AB4EE89
:10B35000E70AF1EE10FA03D5DFED137A37EEC00AF3
:10B3600060EE006A9FED136A9FED137ADFED137AAA
:10B37000A6EE867A20EE266AE6EE877AA6EE270A01
:10B380007047DFED0F7A37EEC00AE9E7B0EE670AE3
:10B39000D4E7F0EE477ABDE7DB0FC93F00000000BD
:10B3A000DB0FC940E4CB1641DB0F49C0E4CB16C12B
:10B3B000DB0FC9BF92E741B99730083C15A82ABEF8
:10B3C000DB0F494002B370B48E1803E0121B14D196
:10B3D000B14215D010F8012BA2F14103192B11F83D
:10B3E000013BA3F1410598BF203203F12004192D40
:10B3F000ECD9D21A01D1002BEAD1104670BC7047AB
:10B40000002270BC104670471046704770B5044665
:10B4100008460D4643F052FA064602E014F8013F92
:10B4200043B1324629462046FFF7CCFF0028F5D12C
:10B43000204670BD1C46204670BD38B507490546FC
:10B44000FFF7E4FF041C0649284618BF0124FFF754
:10B45000DDFF08B144F00204204638BD8DA4050884
:10B46000D2B805086FF00042FFF7ACBFA0F161034E
:10B47000192B98BF20387047A0F14103192B98BFB2
:10B480002030704720280BD0092809D00A2807D07F
:10B490000D2805D00B3801288CBF002001207047F3
:10B4A00001207047613819288CBF002001207047A7
:10B4B000413819288CBF00200120704730380928F6
:10B4C0008CBF002001207047A0F13003092B07D961
:10B4D00020F02000413819288CBF0020012070473F
:10B4E000012070472DE9F8431F460646034698465B
:10B4F00013F8014B2046FFF7C5FF0028F7D12B2C8E
:10B500005AD02D2C2DD10125102A08F1010998F8C7
:10B5100001403FD04FF0FF3C9046BCFBF2FC02FBE9
:10B520000CFE6FEA0E0E5FFA8EFE09F10103002099
:10B530000EE0303CE4B294421ADA60451E4602D86E
:10B5400023D1744521D93D404FF0FF3013F8014B12
:10B55000392CEED944F02004602C09D9573CE4B2D0
:10B56000E9E7102A14D04FF0FF3CC1460546D3E767
:10B5700001B10E6007F00107B5B1B0F1004F2FD94E
:10B5800077B34FF00040BDE8F88300FB0840DDE7EB
:10B59000C1460546302C11D04FF010086FF0704CAA
:10B5A0004FF00F0E4246C0E70028ECDA002F18BF1C
:10B5B0006FF00040BDE8F8830546A5E799F8014023
:10B5C00009F101064FF010082046FFF755FF7828D3
:10B5D00008D0B1466FF0704C4FF00F0E4246A4E712
:10B5E0004042D0E799F802406FF0704C09F102092F
:10B5F00042464FF00F0E98E701230A22002171E71F
:10B6000070B50D461446FEF7ACFD0646A0B1FFF737
:10B61000F3FF40F634039842A8BF18461923B0F54B
:10B62000617FB8BF4FF46170A0F5617090FBF3F0DB
:10B6300028702378013323703046FEF792FD0646CA
:10B64000A0B1FFF7D9FF40F634039842A8BF1846CF
:10B650001923B0F5617FB8BF4FF46170A0F5617038
:10B6600090FBF3F06870237801332370304670BD8F
:10B67000F8B5064615460846B6FBF2F434B905FBA4
:10B6800014640C4B1B5D00F8013BF8BDB4FBF2F7F2
:10B690005FB905FB1747074B05FB1464DA5D1B5DBB
:10B6A00000F8012B00F8013BF8BD3846FFF7E0FF3A
:10B6B000EFE700BFECA70508B5EEC00ADFED6D7A35
:10B6C00000236D4AF1EE10FA2DE9F047C8BF30EEC5
:10B6D000270A88B0D8BF30EE670ADFED687A049396
:10B6E000054620EE270ACDE90233FDEEC07A17EEBB
:10B6F000904A84EAE476A6EBE476A2FB06325FEA9F
:10B70000D20847D105AF5E4A39465B4B002C4FF05B
:10B710000000A3FB06434870A8BF20204FEAD303D4
:10B72000B8BF2D2003EB83038DF808003846A6EB45
:10B730004303D35C0B7043F0C1F801283ED00228CC
:10B7400048D003281ED0394602A847F04BFA02A879
:10B7500043F0B4F8C41E02A92846E4B2224644F0DD
:10B76000FFFE002328462B5543F0A8F802AB2E22FB
:10B770001919431C2A54E81847F050FA284608B013
:10B78000BDE8F0873023394602A88DF8093047F02C
:10B7900029FADCE73B4BA3FB06235B0924D105AF69
:10B7A000374A3946344BA3FB0803DB0803EB83031A
:10B7B000A8EB4303D35C01F8013BA6E730233946ED
:10B7C00002A88DF809308DF80A308DF80B3047F05B
:10B7D00009FABCE73023394602A88DF809308DF804
:10B7E0000A3047F0FFF9B2E7274AA2FB06125FEAE8
:10B7F00092190ED105AF224A39461F48A0FB03C05B
:10B80000C00800EB8000A3EB4003D35C01F8013BD0
:10B81000C8E71E4AA2FB06125FEA523A0FD105AFF3
:10B82000174A39461448A0FB09C0C00800EB800045
:10B83000A9EB400912F8090001F8010BDDE71448F3
:10B84000B6FBF0F070B905AF38464FF00A0C014670
:10B850000B4ABAFBFCF00CFB10AA12F80A0001F824
:10B86000010BDFE705AF0A2201933946FFF700FF1E
:10B87000019BEAE76F12033ACDCCCCCC00007A44AE
:10B88000ECA705081F85EB51D34D62105917B7D1AE
:10B89000A08601008028034630B417D992B1481E13
:10B8A000002401E0A2420DD063F07F05DB090134E2
:10B8B000802B00F8015FF5D8A24203D9601C0B551C
:10B8C00030BC70474FF0FF3030BC70470024F3E7C6
:10B8D000104A2DE93048D2E9004554EA05020BD15F
:10B8E0000346002240F2011110461A809A809A7194
:10B8F0001A815980BDE83088074B1A6814EB020B97
:10B9000045F1000C5A466346FCF74EFE0120BDE8A7
:10B91000308800BF104C0120685501200288A2F534
:10B92000FA6270B402F003018478C37840F2B5562D
:10B9300001EB4101013C124D013B04EB8104017913
:10B94000920806FB023235F81430048900251344AE
:10B95000427980794FF47A7603EB430301EBC3031A
:10B960000849C3EB03130144204602EB8303C3EBF6
:10B97000031301EB83032946C6FB030170BC704728
:10B98000982C050880436D3870B406688E4219D92A
:10B990004C1E751E002314F8011F08224B4002E0C4
:10B9A000013ACBB207D059001B06F9D581F0D50377
:10B9B000013ADBB2F7D1A542EDD1721C02603370BF
:10B9C00070BC7047721C00230260337070BC7047FB
:10B9D0000A44914217D0013910B4541E11F8012FB6
:10B9E0000823504002E0013BD0B207D042000006DD
:10B9F000F9D582F0D500013BC0B2F7D1A142EDD11B
:10BA00005DF8044B704770474840082302E0013B53
:10BA1000D0B208D001064FEA4002F8D582F0D50036
:10BA2000013BC0B2F6D170470A4491421BD00139A4
:10BA300030B4551E41F2210411F8012F082380EA89
:10BA4000022002E0013B90B209D010F4004F4FEA0F
:10BA50004002F7D084EA4000013B80B2F5D18D422C
:10BA6000EAD130BC7047704770B5144C0222144EB6
:10BA70004FF6FF701349FFF7D7FF22884AB1A51888
:10BA8000B54218D2052A16D921462C46FFF7CCFF1D
:10BA9000F3E721460222FFF7C7FF0222A118FFF7B2
:10BAA000C3FF094BE41A094B1C8041F60F53C31A1C
:10BAB0005842584170BD0020FCE700BF024000081A
:10BAC0000080000800400008FA3F00081615012019
:10BAD0002DE9F04F8DB0FEF783FD704B1B78013BD5
:10BAE000012B40F2CC80DFF8E4914FF0030B6C4A5D
:10BAF00000266C4BA2EB09026B4FB3F80432DFF85F
:10BB0000D0810092ADF80630009BCDF818900793D5
:10BB1000CDE90866CDE90A66D8F81030002BC0F2EE
:10BB200095800123BDF80640022202A906A88DF8DF
:10BB30002C30ADF80840FDF70DFA022202A94FF6AD
:10BB4000FF70FFF771FF594B8246BB422CD21C4657
:10BB5000A5880622238804A9C5F30B058DF8156076
:10BB6000C3F30B001B0B05EB020C1834ADF81200ED
:10BB700006A8ADF810C08DF81430FDF7EBF950466B
:10BB8000062204A9FFF750FF54F8101C82462A46EB
:10BB900006A8FDF7DFF954F8101C50462A46FFF7B7
:10BBA00043FFBC428246D3D3022203A906A8ADF8C4
:10BBB0000C60FDF7CFF9022203A95046FFF734FFCE
:10BBC00040BA022204A9C34306A8ADF81030FDF71D
:10BBD000C1F9099850BB0A989DF82C308BB9C0B1B7
:10BBE000BBF1010B90D1052030F078FB2B4B1B787B
:10BBF000013B012B34D92E4B00221A700DB0BDE849
:10BC0000F08FD8F8103043F00043C8F81030002807
:10BC1000E6D199F80030AD2BE5D199F80130BE2B73
:10BC2000E1D1FFF721FF0028E0D1DCE708ABC0F14C
:10BC300004020021184446F0CDFF0A9818B908A95B
:10BC400006A8FDF7FDF8CDE90960C5E7194BC8F86E
:10BC5000043003F18833C8F80430D8F8103060E7B6
:10BC600007F0CCF8144B154A01241D680221144B2F
:10BC70001060144ADD6083F825401170BBE707F0BF
:10BC8000BDF80F49104A0224CB6802440B4D03F261
:10BC9000DC530C482A60CB60047024E74461012027
:10BCA00000800008982C050890650608E85E0608E4
:10BCB000E42001202301674568550120C843012085
:10BCC000B04A0120C443012060E316000040000890
:10BCD000003C024008B50222054B1A74FFF7F8FE3B
:10BCE000FFF706F80120BDE8084022F095B800BF34
:10BCF000244A01202DE9F043002489B006460D4670
:10BD00001F46A04605E025290CD030460134A8473F
:10BD1000039A531C039311780029F4D1204609B0EB
:10BD2000BDE8F083931CCDE903385378302B43D022
:10BD3000A3F130024FF00009D2B2092A46D96C2B88
:10BD40002BD0642B7AD019D9732B5DD06AD9752B7F
:10BD500040F08B8007F1040C386805AB00220A2103
:10BD60006746FCF7B7FB05A9049A4B46304600919D
:10BD70002946FCF7D7FC039A0444CAE7252B41D097
:10BD800058D9582B74D0632BC2D13B1D397830461B
:10BD900001341F46A847039ABBE7039B5A1C039232
:10BDA0001B78642B5AD018D8252B2BD06DD9582B43
:10BDB0001AD0632BE9D0ACE7D31C4FF001090393F1
:10BDC0009378A3F13002D2B2092AB8D8184604AA4F
:10BDD00003A938F06DFE0346B1E7732B14D058D990
:10BDE000752B32D0782B94D1A3F1580207F1040CB3
:10BDF000386805ABB2FA82F2102167465209FCF7A7
:10BE000069FBB0E7252180E7386807F1040C049A44
:10BE100000230090294630466746FCF783FC039ACE
:10BE2000044476E76E2B7FF473AF039A3B680437C4
:10BE30001C606EE7002B3FF471AF69E73B1D38686B
:10BE400005A91F46FCF712FB8DE7391D386805ABC5
:10BE500000220F460A21FCF73DFB84E73B1D3868B2
:10BE600005A91F46FCF702FB7DE7782B7FF450AF56
:10BE7000A3F15802391D386805ABB2FA82F20F46B9
:10BE800010215209FCF726FB6DE7002B3FF446AF6B
:10BE90003FE76E2BCAD03CE7F8B5114C07460D467C
:10BEA00016462068A0B10F49FCF7BAFF3946206852
:10BEB000FCF7B6FF0C492068FCF7B2FF0B4933468C
:10BEC0002A462068FFF716FF09492068FCF7A8FFFB
:10BED000084B1B7813B1084B01221A70F8BD00BF44
:10BEE0007846012090A4050898A405081D8E000836
:10BEF0009BA405087C4601207D4601200EB403B5B5
:10BF000003AA52F8041B0192FFF7C6FF044B054930
:10BF10001868FCF785FF02B05DF804EB03B07047CA
:10BF200078460120BDA5050807B5009313460A46CB
:10BF30000249FFF7E3FF03B05DF804FB9FA4050887
:10BF400002460149DAE700BFB8A405080049D5E771
:10BF5000CFA405080EB403B503AA52F8041B01923E
:10BF6000FFF79AFF064B1B6823B9064B0649186872
:10BF7000FCF756FF02B05DF804EB03B0704700BF5A
:10BF80007C61012078460120BDA5050808B50B4657
:10BF900005490246086830B10449FFF7ABFEBDE829
:10BFA0000840FEF7CAB908BD7C6101201D8E00085B
:10BFB0000FB407B504A951F8040B0191FFF7E6FF90
:10BFC000FEF79AF903B05DF804EB04B070472DE971
:10BFD000F341074608460D46FEF7BBF8064670B12A
:10BFE000002401A92046013439F006FE01463846F6
:10BFF000FFF7EDFF122CF4D102B0BDE8F081084646
:10C00000FFF7FAFAC4B2112C62D8681C344DFEF75F
:10C01000A8F88046C0B9334B13F814108A1E514259
:10C020005141304B13F81420AA5C00294BD003EB8C
:10C030004403192040F2EE215B7800FB03132146F4
:10C040002948FFF7B5FFD7E70178284646F0D9FD24
:10C0500060B1032C8CBF03220022244B401B1344ED
:10C0600053FA80F090F80662032E03D13846FFF7AA
:10C070006DFFC1E74046FEF774F8F0B1022EF5D12E
:10C08000FFF7BAFA40F6CA0280B2164B904203EBB1
:10C090004403A8BF104640F2EE229042B8BF1046BB
:10C0A0001922A0F2EE2090FBF2F05870B31E594214
:10C0B00059410C4B03F81460B3E7022EF6D1384611
:10C0C000FFF73EFF98E721460948FFF771FF93E726
:10C0D0001123324607493846FFF726FF8CE700BF99
:10C0E000883C05087C230120DEA40508982C05085F
:10C0F000EEA40508FBA405080FB407B504A951F880
:10C10000040B0191FFF742FF03B05DF804EB04B0AC
:10C1100070472DE9F04F024691B008460B46FEF7F6
:10C1200018F8054628B11046FFF70AFF11B0BDE820
:10C13000F08F4FF0FF32A8462F462E46DFF8C8A2F8
:10C14000DFF8C8B2CDE908209D4A126892F838108D
:10C15000CDE90E02CDE90C10CDE90A0007AA9949F4
:10C16000184644F032FA044644B9DDF83090089B92
:10C170004B4560D19448FFF71BFFD7E7062F12D835
:10C18000DFE807F0041E2328454C5100594620469D
:10C19000FFF73CF978B14FF48060012521F0FEFBF8
:10C1A00090F90430089307AA86490020013744F02B
:10C1B0000CFA0446D8E72046FFF71EFA0890F2E78B
:10C1C0002046FFF719FA0990EDE72046FFF735F909
:10C1D0000A90E8E7204642F071FB7C49814602461E
:10C1E0002046FFF7EFF818B34A4651462046FFF7BE
:10C1F000E9F806460028D6D02046FFF7FDF90428C6
:10C200000646D0D901467248FFF7D2FE8EE7204697
:10C21000FFF7F2F900230C900F93C4E72046FFF7D5
:10C22000EBF90D90BFE72046FFF707F90E90BAE74C
:10C230004FF00108B7E72346DFF8D4A108AC1A0194
:10C240005F1C1259D0B251B2042840F2E5801E2979
:10C2500000F0E28039465F48FFF7AAFE66E7002358
:10C260000593EBE04FF0000A05E14A463946BAF182
:10C27000000F3AD05848FFF73FFF022F04F1100497
:10C280004FF0010340F0DB80059B0B9C0F9F4BB1EF
:10C290005248FEF735F823681B6A1BB13A465049ED
:10C2A00020469847DDF83090B8F1000F51D04D4945
:10C2B0004D4BB9F1140F18BF19464C48FFF778FEE3
:10C2C000B9F1140F0AD1B8F1000F00D136B12368CB
:10C2D000DB691BB13246464920469847002D3AD1CA
:10C2E00000223946204639F0EFFD4248FFF704FFAF
:10C2F000C3E7C4F80C90BAF1000F23D039463E488A
:10C300005246FFF7F9FE5146484604F025F8D4F8A6
:10C3100008A0BAF1000F0DD099F80420924509D079
:10C32000394636485346FFF7E7FE48465FFA8AF13A
:10C3300007F03CFCD9F82C30002B9ED00023C9F824
:10C340002C309AE7D9F8082039462D48FFF7D4FE5B
:10C35000DDE72549B1E707F067FC052006F00CFC96
:10C360000025284B4FF0030ADFF8A890AB4693F85E
:10C3700000804545B4D205EB0903DB79DBB11846F3
:10C3800005932FF0E1FE0646A8B1059B184607F07D
:10C390006FFD034618B180F806A080F807B0184674
:10C3A000059337F013F9F279059B12F0010F184647
:10C3B00003D008F0A1F80135DBE708F0A3F8FAE7AD
:10C3C000204501208BAA050839A505081BA50508ED
:10C3D00021A5050852A5050880A5050837A605086A
:10C3E0005903010803A50508BFA5050860A60508AF
:10C3F000E1DA0008A4A50508C0A5050812A60508ED
:10C40000EDA50508685A002004B3050810A5050825
:10C4100083A605081C53012039465046FFF7C8FD86
:10C42000022F4FF001037FF40AAF099B002B7FF42A
:10C4300016AFA9F1140253425341059300235F1C28
:10C44000E368002B7FF419AF94F900B0584621F04F
:10C45000C1FAD4F804A028B1D0F80090B9F1000FC7
:10C460007FF447AFBAF1000F7FF4FCAE4FF46143A5
:10C470004FF0010A6360A3680BB90323A360002394
:10C48000D4F80490584602931946227ACDE90092D6
:10C490001A4621F0DEFAE06000287FF4E6AE394665
:10C4A0000148FFF785FD41E664A505082DE9F8433D
:10C4B000037903F0E002402A50D004D86AB1202A60
:10C4C00028D0BDE8F883602A4DD0802AF9D182793E
:10C4D00041792748BDE8F8436AE503F00703022BDA
:10C4E00002D0042B08D06BB9B0F80720B0F80510C3
:10C4F0002048BDE8F8435BE5D0F805101E48BDE8CC
:10C50000F84355E5B0F90720B0F905101948BDE822
:10C51000F8434DE545790024184E1948FDF7E4FE2F
:10C52000012306EBC50292F80480A04503D8BDE8BC
:10C53000F843FDF7E1BE56F835704FEA840957F825
:10C5400024204AB113B90F48FDF7CEFE57F8091061
:10C550000D48FFF7D1FD00230134E6E741790B4890
:10C56000BDE8F84324E50A48BDE8F84320E500BFEC
:10C57000E1A60508A5A605088FA60508D03A050876
:10C58000BCA60508CDA60508E0A80508D0A60508A4
:10C59000F8A605082DE9F0471F460B790E468046A0
:10C5A00003F0E0011546402938D10024DFF88481EA
:10C5B0005E4FDFF8A09115E0337903F00703013BEC
:10C5C000032B03D8DFE803F013181E24295D384637
:10C5D000FFF792FD7379013BA34202DD4846FDF768
:10C5E00083FE01347379A342E6DCBDE8F087295766
:10C5F0003846FFF781FDEDE735F814103846FFF7B0
:10C600007BFDE7E735F914103846FFF775FDE1E7E4
:10C6100055F824104046FFF76FFDDBE703F00703F2
:10C62000042B5ED8DFE803F0031D25272A002C78B1
:10C6300020293AD070D80029D7D1B6F80550B6F8DD
:10C64000079021463948FFF757FDAC4240DB4C4587
:10C650003EDC002FC9D04A4629463548BDE8F047A0
:10C660004AE595F9004020291FD055D800293FD030
:10C67000BBE72C88DCE7B5F90040F4E7D5F800907B
:10C6800020294C4611D047D80029AED14946294827
:10C69000FFF732FDD6F80510894519D8002FA4D030
:10C6A0002548BDE8F04727E500247279234B03EBCA
:10C6B000C2010979A1420BDD53F8323053F824004E
:10C6C000BDE8F047FDF710BE1D48BDE8F04713E593
:10C6D000FDF712FE2346326840461A49BDE8F0478E
:10C6E00038E42029E0D008D800297FF47EAF0C463A
:10C6F000B6F90550B6F90790A3E76029E4D0802980
:10C700007FF473AF2978104B1048002914BF2946D5
:10C710001946BDE8F047EFE46029F0D173791C4178
:10C72000E307D1D50A48BDE8F047E5E4B9A6050816
:10C7300026A90508A2A6050812A70508D03A0508EB
:10C74000E61B060818A70508A2F20508E0A80508D8
:10C750000DA7050810A705080CB407B510F02000B8
:10C760000BD079B92320FDF7B6FD05A904980191F6
:10C77000FFF70CFCFDF7C0FD012003B05DF804EBF2
:10C7800002B070470020F8E70CB4C30607B500D527
:10C7900061B905A904980191FFF7F8FBFDF7ACFD1D
:10C7A000012003B05DF804EB02B070470020F8E709
:10C7B0002DE9F04F074691469A460D46144600264D
:10C7C000DFF81C812DED088B95B095ED008AB5EE54
:10C7D000408AF1EE10FA7BD0D5ED019A95ED029AE0
:10C7E000D5ED038AB9F1000F49D0D4ED00BA94ED2C
:10C7F00001BAB4EE6B8AD4ED02AA94ED03AAF1EE6D
:10C8000010FA6AD1F4EE4B9AF1EE10FA65D1B4EE5B
:10C810006A9AF1EE10FA60D1F4EE4A8AF1EE10FA5B
:10C820000CBF0121002152468B46384681F00101A0
:10C83000FDF778FDB0EE6B0A824611A8FEF73CFFCB
:10C84000B0EE4B0A07900EA8FEF736FFB0EE6A0A6C
:10C8500006900BA8FEF730FFB0EE4A0A059008A834
:10C86000FEF72AFF0599069A079B03903846029126
:10C8700059460192424600933346FFF76DFFB0EEF2
:10C88000480A11A8FEF718FFB0EE690A83460EA801
:10C89000FEF712FFB0EE490A06900BA8FEF70CFF58
:10C8A000B0EE680A059008A8FEF706FF069B059AF9
:10C8B0000021039038460292424610351034CDE9EB
:10C8C00000B333460136FFF75FFF082E7FF47DAFDC
:10C8D00015B0BDEC088BBDE8F08F0021A3E700BFC9
:10C8E00032A705082DE9F14F06460C464E4FDFF8FA
:10C8F0005081DFF850912046FDF72BFC824638B17D
:10C9000000234A4901201A4601B0BDE8F04F4FE725
:10C91000052239462046FEF755FD60B9434B0022FB
:10C920001A601A611A621A631A641A651A661A671B
:10C9300001B0BDE8F08F042241462046FEF742FDDB
:10C940000546204625BBFDF70CFC82460028EFD0AB
:10C9500041F0B4FF2C465FFA80FB59F8245035B9FA
:10C960003349304601B0BDE8F04FFFF7C7BA5A4629
:10C9700029465046FEF726FD40B920462D4C39F099
:10C9800081FB29462C48FFF713FBB4E70134E4E7A9
:10C99000FEF732FE072805463DD82046FDF7E1FBAD
:10C9A000074658B3FBF786FC204B012403EB051325
:10C9B00083ED000A3846FDF7D4FB074638B1FBF794
:10C9C00079FC1A4B013403EB051383ED010A384659
:10C9D000FDF7C7FB074638B1FBF76CFC134B01347E
:10C9E00003EB051383ED020A3846FDF7BAFB38B9AD
:10C9F000304601B0BDE8F04FFFF7A2BA0446D9E7D0
:10CA0000FBF758FC094B032C03EB051585ED030AD6
:10CA10003FF476AFECE7072352460849304601B0B1
:10CA2000BDE8F04FFFF780BA1BA505088061012023
:10CA30004BA70508BFA5050858A7050862A7050864
:10CA400046A70508D83905082DE9F04F93468BB065
:10CA500000264FF019085D464FF461770C461A46E0
:10CA600000218146FDF75EFC0990BBF1000F49D023
:10CA700029460A22204646F085F80028099A4846A9
:10CA800013BF012100214FF0010A4FF0000AFDF70A
:10CA900049FC2B890990514606934846EB881A4A6F
:10CAA00005932B790493EB780393AB7818FB03730E
:10CAB00002936B7818FB037301932B780093334632
:10CAC000FFF74AFE238951460F4A484606930A3526
:10CAD000E388059323790493E3780393A37818FB01
:10CAE00003730293637818FB0373019314F80A3BF2
:10CAF000009333460136FFF747FE1E2EB5D10BB02B
:10CB0000BDE8F08FDA46DDE768A705082DE9F041BA
:10CB100007468AB008468846FDF71BFB044640B12D
:10CB200000235A4901201A46FFF78EFF0AB0BDE8DC
:10CB3000F0810846FEF760FD1D28054600F39F8042
:10CB40000A268DF82740464308F10100FDF709FB4E
:10CB5000044630B1FEF750FD9DF8273001338DF8C3
:10CB600027302046494CFDF7FCFA804658B1FEF7C5
:10CB700043FD0D2807D80A236B43E0549DF8273066
:10CB800001338DF82730711C0DF1270240462144F6
:10CB9000FEF736FDFDF7E5FA804660B1FEF72CFDA5
:10CBA000222808D80A2303FB0543D8709DF82730B4
:10CBB00001338DF827304046FDF7D3FA804660B147
:10CBC000FEF71AFD0D2808D80A2303FB0543187148
:10CBD0009DF8273001338DF827309DF82730062B3C
:10CBE00008D00023A2193846A35153601381FFF7E0
:10CBF000A7F99BE70A260023404606FB0546F3807B
:10CC00003381FDF7AEFA074638B1FEF7F5FC9DF823
:10CC10002730F08001338DF827303846FDF7A1FA30
:10CC200050B1FEF7E9FC0A2303FB054318819DF888
:10CC3000273001338DF82730154B4FF0FF324FF47A
:10CC400061761A600A226A43A31819890691D98865
:10CC5000059119790491D97803911921987811FBDC
:10CC6000006002905B7811FB036101910021A35CDD
:10CC70000846084A00932B46FFF786FD56E71D231A
:10CC8000224605493846FFF74FF94FE7501E01206D
:10CC9000CC00012068A7050862A705082DE9F04F20
:10CCA000174689B01A460C46002180463D46FDF7DE
:10CCB00039FB2E4E07F148038246DFF8B4B00793E4
:10CCC00094F904001FF0F9F8002845D0002F4BD04C
:10CCD00029460C22204645F055FF00285246404682
:10CCE00013BF012100214FF001094FF00009FDF7AA
:10CCF00019FBEA7995F90430824656F82220494614
:10CD0000404604922A7A56F822200392AA7956F8CD
:10CD1000222002926A7956F8222001922A68009213
:10CD20005A46FFF719FDE279494694F90430404626
:10CD300056F822200492227A56F822200392A279F1
:10CD400056F822200292627956F822200192226837
:10CD500000925A46FFF718FD0C35079B0C34AB4286
:10CD6000AED109B0BDE8F08FB946DCE7BC9005084C
:10CD70008BA705082DE9F04380468BB00846FDF7E8
:10CD8000E8F938B10023474901201A460BB0BDE845
:10CD9000F04383E7CDE90700099008464D1CFEF7F4
:10CDA0002BFC44B2204620F09DFE0646002840D0D1
:10CDB0008DF8204001242846FDF7D3F9074638B105
:10CDC000013400230A22E4B21946FEF78BFB0790D8
:10CDD0000025DFF8D4903846FDF7C3F9074600B3C5
:10CDE000FEF70AFC002159F82120CBB2904203D073
:10CDF00001311029F7D1002359F82320904210D196
:10CE0000022D1DD0032D20D05A1E012DD2B212D0DA
:10CE10000B2A03D88DF821300134E4B20135042DFA
:10CE2000D9D1052C17D840460BB0BDE8F043FFF729
:10CE300087B80446BFE7042AF0D88DF82230EBE724
:10CE4000052BEBD88DF82430E6E79A1E0D2AE5D89D
:10CE50008DF82330E0E707AB134A03CB71609DF8F0
:10CE60002310306052F8211018689DF92030B0600E
:10CE700004919DF8241052F8211003919DF822107E
:10CE800052F8211002919DF8211052F82120002122
:10CE900001920846079A0092044AFFF775FC0BB00E
:10CEA000BDE8F08340620120BC9005088BA705080F
:10CEB0002DE9F04F904687B00C461A4600210746F0
:10CEC0004546FDF72FFA00268246B8F1000F67D0DD
:10CED00029460622204645F055FE0028524638468F
:10CEE00013BF012100214FF001094FF00009FDF7A8
:10CEF00019FA8246287829F011F88346687929F0D2
:10CF00000DF8BBF1000F1CD04FF461714FF0190CFC
:10CF1000AB78EA789BF808E01CFB03131CFB0212B9
:10CF200095F801B0297900B1007ACDE90410CDE976
:10CF30000232CDE900EB33461A4A49463846FFF73C
:10CF40000BFC207828F0EAFF8346607928F0E6FFA2
:10CF5000BBF1000F1CD04FF461714FF0190CA37896
:10CF6000E2789BF808E01CFB03131CFB021294F808
:10CF700001B0217900B1007ACDE90410CDE9023287
:10CF8000CDE900EB3346074A49463846FFF7FCFB3C
:10CF9000013606340635142E97D107B0BDE8F08F60
:10CFA000C146CEE7A8A705082DE9F041064686B0A0
:10CFB00008460F46FDF7CDF8044640B1002353491B
:10CFC00001201A46FFF774FF06B0BDE8F08108465D
:10CFD000FEF712FB1328054600F3908006268DF815
:10CFE00017404A4C4643781CFDF7BBF8074660B132
:10CFF000FEF702FBC0B228F075FF30B10378A355ED
:10D000009DF8173001338DF817303846FDF7A9F831
:10D01000074660B1FEF7F0FA0D2808D8062303FB97
:10D02000054358709DF8173001338DF81730B11C47
:10D030000DF1170238462144FEF7E2FAFDF791F8A8
:10D04000074660B1FEF7D8FA012808D8062303FB8B
:10D05000054318719DF8173001338DF817303846A5
:10D06000FDF77FF878B1FEF7C7FAC0B228F03AFFB3
:10D0700048B10623027803FB05435A719DF8173027
:10D0800001338DF817309DF817200623042A27D185
:10D0900003FB054300221A715A7114F029FB062381
:10D0A0006B43E618E05C28F039FF4FF46174F278C6
:10D0B0001923B7788046707913FB074713FB0244A6
:10D0C00028F02CFF017A737898F8082003913179C1
:10D0D0000F480097CDE901412946FEF769FF73E744
:10D0E000052A04D103FB054300225A71D5E7062A1D
:10D0F000D3D00023A219A3519380CEE71323224655
:10D1000004493046FEF710FF5EE700BF48170120D4
:10D11000A8A7050862A705080EB410B585B009498F
:10D1200007AC019001A854F8042B23460394FEF7A2
:10D13000E1FD019B00221A7005B0BDE8104003B06C
:10D14000704700BF198700082DE9F04F83468DB066
:10D150000C469A461546002A4AD1174616462046DE
:10D16000FBF704FA054618B32288A378E17894F80F
:10D1700004C094F805E0A079BAF1000F2BD1002E7D
:10D18000B4F808800091B4BF2D242B24002E0797FB
:10D190002F49B8BF7642CDE90308CDE901CE584604
:10D1A000CDE90546FFF7B8FF28460DB0BDE8F08F82
:10D1B0000121DFF8A880864684460B46024609AC6A
:10D1C000ADF828008DF82A00ADF82C00CDF82480A9
:10D1D000BAF1000FD3D00091CDF804C01D49CDE9BC
:10D1E00002E05846FFF798FF28460DB0BDE8F08FE3
:10D1F000194BD617084609AC83FB05232B44C6EB15
:10D200006316C6EB061736B2A5EB87073FB2002FB1
:10D21000B8BF7F42FEF782FB4FF47A72002380464C
:10D22000894642F057F83C2349464FF47A7205FB91
:10D2300003054046002342F04DF84FF47A7192B254
:10D24000002309A8C1FB0523FBF7AEF987E700BF60
:10D2500034A8050814A805088988888800000101F9
:10D2600010B504460846FBF781F938B1064B204655
:10D27000B3F900200023BDE8104065E70246002313
:10D280002046BDE810405FE7B072012010B40122D3
:10D290004C0901F01F0150F8243002FA01F123EA91
:10D2A000010340F824305DF8044B704710B40122AC
:10D2B0004C0901F01F0150F8243002FA01F10B4330
:10D2C00040F824305DF8044B704700BF01234A0941
:10D2D00001F01F0150F8222003FA01F1114214BF9E
:10D2E00018460020704700BFB0EEC07AF0EEE06A4A
:10D2F00086FE876AB5EE406AF1EE10FA3DD0C6FEB2
:10D30000C75AC5EE867ADFED1E2ADFED1E3ADFED45
:10D310001E4A9FED1E5A9FED1E3AB7EE006A9FED22
:10D320001D4ADFED1D5AE7EEE23AA7EE834AE7EE2B
:10D33000A34AA7EE846AA7EEA45AE7EE855AC5EE83
:10D34000867AF4EEC76AF1EE10FA03D59FED137AF0
:10D3500077EE677AF5EEC00AF1EE10FA03D59FED8D
:10D36000107A77EE677AB5EEC00AF1EE10FA48BF90
:10D37000F1EE677AB0EE670A7047DFED077AE0E713
:10D3800039094E3DE3B59E3E88FA163E45FE7F3F85
:10D3900099FB243F69A2163EA7DFA834DB0FC93FE3
:10D3A000DB0F494038B5064C064DAC4206D2A168A9
:10D3B00020461834FBF7F0FCAC42F8D338BD00BF70
:10D3C000E85E060890650608084B09498B4203D3BE
:10D3D00009E018338B4206D21A88C2F30B0290423E
:10D3E000F7D118467047002318467047E85E0608D4
:10D3F000906506082DE9F04F164685B00025DFF848
:10D40000D4901A46CDE9020100213046FCF78AFF8C
:10D4100001900D24FCF791FF2E4B6C43039AE31807
:10D420001B7903F01803934203D0002A49D1182B2B
:10D4300047D14FF00D0B4C440BFB0593B3F809009B
:10D44000FFF7C2FF80462046FCF797FE0746D8E963
:10D450000221024401442046FCF7E4FE80F0010171
:10D46000019A8246C9B23046FCF75CFFF206019091
:10D4700002D5BAF1000F24D10BFB059BB306DBF8F4
:10D4800000B010D5BAF1000F0DD159461248FEF781
:10D4900033FED8F80820534621463A440298FFF755
:10D4A00079F8FCF729FF59460C48FEF725FED8F815
:10D4B0000C20002321463A440298FFF76BF8FCF752
:10D4C0001BFF013540F23D239D42A2D105B0BDE8CE
:10D4D000F08F00BFCC3F0508C1A70508C2A705080B
:10D4E00070B50546B0F80900FFF76EFF064B04461D
:10D4F00028461E78FCF741FE16B1E368184470BD5B
:10D50000A3681844FBE700BF1415012038B5054691
:10D510000C46FFF7E5FF2A7902F0070302F0E0026C
:10D52000602A28D1022B0ED0042B18D03BB96A797F
:10D53000012393400278DBB214B11343037038BD6A
:10D5400022EA0303FAE76A790123934002889BB237
:10D5500014B113430380F2E722EA0303FAE701233D
:10D560006A7903FA02F2036814B113430360E6E731
:10D5700023EA0203FAE7042BE1D8DFE803F0030310
:10D58000050507000470DAE70480D8E70460D6E7F1
:10D5900070B5164605460C460846FFF7A1FF334610
:10D5A000024621462846BDE87040FEF7F3BF00BFA3
:10D5B000704700BF01230249024A8B7253627047D1
:10D5C000E8600120406201202DE9F0473D4C54F80D
:10D5D0002040002C3ED0D4F8A8511F4690468146EA
:10D5E0006A6820466B6BC4F8A02163612A6B6B8F5D
:10D5F000A261E3602A8F344BA160236022613AF07C
:10D60000E3FD6B68C4F8203195F82800002856D156
:10D6100094F8AE0106F02CFC064694F8AC0106F036
:10D6200027FC3B07824618D52EB317F0110F09F1DE
:10D6300001094FF00B03304686F8079008BF3A21E6
:10D64000B37118BF4A2194F8AF2106F0DDFCD4F87D
:10D65000FC3033B32046BDE8F08718F0020F0AD043
:10D660004EB10B2209F101033046B271F37194F807
:10D67000AF1136F0E3FDBAF1000FE8D018F0010F5A
:10D68000E5D00C2309F1010950468AF806308AF8E2
:10D69000079094F8AD1136F0D1FDD4F8FC30002B92
:10D6A000D8D195F82C1095F92A00890935F02AFF70
:10D6B00095F92A003AF07AFD2046BDE8F08735F06A
:10D6C0004FFFA5E748290020809F0508F8B5EFF334
:10D6D0001184502383F31288D0F800311B6813F0B3
:10D6E000010303D0E4B284F31188F8BDD0F894218B
:10D6F000D0F898110A4302F02102212AF2D0D0E991
:10D70000091291424DD095B24FD94B1B9BB2D0F824
:10D71000947100258162202F80F8A451E2D185699F
:10D72000D54205EB0201DDD0B3FA83F67609002E6F
:10D73000D8D190F89021012AD4D005462122012089
:10D74000D5F888C1A5F87231C5F86C11C5F89C618F
:10D75000A5F87031C5F8942185F89001D5F82021FD
:10D76000BCF1000F13D0DFF860E028321548CCF888
:10D7700040E0DFF858E0CCF83C006046CCF8506060
:10D78000CCF84CE031F0D2FFA0B9D5F8202100232D
:10D790004021116285F89031936843F080039360D3
:10D7A000A0E7012380F8A4319CE706691946731BA2
:10D7B0009BB2ACE7102385F89061C5F89C31C5F8A1
:10D7C00094718FE77D31040845310408E530040881
:10D7D0002DE9F04110F59075044614D0D0F82021C1
:10D7E00024210023C0F89411116821F00101116077
:10D7F000136053609360C0F89C3180F89031C0F89A
:10D800009431C0F8983161790022A0688F022379A1
:10D810000E03C4F82401080207F4805706F40056EA
:10D82000C4F8382100F48060C4F84021C4F83421E1
:10D8300013F00102C4F82871C4F82C61C4F8300157
:10D8400002D00420C4F8340113F0020605D0D4F845
:10D85000340140F00800C4F83401C8070DD54AB1BE
:10D86000D4F844014FF4803740F00200C4F84C7102
:10D87000C4F84401002E40F0FD80090729D5002D91
:10D8800055D0D4F894310BB984F89031D4F82021D4
:10D8900024232846C4F89431136823F0010313604D
:10D8A0003BF06EFC01283FD0D4F8443113B1284638
:10D8B0003BF014F8D4F8203128465A6822F49042FC
:10D8C0005A609A6822F022029A609A6842F008022E
:10D8D00023E065B3D4F894310BB984F89031D4F8CF
:10D8E000202124232846C4F89431136823F001032F
:10D8F00013603BF045FC012816D0D4F8443113B135
:10D9000028463AF0EBFFD4F8203128465A6822F432
:10D9100090425A609A6822F02A029A601A6842F08D
:10D9200001021A603AF0AAFF237903F00102002AEB
:10D930006DD0D4F8FC20002A00F0A78000234FF41B
:10D94000807104F13C07D4F804614FF48060E26315
:10D950004FF480322664E0643846C4E91133C4E9E8
:10D960001433C4E91833C4E91A33C4E9161231F088
:10D9700022FF384631F060FFD4F89881C4F88C71EA
:10D98000B8F1200F65673DD1E368626999B2002A5A
:10D9900038D0B1FA81F67609002E33D194F890018F
:10D9A00001282FD0A4F878110B46384649494A4F30
:10D9B0004FF0010E4FF0220CE167A767D4F8201159
:10D9C000464FC4F89C612431C4F87421C4F88C60BB
:10D9D00084F890E1C4F898C1C4F8887031F0A6FECC
:10D9E00000286ED1D4F8203184F890011A6842F4EE
:10D9F00080721A609A6842F001029A609A6842F056
:10DA000040029A60E26B23795268C4F814219B07A4
:10DA10002ED5D4F800212AB3D4F808610023402081
:10DA2000C4F89C204FF48061C4F8A0604FF48032A9
:10DA300004F19C06C4F8A400C4F8A8303046C4F829
:10DA4000B830C4F8AC10C4F8BC20C4E92C33C4E925
:10DA50003033C4E9323331F0AEFE304631F0ECFE03
:10DA600030B3FEE7D4F8A021136843F080031360BD
:10DA7000BDE8F081D4F844014FF4003640F00100D5
:10DA8000C4F84861C4F84401F7E6D4F8A02111684D
:10DA900041F480711160916841F001019160116859
:10DAA00041F020011160116841F010011160AEE7F2
:10DAB000D4F89C30C4F88861C4F8D4505860BDE8EC
:10DAC000F081102384F89061C4F89C31C4F89481EB
:10DAD00098E700BF493104084D310408E5300408D7
