:020000040800F2
:10000000F0FF001019BA05083B480408F121030865
:10001000B9BA0508B9BA0508B9BA05080000000060
:100020000000000000000000000000003948040843
:10003000374804080000000035480408C9190208C0
:10004000B9BA0508B9BA0508B9BA0508B9BA0508B0
:10005000B9BA0508B9BA050879290208A52A02081B
:10006000692A02082D2A0208F129020861DA040827
:1000700051DA040841DA040831DA04081DDA040808
:1000800009DA0408F5D90408B9BA0508B9BA0508A7
:10009000B9BA0508B9BA0508B9BA0508B5290208F8
:1000A000092A0308A52F030839290308813003080A
:1000B000E52E0308252E0308592D03085DE20408E8
:1000C00063E2040853E2040859E20408B9BA0508D7
:1000D000B9BA05083D1C0208B9BA0508811B020817
:1000E0003D290208B9BA0508B98E04086928030831
:1000F000D92A030899270308B92B0308E1D9040872
:10010000B9BA0508B9BA0508892C0308B9BA0508AF
:10011000C51A0208B9BA0508E1D7010869D601086D
:10012000CDD90408B9D90408A5D9040891D904087F
:100130007DD90408B9BA0508B9BA0508B9BA0508DD
:10014000B9BA0508B9BA0508B9BA0508715E040854
:1001500069D9040855D9040841D90408091A0208C4
:1001600049E204084FE20408B9BA0508B9BA05081B
:10017000B9BA0508B9BA0508B9BA0508B9BA05087F
:08018000B9BA0508B9BA050877
:08018800C0B5050001000000F4
:100190001A0001000E000000A424002044250020C5
:1001A00000000000F8080008203201000A000000EA
:1001B0009423002054250020000000003D8D0008FD
:1001C00015001000700000009C2100206025002018
:1001D00000000000000000002A000800600000008D
:1001E0003C210020D025002000000000158D0008D3
:1001F0002C000400100000004026002030260020C3
:1002000000000000E98A00082B0012002400000012
:10021000742600205026002000000000B98A000843
:100220002920140078000000541E00209826002089
:1002300000000000000000000A020100140000009D
:10024000B02F0020A832002000000000D173010868
:10025000F821010006000000942A0020BC32002092
:100260000000000006090008030001000100000072
:10027000A02A0020C432002000000000000000007E
:100280001010010002000000602A0020C832002087
:10029000000000000C09000825201E002C010000B1
:1002A000CC2F0020CC320020000000000000000015
:1002B0001900010005000000D8290020F8330020B3
:1002C000000000000E0900082802040004000000DD
:1002D000883400208C34002000000000994203087C
:1002E0002702040004000000843400209034002021
:1002F000000000008D420308020001000C00000015
:100300004C350020E0350020000000000000000017
:100310002902010040000000B0340020EC3500202C
:1003200000000000140900081A0201003C0000004F
:100330002C3A0020C83B002000000000814A03083E
:10034000031201003D000000D4390020043C0020CD
:1003500000000000540900083810010001000000EE
:1003600038360020443C00200000000092090008BC
:100370000702010002000000B042002004470020F4
:1003800000000000940900081D02020006000000A1
:10039000104200200847002000000000000000007C
:1003A000060203000C00000098420020104D0020BF
:1003B00000000000ED450308081203000F000000D4
:1003C0001C4200201C4D00200000000035420308A4
:1003D0002700010004000000583D00202C4D0020A3
:1003E0000000000096090008F62101000C00000042
:1003F0009C7A0020647B0020000000009C0900081B
:100400001C0202001C000000247B0020B47B0020A2
:100410000000000021450308140001000400000052
:10042000707A0020D07B002000000000A80900089E
:10043000012001000C00000054720020D47B002039
:1004400000000000AC0900080EF003009E0100004F
:10045000A06D0020E07B0020000000005D8D000802
:1004600013000100040000009C770020807D002024
:1004700000000000B80900080101010004000000AC
:10048000EC6C0020847D00200000000000000000D3
:100490000001010004000000E46C0020887D0020C1
:1004A00000000000BC090008020101000300000078
:1004B000E06C00208C7D002000000000D95E010867
:1004C000220201001C01000084750020907D0020A4
:1004D000000000004D4903080C20060058020000EF
:1004E000646F0020AC7E002000000000B95E0108AF
:1004F000FD0701007600000064970020DC970020D3
:100500000000000011E604080B3001001A00000092
:100510002C9100208498002000000000C0090008F1
:100520001F3001002400000068880020A0980020EF
:1005300000000000DC0900080502010004000000C2
:1005400000940020C498002000000000000A000869
:10055000030101000A000000B0900020C8980020AC
:1005600000000000813004081302010004000000B4
:1005700034810020D498002000000000040A000804
:100580001002010001000000E8AC0020E4AC0020F3
:1005900000000000080A0008010201000B00000032
:1005A00094B5002064C30020000000002542030829
:1005B0001B0201001000000080B5002070C3002065
:1005C000000000009D4203081B1001000C00000009
:1005D000E0AE002080C3002000000000C50C05082C
:1005E00021020100F000000060AD00208CC300205B
:1005F000000000003D0A0508231201001000000061
:1006000080B200207CC40020000000000C0A00081A
:10061000051001000600000078B200208CC4002004
:10062000000000001C0A0008371001002E00000026
:10063000F0B4002094C4002000000000220A00084A
:100640000E0201000200000074B20020C4C40020A9
:1006500000000000500A000816100100060000000B
:100660006CB20020C8C4002000000000520A00083C
:100670002F1001002200000040C30020D0C4002041
:1006800000000000580A00081E00010009000000D8
:1006900090B10020F4C40020000000007A0A000895
:1006A000F581010068000000F0AC002000C50020CA
:1006B00000000000192E0508232001001000000092
:1006C00018B2002068C5002000000000E5AF030854
:1006D0000D1001005800000054EF00209CF800208D
:1006E000000000000D7E02080400080080000000E9
:1006F00094EE0020F4F8002000000000000000004C
:1007000009020100010000003CEE002074F9002005
:1007100000000000840A0008FD0101002400000020
:10072000E0ED002078F90020000000002FEF010824
:100730001820010032000000A8ED00209CF90020E4
:1007400000000000054A0308FB0101000100000051
:1007500068ED0020D0F9002000000000B548030833
:10076000FC0101000900000034EC0020D4F9002055
:1007700000000000C5480308F70101000600000062
:100780002CEC0020E0F9002000000000860A0008A0
:10079000F90101000400000028EC0020E8F9002025
:1007A00000000000DDEF0108160215003F00000008
:1007B000B0C90020ECF900200000000095490308B2
:1007C000340001001000000054EB00202CFA00203F
:1007D00000000000A1A300081102010008000000B1
:1007E0002CEB00203CFA0020000000008C0A0008DE
:1007F000121201000400000024EB002044FA002043
:1008000000000000940A00080A800100280000008F
:10081000FCEA002048FA002000000000CDAE0308EA
:10082000061001001C00000094C9002070FA00208E
:1008300000000000E1480308122001001100000040
:100840003CEA00208CFA002000000000980A000812
:10085000000201000B00000078E70020A0FA002051
:100860000000000000000000FA0101000300000089
:100870000CE10020ACFA002000000000194203083F
:1008800002020100030000008CC90020B0FA002021
:1008900000000000000000000C0201000400000045
:1008A0003CC90020B4FA0020000000000142030807
:1008B0001F02080010000000D8E00020B8FA002055
:1008C00000000000DD410308110001000C000000E1
:1008D00072D50020C8FA002000000000195E02084E
:1008E000FE01010014000000E4D40020D4FA00202E
:0808F00000000000B5410308FF
:1008F8007E05EA05B4053200E803D00700000101CF
:10090800F4011400000500002801000000000000A8
:1009180000000000000000000000000000000000CF
:1009280000000000000000000000000000000000BF
:1009380000000000000000000000000000000000AF
:10094800000000000000000000000000000000009F
:10095800000000000000000000000000000000008F
:10096800000000000000000000000000000000007F
:10097800000000000000000000000000000000006F
:10098800000000000000000001000000013C2003FE
:10099800000000000000000001000000020200004A
:1009A8001A000023E8036400040A000114001E0072
:1009B8000800400090010000AE014A015E012C01D0
:1009C80064000200000001000A019A01001E0A00EA
:1009D8000002000000000000000100000005000007
:1009E80001020300000000000000000000000000F9
:1009F8000000000000800700000000000000013532
:100A080000000000000000000000000000000000DE
:100A18000000000020000301000020003200C80090
:100A2800D00796001400320028004C044006000548
:100A3800500014000F0008006400010000000500C9
:100A48000A000000F40196000000C4090000190023
:100A5800000000000000000000000000000000008E
:100A6800000000000000000000000000000000007E
:100A7800000000050100000000000000360024000E
:100A8800010000000000000001010101FFFFFFFF5D
:100A980000000001000005524F5344000008000206
:010AA800004D
:100AA900B4190020081A002001D601FFFFFFFFFF3B
:100AB9000000803F0000000000000000000000006E
:100AC9000000803F0000000000000000000000005E
:100AD900000000000000000000000000000000000D
:100AE90000000000000000000000803F000000003E
:100AF90000000000000000000000FA430000FA4373
:100B09000000803F010000000000803F000000005D
:100B1900000000000000000081B60208000000008B
:100B29000000000000000000FFFFFFFF00000000C0
:100B390098320020080000000000000088320020E0
:100B490008000000FFFF0000FFFFFFFF00C80608C4
:100B590000000802050303000000000008C8060899
:100B6900010008020504030000000000C48706080C
:100B79000200FE01011003000000000010C8060871
:100B890003001402000300000000000018C8060852
:100B990004001F02020008000000000020C8060827
:100BA90005001F020201080000000000494F040867
:100BB9007F2B0408DD4E040800000000612A0408A8
:100BC900B55704081D4E0408894A040800000000AE
:100BD90000000000212A0408ED290408DF2904087F
:100BE9000D49040829490408F1480408D5480408AE
:100BF900BB480408FF4E04085D2B04081F4E040877
:100C090000000000392A04088B4A0408F14D040841
:100C1900F349040800000000000000002D2A040820
:100C290001000000A00F0000B80B00000102FFFF47
:100C390001FF00001A03000000000000000000008E
:100C4900000000000000000000000000000000009B
:100C59000403090412010002000000408304205724
:100C69000002010203010000114B0308E5420308D9
:100C7900E1420308DD4203085D4B0308D94203083A
:100C8900D5420308E03E0608515704083F2B0408E3
:100C9900355604080000000000000000C94D040892
:100CA900D94C04080000000000000000000000000A
:100CB900152A04087D43030871430308915003086A
:100CC900AD50030829430308755003085950030818
:100CD9001F0000001C0000001F0000001E00000093
:100CE9001F0000001E0000001F0000001F00000080
:100CF9001E0000001F0000001E0000001F00000071
:100D09000068214C8048060801000000A9A50308D5
:100D19000000000000000000C849060800000000AB
:100D290000000000000000007463060800000000D5
:100D390000000000000000002C640608000000000C
:100D49000000000000000000D86306080000000051
:100D59000000000029C90308E57400200101000012
:100D690011DC03080000000000000000006506080F
:100D790045DF03080000000000000000B864060811
:100D89002D202D2D202D2D2D2D202D2D2D00000038
:100D9900000000000000000000000000000000004A
:100DA900FFFFFFFFCDCE0308000000000000000098
:100DB9000463060801000000FA00000001000000B9
:100DC9000100000001000000000101010000000015
:100DD9004E7200200000F401010000004C72002056
:100DE9000000F401010000004A7200200000F40133
:100DF90001000000487200200000F4010100000019
:100E0900467200200000F401010000004472002035
:100E19000000F40101000000427200200000F4010A
:100E29000100000085AD030849AD0308000000007A
:100E3900904F0608327200200532010040720020EE
:100E49006400F401010000003E7200206400C4093E
:100E59000100000030720020E803D0070100000003
:100E69002E720020E803D007010000002C72002038
:100E7900E803D007010000002A7200201E00B80B09
:100E8900010000003872002005000F000100000079
:100E99003A72002003000A000100000028720020B5
:100EA9001E00F401010000003C7200200200000055
:100EB9001C5006082672002014006400010000007E
:100EC900347200203200E80301000000247200207F
:100ED9000000C80001000000616F002000C8010087
:100EE900606F0020005001005F6F0020005A010070
:100EF9005D6F0020020000002850060898E50608EA
:100F0900A0E50608D2EF00200100C4090000000096
:100F1900D0EF00200100C40900000000CEEF00203E
:100F29000100C40900000000CCEF00200100C40941
:100F390000000000C8EF00200100C4090000000003
:100F4900CAEF00200100C40900000000C6EF00201C
:100F59000100C40900000000C4EF00200100C40919
:100F6900000000000B6D002000C801000A6D002080
:100F790000C80100086D00200000FFFF0A00000002
:100F8900066D00200100C80001000000046D00206A
:100F99003200307532000000026D00200582050024
:100FA900006D002005002C0105000000FE6C0020EA
:100FB900055A0500FB6C002000FF0100FD6C0020B4
:100FC90002000000E4050020F96C00200300000085
:100FD900F06D0608FA6C002000FF0100FC6C00208F
:100FE90002000000E4050020F86C00200300000066
:100FF900F06D0608D9AC030869AC030800000000CD
:101009003450060864720020EE02CA08010000008C
:101019006272002000C801006400000061720020B3
:1010290000C8010064000000607200200200000096
:1010390040510608F26C00200000803E05000000C7
:10104900F06C002080C1803E05000000EA6C0020A1
:101059000083007D05000000E86C002080C1803E0F
:1010690005000000E36C002000FF0100DC6C00209B
:101079006400F40101000000DA6C002004000000A3
:101089004C510608D96C0020020000006051060886
:10109900916D00200D0000006C5106088E6D002036
:1010A900006401008C6D0020320010270A00000046
:1010B9008A6D00200D0000006C510608896D002022
:1010C9000D0000006C510608886D00200200000028
:1010D900A451060800000000000000000000000004
:1010E900B05106086A7200203E000000E851060867
:1010F900687200200100FF7F010000006772002074
:1011090002000000E4520608936D0020030000006D
:10111900F4520608926D002003000000F4520608FC
:101129004E6F0020000A01004C6F00200000E80308
:10113900010000004A6F00200000E80301000000E0
:10114900486F00200000E80301000000466F0020FE
:101159000000E803010000003E6F00200000E803E2
:1011690001000000446F00200000E80301000000B6
:10117900426F00200000E80301000000406F0020DA
:10118900001401005C6F00200200000004530608EF
:101199005A6F00200000F40101000000586F002080
:1011A9000000F40101000000566F00200000F40166
:1011B90001000000546F00200000F401010000004C
:1011C900526F00200000A00F01000000506F0020A6
:1011D9000000A00F01000000117200201964010035
:1011E900107200200200000010530608CC71002084
:1011F900E803D0070A000000CA710020006401005A
:101209000A000000BF71002000640100BE710020C7
:1012190000640100C6710020006401000A0000009A
:10122900C5710020006401000A000000C47100209B
:10123900006401000A000000C971002000FF0100DC
:101249000A000000C871002000FF01000A00000028
:10125900C771002000FF01000A000000C3710020CF
:1012690001FF01000A000000C271002001FF010016
:101279000A000000C171002001FF01000A000000FE
:101289009C6D00200000F401010000009A6D00200F
:101299000000A00F01000000986D00200000A00FC1
:1012A90001000000966D00200000A00F0100000061
:1012B900946D00200000A00F010000002D75002092
:1012C90000C801002C750020006401002B75002066
:1012D900006401002A7500200064010029750020BE
:1012E9000064010028750020FF080100277500200F
:1012F90001640100E1AB0308A5AB0308000000008D
:101309001C53060830750020013201002F7500209A
:10131900010000008C5306082E750020040000000F
:1013290094530608267500200064010024750020E6
:101339001400E8030100000022750020E80330755D
:101349000A0000002175002000C801002075002056
:1013590000C801001F75002000C801001E7500208B
:101369000032010032750020004B01003175002068
:1013790004000000A85306081D7500200064010040
:101389000A000000407500200000D007010000009D
:101399003B75002000C801003A75002000C8010013
:1013A9003975002000C801003E7500200000D007F3
:1013B900010000003875002000C8010037750020C1
:1013C90000C801003675002000C801003C750020E6
:1013D9000000D007010000003575002000C8010099
:1013E9003475002000C801003375002000C80100D1
:1013F90099A9030881A9030800000000BC53060845
:10140900856D0020005A0100846D002000C801008C
:10141900826D0020E803D0070100000000000000F1
:101429000000000069C90308585406085245564F80
:101439004C544F5344000000F76C00200003010096
:10144900F66C002000030100BDA8030871A8030879
:1014590000000000A054060831A80308E9A7030802
:10146900000000003C55060809A90308B1CE03088D
:1014790000000000BC550608F46C002001030100BF
:1014890011AE0308E5AD0308000000001459060871
:101499006DA7030821A70308000000008459060866
:1014A900A9A9030841E8030800000000205A06081A
:1014B900D1D203083DAE030800000000C85A06084F
:1014C900F9A903080000000000000000545B0608A9
:1014D900D5AA03087DAA030800000000B85B060826
:1014E90069AB03082DAB030800000000605C060827
:1014F900012704081DAC030800000000EC5C060885
:10150900237200200106010041AA03080DAA03085D
:1015190000000000E85D0608372604084DD00308DE
:1015290000000000585E06083927040815D1030891
:1015390000000000A85F06082272002001030100D4
:1015490051A9030821A90308000000007C600608CE
:10155900912704080000000000000000E060060870
:10156900B9A7030899CE03080000000060610608C6
:10157900000000000000000000000000EC61060807
:1015890041AC03088DD10308000000005C62060825
:10159900000000000000000000000000746406085C
:1015A900AC9300209CFF2C01000000003477002040
:1015B900E0150C17000000007A74002002000000FA
:1015C900AC640608D46C002088136F170100000072
:1015D900D66C002088136F170000000016F0002059
:1015E900000000000000000014F0002000000000CE
:1015F9000000000012F000200000000000000000C0
:1016090010F0002000000000000000000EF0002093
:1016190000000000000000000CF0002000000000A5
:1016290000000000B40F00200000000000000000CE
:101639005C6C0020030000009C650608CC6C00204F
:1016490088136F1701000000F693002088136F17A5
:101659000000000061A6030800000000000000006F
:10166900AC6506087B7400200100000000660608CE
:10167900F8930020010000000C660608EE93002094
:1016890002000000146606080000000000000000C7
:10169900000000002066060849A6030800000000B3
:1016A90000000000BC660608000000000000000001
:1016B900000000001067060800000000000000009C
:1016C9000000000080670608D86C002002000000B6
:1016D900B8670608F2930020E0150C170000000017
:1016E9000403090412010002EF0201408304563287
:1016F900000201020301000012010002020200407F
:10170900830440570002010203010000090220007E
:10171900010104C03209040000020806500507054A
:10172900810240000007050102400000090264002F
:10173900030100C03209040000010300000009216F
:10174900110100012236000705830309000A080B6D
:10175900010202020100090401000102020100055F
:1017690024001001052401000204240202052406B4
:101779000102070582030800FF09040200020A00AA
:101789000000070501024000000705810240000032
:1017990009024300020100C03209040000010202EB
:1017A900010005240010010524010001042402029E
:1017B9000524060001070582030800FF090401004A
:1017C900020A000000070501024000000705810226
:1017D90040000000FF00000000FF000000000000C2
:1017E9000000AA550701000001AA550501000008DB
:1017F9009C690608FF1FFF1F05010905A101A1003A
:101809000501093009310932093309350934093625
:1018190009371581257F7508950881020509190180
:10182900290815002501950875018102C0C000002D
:1018390009022200010100E032090400000103014C
:10184900020009211101000122360007058303095D
:10185900000A000000000000010203040102030461
:1018690006070809EB4F0408E95404086550040801
:10187900972A0408492C0408A72A0408C32A04083B
:10188900712A0408632A040800000000000000000F
:101899002D202D2D202D2D2D2D202D2D2D2D0000F0
:1018A900000000000000000000000000000000AA85
:1018B900550B010000AA5505010000AA55090200AF
:1018C9000000AA5503009F0001000000C01200009B
:1018D90054980020000000007C98002000000000BF
:1018E900ACC806087CF9060800000000C95B0208BC
:1018F900A0860100040000000000000000000000B4
:1019090000000000000000000000000000000000CE
:1019190000000000000000000000000000000000BE
:10192900ACC8060884F906080000000075B402086E
:10193900E8030000040000000000000000000000AF
:10194900000000000000000000000000000000008E
:10195900000000000000000000000000000000007E
:10196900D4C706080000000000000000E96E010865
:101979007D000000FF0000000000000000000000E2
:10198900000000000000000000000000000000004E
:10199900000000000000000000000000000000003E
:1019A90060CC060800000000000000001D8B010843
:1019B9007D000000FF0000000000000000000000A2
:1019C900000000000000000000000000000000000E
:1019D90000000000000000000000000000000000FE
:1019E9009CED0608000000000000000019AF010886
:1019F9007D000000FF000000000000000000000062
:101A090000000000000000000000000000000000CD
:101A190000000000000000000000000000000000BD
:101A2900DCC706080000000000000000F5E8020815
:101A3900E8030000030000000000000000000000AF
:101A4900000000000000000000000000000000008D
:101A5900000000000000000000000000000000007D
:101A69008CF906080000000000000000853E01080E
:101A79001027000003000000000000000000000023
:101A8900000000000000000000000000000000004D
:101A9900000000000000000000000000000000003D
:101AA9000CC8060800000000D5860008EDEF020802
:101AB9005F76000005000000000000000000000043
:101AC900000000000000000000000000000000000D
:101AD90000000000000000000000000000000000FD
:101AE900D0CB0608000000000000000031320308D6
:101AF90010270000010000000000000000000000A5
:101B090000000000000000000000000000000000CC
:101B190000000000000000000000000000000000BC
:101B290098F90608000000000000000079B40208D6
:101B3900E8030000050000000000000000000000AC
:101B4900000000000000000000000000000000008C
:101B5900000000000000000000000000000000007C
:101B6900A4F9060800000000000000000D74010837
:101B7900204E0000030000000000000000000000EB
:101B8900000000000000000000000000000000004C
:101B9900000000000000000000000000000000003C
:101BA900B4F906080000000000000000A57D010846
:101BB900204E0000030000000000000000000000AB
:101BC900000000000000000000000000000000000C
:101BD90000000000000000000000000000000000FC
:101BE900C4F906080000000000000000A9E5020889
:101BF900400D030003000000000000000000000089
:101C090000000000000000000000000000000000CB
:101C190000000000000000000000000000000000BB
:101C2900A4C906080000000000000000417F020866
:101C39001027000001000000000000000000000063
:101C4900000000000000000000000000000000008B
:101C5900000000000000000000000000000000007B
:101C6900F4C7060800000000000000005918050824
:101C79001027000003000000000000000000000021
:101C8900000000000000000000000000000000004B
:101C9900000000000000000000000000000000003B
:101CA900F4E70608000000000000000015B3020870
:101CB900A861000001000000000000000000000011
:101CC900000000000000000000000000000000000B
:101CD90000000000000000000000000000000000FB
:101CE900D4F906080000000000000000CDF1030847
:101CF900A0860100010000000000000000000000B3
:101D090000000000000000000000000000000000CA
:101D190000000000000000000000000000000000BA
:101D2900D8CB06080000000000000000BDB602087C
:101D3900A00F0000010000000000000000000000EA
:101D4900000000000000000000000000000000008A
:101D5900000000000000000000000000000000007A
:101D6900E0F9060800000000000000001539050828
:101D79001027000001000000000000000000000022
:101D8900000000000000000000000000000000004A
:101D9900000000000000000000000000000000003A
:101DA900D0C906080000000000000000095C020814
:101DB900A00F00000100000000000000000000006A
:101DC900000000000000000000000000000000000A
:101DD90000000000000000000000000000000000FA
:101DE900ACC9060800000000000000002531050804
:101DF9001A4100000100000000000000000000007E
:101E090000000000000000000000000000000000C9
:101E190000000000000000000000000000000000B9
:101E29003CCC06080000000000000000B5300408A2
:101E39001027000001000000000000000000000061
:101E49000000000000000000000000000000000089
:101E59000000000000000000000000000000000079
:101E6900ECF90608000000000000000019FB030857
:101E790050C3000001000000000000000000000045
:101E89000000000000000000000000000000000049
:101E99000000000000000000000000000000000039
:101EA900F0F90608000000000000000049380408A5
:101EB900400D0300000000000000000000000000C9
:101EC9000000000000000000000000000000000009
:101ED90000000000000000000000000000000000F9
:101EE900F8F906080000000000000000D1B202085D
:101EF900400D030000000000000000000000000089
:101F090000000000000000000000000000000000C8
:101F190000000000000000000000000000000000B8
:101F290000FA060800000000000000000D44050842
:101F390050C3000003000000000000000000000082
:101F49000000000000000000000000000000000088
:101F59000000000000000000000000000000000078
:101F69000CFA06080000000000000000B9EA0108A8
:101F790040420F00000000000000000000000000C7
:101F89000000000000000000000000000000000048
:101F99000000000000000000000000000000000038
:101FA90018FA060800000000000000003D5E020863
:101FB90050C3000000000000000000000000000005
:101FC9000000000000000000000000000000000008
:101FD90000000000000000000000000000000000F8
:101FE90001000000FF010000F4010000FF000000F3
:101FF90000000000000000000102030406070809B0
:1020090000000100E0017EFFFFFFFFFFFF0000006D
:10201900FFFFFFFF0801FF010800000000000401A5
:10202900000000000000000210000000070000008E
:102039007D000000006002401060024000000000C6
:1020490000000000000B000000000000000000007C
:10205900000000000060024028600240010000000A
:1020690000000000060C0000000000000000000055
:1020790000000000006002404060024002000000D1
:1020890000000000100D000000000000000000002A
:102099000000000000600240586002400300000098
:1020A90000000000160E0000000000000000000003
:1020B900000000000060024070600240040000005F
:1020C90000000000200F00000000000000000000D8
:1020D9000000000000600240886002400500000026
:1020E90000000000261000000000000000000000B1
:1020F9000000000000600240A060024006000000ED
:102109000000000030110000000000000000000085
:102119000000000000600240B860024007000000B3
:1021290000000000362F0000000000000000000041
:10213900000000000064024010640240000000003A
:10214900000000000038000000000000000000004E
:102159000000000000640240286402400100000001
:102169000000000006390000000000000000000027
:1021790000000000006402404064024002000000C8
:1021890000000000103A00000000000000000000FC
:10219900000000000064024058640240030000008F
:1021A90000000000163B00000000000000000000D5
:1021B9000000000000640240706402400400000056
:1021C90000000000203C00000000000000000000AA
:1021D900000000000064024088640240050000001D
:1021E900000000002644000000000000000000007C
:1021F9000000000000640240A064024006000000E4
:102209000000000030450000000000000000000050
:102219000000000000640240B864024007000000AA
:102229000000000036460000000000000000000029
:1022390000000000DD290408DB290408D929040865
:10224900D3290408D1290408D7290408D529040861
:10225900010000000000803F010000004819002033
:102269000000000000000000000000000000000065
:102279000000000000000000000000000000000055
:102289000000000000000000000000000000000045
:102299000000000000000000000000000000000035
:1022A9000000000000000000000000000000000025
:1022B9000000000000000000000000000000000015
:082800000000000000000000D0
:10800000F0B4EFF31181102383F31288504CA7686A
:10801000236813F4803F4F4B1CBF01221A604E4A65
:1080200018BFA76814681A68C9B281F311884B4B4E
:108030004B491E684FF47A75224405FB06F30C6821
:10804000DB1BB3FBF6F305FB0232131BB3F57A6FB0
:1080500014DC0B790A60A3B1022B424C72D0442B82
:10806000247873D901336400DBB2E51CAB420B7199
:1080700014DD0534A3425CD0F0BC704700230A60D5
:108080000B71A828F8D1374C374D384E247800238F
:108090002B8033700546364EF554E3E7324A138899
:1080A000C0B283EA002000B20028B8BF41F221012B
:1080B00083B2B4BF81EA43035B009BB2190446BF9D
:1080C00041F2210181EA43035B009BB21F0446BFDA
:1080D00041F2210181EA43035B009BB21E0446BFCB
:1080E00041F2210181EA43035B009BB21D0446BFBC
:1080F00041F2210181EA43035B009BB21C0446BFAD
:1081000041F2210181EA43035B009BB2180446BFA0
:1081100041F2210181EA43035B009BB2190446BF8F
:1081200041F2210181EA43035B009BB21380F0BC62
:108130007047104B0D481A60002301220B7102702A
:10814000F0BC7047C5B225702C46A4E7C5B2A2E7C3
:1081500010E000E08CD4002090D4002094D40020C3
:10816000A8190020F1730020F2730020F0730020A2
:10817000F47300203C740020014B9868704700BFE6
:10818000A819002083788B4206D9836933F811003F
:10819000800900F57770704700207047264B93F8F0
:1081A000B4204AB9D3F8B8206AB9244909680A60EA
:1081B0000022C3F8B8207047002283F8B4200022C0
:1081C000C3F8B8207047F0B4EFF31182102181F3A7
:1081D00012881B4C1B48A7682168C90344BF0121B2
:1081E0000160194948BFA7680C680168D2B282F3E0
:1081F0001188164A114D12684FF47A7606FB02F088
:108200002144C01B6C68B0FBF2F0114A06FB01016F
:10821000944208BF04F15402C3F8BC1018BF02F125
:108220005404D3F8B8001060C5E900420022C3F836
:10823000B820F0BC704700BFA819002088010020BA
:1082400010E000E08CD4002090D4002094D40020D2
:10825000B4190020F0B4EFF31181102383F31288D6
:108260001D4C1E4AA7682368DB0344BF012313602B
:108270001B4B48BFA768D3F800C01368C9B281F38D
:1082800011881849184A0D68166818494FF47A740D
:10829000634404FB05F2D21BB2FBF5F204FB03239B
:1082A000C1F8C030336873B9D1F8B8304F2B0AD851
:1082B000D1F8B820D1F8B830164401333071C1F884
:1082C000B830F0BC70470823002281F8C430C1F8F0
:1082D000B820F0BC704700BF10E000E08CD4002054
:1082E00090D4002094D4002088010020A8190020F8
:1082F000014BD3F8C8007047A8190020F8B5114EFB
:1083000032780AB90120F8BD0F4B1C6823685D6AFA
:1083100035B120460D49A847002333700120F8BD30
:108320000A4FD51900E023689B682046984700282B
:10833000F9D0236817F8011B1B6820469847AF4205
:10834000F1D1E9E7CD94002018970020B8940020DF
:1083500083788B4210D9094B03EB810193F8FC30F1
:10836000D1F8CC001BB900F5777080B27047400897
:1083700000F5777080B2704700207047A819002080
:10838000F0B4EFF31181102383F31288224C234AB7
:10839000A7682368DB0344BF01231360204B48BF59
:1083A000A7681C681368C9B281F311881D4A1E4969
:1083B00016684FF47A75234405FB06F2D1F80041A4
:1083C000D21BB2FBF6F205FB03231C1B41F28832E1
:1083D0009442C1F800310AD9C0B2012381F80801E2
:1083E00081F80431002381F81831F0BC704791F80E
:1083F00004210F2AF9D88C180132D2B2C0B2102A47
:1084000084F8080181F80421ECD10122C1F8C830B8
:1084100081F81821F0BC704710E000E08CD40020F7
:1084200090D4002094D40020A8190020836933F848
:10843000110000EB8000C01000F55C7080B2704746
:10844000014BD3F81C017047A8190020C36993F8A9
:108450002120002A00F0B280F0B55B4A93F802E0D8
:108460001278DC7D5F78DD7893F806C0DE79192A12
:1084700004BF564A148082690EF0070047EA0027BD
:10848000002183F82110187A1979178005F03F052B
:108490009F7893F805E06D0145EAD7059F7A5580EE
:1084A000DD78890041EA95110EF0010E41EA8E2136
:1084B0009D7B91800CF00F0C59794FEACC1C4CEA53
:1084C0005101D18006F07F06997993F807C03601F3
:1084D00046EA1116597A1681400040EADC1001F094
:1084E000030140EA41205E7BD97A508107F01F07E3
:1084F000587ABF0147EA900090819F7A187B93F8E1
:108500000EC006F0070640EA062005F03F055E7B38
:108510001082C90041EA57116D01D18145EAD601A7
:108520005182D97B587C9F7CDE7C5D7D890041EA4D
:108530009C1193F810C00CF0010C41EA8C2100F062
:108540000F009182197C93F812C0C00140EA5101DA
:10855000760046EADC1C07F07F071E7DD182597C3D
:10856000987D3F0147EA111105F01F051183197D20
:10857000AD0145EA91015D7D918314F0010F40F258
:1085800014714FEAC00040EA551014BF0D46AD25E6
:1085900014F0020F08BFAD2106F003064CEA462690
:1085A000518421075683D083158409D4620709D4E6
:1085B000074ADB69C2F81C310120F0BD1046704744
:1085C0000320F0BD0920F0BD7DC9002080C9002036
:1085D000A8190020F0B4EFF31184102383F312885C
:1085E000264D274AAF682B68DB0344BF0123136085
:1085F000244B48BFAF68D3F800C01368E4B284F3DB
:108600001188214ACC6916684FF47A75634405FBDA
:1086100006F2D21BB2FBF6F205FB03231A1B40F64F
:10862000AC54A24206DD002281F820200F281BD086
:10863000F0BC704791F82040002CF7D0182CF7D8E8
:10864000631CDBB2192B81F82030085511D10F4B78
:108650001B78192B08BF0E4B4FF0010081F8210049
:1086600008BF9A80F0BC70470122CB61087081F886
:108670002020002381F82130F0BC704710E000E09A
:108680008CD4002090D4002094D400207DC90020F8
:1086900080C90020014BD3F820017047A8190020A1
:1086A000094BDFED0A6ADFED0A7A03EB810191EDF8
:1086B000497AB8EE477AE7EE267AFCEEE77A17EECB
:1086C000903A98B2704700BFA819002001F11F3FEF
:1086D00000405C442DE9F843944A1378013B04467A
:1086E0000D46042B00F2B180DFE803F05B43030387
:1086F0000300D3688D489847C60740F191808C4AA3
:108700008C4B8D4992F800C00978C0F3400210F0FC
:108710000A0F1A7200F09B80012900F0AE80002140
:10872000864B8E460A4693F88861B3F88A7103EB4C
:1087300046080136B8F88C91A8F88C21A7EB0907F8
:108740003A4492B27E4FA3F88A2106F00F0612092E
:10875000BCF1050F83F888613A8000F097804007EC
:1087600044BF012283F8B42151B1764A012111702E
:1087700012E0724B93F8642193F86511914256D13F
:10878000D3F86821A24202D86E4A00211170D3F8B2
:10879000B801201A00283BDD012083F8BC01BDE8A8
:1087A000F883664BB3F870210ABBB3F87221F2B9B3
:1087B000B3F87421DAB9B3F87621C2B9B3F87821E5
:1087C000AAB9B3F87A2192B9B3F87C217AB9B3F88F
:1087D0007E2162B9B3F880214AB9B3F8822132B957
:1087E000B3F884211AB9B3F88621002AC8D05148B9
:1087F000D3F86C21534900250572D3F8B8012244FF
:10880000201AC3F8682100284FF001020A70C3DC67
:1088100093F8BC010028C2D193F8B401BDE8F883F5
:10882000410712D5454B012283F8B421A8E7D3F8BC
:108830006C01404D434983F8652120440122002406
:10884000C3F868012C720A70A6E73C4B98E73B4BD3
:10885000D3F86C2101292244C3F8682104D00121F6
:108860008E4640F2FF325EE7BCF1050F56D042075C
:108870007FF57BAF83F8B41177E7BCF1050F44D0E7
:108880004307E2D52D4B83F8B41179E7D3F8AC2137
:10889000BEF1000F1544C3F8AC5140F2FF3208BFDF
:1088A0000022B3F8B0C1B3F8B261274F6244013679
:1088B00092B2B6B2BD42A3F8B021A3F8B2617FF77D
:1088C0004EAFB2FBF6F207EE902A204A204F92ED0F
:1088D000007AD2ED016AF8EE677AA5F5C33577EE36
:1088E000C77AA03DA6EEA77AC3F8AC510026A3F83C
:1088F000B061F0EE477ABCEEC77AC2ED007A17EEAF
:10890000105AA3F8B2613D8029E70C4BD3F8AC2193
:1089100000211544C3F8AC510A46C2E7D3F8AC2194
:108920001544C3F8AC5140F2FF32BAE704EE002020
:10893000E2720020880100208EB10020A8190020DA
:108940008CB10020D2AE00209F860100048100205F
:1089500008730020002070470020704701207047F6
:10896000024B03EB4101B1F8C0017047A819002088
:10897000044B93F8E40118B1002283F8E4210120AC
:10898000704700BFA8190020024B03EB8101B1F82A
:10899000E8017047A8190020014BD3F83002704756
:1089A000A819002083788B4283BF034B03EB41015E
:1089B000B1F8340200207047A8190020014BD3F809
:1089C00054027047A819002038B5044618F01CFF5F
:1089D000364BD3F88C22821AB2F57A7F20DC93F8DA
:1089E0009012C3F88C0239B34A1CD2B2D3F8945215
:1089F00083F89022062A6C542CD193F89222012AF3
:108A000045D093F89322012A45D00022282183F8EB
:108A1000902283F8922283F8932283F8911238BD32
:108A200000222821C3F88C0283F8902283F8922236
:108A300083F8932283F891123D2C21D03E2CEED165
:108A40001B49C3F89412012283F8922201220C7070
:108A500083F8902293F891129142E0D193F89222F8
:108A6000012A04BF022283F8922293F89322012A5A
:108A700015D00021282283F8901283F8912238BD66
:108A80000C49C3F89412012283F89322DEE7AA78F6
:108A9000282AB6D8F1E7AA78092AB6D8EDE7022243
:108AA000C3F8980283F89322E3E700BFA8190020D7
:108AB0000C1C0020001C002030B4024600230525B9
:108AC0001E2400E00232032BD4BF0021012100F854
:108AD00013100133042B04D0122B5470F2D130BC8C
:108AE00070475570EEE700BF024B03604360836040
:108AF000C3607047E803D007024B03EB4101B1F8B4
:108B000070017047A8190020024B03EB4101B1F836
:108B100070017047A819002030B4264C94F89232A6
:108B2000022B02D0002030BC704794F86652F5B199
:108B3000013D04F2652353FA85F504F5197000220E
:108B400010F8013B534083EA0313DBB2120AD90049
:108B500042EA0322854281EA131382EA0302EFD13B
:108B60002AB10020002384F8923230BC7047B4F858
:108B700064325BBA9BB243F60162934209D043F67A
:108B80000362934205D0D4F89832C4F854320120DD
:108B9000E8E7094AA2F1320102F12005D079937980
:108BA000023203EB0023C3F3CC03AA4221F8023FB5
:108BB000F4D1E8E7A81900200C1C0020F0B4EFF372
:108BC0001183102282F312883E4C3F49A768226825
:108BD000D20344BF01220A603C4A48BFA768146818
:108BE0000A68DBB283F3118839493A4B0E684FF4B7
:108BF0007A75224405FB06F1D3F89C42C91BB1FBF0
:108C0000F6F105FB0212111BB1F5FA7F14DD00210C
:108C1000C3F89C2283F8A01283F8A112C4B2042CDA
:108C200026D0202C24D093F8A41209B955283AD084
:108C3000814216D1002109E093F8A11299B993F865
:108C4000A012C3F89C22C4B20029E8D093F8A20273
:108C50005D180138814285F8AC421DD0013183F89E
:108C6000A012F0BC7047013983F8A112F0BC704724
:108C7000002102254FF6FF7083F8A852A3F8A60240
:108C80005D18601E814283F8A44283F8A24283F8F3
:108C9000A31285F8AC42E1D10121C3F8CC2283F8BC
:108CA000D012F0BC704701221F2583F8A402A3F85C
:108CB000A61283F8AC4283F8A32283F8A82283F893
:108CC000A252CBE710E000E08CD4002090D400202A
:108CD00094D40020A81900200D49B1F8D13230B544
:108CE00008224AF2010580EA030414F0010F4FEA5A
:108CF000530318BF6B4002F1FF3218BF9BB212F052
:108D0000FF024FEA5000EED1A1F8D13230BD00BFD2
:108D1000A819002030B4034600F16005064C07CCCA
:108D20000C3343F80C0C43F8081C43F8042CAB42FA
:108D3000F4D130BC704700BFACF1050810B44FF45B
:108D4000FA7346F203444FF4C841962204808180AE
:108D500002814380C3805DF8044B704770B50A4CB4
:108D60008A25064621462A4653F0EAFD2A46214630
:108D7000701953F0E5FD2A46214606F58A70BDE8D4
:108D8000704053F0DDBD00BFB8F10508F8B51D4CCB
:108D9000D4F824330BB90120F8BD18F0E3FCD4F863
:108DA000BC30D4F8C0209B1A002BF4DDD4F8C030BE
:108DB000C01AAD28EFDD144BD4F824231D682B68AE
:108DC0005E6A012184F8B4103EB1284604F535717D
:108DD000B0470023C4F82433DDE7002AF9DD04F5A9
:108DE0003577BE1800E02B689B6828469847002816
:108DF000F9D02B6817F8011B1B6828469847B74223
:108E0000F1D1E6E7A8190020209700202DE9F843CA
:108E100018F0A8FCCC4C054694F8180180B904223F
:108E2000CA4B1B7853B1D4F838333BB1ED1AB5F5C2
:108E30007A7F03DB00231046C4F83833BDE8F8839B
:108E400094F82803002384F81831002800F03281B8
:108E500094F8086194F8291376B216F1630F80F242
:108E6000198194F82A330133DBB2042B84F82A33B6
:108E700000F24C81B64F97F90960B9B316F15C0F57
:108E800080F27D816FF05B036FF05B0E4FF00C089A
:108E9000B04A08F1FF3902EB490902EB480C99F896
:108EA00099809CF899C099F99890D4F82C23ACEB50
:108EB000080CA3EB090303FB0CF3AEEB090E93FBC9
:108EC000FEF343445BB2642BA8BF642323EAE3733D
:108ED000DFF88CC202FB03F38CFB03C2DB17C3EB8E
:108EE000621304EB81029BB2C2F8CC307E7294F81C
:108EF000147194F8153194F8162194F817611B0435
:108F000043EA0763334343EA022303F0F022B2F15A
:108F1000E02F00F0C680102794F83C2394F80A3123
:108F2000D4F8406394F844C3B678134103F00F03B8
:108F30009E4210D90B2B0ED8002940F0FC8094F8EB
:108F40000A8194F80BE104EB83030CEA08080EEBAA
:108F5000082EC3F8CCE094F80C31134103F00F0352
:108F60009E4210D90B2B0ED8002940F0E88094F8CF
:108F70000C8194F80DE104EB83030CEA08080EEB76
:108F8000082EC3F8CCE094F80E31134103F00F0320
:108F90009E4210D90B2B0ED8002940F0E38094F8A4
:108FA0000E8194F80FE104EB83030CEA08080EEB42
:108FB000082EC3F8CCE094F81031134103F00F03EE
:108FC0009E4210D90B2B0ED8002940F0D18094F886
:108FD000108194F811E104EB83030CEA08080EEB0E
:108FE000082EC3F8CCE094F81231134103F00F03BC
:108FF0009E4210D90B2B0ED809B18B420BD094F89E
:10900000128194F813E104EB83030CEA08080EEBD9
:10901000082EC3F8CCE00D2F32DD94F81431134143
:1090200003F00F039E4210D90B2B0ED809B18B42CF
:109030000BD094F8148194F815E104EB83030CEA47
:1090400008080EEB082EC3F8CCE0102F18D194F8C6
:10905000163143FA02F202F00F02964210D90B2A9F
:109060000ED809B18A420BD094F8161194F8173132
:1090700004EB820201EA0C0C03EB0C23C2F8CC30A7
:1090800060B194F80A311B0608D4C4F8385305229D
:109090000120C5E62E4F84F82A33EEE60522012092
:1090A000BEE694F80A2112063FF535AF2A4A0C278E
:1090B000136031E718F056FB254E284BB27AA3FB1C
:1090C00000135B0C42B394F8082194F80911C9B25B
:1090D000122918BF012908D001F0EF01A1F1A20166
:1090E000B1FA81F1490901B9B172D4F8300394F8A9
:1090F0002913C8B183423FD0181A01286AD094F8C6
:109100002803A4F83423C4F83033F0E66FF05B068C
:1091100061B333460E4FB7E694F8081194F809216D
:1091200002EB012292B2E0E7A4F83423C4F8303312
:1091300094F82803DBE68B427FF401AF0BE78B4208
:109140007FF415AF1FE700BFA8190020CD940020C1
:1091500088010020ACF10508DC0E002083DE1B43F3
:109160001F85EB518B427FF41AAF24E73C4FBDE6DD
:109170008B427FF42CAF36E794F82803B7E66FF004
:109180002903B342A8BF334616F1310F3DDA16F179
:10919000380F44DA13F13D0F32DA13F1420F39DAA6
:1091A00013F1450F40DA13F1470F42DA13F1490F7B
:1091B00044DA13F14A0F46D013F14B0F48D013F1A4
:1091C0004C0F49D013F14D0F7FF45EAE9E464FF029
:1091D0000B085DE6002992D0B4F83463D4F82C0370
:1091E000204F961B143E00FB06F087FB0076C0174D
:1091F000A0EBE60004EB810680B2C6F8CC007EE767
:109200006FF03C0E4FF0030842E66FF0300E4FF067
:1092100001083DE66FF0410E4FF0040838E66FF0AC
:10922000370E4FF0020833E66FF0440E4FF005089A
:109230002EE66FF0460E4FF0060829E66FF0480E56
:109240004FF0070824E66FF0490E4FF008081FE6BC
:109250009E464FF009081BE69E464FF00A0817E6A7
:109260008801002067666666F8B518F07BFA544BF3
:109270005449D3F84823801A884209DD524A1278AB
:10928000062A00F08C80514A1278012A00F083806F
:1092900093F84C0300287DD093F8580393F8576354
:1092A00093F85C1393F8602393F8644393F8545352
:1092B000B3F854C3D3F8547300F00F00C00140EA70
:1092C000560001F01F0193F85B63C3F83001890178
:1092D00041EA960193F8630393F85F63C3F83C1186
:1092E00002F03F0293F8531304F07F04240105F0C9
:1092F0000705520142EAD60244EA101041EA05216C
:10930000D3F85853C3F84821B3F85863C3F854014D
:10931000B3F85C43C3F82411B3F85E03D3F86013C9
:10932000B3F86223C5F3CA356409C0F30A00C1F378
:109330008A11C2F34A02C3F83851CCF3CA0CC7F3FE
:109340008A37C6F30A160025C3F84041C3F84C110A
:10935000C3F85021C3F828C1C3F82C71C3F8346195
:10936000C3F8440183F84C53D3F8640393F868239B
:1093700093F86743B3F86613D200C0F3CA1042EA09
:109380005412C1F38A01C3F85801C3F86021C3F82D
:109390005C110120F8BD0E4A0021118078E70D4ACA
:1093A0000D4992F830200020088022B10B4A4FF678
:1093B000E271118067E7094A4FF67E71118062E71A
:1093C000A819002090D00300E27200208EB1002086
:1093D0008CB10020A8ED002008730020EE160020BC
:1093E0002DE9F041B74FB84C7E68002384B084F873
:1093F000C430002E00F0A2803568002D40F095802A
:1094000018F0B0F994F89433013B0646032B1BD8AF
:10941000DFE803F05143296DD4F89833C31A002BC9
:1094200012DB94F8952300F5433303F5A073002A6B
:1094300040F00A8100F5434650360222C4F8986392
:10944000C4F89C3384F89423D4F824330BB145F04A
:10945000040515F00A0F04BFD4F8BC30A3602846F9
:1094600004B0BDE8F081D4F89833C31A002BEBDBCD
:10947000964B186803684FF4E1311B6906F54346C3
:10948000984750360122002345F00205C4F898633E
:1094900084F89423C4F8C030D6E7D4F89833C31ABC
:1094A000002BD4F89C33A0EB0303A8BF45F00405C0
:1094B000002BC9DBDCE7D4F89033002B40D1D4F883
:1094C000BC30D4F8C0209B1A002BA5DD94F896334D
:1094D000002BB9D07D4B186882680368B2F5E13F74
:1094E0001B690CBF7A494FF4E1319847ACE7D4F8D7
:1094F00090334CF24F32C31A9342A5DD734B186878
:1095000003684FF4E1311B6906F54346984750362E
:109510000023012245F00205C4F8986384F89423DF
:10952000C4F8C030C4F890338EE73279A62A0BD045
:10953000082584F8C4500023336061E735465FE7AF
:10954000042384F894337FE73268B1798A42EFD1FB
:10955000311D0A44914280463DD0013AF11C41F24E
:10956000210011F8015F83EA05231DB2ABB2002D83
:10957000ACBF5B0080EA43039BB21D0454BF5B0099
:1095800080EA43039BB21D0454BF5B0080EA43039F
:109590009BB21D0454BF5B0080EA43039BB21D04D1
:1095A00054BF5B0080EA43039BB21D0454BF5B00C1
:1095B00080EA43039BB21D0454BF5B0080EA43036F
:1095C0009BB21D0454BF5B0080EA43038A429BB2F6
:1095D000C7D1002BACD118F0C5F87E68C4F8900351
:1095E0007379212B36D0CD2BA2D194F89533327AD2
:1095F00043F030039A4204BF012384F89733F37990
:10960000012B00F0918073D3022B58D1337B727AF7
:10961000B07AF17A94F8C45003F00703520502F4CB
:10962000600243F0E02313430004F27B00F4702057
:10963000090101F010010343D2000B4302F00802BC
:10964000244913430B6076E70322C4F8983384F867
:109650009423F9E6337AFF2B40D094F8952342F017
:10966000300293422BD100203246CDF80600CDF8CF
:109670000A0032F8041F96F807C092788DF803307C
:109680006D460A23AA70ADF800100C22294694F802
:1096900096738DF805308DF804C08DF806702DF0A6
:1096A0008DF9C0F307238DF80D008DF80C3095E887
:1096B0000F00094D07C50E222B80C4F8242394F80F
:1096C000C45038E788010020A81900202097002006
:1096D000801A0600DC0E00207C1C0020B37AF27990
:1096E000FA72012B51D004237E6884F89433E6E7A4
:1096F00096F909200123002A84F8C43027DAF36898
:109700000BB3D8F8185006F11001012093FAA3F218
:10971000B2FA82F231F8027B25F8127000FA02F2F6
:109720009343F3D1012506E71B4B94F8C4501B78F3
:1097300045F00205032B84F8C4507FF4FCAE174BB0
:1097400000221A80F7E6092584F8C450F3E6124B8C
:109750001B78032BD3D1124FDFF854C03878114D4A
:109760003CF810306421C2EB822292FBF1F2D31A52
:109770002CF810202A68411C1344084A2B6001F081
:109780000F011B0939701380B9E7074B07491868A7
:1097900015F006FCA7E700BFE27200200873002066
:1097A000E37200200473002020970020801A060036
:1097B000E47200202DE9F04F89B0EFF311811023FE
:1097C00083F31288A04CA14DD4F808C0236813F489
:1097D000803F9F4B1EBF01221A60D4F808C0D5F805
:1097E00000E01A68C9B281F311889A4B9A4C1F683D
:1097F000D4F8A0134FF47A76724406FB07F3A3EB78
:109800000C03B3FBF7F306FB0232511A40F24C4350
:1098100099420DDC94F8A43353B1022B8ABF94F81B
:10982000A963052602369E420CDC09B0BDE8F08F24
:109830000123C4F8A02384F8A80384F8A43309B052
:10984000BDE8F08F591CC9B223448E4284F8A4139A
:1098500083F8A803E9DC94F8AA7394F8A9C3002359
:10986000390684F8A4334FEA470348BF83F0D50391
:10987000DBB213F0800F4FEA430318BF83F0D50328
:10988000DBB213F0800F4FEA430318BF83F0D50318
:10989000DBB213F0800F4FEA430318BF83F0D50308
:1098A000DBB213F0800F4FEA430318BF83F0D503F8
:1098B000DBB213F0800F4FEA430318BF83F0D503E8
:1098C000DBB213F0800F4FEA430318BF83F0D503D8
:1098D000DBB213F0800F4FEA430318BF83F0D503C8
:1098E000BCF1020FDBB248D95C48811C604411F81E
:1098F00001EF83EA0E0313F0800F4FEA430318BF12
:1099000083F0D503DBB213F0800F4FEA430318BF97
:1099100083F0D503DBB213F0800F4FEA430318BF87
:1099200083F0D503DBB213F0800F4FEA430318BF77
:1099300083F0D503DBB213F0800F4FEA430318BF67
:1099400083F0D503DBB213F0800F4FEA430318BF57
:1099500083F0D503DBB213F0800F4FEA430318BF47
:1099600083F0D503DBB213F0800F4FEA430318BF37
:1099700083F0D5038842DBB2B9D1264496F8A71309
:1099800099427FF452AF282F5AD01CD8142F75D08B
:10999000162F7FF44AAF94F8A833C82B7FF445AF55
:1099A0002F4DC4F8202105F158060FCE0FC50FCE5C
:1099B0000FC50FCE0FC596E80F00012684F84C6343
:1099C00085E80F0031E77C2F04D07D2F18D07A2F47
:1099D0007FF42BAF234A136E572B3FF726AF224954
:1099E00022480D684C680821995413440121C3F89A
:1099F0000150C3F80540136E01700933136614E774
:109A000094F8AD33042B00F0D080052B00F0BA8021
:109A1000032B7FF40AAF94F8AF3394F8AE231448C5
:109A20001449202BA8BF2023092AA8BF092280F8A7
:109A3000292180F82A310A724B724BF02DF9F4E695
:109A40000D4B01221A70F0E610E000E090D40020E7
:109A50008CD4002094D40020A8190020501D002090
:109A6000F81C0020B4960020551D0020AA96002066
:109A7000ECAE002004C30020A9960020604B1B78A8
:109A8000062B7FF4D2AE94F8A833C82B7FF4CDAE6A
:109A9000BCF10C0F7FF4C9AEC4F8482394F8B1238D
:109AA000029294F8B22394F8AF33039294F8B3235C
:109AB000049294F9B423019394F8ABB394F8ACE313
:109AC00094F8AD5394F9AEC394F8B0630592002BAB
:109AD0007BD0CEF100031BB2DFF85881DFF858A12C
:109AE00098F80010DFF854913AF8112003F1820041
:109AF0008227C0EB802090FBF7F087B2BA1A2AF8D1
:109B00001100404FD9F8000097F83070024401313D
:109B10003D48C9F8002001F00F01120988F8001033
:109B200002800FB10FFA8CF394F8E813374804EB76
:109B300041070078B7F9EC23A7F8EC339A1AD4F868
:109B40000C34334F13440131324AC4F80C3401F061
:109B50000F01012884F8E8134FF01001147893FBEB
:109B6000F1F33B803DD0352C41D0362C31D0342C14
:109B70007FF45BAE284BA3F800B0A3F802E09D8011
:109B8000DE8052E6254B1B78E3B1254C012194F889
:109B9000292104F5907055F0B5FA2B68214A2D3330
:109BA000012184F82B1113603FE61C4B1B78002B1E
:109BB0003FF43BAE08A9002301F8013D1A4838F0F4
:109BC000F9FD32E64BF068F82FE6CBF100031BB24B
:109BD00082E7114B039A1A80049A5A80059A9A8058
:109BE00023E6124A124B1580352C1E70BDD10A4B4C
:109BF000019A1A80029AA3F802C09A8015E600BF63
:109C0000E2720020A8ED0020087300208EB1002031
:109C1000EE1600207DC9002080C90020839400201A
:109C2000ECAE002090B2002004C300208CB10020D4
:109C30008FB10020E3720020E47200200473002042
:109C40002DE9F04F1D4C94F8D0328BB023B900238E
:109C500018460BB0BDE8F08F94F8A33294F8A21226
:109C60000022012B84F8D0222CD094F8AC52023D73
:109C700015F0FF0500F0358204F52B7005444FF612
:109C8000FF7310F8012B9B1AA8429BB2F9D11A0A54
:109C9000214491F8AB029042D9D191F8AA22DBB2CB
:109CA0009A42D4D194F8A432202B00F0F6810448D3
:109CB0003DF092FA002384F8A102C9E7A819002018
:109CC000541C002094F8A832B4F8A6E20093E618D9
:109CD00003F1020A54FA8AF596F8AC2295F8AC0220
:109CE00096F8AD7295F8ADC2724403F1040B1044BE
:109CF00054FA8BF59E1D00EB0720009F95F8AC22CF
:109D000001963346083795F8AD62029754FA83F509
:109D10003B46024495F8AD7295F8AC0254FA83F5CF
:109D200002EB0C22009B95F8ADC2024495F8AC0200
:109D30000A3302EB0622009E039354FA83F5104483
:109D400006F10C0300EB0720009F95F8AC2204936A
:109D500054FA83F607F10E03059396F8AC7295F862
:109D6000AD52024496F8AD0254FA83F6009B96F881
:109D7000AD82103302EB0C2206933A4496F8AC7293
:109D800054FA83F6009B96F8ACC202EB05221D46FE
:109D900012353A4496F8AD7254FA85F602EB002279
:109DA000184696F8ACE296F8AD6262441430163369
:109DB00054FA80FC02EB08227244079354FA83FEA3
:109DC000009B9CF8AC829EF8AC929CF8ADC202EB72
:109DD00007221F46424418379EF8AD8202EB062246
:109DE00054FA87FE4A4403F11A069EF8AC929EF894
:109DF000ADE202EB0C2254FA86FC21444A449CF862
:109E0000AC929CF8ADC202EB0822914491F8AB22CF
:109E100091F8AA1209EB0E2909EB0C2901EB022299
:109E20001FFA89F992B24A457FF411AF019B54FAA7
:109E300083F2029B54FA83F9039B54FA80F054FA9C
:109E400083FE049B0890009854FA8BF154FA83FC2B
:109E500054FA8AFA059B9AF8ACB254FA85F52018A0
:109E600054FA83F80290069B91F8AD0206959AF891
:109E7000AD5291F8ACA292F8AD1292F8AC220392D6
:109E800099F8AD2299F8AC9212022D02049205F4D1
:109E90007065079A54FA86F65D44000254FA83F31B
:109EA00054FA82F254FA87F70996C4F8EC519EF8F6
:109EB000AD629CF8AD52019200F47060049A07976D
:109EC00050449EF8AC729CF8ACB2C4F8F001049710
:109ED0004FEA062E98F8AD7298F8ACA293F8AD62EE
:109EE00093F8AC82069BCDF814804FEA052C09024A
:109EF000039D02F4706201F4706102EB09002944D1
:109F000093F8AC2293F8AD52029BC4F8F41193F885
:109F1000AC9293F8AD12089BC4F8F80193F8AC82A8
:109F200008023F0293F8AD12049B07F470670EF429
:109F3000706E9E4407EB0A030293009F059BC4F8D2
:109F4000FCE1360206F470662D021E440CF4706CBF
:109F50003B4605F47065DC44154407F1010B07F13D
:109F6000070A3A460902133354FA83F354FA8BFB77
:109F700054FA8AFA00F4706001F470610D3254FAF8
:109F800082F2029FC4F800C248444144C4F80472FB
:109F9000C4F80C52C4F8E801C4F810129BF8AE9251
:109FA0009BF8B0729AF8AE82C4F808629AF8B06270
:109FB00093F8B002059092F8AEE292F8AC0292F8F3
:109FC000B05293F8AEC293F8AC22019B039007986D
:109FD00093F8AC320492009390F8AD2290F8AC3232
:109FE00009980199019390F8AD3290F8AC02029073
:109FF000059891F8AD129BF8ACB29AF8ACA20001AA
:10A00000059003982EF00F0E4EEA101E04982CF0C7
:10A010000F0C4CEA101C05982D0100F4706005F43B
:10A0200070654EEA050509024CEA000E009801F43D
:10A03000706101441202019802F4706202441B0232
:10A040000298C4F8285203F470630344C4F81C3225
:10A0500029F00F09D4F8CC32C4F830323F0128F08F
:10A060000F08360149EA1B1948EA1A18012307F4B8
:10A07000706706F4706649EA070748EA060618465C
:10A08000C4F82072C4F82462C4F82CE2C4F8141294
:10A09000C4F818220BB0BDE8F08F94F8A822009203
:10A0A000931D019313460833029313460A33039317
:10A0B00013460C33049313460E33059313461033A3
:10A0C00006931346163302F1020A02F1040B02F161
:10A0D000120502F11400079302F1180702F11A06A3
:10A0E000A4E6FF224FF6FF73D2E5F8B517F03AFB6E
:10A0F000264E054600F1FA07344696F8303406EB52
:10A100008303D3F8100418F00FFC38BB94F83034F4
:10A1100004EB8303D3F8100418F006FC28B317F0FF
:10A1200021FBD4F83834401B9842C4F834042BD8AF
:10A1300005F5FA7594F8303404EB8303D3F8100472
:10A1400018F0F2FBB0B994F8303404EB8303D3F881
:10A15000100418F0E9FB90B1002005E017F002FBB5
:10A16000B842CAD94FF0FF30F8BD17F0FBFAB84239
:10A17000CCD9F7E717F0F6FAA842DBD9F2E717F0E7
:10A18000F1FAA842DFD9EDE70120EDE7A819002098
:10A1900038B5002405460470FFF7A7FF431C11D013
:10A1A000012803D12B78A040184328700134082CD3
:10A1B000F2D1054A2B7892F83C144B4082F83C349B
:10A1C000012038BD0020FCE7A81900202DE9F84344
:10A1D000204C214D266807460236A84695F83034B3
:10A1E00005EB8303D3F8100418F09EFB10BB17F0A7
:10A1F000B9FA00F1270617F0B5FA8642FBD8002518
:10A200002C464FF0010998F8303408EB8303D3F85B
:10A21000100418F089FB18B109FA05F31C43A4B225
:10A22000092D06F134060BD017F09CFA8642FBD8B4
:10A230000135E8E723689E42D0D80020BDE8F883C6
:10A2400040F201232340B3F5007FF6D164083C704F
:10A250000120F3E790D40020A819002037B502AD03
:10A26000FF2305F8013D04462846FFF7AFFF00B97C
:10A270001CB99DF8070003B030BD013CF4E773B58D
:10A28000204C002284F8D12284F8D22284F83D2484
:10A2900084F83E240144FF228DF807200546CEB203
:10A2A0002846FFF793FFF8B115F8010BFEF714FDF0
:10A2B000EBB2B342F4D194F83F34EBB11248FFF75C
:10A2C00085FF88B11148FFF781FF68B10DF10700E4
:10A2D000FFF77CFF40B1B4F8D122B4F83D349A4284
:10A2E00002D0C2238DF807309DF80700A0F130039B
:10A2F0005842584102B070BD0DF10700FFF766FFEC
:10A30000F2E700BFA8190020E51D0020E61D00208F
:10A3100038B50D4C05460146D4F8440417F042FD0B
:10A32000B4F84804082380EA052041F2210210F421
:10A33000004F4FEA400018BF5040013B80B2F6D1B9
:10A34000A4F8480438BD00BFA819002010B5064C79
:10A35000D4F8440417F022FD0028F9D0D4F84404BE
:10A36000BDE8104017F012BDA819002010B5FFF786
:10A37000EDFF0A4AB2F84A3483EA00239BB208216F
:10A3800041F2210413F4004F4FEA430318BF634026
:10A3900001399BB2F6D1A2F84A3410BDA8190020A9
:10A3A00038B540F2DC51322240F2014300240180F2
:10A3B0004280C3818481051DE1B2082016F09EFE13
:10A3C0000134082C05F8010BF6D138BD38B5056805
:10A3D0002F4B4560EA1A9D42036002F1020253D0FE
:10A3E000184641F22104002310F8011B83EA0123DF
:10A3F00019B28BB20029ACBF5B0084EA43039BB265
:10A40000190454BF5B0084EA43039BB2190454BF90
:10A410005B0084EA43039BB2190454BF5B0084EAE7
:10A4200043039BB2190454BF5B0084EA43039BB20D
:10A43000190454BF5B0084EA43039BB2190454BF60
:10A440005B0084EA43039BB2190454BF5B0084EAB7
:10A45000430385429BB2C7D1190ADBB20D4CA01849
:10A46000502A80F84A1480F84B34A8BF502204F2D6
:10A470004C4104F53570154652F062FA0023C4F8D9
:10A48000245384F8973338BD00231946E6E700BF0C
:10A49000F41D0020A81900200E4B0F4930B4A6224D
:10A4A00003F24D44046083F84C240268C97A551CB9
:10A4B00003F26243C0E9005380241470036816223B
:10A4C0005C1C04601A7003685A1C0260197030BC6E
:10A4D000704700BFA819002088010020F0B51D4B6F
:10A4E0001C78032C87B0064630D15B780D2B2DD11C
:10A4F00070B30F2200210DF1060054F003FE164B3D
:10A500000093164B8DF80640DB7A8DF80430132249
:10A51000B223694600208DF805302CF04FFAC0F3C5
:10A5200007238DF813308DF814006C460FCC0C4FB8
:10A5300007F535750FC594E8030045F8040B15239E
:10A540002970C7F82433304607B0F0BD0026FAE77B
:10A550000126F8E704EE0020A64115EB8801002053
:10A56000A8190020074B084A1B781088012B08D037
:10A570006422064B02FB00F283FB02301044C0F35E
:10A580004F2070478EB100208CB10020030820803E
:10A59000184A194B517C1B8819B1C3F57F730333DB
:10A5A0009BB292F92410127C9FED147A9FED146AED
:10A5B00006EE902A07EE901AF8EEE66AF8EEE77AD1
:10A5C00066EE876A07EE103A67EE867AB8EEC77ACB
:10A5D0000C4AE7EE267A6423FCEEE77A17EE901A2F
:10A5E00088B203FB00F382FB03201844C0F347202A
:10A5F000704700BFA8ED0020087300200AD7233C55
:10A600000AD7234103082080134A144B517C1B882E
:10A6100019B1C3F57F7303339BB292F92410127CF6
:10A620009FED0F7A9FED0F6A06EE902A07EE901AC3
:10A63000F8EEE66AF8EEE77A66EE876A07EE103A19
:10A6400067EE867AB8EEC77AE7EE267AFCEEE77A0E
:10A6500017EE903A98B27047A8ED002008730020DA
:10A660000AD7233C0AD723412DE9F84388460178CD
:10A67000A9B10C4E04468146354606F10807284626
:10A6800054F057FD38B1B842A0EB06003CBFA9EB2F
:10A69000040308F8003019F8011F0029EFD1BDE8C4
:10A6A000F88300BF487706082DE9F04F974F984C84
:10A6B000D7F800A01AF4005F85B000F0BC804FF01E
:10A6C000010984F80090934D934B944EB5F8128095
:10A6D000934AA360934B944995F808B0E3604FF018
:10A6E000000C924BDFF888E286F862C4C6F86C1161
:10A6F00084F801B00FFA88F006F58C6102F1240CA1
:10A700002361DEF8003022F8020F03F596739445BA
:10A7100041F8043FF5D11AF4805FDFF858C2844B4A
:10A7200008BFB5F91E00ACF8060003F1780E07E08B
:10A730008AB2597804312CF8112006339E4517D07F
:10A740001A78002AF9D19878DA789042F5D2411E29
:10A7500001EB810101EB810101F5617101320028FA
:10A76000E6D102EB820202EB820202F56172E0E7BF
:10A7700009F1FF33032B10D8DFE803F0020246395A
:10A7800044F62063B9F1020FA3801ABF0822694B77
:10A79000694BA36008BF0C22A2703B681B0446D41F
:10A7A000EB7B13B1654B02221A7095F82C309FEDAC
:10A7B000647ADFED646A95F82220A478624907EE96
:10A7C000903AF8EEE77AB0EE476AA7EEA66A131D54
:10A7D000A3424FF00000C7EE067AA8BF234686F8D2
:10A7E000D8350860C1ED017A05B0BDE8F08F1223BD
:10A7F00044F62062A370554BA280A360544A554B87
:10A80000E260C6F86C31C8E7BBF10D0F6FD8DFE826
:10A810001BF0B500B500200183012A0299029902BC
:10A82000B701F701DC02B5006E0019031A00434BB3
:10A8300001221A70B9E71AF0010F5DD04FF002093A
:10A8400084F800903FE700234FF080224EF8232049
:10A850000133102BFAD195F82D2095F82E3086F87B
:10A86000952386F8963342F6F8223B4BA2802021AE
:10A870003A4AA3603A4BA17040203A49C4F818E024
:10A88000E160C4E904321DF057F980B36B7A90F9A6
:10A890000400354ADFF8E090002B14BF092108219D
:10A8A0004FF4E1334FF0030ACDE901A100934021B9
:10A8B00000231DF09EF9C9F80000C0B12B4B436383
:10A8C000012386F8943316F04DFF1C4B00F54340EE
:10A8D0001A785030C6F898030AB983F800A0D9F85E
:10A8E0000000003018BF012000287FF456AF0A4B4B
:10A8F000A3600C4BE36050E71AF0080F00F0F482FD
:10A900004FF0030984F80090DDE600BF24EE00203C
:10A9100004EE0020A8ED002055890008A8190020A9
:10A92000C2EF002059890008A08601005D89000857
:10A93000541E0020098B0008F98A0008E2720020EA
:10A94000CDCCCC3D3661823C048100206189000879
:10A9500071890008400D0300858100087981000895
:10A960008D8D0008E1930008558200089D81000844
:10A9700090D40020C4EF0020209700204020C6F88B
:10A9800040431DF0D9F881460028B0D094F801A0CA
:10A990004FF0000B514686F828B33DF0D9FEBAF1CE
:10A9A000010F03460FD0C0F00783BAF10A0F1CD184
:10A9B0003A6812F480621CBF80F00102D2B202F049
:10A9C000010286F828230321072286F83C1386F823
:10A9D000442301214FF4006286F8FC10C6F82C23B2
:10A9E0000C2142F6F822A170A280697AB348B44AD9
:10A9F000A060E260B348B44A22610031606118BFD0
:10AA000001214AB299F9040096F828C3002B40F0BE
:10AA1000A982BCF1000F00F0EB82032342F0080290
:10AA20004FF4E131CDE9013200910023A74A4021E2
:10AA30001DF0DFF8A64B1860EB7BA278013BDBB280
:10AA40009A4286F829333FF64CAF002386F8293323
:10AA500047E7A049A04BA3600A204FEA081292FBE7
:10AA6000F0F201F12400A2F5B062A16192B2E061BE
:10AA7000002321F813200133122BFAD195F82F006F
:10AA80009649974AA370002818BF0A4641F2707190
:10AA900042F6F823C6F8AC2518BF0B46914A9249F6
:10AAA000A3804020E16062611DF046F881460028E5
:10AAB0003FF41DAF61783DF04BFE95F809E095F845
:10AAC0000AC0D6F8AC3599F90420009300280CBFD1
:10AAD00001210321BEF1000F14BF06230723BCF19F
:10AAE000000F0CBF4FF0000C4FF0080C43EA0C03B2
:10AAF0000191029381467D4B104640217C4A1DF016
:10AB000078F895F8233013B17A4B05221A70B9F111
:10AB1000000F3FF4E6AE30E0122242F6F823764909
:10AB2000A270A380754A764BA1604020E260636109
:10AB30001DF002F8814600283FF4D9AE61783DF05F
:10AB400007FE697A99F904C0AB7A003118BF012178
:10AB50004AB2002800F02082002B00F0EB8242F085
:10AB6000080203214FF4E133CDE90031029260463F
:10AB70000023644A40211DF03CF8634B1860B0E6A6
:10AB8000122244F620636149A270A380604A614B9F
:10AB9000A1604FF00009402086F8A492E260636152
:10ABA0001CF0CAFF824600283FF4A1AE4FF4805249
:10ABB00040211CF0ADFF95F809E086F8A192BEEBAC
:10ABC000090E18BF4FF0010E9AF904104FFA8EF2D9
:10ABD000002800F0A78142F008024FF0030C4FF468
:10ABE000E13302920846CDE9003C4B4A4B464021F6
:10ABF0001CF0FFFF494A4A4B106083F8009070E652
:10AC0000102241F27C50474B4749A270A080474A2E
:10AC1000A3604FF0000928234020E160626186F8BC
:10AC2000909286F891321CF087FF00283FF45FAEC7
:10AC30006B7A3F4A90F9040000924B450CBF082103
:10AC400009210322CDE901214B463A4A40211CF05B
:10AC5000D0FFC6F8B005B0EB090018BF01200028EE
:10AC60007FF49BAD43E60823334AA370334B42F68F
:10AC7000F8214020A180C4E902231CF05DFF814639
:10AC800000283FF434AE61783DF062FD6A7A99F9AC
:10AC900004100032034618BF0122002800F055813D
:10ACA0004FF0030C4FF4E1330292CDE9003C08462B
:10ACB0000023234A40211CF09CFF5EE751830008DB
:10ACC0000D8E0008F1820008FD82000881830008D3
:10ACD000189700200C1F00202D840008400D030051
:10ACE000A0860100418400084D840008301F002028
:10ACF000D5850008E272002049BD03085DBD030848
:10AD00003DBD03080180000858950020898900088E
:10AD1000419C000899890008BD8B00083C940020E4
:10AD200016940020A5890008198B0008BD89000829
:10AD300048E80100C989000865BC03087DBC030818
:10AD4000F1BC0308BD49BE4ADFF870C3BD4800230B
:10AD5000BBF1060F0B7013708CF80030BA49BB4A78
:10AD600040F0CB8021230370DFF8549382F800B0C9
:10AD70000C230B70A370B64AB64B42F6F821402064
:10AD8000A180C4E902231CF0D7FE824600283FF4CC
:10AD9000AEAD61783DF0DCFC697A9AF904C0AB7A1B
:10ADA000003118BF01214AB2002800F03681002B83
:10ADB00040F0B281032202910192CDF800906046EA
:10ADC000A54A40211CF015FFD7E6A4490A234FEA03
:10ADD000081292FBF3F20023A2F5B06241F823209F
:10ADE0000133102BFAD141F60B209D49A3709D4AE7
:10ADF000A0809D4BA1604020E26063611CF09CFE3E
:10AE000000283FF474AD6B7A984A90F904000092E0
:10AE1000003318BF01230322CDE901234021002381
:10AE2000934A1CF0E6FE934B93491A7808600AB9DE
:10AE300006221A70914B1A78002A7FF452AD012233
:10AE40001A704EE50A224FEA08138D4993FBF2F37C
:10AE50008C4AA260A3F5B063A1619BB2002221F8E5
:10AE600012300132122AFAD142F6F823A270A380DE
:10AE7000854A864B8649E1604020C4E904231CF0E2
:10AE80005BFE00283FF433ADAB7A697A90F9040099
:10AE9000804ADFF83092002B0CBF002308230029E2
:10AEA00018BF43F00103029303214FF4E133CDE9CE
:10AEB0000031002340211CF09CFEC9F8000000284E
:10AEC0003FF40DADDFF800A29AF80030002B00F03F
:10AED00085800022674B70481978027000297FF442
:10AEE000FEAC03221A70FAE41AF4804F0FD04FF030
:10AEF000040984F80090FFF7E6BB1B2303700C23C2
:10AF00000B700521A37011704FF4E13933E71AF08B
:10AF1000007319BF4FF0050984F80090994623701B
:10AF2000FFF7D1BBAB7A002B69D042F008024FF09B
:10AF3000010E4FF4E13C02920346CDE900CE0846F3
:10AF4000564A40211CF055FECBE44FF0010E4FF461
:10AF5000E13C02920846CDE900CE514A40211CF066
:10AF600048FEBEE4BCF1000F40F0B880AB7A002B85
:10AF700000F0AC8042F008034FF4E1310322CDE948
:10AF8000001202936346474A40211CF032FE464BB2
:10AF90001860464B18604FE5002B40F0D8804FF00A
:10AFA000010E4FF4E1320291CDE9002E6046404A95
:10AFB00040211CF01EFE94E40222032186F83C236B
:10AFC0004FF4806286F84413C6F82C23072145F21B
:10AFD000F05286F8FCB0A170A28006E5354B364AE7
:10AFE0001A603DF01BFA02238AF80030012271E753
:10AFF00095F80AC0BCF1000F7AD001230EE54FF09E
:10B00000010C4FF4E132CDE9002CCDF808E0084600
:10B01000224A40211CF0EDFD63E4002B70D042F089
:10B0200008020121029203460191CDF8009060468A
:10B03000094A40211CF0DDFD53E400BF5973002094
:10B04000587300205A730020807300207F73002003
:10B0500021B6030839B6030851B60308CC1A0020FC
:10B06000A18600086992000895860008A06806007D
:10B07000B5970008E2720020A49600208EB100204F
:10B080005C1F00202D840008BDD60308F5AF03081F
:10B0900001B0030861B4030810730020BD8B0008E1
:10B0A000F1BC030881830008189700205895002000
:10B0B000018000086488002061D6030850730020D6
:10B0C00090D003007C7500205F9500204FF0030CAA
:10B0D0004FF4E132CDE901C1009254E74FF4E1337E
:10B0E00042F0080203210093CDE9011200234AE750
:10B0F0004FF0010C4FF4E132CDE901C1009295E42B
:10B10000012202910192CDF800906046184A402138
:10B110001CF06FFDFFF7E5BB42F00802032302922B
:10B120000193CDF8009060460023114A40211CF0A5
:10B1300060FD22E54FF0030E4FF4E1320291CDE9BC
:10B14000002E60460B4A40211CF053FD15E542F0ED
:10B1500008024FF0010E4FF4E13102920346CDE9AF
:10B16000001E6046034A40211CF043FDFFF7B9BBB7
:10B1700051B60308018000080388FF2B04D91A0A7E
:10B1800052FA83F3FF2BFAD8C3F1FF030380704711
:10B19000C1B1013910B450FA81F1441E002014F8F5
:10B1A000013F434083EA0313DBB2000ADA0040EABE
:10B1B0000320A14282EA131380EA0300EFD15DF875
:10B1C000044B704708467047F7B50023494C4A4E78
:10B1D0008DF803306023C4F838343378152B0746D4
:10B1E0000ED0122B0CD0012B0CBF02258C25FEF7A4
:10B1F0007CFF002807DA013DF9D1002003B0F0BD43
:10B2000044F62065F3E70A25FEF76FFF0130F4D01E
:10B21000013D15F0FF05F7D1D4F83424930803EB72
:10B220005203C4F83834FEF760FF431CE5D0002811
:10B23000F9DC00230DF1030084F83C34FEF7A8FF8D
:10B240000028DAD09DF803301B2BD6D10DF1030076
:10B25000FEF79EFF0028D0D09DF8032094F8D93542
:10B260009A42CAD10DF10500FEF792FF9DF8053014
:10B27000012BC2D801A8FEF78BFF9DF80430002BEC
:10B28000BBD00DF10300FEF783FF0028B5D09DF879
:10B2900003300E2BB1D10DF10300FEF779FF00282A
:10B2A000ABD09DF8032033789A42A6D10DF103006C
:10B2B000FEF76EFF0028A0D09DF80330002B9CD134
:10B2C0003D46BDF80430EA1B92B2023B9A4209DBCC
:10B2D0000DF10300FEF75CFF94F83C04B0FA80F037
:10B2E00040098BE72846FEF753FF002885D001353B
:10B2F000E7E700BFA8190020B0EF0020034B03EBE5
:10B3000080002021D0F8100416F0F2B8A81900200F
:10B31000034B03EB8000D0F8100416F0BDBF00BF54
:10B32000A819002070B5234C94F8DA35434006463E
:10B3300084F8DA350825F30794F8300416D5FFF7BA
:10B34000E7FF402016F070F994F8303404EB8303E3
:10B35000D3F8100416F09AFF402016F065F9013D6D
:10B3600015F0FF054FEA5606E5D170BDFFF7D0FF97
:10B37000202016F059F994F8303404EB8303D3F805
:10B38000100416F083FF202016F04EF994F83004D4
:10B39000FFF7BEFF202016F047F994F8303404EB95
:10B3A0008303D3F8100416F071FF202016F03CF947
:10B3B000D5E700BFA819002010B5084C94F8DA05AD
:10B3C000FFF7B0FF94F83004FFF7A2FF202016F03B
:10B3D0002BF994F83004BDE810408FE7A81900203D
:10B3E00010B5114C94F8303404EB83030121D3F8E9
:10B3F000100416F07DF8FF20FFF794FFFF20FFF701
:10B4000091FF7F20FFF78EFF00231B2084F8DA35A1
:10B41000FFF788FF94F8D9050130C0B284F8D90548
:10B42000BDE810407EE700BFA81900200B4B10B507
:10B4300001241C70FFF7D4FF0020FFF773FF2046A4
:10B44000FFF770FF0E20FFF76DFF2046FFF76AFF42
:10B45000FFF7B2FF0248BDE81040B5E6B0EF0020AC
:10B46000B1EF0020F8B504780546002C3DD004F17A
:10B470000A060027FFF7B4FF300AFFF753FFF0B2C8
:10B48000FFF750FF0E20FFF74DFF1A4B1878FFF71C
:10B4900049FF3846FFF746FF2046FFF743FF0020ED
:10B4A000FFF740FF0020FFF73DFF0020FFF73AFFC6
:10B4B0000020FFF737FF0020FFF734FF0020FFF7E1
:10B4C00031FF0020FFF72EFF6B681878FFF72AFF87
:10B4D0006B68013C013314F0FF046B60F4D1FFF79B
:10B4E0006BFF0548BDE8F8406EE64FF4857601270E
:10B4F000C0E700BFB0EF0020B1EF002038B505462F
:10B500000478FFF76DFF0020FFF70CFF0420FFF722
:10B5100009FF0E20FFF706FF0A4BB4FA84F41878EF
:10B520006409FFF7FFFE2046FFF7FCFE2878FFF7CF
:10B53000F9FEA020FFF7F6FEFFF73EFF6868BDE8C2
:10B54000384041E6B0EF002038B5154B0268934310
:10B55000044622D0134B06251D70FFF741FF002043
:10B56000FFF7E0FE0520FFF7DDFE0E20FFF7DAFE15
:10B570002846FFF7D7FE0020FFF7D4FE0020FFF794
:10B58000D1FE6078FFF7CEFEA078FFF7CBFEFFF785
:10B5900013FF0548BDE8384016E6012038BD00BF5E
:10B5A00000FFFF00B0EF0020B1EF002070B540F2C7
:10B5B000014444EA800416F0D5F80C4E0546E30732
:10B5C00096F830040AD5FFF7A3FE640805F13405A8
:10B5D0000BD016F0C7F88542FBD8F0E706EB8000E9
:10B5E000D0F8100416F052FEEFE770BDA819002045
:10B5F00070B5174C94F830340D4604EB8303013DCD
:10B6000006460121D3F81004EDB215F071FF0135A3
:10B61000002384F8D13284F8D23235443078FFF7F1
:10B62000C5FF16F8010BFDF757FBAE42F6D194F8B3
:10B630003F343BB194F8D102FFF7B8FF94F8D2023F
:10B64000FFF7B4FF94F83004BDE8704056E600BF41
:10B65000A819002013B5FE23ADF8043000238DF89F
:10B66000063003788DF80730044613B901238DF8AE
:10B67000063004210DEB0100FFF7BAFF0220FEF7B0
:10B68000EDFDFF280CD121786068FFF7B1FF28207D
:10B69000FEF7E4FDA0F130035842584102B010BD5E
:10B6A0000020FBE737B5054608461446FFF7D2FFF2
:10B6B00078B10123022101A88DF805308DF80450DE
:10B6C000FFF796FF2046FEF7C9FDA0F13003584270
:10B6D000584103B030BD07B50E4B0268934317D0F5
:10B6E000FF230421ADF8043043788DF806308378C9
:10B6F0008DF807300DEB0100FFF77AFF0220FEF70F
:10B70000ADFDA0F130035842584103B05DF804FB91
:10B710000120FAE700FFFF0037B5054608460C4652
:10B72000FFF7D9FF60B123788DF80450022101A8FA
:10B730008DF80530FFF75CFF21786068FEF79FFD0C
:10B7400003B030BD2DE9F04FBF4CDFF80C83C4F8D7
:10B750004404D1B01CF096FB08F11409002584F8CC
:10B760004A5484F84B54FEF701FE2F28F7D10121EB
:10B77000002016F0C9FDADF80850FEF7F7FD019066
:10B78000FEF7F4FD8DF81500FEF7F0FD8DF81600BC
:10B79000FEF7ECFD0027064610ADFEF7E7FDE85585
:10B7A0000137FBB2B342F8D1FEF7D0FD8DF80D00A2
:10B7B000FEF7CCFD8DF80C00BDF80C70B4F84A34DF
:10B7C00001219F4214BF03270027002016F09CFD93
:10B7D000002F40F08880019B0695303B102B00F233
:10B7E0006282DFE813F06800930003039700110002
:10B7F000AC006002F700D301090231027902600255
