:020000040800F2
:10000000F0FF0010C906060863450408E9EB000884
:100010006907060869070608690706080000000066
:10002000000000000000000000000000614504081E
:100030005F450408000000005D4504084DEC000821
:1000400069070608690706086907060869070608B8
:10005000690706086907060881160208AD17020835
:100060007117020835170208F9160208C9D60408E4
:10007000B9D60408A9D6040899D6040885D6040878
:1000800071D604085DD604086907060869070608E2
:10009000690706086907060869070608BD16020809
:1000A000A5A3000841A90008D5A2000811AA0008CC
:1000B00081A80008C1A70008F5A60008BFE1040850
:1000C000C5E10408B5E10408BBE1040869070608B6
:1000D00069070608D1EF000815EF000859EE00087F
:1000E0004516020869070608998B040805A200084E
:1000F00075A4000835A1000855A5000849D60408D4
:10010000690706086907060825A6000869070608A2
:100110009DED0008E1EC000899460308214503081D
:1001200035D6040821D604080DD60408F9D50408EC
:10013000E5D504086907060869070608690706087F
:10014000690706086907060869070608757904083B
:10015000D1D50408BDD50408A9D504086907060847
:10016000ABE10408B1E1040869070608690706085D
:100170006907060869070608690706086907060887
:0801800069070608690706087B
:080188007002060001000000F6
:100190001A0201003C000000841B0020241E0020E5
:1001A00000000000756C0308031201003D00000010
:1001B000741C0020601E00200000000028090008B8
:1001C0003810010001000000741A0020A01E002059
:1001D00000000000660900082C0004001000000068
:1001E000B42E0020A42E00200000000013210108DE
:1001F0002B00120024000000E82E0020C42E002056
:1002000000000000E520010829201400780000000B
:10021000E42C00200C2F0020000000000000000053
:10022000F62101000C000000302B0020842F00205C
:1002300000000000680900081C0202001C00000009
:10024000C42A0020D42F002000000000B568030855
:100250002820010018000000E02A0020F02F0020D4
:1002600000000000052F0108012001000C00000023
:10027000FC21002008300020000000007409000864
:100280000EF003009E010000A01F0020143000208B
:1002900000000000ADE704081300010004000000A6
:1002A00084270020B43100200000000080090008ED
:1002B0000101010004000000EC1E0020B831002004
:1002C0000000000000000000000101000400000028
:1002D000E41E0020BC31002000000000840900085A
:1002E0000201010003000000E01E0020C0310020D8
:1002F00000000000F1CF0208020001000C00000025
:1003000070320020043300200000000000000000D4
:100310002902010040000000CC31002010330020F1
:100320000000000088090008280204000400000002
:10033000D433002008340020000000007964030852
:100340002702040004000000D03300200C340020F9
:10035000000000006D640308161001000600000094
:10036000BC3800207440002000000000C8090008CC
:100370002F10010022000000504000207C4000208F
:1003800000000000CE0900081E0001000900000066
:10039000A83F0020A040002000000000F009000855
:1003A000051001000600000098380020AC40002035
:1003B00000000000FA090008F58101006800000053
:1003C000FC370020B4400020000000009FCD03084F
:1003D0002320010010000000FC3F00201C410020F1
:1003E000000000002D030108FD0701007600000059
:1003F000303F00202C4100200000000099BA030883
:10040000261001000E000000B4410020A44100208D
:10041000000000003159020814000100040000002F
:10042000FC3C0020C441002000000000000A00083D
:100430000B3001001A000000D4350020F8410020E4
:1004400000000000040A00081F3001002400000022
:10045000F03500201442002000000000200A0008AF
:100460000A02010014000000844A0020784D002098
:1004700000000000E1E40208F8210100060000008D
:10048000684500208C4D002000000000440A000850
:10049000030001000100000074450020944D00207D
:1004A0000000000000000000101001000200000029
:1004B00034450020984D0020000000004A0A000842
:1004C00025201E002C010000A04A00209C4D002089
:1004D0000000000000000000070201000200000010
:1004E000B054002014590020000000004C0A0008FD
:1004F0001D02020006000000905400201859002040
:100500000000000000000000060203000C000000D4
:1005100098540020A06000200000000081690308BA
:100520002700010004000000D84F0020AC6000202C
:10053000000000004E0A0008220201001C01000019
:10054000089600204498002000000000416B03083A
:100550000C20060058020000FC9200206099002048
:1005600000000000D1CF0208010201000B000000D2
:10057000C0920020B89B0020000000000564030822
:100580001B0201001000000094920020C49B002078
:10059000000000007D6403081B1001000C00000037
:1005A00064810020D49B00200000000075CE030869
:1005B00021020100F0000000E47F0020E09B002009
:1005C00000000000FDCC0308231201001000000011
:1005D000A88F0020D09C002000000000540A0008D2
:1005E000371001002E00000004920020E09C002043
:1005F00000000000640A0008050201000400000079
:1006000018AD00202CAD002000000000920A000868
:10061000030101000A000000C4AA002030AD002040
:10062000000000009D3904080E02010002000000D5
:1006300020AB00203CAD002000000000960A00081E
:100640001302010004000000349D002040AD002092
:1006500000000000980A00081002010001000000DC
:100660006CC1002068C10020000000009C0A000846
:10067000190001000500000080C80020C8C8002043
:10068000000000009E0A00081A0001000E00000091
:100690004CC70020D0C8002000000000A40A0008B9
:1006A000203201000A0000003CC60020E0C8002003
:1006B000000000008DE70408150010007000000025
:1006C000D0C30020ECC800200000000000000000A3
:1006D0002A00080060000000B4C700205CC90020A8
:1006E0000000000065E704080D1001006400000030
:1006F00050E90020A4F2002000000000DDAC010859
:10070000040008008000000090E8002008F30020AA
:1007100000000000000000000902010001000000CC
:1007200038E8002088F3002000000000B20A00082A
:10073000FD01010024000000D0E700208CF3002020
:1007400000000000AB81000818200100320000000A
:1007500098E70020B0F3002000000000F96B0308C8
:10076000FB0101000100000058E70020E4F3002035
:1007700000000000A96A0308FC0101000900000054
:1007800024E60020E8F3002000000000B96A030816
:10079000F7010100060000001CE60020F4F3002031
:1007A00000000000B40A0008F90101000400000084
:1007B00018E60020FCF3002000000000A9E1010879
:1007C000160215003F000000C8CD002000F40020F4
:1007D00000000000896B03083400010010000000D5
:1007E00044E5002040F400200000000035EF04083C
:1007F00011020100080000001CE5002050F4002058
:1008000000000000BA0A00081212010004000000F3
:1008100014E5002058F4002000000000C20A00087F
:100820000A80010028000000ECE400205CF40020B5
:100830000000000015020108061001001C00000065
:10084000ACCD002084F4002000000000D56A03082D
:1008500012200100110000002CE40020A0F4002070
:1008600000000000C60A0008000201000B000000A2
:1008700068E10020B4F40020000000000000000047
:10088000FF11010006000000A4E00020C0F40020D9
:1008900000000000C5630308081203000F000000F9
:1008A00020E10020C8F400200000000015640308C7
:1008B000FA0101000300000070DA0020D8F40020E3
:1008C00000000000F96303080202010003000000B9
:1008D000A4CD0020DCF40020000000000000000097
:1008E0000C0201000400000084CD0020E0F4002090
:1008F00000000000E16303081F0208001000000070
:10090000F8D90020E4F4002000000000716303081F
:10091000FE01010014000000FCD80020F4F40020C7
:08092000000000004163030820
:1009280000000000000000000000000000000000BF
:1009380000000000000000000000000000000000AF
:10094800000000000000000000000000000000009F
:10095800000000000000000000000000010000008E
:10096800000000000100000002020000E80364002B
:10097800040A000114001E0048044400B3000000EB
:10098800000000000000000000000000000000005F
:10099800000000000000000000000000000000004F
:1009A800000000000000000000000000000000003F
:1009B800000000000000000000000000000000002F
:1009C800C409000019000000000000000000000039
:1009D800000000000000000000000000000000000F
:1009E80000000000000000000005010000000000F9
:1009F800000020000201000003000023AE014A01AC
:100A08005E012C0164010100000001000A019A0145
:100A1800001E0A00000200000000000000010000A3
:100A280000050000010203000000000000000000B3
:100A38000000000000000000008007000101F40130
:100A480014000005013C2003000000000000000025
:100A5800000000000000000000000000200032003C
:100A6800C800D00796001400320028004C04400645
:100A78000005500014000F00080064000100010088
:100A880005000A000000F4019600000000000000C4
:100A98000000012C00000000280100007E05EA0586
:100AA800B4053200E803D007000013003D01000040
:100AB80000000000000001010101FFFFFFFF00002E
:0F0AC80000010000054D4B4634000008000200FD
:100AD700685E0C0002FF000001000000CDF800086E
:100AE70000000000000000005C56060854240020A7
:100AF700A8240020D60101010100000051210108AE
:100B070000000000000000001C6E060839260108DE
:100B17000000000000000000D46D0608000000007F
:100B27000000000000000000906C060800000000B4
:100B37000000000000000000486D060800000000EB
:100B47000000000000000000F46C06080000000030
:100B5700000000007123010849270020FF2D202DE8
:100B67002D202D2D2D2D202D2D2D000000000000D6
:100B7700000000000000000000000000FFFFFFFF72
:100B8700192901080000000000000000206C060879
:100B970001000000FA000000010000000100000051
:100BA700010000000001010100000000F421002005
:100BB7000000F40101000000F22100200000F40110
:100BC70001000000F02100200000F40101000000F6
:100BD700EE2100200000F40101000000EC210020BC
:100BE7000000F40101000000EA2100200000F401E8
:100BF70001000000E82100200000F40101000000CE
:100C0700990001085D00010800000000A0580608CF
:100C1700D821002005320100E62100206400F401FC
:100C270001000000E42100206400C4090100000065
:100C3700D6210020E803D00701000000D4210020BE
:100C4700E803D00701000000D2210020E803D00705
:100C570001000000D02100201E00B80B0100000099
:100C6700DE21002005000F0001000000E021002028
:100C770003000A0001000000CE2100201E00F4013D
:100C870001000000E2210020020000002C590608A4
:100C9700CC2100201400640001000000DA210020AC
:100CA7003200E80301000000CA2100200000C8004C
:100CB700010000006121002000C801006021002020
:100CC700005001005F210020005A01005D21002033
:100CD700020000003859060848E1060850E10608F6
:100CE700DAE900200100C40900000000D8E900206B
:100CF7000100C40900000000D6E900200100C40972
:100D070000000000D4E900200100C4090000000031
:100D1700D0E900200100C40900000000D2E900204A
:100D27000100C40900000000CEE900200100C40949
:100D370000000000CCE900200100C4090000000009
:100D47000B1F002000C801000A1F002000C8010077
:100D5700081F00200000FFFF0A000000061F0020F8
:100D67000100C80001000000041F00203200307598
:100D770032000000021F002005820500001F00202E
:100D870005002C0105000000FE1E0020055A050085
:100D9700FB1E002000FF0100FD1E002002000000D6
:100DA70090030020F91E00200300000018BC06086D
:100DB700FA1E002000FF0100FC1E002002000000B8
:100DC70090030020F81E00200300000018BC06084E
:100DD700EDFF00087DFF00080000000044590608E9
:100DE7000C220020EE02CA08010000000A2200209F
:100DF70000C80100640000000922002000C80100AB
:100E0700640000000822002002000000505A060873
:100E1700F21E00200000803E05000000F01E0020AA
:100E270080C1803E05000000EA1E00200083007D8F
:100E370005000000E81E002080C1803E050000007C
:100E4700E31E002000FF0100DC1E00206400F40107
:100E570001000000DA1E0020040000005C5A0608AA
:100E6700D91E002002000000705A0608911F0020BA
:100E77000D0000007C5A06088E1F00200064010048
:100E87008C1F0020320010270A0000008A1F002054
:100E97000D0000007C5A0608891F00200D00000085
:100EA7007C5A0608881F002002000000B45A060872
:100EB700000000000000000000000000C05A060803
:100EC700122200203E000000F85A060810220020D7
:100ED7000100FF7F010000000F2200200200000038
:100EE700F45B0608931F002003000000045C06085B
:100EF700921F002003000000045C06084E2100201A
:100F0700000A01004C2100200000E8030100000056
:100F17004A2100200000E8030100000048210020CA
:100F27000000E80301000000462100200000E8035C
:100F3700010000003E2100200000E803010000003E
:100F4700442100200000E8030100000042210020A6
:100F57000000E80301000000402100200014010008
:100F67005C21002002000000145C06085A210020C2
:100F77000000F40101000000582100200000F401E6
:100F870001000000562100200000F40101000000CC
:100F9700542100200000F40101000000522100202C
:100FA7000000A00F01000000502100200000A00F4A
:100FB70001000000B721002019640100B6210020BC
:100FC70002000000205C060872210020E803D00719
:100FD7000A00000070210020006401000A000000E0
:100FE70065210020006401006421002000640100E5
:100FF7006C210020006401000A0000006B21002022
:10100700006401000A0000006A210020006401005A
:101017000A0000006F21002000FF01000A00000005
:101027006E21002000FF01000A0000006D21002052
:1010370000FF01000A0000006921002001FF0100F4
:101047000A0000006821002001FF01000A000000DB
:101057006721002001FF01000A0000009C1F0020FB
:101067000000F401010000009A1F00200000A00FFB
:1010770001000000981F00200000A00F01000000E1
:10108700961F00200000A00F01000000941F002001
:101097000000A00F010000009927002000C80100F0
:1010A70098270020006401009727002000640100B2
:1010B70096270020006401009527002000640100A6
:1010C70094270020FF0801009327002001640100F6
:1010D700F5FE0008B9FE0008000000002C5C0608B9
:1010E7009C270020013201009B27002001000000FF
:1010F7009C5C06089A27002004000000A45C0608F0
:101107009227002000640100902700201400E803C4
:10111700010000008E270020E80330750A00000058
:101127008C27002000C801008B27002000C8010081
:101137008A27002000C8010089270020003201000B
:101147009E270020004B01009D270020040000007F
:10115700B85C060888270020006401000A00000028
:10116700AC2700200000D00701000000A7270020BF
:1011770000C80100A627002000C80100A5270020FD
:1011870000C80100AA2700200000D00701000000C6
:10119700A427002000C80100A327002000C80100E1
:1011A700A227002000C80100A82700200000D007C0
:1011B70001000000A127002000C80100A02700208F
:1011C70000C801009F27002000C80100ADFC0008EF
:1011D70095FC000800000000CC5C0608851F002075
:1011E700005A0100841F002000C80100821F002050
:1011F700E803D00701000000000000000000000025
:10120700B1230108685D06084D4154454B4634300B
:1012170035000000F71E002000030100F61E002025
:1012270000030100D1FB000885FB00080000000057
:10123700BC5D060845FB0008FDFA00080000000039
:10124700585E06081DFC0008FD2801080000000084
:10125700D85E0608F41E00200103010041010108C1
:1012670015010108000000003062060885FA000831
:101277003DFA000800000000A0620608BDFC000857
:10128700512A0108000000003C630608292E0108C6
:101297006D01010800000000E46306080DFD000869
:1012A700000000000000000070640608E9FD000867
:1012B70091FD000800000000D46406087DFE0008C8
:1012C70041FE0008000000007C650608F58401085F
:1012D70031FF00080000000008660608C921002049
:1012E7000106010055FD000821FD0008000000006F
:1012F700046706082B8401081D2B01080000000065
:10130700746706082D850108E52B01080000000019
:10131700C4680608C82100200103010065FC000815
:1013270035FC00080000000098690608858501085B
:101337000000000000000000FC690608CDFA000864
:10134700E5280108000000007C6A0608000000008C
:101357000000000000000000086B060855FF0008A9
:101367005D2C010800000000786B060800000000F3
:101377000000000000000000906D0608C4AC0020CB
:101387009CFF2C010000000066260020E0150C17CA
:10139700000000006826002002000000C86D060853
:1013A700D41E002088136F1701000000D61E0020EE
:1013B70088136F17000000001EEA002000000000DD
:1013C700000000001CEA00200000000000000000F0
:1013D7001AEA0020000000000000000018EA0020C0
:1013E700000000000000000016EA002000000000D6
:1013F7000000000014EA00200000000000000000C8
:10140700201700200000000000000000A41E00209C
:1014170003000000B86E0608CC1E002088136F1763
:10142700010000000EAD002088136F1700000000B8
:1014370081F900080000000000000000C86E0608DF
:10144700B5260020010000001C6F060810AD002023
:1014570001000000286F060806AD0020020000000A
:10146700306F0608000000000000000000000000C8
:101477003C6F06086DF9000800000000000000003E
:10148700D86F060800000000000000000000000000
:101497002C7006080000000000000000000000009B
:1014A7009C700608D81E002002000000D4700608B1
:1014B7000AAD0020E0150C170000000011690408B0
:1014C7009B340408A5680408000000007D33040865
:1014D7007D710408E96704085964040800000000E6
:1014E700000000003D33040805320408F731040802
:1014F700E1620408FD620408C5620408A9620408E1
:101507008F620408C768040879340408EB67040885
:1015170000000000553304085B640408BD67040835
:10152700C7630408000000000000000049330408F6
:10153700FFFF0000FFFFFFFF6C43070800000802E2
:1015470005030300000000007443070801000802B8
:101557000504030000000000545307080200FE01C1
:101567000110030000000000D8E40608030014027D
:1015770000030000000000007C43070804001F026E
:1015870002000800000000008443070805001F024E
:1015970002010800000000007EFF0000FFFFFFFFC0
:1015A700C841002000000000F041002000000000BA
:1015B70001000000A00F000008440708AC4C070812
:1015C7000000000061D00208A086010004000000AE
:1015D7000000000000000000000000000000000004
:1015E70000000000000000000000000000000000F4
:1015F700000000000000000008440708144D070819
:101607000000000031910008E8030000040000001A
:1016170000000000000000000000000000000000C3
:1016270000000000000000000000000000000000B3
:10163700000000000000000034E70608000000007A
:1016470000000000F9DF02087D000000FF00000035
:101657000000000000000000000000000000000083
:101667000000000000000000000000000000000073
:101677000000000000000000844707080000000089
:101687000000000065F402087D000000FF00000074
:101697000000000000000000000000000000000043
:1016A7000000000000000000000000000000000033
:1016B70000000000000000003CEA060800000000EF
:1016C700000000005D1803087D000000FF00000017
:1016D7000000000000000000000000000000000003
:1016E70000000000000000000000000000000000F3
:1016F7000000000000000000D8E706080000000016
:1017070000000000E9870008E8030000030000006C
:1017170000000000000000000000000000000000C2
:1017270000000000000000000000000000000000B2
:1017370000000000000000001C4D0708000000002A
:1017470000000000FD7B05081027000003000000D3
:101757000000000000000000000000000000000082
:101767000000000000000000000000000000000072
:101777000000000000000000784307080000000098
:10178700651E01081DBA00085F760000050000000D
:101797000000000000000000000000000000000042
:1017A7000000000000000000000000000000000032
:1017B70000000000000000001C47070800000000B0
:1017C70000000000E9F000081027000001000000F9
:1017D7000000000000000000000000000000000002
:1017E70000000000000000000000000000000000F2
:1017F7000000000000000000284D0708000000005E
:101807000000000045800008E80300000500000014
:1018170000000000000000000000000000000000C1
:1018270000000000000000000000000000000000B1
:101837000000000000000000344D07080000000011
:101847000000000041E70208204E000003000000EE
:101857000000000000000000000000000000000081
:101867000000000000000000000000000000000071
:101877000000000000000000444D070800000000C1
:10188700000000001DE50208204E000003000000D4
:101897000000000000000000000000000000000041
:1018A7000000000000000000000000000000000031
:1018B7000000000000000000544D07080000000071
:1018C70000000000E58D0008400D03000300000044
:1018D7000000000000000000000000000000000001
:1018E70000000000000000000000000000000000F1
:1018F70000000000000000005CF606080000000081
:10190700000000000DAE01081027000001000000D4
:1019170000000000000000000000000000000000C0
:1019270000000000000000000000000000000000B0
:1019370000000000000000006043070800000000EE
:101947000000000051DA0308102700000300000020
:101957000000000000000000000000000000000080
:101967000000000000000000000000000000000070
:101977000000000000000000644D070800000000A0
:1019870000000000155E0108A086010001000000AC
:101997000000000000000000000000000000000040
:1019A7000000000000000000000000000000000030
:1019B70000000000000000003CE6060800000000F0
:1019C700000000007586000850C3000001000000F9
:1019D7000000000000000000000000000000000000
:1019E70000000000000000000000000000000000F0
:1019F7000000000000000000E4E30608000000000B
:101A07000000000075820008A861000001000000C6
:101A170000000000000000000000000000000000BF
:101A270000000000000000000000000000000000AF
:101A370000000000000000006C4D070800000000D7
:101A470000000000C12E0408A0860100010000006C
:101A5700000000000000000000000000000000007F
:101A6700000000000000000000000000000000006F
:101A7700000000000000000084F6060800000000D7
:101A87000000000025820008A00F000001000000F0
:101A9700000000000000000000000000000000003F
:101AA700000000000000000000000000000000002F
:101AB7000000000000000000784D0708000000004B
:101AC70000000000C12904081027000001000000E1
:101AD70000000000000000000000000000000000FF
:101AE70000000000000000000000000000000000EF
:101AF700000000000000000060F20608000000007F
:101B070000000000F50604081A410000010000006B
:101B170000000000000000000000000000000000BE
:101B270000000000000000000000000000000000AE
:101B37000000000000000000A4E306080000000009
:101B470000000000D1390408102700000100000040
:101B5700000000000000000000000000000000007E
:101B6700000000000000000000000000000000006E
:101B77000000000000000000B84C0708000000004B
:101B870000000000AD3D010850C300000100000047
:101B9700000000000000000000000000000000003E
:101BA700000000000000000000000000000000002E
:101BB7000000000000000000844D0708000000003E
:101BC7000000000059420408400D03000000000017
:101BD70000000000000000000000000000000000FE
:101BE70000000000000000000000000000000000EE
:101BF70000000000000000008C4D070800000000F6
:101C07000000000001800008400D030000000000F4
:101C170000000000000000000000000000000000BD
:101C270000000000000000000000000000000000AD
:101C37000000000000000000944D070800000000AD
:101C470000000000CD14040850C30000030000008A
:101C5700000000000000000000000000000000007D
:101C6700000000000000000000000000000000006D
:101C77000000000000000000A04D07080000000061
:101C8700000000007D59030840420F0000000000DB
:101C9700000000000000000000000000000000003D
:101CA700000000000000000000000000000000002D
:101CB7000000000000000000AC4D07080000000015
:101CC70000000000698C010850C3000000000000FC
:101CD70000000000000000000000000000000000FD
:101CE70000000000000000000000000000000000ED
:101CF7000000000000000000B80B00000102FFFF19
:101D0700010100000000FA430000FA430000803F91
:101D17000000803F000000000000000000000000FD
:101D270019B00108000000000000000000000000DA
:101D3700FFFFFFFF00000000684D002008000000C3
:101D470000000000584D0020080000001A030000A2
:101D5700000000000000000000000000000000007C
:101D67000000000000000000040309041201000243
:101D77000000004083042057000201020301000015
:101D87000573030831730308F5720308C564030874
:101D9700A57203084D720308B564030800150020F7
:101DA700056D0308CD640308C9640308C16403080B
:101DB700516D0308BD640308B96403086CB10608D4
:101DC700197104085B340408FD6F04080000000063
:101DD7000000000095670408A566040800000000DD
:101DE70000000000000000003133040865650308A7
:101DF70059650308817303089D7303081165030878
:101E070065730308497303081F0000001C000000E6
:101E17001F0000001E0000001F0000001E00000041
:101E27001F0000001F0000001E0000001F00000030
:101E37001E0000001F0000000068214C0CBB0608B4
:101E4700F4010000FFFF0000008002021F000000F5
:101E570053544D202020202050726F647574202029
:101E67002020202020202020302E303100000100AB
:101E7700E001010801FFFF00FFFFFFFF0403090462
:101E870012010002EF0201408304563200020102F0
:101E970003010000120100020202004083044057C0
:101EA700000201020301000009022000010104C031
:101EB70032090400000208065005070581024000A8
:101EC700000705010240000009026400030100C089
:101ED700320904000001030000000921110100017B
:101EE7002236000705830309000A080B01020202D4
:101EF700010009040100010202010005240010018C
:101F07000524010002042402020524060102070534
:101F170082030800FF09040200020A000000070507
:101F2700010240000007058102400000090243004A
:101F3700020100C032090400000102020100052469
:101F470000100105240100010424020205240600F3
:101F570001070582030800FF09040100020A0000C7
:101F6700000705010240000007058102400000004C
:101F7700FF00000000FF0000000000000000AA555D
:101F87000701000001AA55050100000834C306082F
:101F9700FF1FFF1F05010905A101A1000501093068
:101FA70009310932093309350934093609371581E9
:101FB700257F75089508810205091901290815006B
:101FC7002501950875018102C0C0000009022200A1
:101FD700010100E0320904000001030102000921A8
:101FE700110100012236000705830309000A0000DA
:101FF70000000000010203040102030406070809A8
:10200700B3690408B16E04082D6A0408B3330408E1
:1020170065350408C3330408DF3304088D33040827
:102027007F33040800000000000000002D202D2D44
:10203700202D2D2D2D202D2D2D2D000000000000F1
:102047000000000000000000000000AA550B01007E
:1020570000AA5505010000AA550902000000AA556B
:1020670003009F0001000000C012000001000000F3
:102077000000040100000000000000021000000042
:102087000700000000000000000000000102030438
:1020970006070809FFFFFFFF0000803F0000000060
:1020A70000000000000000000000803F000000006A
:1020B7000000000000000000000000000000000019
:1020C7000000000000000000000000000000000009
:1020D7000000803F0000000000000000000000003A
:1020E70001000000080000007D00000000600240C1
:1020F700106002400000000000000000000B00001C
:102107000000000000000000000000000060024026
:10211700286002400100000000000000060C0000DB
:102127000000000000000000000000000060024006
:10213700406002400200000000000000100D000097
:1021470000000000000000000000000000600240E6
:10215700586002400300000000000000160E000057
:1021670000000000000000000000000000600240C6
:10217700706002400400000000000000200F000013
:1021870000000000000000000000000000600240A6
:1021970088600240050000000000000026100000D3
:1021A7000000000000000000000000000060024086
:1021B700A06002400600000000000000301100008F
:1021C7000000000000000000000000000060024066
:1021D700B86002400700000000000000362F000032
:1021E7000000000000000000000000000064024042
:1021F70010640240000000000000000000380000EA
:102207000000000000000000000000000064024021
:1022170028640240010000000000000006390000A9
:102227000000000000000000000000000064024001
:10223700406402400200000000000000103A000065
:1022470000000000000000000000000000640240E1
:10225700586402400300000000000000163B000025
:1022670000000000000000000000000000640240C1
:10227700706402400400000000000000203C0000E1
:1022870000000000000000000000000000640240A1
:10229700886402400500000000000000264400009A
:1022A7000000000000000000000000000064024081
:1022B700A064024006000000000000003045000056
:1022C7000000000000000000000000000064024061
:1022D700B864024007000000000000003646000016
:1022E700000000000000000000000000F5310408B5
:1022F700F3310408F1310408EB310408E93104082B
:10230700EF310408ED310408193F0408093E0408B9
:10231700493F0408295C040851740408A55C0408B3
:102327001D330408093304080133040801000000C1
:102337000000803F01000000F419002000000000A9
:102347000000000000000000000000000000000086
:102357000000000000000000000000000000000076
:102367000000000000000000000000000000000066
:102377000000000000000000000000000000000056
:102387000000000000000000000000000000000046
:0C2397000000000000000000000000003A
:082800000000000000000000D0
:108000000C4B1B78DB0700D570470B4A1368002B1D
:10801000FAD04FF47A7101FB03F39842F4D3074B83
:108020001B781BB9064B99681B690B600023136012
:10803000704700BFCEAA0020984A0020844A002042
:10804000A844002070B50C4C23689BB15A68821A72
:10805000002A0FDB0546002603E05A68AA1A002A08
:1080600008DB9A681E73226018461A6890472368D6
:10807000002BF2D170BD00BF5C450020436A8269CD
:10808000D154436A0169026C01338B4228BF00233B
:108090004362E2B1EFF31183502282F31288026C43
:1080A0001168C90703D5DBB283F3118870475168A3
:1080B00089B270B4F1B9D0E90954A5420DD10122B9
:1080C00080F86420DBB283F3118870BC7047026EC5
:1080D000D36843F08003D360704786692644D66036
:1080E000A4B210D805692C1BA4B25460816200218F
:1080F00080F86410116841F00101DBB2116083F374
:10810000118870BC70472C1BA4B254608562EEE7E6
:10811000034610B4C46BD968406954B15A6D8C1AC7
:10812000013A005D5DF8044B08BF0A46C0B25A65CB
:1081300070471A6A805C01328A4228BF2246C0B268
:108140001A625DF8044B7047036C13B190F8640039
:108150007047D0E90903181AB0FA80F04009704757
:10816000D0E909120369914238BFC9188A1A016C13
:10817000013B21B1496812FA81F29A4201D2981A60
:1081800070470020704700BFC36B33B15B68426D1E
:108190009BB29A4205D3D01A7047D0E907239A427E
:1081A000F9D2C0681044C01A70470B4B30B503F1C8
:1081B0001C0493F900205D78092AC8BF143A81187D
:1081C00004330D7313F8025C855413F8012C0A76FE
:1081D0009C42EED130BD00BFE445060803682DE99E
:1081E000F0415D6A1DB12B46BDE8F0411847002AF9
:1081F000174611DD04460E460F4400E023689B68D5
:10820000204698470028F9D0236816F8011B1B6800
:1082100020469847BE42F1D1BDE8F08103681B6952
:10822000184700BF38B50F4B1B7803B138BD0E4B54
:108230001B685B05FAD50D4D9FED0D7A2B68C31AAF
:1082400007EE903AF8EEE77A0446F4EEC77AF1EEDC
:1082500010FA02DB0DF0D4F92C602046BDE838405E
:1082600020F0CABA0CAB002014E80020581A0020F5
:10827000001B374A2DE9F043D64D6C682DED028B7B
:10828000041B46F2A7139C4283B004D803B0BDEC94
:10829000028BBDE8F083D04B68601E6816F00401C5
:1082A00040F08E800F4616F0200344D19FEDCB8A1C
:1082B0009C461846CA4ECB4A367892F8008016F093
:1082C000010672D1B8F1000F00D01670AA690192B0
:1082D0006A69BF1A019AA0EB0208002B3ED151B186
:1082E0002B7F012B07D8C04B214638461F6051F029
:1082F00031FABE4B1880BE4B1B780E2BC6D1DFED7A
:10830000BD7ABA4BBC49188828EE278A0022BDEEF8
:10831000C88A134618EE104A68F30F0364F30F027D
:1083200067F31F4260F31F43C1E9002303B0BDECB4
:10833000028BBDE8F083B14B1B7813F0020300F011
:10834000F080AF4AAF4E538A9068B6F900C0002B58
:1083500040F029819FEDA18A0123ABE72B7F002903
:1083600000F0D480002B40F01A81002E00F08081B4
:10837000F7EE007A37EEC87A07EE907AF8EEE77AF1
:1083800067EE877A07EE108AB8EEC77AE7EE087ACA
:10839000FDEEE77A17EE903A934A2146384613608D
:1083A00051F0D8F9914B1880A5E7B8F1000F8DD1A5
:1083B0004FF0010EC5E9057082F800E047468CE7F2
:1083C000DFF8A482904898F806200788AB68013A45
:1083D000B3FBF2F3002F00F0A9808C499FED8C6A6B
:1083E0000A689FED8C7A9FED8C2ADFED8C2A9FED39
:1083F0008C3ADFED8C3ADFED8C8ADFED8C0A9FED55
:108400008C4A9FED8C8A9FED8C0ADFED8C7ADFED34
:108410008C1A9FED8C1ADFED8C4A9FED8C5ADFEDA4
:108420008C5A002A9446B8BF02F1070CA2EBEC026A
:108430001344002B1A46B8BFDA1DD21006EE902A5C
:10844000F8EEE66A0B6066EE866A296916EE902AF7
:10845000C2F3160C4CF07E5C06EE10CAA6EE072A9C
:10846000D21507EE102AE6EE022AB8EEC77AA6EE7B
:10847000223A27EE287AE6EE033AF4EEE06AA6EE18
:10848000237AF1EE10FAD4BFF0EE486AF0EE446AB7
:1084900037EE267A9FED6F6A9FED6F4AE7EE007A1E
:1084A000B7EE007AF4EEE17AF1EE10FA88BFF0EE62
:1084B000617AF4EEE07AF1EE10FAB8BFF0EE607A8D
:1084C000FDEEE77A8B4217EE902AC2F3160C4CF0C1
:1084D0007E5C06EE90CAE6EE814A02F0FF4207EEAD
:1084E000902AA6EEA45AE6EE855AA6EEA56AA7EE55
:1084F000C67A67EE047AFDEEE77AC5ED037A64D0BA
:10850000013F002107802B610F46CCE613F0FD0FE1
:108510007FF4F1AE344A354BC2F80080A3F800C0B6
:10852000E9E69FED2E8A9C461846C3E607EE903A90
:108530009FED370ADFED490ADFF83091F8EE677AF0
:10854000B7EE008A27EE800A59F082FADFED427A10
:1085500038EE400A20EE270A58F0D4FFB8F8083069
:10856000DFED3F6A07EE103AEB68C01AB8EEC77A43
:1085700007EE900AA7EE668AB8EEE70AD9ED0D7A03
:10858000F8EEE77A20EE080A67EEA67AA7EE270A49
:1085900058F0B8FF01210746C9F8340083E6022BE2
:1085A0007FF49FAEB6E707EE903ADFED126A9FEDDB
:1085B0002D7AF8EEE77A86EEA78AB4EEC78AF1EE56
:1085C00010FA88BFB0EE478AC6E60023194603803A
:1085D0001F4668E6581A0020103400209A99993EE8
:1085E000CEAA002038920020F03800206636002005
:1085F00095CD00200000C84298CD002034360020E0
:1086000038E90020CC8F0020F621002088010020CE
:1086100008942537DACDFE3CB9D593BE5CB8903FBF
:10862000AA841DC022E061401872313F00000000A2
:1086300007F1B3C2000080FF64890C4A00007E4E3F
:108640000000FF4EED185E3C81900FBBAF9D2A3EAF
:10865000B2D19F3EE886023FD048874AB1DC423E15
:108660006F12833A6666663FB441002008DA002044
:10867000434691E6534B1B685B0700D470472DE9D6
:10868000F04F514D514C2A782379372A08BF504A70
:1086900083B008BF1380042B76D8DFE803F06D6346
:1086A0005B4F03004B4FFB6A38469847002849D080
:1086B000494E3B6B06F1200106F124009847474BD9
:1086C000D6F808809879D6E90AA2D6E9083B0AF1DB
:1086D0000109511C814508BF4FF000090329C7F863
:1086E0003CB0BB635DD03E48F16296F8301040F874
:1086F00022B000295DD1584606EB8A0A06EB8902B2
:10870000CAF83400397CD2F834C02A78C6F82890E8
:108710000029A8EB0C080CBF052102214044372A90
:10872000B060217104D12A4A5380A2F804B0D080ED
:108730007B8A002B42D103B0BDE8F08F2548836AC5
:10874000984748BB4FF47A73264A1268136103B006
:10875000BDE8F08F1F4D6B6A284698470322AB8A0D
:108760002271E6E71B48036A98470028EAD00223F3
:1087700023714FF47A73E7E71648C36998470028D6
:10878000E0D001232371DDE7124DAB6928469847FD
:1087900000226B8A2271CCE7042323714FF47A7391
:1087A000D2E70F4A0121C2F808B0002286F8301043
:1087B000F262019355F0C2F8019B9DE70A2BB8BF06
:1087C0000A23C1E71034002095CD00208801002045
:1087D00098CD002008DA0020581A0020B44100206B
:1087E00018E800209C0500102DE9F047CF4C2DED36
:1087F000028BA36820469847002800F0D480CC4B19
:108800001B780122042B84F85C2000F0D080B4F99E
:108810001A3006EE903AB4F91C3007EE103AB4F96B
:108820001E3007EE903AF8EEE66AB8EEC77AF8EE38
:10883000E77AC4ED146A84ED157AC4ED167ABD4B5F
:108840001B88002B60D0BC4B94ED142AD4ED152A64
:1088500094ED163A93ED008AD3ED054A93ED090A9B
:10886000D3ED0E3AD3ED120A93ED174A93ED011AA8
:1088700093ED065AD3ED0A1A93ED0F6AD3ED137AEE
:1088800093ED187AD3ED045AD3ED0D6AE8EE024A5F
:10889000E0EE223AA3EE204AA1EE025AA1EEA26A2D
:1088A000A3EE277A93ED038AD3ED167A93ED020AAD
:1088B000D3ED0C0A93ED0B1AD3ED151AC4ED144A3F
:1088C00065EEE45AA8EE645A66EEE36AD3ED144A04
:1088D00083ED055A67EEC47AE0EE025AA0EEE36A31
:1088E000E1EE226AA4EE617AE3EE247AC3ED065A41
:1088F000C4ED153A83ED0E6AC3ED0F6A83ED177A66
:10890000C3ED187A84ED164A94F8221009296BD029
:108910008A480CF0F1FE8A4E8A4D3288D5F8F43040
:10892000002A40F02581884A1268500700F1BF8074
:10893000B3F9022094ED146A94ED167A94ED155A69
:10894000824905EE902AB3F90420B3F9003007EE0E
:10895000902A06EE903AF8EEE55A7D4B0A68D3ED80
:10896000013A93ED004AD3ED024AF8EEE66AF8EEDA
:10897000E77A75EE655A76EE666A77EE677AC4ED49
:10898000155A34EE266A73EEA55A34EEA77A0132F0
:10899000C3ED015AC4ED146A83ED006AC4ED167A82
:1089A00083ED027A0A60BDEC028BBDE8F087B4F972
:1089B0001A00B4F91C10B4F91E20664B07EE900A99
:1089C000F8EEE76A07EE901AB8EEE77A07EE902A1B
:1089D000F8EEE77AC4ED146A188059809A8084ED25
:1089E000157AC4ED167A2AE794ED157AD4ED0D6A5E
:1089F000D4ED0E7A94ED0F2AD4ED145AD4ED0A2A50
:108A000094ED0B3AD4ED0C3A94ED166A94ED104ABD
:108A1000D4ED114A94ED125A4F4B67EE266A67EE79
:108A2000277A27EE027AE5EEA26A1B78E5EE837AD2
:108A3000A5EEA37AE6EE046AE6EE247AA6EE057ABF
:108A4000C4ED146AC4ED157A84ED167A002B7FF418
:108A500062AF424B93ED046AD3ED035A93ED052ABE
:108A600093ED013AD3ED002AD3ED023A93ED064A95
:108A7000D3ED074A93ED085A27EE866A67EEA55AAA
:108A800067EE827AA6EE836AE6EEA25AE6EEA37A53
:108A9000F0EE466AE7EE045AE7EE246AE7EE057A5E
:108AA000C4ED145AC4ED156AC4ED167A33E7B5F86F
:108AB0000421322A00F0E680002A40F00C8195F86B
:108AC0002221002A3FF434AFD5F81C01244ED5F8FA
:108AD0001411D5F81821278B86FB00ECC017C0EBCA
:108AE0002C10C01B86FB01C786FB02C6C917D21714
:108AF000C1EB2711C2EB26121A4E198098805A80BA
:108B0000DFF864C000230222B381F381012785F8D6
:108B100022318CF80E20778130F00AFA2FF05EFABD
:108B2000384612F061FAD5F8F43001E788040010F5
:108B300095CD00209A2B00209C2B0020D8040010FB
:108B4000F8210020581A002014E8002034C8002022
:108B500038C8002098CD0020580200200C2B00209F
:108B60001F85EB51FC3F00202CE40020000000009A
:108B7000B2F5C87F18BFD5ED3E7A94ED147A0CBFDC
:108B80005FED067AF8EEE77A4FF0000C002077EE02
:108B9000877AC4F850C018803788FDEEE77AB7F5B9
:108BA000C87F17EE902AC5ED3E7A58D0D5ED3F7AB2
:108BB00094ED156AD4ED166AC4F854C0B8EEE77A9D
:108BC000D5ED407A5880F8EEE77A37EE067A77EE00
:108BD000A67ABDEEC77AFDEEE77A012FC4F858C039
:108BE00017EE108A17EE901A85ED3F7AC5ED407AA0
:108BF000988031D1DFF8E0C1B4F818E0C8318CFBBF
:108C000001A9C832C91708F1C808C1EBE9118CFBEA
:108C100002A9D2178CFB08ACC2EBE9194FEAE8783D
:108C2000674AA3F80090A1EB0E01C8EBEC18DFF83F
:108C3000ACC19980A3F8028002239081D081578132
:108C40008CF80E3030F074F92FF0C8F9384612F075
:108C5000CBF93788D5F8F430013F378063E694EDDF
:108C6000157AD4ED167AC4F854C0BDEEC77AFDEE7D
:108C7000E77A588085ED3F7AC4F858C0C5ED407A50
:108C80009880E9E7D4ED146A94ED157AD4ED167A5C
:108C90004B491E68C968C5F80861FDEEE66ABDEE7D
:108CA000C77AFDEEE77AB3F90460C5F81011002029
:108CB0000021A5F80C61C5ED456A2065198085ED98
:108CC000467A60655980A065C5ED477A9980013A7A
:108CD000A5F80421F3E6D5ED457A94ED145AD4EDC8
:108CE000155A94ED166AF8EEE76AD5ED467AB8EEB5
:108CF000E77AD5ED477AF8EEE77A76EE856A37EED1
:108D0000257A77EE867AFDEEE66ABDEEC77AFDEE4D
:108D1000E77A00200021012AC5ED456A2065198007
:108D200085ED467A60655980A065C5ED477A9980E2
:108D3000CDD1244885F82011016885F821218903C7
:108D400032D4214E002031460F780B2F01F10C0157
:108D50000DD001301928F7D1D5F80811196018493C
:108D6000B5F90C61D5F810019E80C860AFE7174FC8
:108D7000D7F800C04100BCF1000F09D001EB000E94
:108D800006EB8E0E9CF801C09EF801E0E645E3D2AA
:108D90000144DFF84CC00E4806EB810600213E601E
:108DA000ACF800100160D7E70A4909780329C8D157
:108DB00011F0CEFFD5F8F430B5F80421CCE700BFB0
:108DC000FC3F0020302B0020E05606083C2B002002
:108DD000442B0020F53700201F85EB512CE40020A8
:108DE000402B00202DE9F04FA84BA94D1B7895F89A
:108DF0000080DB0785B007467BD5A64CA64EB8F1B0
:108E0000010F52D01DD3B8F1020F06D1A34AA44BD3
:108E100012881B889A4200F28280E37B002B2DD0BF
:108E2000A3895BB39F4B1B7843B32CF0E9FB00286D
:108E300000F0F380237C83422CBF01220022327099
:108E40001DE0994B954A1B88617C12885B1A9A42F7
:108E5000964A3CDC9649E37D1268D1F8241103EB75
:108E60008303521A03EB8303B2EB830FD5DBE37B5F
:108E70004FF0010885F80080002BD1D13278217A9B
:108E8000632907D88B48B8F1020F037800F0878078
:108E9000002B70D18849A37B904538BF904681F85C
:108EA0000080CBB905B0BDE8F08F7D4B7B4A1B88B5
:108EB000617C12885B1A9A4237DD7B4B1B88934298
:108EC00038BF4FF00008794A38BF85F80080784BEA
:108ED0001268C3F82421A0E7B8F1010F00F09780D1
:108EE000B8F1020FDED1072005B0BDE8F04F11F058
:108EF0004BBF6A49674C0A88A8F10303012B54D978
:108F00004B88D31A002BB8BF5B42142B05DCE388D7
:108F100093421ED8218891421BD35F4E6FE7634A6C
:108F2000634B1268C3F82421A1E7604A6049237E9D
:108F30001268D1F8241103EB8303521A03EB830365
:108F4000B2EB830FFFF669AF4FF0020885F800809F
:108F500063E7B2EB430F504E3FF751AF0323514845
:108F600051494F4A33702B70002303700B801380DC
:108F70004FF0030851E74368504DFB1AAB42C8BF9E
:108F8000417087DCC1F164014D4D03FB01F385FBAA
:108F90000351DB17A3EBA153643343707AE7002B33
:108FA000E9D1012547600570ECE7E388934225D8B5
:108FB0002088904222D34B88374ED31A002BB8BF5B
:108FC0005B42142B3FF729AF237D002030702870BF
:108FD00033B3344A80461370A188334AB4F802C0D0
:108FE0002F489BB211FB03F111801CFB03F3314AA4
:108FF0000380642100235170536000E7B2EB430FFC
:10900000D9DCB8F1030F7FF47BAF234EB0E7082023
:1090100005B0BDE8F04F11F0B7BE022232702EE766
:10902000284B21881B68B2FBF1F10131082993F923
:109030007220DFF87080A8BF0821CBB28A4288F87E
:1090400000306CD0002A6AD01F4ADFF880E092F826
:1090500000A00AF10102AEFB029C4FEA5C0C0CEB93
:109060004C0CA2EB0C0CD445624658D0DFF860B033
:109070008A2000FB0CB999F97290894555D0CDE949
:1090800001E003934FF0FF3028E000BFCEAA00209C
:10909000643A0020D4350020653A0020483600208C
:1090A000384D002050360020364D0020A8D8002032
:1090B000581A00203C4D0020F53700207F9698007C
:1090C0006BCA5F6BB4E900202CE40020ABAAAAAA0B
:1090D000A01F00209EF97290894523D002F1010E55
:1090E000019AA2FB0E32520802EB4202029BAEEB47
:1090F0000202002803FB02BE03DAB9F1000F08BF29
:10910000604652459446E5D1039B002807DBC0B278
:109110002EF0BCFA98F8003095F800805CE74FF02C
:10912000000859E7039B1046EFE76046EFE700BFF2
:109130002DE9F04B84B03CF039FDE8B19A4C41F296
:10914000CC63E358002B1ADC6378022B1CD0032B72
:1091500012D141F2E873E35C2BBB41F2D463E35CD0
:109160004BBB41F21873E35C0BBB41F25C73E35CF5
:1091700013B18E483CF08AFC04B0BDE8F08B3BF0A4
:109180001DFA6378022BE2D1A3784FF00109072B77
:10919000F2D8DFE813F05600E5006C00510017002C
:1091A000A600B000140082483CF070FCD5E781486E
:1091B0003CF06CFCD9E780483CF068FCD1E7032325
:1091C0006370D9E72278237DDFF80C827B4E032A77
:1091D00014BF4FF480778027002B00F0AD80012B67
:1091E000FAD1774B62681968D8F800004FEA412C31
:1091F00000234FF0FF31B1FBFCF112EB010B43F107
:10920000000C0021614500F1020008BF584538BF3D
:1092100083465A466B4902203BF0C0FE032800F209
:10922000C08001A353F820F0799100080F93000843
:10923000799100080F93000863480378002B9BD0B6
:1092400098E7002303AD2946184609223BF031FB7D
:10925000012891D1039B93F8FE21552A00F0BE808E
:1092600041F2E47202210123A154637084E7574B59
:10927000009303253023052255495348A5703FF03C
:10928000B1FC79E723690622652BA27033D92278D5
:10929000032A14BF6FF0FF026FF07F02A3F1650392
:1092A00003EA020303F1010314BF4FF4807280222A
:1092B0009A4223611FD2D8F80020E66802329F1933
:1092C000974202D33BF0EAF92369424A6660D16FC4
:1092D000A760490203FB01F342E907330521166049
:1092E000A170A268354901203BF039FD012840F00A
:1092F00013810623A370002133483BF06FFC012843
:1093000040F00A81A3780133DBB2A3703FE7D4E9D0
:1093100001232569991AA94288BFC4E903210328BA
:10932000B0D00133B3FBF7F207FB12320AB13B4472
:109330009B1A002263602275D8F800203146023261
:1093400000203BF02BFE03282BD801A353F820F07C
:109350007991000897930008799100088592000898
:1093600003AD41F62C062946A059002309223BF003
:10937000A0FA01287FF400AF0023039A2370B2F80B
:109380000B30B3F5007F6BD041F2E472032101236F
:10939000A1546370F0E6636884F814900133A3600D
:1093A0001FE7237D18E700BF08050120641C01208A
:1093B000F01C0120201C0120DC1B01200C050120D9
:1093C000481D012010050120A81C01202D32040891
:1093D000A8D30608CC1C0120401D012093F8FF21D2
:1093E000AA2A7FF43DAFD3F8C61149B193F8C22140
:1093F000A2F10B0001282DD902F0F702062A29D08C
:10940000D3F8D61149B193F8D221A2F10B0001286B
:1094100020D902F0F702062A1CD0D3F8E61149B190
:1094200093F8E221A2F10B00012813D902F0F70210
:10943000062A0FD0D3F8F61100293FF411AF93F8A4
:10944000F231A3F10B02012A04D903F0F703062B32
:109450007FF406AF41F62C020123A150A37080E7F0
:10946000137C022B90D192F8FE31552B8CD192F8BF
:10947000FF31AA2B88D1D589A7592F4941F6300051
:109480002F442750567B0E60731E7F2B3FF67CAF18
:10949000734236EA03037FF477AF41F64801730263
:1094A000013B6350D18A01B9516A41F6340341F658
:1094B0005000E150B2F811305B0103F2FF135B1270
:1094C0002350B2F8130000B9106A49001D440D443E
:1094D000401B41F6380C40F6F475B0FBF6F0A8429C
:1094E00044F80C0025D94FF6F475A8421DD9032085
:1094F0002070D56A41F610023B440B4441F63C0013
:1095000041F64C01A25C235065500AB93BF02AF8A1
:10951000A3780133A3702FE602287FF42DAE41F229
:10952000E4720123A354637026E602222270002510
:10953000E0E70123237027E7481D0120038A2DE976
:10954000F047B0F80C9019EA030928D00E460546FA
:109550004FF000474FF00008B9FA89F327FA03F2F9
:10956000D24391B21B3B09EA02092982042B13D88A
:10957000DFE803F0322920170300736A002B34D18F
:10958000EB6A1FFA83FA346A34B1236820465146E5
:1095900098476468002CF8D1B9F1000FDCD1BDE820
:1095A000F0873068696B036889B29847B9F1000F9A
:1095B000D2D1F4E77068A96B036889B29847B9F112
:1095C000000FC9D1EBE7B068E96B036889B298472F
:1095D000B9F1000FC0D1E2E7F068296C036889B2E5
:1095E0009847B9F1000FB7D1D9E703F1FF3A1FFA55
:1095F0008AFAC6F82480C6E7F0B5056E0171044604
:10960000A889A668814F20F400500004000CA881AE
:1096100062792B8A10039BB223F4405300F400506C
:10962000184312F0040F01F001034FEA02222882CE
:1096300002F480620CBF00204FF48050002B0CBF5E
:1096400008230C2342EA00020CBF0020042011F082
:10965000020FA98908BF03461A430F403A43AA8163
:10966000AA8A22F44072120491B0120CAA8201A8B4
:109670003EF032F9664B9D4205D003F580639D4272
:1096800001D0039B00E0049BAA8912044CBF710027
:10969000B100604EAA8903EB830303EB8303B3FBA2
:1096A000F1F1A6FB013040096423170403FB1013FA
:1096B0004FEA001000F18D801B013233A6FB03231B
:1096C000C3F3431303439BB22B816279236E12F0E1
:1096D000080F9A8A05BF22F00802120442F008021D
:1096E000120C9A829A8942F400529A812279D60702
:1096F00034D5E26B002A7BD001A83DF005FE4FF483
:109700008070E36D0A904FF4803002930B90002339
:109710004FF48060626CE1680693CDE90833CDE9CF
:109720000C33CDE90E33049307906369E06B01922B
:10973000039305913DF024FE01A9E06B3DF0F5FD9A
:10974000E26B236E116841F001011160998A41F0CA
:10975000400199825168227989B26165950732D5B5
:10976000226C002A3FD001A83DF0CEFDA36D0293EC
:109770004FF480330B934FF480630025A26C216972
:109780000793206C01924023049305910A95069556
:10979000CDE90855CDE90C55CDE90E553DF0F0FD6C
:1097A00001A9206C3DF0C1FD226C236E516941F08E
:1097B00080015161116841F01601116055609A8A6B
:1097C00042F080029A829A8942F400529A8111B042
:1097D000F0BDDB0003F13202A6FB0223C3F3421209
:1097E00042EA00036FE7DA6842F08002DA60EAE7F3
:1097F0004FF6DF721A80DA6842F02002DA60DA6827
:1098000042F01002DA602279A8E700BFF3E9FFFF17
:10981000001001401F85EB51F0B5056E81600E46CA
:10982000A98921F4005109040446090CA98162792F
:109830002B8A27797D4811039BB223F4405301F40E
:109840000051194312F0040F07F001034FEA0222FE
:10985000298202F480620CBF00214FF48051002B5A
:109860000BBF08230C234FF0000C4FF0040C0A43ED
:1098700017F0020FA98908BF63461A430840024344
:10988000AA81AA8A22F44072120491B0120CAA8210
:1098900001A83EF021F8664B9D4205D003F5806398
:1098A0009D4201D0039B00E0049BAA8912044CBF97
:1098B0007100B1005F4EAA8903EB830303EB8303BE
:1098C000B3FBF1F1A6FB013040096423170403FB4D
:1098D00010134FEA001000F18D801B013233A6FBFC
:1098E0000323C3F3431303439BB22B816279236E9B
:1098F00012F0080F9A8A05BF22F00802120442F003
:109900000802120C9A829A8942F400529A812279B2
:10991000D60734D5E26B002A7BD001A83DF0F4FCD9
:109920004FF48070E36D0A904FF4803002930B90F7
:1099300000234FF48060626CE1680693CDE9083340
:10994000CDE90C33CDE90E33049307906369E06BE6
:109950000192039305913DF013FD01A9E06B3DF0E9
:10996000E4FCE26B236E116841F001011160998AF9
:1099700041F0400199825168227989B26165950769
:1099800032D5226C002A3FD001A83DF0BDFCA36D6A
:1099900002934FF480330B934FF480630025A26C45
:1099A00021690793206C01924023049305910A9545
:1099B0000695CDE90855CDE90C55CDE90E553DF09C
:1099C000DFFC01A9206C3DF0B0FC226C236E5169D4
:1099D00041F080015161116841F01601116055603C
:1099E0009A8A42F080029A829A8942F400529A81BD
:1099F00011B0F0BDDB0003F13202A6FB0223C3F37A
:109A0000421242EA00036FE7DA6842F08002DA604D
:109A1000EAE74FF6DF721A80DA6842F02002DA6075
:109A2000DA6842F01002DA602279A8E7F3E9FFFF72
:109A3000001001401F85EB51884B89482DE9F0410A
:109A400078220124874E1C7000215AF077FD864A47
:109A50008649874D002330460B6013602CF0DEF8FA
:109A6000214620462CF02AF9214608202CF026F920
:109A70006F7A804A804BB2F8602093FBF2F3391C76
:109A800018BF01210A20C6F810322CF017F97B4BC1
:109A90001B78002B40F09E8095F80A8018F1000199
:109AA0004FF00B0018BF01212CF008F9AB7B002B05
:109AB00000F08180724C002F40F08A8018F1000184
:109AC00018BF01216F4D0C202CF0F8F82B68D80737
:109AD00000F19480990705D56B4FB7F84C30002BF7
:109AE00040F0AC80012107202CF0E8F8674B0920FA
:109AF00093F828112CF0E2F801210D202CF0DEF86B
:109B000021680E20C1F3C0112CF0D8F829680F206D
:109B1000C1F3C0012CF0D2F829681020C1F38001F4
:109B20002CF0CCF82B685A0756BF21680121C1F3ED
:109B3000C01111202CF0C2F821681220C1F340415D
:109B40002CF0BCF821684B0549D4C1F30041142026
:109B50002CF0B4F8216811F4802104D04C4B196822
:109B6000003118BF012115202CF0A8F8216816201B
:109B7000C1F3C0612CF0A2F801211B202CF09EF84B
:109B800001211C202CF09AF8012117202CF096F8C6
:109B9000012118202CF092F8012119202CF08EF8C8
:109BA0003C4B196800314FF01A0018BF0121BDE885
:109BB000F0412CF083B8EB7B314C002B7FF47BAF72
:109BC000216811F480213FF47DAF002F3FF476AF80
:109BD000012177E741F28833C6F890325CE7012132
:109BE00013202CF06BF82C4B21685B78083B012B81
:109BF0009CBF4FF4FA63C6F8D034A6E7274BD3E9ED
:109C000001320A2AB8BF0A220A2BB8BF0A2301214F
:109C10000220C6F89020C6F8D030C6F810312CF0DB
:109C20004DF8012103202CF049F8012104202CF0EB
:109C300045F81B4A2B68012111704BE701210520D3
:109C40002CF03CF801210620B7F84C200A4B93FB7E
:109C5000F2F3C6F850312CF031F843E7EC05001070
:109C6000F8080010700C002070090010F4080010B3
:109C7000D435002050E9002040420F000845002064
:109C800014E800201034002088040010581A002026
:109C900014E4002080950020F4E70020A4250010A3
:109CA000F0080010074B1B7853B9074B00F1200256
:109CB00050F8041B43F8041B9042F9D1012070476F
:109CC0000020704701330020D432002008B5094B32
:109CD0001B78014613B1084B1B7843B9152206487F
:109CE0005AF06AFC054B012083F8290108BD0020C9
:109CF000FCE700BF0033002080450020581A0020F8
:109D000008B5094B1B78014613B1084B1B7843B9C2
:109D1000052206485AF050FC054B012083F8290122
:109D200008BD0020FCE700BF00330020984500205C
:109D3000581A002038B5164C94F86631002B154B94
:109D400014BF012200221A700BD0052204F5A6715F
:109D500011485AF031FC152204F251110F485AF003
:109D60002BFC94F86731002B0D4B14BF012200220D
:109D70001A700CD00B4C0C4A04F12005234603CB7F
:109D8000AB42106051601C4602F10802F6D138BDAA
:109D9000581A0020003300209845002080450020FC
:109DA00001330020841B0020D432002038B50C4B36
:109DB0001B789BB90B4B0C4C03F1200518685968B4
:109DC000224603C20833AB421446F7D1074B0124A5
:109DD00083F86741FFF7AEFF204638BD0020FCE75F
:109DE00001330020D4320020841B0020581A0020A8
:109DF00038B50B4C94F8295185B10522094904F571
:109E0000A6705AF0D9FB1522074904F251105AF0F6
:109E1000D3FB012384F86631FFF78CFF284638BD59
:109E2000581A00209845002080450020F0B50C29E4
:109E300034D8DFE801F08A3333335F3333333433DC
:109E400033330700048C9689B2F802C01788744D2A
:109E500024F480542404240C0484038C8488818B8F
:109E600023F4005321F4E6411B0409041B0C46EAC9
:109E70000C06090C43EA063341EA0721A8429BB2CB
:109E8000A4B289B200F09E8005F58065A84200F07A
:109E9000998092688480818302640384F0BD048C7D
:109EA0009589B2F802E017885D4E24F4807424048A
:109EB000240C0484038CB0F804C0818B23F4007359
:109EC0001B0421F0730145EA0E041B0C090443EA4C
:109ED0000423090CB0429BB21FFA8CF541EA07013A
:109EE0005BD0504CA04258D0926885808183C26379
:109EF0000384F0BD048C9589B2F802E0B2F800C08A
:109F0000474E24F010042404240C0484038C878816
:109F1000018B23F0200321F4E6411B0409041B0CF0
:109F200045EA0E04090C43EA041341EA0C21B0424D
:109F30009BB2BFB289B25BD03A4CA04258D0926873
:109F40008780018382630384F0BD048C9589B2F815
:109F500002C01788324E24F001042404240C048427
:109F6000018C8488038B21F0020123F07303090420
:109F70001B04090C45EA0C051B0CB04241EA050123
:109F8000A4B243EA070324D0264DA84221D0926808
:109F90008480038342630184F0BDD489168A578A82
:109FA00023F4006343EA04234FF6FF341C409388F4
:109FB00025F440553E4344EA032345EA06149BB288
:109FC000A5B291E7158A24F4804444EA8514A4B22A
:109FD0005FE7D689158A578A21F0080131439688B0
:109FE00024F4407421F004013D4331432C43CEE777
:109FF000D489168AB2F812C023F0800343EA04130E
:10A000004FF6BF741C40938827F4406546EA0C065F
:10A0100044EA031345EA86049BB2A7B28FE700BF68
:10A0200000000140000401402DE9F0474FF40C729C
:10A0300000213448344D354E354FDFF8E480DFF8E9
:10A04000E490DFF8E4A05AF079FA324A3248DFF8B7
:10A05000DCC0DFF8DCE002F51C6426E0B3F1804FE1
:10A060002FD0B34232D0BB4232D0634532D0734599
:10A0700032D0434532D04B4532D0534532D02749B8
:10A080008B4232D001F580618B4231D0A1F59831FD
:10A090008B4230D001F580618B422ED001F580617A
:10A0A0008B422CD02032944209D013688342D5D100
:10A0B00001216B6C20320B4394426B64F5D1BDE8F7
:10A0C000F08701212B6C0B432B64EBE70221F9E7AE
:10A0D0000421F7E70821F5E71021F3E72021F1E754
:10A0E0000221E6E74FF48031E3E74FF40031E0E787
:10A0F0004FF48021DDE74021E4E78021E2E74FF4DF
:10A100008071DFE740420020003802400004004038
:10A1100000080040004606080000014000440140DD
:10A12000001400400004014000400140000C0040C9
:10A13000001000402DE9F843304D2B8AB5F80C8013
:10A1400018EA030827D02E4E4FF00047B8FA88F3DC
:10A1500027FA03F2D24391B21B3B08EA0208298294
:10A16000042B15D8DFE803F0372D23190300D6F8A8
:10A170002C32002B39D1EB6A1FFA83F9D6F828422A
:10A1800034B123682046494698476468002CF8D1CA
:10A19000B8F1000FDAD1BDE8F883D6F80802696B90
:10A1A000036889B29847B8F1000FCFD1F3E7D6F82A
:10A1B0000C02A96B036889B29847B8F1000FC5D1AA
:10A1C000E9E7D6F81002E96B036889B29847B8F15D
:10A1D000000FBBD1DFE7D6F81402296C036889B2FF
:10A1E0009847B8F1000FB1D1D5E703F1FF3900234B
:10A1F0001FFA89F9C6F82C32C0E700BF00200040E2
:10A20000404200202DE9F843304D2B8AB5F80C80F0
:10A2100018EA030827D02E4E4FF00047B8FA88F30B
:10A2200027FA03F2D24391B21B3B08EA02082982C3
:10A23000042B15D8DFE803F0372D23190300D6F8D7
:10A24000DC31002B39D1EB6A1FFA83F9D6F8D841FB
:10A2500034B123682046494698476468002CF8D1F9
:10A26000B8F1000FDAD1BDE8F883D6F8B801696B10
:10A27000036889B29847B8F1000FCFD1F3E7D6F859
:10A28000BC01A96B036889B29847B8F1000FC5D12A
:10A29000E9E7D6F8C001E96B036889B29847B8F1DD
:10A2A000000FBBD1DFE7D6F8C401296C036889B27F
:10A2B0009847B8F1000FB1D1D5E703F1FF3900237A
:10A2C0001FFA89F9C6F8DC31C0E700BF001800406A
:10A2D000404200202DE9F843304D2B8AB5F80C8020
:10A2E00018EA030827D02E4E4FF00047B8FA88F33B
:10A2F00027FA03F2D24391B21B3B08EA02082982F3
:10A30000042B15D8DFE803F0372D23190300D6F806
:10A31000B431002B39D1EB6A1FFA83F9D6F8B0417A
:10A3200034B123682046494698476468002CF8D128
:10A33000B8F1000FDAD1BDE8F883D6F89001696B67
:10A34000036889B29847B8F1000FCFD1F3E7D6F888
:10A350009401A96B036889B29847B8F1000FC5D181
:10A36000E9E7D6F89801E96B036889B29847B8F134
:10A37000000FBBD1DFE7D6F89C01296C036889B2D6
:10A380009847B8F1000FB1D1D5E703F1FF390023A9
:10A390001FFA89F9C6F8B431C0E700BF0048014090
:10A3A000404200202DE9F843304D2B8AB5F80C804F
:10A3B00018EA030827D02E4E4FF00047B8FA88F36A
:10A3C00027FA03F2D24391B21B3B08EA0208298222
:10A3D000042B15D8DFE803F0372D23190300D6F836
:10A3E0006431002B39D1EB6A1FFA83F9D6F860414A
:10A3F00034B123682046494698476468002CF8D158
:10A40000B8F1000FDAD1BDE8F883D6F84001696BE6
:10A41000036889B29847B8F1000FCFD1F3E7D6F8B7
:10A420004401A96B036889B29847B8F1000FC5D100
:10A43000E9E7D6F84801E96B036889B29847B8F1B3
:10A44000000FBBD1DFE7D6F84C01296C036889B255
:10A450009847B8F1000FB1D1D5E703F1FF390023D8
:10A460001FFA89F9C6F86431C0E700BF0040014017
:10A47000404200202DE9F843324D2B8AB5F80C807C
:10A4800018EA030827D0304E4FF00047B8FA88F397
:10A4900027FA03F2D24391B21B3B08EA0208298251
:10A4A000042B15D8DFE803F03B31271D0300D6F855
:10A4B0003C31002B3DD1EB6A1FFA83F9D6F83841C5
:10A4C00034B123682046494698476468002CF8D187
:10A4D000B8F1000FDAD11D491D48BDE8F843FFF778
:10A4E0002DB8D6F81801696B036889B29847B8F19E
:10A4F000000FCBD1EFE7D6F81C01A96B036889B236
:10A500009847B8F1000FC1D1E5E7D6F82001E96B13
:10A51000036889B29847B8F1000FB7D1DBE7D6F8E6
:10A520002401296C036889B29847B8F1000FADD1B6
:10A53000D1E703F1FF3900231FFA89F9C6F83C314E
:10A54000BCE700BF0004014040420020204400203E
:10A55000001C00402DE9F843304D2B8AB5F80C80E3
:10A5600018EA030827D02E4E4FF00047B8FA88F3B8
:10A5700027FA03F2D24391B21B3B08EA0208298270
:10A58000042B15D8DFE803F0372D23190300D6F884
:10A590003C31002B39D1EB6A1FFA83F9D6F83841E8
:10A5A00034B123682046494698476468002CF8D1A6
:10A5B000B8F1000FDAD1BDE8F883D6F81801696B5D
:10A5C000036889B29847B8F1000FCFD1F3E7D6F806
:10A5D0001C01A96B036889B29847B8F1000FC5D177
:10A5E000E9E7D6F82001E96B036889B29847B8F12A
:10A5F000000FBBD1DFE7D6F82401296C036889B2CC
:10A600009847B8F1000FB1D1D5E703F1FF39002326
:10A610001FFA89F9C6F83C31C0E700BF00040140C9
:10A62000404200202DE9F843304D2B8AB5F80C80CC
:10A6300018EA030827D02E4E4FF00047B8FA88F3E7
:10A6400027FA03F2D24391B21B3B08EA020829829F
:10A65000042B15D8DFE803F0372D23190300D6F8B3
:10A66000C430002B39D1EB6A1FFA83F9D6F8C04009
:10A6700034B123682046494698476468002CF8D1D5
:10A68000B8F1000FDAD1BDE8F883D6F8A000696B05
:10A69000036889B29847B8F1000FCFD1F3E7D6F835
:10A6A000A400A96B036889B29847B8F1000FC5D11F
:10A6B000E9E7D6F8A800E96B036889B29847B8F1D2
:10A6C000000FBBD1DFE7D6F8AC00296C036889B274
:10A6D0009847B8F1000FB1D1D5E703F1FF39002356
:10A6E0001FFA89F9C6F8C430C0E700BF000C00406B
:10A6F000404200202DE9F8432F4D2B8AB5F80C80FD
:10A7000018EA030827D02D4E4FF00047B8FA88F317
:10A7100027FA03F2D24391B21B3B08EA02082982CE
:10A72000042B15D8DFE803F0352B22190300D6F8E7
:10A730009C30002B37D1EB6A1FFA83F9D6F898408A
:10A7400034B123682046494698476468002CF8D104
:10A75000B8F1000FDAD1BDE8F883B06F696B036818
:10A7600089B29847B8F1000FD0D1F4E7F06FA96B28
:10A77000036889B29847B8F1000FC7D1EBE7D6F864
:10A780008000E96B036889B29847B8F1000FBDD12A
:10A79000E1E7D6F88400296C036889B29847B8F1DC
:10A7A000000FB3D1D7E703F1FF3900231FFA89F96E
:10A7B000C6F89C30C2E700BF0008004040420020BD
:10A7C0002DE9F8432C4D2B8AB5F80C8018EA0308C4
:10A7D00025D02A4E4FF00047B8FA88F327FA03F243
:10A7E000D24391B21B3B08EA02082982042B13D8FA
:10A7F000DFE803F0322920170300736F002B34D1F8
:10A80000EB6A1FFA83F9346F34B123682046494656
:10A8100098476468002CF8D1B8F1000FDCD1BDE88E
:10A82000F883306D696B036889B29847B8F1000FFF
:10A83000D2D1F4E7706DA96B036889B29847B8F17B
:10A84000000FC9D1EBE7B06DE96B036889B2984797
:10A85000B8F1000FC0D1E2E7F06D296C036889B24E
:10A860009847B8F1000FB7D1D9E703F1FF390023BA
:10A870001FFA89F97367C6E70004004040420020D0
:10A880002DE9F8434FF080452B8AB5F80C8018EA83
:10A89000030825D0294E4FF00047B8FA88F327FA6D
:10A8A00003F2D24391B21B3B08EA02082982042B2F
:10A8B00013D8DFE803F0322920170300F36C002BD4
:10A8C00034D1EB6A1FFA83F9B46C34B123682046A3
:10A8D000494698476468002CF8D1B8F1000FDCD1E4
:10A8E000BDE8F883B06A696B036889B29847B8F12C
:10A8F000000FD2D1F4E7F06AA96B036889B29847D8
:10A90000B8F1000FC9D1EBE7306BE96B036889B28E
:10A910009847B8F1000FC0D1E2E7706B296C03686B
:10A9200089B29847B8F1000FB7D1D9E703F1FF39E1
:10A9300000231FFA89F9F364C6E700BF40420020F4
:10A940002DE9F8432E4D2B8AB5F80C8018EA030840
:10A9500025D02C4E4FF00047B8FA88F327FA03F2BF
:10A96000D24391B21B3B08EA02082982042B13D878
:10A97000DFE803F0362D241B0300736A002B38D167
:10A98000EB6A1FFA83F9346A34B1236820464946DA
:10A9900098476468002CF8D1B8F1000FDCD11A494F
:10A9A0001A48BDE8F843FEF7C9BD3068696B036813
:10A9B00089B29847B8F1000FCED1F0E77068A96B63
:10A9C000036889B29847B8F1000FC5D1E7E7B068CE
:10A9D000E96B036889B29847B8F1000FBCD1DEE794
:10A9E000F068296C036889B29847B8F1000FB3D1B9
:10A9F000D5E703F1FF3900231FFA89F97362C2E733
:10AA00000000014040420020A843002000440140D3
:10AA10002DE9F8432C4D2B8AB5F80C8018EA030871
:10AA200025D02A4E4FF00047B8FA88F327FA03F2F0
:10AA3000D24391B21B3B08EA02082982042B13D8A7
:10AA4000DFE803F0322920170300736A002B34D1AA
:10AA5000EB6A1FFA83F9346A34B123682046494609
:10AA600098476468002CF8D1B8F1000FDCD1BDE83C
:10AA7000F8833068696B036889B29847B8F1000FB2
:10AA8000D2D1F4E77068A96B036889B29847B8F12E
:10AA9000000FC9D1EBE7B068E96B036889B298474A
:10AAA000B8F1000FC0D1E2E7F068296C036889B201
:10AAB0009847B8F1000FB7D1D9E703F1FF39002368
:10AAC0001FFA89F97362C6E7000001404042002086
:10AAD000F0B40568AB0AA3F58013522B5AD8364C54
:10AAE000E45C0D2C56D84379B5F80CC0022023FA4B
:10AAF00000F6B04087B2A0003346061903EB4603C8
:10AB00002E4E00294ED047EA0C0703F1040C46F8FC
:10AB1000231046F82C20AF812023282717FB043769
:10AB2000F319EFF31181502282F31288021906EB18
:10AB3000C202D2F810C0BCF1000F03D046F807C023
:10AB400013690433021906EBC202576917B11F607B
:10AB500053690433021906EBC202976917B11F60EB
:10AB600093690433021906EBC202D76917B11F605B
:10AB7000D36904330022C9B21A6081F311880444F6
:10AB800006EBC406336A3BB9AB8923F001031B040F
:10AB90001B0CAB81F0BC7047AB8943F00103AB8168
:10ABA000F0BC70472CEA070703F1040CAF8146F8AC
:10ABB000231046F82C20AFE734A8060840420020B6
:10ABC00010B503687D487E4C0139834282B0246809
:10ABD00089B200F0B180A0F58060834200F0AC80C3
:10ABE00000F58040834200F0828000F5806083425F
:10ABF0007DD000F58060834279D018886408B4FB6A
:10AC0000F2F4013CA4B282B2B3F1804F0AD06D4895
:10AC1000834207D000F58060834203D000F5806056
:10AC2000834202D122F0700292B26748834200F060
:10AC3000918000F58060834200F0958022F440729C
:10AC400000F56C4092B283421A80D9621C8540F0B4
:10AC50009380012100221A86998219885B4841F06D
:10AC60000101834219804AD0B3F1804F00F08F80F8
:10AC7000544A934200F08D8002F58062934200F0C6
:10AC80008A8002F58062934200F0878002F580623C
:10AC9000934200F0848002F58062934200F081804C
:10ACA00002F5704293427ED002F5705293427CD0FE
:10ACB00002F5806293427AD002F58062934278D0A6
:10ACC000A2F59832934276D002F58062934215D075
:10ACD00002F58062934208BF0D2210D002A84FF007
:10ACE000012340F8043D3CF053FA02B010BD18882F
:10ACF000B4FBF2F4013CA4B282B285E70C22344BDF
:10AD000003EBC20201A892F8E1498DF80440012347
:10AD100000228DF805308DF807308DF806203CF0C4
:10AD200037FA1B2C0FD02E2CDFD12A4B019301A810
:10AD30003CF02EFA02B010BD1888B4FBF2F4013CCE
:10AD4000A4B282B26EE7244B019301A83CF020FA32
:10AD500002B010BD01201A80D9621C8598821A8821
:10AD600002431A8084E701201A80D9621C859882E8
:10AD70001A8802431A8077E7104A93423FF469AF7A
:10AD800001229A821A8842F001021A806CE701229D
:10AD9000B5E70222B3E70322B1E70422AFE70522B9
:10ADA000ADE70622ABE70722A9E70822A7E70922B9
:10ADB000A5E70A22A3E70B22A1E700BF0004014098
:10ADC000BCCF002000040040001000400000014003
:10ADD000E44506082C010001190100012C4B9842A2
:10ADE0003DD0B0F1804F3CD0A3F57C4398423AD09F
:10ADF00003F58063984238D003F58063984236D0DB
:10AE000003F58063984234D003F58063984234D0D0
:10AE100003F57043984232D003F5705398422AD01C
:10AE200003F5806398422CD003F5806398422AD0C2
:10AE3000A3F59833984228D003F58063984207D051
:10AE400003F58063984208BF0D2202D000207047AE
:10AE50000C22104B03EBC20393F8E0097047002269
:10AE6000F7E70122F5E70222F3E70322F1E70422E4
:10AE7000EFE70522EDE70822EBE70622E9E70722E4
:10AE8000E7E70922E5E70A22E3E70B22E1E700BF53
:10AE900000000140E4450608800AA0F58010522811
:10AEA00008D8054B1B5C0D2B04D8044A134493F9B6
:10AEB0004C0A70470020704734A80608E44506088D
:10AEC00070B40E4E102433460125002203E00132F7
:10AED0004E2A0BD01C79A04203F12003F7D18D42FA
:10AEE00007D0013201354E2AEDB2F3D1002070BCFB
:10AEF000704706EB421070BC704700BF0046060862
:10AF0000002330B40E4A1D46012403E001330C2B0C
:10AF10000CD0947930EA040402F12002F6D1A9425F
:10AF200007D0013301350C2BEDB2F2D1002030BC3B
:10AF30007047044A02EB431330BC93F8600A704731
:10AF400040500608E44506082DE9F843214C064622
:10AF50000F46002514F8010C58B12378194643B167
:10AF6000FFF7AEFF014620B10068FFF795FFB04242
:10AF700022D00135152D04F10304EBD1164BD3F883
:10AF80000090B9F1000F21DD03F1040841460024CF
:10AF900002E00134A14519D08D682868FFF77CFFD5
:10AFA000864201F58071F4D16B79BB42F1D108EB97
:10AFB000042303F1FC000AE04B79BB42D9D10748D6
:10AFC00010F8153000EB45000BB9D7E70448BDE891
:10AFD000F88300BFC9CD00201400001008CE002067
:10AFE000C05106082DE9F04128B3154E002402E0B7
:10AFF0000134152C1FD065002B19F718F35C834220
:10B00000F6D17B78ABB1884619461746FFF758FF53
:10B0100006460068FFF740FF7179FFF795FF037858
:10B020004BB9084B1D4403F814806F703046BDE8DF
:10B03000F0811B68FFDE00263046BDE8F08100BFCE
:10B04000C8CD002008CE002010B40B49002301E039
:10B05000152B0CD003EB430201338C5C84420A4471
:10B06000F6D1517818B111B15DF8044B28E70020F2
:10B070005DF8044B704700BFC8CD002008B101B196
:10B080001EE70020704700BF10B40A49002301E00A
:10B09000152B0AD003EB430201338C5C84420A4433
:10B0A000F6D110465DF8044B704700205DF8044B64
:10B0B000704700BFC8CD00209A4AF0B402F5C470B2
:10B0C000994F9A4D012603E00832904200F020810A
:10B0D0009379002BF8D1136803F13F4101F57E010C
:10B0E000890A795C01F01F044909032906FA04F46E
:10B0F00000F01481042900F00D81022902D1696C4D
:10B100000C436C649188CC070DD51C6824F00304B3
:10B110001C601C681C60DC6824F00304DC60DC68D4
:10B1200044F00104DC608C070DD51C6824F00C048D
:10B130001C601C681C60DC6824F00C04DC60DC68AB
:10B1400044F00404DC604C070DD51C6824F0300486
:10B150001C601C681C60DC6824F03004DC60DC6867
:10B1600044F01004DC600C070DD51C6824F0C0040A
:10B170001C601C681C60DC6824F0C004DC60DC68B7
:10B1800044F04004DC60CC060DD51C6824F4407407
:10B190001C601C681C60DC6824F44074DC60DC68A3
:10B1A00044F48074DC608C060DD51C6824F4406483
:10B1B0001C601C681C60DC6824F44064DC60DC6893
:10B1C00044F48064DC604C060DD51C6824F44054C3
:10B1D0001C601C681C60DC6824F44054DC60DC6883
:10B1E00044F48054DC600C060DD51C6824F4404403
:10B1F0001C601C681C60DC6824F44044DC60DC6873
:10B2000044F48044DC60CC050DD51C6824F4403443
:10B210001C601C681C60DC6824F44034DC60DC6862
:10B2200044F48034DC608C050DD51C6824F4402483
:10B230001C601C681C60DC6824F44024DC60DC6852
:10B2400044F48024DC604C050DD51C6824F44014C3
:10B250001C601C681C60DC6824F44014DC60DC6842
:10B2600044F48014DC600C050DD51C6824F4400403
:10B270001C601C681C60DC6824F44004DC60DC6832
:10B2800044F48004DC60CC040DD51C6824F04074C8
:10B290001C601C681C60DC6824F04074DC60DC68A6
:10B2A00044F08074DC608C040DD51C6824F040648C
:10B2B0001C601C681C60DC6824F04064DC60DC6896
:10B2C00044F08064DC604C040DD51C6824F04054CC
:10B2D0001C601C681C60DC6824F04054DC60DC6886
:10B2E00044F08054DC6009047FF5EEAE196821F06B
:10B2F0004041196019681960D96821F04041D9604E
:10B30000D968083241F080419042D9607FF4E0AEC4
:10B31000F0BC7047296B0C432C63F3E6296C0C439B
:10B320002C64EFE634CE002068C8060800380240DE
:10B330002DE98048013085B0C3B20393954C964FF8
:10B34000DFF860A2954D964E0A2302934FF08CFBD6
:10B350004FF4FA73DFF850E201934FF01008DAF877
:10B360000430C3F30803002B40F0D280EFF31183C5
:10B37000002B40F0CD802068AA6823689842FAD15B
:10B3800033689A42F7D8D7F800C04FF47A7101FBBE
:10B390000CF39B1AB3FBFCF301FB00304FF47A7CF7
:10B3A0004FF00109DAF80430C3F30803002B40F032
:10B3B0009180EFF31183002B40F08C802368A96803
:10B3C00022689342FAD132689142F7D83A680CFB6E
:10B3D00002FBABEB0101B1FBF2F10CFB03131B1AF7
:10B3E000B3F57A7FDED3019B013B0193B7D103987C
:10B3F0004FF08EF94FF47A73DFF8ACE101934FF020
:10B400001008DAF80430C3F30803002B40F0A180E1
:10B41000EFF31183002B40F09C802068AA6823681A
:10B420009842FAD133689A42F7D8D7F800C04FF45F
:10B430007A7101FB0CF39B1AB3FBFCF301FB0030A8
:10B440004FF47A7C4FF00109DAF80430C3F30803B3
:10B4500013BBEFF31183FBB92368A96822689342F9
:10B46000FAD132689142F7D83A680CFB02FBABEB99
:10B470000101B1FBF2F10CFB03131B1AB3F57A7F48
:10B48000E2D3019B013B0193BBD1029B013B0293A1
:10B490007FF45CAF54F0CEF9EFF3118188F312889A
:10B4A000D5F808B02B68DB0344BFCEF80090D5F880
:10B4B00008B02368DEF80020C9B281F3118839682A
:10B4C00013440CFB01F2A2EB0B02B2FBF1F20CFBFA
:10B4D0000323D2E7EFF3118188F31288D5F808B07F
:10B4E0002B68DB0344BFCEF80090D5F808B0236882
:10B4F000DEF80020C9B281F31188396813440CFBCF
:10B5000001F2A2EB0B02B2FBF1F20CFB032366E7A4
:10B51000EFF3118388F31288D5F808C02A68D203A4
:10B5200004D50122CEF80020D5F808C02068DEF846
:10B530000090DBB283F3118839684FF47A72484483
:10B5400002FB01F3A3EB0C03B3FBF1F302FB0030AE
:10B5500024E7EFF3118388F31288D5F808C02A682E
:10B56000D20304D50122CEF80020D5F808C0206807
:10B57000DEF80090DBB283F3118839684FF47A72F9
:10B58000484402FB01F3A3EB0C03B3FBF1F302FB12
:10B59000003055E7A8D80020ACD8002010E000E02B
:10B5A000B0D8002000ED00E0A4D800202DE9F04F35
:10B5B00085B0CDE902109B4DDFF878A2029B013BDC
:10B5C0000293013300F02A814FF04EFA964C974FC8
:10B5D000DFF864E2964E4FF4FA7301934FF01008CF
:10B5E000DEF80430C3F30803002B40F0F680EFF3DD
:10B5F0001183002B40F0F1802068AA6823689842EC
:10B60000FAD133689A42F7D8D7F800C04FF47A716C
:10B6100001FB0CF39B1AB3FBFCF301FB00304FF46E
:10B620007A7C4FF00109DEF80430C3F30803002BE5
:10B6300040F0B580EFF31183002B40F0B080236819
:10B64000A96822689342FAD132689142F7D83A68E1
:10B650000CFB02FBABEB0101B1FBF2F10CFB0313A2
:10B660001B1AB3F57A7FDED3019B013B0193B7D15F
:10B67000039B6F4E581CC0B24FF04AF8DFF8B8E198
:10B680004FF47A730193DEF80430C3F308034FF0EC
:10B690001008002B44D1EFF31183002B40D1206818
:10B6A000AA6823689842FAD133689A42F7D8D7F843
:10B6B00000C04FF47A7101FB0CF39B1AB3FBFCF34F
:10B6C00001FB00304FF47A7C4FF00109DEF80430C2
:10B6D000C3F30803002B44D1EFF31183002B40D1B7
:10B6E0002368A96822689342FAD132689142F7D858
:10B6F0003A680CFB02FBABEB0101B1FBF2F10CFB76
:10B7000003131B1AB3F57A7FE0D3019B013B01932E
:10B710003FF454AFDEF80430C3F30803002BBAD073
