:020000040800F2
:10000000F0FF01209D640508D3290108FD6702085F
:10001000156505081565050815650508000000004B
:10002000000000000000000000000000D1290108CD
:10003000CF29010800000000CD29010861680208ED
:100040001565050815650508156505081565050894
:1000500015650508156505080DA8010839A90108E9
:10006000FDA80108C1A8010885A80108110401081C
:1000700001040108F1030108E1030108CD030108AF
:10008000B9030108A5030108156505080000000073
:1000900000000000000000000000000049A8010866
:1000A00001F20108EDF5010831F1010871F70108CD
:1000B0002DF501086DF40108A1F301081565050887
:1000C0001565050815650508156505081565050814
:1000D0001565050839A001087D9F01080000000092
:1000E000D1A7010815650508916F010800000000FF
:1000F0000000000000000000000000009103010863
:100100000000000015650508D1F201081565050815
:1001100000000000000000000000000000000000DF
:100120007D03010869030108550301084103010823
:100130002D03010800000000000000000000000086
:10014000000000000000000000000000753A0108F7
:100150001903010805030108F102010815650508E6
:100160001565050815650508000000000000000081
:10017000000000000000000000000000000000007F
:1001800000000000156505080000000000000000E8
:08019000156505081565050859
:080198003460050001000000C5
:1001A0001002010001000000D8310020D4310020ED
:1001B00000000000A80800081D0202000600000060
:1001C0009C1E0020DC310020000000000000000028
:1001D000081203000F000000A41E0020E4340020D9
:1001E00000000000958600082700010004000000C0
:1001F00058190020F434002000000000AA0800086C
:10020000F581010068000000E4440020E84C002073
:100210000000000041E40408232001001000000059
:10022000B4480020504D002000000000F97B020877
:10023000FD07010076000000704C0020604D00209A
:100240000000000025A504080B3001001A00000082
:10025000F0450020084E002000000000B008000813
:100260001F30010024000000903C0020244E00209C
:1002700000000000CC080008050201000400000096
:10028000F4470020484E002000000000F00800085D
:10029000030101000A000000504500204C4E0020E0
:1002A00000000000FD0E0108130201000400000020
:1002B0001C350020584E002000000000F408000803
:1002C0002802040004000000084F00200C4F00200A
:1002D00000000000CD860008270204000400000092
:1002E000044F0020104F002000000000C1860008CD
:1002F0001A0201003C000000584F0020A8580020BE
:1003000000000000258F0008031201003D000000DE
:10031000F8560020E458002000000000F80800080B
:100320003810010001000000204F00202459002057
:100330000000000036090008F62101000C00000052
:10034000CC6800207C6A002000000000380900080A
:100350001C0202001C00000054690020CC6A00202E
:1003600000000000818C000814000100040000005F
:1003700090680020E86A002000000000440900089E
:10038000012001000C000000205F0020EC6A00202A
:1003900000000000480900080C2006005802000078
:1003A000305C0020F86A00200000000019560308A5
:1003B0000EF003009E0100006C5A0020506D0020DA
:1003C00000000000C1E40308130001000400000065
:1003D00060660020F06E0020000000005409000854
:1003E0000101010004000000B8590020F46E002053
:1003F00000000000000000000001010004000000F7
:10040000B0590020F86E00200000000058090008D4
:100410000201010003000000AC590020FC6E002026
:100420000000000039560308220201001C010000F0
:1004300048640020006F002000000000F18D0008DB
:10044000020001000C000000AC7000204071002090
:100450000000000000000000290201004000000030
:100460002C7000204C710020000000005C09000886
:100470000A02010014000000D07700205C7E0020FA
:1004800000000000AD6A0308F8210100060000002A
:10049000207B0020707E0020000000009C090008E6
:1004A00003000100010000002C7B0020787E00206A
:1004B0000000000000000000101001000200000019
:1004C000947200207C7E002000000000A209000839
:1004D00025201E002C010000EC770020807E0020EB
:1004E00000000000000000001900010005000000ED
:1004F000B08C0020F08C002000000000A40900084F
:100500001A0001000E000000288B0020F88C00204B
:1005100000000000AA090008203201000A000000C3
:10052000188A0020088D002000000000A1E40308C4
:100530001500100070000000FC830020148D0020C6
:1005400000000000000000002A0008006000000019
:10055000D48B0020848D00200000000079E4030883
:100560002C00040010000000F48D0020E48D002019
:10057000000000005DE103082B00120024000000D1
:10058000288E0020048E0020000000002DE10308CA
:100590002920140078000000A88100204C8E002043
:1005A0000000000000000000010201000B0000003C
:1005B000CCAA0020A8B80020000000008586000812
:1005C0001B02010010000000B8AA0020B4B80020EF
:1005D00000000000D18600081B1001000C00000084
:1005E000B8A40020C4B800200000000001BD040829
:1005F00021020100F000000038A30020D0B8002044
:10060000000000007DBA0408231201001000000061
:10061000E4AA0020C0B9002000000000B8090008CA
:10062000371001002E00000028AA0020D0B90020B9
:1006300000000000C80900080E02010002000000CE
:10064000D8AA002000BA002000000000F609000827
:100650001610010006000000C0A7002004BA002008
:1006600000000000F80900082F100100220000001F
:1006700084B800200CBA002000000000FE09000829
:100680001E0001000900000068A7002030BA002009
:1006900000000000200A000805100100060000000C
:1006A000A4A700203CBA0020000000002A0A00088D
:1006B0000D1001004000000008E40020E8EE0020DA
:1006C00000000000A91A03080400080080000000D0
:1006D00048E3002028EF0020000000000000000098
:1006E0000902010001000000F0E20020A8EF002054
:1006F00000000000300A0008F901010004000000B9
:10070000D8E20020ACEF002000000000B971010821
:10071000FD0101002400000090E20020B0EF002065
:10072000000000000B7101081820010032000000D9
:1007300058E20020D4EF002000000000A98E00083D
:10074000FB010100010000009CE0002008F00020F7
:1007500000000000598D0008FC01010009000000A4
:1007600068DF00200CF0002000000000698D000808
:10077000F70101000600000060DF002018F00020F3
:1007800000000000320A0008160215003F000000B9
:1007900070BF002020F0002000000000398E00080B
:1007A0003400010010000000ECDD002060F00020AB
:1007B000000000003DEC03081102010008000000E9
:1007C000C4DD002070F0002000000000380A00089E
:1007D0001212010004000000BCDD002078F00020AF
:1007E00000000000400A00080A8001002800000004
:1007F0004CD600207CF0002000000000E17A0208C6
:10080000061001001C00000094BE0020A4F000208F
:1008100000000000858D000812200100110000007A
:1008200008CE0020C0F0002000000000440A0008AC
:10083000000201000B00000044CB0020D4F0002097
:1008400000000000000000000202010003000000A0
:1008500058BE0020E0F00020000000000000000072
:100860000C0201000400000008BE0020E4F000209B
:10087000000000006D8600081F0208001000000044
:1008800034CB0020E8F00020000000005186000872
:10089000FE01010014000000A4CA0020F8F00020AE
:0808A0000000000021860008A1
:1008A8000000200300000000AE014A015E012C0197
:1008B80064010100000001000A019A01001E0A00FB
:1008C8000002000000000000000100000005000018
:1008D800010203000000000000000000000000000A
:1008E8000000000000800700000000000000010078
:1008F80000000000000000000000000000000000F0
:1009080000000000000000000000000000000000DF
:1009180000000000000000000000000000000000CF
:1009280000000000000000000000000001000000BE
:100938000000000001000000020200000300002384
:10094800E8036400040A000114001E00480444007F
:1009580090010000000000000000000000000000FE
:10096800000000000000000000000000000000007F
:10097800000000000000000000000000000000006F
:10098800000000000000000000000000000000005F
:10099800000000000201F401140000050000280115
:1009A80000007E05EA05B4053200E803D007000020
:1009B800000000000000000000000000000000002F
:1009C80020003200C800D00796001400320028002A
:1009D8004C0440060005500014000F000800640095
:1009E8000100000005000A000000F4019600000064
:1009F800C409000019000000000000000000000009
:100A080000000000000000000000000000000000DE
:100A180000000000000000000005010000000000C8
:100A2800000020000301000029002201000000004E
:100A38000000000001010101FFFFFFFF00000001AD
:0D0A48000001054D4234310000080002009D
:100A5500FF010000F4010000FF000000449A0508B2
:100A65000000000000000000010203040607080959
:100A75000403090412010002EF0201408304563207
:100A850000020102030100001201000202020040FF
:100A950083044057000201020301000009026400BB
:100AA500030100C032090400000103000000092110
:100AB500110100012236000705830309000A080B0E
:100AC5000102020201000904010001020201000500
:100AD5002400100105240100020424020205240655
:100AE5000102070582030800FF09040200020A004B
:100AF50000000705010240000007058102400000D3
:100B050009024300020100C032090400000102028B
:100B1500010005240010010524010001042402023E
:100B25000524060001070582030800FF09040100EA
:100B3500020A0000000705010240000007058102C6
:100B450040000000FF00000000FF00000000000062
:100B55000000AA550701000001AA55050100000083
:100B65007EFF0800BC9C0508FF1FFF1F0501090546
:100B7500A101A100050109300931093209330935FF
:100B85000934093609371581257F750895088102CD
:100B95000509190129081500250195087501810226
:100BA500C0C0000009022200010100E03209040072
:100BB500000103010200092111010001223600078D
:100BC50005830309000A0000000000000102030478
:100BD5000102030406070809DF2D0108DD320108BB
:100BE500592E010833080108870C0108430801083C
:100BF5005F0801080D080108FF0701080000000053
:100C0500000000002D202D2D202D2D2D2D202D2DEA
:100C15002D2D000000000000000000000000000075
:100C2500000000AA550B010000AA5505010000AA05
:100C3500550902000000AA5503009F0001000000AD
:100C4500C0120000D84D002000000000004E00201A
:100C550000000000840D0608000D060800000000D5
:100C6500A5560308A086010004000000000000004E
:100C7500000000000000000000000000000000006F
:100C8500000000000000000000000000000000005F
:100C950000000000840D06088C0D06080000000009
:100CA50079E30108E80300000400000000000000EB
:100CB500000000000000000000000000000000002F
:100CC500000000000000000000000000000000001F
:100CD50000000000940D0608000000000000000060
:100CE500E56503087D000000FF000000000000002E
:100CF50000000000000000000000000000000000EF
:100D050000000000000000000000000000000000DE
:100D150000000000B05A06080000000000000000B6
:100D2500E97903087D000000FF00000000000000D5
:100D350000000000000000000000000000000000AE
:100D4500000000000000000000000000000000009E
:100D550000000000A471060800000000000000006B
:100D650069BE03087D000000FF00000000000000D0
:100D7500000000000000000000000000000000006E
:100D8500000000000000000000000000000000005E
:100D9500000000009C0D0608000000000000000097
:100DA500F5E60108E803000003000000000000006C
:100DB500000000000000000000000000000000002E
:100DC500000000000000000000000000000000001E
:100DD50000000000A00D0608000000000000000053
:100DE50035860408102700000300000000000000FD
:100DF50000000000000000000000000000000000EE
:100E050000000000000000000000000000000000DD
:100E150000000000885606080000000081DE030877
:100E2500D13602085F7600000500000000000000D2
:100E350000000000000000000000000000000000AD
:100E4500000000000000000000000000000000009D
:100E550000000000385A06080000000000000000ED
:100E6500F5680208102700000100000000000000DE
:100E7500000000000000000000000000000000006D
:100E8500000000000000000000000000000000005D
:100E950000000000AC0D0608000000000000000086
:100EA5007DE30108E80300000500000000000000E4
:100EB500000000000000000000000000000000002D
:100EC500000000000000000000000000000000001D
:100ED50000000000B80D060800000000000000003A
:100EE500096D0308204E000003000000000000000B
:100EF50000000000000000000000000000000000ED
:100F050000000000000000000000000000000000DC
:100F150000000000C80D06080000000000000000E9
:100F2500E96A0308204E00000300000000000000ED
:100F350000000000000000000000000000000000AC
:100F4500000000000000000000000000000000009C
:100F550000000000D80D0608000000000000000099
:100F6500B5E30108400D0300030000000000000088
:100F7500000000000000000000000000000000006C
:100F8500000000000000000000000000000000005C
:100F950000000000E80D0608000000000000000049
:100FA500D91B030810270000010000000000000005
:100FB500000000000000000000000000000000002C
:100FC500000000000000000000000000000000001C
:100FD500000000002C0D06080000000000000000C5
:100FE5007DC8040810270000030000000000000071
:100FF50000000000000000000000000000000000EC
:1010050000000000000000000000000000000000DB
:1010150000000000F00D06080000000000000000C0
:1010250049E20108A861000001000000000000007D
:1010350000000000000000000000000000000000AB
:10104500000000000000000000000000000000009B
:1010550000000000FC0D0608000000000000000074
:10106500A9070208A00F0000010000000000000011
:10107500000000000000000000000000000000006B
:10108500000000000000000000000000000000005B
:1010950000000000080E0608000000000000000027
:1010A50031EF0408102700000100000000000000D7
:1010B500000000000000000000000000000000002B
:1010C500000000000000000000000000000000001B
:1010D50000000000140E06080000000000000000DB
:1010E50055E704081A410000010000000000000057
:1010F50000000000000000000000000000000000EB
:1011050000000000000000000000000000000000DA
:1011150000000000180E0608000000000000000096
:101125002D0F01081027000001000000000000003D
:1011350000000000000000000000000000000000AA
:10114500000000000000000000000000000000009A
:1011550000000000140D060800000000000000005B
:10116500D9C9020850C300000100000000000000BA
:10117500000000000000000000000000000000006A
:10118500000000000000000000000000000000005A
:1011950000000000240E060800000000000000000A
:1011A500A1180108400D0300000000000000000028
:1011B500000000000000000000000000000000002A
:1011C500000000000000000000000000000000001A
:1011D500000000002C0E06080000000000000000C2
:1011E5002DFD0208400D0300000000000000000076
:1011F50000000000000000000000000000000000EA
:1012050000000000000000000000000000000000D9
:1012150000000000340E0608000000000000000079
:10122500F1F9040850C300000300000000000000AD
:1012350000000000000000000000000000000000A9
:101245000000000000000000000000000000000099
:1012550000000000400E060800000000000000002D
:1012650039B8030840420F000000000000000000EC
:101275000000000000000000000000000000000069
:101285000000000000000000000000000000000059
:10129500000000004C0E06080000000000000000E1
:1012A50071FE020850C300000000000000000000AD
:1012B5000000000000000000000000000000000029
:1012C5000000000000000000000000000000000019
:1012D5000000000001000000FFFF0000FFFFFFFF0E
:1012E5007C56060800000802050303000000000004
:1012F50084560608010008020504030000000000EA
:10130500708306080200FE010110030000000000C2
:101315008C560608030014020003000000000000BC
:101325009456060804001F02020008000000000091
:101335009C56060805001F02020108000000000077
:1013450001000000A00F0000B80B00000102FFFF24
:1013550001FF000001000000C1710208000000004B
:101365000000000028D6050878610020CC61002027
:10137500D601000000000000000000000000000091
:1013850044EC05080000000000000000000000001B
:10139500FCEC050800000000000000000000000053
:1013A500A8EC05080000000000000000F9A10208F3
:1013B500D1630020FF010100CDB502080000000047
:1013C50000000000D0ED050801B90208000000008A
:1013D5000000000088ED05082D202D2D202D2D2D38
:1013E5002D202D2D2D000000000000000000000024
:1013F5000000000000000000FFFFFFFFDDA702085E
:101405000000000000000000D4EB0508010000000A
:10141500FA000000010000000100000001010000C9
:1014250000010101000000001A5F00200000F40126
:1014350001000000185F00200000F4010100000019
:10144500165F00200000F40101000000145F002079
:101455000000F40101000000125F00200000F4010B
:1014650001000000105F00200000F40101000000F1
:101475000E5F00200000F401010000009D790208C4
:101485006179020800000000A4D80508FE5E00206E
:10149500053201000C5F00206400F401010000002A
:1014A5000A5F00206400C40901000000FC5E002002
:1014B500E803D00701000000FA5E0020E803D0072A
:1014C50001000000F85E0020E803D00701000000DD
:1014D500F65E00201E00B80B01000000045F00202E
:1014E50005000F0001000000065F002003000A0050
:1014F50001000000F45E00201E00F4010100000060
:10150500085F00200200000030D90508F25E0020C7
:101515001400640001000000005F00203200E803B1
:1015250001000000F05E00200000C800010000007E
:101535002D5C002000C801002C5C0020005001003B
:101545002B5C0020005A0100295C002002000000ED
:101555003CD90508A8690608B06906082E47002089
:101565000100C409000000002C4700200100C40947
:10157500000000002A4700200100C4090000000007
:10158500284700200100C40900000000244700206E
:101595000100C40900000000264700200100C4091D
:1015A50000000000224700200100C40900000000DF
:1015B500204700200100C40900000000D759002081
:1015C50000C80100D659002000C80100D4590020E8
:1015D5000000FFFF0A000000D25900200100C800EA
:1015E50001000000D05900203200307532000000A3
:1015F500CE59002005820500CC59002005002C019C
:1016050005000000CA590020055A0500C7590020E9
:1016150000FF0100C9590020020000009C0C0020B9
:10162500C55900200300000040FC0508C6590020EC
:1016350000FF0100C8590020020000009C0C00209A
:10164500C45900200300000040FC0508F178020899
:10165500817802080000000048D90508305F0020A5
:10166500EE02CA08010000002E5F002000C801003C
:10167500640000002D5F002000C801006400000028
:101685002C5F00200200000054DA0508BE59002036
:101695000000803E05000000BC59002080C1803E4E
:1016A50005000000B65900200083007D05000000FC
:1016B500B459002080C1803E05000000AF590020CC
:1016C50000FF0100A85900206400F401010000009A
:1016D500A65900200400000060DA0508A55900207D
:1016E5000200000074DA05085D5A00200D000000B4
:1016F50080DA05085A5A002000640100585A002073
:10170500320010270A000000565A00200D00000084
:1017150080DA0508555A00200D00000080DA05081A
:10172500545A002002000000B8DA0508365F002090
:101735003E000000C4DA0508345F00200100FF7F89
:1017450001000000335F002002000000C0DB050837
:101755005F5A002003000000D0DB05085E5A002018
:1017650003000000D0DB05081A5C0020000A010018
:10177500185C00200000E80301000000165C002052
:101785000000E80301000000145C00200000E803ED
:1017950001000000125C00200000E80301000000C9
:1017A5000A5C00200000E80301000000105C002036
:1017B5000000E803010000000E5C00200000E803C3
:1017C500010000000C5C002000140100285C0020D2
:1017D50002000000E0DB0508265C00200000F401A3
:1017E50001000000245C00200000F401010000005D
:1017F500225C00200000F40101000000205C0020B4
:101805000000F401010000001E5C00200000A00F94
:10181500010000001C5C00200000A00F010000007A
:10182500DD5E002019640100DC5E0020020000007E
:10183500ECDB0508985E0020E803D0070A000000ED
:10184500965E0020006401000A0000008B5E002007
:10185500006401008A5E002000640100925E0020A1
:10186500006401000A000000915E00200064010090
:101875000A000000905E0020006401000A000000DC
:10188500955E002000FF01000A000000945E002024
:1018950000FF01000A000000935E002000FF010028
:1018A5000A0000008F5E002001FF01000A00000011
:1018B5008E5E002001FF01000A0000008D5E002001
:1018C50001FF01000A000000685A00200000F40131
:1018D50001000000665A00200000A00F0100000072
:1018E500645A00200000A00F01000000625A002089
:1018F5000000A00F01000000605A00200000A00FAA
:10190500010000001964002000C8010018640020CF
:1019150000640100176400200064010016640020C3
:1019250000640100156400200064010014640020B7
:10193500FF0801001364002001640100F977020823
:10194500BD77020800000000F8DB05081C640020D4
:10195500013201001B6400200100000068DC05085D
:101965001A6400200400000070DC050812640020E1
:1019750000640100106400201400E8030100000069
:101985000E640020E80330750A0000000D64002095
:1019950000C801000C64002000C801000B64002091
:1019A50000C801000A640020003201001E64002006
:1019B500004B01001D6400200400000084DC0508C4
:1019C50009640020006401000A0000002C64002066
:1019D5000000D007010000002764002000C80100B6
:1019E5002664002000C801002564002000C801000D
:1019F5002A6400200000D0070100000024640020B4
:101A050000C801002364002000C8010022640020F2
:101A150000C80100286400200000D0070100000074
:101A25002164002000C801002064002000C80100D6
:101A35001F64002000C80100B175020899750208ED
:101A45000000000098DC0508515A0020005A0100EA
:101A5500505A002000C801004E5A0020E803D00764
:101A650001000000000000000000000039A202088B
:101A750034DD05084D414D42414634313100000009
:101A8500C359002000030100C259002000030100D2
:101A9500D574020889740208000000007CDD050881
:101AA50049740208017402080000000018DE0508E8
:101AB50021750208C1A702080000000098DE05088C
:101AC500C059002001030100297A0208FD790208A6
:101AD50000000000F0E1050885730208397302086B
:101AE5000000000060E20508C1750208B1C10208E6
:101AF50000000000FCE20508DDA20208557A020894
:101B050000000000A4E305081176020800000000AB
:101B15000000000024E40508ED7602089576020829
:101B25000000000088E4050881770208457702086F
:101B35000000000030E505080DF7020835780208B9
:101B450000000000BCE50508EF5E0020010601006D
:101B5500597602082576020800000000B8E6050857
:101B65003FF602085DA902080000000028E7050805
:101B750045F7020825AA02080000000078E80508D4
:101B8500EE5E00200103010069750208397502083F
:101B9500000000004CE90508A1F70208000000005C
:101BA50000000000B0E90508D1730208A9A70208E2
:101BB5000000000030EA05080000000000000000F9
:101BC50000000000BCEA0508597802089DAA020831
:101BD500000000002CEB05080000000000000000DC
:101BE5000000000044ED0508A04700209CFF2C01E3
:101BF50000000000F8650020E0150C17000000004B
:101C050064630020020000007CED0508A059002057
:101C150088136F1701000000A259002088136F1761
:101C250000000000D6E500200000000000000000D4
:101C3500D4E500200000000000000000D2E50020EF
:101C45000000000000000000D0E5002000000000BA
:101C550000000000CEE500200000000000000000AC
:101C6500CCE50020000000000000000088030020F3
:101C750000000000000000002859002003000000BB
:101C85006CEE05089859002088136F1701000000B5
:101C9500EA47002088136F170000000079720208D8
:101CA50000000000000000007CEE050865630020D0
:101CB50001000000D0EE0508EC47002001000000FF
:101CC500DCEE0508E247002002000000E4EE05080E
:101CD500000000000000000000000000F0EE050814
:101CE5006172020800000000000000008CEF05088A
:101CF500000000000000000000000000E0EF050803
:101D050000000000000000000000000050F0050881
:101D1500A45900200200000088F00508E6470020CD
:101D2500E0150C1700000000550C01084F0B0108C9
:101D3500352D010800000000FD07010829340108C0
:101D4500D50A0108192B0108000000000000000059
:101D5500BD070108C70B0108110B0108792C010803
:101D650000000000D50701081B2B0108A70A010880
:101D7500832A01080000000000000000C9070108CF
:101D85000000FA430000FA430000803F0000803F56
:101D9500000000000000000000000000E51D030831
:101DA500000000000000000000000000FFFFFFFF32
:101DB500000000004C7E002008000000000000002C
:101DC5003C7E00200800000020000000010000000B
:101DD500C48E0020FFFFFFFF0000803F00000000D1
:101DE50000000000000000000000803F000000002F
:101DF50000000000000000000000000000000000DE
:101E050000000000000000000000000000000000CD
:101E15000000803F000000000000000000000000FE
:101E25000100000000000100E0010000FFFFFFFFCE
:101E3500FF000000FFFFFFFF0801FF010800000091
:101E45000000040100000000000000021000000076
:101E5500070000007D0000000060024010600240A5
:101E65000000000000000000000B00000000000062
:101E750000000000000000000060024028600240F1
:101E85000100000000000000060C0000000000003A
:101E950000000000000000000060024040600240B9
:101EA5000200000000000000100D0000000000000E
:101EB5000000000000000000006002405860024081
:101EC5000300000000000000160E000000000000E6
:101ED5000000000000000000006002407060024049
:101EE5000400000000000000200F000000000000BA
:101EF5000000000000000000006002408860024011
:101F05000500000000000000261000000000000091
:101F1500000000000000000000600240A0600240D8
:101F25000600000000000000301100000000000065
:101F3500000000000000000000600240B8600240A0
:101F45000700000000000000362F00000000000020
:101F55000000000000000000006402401064024020
:101F65000000000000000000003800000000000034
:101F750000000000000000000064024028640240E8
:101F8500010000000000000006390000000000000C
:101F950000000000000000000064024040640240B0
:101FA5000200000000000000103A000000000000E0
:101FB5000000000000000000006402405864024078
:101FC5000300000000000000163B000000000000B8
:101FD5000000000000000000006402407064024040
:101FE5000400000000000000203C0000000000008C
:101FF5000000000000000000006402408864024008
:10200500050000000000000026440000000000005C
:10201500000000000000000000640240A0640240CF
:102025000600000000000000304500000000000030
:10203500000000000000000000640240B864024097
:102045000700000000000000364600000000000008
:102055000000000000000000850701088307010853
:10206500810701087B070108790701087F07010837
:102075007D07010895070108870701086514010810
:1020850079140108511401083D14010827140108A9
:10209500010100000000803F01000000E81700205A
:1020A500000000000000000000000000000000002B
:1020B500000000000000000000000000000000001B
:1020C500000000000000000000000000000000000B
:1020D50000000000000000000000000000000000FB
:1020E50000000000000000000000000000000000EB
:1020F50000000000000000000000000000000000DB
:082800000000000000000000D0
:1080000090ED057A90ED004AD0ED066AD0ED014A78
:10801000D0ED047A90ED035AD0ED025AA4EE007A26
:10802000B0EE406AB0EE470AB0EE667AA4EE867A09
:1080300067EEC07AA5EE407AE5EE867A80ED057AA5
:10804000C0ED067A704700BFD0ED057A90ED013A99
:10805000D0ED003AD0ED064A90ED024A90ED077A55
:1080600090ED035A90ED086AD0ED045AC0ED067AFF
:10807000F0EE406A27EE830AC0ED056AA3EEA60A79
:1080800080ED087AA4EE240AA5EE470AA5EEC60AFA
:1080900080ED070A704700BFDFED2B7AB4EEE70AE8
:1080A000F1EE10FA4ADDDFED296A9FED297A01E051
:1080B000B0EE670AB4EEC70AF1EE10FA70EE667A17
:1080C000F6DC9FED247AF4EEC77AF1EE10FA38D59B
:1080D000DFED1E6A9FED207A01E0F0EE407AF4EECB
:1080E000C77AF1EE10FA37EEA60AF6D4DFED1B7A66
:1080F000B4EEE70AF1EE10FA14DDDFED137A37EE95
:10810000C00A60EE006A9FED166A9FED167ADFEDF9
:10811000167AA6EE867A20EE266AE6EE877AA6EE34
:10812000270A7047DFED117AB4EEE70AF1EE10FA94
:1081300044BFDFED087A37EEC00AE2E7F0EE407A9E
:10814000BFE7B0EE670AD1E7DB0F4940DB0FC9405C
:10815000E4CB1641DB0F49C0E4CB16C1DB0FC93FAE
:1081600092E741B99730083C15A82ABEDB0FC9BF7A
:10817000D0ED007A90ED017A30EE670AE7EE007AF2
:10818000B0EE670AC0ED007A704700BF704700BFCD
:108190000028F0B403DA2D230B7040420131092886
:1081A00004464FF0010307DD03EB83035B00B0FBE4
:1081B000F3F2092AF8D883B10F48A0FB0326B4FBD9
:1081C000F3F2092A02F1570C02F1300709DD03FB33
:1081D0001244F30801F801CBEFD100230B70F0BC7F
:1081E000704703FB1244F30801F8017BE5D100233B
:1081F0000B70F0BC704700BFCDCCCCCC884270B4C3
:108200004FF0010442D301FB04F4B0FBF4F58D42BE
:10821000F9D2ECB142BB092D04FB150005F157065C
:1082200005F130020EDDB4FBF1F403F8016B7CB113
:10823000B0FBF4F5092D04FB150005F1570605F117
:108240003002F0DCB4FBF1F403F8012B002CEFD189
:1082500000221A7070BC704703F8016BB4FBF1F494
:10826000002CF5D0B0FBF4F5092D04FB150005F149
:10827000370605F13002EFDCB4FBF1F403F8012B13
:10828000002CEFD100221A7070BC70470546002AFE
:10829000EAD1C0E70388B3F5FA6F17D38378013BBF
:1082A0000B2B13D8C378013B1E2B0FD80379172B48
:1082B0000CD843793B2B09D883793B2B06D800890E
:1082C000B0F57A7F2CBF0020012070470020704756
:1082D0002DE9F04714461D4606464FF47A720023F6
:1082E000204629464DF00EFF4D4BDFF848814D4AA0
:1082F0004D4F034488FB03101844D91782FB032C0D
:10830000C1EB601088FB002887FB03279C44474A89
:10831000C1EBEC2CC0EB001E82FB0C29A3EB8E0EF4
:108320001F44434A86F806E0C1EB27474FEAEC7E3C
:1083300008EB000ACEEBA90E82FB07824FEAE07839
:108340000EEB4E0EC8EB6A18ACEBCE0CC8EB08185F
:10835000DFF8E4E086F804C0A0EB880070718EFBC3
:108360000303F817C0EBE21240F2B55000FB1272A3
:10837000C1EBE353B2F5896F4FEA83073CDA40F271
:10838000DA239A4242DCB2F5B77FB4BF4FF0000E59
:108390004FF0010E4FEA4E09DFF8A08009EB0E0303
:1083A00008EBC3031FFA8EFCD88A09EB0E0108EB19
:1083B000C10116310B2301E031F8020D904218DDA6
:1083C000013BF9D1CE44012338F83E00B37007F5E4
:1083D000FA670132121ABC44F270A6F800C02046B7
:1083E00029464FF47A7200234DF08CFE3281BDE8AD
:1083F000F0870133DBB2E9E74FF0030CE64640F2C9
:108400009650DFF838804FF00609CEE74FF0020CA7
:10841000DFF82880E64640F229404FF00409C4E71F
:1084200080BC92C7C5B3A29107452EC2ABAAAA2AA7
:1084300073B06D1689888888792D0311BC9605085C
:1084400003685A1C02601970704700BF2DE9F0479D
:10845000089C2578002B804689460CBF4FF0200AE7
:108460004FF0300A661C25B3002A26DD334601E0B2
:10847000024698B113F8011B501E0029F8D1971E2F
:1084800060B13D46013D51464046C8476B1C002B3C
:10849000F8DC257827EAE770013045B1041B29464E
:1084A0004046C847301916F8015B002DF7D1BDE8EA
:1084B000F087002A03DC2846F9E70020EEE7571E84
:1084C000DFE700BFD0ED005A9FED530A35EE800A7A
:1084D00008B5FDEEC07A2DED028B17EE903A2033F1
:1084E000402B40F294809FED4D5AFDEEE57A17EE59
:1084F000903A2033402B40F28380DFED485AD0ED94
:10850000014A9FED450A34EE800AFDEEC07A17EE6F
:10851000903A2033402B6AD99FED402AB0EE421AA0
:10852000B0EE424AFDEEE47A17EE903A2033402B4B
:1085300056D9DFED3A3AD0ED022A9FED370A32EEF6
:10854000800AFDEEC07A17EE903A2033402B3AD9DC
:10855000DFED324AB0EE643AF0EE640AB0EE648ABF
:10856000F0EE641AFDEEE27A17EE903A2033402BDB
:1085700024D99FED2A0AC1ED001A20EE057A60EE9B
:10858000257AE7EE234A37EE087ABDEC028BA7EE98
:10859000E33A24EE404A77EEE07AC1ED074A81EDF6
:1085A000037A81ED043AC1ED067A81ED014AC1ED0D
:1085B000023A81ED051A81ED082A08BDB0EE620A83
:1085C000FFF76AFDD7E7FFF767FD60EE254A20EE6B
:1085D000053A23EEA48A60EE041A63EE830AC1E72B
:1085E000B0EE640AFFF758FDF0EE403AA3E7FFF75C
:1085F00053FDB0EE404A25EEC01A20EE052A91E761
:10860000B0EE650AFFF748FDF0EE405A77E7FFF756
:1086100043FDB0EE405A68E7DB0FC93F00000000A1
:1086200030B41023112221254FF47F44FF214370E1
:10863000427101230022C5700482817403720370A9
:108640000371837042818281C28130BC704700BF58
:10865000034600F11001FF221A705A70023399424A
:10866000FAD1027042708270C270704710B42C212F
:10867000012402220023047041708270C3705DF8EF
:10868000044B704700230222027103704370837011
:10869000C370704730B41522162317252D242E21C0
:1086A000027043702F22FF23857044718171C27163
:1086B00043738373C37003710372437230BC70479A
:1086C0000023037043708370C3707047F8E700BFE6
:1086D000002306214FF47A720170C0E9012303736D
:1086E00070474FF400630383704700BF012380F895
:1086F00044307047F0B4037C456902681F2B2DD9C4
:10870000203B2021546899400C4219D010249C40F1
:10871000D160D4605168D940CE0744D4EFF31183BF
:10872000502282F312882A6C1168C90740D5DBB247
:1087300083F31188037C02681F2B194614D9203B50
:10874000082150689940084200D0D1600421506847
:1087500001FA03F3184223D1F0BC704720241668B5
:108760009C4026420FD11946082310688B401842BE
:1087700000D093600423106803FA01F10842EBD0A3
:108780009160F0BC7047102199409460916011682D
:10879000D940CC07C2D5012101FA03F39360BDE7AC
:1087A000D360F0BC7047012101FA03F3D360B5E751
:1087B000516889B2A1B9D5E90964A64203D1012261
:1087C00085F86420B3E7AF692744D760A4B20FD817
:1087D0002E69341BA4B25460A962002185F864108C
:1087E000116841F00101DBB2116083F31188A1E748
:1087F000341BA4B25460AE62EFE710B5027C01688E
:108800001F2A4FF020030ED94C68203A93401C4297
:1088100008D00C4A406800241470026822F001025B
:108820000260CB6010BD0C6893401C42FAD0054A30
:10883000406800241470026822F0010202608B601C
:10884000F0E700BF18AB00204368B0F8502030B408
:108850001A83EFF31182502383F312884168456C29
:108860000B68C46C23EA05032343D2B20B6082F386
:108870001188826803691168446AD0E907251A6083
:10888000826A5D61C56A5C60B0F860409A600022EF
:10889000DD60CC62027630BC704700BF024B03EB58
:1088A0004010407F704700BF58E10020704700BF74
:1088B000F0B5404D44012A19137F03B9F0BD3E4E77
:1088C0003E4BDFF804C137781E788C2303FB00C3CE
:1088D000B74293F802C082F802C04FF000029A70CB
:1088E0001CD0720002EB060C354B13F83CC00CF1A7
:1088F000FF3EBEF1010F08D9BCF1030F0ED106F106
:10890000010C0CF0030CBC4508D0164403EBC60365
:108910001844417B11B12B1901229A70295329194E
:10892000EFF31182902383F312888B782C5B002065
:1089300043EA4403D2B29BB2887082F31188214883
:108940001A0A007882EA13125A40C8B18869496845
:10895000D0F8A040D2431B0102F00F029BB20120CD
:108960008840134304F1C0015A0013F4004F93B23E
:1089700002D16268024362600C348C42F4D1F0BDD3
:108980008C694968D4F8A0401B0110319BB202F0F9
:108990000F0201208840134304F1C0015A0013F470
:1089A000004F93B202D16268024362600C34A1426C
:1089B000F4D1F0BD58E1002030CB0020CCCA00201B
:1089C000D0CA002011E10020E8350020BCEEC00A2A
:1089D00010EE103A99B26BE74369016830B41D6933
:1089E0009C682A68246822F001022A60A2899D8975
:1089F00022EA0502A281027C1F2A06D9203A082019
:108A00004C689040204243D0FEE708200C6890401C
:108A10002042F9D1202000FA02F28A60224A12781C
:108A2000002A33D01A7E012A37D0D3F8F42001323D
:108A3000C3F8F420EFF31181502282F312885868B2
:108A40005D6C02689C6C22EA05022243C9B2026096
:108A500081F31188D3E90C0599681A6909689C6B40
:108A60001060D86B55611D6C546090600024B3F8A1
:108A7000A800D5604C62C86210689C8940F0010073
:108A8000012510601D768B8923438B8130BC704794
:108A9000202000FA02F2CA60C0E7D3F8F8200132C1
:108AA000C3F8F820F2E700BF11E1002012F0DCBAB1
:108AB00038B5054658B14C1E14F8011F284619B99F
:108AC000BDE8384012F0C2BA12F0CEFAF4E738BD71
:108AD000F8B50468C4F30D0405460E460CB32F68C0
:108AE00036680AF0ABFC092840F08880454C2369C1
:108AF00023F440732361236943F4007323612369E2
:108B000043F0010323613E600AF098FC23690928C1
:108B100023F00103236171D12B6804332B60002003
:108B200035E0394B394A93422BD902F580429342C2
:108B300026D902F5804293422AD902F58042934217
:108B400028D902F58032934226D902F500329342A9
:108B500024D902F50032934222D902F50032934221
:108B600020D902F5003293421ED902F580229342A9
:108B70001CD9B3F1016F1BD3052017F09FFAFBE757
:108B800008240AF05BFC092814D04FF0FF30F8BD30
:108B90001024F6E71824F4E72024F2E72824F0E76D
:108BA0003024EEE73824ECE74024EAE74824E8E7FD
:108BB0005824E6E7134F3B6923F440733B613B695C
:108BC00043F400733B613B6923F0F8033B613B696D
:108BD00043F002031C433C613B6943F480333B6137
:108BE0000AF02CFC3B6923F002033B613B69092836
:108BF00023F0F8033B613FF472AFC6E76FF001006A
:108C0000C5E700BF003C024000400008FF3F0008ED
:108C10002DE9F04104460D468E18002700F10808A2
:108C2000B542206901D1BDE8F081E368591CE160DB
:108C3000234415F8012B1A720429F1D118B94146C1
:108C40002046FFF745FFC4E90370E9E701394B000F
:108C500003F0080301F00301194301F00303C3EB20
:108C6000031300228908C3EB0313914214BF4FF48E
:108C7000E16111469B00028041808380704700BF04
:108C8000F0B58DB0002502AE0446057003213046D4
:108C90000295ADF80C50FFF7D9FF96E8030008AB3A
:108CA0000890ADF8241093E803001426ADF82C10BA
:108CB000BDF82C30E67001214FF4487202276E4651
:108CC000A060E280A381A170A17330466770009517
:108CD000ADF80450FFF7BAFF96E8030004AB049028
:108CE000ADF8141093E80300ADF81C10BDF81C306B
:108CF000E7734FF4807225746574A282C4F816007D
:108D000063830DB0F0BD00BF70B584880546C4F321
:108D10000B0422460846002150F07CFC6969094A90
:108D20009142034602D3084A914204D341B1184606
:108D3000BDE8704008472246BDE870404EF088B854
:108D400070BD00BFA8080008550A0008014B18684C
:108D500011F026BA5058002010B500210446012019
:108D600016F094FF207010BD38B500240472451E23
:108D7000E1B2022016F08AFF0134082C05F8010F39
:108D8000F6D138BD70B5194B1B78012B064622D0A1
:108D900040F22E414FF4F0720923818202808370E9
:108DA0004FF4FA604FF47A7140F226220223F082E7
:108DB000318372827371F51D0024E1B2042016F034
:108DC00065FF0134082C05F8010BF6D10E220023B3
:108DD000B276338270BD4FF47A704FF47A51042228
:108DE0003371B0823180B270DAE700BFB47700200F
:108DF00038B500240546048021462846013422F077
:108E000019FA082CF8D1002185F8EA10A5F8EC1021
:108E1000A5F8EE10A5F8F010A5F8F210A5F8F410DA
:108E2000A5F8F610A5F8F810A5F8FA102846BDE840
:108E3000384022F0C1B900BF2DE9F047174E184C59
:108E4000814606F5807829210027164B102201253E
:108E500003E02033A3421AD01A799142F9D118685D
:108E60003268904201D00135F3E758797279904227
:108E7000F9D107EB470309EB030A09F80310304661
:108E80008AF8015011F08EFD01378AF80200203671
:108E9000464501D03179D8E7BDE8F08794CF050881
:108EA00044CF0508E4C7050838B53222002150F048
:108EB000B1FB03460225642440F2DC5040F21A4123
:108EC00040F26C721D721C7440F202251324588209
:108ED0009982192040F27531DA8240F643021D83EF
:108EE0009C760E2503241877D9830A201E211A8424
:108EF000012283F82B0083F82C1083F8225083F88A
:108F00002A409A7383F8252083F8292083F82D209E
:108F100083F82E2019460248BDE8384026F046BBAB
:108F2000C40A060838B51D4B1B78044600F1250518
:108F300093B105221A49203050F0AAFB2846152289
:108F4000184950F0A5FB012384F83A30164B1B78E2
:108F500073B984F83B3038BD28461522134950F0C8
:108F600097FB012384F83A300F4B1B78002BF0D08D
:108F70000F4B186859689A68DD68E5602060616089
:108F8000A260DD69186959699A69A2610123E561E6
:108F90002061616184F83B3038BD00BF3C71002026
:108FA000307E0020187E00203D710020D00A060887
:108FB0001071002008B501200AF052FA174A936890
:108FC00003F00C03042B1ED0082B18D151685368F2
:108FD000490203F03F0319D452681148B0FBF3F083
:108FE000C2F3881300FB03F00C4B0E4A5B68C3F31B
:108FF000014301335B00B0FBF3F0106008BD094B87
:10900000074A1A6008BD074B186008BDB0FBF3F0B3
:109010005368C3F3881300FB03F0E5E70038024010
:109020000024F40064C1002008B5838940F2E933CC
:1090300000E0A3B10289013B12F0020F9BB2F8D00D
:1090400089B2818140F2E93300E043B10289013BFA
:1090500012F0010F9BB2F8D08089C0B208BD11F0A8
:1090600049FFC0B208BD00BFF8B584894FF6FF764E
:109070004FF47A7433B319B30F78013101E0B4427D
:1090800018D00589013CAD07A4B2F8D5BCB28481E3
:109090004FF47A7402E0BCB2B4420BD00589ED07FC
:1090A00004F1FF37F7D58589ADB20AB115700132E9
:1090B000013BDFE711F01EFF003018BF0120F8BDB3
:1090C000FF27DEE70120F8BDF0B5876983B00646CB
:1090D00017B13B68BA885A837069DFF8A8E08389C2
:1090E000C3244FF47A734FF0060C6D464FF6FF71B0
:1090F0000EF1010E03E0013B9BB28B4220D00289AE
:109100009207F8D5A3B283814FF47A7302E0A3B239
:109110008B4215D00289D20703F1FF34F7D582893B
:1091200092B20DB12A700135BCF1000F0BD00CF1D9
:10913000FF3CFF24BEF1000FE1D09EF80040D7E7CE
:1091400011F0D8FEB76917B13B68BA881A839DF849
:1091500005009DF801509DF802109DF803409DF810
:1091600004209DF8063041EA052143EA002342EA43
:1091700004220120A6F84410A6F84620A6F848309C
:1091800003B0F0BD1C970508037B022B01D0002023
:109190007047F0B5436983B013B11A689B88538355
:1091A0000446006940F2E933828901E0002B5DD07A
:1091B0000289013B12F0020F9BB2F7D0BB238381DF
:1091C00040F2E93301E0002B50D00289013B12F05C
:1091D000010F9BB2F7D083898389038999074FF0E8
:1091E00005076E464FF47A724FF0FF0C4FF6FF758D
:1091F00006D4531E9BB2D2B11A4603899907F8D5FB
:10920000A0F80CC04FF47A7302E08BB2AB420ED0E0
:109210000289D20703F1FF31F7D5828992B20EB1EC
:10922000327001367A1E27B117461A46E5E711F06B
:1092300061FE636913B11A689B8813839DF804006B
:109240009DF800609DF801109DF802509DF80320E4
:109250009DF8053041EA062143EA002342EA05224F
:1092600001206183A283E38303B0F0BD11F042FECD
:109270002069B1E770B5012084B00AF0F1F8714BB4
:109280009A6822F003029A609A6812F00C0FFBD1E0
:109290001A686C4998B942F001021A6041F28833A9
:1092A00002E0013B00F082800A689507F9D5664C20
:1092B0000021082202236161C4E900231CE042F47A
:1092C00080321A6041F2883301E0013B6ED00A68B7
:1092D0009403FAD55D4A5C4C5D4BB0FBF3F3B0FBF5
:1092E000F2F0B3EB400F18BF1846B3FBF0F3C4E93C
:1092F00000034FF48002626102200AF0B1F80228F4
:109300000BD8544B616803EBC0008588C288438842
:10931000E560B3FBF1F32261A3604A4B4E491A6C3E
:1093200042F080521A640A6842F440420A609A6825
:109330009A609A689A609A6842F480529A60D4E976
:1093400002602168626925690A4342EA8612400880
:1093500042EA0562013842EA00425A601A6842F065
:1093600080721A601A689201FCD53C48354A40F276
:1093700002750560986820F003009860986840F0D6
:1093800002009860936803F00C03082BFAD141F0B7
:10939000005133486468D823B3FBF4F3012441EA55
:1093A0008311C2F884100460FFF704FE2D4C254B96
:1093B0002D4AE2602D49586F2D4A0860A260586B13
:1093C0002C4D2D4A2D4E20F080005863586F40F0F0
:1093D00080705867186B40F4CE001863596B59635E
:1093E000196C29431964596C254D0A435A6468461F
:1093F0000AF0F2FA009B2348234A2449A0FB030306
:109400009B0C1360CB68224A43F080730020CB6032
:109410002E60506011681F4B1F4D41F0010111601B
:109420001B68A5FB03239B09013BB3F1807F07D297
:109430001A4AF0250721536084F823509060116088
:1094400004B070BD003802404818002080841E001F
:1094500040420F002497050800700040003C024085
:109460006800474200ED00E00005FA058CE20020AC
:1094700000000020FFC9FE36335F070055CEACC5A3
:10948000B01F00E083DE1B4354CA0020F0ED00E073
:10949000001000E064C10020D34D621010E000E035
:1094A0002DE9F04F454B1D7885B025B9012528469B
:1094B00005B0BDE8F08F424B1C6817F023F9414B13
:1094C000009093F82C30002B00F0F7833E4A3F4B7E
:1094D000DFF820A1DFF82091A2FB04246409A3FB9C
:1094E0000423DB0803EB8303A4EB4303DAB29B0002
:1094F0000192029354460025354B009A9B69D31A7A
:1095000003D4A26D9342C0F2A9838C2303FB05A36D
:10951000A26893F854301768D4F8806003F0FF0E07
:10952000002B40F069823168002321F00101316095
:1095300033607360B360F3603361264B21219E4238
:10954000716100F01683244B9E4200F01683234B7A
:109550009E4200F01783224B9E4200F06A83214B0B
:109560009E4200F06B83204B9E4200F073831F4BA2
:109570009E4200F078831E4B9E4200F08B83304663
:10958000039209F08DFF039A8C2303FB05A30021AE
:1095900083F8541053790C2B00F21C82DFE813F08F
:1095A000DF011A021A021A02A2011A021A021A0290
:1095B0005C011A021A021A022E0000BF11E10020FB
:1095C00050CA0020D4E000201F85EB51CDCCCCCC7C
:1095D00048180020106002402860024040600240AD
:1095E000586002407060024088600240A060024003
:1095F000B8600240E8350020347B0020BB8B23F4A8
:1096000000631B041B0CBB833B8CB4F86C20B4F8C8
:109610006280B4F860E0DFF8C8C223F480531B0412
:109620001B0C3B84398CB888BB8B21F4005123F48C
:10963000E64309041B04090C42EA08021B0C41EA38
:10964000023243EA0E23674592B280B29BB200F029
:10965000B8829F498F4200F0B482A16EB880BB836C
:1096600039643A84BB8B23F400631B041B0C43F462
:109670000063BB83D4E90B12A369606BA76B43F053
:10968000400319430A431043D4E90F230743174308
:10969000402262623B43E76C3068226D8D493B4358
:1096A000014013430B433360D4E911327169A06A5E
:1096B00021F0070113430B43D4E907127361706073
:1096C000B160F260336843F010033360824B93F86B
:1096D0002C3001359D4209F15C0904F18C04FFF640
:1096E0000BAF7E4900228A61002B3FF4DFAEDAF82F
:1096F00008109AF810400A684879A40754BF01215D
:1097000004218140108C89B220EA01001084108C61
:10971000012B41EA000111843FF4C8AEDAF894103D
:109720009AF89C000A684C79810754BF01210421F2
:10973000108CA14089B220EA01001084108C022B09
:1097400041EA000111843FF4B1AEDAF820119AF831
:1097500028010A684C79870754BF01210421108C25
:10976000A14089B220EA01001084108C032B41EA49
:10977000000111843FF49AAEDAF8AC119AF8B441C2
:109780000A684879A60754BF012104218140108C42
:1097900089B220EA01001084108C042B41EA0001F8
:1097A00011843FF483AEDAF838129AF840420A681E
:1097B0004879A50754BF012104218140108C89B24A
:1097C00020EA01001084108C052B41EA000111846D
:1097D0003FF46CAEDAF8C4129AF8CC420A684879C1
:1097E000A40754BF012104218140108C89B220EAD2
:1097F00001001084108C062B41EA000111843FF413
:1098000055AEDAF850139AF858030A684C79810774
:1098100054BF01210421108CA14089B220EA01002B
:109820001084108C082B41EA000111847FF43EAEB5
:10983000DAF8DC239AF8E4031368517982074CBF05
:10984000042201228A40198C92B221EA0201198471
:10985000198C0A431A8429E6BB8B23F008031B04E6
:109860001B0CBB833B8CB4F86C00B4F86280B4F87A
:1098700060E0DFF86CC023F480731B041B0C3B8496
:109880003B8CB988BA8B23F400731B0422F073025B
:109890001B0C40EA0800120443EA0023120C67453F
:1098A0009BB289B242EA0E0200F0718108488742F9
:1098B00000F06D81A06EB980BA83F8633B84BB8BE6
:1098C00023F008031B041B0C43F00803BB83D1E601
:1098D000000401403F801CF0D4E000204818002024
:1098E000000001403B8BB4F86C20B4F86280B4F8FF
:1098F00060E0DFF89CC323F400631B041B0C3B8374
:109900003B8C23F010031B041B0C3B84398CB88860
:109910003B8B21F0200123F4E64309041B04090CCE
:1099200042EA08021B0C41EA021143EA0E23674592
:1099300089B280B29BB200F04C81CD4A974200F0D0
:109940004881A26EB8803B83BA6339843B8B23F491
:1099500000631B041B0C43F400633B838AE63B8BD0
:1099600023F008031B041B0C3B833B8CB4F86C20D6
:10997000B4F86280B4F860E0DFF814C323F00103A8
:109980001B041B0C3B843B8CB888398B23F00203EF
:1099900021F073011B0409041B0C42EA0802090CA4
:1099A000674543EA020380B241EA0E0100F02B81D1
:1099B000AF4A974200F02781A26EB88039837A635C
:1099C0003B843B8B23F008031B041B0C43F0080370
:1099D0003B834FE6082B3FF445AF0C2B3FF414AE0E
:1099E000002BC2D0082B3FF46AAF0C2B3FF43AAEE9
:1099F000002B7FF43FAEE4E77068A189BB8980B299
:109A0000C0F1160023EA01030728BB817FF68BAD66
:109A10009849D4F888208B68039201338B601646EE
:109A2000136801210022B446884616465CF8047F7C
:109A30008842A7EB030B40F23281142E11DC1BF19C
:109A4000080348BF0BF117031B111E4403F1FF3B32
:109A500001319A4008FA0BFB88424BEA02023B466E
:109A6000E4D2152E40F0EE808348C2F38421C2F385
:109A7000441300EB810100EB830302F01F06D1F8D1
:109A80008010D3F8807000EB8606C2F3C43200EB7E
:109A90008202D6F88030D2F88020090241EA071706
:109AA0001F4347EA023787EA172383EA131303F0B9
:109AB0000F030F2B40F0C6803B0940F6FF72934224
:109AC00000F0F880C3F308037F0B13FA07F700F0E8
:109AD000B9807B0803F5122303F5F8634FF6FF7195
:109AE000B3FBF7F7BAB28A4200F0AC80614B03EBEC
:109AF0008501032D4FF001038A818B7306DC5F4BD8
:109B00001B782D2B02D15E4B23F8157099F8583035
:109B1000019AD9F800009342029B09EB030111D08E
:109B20008B68D9F80420C31AC9F800300B6BD31A1C
:109B30000022C9F804308A600A63019BD9F800004A
:109B400089F858300130C9F800008B68A268D4F851
:109B50008060176801338B60BEF1000F7FF4E3ACC7
:109B6000D9F804300133C9F804300B6B01330B63AF
:109B7000D9E43D2143F8081C06E54FF4746143F82D
:109B8000201C01E54FF4741143F8381CFCE4B4F8D0
:109B90006E00B4F870E0B4F872C023F4006343EAD6
:109BA00000234FF6FF301840B4F8643021F44051E0
:109BB0004EEA0C0C40EA032341EA0C119BB289B235
:109BC00078E6B4F8701020F4804040EA811080B24A
:109BD00043E5B4F86E20B4F870E0B4F872C021F038
:109BE000800141EA02114FF6BF720A40B4F86410D6
:109BF00020F440604EEA0C0C42EA011140EA8C006D
:109C000089B280B29DE6B4F86EE0B4F87020B4F882
:109C100072C023F0080343EA0E03B4F864E020F4B2
:109C2000407023F0040342EA0C0243EA0E0310439F
:109C3000C2E64FF0746143F8501CA5E4114943F8A3
:109C4000641CA1E40B4A5368013353605DB34FF0C9
:109C5000000E5BE70C4943F87C1C95E40025284680
:109C600005B0BDE8F08F094943F8941C8CE400BFAF
:109C7000000401400C480020BC96050849BE0020A5
:109C80004CBE00203D000020400F002000003D2081
:109C9000000001404FF03D5143F8AC1C74E4C6F1A4
:109CA00015031526D2E60399064858224DF0D0F840
:109CB000AE462BE700273A4618E7034A9361FFF7C1
:109CC000F6BB00BF38480020481800202DE9F047B7
:109CD000037C02681F2B0BD9A3F1200520215468B7
:109CE000A940214214BF0121002151B9BDE8F087EC
:109CF000202114689940214214BF0121002100292C
:109D0000F4D07B497B4D4968D0F81490DFF8248269
:109D100029608C2101FB0981774E8C683678276891
:109D2000BEB9D1F88060B1F80CC0346824F00104E9
:109D30003460B98921EA0C01B98170490978B9B94F
:109D40001F2B00F2A980202101FA03F39360BDE8E4
:109D5000F0876469216821F001012160B98921F44B
:109D600080710904090CB981644909780029E7D098
:109D70008C2303FB0983624AD3F88060336823F0A5
:109D8000010333600023336096427360B360F36075
:109D900033614FF021030446736100F08980594B11
:109DA0009E4200F08980584B9E427CD0574B9E4289
:109DB00000F08780564B9E4200F08880554B9E42B3
:109DC00000F08880544B9E4200F08880534B9E42A6
:109DD00000F08880304609F063FB8C2303FB098385
:109DE000DFF854A1012283F85420DAF818301BB9A7
:109DF00016F088FCCAF818003A888C2303FB09F98E
:109E000009F1740142F080034FF0FF323B8041447E
:109E1000FA62384609F03AFC08EB0903D3E90B7003
:109E20009A693168D3F828C03A430243586BDF6C13
:109E30000243986B0243D86B0243186C02433A43C7
:109E400037481F6D08403A4302430021596232608F
:109E5000D3E911277069D3F8801020F007003A4346
:109E60000243D3E9077072611622C6F804C0B760D6
:109E7000F0604A600A6898689F8900681C4E42F04A
:109E800001020A6083893B43838173686B60237C92
:109E900022681F2B7FF657AFA3F1200120238B40B0
:109EA000D360BDE8F0874FF4741243F8382C94E780
:109EB0001C4B3D229A6090E74FF4746243F8202CCB
:109EC0008BE74FF0746243F8502C86E7164A43F84C
:109ED000642C82E7154A43F87C2C7EE7144A43F849
:109EE000942C7AE74FF03D5243F8AC2C75E700BF55
:109EF000001000E0644E00201CE1002011E1002071
:109F000010600240286002404060024058600240F9
:109F10007060024088600240A0600240B860024069
:109F20003F801CF0006002403D000020400F0020F8
:109F300000003D20E83500204818002070B5B44AE4
:109F4000B44B12781B789A4240F06A81B24B1A7F68
:109F5000002A00F0CC80B1490978002940F0C8807F
:109F6000186A9D8C04889E8E24F080042404240C9E
:109F70000480C562058845F08005058041628489BA
:109F8000012A44EA06048481998600F0B080986B27
:109F90009D8F0488B3F84C6024F080042404240CC2
:109FA0000480C562058845F080050580416284898A
:109FB000022A44EA06048481A3F84C1000F097803A
:109FC000186DB3F854500488B3F8646024F080042A
:109FD0002404240C0480C562058845F080050580B2
:109FE00041628489032A44EA06048481A3F8641048
:109FF0007DD0986EB3F86C500488B3F87C6024F080
:10A0000080042404240C0480C562058845F0800582
:10A01000058041628489042A44EA06048481A3F805
:10A020007C1064D0D3F88000B3F884500488B3F86F
:10A03000946024F080042404240C0480C562058804
:10A0400045F08005058041628489052A44EA0604BA
:10A050008481A3F894104AD0D3F89800B3F89C50A8
:10A060000488B3F8AC6024F080042404240C048039
:10A07000C562058845F08005058041628489062A0D
:10A0800044EA06048481A3F8AC1030D0D3F8B000C1
:10A09000B3F8B4500488B3F8C46024F080042404F6
:10A0A000240C0480C562058845F080050580416266
:10A0B0008489072A44EA06048481A3F8C41016D0D0
:10A0C000D3F8C820B3F8CC401088B3F8DC5020F0A7
:10A0D00080000004000C1080D462148844F08004D6
:10A0E00014805162908928439081A3F8DC1070BDE0
:10A0F0009C6A998D61602568186A45F0010540F2F7
:10A100000D312560A0F848108489012A44F4807438
:10A110008481ECD01C6CB3F84450986B6560256862
:10A1200045F001052560A0F848108489022A44F40E
:10A1300080748481DBD09C6DB3F85C50186D6560D1
:10A14000256845F001052560A0F848108489032A98
:10A1500044F480748481CAD01C6FB3F87450986E34
:10A160006560256845F001052560A0F848108489E0
:10A17000042A44F480748481B9D0D3F88840B3F8B9
:10A180008C50D3F880006560256845F00105256096
:10A19000A0F848108489052A44F480748481A6D0EC
:10A1A000D3F8A040B3F8A450D3F8980065602568B0
:10A1B00045F001052560A0F848108489062A44F47A
:10A1C0008074848193D0D3F8B840B3F8BC50D3F8EE
:10A1D000B0006560256845F001052560A0F84810CD
:10A1E0008489072A44F48074848180D0D3F8D020F5
:10A1F000B3F8D400D3F8C8305060106840F00100C4
:10A200001060A3F848109A8942F480729A8170BD58
:10A2100030CB0020CCCA0020481800201CE10020D0
:10A2200047F022FD00287FF491AE70BD2DE9F84380
:10A23000214A224B12781B789A4236D1204E33683D
:10A24000002B15DDDFF884801E4F00244546A14613
:10A250003B783BB12B7E012B20D02A69136843F059
:10A260000103136033680134A34205F58075EFDC08
:10A2700016F048FA144BD3F8E440C3F8E000002C81
:10A280000ADDE83303EBC404196898888A89083327
:10A290000243A3428A81F7D1BDE8F88308EB04208A
:10A2A00085F8F090FEF7D0FAD7E747F0DDFC0028FC
:10A2B000C4D1BDE8F88300BF30CB0020CCCA002059
:10A2C000944F002011E1002048180020984F0020F2
:10A2D00070B50D4E3368002B14DD0C4C002504E0E6
:10A2E0003368AB4204F120040CDD237F0135002BE1
:10A2F000F6D0217DE06810F05FF93368AB4204F1DD
:10A300002004F2DC012070BD14E1002058E100209F
:10A310002DE9F04FB24B1B7885B0EBB9B14E3368E5
:10A32000002B15DD0024B04821460569D0F8A03087
:10A330002A6822F001022A6003F1C00259600C333E
:10A340009A42FBD133680134A34200F58070ECDC03
:10A35000012005B0BDE8F08FA44B1C6816F0D2F9BF
:10A36000A34AD2F8E030D2F80821C31A1432B3EB72
:10A37000420FC0F231819F4A9F4B12789F4903924E
:10A380009F4D09680191A3FB04235B09A5FB0325ED
:10A390009C499D4E9D4FED08D1E9011B05EB8505BC
:10A3A000A3EB45054FF0000CEBB2E646029106EB3D
:10A3B00085054FF00109BC469846019B734540F363
:10A3C0000581DCF81810DCF804300A69D1F8EC00DB
:10A3D0005268D1F8E84092B2801A9B00640100F103
:10A3E000806203F10853E118393A01EB821291427D
:10A3F00080F0E080E358002B00F06E810B6C002BA6
:10A4000000F06D81D1F88030002B00F06B81D1F825
:10A41000C04001F58073CCB1044608469A4240F230
:10A42000C9801968002900F04981196C002900F0E1
:10A430004B81D3F88010002900F04A8103F5807326
:10A4400053F8401C0029E9D1014620469A4240F2C7
:10A45000B180591AA0EBA111452928BF4521002739
:10A4600003EB81113C461A46994216D910461A68E8
:10A47000002A40F0D1801A6C002A40F0F580D3F811
:10A480008020002A40F0F38003F5807353F8402CBD
:10A49000002A40F0EF809942E9D8112F40F28A80DB
:10A4A000C7F11507002FC0F2FF8000F023817B1E4B
:10A4B00009FA03F304FA07F71F43C7F31302544CD6
:10A4C000D00B07F01F07C2F3441104EB870304EB22
:10A4D000800004EB8101C2F38422D3F80031D0F86C
:10A4E0000001D1F8001104EB820243EA0033D2F8F4
:10A4F000002143EA011343EA022383EA132282EA9A
:10A50000121202F00F020F2A40F0CE80B3F5803F06
:10A5100080F0CA801A0940F6FF718A4200F0E58097
:10A52000C2F308025B0B12FA03F300F0BD80590876
:10A5300001F512214FF6FE7201F5F861B1FBF3F15E
:10A54000914237D04FF6FF7399420BF1010B00F0A7
:10A55000AD808AB22B4B03EB8E03BEF1030F9A81C1
:10A5600083F80E9005DC039B2D2B02D1294B23F899
:10A570001E1096F85830306843450CD0AB687268AE
:10A58000C31A33602B6BD31A73600023AB602B6349
:10A59000306886F8588001303060AB680133AB60BA
:10A5A0004FF6FF73994205D17368013373602B6BCB
:10A5B00001332B630EF1010EBEF1080F06F15C06AC
:10A5C00005F15C050CF1200C7FF4F7AE0D4B029AFF
:10A5D000C3F808B05A60A1E6002005B0BDE8F08FCE
:10A5E00011E10020944F0020984F002050CA002015
:10A5F0004818002049BE00201F85EB5114E10020BF
:10A60000CDCCCCCC0C480020347B002058E100207D
:10A61000BC9605084CBE00200246403399427FF6A6
:10A620003CAF9A1A92114748013280FB02A0A0EB7E
:10A63000E272012AB8BF0122501E09FA00F09440CC
:10A640000443174418460268B2B3026CD2B3D0F880
:10A6500080208AB100F5807050F8402C6AB18142A8
:10A66000F1D81A460346FFE602468033D6E7024693
:10A67000C033D3E70246D1E7C0308142F1D9C31AD3
:10A680009B11304A013382FB03A2A2EBE373012B3F
:10A69000B8BF01235A1E9C4009FA02F21F44034628
:10A6A00014431A460346DFE60BF1010B029B01330C
:10A6B00002934FF6FF715CE74030DEE7014640331E
:10A6C0002046C3E68030D8E7014680332046BDE609
:10A6D0000146C0332046B9E601F14003B6E601F178
:10A6E0008003B3E601F1C003B0E600220BF1010BD9
:10A6F00011462FE7C4F3130304F01F00124CD90BCB
:10A70000C3F3441204EB800004EB810104EB8202EA
:10A71000C3F38423D0F80001D1F80011D2F800214E
:10A7200004EB830340EA0131D3F8000141EA02134C
:10A7300043EA002383EA132282EA121202F00F0294
:10A74000E1E600BF56555555BC96050820B1007886
:10A75000B0FA80F0400970470120704708B5202109
:10A760004EF06FFF0346184623B10278202A03F10A
:10A770000103F8D008BD037903F01803082B0AD0B1
:10A7800002D82BB100207047102B16D0182BF9D10E
:10A79000B0F80B007047124BB0F80B0093F9003083
:10A7A000591C06BF0F4B1B78DBB203EB031203EB04
:10A7B000820300EB430080B270470B4BB0F80B00F4
:10A7C00093F900305A1C06BF064B5B78DBB203EBF3
:10A7D000830303EB830300EB830080B2704700BF69
:10A7E000210A002008CE0020200A002070B5084D64
:10A7F0002A782AB9074C084EB44202D301232B70A1
:10A8000070BDA288D4E902104CF022FB1834F3E7A3
:10A81000604E0020A0010008A8080008F0B50679E5
:10A8200006F0E003402B09D144794FF0FF350023B7
:10A83000012006F00706A3420BD1F0BD602B08BF34
:10A8400045794FF001040CBF04FA05F54FF0FF35D0
:10A85000EDE7042E0CD8DFE806F0030D18242E00D7
:10A8600030B1C85CD75C784028420CBF0120002082
:10A870000133E0E70028FBD0C856D756A0EB070C01
:10A88000DCF1000040EB0C00F2E70028F0D031F8DA
:10A89000130032F81370784028420CBF01200020CA
:10A8A000E6E70028E4D031F9130032F91370C71B32
:10A8B00078427841DCE70028DAD051F8230052F8DA
:10A8C0002370784028420CBF01200020D0E7034BC2
:10A8D0000146186808B110F0C7BB7047ECE20020D1
:10A8E000024B01461868FEF7E3B800BFECE2002017
:10A8F0000048F5E7041B060808B5FFF7F1FFBDE8BF
:10A900000840F5E710B504460348FFF7E9FF204685
:10A91000BDE81040F0E700BF8009060808B532B175
:10A92000C30600D519B11046FFF7ECFF0022104610
:10A9300008BD034B186808B110F088BB704700BF12
:10A94000ECE20020044B1A68C04302401A60034A3C
:10A95000136803401360704760660020D4E2002053
:10A96000034B01224FF400101A7027F089BA00BF80
:10A97000D0630020022838B5044611D80B4A0C4990
:10A980000C4D0C7000EB001300EB830302EB430350
:10A9900018462B6039F010F93DF052FB3DF0EEFA0D
:10A9A000601CC0B2BDE8384027F004BA6C5A0020E1
:10A9B00008CE002004E50020784B30B59A881C8929
:10A9C00058899989B2F57A6F88BF4FF47A622DED74
:10A9D000028B88BF9A80DA88B2F57A6F84BF4FF411
:10A9E0007A62DA80B4F57A6F84BF4FF47A641C819E
:10A9F000B0F57A6F88BF0020DA8988BF5881B1F539
:10AA00007A6F84BF4FF47A619981B2F57A6F84BF0F
:10AA10000022DA8184429CBF0020188191429CBFB1
:10AA200000229A81598B9A8B5D4C914284BF0022FF
:10AA30005A83238885B0002B53D05A4DAA78062A12
:10AA400097BF59499FED598A01EB820292ED608AC6
:10AA50002A79002A75D15649A8790A7807EE903AE2
:10AA600007EE102AF8EEE77AF8EEC76AB0EE667ADB
:10AA700086EEA76A08B138EE088AB4EEC68AF1EE0F
:10AA800010FA21DD27EE888ABCEEC87A8DED017AB6
:10AA90009DF8043007EE103AB8EEC77AB4EEC78AD4
:10AAA000F1EE10FAC4BF0133DBB2002B67D0102BDC
:10AAB000A8BF10239A4204D807EE103AF8EEC76AEE
:10AAC0001A460A70B0EE667ADFED3A6A27EE267A09
:10AAD000C7EE276AFCEEE66A16EE903AB3F5FA7F07
:10AAE00048D8354A35499378013B012B9CBF002358
:10AAF00093704B78052B14D8314A324803EB83030B
:10AB000003EB830302EB83030A780360022A10D964
:10AB100000232D4A0B702D4B1A6005B0BDEC028B43
:10AB200030BD00224A700A782648254B0360022A6D
:10AB3000EED802EB0211244B02EB810203EB42023E
:10AB4000E9E704A8002300F8013D48F099F99DF8D1
:10AB50000F300BB9AB78A3B92388002BC1D0144AAE
:10AB6000127807EE903A07EE102AF8EEE77AB8EE80
:10AB7000C77AA9E74FF00050FFF7E4FEB1E70123E1
:10AB800098E7B7EE000A80EE080A4CF03FFA2B88EF
:10AB9000984228BF18462880DEE700BF4CD6002028
:10ABA00074D6002094BE0020BC9605086F120338AE
:10ABB000207B002000247449A4A7002008CE002098
:10ABC000305C0020704900206C5A002004E5002011
:10ABD0002DE9F04FAA4B1B78A3F11702022A83B08C
:10ABE0000FD9A84A12F83310002940F0BE82D900CC
:10ABF0000A4452782AB1A44A12F83330002B00F0EC
:10AC00004683A24EA24D96F80890DFF8B082002449
:10AC100027462A5912F0010C05EB040307F1010144
:10AC200000F04A82CFB2510801F077319308511AEF
:10AC3000D00803F03333CB1A00F011315B1A03EB69
:10AC4000131303F00F33A8FB031E4FEADE1ECEEBF7
:10AC50000E2EA3EB0E0EBEF1010F05EB04004946CC
:10AC600004F10C040ED9BEF1020F40F02A82BCF1AF
:10AC7000000F02D012F42F7F04D10BF0D7FD002873
:10AC800000F01F823C2CC4D1013F022F00F2198238
:10AC9000022026F01DFE7F4B1B78022B00F07D82E8
:10ACA000002800F0F8827C4F7C4D97F809A02B46D5
:10ACB00005F5CF794FF47A684FF0000E4FF0640B32
:10ACC0005A88B2F57A6FB3F84C2088BFA3F8028097
:10ACD000B2F57A6F9A8888BFA3F84C80B2F57A6F84
:10ACE000DA8888BFA3F804809988B2F57A6F84BFA8
:10ACF0000022A3F806E09142B3F86010B3F8622096
:10AD000098BFA3F804E0914293F8712088BFA3F89C
:10AD100060E0013A632A93F8722088BF83F871B02B
:10AD20000132D2B2092A88BF83F872E003F16B00C6
:10AD3000194600228C7A10F801CF0132A44528BFB1
:10AD400080F800E0032A01F10601F3D1BAF1010F06
:10AD500018BF83F889E08A334B45B1D1504CA378B2
:10AD6000042B00F00C8233B92388B3F5F07F84BF45
:10AD70004FF4F0732380DFF84881FFF71DFE98F849
:10AD80000710092902D0002940F0DD8198F815103C
:10AD9000092902D0002940F0D281424BB3F90420A6
:10ADA00022B9B3F90620002A00F0D98101225A8184
:10ADB0003D493E4BD1F80090DFF8088109EA0303D2
:10ADC000002B00F06C8219F0010F40F0418219F461
:10ADD000804F40F0378219F0080F40F02D8219F4AF
:10ADE000005F40F0238219F4004F00F09D810023A2
:10ADF000F37386F823302CF053F8002800F02C81F0
:10AE0000737E032B00F028815A1E012A40F23B81F9
:10AE100000232B83A5F8A230A5F82C312CF040F8A4
:10AE2000002840F02F81002319F4805F85F84F300F
:10AE300085F8D93085F8633100F02D811C4BDA7923
:10AE4000022A08BF01224FF0070008BFDA713FF065
:10AE5000A5F9002840F002824FF4806026F038FD0A
:10AE6000002800F00582134B1E4603F1780A03F117
:10AE70007D097179A1B3307880B30F4B27E000BF13
:10AE80009068002074030608A4F7050858E2002023
:10AE900008E4002068A70020F04500206C5A00203C
:10AEA00094BE0020B44800206066002009600002C3
:10AEB000205F0020A8810020AD810020818080805B
:10AEC00054690020D4E2002006334B4508D013F823
:10AED000052C8A42F8D11A78002AF5D03FF004F9FF
:10AEE00006365645C5D1A378082B00F08D81797AB6
:10AEF000BA7AD8F80000B54BB54EA1F10101A2F124
:10AF00000102C0F3C030B1FA81F1B2FA82F2987056
:10AF1000490952094FF4007019701A71FFF712FDB8
:10AF20004FF40030FFF70EFD4FF40010FFF70AFD5D
:10AF30004FF00070FFF706FDB388002B40F06E81E4
:10AF4000A44A136813F07F4F1CBF0023136093685B
:10AF500023F4007323F002030BB1002393601379F1
:10AF600002A8013B042B4FF0000688BF012300F824
:10AF7000016D88BF137147F083FF9DF80730002BE8
:10AF800040F0BC80A379002B40F0D680002385F8E8
:10AF90007E3085F8083185F892318F4BDA8802F0DF
:10AFA0000F01032954D8C2F30312022A50D81A8978
:10AFB00002F00F01032947D8C2F30312022A43D833
:10AFC000864B874A5C7850781978844240F28E80AC
:10AFD00000205870002940F08880997892F8EA2083
:10AFE000914284BF00229A707E4B03F516719A78C5
:10AFF000013A032A69D8DFE802F0111702025C7AED
:10B00000987ADA7AC82CA8BFC824C828A8BFC82054
:10B01000C82AA8BFC8225C729872DA7264338B4265
:10B02000E5D103B0BDE8F08F5C7A987ADA7A632CC8
:10B03000A8BF63246328A8BF6320632AA8BF632234
:10B040005C729872DA72E9E740F601221A81B7E77A
:10B050004FF42062DA80AAE70023AB816B82A5F867
:10B060009630A5F89C30A5F82031A5F826312BF0B4
:10B0700017FF00283FF4CCAE737E5A1E012A3FF61C
:10B08000C7AE00E0737E023B022B3FF6CCAE19F454
:10B09000805F7FF4D3AE19F0800F3FF4CFAE524BF8
:10B0A000197818293FF6D8AE0122504B8A40134038
:10B0B000002B3FF4D1AEC1E693F90430142B7FF49A
:10B0C000B2AD4B4826F0F0FCE2E55C7A987ADA7A89
:10B0D000642CA8BF64246428A8BF6420642AA8BF85
:10B0E00064225C729872DA7298E7988010788842CD
:10B0F000BFF473AF0021197099806EE7227C26712E
:10B10000A3792AB33B4AD27B002A3FF43CAF002B01
:10B110003FF43CAF384B1A78002A7FF43EAF1B79DE
:10B12000002B7FF43AAF31E7F37B002B00F0A580D2
:10B13000002386F823305EE60023A37126E72F481C
:10B14000FDF784FD29E608F10800FDF77FFD1DE607
:10B150006279012AD6D1002B3FF418AFECE7B3F99E
:10B160000820002A3FF424AE20E6D9005018406899
:10B1700000287FF43DAD1C4C1720207038E54FF4BB
:10B180008050FFF7DFFB238BB3F57A7F37BF4FF497
:10B190007A72A378A3782283E5E500283FF483AD93
:10B1A000174D184B95F80C1190F90440FF2703F147
:10B1B0003C0093F90820A24202D10139C9B21F72A2
:10B1C0000C338342F5D185F80C116CE5A4CA00203C
:10B1D00060DF0020CC680020E444002050450020BF
:10B1E00048640020305C002090680020004100018D
:10B1F00008E4002008CE0020188A00206A69002098
:10B200004818002070700020A379002B3FF46FAE27
:10B21000237C012B04BF0223237468E6307814F0EA
:10B22000D9FD00287FF48CAEB08089E62148FFF775
:10B2300089FBD1F80090D6E51F48FFF783FBD1F8D2
:10B240000090CCE51D48FFF77DFBD1F80090C2E5EA
:10B250001B48FFF777FBD1F80090B8E507203EF0D8
:10B2600043FF4FF4806026F033FB00287FF4FBADF2
:10B270004FF00060FFF766FBF5E542F2010319EAC3
:10B28000030F3FF4B8AD002386F82330B3E50D4A31
:10B2900018231370B5E48020FFF754FB03E5D8F8BA
:10B2A000003049F0080943F00803C1F80090C8F8DD
:10B2B000003088E509400002016000020920000218
:10B2C00008600002906800202DE9F04F764B1B7853
:10B2D000013B012B83B040F2CC80744B744ADFF801
:10B2E0001C92934280F0DD80DFF81482CDF8049048
:10B2F00003F118069B464FF0010A6E4C258862192F
:10B300007DB142450DD2052D0BD936F8183C618828
:10B31000C3F30B03994272D0144625886219002D9D
:10B32000EFD156F8101C5846FDF7EEFC4FF0000A1E
:10B330005F4B0BF1180B9B4506F11806DDD3DDF8CA
:10B3400004905D4A5D4B12681A60FFF741FC5C4B4C
:10B35000DA7B012A79D0022A70D020241A785B780F
:10B3600058485949594D03EB830303EB830300EB22
:10B3700083035748036002EB021302EB8302554B31
:10B3800001EB42022A601C602BF098FD524B2868AA
:10B390004FF0FF321A6038F00FFC3EF08FFF4F4B3A
:10B3A0004F4918791A894F4B0B60642303FB02F253
:10B3B000C8210A4413FB00110023C9E90112C9E99D
:10B3C0000333C9E90533C9E9073389F8243089F81B
:10B3D000253023F0F5F8444B93F81211B3F810011F
:10B3E0003CF0F0FF44F05AF824F056FD2E4B1B7849
:10B3F000013B012B2BD9504603B0BDE8F08F637998
:10B4000013F0030388D156F8101C94F804905846A2
:10B41000FDF77AFC36F8182CB9EB123F86D136F8D6
:10B42000143C56F8100CAA1FC3F30B039A4204F104
:10B430000601A8BF1A464BF00BFD79E72B4A92791B
:10B44000002A0CBF2024282488E7282486E715F04A
:10B4500059F92749274B0C68274A18600221012314
:10B460005046C9F80C40117089F8253003B0BDE88A
:10B47000F08F15F047F9DFF884901E49D9F80C30A9
:10B480001D4A00F5B71000F5587003F2DC53086050
:10B490000221C9F80C301170044B054A9342FFF4A5
:10B4A00023AF4FF0010A4CE7B4E20020A0010008EE
:10B4B000A80800080240000860660020D4E20020CE
:10B4C00008CE0020305C00206C5A002004E50020EB
:10B4D0007049002010150020F4140020205F002087
:10B4E000284F0020B84800204818002094BE0020B3
:10B4F00050CA0020505600204C5600205C450020C9
:10B500000080000830B402681146531C036011F833
:10B51000024B0160D31C517803609378151D0560C0
:10B520001B0443EA0123D078234343EA006030BC84
:10B53000704700BF0368591C1A46016012F8021BCD
:10B540000260587841EA0020704700BF03685A1C27
:10B5500002601878704700BF70B5044608460E4672
:10B560004AF0C4F831460546024620684BF070FCAC
:10B5700020682844206070BD38B504460068154630
:10B580004BF066FC22682A44226038BD036810B480
:10B590000A0E5C1C04601A7003680A0C5C1C0460D0
:10B5A0001A7003680A0A5C1C04601A7003685A1C4B
:10B5B000026019705DF8044B704700BF036810B457
:10B5C0000A0A5C1C04601A7003685A1C0260197035
:10B5D0005DF8044B704700BF03685A1C026010B44A
:10B5E000197003680A0A5C1C04601A7003680A0C6C
:10B5F0005C1C04601A700368090E5A1C0260197002
:10B600005DF8044B704700BF03685A1C0260197054
:10B610000368090A5A1C026019707047B0F90030BB
:10B620009FED126A06EE903AB0F9023007EE103A3A
:10B63000B0F9043000B507EE903AF8EEE66AB8EEDD
:10B64000C77AF8EEE77A85B066EE866A27EE067A64
:10B6500067EE867A01A8CDED016A8DED027ACDED17
:10B66000037AFCF72FFF05B05DF804FB88C3E43ACA
:10B6700007EE901AF8EE677A9FED837A27EE800A3C
:10B6800020EE070AFDEEC07A17EE903A2033402BE9
:10B6900000F28180DFED7D7AB4EEE70AF1EE10FA78
:10B6A00040F3E680B0EE407A9FED796ADFED796A8B
:10B6B00001E0B0EE677AB4EEE67AF1EE10FA77EEDA
:10B6C000467AF6DC9FED747AF4EEC77AF1EE10FA62
:10B6D00040F1D1809FED6E6ADFED706A01E0F0EE1F
:10B6E000477AF4EEE67AF1EE10FA37EE867AF6D47F
:10B6F000DFED6B7AB4EEE77AF1EE10FA40F3A78053
:10B70000DFED627A37EEC77A27EE076ADFED655A1A
:10B71000DFED657ADFED656A9FED655AE6EE257A25
:10B7200067EE065AE6EE276AF7EE007AA5EEA67AED
:10B73000F0EE675AE7EE055AE7EE457A87EEA55A2E
:10B74000DFED577A30EE277AFDEEC76A16EE903AB3
:10B750002033402B24D99FED577AF6EE006AB7EEDE
:10B76000006AF7EE004AC4EEA57A002383614361C4
:10B770000362C36180ED045A67EEA66A27EE866A0B
:10B7800027EE877AC0ED006AC0ED026A80ED016A9B
:10B7900080ED037A7047B7EE005AF0EE455ACFE7D6
:10B7A000B4EEE70AF1EE10FA6BDD9FED396ADFEDDA
:10B7B000396A01E0B0EE677AB4EEE67AF1EE10FA9B
:10B7C00077EE467AF6DC9FED347AF4EEC77AF1EE46
:10B7D00010FA53D59FED2E6ADFED306A01E0F0EEEE
:10B7E000477AF4EEE67AF1EE10FA37EE867AF6D47E
:10B7F000DFED2B7AB4EEE77AF1EE10FA33DCDFED11
:10B800002E7AB4EEE77AF1EE10FA44BFDFED227A39
:10B8100037EEC77A27EE076ADFED224ADFED226AAC
:10B82000DFED227AE6EE246A67EE064AE6EE267A35
:10B83000B7EE006AA4EEA77AF6EE006A36EE476A23
:10B84000F8EE007A27EE277A66EE266A89E7DFEDC2
:10B850001A7AB4EEE77AF1EE10FA44BFDFED0E7A11
:10B8600037EEC77A50E7DFED097A37EEC77AD1E7CE
:10B87000F0EE407A26E7B0EE677A39E7B0EE677A05
:10B88000B6E7F0EE477A9EE727D4D236DB0F494081
:10B89000DB0FC940E4CB1641DB0F49C0E4CB16C136
:10B8A000DB0FC93F92E741B99730083C15A82ABE83
:10B8B000F304353F00000000DB0FC9BFDFED317A34
:10B8C00030EE277AFDEEC76A16EE903A2033402B11
:10B8D00002D99FED2D0A7047B4EEE70AF1EE10FA97
:10B8E0004DDD9FED2A6ADFED2A6A01E0B0EE677A4E
:10B8F000B4EEE67AF1EE10FA77EE467AF6DC9FEDDA
:10B90000257AF4EEC77AF1EE10FA35D5DFED1F6A2D
:10B910009FED217A01E0F0EE407AF4EEC77AF1EE85
:10B9200010FA37EEA60AF6D4DFED167AB4EEE70A7F
:10B93000F1EE10FA1BDCDFED197AB4EEE70AF1EE56
:10B9400010FA44BFDFED137A37EEC00A60EE006AEA
:10B950009FED136A9FED137ADFED137AA6EE867AD8
:10B9600020EE266AE6EE877AA6EE270A7047DFED1C
:10B970000F7A37EEC00AE9E7B0EE670AD4E7F0EED7
:10B98000477ABCE7DB0FC93F00000000DB0FC9406E
:10B99000E4CB1641DB0F49C0E4CB16C1DB0FC9BFB6
:10B9A00092E741B99730083C15A82ABEDB0F494001
:10B9B00002B370B48E1803E0121B14D1B14215D03B
