:020000040800F2
:10000000F0FF012075990508D1020408B5570108D1
:10001000ED990508ED990508ED9905080000000027
:10002000000000000000000000000000CD020408F5
:10003000C902040800000000C5020408B99D0108B7
:10004000ED990508ED990508ED990508ED99050864
:10005000ED990508ED990508B9A50108E5A601087F
:10006000A9A601086DA6010831A60108F53C0508FE
:10007000E53C0508D53C0508C53C0508B13C05082C
:100080009D3C0508893C0508ED9905080000000025
:10009000000000000000000000000000F5A50108BD
:1000A000495D010835610108795C0108B962010800
:1000B00075600108B55F0108E95E0108974705080A
:1000C0009D4705088D47050893470508ED990508E4
:1000D000ED990508B59E0108F99D01080000000092
:1000E0007DA50108ED990508CD3F0408000000003A
:1000F000000000000000000000000000753C050842
:1001000000000000ED990508195E0108ED99050849
:1001100000000000000000000000000000000000DF
:10012000613C05084D3C0508393C0508253C05089F
:10013000113C050800000000000000000000000065
:100140000000000000000000000000005917040833
:10015000FD3B0508E93B0508D53B0508ED99050879
:1001600083470508894705080000000000000000DB
:10017000000000000000000000000000000000007F
:1001800000000000ED9905080000000000000000DC
:08019000ED990508ED99050841
:080198000C95050001000000B8
:1001A00007020100020000008C1E0020A41E002097
:1001B00000000000F00800081D0202000600000018
:1001C000581E0020A81E00200000000000000000B3
:1001D000060203000C000000741E0020B021002065
:1001E00000000000CD8E0008081203000F00000080
:1001F000641E0020BC2100200000000021880008AF
:10020000270001000400000018190020CC21002064
:1002100000000000F20800081A0201003C00000083
:10022000A42600204028002000000000559200086D
:10023000031201003D0000002C2600207C28002035
:1002400000000000F608000838100100010000005E
:1002500094240020BC28002000000000340900087D
:1002600028020400040000006C2D0020702D0020E6
:100270000000000059880008270204000400000064
:10028000682D0020742D0020000000004D8800081B
:100290001A0001000E000000303C0020183D002034
:1002A0000000000036090008203201000A000000AA
:1002B000203B0020283D00200000000061EA0108EA
:1002C00015001000700000006C350020343D002047
:1002D00000000000000000002A000800600000008C
:1002E0000C350020A43D00200000000039EA010880
:1002F0002C00040010000000143E0020043E0020EA
:10030000000000000DE801082B001200240000008E
:10031000483E0020243E002000000000DDE70108E8
:100320002920140078000000243200206C3E0020B8
:1003300000000000000000000A020100140000009C
:10034000105D00208460002000000000B5C202089B
:10035000F8210100060000000055002098600020F0
:100360000000000044090008030001000100000033
:100370000C550020A06000200000000000000000DC
:10038000101001000200000048540020A46000206A
:10039000000000004A09000825201E002C01000072
:1003A0002C5D0020A860002000000000000000007C
:1003B0001900010005000000AC530020D4610020AA
:1003C000000000004C090008F62101000C000000AC
:1003D000287000208C7100200000000054090008E3
:1003E0001C0202001C000000B0700020DC71002024
:1003F00000000000018E000814000100040000004D
:10040000FC6F0020F8710020000000006009000867
:10041000012001000C00000008680020FC71002091
:1004200000000000640900080EF00300CE01000087
:1004300020630020087200200000000081EA01080B
:100440001300010004000000AC6D0020D8730020F0
:100450000000000070090008010101000400000014
:100460006C620020DC73002000000000000000002F
:10047000000101000400000064620020E07300201D
:1004800000000000740900080201010003000000E0
:1004900060620020E47300200000000045BC0208F8
:1004A000220201001C010000946B0020E873002070
:1004B00000000000219100080C20060058020000F6
:1004C00014650020047500200000000025BC02080F
:1004D0000B3001001A0000007C8F00209C97002048
:1004E00000000000780900081F300100240000000F
:1004F00068860020B89700200000000094090008DA
:1005000005020100040000006C940020DC9700202C
:1005100000000000B8090008030101000A00000003
:10052000D48E0020E0970020000000005DDC03086E
:10053000130201000400000094800020EC970020CA
:1005400000000000BC0900080D1001004000000080
:10055000A0910020F0970020000000004FB2040896
:100560000400080080000000F8900020309800206F
:10057000000000000000000009020100010000006E
:1005800090930020B098002000000000C0090008EF
:10059000010201000B000000F8A2002030B2002090
:1005A00000000000118800081B020100100000007C
:1005B000E4A200203CB20020000000005D8800089A
:1005C0001B1001000C000000609B00204CB20020BA
:1005D000000000008568040821020100F00000000E
:1005E000E099002058B2002000000000054B0408EC
:1005F0002312010010000000E89F002048B30020F3
:1006000000000000C4090008371001002E0000009F
:1006100054A2002058B3002000000000D4090008B4
:100620000E02010002000000E49F002088B30020B9
:1006300000000000020A0008161001000600000079
:10064000DC9F00208CB3002000000000040A00089A
:100650002F100100220000000CB2002094B30020F3
:10066000000000000A0A00081E0001000900000046
:10067000CC9E0020B8B30020000000002C0A000827
:100680000510010006000000BC9E0020C4B300203D
:1006900000000000360A0008F58101006800000033
:1006A00070990020CCB30020000000004D91040898
:1006B0002320010010000000889F002034B4002097
:1006C0000000000059540308FD07010076000000F7
:1006D000B498002044B4002000000000B541040894
:1006E000261001000E000000CCB40020BCB4002095
:1006F0000000000019400408020001000C00000086
:1007000068B50020FCB500200000000000000000DB
:100710002902010040000000E8B4002008B60020D3
:10072000000000003C0A0008100201000100000067
:1007300080CA00207CCA0020000000007C0A00085B
:10074000F901010004000000D4EB002064F4002053
:10075000000000003D720108FD01010024000000BE
:100760008CEB002068F40020000000008F7101086D
:10077000182001003200000054EB00208CF400200F
:1007800000000000D9910008FB01010001000000F9
:1007900098E90020C0F400200000000089900008C3
:1007A000FC0101000900000064E80020C4F40020FE
:1007B0000000000099900008F70101000600000009
:1007C0005CE80020D0F40020000000007E0A000851
:1007D000160215003F000000B0CF0020D8F4002022
:1007E00000000000699100083400010010000000C2
:1007F000E8E6002018F5002000000000C50002080F
:100800001102010008000000C0E6002028F50020C9
:1008100000000000840A0008121201000400000019
:10082000B8E6002030F50020000000008C0A000827
:100830000A8001002800000048DF002034F5002075
:100840000000000041530308061001001C000000D6
:10085000D4CE00205CF5002000000000B590000818
:10086000122001001100000004D7002078F50020BC
:1008700000000000900A0008000201000B000000C8
:1008800040D400208CF50020000000000000000093
:10089000020201000300000098CE002098F500201D
:1008A00000000000000000000C0201000400000035
:1008B00048CE00209CF5002000000000F9870008C9
:1008C0001F02080010000000ECD30020A0F500205B
:1008D00000000000DD870008FE0101001400000098
:1008E000F0D20020B0F5002000000000B58700081D
:1008F000013C200300000000000000000000000098
:1009000000000000000000000000000000000000E7
:1009100000000000000000000000000000000000D7
:1009200000000000000000000000000000000000C7
:100930000000010000007E05EA05B4053200E8036E
:10094000D00700000201F401140000050000280196
:100950000000000000000000010000000202000092
:1009600003000023E8036400040A000114001E00D1
:100970000800400090010000AE014A015E012C0118
:1009800064010100000001000A019A01001E0A0032
:10099000000200000000000000010000000500004F
:1009A0000102030000000000000000000000000041
:1009B00000000000008007000000000000000100AF
:1009C0001300000000000000000000000000000014
:1009D0000000000020003200C800D007960014007C
:1009E000320028004C0440060005500014000F009F
:1009F000080064000100000005000A000000F40186
:100A000096000000C409000019000000000000006A
:100A100000000000000000000000000000000000D6
:100A200000000000000000000000000000050100C0
:100A30000000000000002000030100000000000092
:100A400000000000000000000000000000000000A6
:100A50000000000000000000000000000000000096
:100A60000000000000000000000000000000000086
:100A700000000000000000000000000000003E0137
:100A8000000000000000000001010101FFFFFFFF66
:100A900000000001000105484B343100000800024D
:010AA0000055
:100AA100FF010000F4010000FF000000ACD90508BF
:100AB10001000000A00F0000B80B00000102FFFFC1
:100AC10001000000685E0C0002FF0000FFFF000053
:100AD100FFFFFFFF30A60608000008020503030020
:100AE1000000000038A60608010008020504030002
:100AF1000000000040B006080200FE0101100300E2
:100B01000000000040A606080300140200030000D4
:100B11000000000048A6060804001F0202000800A9
:100B21000000000050A6060805001F02020108008F
:100B310000000000842D0020D82D002001D601FFE7
:100B4100E43E0020FFFFFFFF0000803F00000000A7
:100B510000000000000000000000803F00000000D5
:100B61000000000000000000000000000000000084
:100B71000000000000000000000000000000000074
:100B81000000803F000000000000000000000000A5
:100B9100010000000000FA430000FA430000803F1A
:100BA10000000000000000000000000095D50408CE
:100BB1000000000000000000000000000000803F75
:100BC100FFFFFFFF0000000074600020080000002C
:100BD1000000000064600020080000002000000008
:100BE10001000000054A03080000000000000000A9
:100BF100801A06080000000000000000000000004C
:100C0100F0330608000000000000000000000000B2
:100C1100A8340608000000000000000000000000E9
:100C21005434060800000000000000009D6D030818
:100C3100B96A002001010000917F03080000000053
:100C4100000000007C350608C58203080000000092
:100C510000000000343506082D202D2D202D2D2DCE
:100C61002D202D2D2D0000000000000000000000AF
:100C71000000000000000000FFFFFFFFC173030838
:100C810000000000000000008033060801000000A1
:100C9100FA00000001000000010000000101000055
:100CA1000001010100000000006800200000F401C3
:100CB10001000000FE6700200000F40101000000B7
:100CC100FC6700200000F40101000000FA67002029
:100CD1000000F40101000000F86700200000F401A9
:100CE10001000000F66700200000F401010000008F
:100CF100F46700200000F40101000000E151030845
:100D0100A55103080000000044200608E467002004
:100D110005320100F26700206400F40101000000C7
:100D2100F06700206400C40901000000E2670020B0
:100D3100E803D00701000000E0670020E803D007C6
:100D410001000000DE670020E803D0070100000079
:100D5100DC6700201E00B80B01000000EA670020DC
:100D610005000F0001000000EC67002003000A00ED
:100D710001000000DA6700201E00F40101000000FC
:100D8100EE67002002000000D0200608D86700208E
:100D91001400640001000000E66700203200E8034F
:100DA10001000000D66700200000C800010000001B
:100DB1001165002000C801001065002000500100ED
:100DC1000F650020005A01000D650020020000009F
:100DD100DC20060860B3060868B306084E930020BD
:100DE1000100C409000000004C9300200100C40967
:100DF100000000004A9300200100C4090000000027
:100E0100489300200100C409000000004493002021
:100E11000100C40900000000469300200100C4093C
:100E210000000000429300200100C40900000000FE
:100E3100409300200100C409000000008B620020E3
:100E410000C801008A62002000C8010088620020F9
:100E51000000FFFF0A000000866200200100C800B8
:100E61000100000084620020320030753200000071
:100E710082620020058205008062002005002C01AD
:100E8100050000007E620020055A05007B620020FB
:100E910000FF01007D62002002000000CC04002060
:100EA10079620020030000000C4106087A620020EC
:100EB10000FF01007C62002002000000CC04002041
:100EC10078620020030000000C4106083551030838
:100ED100C550030800000000E8200608186800203B
:100EE100EE02CA08010000001668002000C80100D7
:100EF100640000001568002000C8010064000000C3
:100F01001468002002000000F4210608726200202B
:100F11000000803E050000007062002080C1803E1C
:100F2100050000006A6200200083007D05000000CA
:100F31006862002080C1803E0500000063620020DD
:100F410000FF01005C6200206400F4010100000068
:100F51005A620020040000000022060859620020A5
:100F61000200000014220608116300200D00000099
:100F7100202206080E630020006401000C6300209B
:100F8100320010270A0000000A6300200D00000053
:100F910020220608096300200D0000002022060817
:100FA1000863002002000000582206081E68002085
:100FB1003E000000642206081C6800200100FF7F3B
:100FC100010000001B6800200200000060230608E9
:100FD1001363002003000000702306081263002041
:100FE1000300000070230608FE640020000A0100CF
:100FF100FC6400200000E80301000000FA64002006
:101001000000E80301000000F86400200000E8038C
:1010110001000000F66400200000E8030100000068
:10102100EE6400200000E80301000000F4640020E9
:101031000000E80301000000F26400200000E80362
:1010410001000000F0640020001401000C65002084
:1010510002000000802306080A6500200000F40158
:1010610001000000086500200000F40101000000FB
:10107100066500200000F401010000000465002065
:101081000000F40101000000026500200000A00F33
:1010910001000000006500200000A00F0100000019
:1010A1007F670020196401007E67002002000000B4
:1010B1008C2306087C670020E803D0070A000000A3
:1010C1007A670020006401000A0000006F670020B9
:1010D100006401006E670020006401007667002053
:1010E100006401000A00000075670020006401002F
:1010F1000A00000074670020006401000A0000007B
:101101007967002000FF01000A00000078670020D5
:1011110000FF01000A0000007767002000FF0100C6
:101121000A0000007367002001FF01000A000000AF
:101131007267002001FF01000A00000071670020B2
:1011410001FF01000A0000001C6300200000F401FF
:10115100010000001A6300200000A00F0100000040
:10116100186300200000A00F01000000166300209A
:101171000000A00F01000000146300200000A00F78
:1011810001000000016B002000C80100006B00207D
:1011910000640100FF6A002000640100FE6A002073
:1011A10000640100FD6A002000640100FC6A002067
:1011B100FF080100FB6A0020016401003D500308A3
:1011C100015003080000000098230608046B00206A
:1011D10001320100036B0020010000000824060811
:1011E100026B00200400000010240608FA6A0020A7
:1011F10000640100F86A00201400E8030100000007
:10120100F66A0020E80330750A000000F56A002044
:1012110000C80100F46A002000C80100F36A002040
:1012210000C80100F26A002000320100066B0020B4
:10123100004B0100056B0020040000002424060877
:10124100F16A0020006401000A0000001E6B00200A
:101251000000D00701000000186B002000002003EF
:1012610001000000166B00200000C8000100000012
:10127100146B00200000C800010000001C6B00205E
:101281000000D00701000000126B002000002003C5
:1012910001000000106B00200000C80001000000E8
:1012A1000E6B00200000C800010000001A6B002036
:1012B1000000D007010000000C6B0020000020039B
:1012C100010000000A6B00200000C80001000000BE
:1012D100086B00200000C80001000000F54D030864
:1012E100DD4D0308000000003824060805630020D6
:1012F100005A01000463002000C8010002630020BD
:10130100E803D00701000000000000000000000019
:10131100DD6D0308D424060848414B52434634315D
:101321003100000077620020000301007662002096
:1013310000030100194D0308CD4C03080000000013
:10134100282506088D4C0308454C030800000000C1
:10135100C4250608654D0308A573030800000000B5
:101361004426060874620020010301008952030823
:101371005D520308000000009C290608C94B0308C0
:101381007D4B0308000000000C2A0608054E0308E7
:10139100758B030800000000A82A0608A16E030847
:1013A100B552030800000000502B0608554E0308F3
:1013B1000000000000000000D02B0608314F030898
:1013C100D94E030800000000342C0608C54F03085D
:1013D100894F030800000000DC2C06080DD003082B
:1013E1007950030800000000682D0608D46700202A
:1013F100010601009D4E0308694E0308000000002C
:10140100642E060843CF030841750308000000005D
:10141100D42E060845D00308097603080000000011
:1014210024300608D26700200100030001000000FB
:10143100AD4D03087D4D030800000000F83006089B
:101441009DD0030800000000000000005C31060888
:10145100154C03088D73030800000000DC310608F9
:1014610000000000000000000000000068320608D3
:101471009D5003088576030800000000D832060855
:10148100000000000000000000000000F034060829
:10149100189400209CFF2C0100000000446D0020E6
:1014A100E0150C17000000004C6A0020020000004B
:1014B100283506085462002088136F1701000000C8
:1014C1005662002088136F1700000000C68E0020AE
:1014D1000000000000000000C48E00200000000099
:1014E10000000000C28E002000000000000000008B
:1014F100C08E00200000000000000000BE8E002011
:101501000000000000000000BC8E00200000000070
:1015110000000000980E0020000000000000000004
:10152100DC61002003000000183606084C62002030
:1015310088136F17010000006294002088136F1751
:1015410000000000BD4A0308000000000000000088
:10155100283606084D6A0020010000007C36060886
:101561006494002001000000883606085A94002087
:101571000200000090360608000000000000000094
:10158100000000009C360608A54A03080000000080
:1015910000000000383706080000000000000000CD
:1015A100000000008C370608000000000000000069
:1015B10000000000FC37060858620020020000000D
:1015C100343806085E940020E0150C170000000076
:1015D1000403090412010002EF02014083045632A0
:1015E1000002010203010000120100020202004098
:1015F1008304405700020102030100000902640054
:10160100030100C0320904000001030000000921A8
:10161100110100012236000705830309000A080BA6
:101621000102020201000904010001020201000598
:1016310024001001052401000204240202052406ED
:101641000102070582030800FF09040200020A00E3
:10165100000007050102400000070581024000006B
:1016610009024300020100C0320904000001020224
:1016710001000524001001052401000104240202D7
:101681000524060001070582030800FF0904010083
:10169100020A00000007050102400000070581025F
:1016A10040000000FF00000000FF000000000000FB
:1016B1000000AA550701000001AA55050100000814
:1016C100C0390608FF1FFF1F0000803F0501090503
:1016D100A101A10005010930093109320933093598
:1016E1000934093609371581257F75089508810266
:1016F10005091901290815002501950875018102BF
:10170100C0C0000009022200010100E0320904000A
:101711000001030102000921110100012236000725
:1017210005830309000A0000000000000102030410
:101731000102030406070809650404082D0B0408C7
:10174100A9060408D5D40308DDD90308E5D40308A4
:1017510001D50308ADD403089DD40308000000009F
:10176100000000002D202D2D202D2D2D2D202D2D83
:101771002D2D00000000000000000000000000000E
:10178100000000AA550B010000AA5505010000AA9E
:10179100550902000000AA5503009F000100000046
:1017A100C01200006C9700200000000094970020F8
:1017B100000000000100000000000100E0017EFFC8
:1017C100FFFFFFFFFF000000FFFFFFFF0800000019
:1017D100DCA6060824CE060800000000B1BC020801
:1017E100A0860100040000000000000000000000CD
:1017F10000000000000000000000000000000000E8
:1018010000000000000000000000000000000000D7
:10181100DCA60608A0CE060800000000D9E60008F4
:10182100E8030000040000000000000000000000C8
:1018310000000000000000000000000000000000A7
:101841000000000000000000000000000000000097
:1018510004A606080000000000000000F1BD020817
:101861007D000000FF0000000000000000000000FB
:101871000000000000000000000000000000000067
:101881000000000000000000000000000000000057
:1018910090AA06080000000000000000F5DB020825
:1018A1007D000000FF0000000000000000000000BB
:1018B1000000000000000000000000000000000027
:1018C1000000000000000000000000000000000017
:1018D10068BB0608000000000000000001000308CA
:1018E1007D000000FF00000000000000000000007B
:1018F10000000000000000000000000000000000E7
:1019010000000000000000000000000000000000D6
:101911000CA606080000000000000000294F010885
:10192100E8030000030000000000000000000000C8
:1019310000000000000000000000000000000000A6
:101941000000000000000000000000000000000096
:10195100A8CE060800000000000000000D9F02084C
:10196100102700000300000000000000000000003C
:101971000000000000000000000000000000000066
:101981000000000000000000000000000000000056
:101991003CA6060800000000F9E30108F11E010859
:1019A1005F7600000500000000000000000000005C
:1019B1000000000000000000000000000000000026
:1019C1000000000000000000000000000000000016
:1019D10000AA060800000000000000008568010858
:1019E10010270000010000000000000000000000BE
:1019F10000000000000000000000000000000000E6
:101A010000000000000000000000000000000000D5
:101A1100B4CE06080000000000000000DDE600086A
:101A2100E8030000050000000000000000000000C5
:101A310000000000000000000000000000000000A5
:101A41000000000000000000000000000000000095
:101A5100C0CE06080000000000000000F1C202082C
:101A6100204E000003000000000000000000000004
:101A71000000000000000000000000000000000065
:101A81000000000000000000000000000000000055
:101A9100D0CE0608000000000000000079CE020848
:101AA100204E0000030000000000000000000000C4
:101AB1000000000000000000000000000000000025
:101AC1000000000000000000000000000000000015
:101AD100E0CE06080000000000000000A51B010880
:101AE100400D0300030000000000000000000000A2
:101AF10000000000000000000000000000000000E5
:101B010000000000000000000000000000000000D4
:101B1100D4A70608000000000000000089D30408D3
:101B2100102700000100000000000000000000007C
:101B310000000000000000000000000000000000A4
:101B41000000000000000000000000000000000094
:101B510024A606080000000000000000217404080B
:101B6100102700000300000000000000000000003A
:101B71000000000000000000000000000000000064
:101B81000000000000000000000000000000000054
:101B910010A606080000000000000000211A01083C
:101BA10050C3000001000000000000000000000020
:101BB1000000000000000000000000000000000024
:101BC1000000000000000000000000000000000014
:101BD100A8B5060800000000000000000516010875
:101BE100A8610000010000000000000000000000EA
:101BF10000000000000000000000000000000000E4
:101C010000000000000000000000000000000000D3
:101C1100F0CE060800000000000000000195030856
:101C2100A08601000100000000000000000000008B
:101C310000000000000000000000000000000000A3
:101C41000000000000000000000000000000000093
:101C510008AA0608000000000000000015E70008BF
:101C6100A00F0000010000000000000000000000C3
:101C71000000000000000000000000000000000063
:101C81000000000000000000000000000000000053
:101C9100FCCE06080000000000000000399C04088A
:101CA10010270000010000000000000000000000FB
:101CB1000000000000000000000000000000000023
:101CC1000000000000000000000000000000000013
:101CD100DCA7060800000000000000005194040881
:101CE1001A41000001000000000000000000000097
:101CF10000000000000000000000000000000000E3
:101D010000000000000000000000000000000000D2
:101D11006CAA0608000000000000000091DC030826
:101D2100102700000100000000000000000000007A
:101D310000000000000000000000000000000000A2
:101D41000000000000000000000000000000000092
:101D510038CE060800000000000000004D9E030878
:101D610050C300000100000000000000000000005E
:101D71000000000000000000000000000000000062
:101D81000000000000000000000000000000000052
:101D910008CF0608000000000000000095E40308D9
:101DA100400D0300000000000000000000000000E2
:101DB1000000000000000000000000000000000022
:101DC1000000000000000000000000000000000012
:101DD10010CF0608000000000000000095E6000892
:101DE100400D0300000000000000000000000000A2
:101DF10000000000000000000000000000000000E2
:101E010000000000000000000000000000000000D1
:101E110018CF0608000000000000000035A70408E4
:101E210050C300000300000000000000000000009B
:101E310000000000000000000000000000000000A1
:101E41000000000000000000000000000000000091
:101E510024CF0608000000000000000045450308EB
:101E610040420F00000000000000000000000000E0
:101E71000000000000000000000000000000000061
:101E81000000000000000000000000000000000051
:101E910030CF0608000000000000000001B4040873
:101EA10050C300000000000000000000000000001E
:101EB1000000000000000000000000000000000021
:101EC1000000000000000000000000000000000011
:101ED10001FF0100A9D903089DD80308850604085C
:101EE1000000000099D40308C10C04081DD80308A0
:101EF100BD030408000000000000000055D40308E1
:101F010019D903085DD80308C505040800000000BD
:101F11006DD40308C1030408F1D703081D030408A5
:101F2100000000000000000061D403080800000068
:101F31000000040100000000000000021000000089
:101F4100070000007D0000000060024010600240B8
:101F51000000000000000000000B00000000000075
:101F61000000000000000000006002402860024004
:101F71000100000000000000060C0000000000004D
:101F810000000000000000000060024040600240CC
:101F91000200000000000000100D00000000000021
:101FA1000000000000000000006002405860024094
:101FB1000300000000000000160E000000000000F9
:101FC100000000000000000000600240706002405C
:101FD1000400000000000000200F000000000000CD
:101FE1000000000000000000006002408860024024
:101FF10005000000000000002610000000000000A5
:10200100000000000000000000600240A0600240EB
:102011000600000000000000301100000000000078
:10202100000000000000000000600240B8600240B3
:102031000700000000000000362F00000000000033
:102041000000000000000000006402401064024033
:102051000000000000000000003800000000000047
:1020610000000000000000000064024028640240FB
:10207100010000000000000006390000000000001F
:1020810000000000000000000064024040640240C3
:102091000200000000000000103A000000000000F3
:1020A100000000000000000000640240586402408B
:1020B1000300000000000000163B000000000000CB
:1020C1000000000000000000006402407064024053
:1020D1000400000000000000203C0000000000009F
:1020E100000000000000000000640240886402401B
:1020F1000500000000000000264400000000000070
:10210100000000000000000000640240A0640240E2
:102111000600000000000000304500000000000043
:10212100000000000000000000640240B8640240AA
:10213100070000000000000036460000000000001B
:102141000000000000000000B9D30308B5D3030864
:10215100B1D30308A5D30308A1D30308ADD3030862
:10216100A9D303082DD4030821D40308F9D3030804
:102171000DD40308E5D30308D1D30308BDD3030865
:102181000101010080180020000000000000000093
:10219100000000000000000000000000000000003E
:1021A100000000000000000000000000000000002E
:1021B100000000000000000000000000000000001E
:1021C100000000000000000000000000000000000E
:1021D10000000000000000000000000000000000FE
:0821E1000000000000000000F6
:082800000000000000000000D0
:1080000090ED057A90ED004AD0ED066AD0ED014A78
:10801000D0ED047A90ED035AD0ED025AA4EE007A26
:10802000B0EE406AB0EE470AB0EE667AA4EE867A09
:1080300067EEC07AA5EE407AE5EE867A80ED057AA5
:10804000C0ED067A704700BFD0ED057A90ED013A99
:10805000D0ED003AD0ED064A90ED024A90ED077A55
:1080600090ED035A90ED086AD0ED045AC0ED067AFF
:10807000F0EE406A27EE830AC0ED056AA3EEA60A79
:1080800080ED087AA4EE240AA5EE470AA5EEC60AFA
:1080900080ED070A704700BFDFED2B7AB4EEE70AE8
:1080A000F1EE10FA4ADDDFED296A9FED297A01E051
:1080B000B0EE670AB4EEC70AF1EE10FA70EE667A17
:1080C000F6DC9FED247AF4EEC77AF1EE10FA38D59B
:1080D000DFED1E6A9FED207A01E0F0EE407AF4EECB
:1080E000C77AF1EE10FA37EEA60AF6D4DFED1B7A66
:1080F000B4EEE70AF1EE10FA14DDDFED137A37EE95
:10810000C00A60EE006A9FED166A9FED167ADFEDF9
:10811000167AA6EE867A20EE266AE6EE877AA6EE34
:10812000270A7047DFED117AB4EEE70AF1EE10FA94
:1081300044BFDFED087A37EEC00AE2E7F0EE407A9E
:10814000BFE7B0EE670AD1E7DB0F4940DB0FC9405C
:10815000E4CB1641DB0F49C0E4CB16C1DB0FC93FAE
:1081600092E741B99730083C15A82ABEDB0FC9BF7A
:10817000D0ED007A90ED017A30EE670AE7EE007AF2
:10818000B0EE670AC0ED007A704700BF704700BFCD
:108190000378202B024600F10100F9D0092BF7D01B
:1081A0002D2B00F0A4802B2B03BF5378B7EE000AD1
:1081B0000246B7EE000AA3F13001C8B209289FEDCC
:1081C000577A10D8F2EE046A07EE901AF8EEE77AC2
:1081D00012F8013FE7EE267AA3F13001C8B2092870
:1081E000B0EE677AF0D92E2B63D003F0DF03452B76
:1081F00002D020EE070A704710B451782D294FD0D5
:108200002B2979D0A1F13003092B02F101027AD890
:108210000024002303EB830301EB430312F8011F47
:10822000A1F130000928A3F13003F3D9B3F59A7F07
:108230001A4628BF4FF49A72072B6CD9DFED386AC3
:108240001346F7EE007A083B072B67EEA67AFAD8BA
:1082500002F00702DAB1F2EE046A012A67EEA67AAA
:1082600015D0022A67EEA67A11D0032A67EEA67A05
:108270000DD0042A67EEA67A09D0052A67EEA67A01
:1082800005D067EEA67A062A18BF67EEA67A002CFC
:108290003BD087EE277A5DF8044B20EE070A704743
:1082A0009178A1F13003092B02F1020230D80124A8
:1082B000AFE75378A3F13001C8B2092802F10102F7
:1082C00093D8F2EE046AF0EE665A07EE901AF8EED2
:1082D000E77A12F8013F87EEA66AA3F13001C8B22F
:1082E000092866EEA56A37EE067AEED97DE753785F
:1082F000BFEE000A02465EE79178A1F13003092B38
:1083000002F1020284D9F7EE007A27EE277AC2E75B
:10831000F7EE007ABDE7F7EE007A9BE70000000079
:1083200020BCBE4C0028BFBF2D2340420B70013142
:108330000928F0B44FF00103044607DD03EB830383
:108340005B00B0FBF3F2092AF8D883B10F48A0FB19
:108350000326B4FBF3F2092A02F1570C02F13007AD
:1083600009DD03FB1244F30801F801CBEFD1002330
:108370000B70F0BC704703FB1244F30801F8017B5B
:10838000E5D100230B70F0BC704700BFCDCCCCCC46
:10839000884270B44FF0010442D301FB04F4B0FBF7
:1083A000F4F58D42F9D2ECB142BB092D04FB150066
:1083B00005F1570605F130020EDDB4FBF1F403F8C8
:1083C000016B7CB1B0FBF4F5092D04FB150005F140
:1083D000570605F13002F0DCB4FBF1F403F8012B91
:1083E000002CEFD100221A7070BC704703F8016BAB
:1083F000B4FBF1F4002CF5D0B0FBF4F5092D04FB2F
:10840000150005F1370605F13002EFDCB4FBF1F49D
:1084100003F8012B002CEFD100221A7070BC7047BA
:108420000546002AEAD1C0E70388B3F5FA6F17D3EF
:108430008378013B0B2B13D8C378013B1E2B0FD83D
:108440000379172B0CD843793B2B09D883793B2B25
:1084500006D80089B0F57A7F2CBF00200120704734
:10846000002070472DE9F04714461D4606464FF49C
:108470007A7200232046294651F0B0F84D4BDFF8C0
:1084800048814D4A4D4F034488FB03101844D917C7
:1084900082FB032CC1EB601088FB002887FB0327BD
:1084A0009C44474AC1EBEC2CC0EB001E82FB0C291C
:1084B000A3EB8E0E1F44434A86F806E0C1EB274724
:1084C0004FEAEC7E08EB000ACEEBA90E82FB078296
:1084D0004FEAE0780EEB4E0EC8EB6A18ACEBCE0C10
:1084E000C8EB0818DFF8E4E086F804C0A0EB8800C9
:1084F00070718EFB0303F817C0EBE21240F2B55027
:1085000000FB1272C1EBE353B2F5896F4FEA8307A8
:108510003CDA40F2DA239A4242DCB2F5B77FB4BFCC
:108520004FF0000E4FF0010E4FEA4E09DFF8A08029
:1085300009EB0E0308EBC3031FFA8EFCD88A09EB84
:108540000E0108EBC10116310B2301E031F8020DD9
:10855000904218DD013BF9D1CE44012338F83E00AA
:10856000B37007F5FA670132121ABC44F270A6F82C
:1085700000C0204629464FF47A72002351F02EF8AD
:108580003281BDE8F0870133DBB2E9E74FF0030C3D
:10859000E64640F29650DFF838804FF00609CEE705
:1085A0004FF0020CDFF82880E64640F229404FF0F9
:1085B0000409C4E780BC92C7C5B3A29107452EC287
:1085C000ABAAAA2A73B06D1689888888792D031101
:1085D00034D7050803685A1C02601970704700BF41
:1085E0002DE9F047089C2578002B804689460CBF72
:1085F0004FF0200A4FF0300A661C25B3002A26DD12
:10860000334601E0024698B113F8011B501E0029C1
:10861000F8D1971E60B13D46013D51464046C847DE
:108620006B1C002BF8DC257827EAE770013045B198
:10863000041B29464046C847301916F8015B002D37
:10864000F7D1BDE8F087002A03DC2846F9E70020CF
:10865000EEE7571EDFE700BFD0ED005A9FED530A4B
:1086600035EE800A08B5FDEEC07A2DED028B17EECF
:10867000903A2033402B40F294809FED4D5AFDEE0E
:10868000E57A17EE903A2033402B40F28380DFEDFD
:10869000485AD0ED014A9FED450A34EE800AFDEEBE
:1086A000C07A17EE903A2033402B6AD99FED402ACA
:1086B000B0EE421AB0EE424AFDEEE47A17EE903A7E
:1086C0002033402B56D9DFED3A3AD0ED022A9FED08
:1086D000370A32EE800AFDEEC07A17EE903A203368
:1086E000402B3AD9DFED324AB0EE643AF0EE640A3C
:1086F000B0EE648AF0EE641AFDEEE27A17EE903A7C
:108700002033402B24D99FED2A0AC1ED001A20EE18
:10871000057A60EE257AE7EE234A37EE087ABDEC5B
:10872000028BA7EEE33A24EE404A77EEE07AC1ED01
:10873000074A81ED037A81ED043AC1ED067A81EDB5
:10874000014AC1ED023A81ED051A81ED082A08BD02
:10875000B0EE620AFFF7A0FCD7E7FFF79DFC60EEE2
:10876000254A20EE053A23EEA48A60EE041A63EE51
:10877000830AC1E7B0EE640AFFF78EFCF0EE403AE0
:10878000A3E7FFF789FCB0EE404A25EEC01A20EEC1
:10879000052A91E7B0EE650AFFF77EFCF0EE405A3D
:1087A00077E7FFF779FCB0EE405A68E7DB0FC93F87
:1087B0000000000030B41023012211254FF601748F
:1087C000FF2143700023457104828174027202709C
:1087D000027143818381C38130BC7047034600F13D
:1087E0001001FF221A705A7002339942FAD10270B6
:1087F00042708270C270704710B42C210124022292
:108800000023047041708270C3705DF8044B7047A0
:10881000002302220271037043708370C37070479B
:1088200030B41522162317252D242E2102704370F3
:108830002F22FF23857044718171C271437383734A
:10884000C37003710372437230BC7047002303701E
:1088500043708370C3707047F8E700BF00230621A0
:108860004FF47A720170C0E90123037370472A4AFA
:1088700013685268A3F5000307EE903A274BB8EE51
:10888000E77AD3ED016AD3ED027A93ED046AD3ED72
:10889000085A93ED075AE7EE276AA2F50002D3EDD6
:1088A000007AE7EE267A07EE102AF8EEC76A93ED13
:1088B000057AA7EE276A93ED037AA7EE867A93ED01
:1088C0000B6AE6EE865A93ED0A6AE6EE275A93EDB6
:1088D000096AA6EE275A93ED066AA5EE276AA5EE69
:1088E000A66AA6EE867AB5EE407AF1EE10FA18BFC7
:1088F000BDEEC77AF5EE407A18BF80ED007AF1EE52
:1089000010FA08D0FDEEE77A4FF4807317EE902A44
:1089100092FBF3F30B607047E018002038710020E1
:108920000120704701207047012070477047704751
:108930006D4B2DE9F04F9C686C4BB3F80AE0B3F82F
:1089400004809A894FEA0E2AB4EB0A044FEA1E6BA0
:108950004FF0000587B065EB0B05CDE900450746F4
:10896000009C1889019EA0FB044500FB0655E00908
:1089700040EA45604FEA08448C46E9114FEA184541
:1089800010EB0408D888009C41EB0509CDE9048967
:10899000A0FB0445B3F8028000FB0655200A40EA1C
:1089A00005604FEAC83429124FEA584510EB040815
:1089B00041EB05090099A2FB010102FB06114FEAF8
:1089C000D05A4AEA412A1AF5FA634FEAE15B4BF1C1
:1089D0000004B3F5FA6FCDE9023474F10003424E9E
:1089E00064DA0524AAFB040104FB0B1100FB0BF461
:1089F0000AFB0144DDE90423A0FB0A0121444D10D8
:108A00004FEA3004121B4FEA900463EB050344EA7B
:108A10008174B8EB0408CDE90423DDE9023434485D
:108A20004FEAA10569EB05094FF0FF31834274EB72
:108A3000010326DA40F6AC501AEB00024FF00001B9
:108A40004BEB010302FB03F1A2FB022303EB410307
:108A5000D400DD00101B45EA527563EB0501DDE92A
:108A6000044524184D41CDE904450B24A2FB040123
:108A700004FB031149104FEA3000B8EB000869EB22
:108A80000109DDE900325343009ADDE90201A2FB4E
:108A900002AB0BEB430B4FEADA7242EA4B02801A4D
:108AA0004FEAEB7361EB0301CDE9020197B1F16885
:108AB000A1FB082301FB0933540D5D1544EAC324CF
:108AC000DDE90423A21A65EB03031D46D30B43EA39
:108AD00045433B60BCF1000F02D0029BCCF8003054
:108AE00007B0BDE8F08F00BFE0180020087100203B
:108AF00024FAFFFF2DE9F04FDFF8E8C1784CDCF8ED
:108B000010502288C2EB25135200C2EBE502B4F9E3
:108B100002505B436A43B4F904501B135D43AD1329
:108B200005EBE225B5F5FA324FEAE57985B049F172
:108B3000FF33CDE90023DDE900325343009ACCF83E
:108B40001450A2FB02ABB4F90820CDE9020101994F
:108B5000009812B20BEB430B5143D31700FB0311E8
:108B6000A2FB00230B441F03160347EA1257B4F974
:108B70000A200FFA82F84FEAE87908FB0BF10AFBAA
:108B80000913A8FB0A0119444FEA102848EA0168B2
:108B900018EB0602E6884FEA212949EB0703B6B233
:108BA00012F1000843F50049A8FB060106FB091174
:108BB0004A10CB1752EA030100F09080B4F910601C
:108BC000B4F90E0036B2F71706FB0BF10AFB0711DA
:108BD000A6FB0AAB019E00B200FB06FE009E8B4482
:108BE000C11706FB01EEA0FB060171444FEA4149A3
:108BF000DCF818104FEA4048C1F5801C1AEB080653
:108C000049EAD0394BEB09074FEAEC794FEAC971D1
:108C100041EA5C014FEACC70B4F90CC04FF0000A95
:108C20001AEB06084FEACC0B4BEB0709B0EB080038
:108C300061EB090140F635468B46A0FB060106FBB9
:108C40000B1150F0CBFCB4F916204E1312B2470BA7
:108C500047EAC14702FB06FCD31707FB03CCA2FB84
:108C600007236344564307FB0366A2FB07233344F1
:108C7000560E46EAC3163218B4F914604FEA636719
:108C80000FFA86FA47EB010380460AFB01F14FEA2F
:108C9000EA7B08FB0B17AAFB08013944C60C46EA1D
:108CA000413612EB0608B4F912204FEAE14743EBD4
:108CB00007094FEA182112B241EA096113010B4476
:108CC000029A0AB11B0A1360039B23B105EB8505C9
:108CD00080352D121D6005B0BDE8F08F0023EFE751
:108CE0001C710020E0180020012070472DE9F041A0
:108CF000334B344E9A8B7489B6F91450B6F904800C
:108D0000B6F90E70B6F920C01B6A121B34895443A1
:108D1000E213B6F912401544E40294FBF5F4B6F9F7
:108D200002501444A4F57A6E0EFB0EF20EFB05F50C
:108D30000EFB08FEB6F90C80F4611213574302FBD8
:108D400008F2121402EB6E32ED1205EBE727023245
:108D5000B6F90050B6F806E0921002F5004207EBB3
:108D600085070EFB02F207FA0CF74FEAD23E0237F4
:108D70004CF25032A3EBA70742FA0CF37B4355BFEA
:108D80005B00B3FBFEF3B3FBFEF35B0078B11A129A
:108D900002FB02F540F6DE326A430B4D12145D43CE
:108DA00002EB254202F6CF6203EB2213036021B1EE
:108DB0000A235C43083424110C60BDE8F08100BF35
:108DC000E0180020E070002043E3FFFF01394B0072
:108DD00003F0080301F00301194301F00303C3EB9F
:108DE000031300228908C3EB0313914214BF4FF40D
:108DF000E16111469B00028041808380704700BF83
:108E0000F0B58DB0002502AE044605700421304651
:108E10000295ADF80C50FFF7D9FF96E8030008ABB8
:108E20000890ADF8241093E803001426ADF82C1038
:108E3000BDF82C30E670012140F2224202276E4636
:108E4000A060E280A381A170A17330466770009595
:108E5000ADF80450FFF7BAFF96E8030004AB0490A6
:108E6000ADF8141093E80300ADF81C10BDF81C30E9
:108E7000E7734FF4807225746574A282C4F81600FB
:108E800063830DB0F0BD00BF70B584880546C4F3A0
:108E90000B0422460846002154F0F8FB6969094A90
:108EA0009142034602D3084A914204D341B1184685
:108EB000BDE8704008472246BDE8704051F0EABA6C
:108EC00070BD00BFF0080008A10A00080123282196
:108ED0002922017042708370C370704712F03AB952
:108EE00038B5054658B14C1E14F8011F284619B96B
:108EF000BDE8384012F020B912F02CF9F4E738BD83
:108F0000F8B50468C4F30D0405460E460CB32F688B
:108F1000366837F0DFFE092840F08880454C236929
:108F200023F440732361236943F4007323612369AD
:108F300043F0010323613E6037F0CCFE236909282A
:108F400023F00103236171D12B6804332B600020CF
:108F500035E0394B394A93422BD902F5804293428E
:108F600026D902F5804293422AD902F580429342E3
:108F700028D902F58032934226D902F50032934275
:108F800024D902F50032934222D902F500329342ED
:108F900020D902F5003293421ED902F58022934275
:108FA0001CD9B3F1016F1BD3052010F0BFFAFBE70A
:108FB000082437F08FFE092814D04FF0FF30F8BD99
:108FC0001024F6E71824F4E72024F2E72824F0E739
:108FD0003024EEE73824ECE74024EAE74824E8E7C9
:108FE0005824E6E7134F3B6923F440733B613B6928
:108FF00043F400733B613B6923F0F8033B613B6939
:1090000043F002031C433C613B6943F480333B6102
:1090100037F060FE3B6923F002033B613B6909289E
:1090200023F0F8033B613FF472AFC6E76FF0010035
:10903000C5E700BF003C024000400008FF3F0008B9
:109040002DE9F04104460D468E18002700F108086E
:10905000B542206901D1BDE8F081E368591CE160A7
:10906000234415F8012B1A720429F1D118B941468D
:109070002046FFF745FFC4E90370E9E7014B186894
:1090800010F0CCBFE827002010B5002104460120D5
:109090000DF0A0FB207010BD38B500240472451EF1
:1090A000E1B202200DF096FB0134082C05F8010F07
:1090B000F6D138BD70B5194B1B78012B064622D06E
:1090C00040F22E414FF4F0720923818202808370B6
:1090D0004FF4FA604FF47A7140F226220123F082B5
:1090E000318372827371F51D0024E1B204200DF00A
:1090F00071FB0134082C05F8010BF6D10E22022376
:10910000B276338270BD4FF47A704FF47A510422F4
:109110003371B0823180B270DAE700BFF45C0020B6
:1091200038B50024054604802146284601342EF037
:1091300063FD082CF8D1002185F8EA10A5F8EC10A1
:10914000A5F8EE10A5F8F010A5F8F210A5F8F410A7
:10915000A5F8F610A5F8F810A5F8FA102846BDE80D
:1091600038402EF00BBD00BF2DE9F047174E184CCC
:10917000814606F5807827210027164B102201250D
:1091800003E02033A3421AD01A799142F9D118682A
:109190003268904201D00135F3E7587972799042F4
:1091A000F9D107EB470309EB030A09F8031030462E
:1091B0008AF8015011F0EAFA01378AF802002036E5
:1091C000464501D03179D8E7BDE8F087B8E2050817
:1091D00068E2050808DB050838B53222002154F0A2
:1091E00055FA03460225642440F2DC5040F21A414D
:1091F00040F26C721D721C7440F2022513245882D6
:109200009982192040F27531DA8240F643021D83BB
:109210009C760E2503241877D9830A201E211A84F0
:10922000012283F82B0083F82C1083F8225083F856
:109230002A409A7383F8252083F8292083F82D206B
:1092400083F82E2019460248BDE8384017F09EB832
:10925000F852060838B51D4B1B78044600F1250569
:1092600093B105221A49203054F04EFA28461522AF
:10927000184954F049FA012384F83A30164B1B7808
:1092800073B984F83B3038BD28461522134954F091
:109290003BFA012384F83A300F4B1B78002BF0D0B7
:1092A0000F4B186859689A68DD68E5602060616056
:1092B000A260DD69186959699A69A2610123E561B3
:1092C0002061616184F83B3038BD00BFF8B50020F3
:1092D00010580020F8570020F9B500200453060864
:1092E000CCB5002008B54DF07BF9C0B90D4B93F813
:1092F000252093F82410120242EA014293F8261026
:109300000A435A6093F8282093F82710120242EA81
:10931000014293F829100A431A60012008BD002079
:10932000FCE700BFE018002010B504464DF058F9E6
:1093300038B90623044AF721204611F0D7FD012051
:1093400010BD0020FCE700BF0419002008B54DF057
:1093500047F968B9074A92F82B3092F82A101B0295
:1093600043EA014392F82C100B43D360012008BD5F
:109370000020FCE7E018002008B54DF031F968B98D
:10938000074A92F82B3092F82A101B0243EA014355
:1093900092F82C100B439360012008BD0020FCE7DD
:1093A000E018002008B54DF01BF9D0B90E4B93F82A
:1093B0002E2093F82D10120142EA013293F82F105B
:1093C00042EA11129A6193F8312093F83010120199
:1093D00042EA013293F8321042EA11121A61012076
:1093E00008BD0020FCE700BFE018002010B50446CF
:1093F0004DF0F6F838B90623044AF721204611F05B
:1094000075FD012010BD0020FCE700BF0D190020F4
:1094100008B54DF0E5F898B90A4A92F8343092F858
:1094200033101B0243EA014392F835100B430649FF
:10943000B1F92010C1F10801CB401362012008BD31
:109440000020FCE7E0180020E070002010B5044682
:109450004DF0C6F870B9084B1B781BB1074B93F859
:10946000360030B10323064AF621204611F03EFDB6
:10947000012010BD0020FCE704710020E01800204E
:10948000131900207B22F42111F040BE37B50546A8
:109490004DF0A6F80146E0B92C78022C08D1032340
:1094A0000E4A284611F080FC0124204603B030BD4E
:1094B000012C10D195F90400431CF6D00328F4DCEC
:1094C0006D79064B00930A46032329464BF000F8BA
:1094D000EBE70024E9E70124E7E700BF0A190020D1
:1094E000D4E748214DF014B958214DF011B931227B
:1094F000F42111F0EDBD20B10078B0FA80F0400900
:1095000070470120704708B5202154F0D6F8034673
:10951000184623B10278202A03F10103F8D008BDD0
:10952000037903F01803082B0AD002D82BB10020CE
:109530007047102B16D0182BF9D1B0F80B007047DC
:10954000114BB0F80B0093F90030591C06BF0F4BBC
:109550001B78DBB203EBC30202EB02121344184484
:1095600080B270470A4BB0F80B0093F900305A1CD8
:1095700006BF064B5B78DBB203EB830303EB83038D
:1095800000EB830080B27047C501002004D70020A3
:10959000C401002070B5084D2A782AB9074C084E3E
:1095A000B44202D301232B7070BDA288D4E902100B
:1095B00050F070FF1834F3E7C0280020A001000825
:1095C000F0080008F0B5067906F0E003402B09D159
:1095D00044794FF0FF350023012006F00706A3422F
:1095E0000BD1F0BD602B08BF45794FF001040CBFD3
:1095F00004FA05F54FF0FF35EDE7042E0CD8DFE84F
:1096000006F0030D18242E0030B1C85CD75C7840FA
:1096100028420CBF012000200133E0E70028FBD0E6
:10962000C856D756A0EB070CDCF1000040EB0C004D
:10963000F2E70028F0D031F8130032F813707840C8
:1096400028420CBF01200020E6E70028E4D031F9D1
:10965000130032F91370C71B78427841DCE7002809
:10966000DAD051F8230052F82370784028420CBF1A
:1096700001200020D0E7034B0146186808B111F023
:1096800069BD7047F4EB0020014B0146186827E4E0
:10969000F4EB00200048F7E74150060808B5FFF753
:1096A000F3FFBDE80840F5E710B504460348FFF7AF
:1096B000EBFF2046BDE81040F0E700BF004F060872
:1096C00008B532B1C30600D519B11046FFF7ECFF5B
:1096D0000022104608BD034B186808B111F02CBDDC
:1096E000704700BFF4EB0020044B1A68C0430240EF
:1096F0001A60034A1368034013607047AC6D002082
:10970000D0EB0020034B01224FF400101A7043F0FD
:109710008FBF00BFB86A0020022838B5044612D8AF
:1097200002B202EBC2030B480B490C4D0C7003EB69
:1097300003131344034418462B601CF047F820F031
:10974000EBF820F087F8601CC0B2BDE8384043F069
:1097500009BF00BF2063002004D700209C92002096
:10976000764B30B59A881C8958899989B2F57A6FF9
:1097700088BF4FF47A622DED028B88BF9A80DA8819
:10978000B2F57A6F84BF4FF47A62DA80B4F57A6FFB
:1097900084BF4FF47A641C81B0F57A6F88BF0020D3
:1097A000DA8988BF5881B1F57A6F84BF4FF47A6146
:1097B0009981B2F57A6F84BF0022DA8184429CBF1E
:1097C0000020188191429CBF00229A81598B9A8B6C
:1097D0005B4C914284BF00225A83238885B0002BC2
:1097E00053D0584DAA78062A97BF57499FED578AFC
:1097F00001EB820292ED188A2A79002A72D154492B
:10980000A8790A7807EE903A07EE102AF8EEE77A80
:10981000F8EEC76AB0EE667A86EEA76A08B138EE4F
:10982000088AB4EEC68AF1EE10FA21DD27EE888AA6
:10983000BCEEC87A8DED017A9DF8043007EE103A3F
:10984000B8EEC77AB4EEC78AF1EE10FAC4BF01339E
:10985000DBB2002B64D0102BA8BF10239A429EBF0E
:109860001A4607EE102AF8EEC76A0A70B0EE667A5A
:10987000DFED386A27EE267AC7EE276AFCEEE66A45
:1098800016EE903AB3F5FA7F45D8334A33499378C8
:109890003348013B012B9CBF002393704B78052B71
:1098A0009BBF03EB83032F4A2E4B03EB83038ABF3B
:1098B000002202EB83034A700A780360022A08D967
:1098C0000022294B0A70294A136005B0BDEC028BB7
:1098D00030BD12B202EBC20303EB0313224913445F
:1098E0000B44F0E704A8002300F8013D4DF004FE0E
:1098F0009DF80F300BB9AB78A3B92388002BC4D0E7
:10990000134A127807EE903A07EE102AF8EEE77A3B
:10991000B8EEC77AACE74FF00050FFF7E5FEB4E7CA
:1099200001239BE7B7EE000A80EE080A50F092FE92
:109930002B88984228BF18462880DEE748DF0020A1
:1099400070DF0020D4CE002034D705086F12033812
:109950000055002000247449BC9E002004D700203C
:109960000097002014650020206300209C920020B6
:109970002DE9F04FAA4B1B78A3F11702022A83B0FE
:109980000FD9A84A12F83310002940F0B982D90043
:109990000A4452782AB1A44A12F83330002B00F05E
:1099A0004483A24EA24D96F80890DFF8B0820024BE
:1099B00027462A5912F0010C05EB040307F10101B7
:1099C00000F04682CFB2510801F077319308511A66
:1099D000D00803F03333CB1A00F011315B1A03EBDC
:1099E000131303F00F33A8FB031E4FEADE1ECEEB6A
:1099F0000E2EA3EB0E0EBEF1010F05EB040049463F
:109A000004F10C040ED9BEF1020F40F02682BCF125
:109A1000000F02D012F42F7F04D13EF0FDFE00288B
:109A200000F01B823C2CC4D1013F022F00F21582B2
:109A3000022043F0EFFA7F4B1B78022B00F0788274
:109A4000002800F0F6827C4F7C4D97F809A02B4649
:109A500005F5E7794FF47A684FF0000E4FF0640B8C
:109A60005A88B2F57A6FB3F8562088BFA3F80280FF
:109A7000B2F57A6F9A8888BFA3F85680B2F57A6FEC
:109A8000DA8888BFA3F804809988B2F57A6F84BF1A
:109A90000022A3F806E09142B3F86A10B3F86C20F4
:109AA00098BFA3F804E0914293F8802088BFA3F800
:109AB0006AE0013A632A93F8812088BF83F880B076
:109AC0000132D2B2092A88BF83F881E003F1740021
:109AD000194600228C8930F802CF0132A44528BFF4
:109AE000A0F800E0032A01F10801F3D1BAF1010F57
:109AF00018BF83F898E09A334B45B1D1504CA37806
:109B0000042B00F0078233B92388B3F5F07F84BFBC
:109B10004FF4F0732380DFF84881FFF721FE98F8B7
:109B20000710092902D0002940F0D88198F81510B3
:109B3000092902D0002940F0CD81424BB3F904201D
:109B400022B9B3F90620002A00F0D48101225A81FB
:109B50003D493E4BD1F80090DFF8088109EA030344
:109B6000002B00F06A8219F0010F40F03F8219F4D7
:109B7000804F40F0358219F0080F40F02B8219F425
:109B8000005F40F0218219F4004F00F0988100231B
:109B9000F37386F8233023F07FFA002800F0288141
:109BA000737E032B00F024815A1E012A40F2378174
:109BB0000023EB83A5F8B830A5F8523123F06CFAF6
:109BC000002840F02B81002319F4805F85F859307C
:109BD00085F8F33085F88D3100F029811C4BDA7956
:109BE000022A08BF01224FF0070008BFDA7123F0F4
:109BF00031F8002840F000824FF4806043F00AFA08
:109C0000002800F00382134B1E4603F1780A03F18B
:109C10007D097179A1B3307880B30F4B27E000BF85
:109C2000FC6F00207C3806088C13060854EB0020DB
:109C3000A0910020CC9E00207C8F0020206300207B
:109C4000D4CE0020889F0020AC6D00200960000267
:109C50000868002024320020293200208180808082
:109C6000B0700020D0EB002006334B4508D013F82D
:109C7000052C8A42F8D11A78002AF5D022F094FFF8
:109C800006365645C5D1A378082B00F08B81797A2A
:109C9000BA7AD8F80000B44BB44EA1F10101A2F198
:109CA0000102C0F3C030B1FA81F1B2FA82F29870C9
:109CB000490952094FF4007019701A71FFF714FD29
:109CC0004FF40010FFF710FD4FF00070FFF70CFD90
:109CD000B388002B40F07081A54A136813F07F4FC2
:109CE0001CBF00231360936823F4007323F0020366
:109CF0000BB100239360137902A8013B042B4FF0B2
:109D0000000688BF012300F8016D88BF13714DF074
:109D1000F3FB9DF80730002B40F0BB80A379002BAC
:109D200040F0D580002385F88D3085F8273185F8FF
:109D3000C131904BDA8802F00F01032954D8C2F3E5
:109D40000312022A50D81A8902F00F01032947D8BA
:109D5000C2F30312022A43D8874B884A5C785078B2
:109D60001978844240F28E8000205870002940F01B
:109D70008880997892F8EA20914284BF00229A70F4
:109D80007F4B03F516719A78013A032A69D8DFE808
:109D900002F0111702025C7A987ADA7AC82CA8BF0E
:109DA000C824C828A8BFC820C82AA8BFC8225C7277
:109DB0009872DA7264338B42E5D103B0BDE8F08F5C
:109DC0005C7A987ADA7A632CA8BF63246328A8BFE8
:109DD0006320632AA8BF63225C729872DA72E9E793
:109DE00040F601221A81B7E74FF42062DA80AAE731
:109DF0000023EB81EB82A5F8A830A5F8B030A5F8D8
:109E00004231A5F84A3123F047F900283FF4D0AE9B
:109E1000737E5A1E012A3FF6CBAE00E0737E023BF2
:109E2000022B3FF6D0AE19F4805F7FF4D7AE19F065
:109E3000800F3FF4D3AE534B197818293FF6DCAEB0
:109E40000122514B8A401340002B3FF4D5AEC5E6AA
:109E500093F90430142B7FF4B6AD4C4841F0F7F978
:109E6000E6E55C7A987ADA7A642CA8BF64246428E0
:109E7000A8BF6420642AA8BF64225C729872DA7258
:109E800098E79880107888423EBF00211970998029
:109E90006FE7227C2671A3792AB33D4AD27B002A40
:109EA0003FF43DAF002B3FF43DAF3A4B1A78002A08
:109EB0007FF43FAF1B79002B7FF43BAF32E7F37B9E
:109EC000002B00F0A880002386F8233063E60023EF
:109ED000A37127E73048FEF779FF2EE608F1080066
:109EE000FEF774FF22E66279012AD6D1002B3FF4F7
:109EF00019AFECE7B3F90820002A3FF429AE25E6B4
:109F0000D9005018406800287FF442AD1D4C17203E
:109F100020703DE54FF48050FFF7E6FB238BB3F54F
:109F20007A7F37BF4FF47A72A378A3782283EAE569
:109F300000283FF488AD194D194B95F8371090F96A
:109F40000440FF2703F13C0093F90820A24204BF1C
:109F500001F1FF311F7203F10C0308BFC9B2834244
:109F6000F2D185F837106EE5F0D200205CE80020D1
:109F70002870002070990020D48E0020946B00205F
:109F800014650020FC6F002000410001A09100201A
:109F900004D70020203B0020C6700020E0180020DD
:109FA0002CB50020A379002B3FF471AE237C012B4C
:109FB00004BF022323746AE630780FF0C5F8002846
:109FC0007FF48AAEB08087E62148FFF78DFBD1F899
:109FD0000090D8E51F48FFF787FBD1F80090CEE549
:109FE0001D48FFF781FBD1F80090C4E51B48FFF73F
:109FF0007BFBD1F80090BAE5072022F0D5FD4FF4A5
:10A00000806043F007F800287FF4FDAD4FF000605A
:10A01000FFF76AFBF7E542F2010319EA030F3FF489
:10A02000BAAD002386F82330B5E50D4A1823137026
:10A03000B7E48020FFF758FB05E5D8F8003049F079
:10A04000080943F00803C1F80090C8F800308AE519
:10A0500009400002016000020920000208600002BD
:10A06000FC6F00202DE9F04F764B1B78013B012B54
:10A0700083B040F2CB80744B744ADFF81C92934259
:10A0800080F0DC80DFF81482CDF8049003F118062C
:10A090009B464FF0010A6E4C258862197DB14245FE
:10A0A0000DD2052D0BD936F8183C6188C3F30B038C
:10A0B000994271D0144625886219002DEFD156F8C7
:10A0C000101C5846FEF7E0FE4FF0000A5F4B0BF104
:10A0D000180B9B4506F11806DDD3DDF804905D4AA8
:10A0E0005D4B12681A60FFF743FC5C4BDA7B012A78
:10A0F00078D0022A6FD020245A7818785849594DC0
:10A10000594E02EB820202EB820200EBC00301EB2C
:10A110008202564903EB03130A600344544A2B445A
:10A120003360146022F0C6FF524B30684FF0FF32AC
:10A130001A601BF04BFB22F015FE4F4B4F4918796C
:10A140001A894F4B0B60642303FB02F2C8210A44B7
:10A1500013FB00110023C9E90112C9E90333C9E95E
:10A160000533C9E9073389F8243089F8253031F0FF
:10A170006FFF444B93F83A10188F1FF08FFD40F09B
:10A1800015F841F029FA2F4B1B78013B012B2BD9F5
:10A19000504603B0BDE8F08F637913F0030389D113
:10A1A00056F8101C94F804905846FEF76DFE36F8E9
:10A1B000182CB9EB123F87D136F8143C56F8100C26
:10A1C000AA1FC3F30B039A4204F10601A8BF1A4663
:10A1D00050F060F97AE72C4A9279002A0CBF2024CB
:10A1E000282489E7282487E70FF0C4FC2749284B57
:10A1F0000C68284A1860022101235046C9F80C4017
:10A20000117089F8253003B0BDE8F08F0FF0B2FC73
:10A21000DFF884901E49D9F80C301E4A00F5B710BB
:10A2200000F5587003F2DC5308600221C9F80C30C5
:10A230001170054B054A9342FFF424AF4FF0010A19
:10A240004DE700BFB0EB0020A0010008F0080008B7
:10A2500002400008AC6D0020D0EB002004D70020A5
:10A2600014650020206300209C92002000970020AD
:10A27000D4020020B80200200868002078260020C0
:10A280008C9F0020E0180020D4CE00209CD200201B
:10A290007C25002078250020E08E0020008000082A
:10A2A00030B402681146531C036011F8024B016080
:10A2B000D31C517803609378151D05601B0443EA95
:10A2C0000123D078234343EA006030BC704700BFCD
:10A2D0000368591C1A46016012F8021B0260587884
:10A2E00041EA0020704700BF03685A1C02601878DA
:10A2F000704700BF70B5044608460E464EF062FC3B
:10A30000314605460246206850F0C4F820682844CB
:10A31000206070BD38B504460068154650F0BAF8A4
:10A3200022682A44226038BD036810B40A0E5C1CFF
:10A3300004601A7003680A0C5C1C04601A700368DD
:10A340000A0A5C1C04601A7003685A1C02601970C7
:10A350005DF8044B704700BF036810B40A0A5C1C28
:10A3600004601A7003685A1C026019705DF8044B8F
:10A37000704700BF03685A1C026010B4197003686C
:10A380000A0A5C1C04601A7003680A0C5C1C0460F6
:10A390001A700368090E5A1C026019705DF8044BAC
:10A3A000704700BF03685A1C026019700368090AED
:10A3B0005A1C026019707047B0F900309FED126AA4
:10A3C00006EE903AB0F9023007EE103AB0F90430D8
:10A3D00000B507EE903AF8EEE66AB8EEC77AF8EE06
:10A3E000E77A85B066EE866A27EE067A67EE867AA9
:10A3F00001A8CDED016A8DED027ACDED037AFEF76D
:10A400002BF905B05DF804FB88C3E43A07EE901A17
:10A41000F8EE677A9FED837A27EE800A20EE070A2E
:10A42000FDEEC07A17EE903A2033402B00F2818087
:10A43000DFED7D7AB4EEE70AF1EE10FA40F3E68044
:10A44000B0EE407A9FED796ADFED796A01E0B0EE17
:10A45000677AB4EEE67AF1EE10FA77EE467AF6DC39
:10A460009FED747AF4EEC77AF1EE10FA40F1D180E4
:10A470009FED6E6ADFED706A01E0F0EE477AF4EE70
:10A48000E67AF1EE10FA37EE867AF6D4DFED6B7AE3
:10A49000B4EEE77AF1EE10FA40F3A780DFED627ACE
:10A4A00037EEC77A27EE076ADFED655ADFED657A8A
:10A4B000DFED656A9FED655AE6EE257A67EE065A8E
:10A4C000E6EE276AF7EE007AA5EEA67AF0EE675A76
:10A4D000E7EE055AE7EE457A87EEA55ADFED577AA3
:10A4E00030EE277AFDEEC76A16EE903A2033402B05
:10A4F00024D99FED577AF6EE006AB7EE006AF7EEC0
:10A50000004AC4EEA57A0023836143610362C361FC
:10A5100080ED045A67EEA66A27EE866A27EE877AF0
:10A52000C0ED006AC0ED026A80ED016A80ED037A39
:10A530007047B7EE005AF0EE455ACFE7B4EEE70A9F
:10A54000F1EE10FA6BDD9FED396ADFED396A01E05B
:10A55000B0EE677AB4EEE67AF1EE10FA77EE467A6C
:10A56000F6DC9FED347AF4EEC77AF1EE10FA53D5AB
:10A570009FED2E6ADFED306A01E0F0EE477AF4EEEF
:10A58000E67AF1EE10FA37EE867AF6D4DFED2B7A22
:10A59000B4EEE77AF1EE10FA33DCDFED2E7AB4EEAA
:10A5A000E77AF1EE10FA44BFDFED227A37EEC77A90
:10A5B00027EE076ADFED224ADFED226ADFED227A1D
:10A5C000E6EE246A67EE064AE6EE267AB7EE006A01
:10A5D000A4EEA77AF6EE006A36EE476AF8EE007A45
:10A5E00027EE277A66EE266A89E7DFED1A7AB4EE5F
:10A5F000E77AF1EE10FA44BFDFED0E7A37EEC77A54
:10A6000050E7DFED097A37EEC77AD1E7F0EE407A0E
:10A6100026E7B0EE677A39E7B0EE677AB6E7F0EE94
:10A62000477A9EE727D4D236DB0F4940DB0FC9407B
:10A63000E4CB1641DB0F49C0E4CB16C1DB0FC93FA9
:10A6400092E741B99730083C15A82ABEF304353F7C
:10A6500000000000DB0FC9BFDFED317A30EE277A52
:10A66000FDEEC76A16EE903A2033402B02D99FEDDB
:10A670002D0A7047B4EEE70AF1EE10FA4DDD9FEDBA
:10A680002A6ADFED2A6A01E0B0EE677AB4EEE67A74
:10A69000F1EE10FA77EE467AF6DC9FED257AF4EECD
:10A6A000C77AF1EE10FA35D5DFED1F6A9FED217AFA
:10A6B00001E0F0EE407AF4EEC77AF1EE10FA37EEF0
:10A6C000A60AF6D4DFED167AB4EEE70AF1EE10FA38
:10A6D0001BDCDFED197AB4EEE70AF1EE10FA44BFA5
:10A6E000DFED137A37EEC00A60EE006A9FED136A61
:10A6F0009FED137ADFED137AA6EE867A20EE266AB6
:10A70000E6EE877AA6EE270A7047DFED0F7A37EE7E
:10A71000C00AE9E7B0EE670AD4E7F0EE477ABCE793
:10A72000DB0FC93F00000000DB0FC940E4CB16413E
:10A73000DB0F49C0E4CB16C1DB0FC9BF92E741B9BB
:10A740009730083C15A82ABEDB0F494002B370B40D
:10A750008E1803E0121B14D1B14215D010F8012B52
:10A76000A2F14103192B11F8013BA3F1410598BF58
:10A770002032192D03F12004ECD9D21A01D1002B7B
:10A78000EAD1104670BC70470022104670BC70477A
:10A790001046704770B5044608460D464EF012FA52
:10A7A000064602E014F8013F43B1324629462046EE
:10A7B000FFF7CCFF0028F5D1204670BD1C4620468F
:10A7C00070BD38B507490546FFF7E4FF0649041C8C
:10A7D000284618BF0124FFF7DDFF08B144F002044A
:10A7E000204638BD054F0608437006086FF000424A
:10A7F000FFF7ACBFA0F16103192B98BF2038704759
:10A80000A0F14103192B98BF20307047202805D0B4
:10A81000093804288CBF00200120704701207047B0
:10A82000613819288CBF0020012070474138192851
:10A830008CBF002001207047303809288CBF0020D1
:10A8400001207047A0F13003092B07D920F0200028
:10A85000413819288CBF0020012070470120704723
:10A860002DE9F0411F46064603461C782046FFF7B7
:10A87000CDFF1D4601330028F7D12B2C51D02D2CB4
:10A8800024D0102A804628D04FF0FF33B3FBF2F3D8
:10A8900002FB03FC6FEA0C0C5FFA8CFC0135002014
:10A8A0000BE0303CE4B2944225DA98422E461DD8A3
:10A8B0001AD002FB004015F8014B392CF1D944F0B5
:10A8C0002004602C17D9573CE4B2ECE74FF00108A4
:10A8D000102A6C7805F10105D6D1302C23D06FF009
:10A8E00070434FF00F0CD9E76445E2D907EA080836
:10A8F0004FF0FF30DFE701B10E60B8F1000F08D074
:10A9000027B1B0F1004F28BF4FF000404042BDE8F2
:10A91000F081002FFBD06FF00043984228BF18460B
:10A92000F5E78046D4E76C782046FFF769FF782882
:10A9300005F1010605D035466FF070434FF00F0C5E
:10A94000ACE7AC786FF0704302354FF00F0CA5E721
:10A9500001230A22002183E770B50D461446FEF755
:10A96000D2FD0646A0B1FFF7F3FF40F6340398424C
:10A97000A8BF1846B0F5617FB8BF4FF461701923C6
:10A98000A0F5617090FBF3F02870237801332370F9
:10A990003046FEF7B8FD0646A0B1FFF7D9FF40F6F6
:10A9A00034039842A8BF1846B0F5617FB8BF4FF492
:10A9B00061701923A0F5617090FBF3F06870237843
:10A9C00001332370304670BDF8B50646154608467B
:10A9D000B6FBF2F434B905FB14640C4B1B5D00F8B4
:10A9E000013BF8BDB4FBF2F75FB905FB1747074B16
:10A9F00005FB1464DA5D00F8012B1B5D00F8013BD8
:10AA0000F8BD3846FFF7E0FFEFE700BF1053060838
:10AA1000B5EEC00ADFED677A674AF1EE10FACCBFF7
:10AA200030EE270A30EE670ADFED647A20EE270A5F
:10AA30002DE9F047FDEEC07A88B017EE904A84EA1F
:10AA4000E4760023A6EBE476CDE902330493A2FB7F
:10AA500006325FEAD208054641D105AF584839466B
:10AA6000554BA3FB0623DB0803EB8303A6EB430351
:10AA7000002CC35C0B704FF00002ACBF20232D23D1
:10AA80004A7038468DF808304EF09CF80128394657
:10AA900039D0022842D0032805BF302302A802A8DB
:10AAA0008DF8093052F0FAFD02A84EF08BF8033809
:10AAB000C4B2224602A928464FF0ECFC00232B55D5
:10AAC00028464EF07FF82E22431C02A92A54214426
:10AAD000E81852F0FFFD284608B0BDE8F087394B72
:10AAE000A3FB06235B0922D105AF35483946324A1C
:10AAF000A2FB0832D20802EB8202A8EB4202835C7E
:10AB000001F8013BACE7302302A88DF809308DF83D
:10AB10000A308DF80B3052F0C1FDC5E7302302A892
:10AB20008DF809308DF80A3052F0B8FDBCE7264A9E
:10AB3000A2FB06125FEA92190ED105AF20483946F2
:10AB40001D4AA2FB03C2D20802EB8202A3EB42031E
:10AB5000C35C01F8013BCAE71C4AA2FB06125FEA8C
:10AB6000523A0ED105AF16483946134AA2FB09C224
:10AB7000D20802EB8202A9EB4202825C01F8012BAF
:10AB8000DEE71348B6FBF0F058B905AF39460A20A6
:10AB9000BAFBF0F200FB12A20948825C01F8012B1B
:10ABA000E3E705AF39460A220193FFF70DFF019B4A
:10ABB0000146ECE76F12033ACDCCCCCC00007A44CE
:10ABC000105306081F85EB51D34D62105917B7D1AA
:10ABD000A0860100802819D9F2B130B400234C1EA0
:10ABE00001E09A420ED060F07F05C009802803F191
:10ABF000010304F8015FF4D89A4203D9C85430BC69
:10AC0000581C70474FF0FF3030BC704700239A4209
:10AC100002D9C854581C70474FF0FF30704700BF2E
:10AC20000F4B2DE93048D3E9004554EA05020AD11B
:10AC3000034640F2011200201880988098715A80D3
:10AC40001881BDE83088074B1A6814EB020B45F1F8
:10AC5000000C5A466346FDF705FC0120BDE830882C
:10AC6000B09000209CD2002030B403888278C47851
:10AC7000154DA3F5FA6303F0030101EB4101013A1D
:10AC800002EB81029B0835F812500279611E40F2F6
:10AC9000B55404FB03132B4403EB430302EBC30340
:10ACA0004279847909490089C3EB031302EB8303DA
:10ACB0002144C3EB031301EB83034FF47A720021A9
:10ACC000C2FB030130BC704734D7050880436D38A0
:10ACD00070B406688E4217D90139751E002311F829
:10ACE000014F0822634013F0800F4FEA430318BF5F
:10ACF00083F0D503013ADBB2F5D18D42EFD1721C5E
:10AD00000260337070BC7047721C002302603370A5
:10AD100070BC70470A44914215D010B40139541EDA
:10AD200011F8012F0823504010F0800F4FEA400027
:10AD300018BF80F0D500013BC0B2F5D1A142EFD1E0
:10AD40005DF8044B704770474840082310F0800FAF
:10AD50004FEA400018BF80F0D500013BC0B2F5D1EA
:10AD6000704700BF0A44914215D030B40139551ED6
:10AD700041F2210211F8014F082380EA0420040463
:10AD80004CBF82EA40004000013B80B2F7D18D42C7
:10AD9000F0D130BC7047704770B502221349144C93
:10ADA000144E4FF6FF70FFF7DDFF22884AB1A51859
:10ADB000B54218D2052A16D92146FFF7D3FF2C46F3
:10ADC000F3E721460222FFF7CDFF0222A118FFF789
:10ADD000C9FF094BE41A094B1C8041F60F53C31AF3
:10ADE0005842584170BD0020FCE700BF00400008F9
:10ADF0000240000800800008FA3F0008CC2800202C
:10AE00002DE9F04F8DB0FEF7B3FD6F4B1B78013B82
:10AE1000012B40F2C8806D4ADFF8D8916C4BB2F834
:10AE20007C206C4FDFF8D081ADF80620A3EB09033E
:10AE300000934FF0030A0026CDE90A66CDE90866C3
:10AE4000009BCDF818900793D8F81030002BBFBFA7
:10AE5000614BC8F8043003F18833C8F8043001238B
:10AE60008DF82C30F323C8F80C300222BDF80630E0
:10AE7000ADF8083002A906A8FEF7E2F8022202A9FE
:10AE80004FF6FF70FFF76EFF544BBB42834629D24B
:10AE90001C46A58823888DF81560C5F30B05C3F300
:10AEA0000B00A91D1B0B0622ADF81010ADF8120007
:10AEB00004A906A88DF81430FEF7C2F858460622F9
:10AEC00004A9FFF74FFFA16883462A4606A8FEF7AC
:10AED000B7F8A16858462A46FFF744FF1834BC4229
:10AEE0008346D6D3022203A906A8ADF80C60FEF76C
:10AEF000A7F8022203A95846FFF734FF40BAC3431C
:10AF0000022204A906A8ADF81030FEF799F80998B6
:10AF100050BB0A989DF82C308BB9C0B1BAF1010A28
:10AF20008AD105200EF002FB274B1B78013B012B39
:10AF30002AD92B4B00221A700DB0BDE8F08FD8F83B
:10AF4000103043F00043C8F810300028E6D199F8DB
:10AF50000030AD2BE5D199F80130BE2BE1D1FFF7E0
:10AF60001BFF0028E0D1DCE708ABC0F104020021A0
:10AF7000184452F08BFB0A9818B908A906A8FDF7E7
:10AF8000BFFFCDE90960C5E70EF0F4FD154C164989
:10AF9000164B174A08602468DC600120022183F800
:10AFA00025001170C5E70EF0E5FD104A0E4CD36880
:10AFB0000F4900F5B71000F5587003F2DC5320601C
:10AFC0000220D360087026E7B0EB002034D70508D4
:10AFD00000800008F008000823016745A001000870
:10AFE000C05F00209CD200207C250020E08E002045
:10AFF0007825002000400008003C024008B5064BC0
:10B0000002229A73FFF7FCFEFFF72CF80120BDE83F
:10B01000084042F0A7BA00BF04D700202DE9F04352
:10B02000002489B006460D461F46A04605E02529A6
:10B030000CD030460134A847039A531C039311786F
:10B040000029F4D1204609B0BDE8F083931CCDE976
:10B0500003385078302802BFD31C03939078A0F1B6
:10B060003003DBB20CBF4FF001094FF00009092B90
:10B070003AD96C2829D0642868D018D973284DD0C3
:10B0800058D9752877D107F1040C386805AB002230
:10B090000A216746FDF77CF905AB049A009329461F
:10B0A0004B463046FDF79CFA039A0444C5E7252831
:10B0B00032D047D9582861D06328BDD1397830467D
:10B0C000A84704370134039AB7E7039B5A1C03923D
:10B0D0001B78642B48D00CD8252B1DD05AD9582B5F
:10B0E0000ED0632BEAD0A8E704AA03A94BF030FEE8
:10B0F000BFE7732B12D051D9752B2DD0782B9CD153
:10B10000A3F15802B2FA82F23868520905AB102155
:10B110000437FDF73DF9BFE725218AE73B68049A2C
:10B120000093294600233046FDF75AFA04370444B9
:10B13000039A82E76E287FF47FAF039A3B68043757
:10B140001C607AE700283FF47DAF75E7386805A9F1
:10B15000FDF7E8F804379FE7386805AB00220A21BD
:10B16000FDF716F9043797E73B1D386805A91F4618
:10B17000FDF7D8F890E778287FF45EAFA0F1580289
:10B18000B2FA82F23868520905AB1021FDF700F9D6
:10B19000043781E7002B3FF455AF4EE76E2BCDD03F
:10B1A0004BE7F8B5104C074620680D461646A0B18F
:10B1B0000E49FDF795FE39462068FDF791FE0C49D2
:10B1C0002068FDF78DFE0B49206833462A46FFF7BD
:10B1D00025FF09492068FDF783FE084B1B7813B152
:10B1E000074B01221A70F8BD38280020084F0608C6
:10B1F000104F0608DD8E0008134F06083C2800207B
:10B200003D2800200EB403B503AA52F8041B019296
:10B21000FFF7C7FF044B05491868FDF761FE02B050
:10B220005DF804EB03B07047382800204150060851
:10B2300007B5009313460A460249FFF7E3FF03B040
:10B240005DF804FB174F060802460149DAE700BF24
:10B25000304F06080049D5E7474F06080EB403B53E
:10B2600003AA52F8041B0192FFF79BFF064B1B68D1
:10B2700023B9064B06491868FDF732FE02B05DF8A7
:10B2800004EB03B0704700BFF4EB00203828002027
:10B290004150060808B50B4605490246086830B11A
:10B2A0000449FFF7BBFEBDE80840FEF714BA08BD2D
:10B2B000F4EB0020DD8E00080FB407B504A951F8A7
:10B2C000040B0191FFF7E6FFFEF7E4F903B05DF828
:10B2D00004EB04B070472DE9F341074608460D46DC
:10B2E000FEF709F9064670B1002401A920464DF089
:10B2F00091F9013401463846FFF7EDFF122CF4D1E5
:10B3000002B0BDE8F0810846FFF722FBC4B2112C61
:10B3100062D8681CFEF7F7F8334D8046C0B9334B4E
:10B3200013F814108A1E51425141304B13F8142067
:10B33000AA5C00294BD003EB440319205B7840F250
:10B34000EE2100FB031321462948FFF7B5FFD7E79D
:10B350000178284652F0B1F960B1264B032C8CBF1E
:10B3600003220022401B134453FA80F090F87E60C1
:10B37000032E03D13846FFF76DFFC1E74046FEF7C5
:10B38000C2F8F0B1022EF5D1FFF7E2FA40F6CA0298
:10B3900080B29042154BA8BF104640F2EE22904278
:10B3A00003EB4403B8BF1046A0F2EE20192290FB35
:10B3B000F2F05870B31E594259410C4B03F8146017
:10B3C000B3E7022EF6D13846FFF73EFF98E7214655
:10B3D0000948FFF771FF93E71123324607493846C2
:10B3E000FFF726FF8CE700BF18F10508483E002054
:10B3F000564F060834D70508664F0608734F0608EF
:10B400000FB407B504A951F8040B0191FFF742FFEF
:10B4100003B05DF804EB04B070472DE9F04F02462D
:10B4200091B008460B46FEF766F8044628B1104670
:10B43000FFF70AFF11B0BDE8F08F4FF0FF32CDE902
:10B440000820AA4ADFF8F0A21268DFF8F0B292F8FA
:10B450003810CDE90E02CDE90C10CDE90A0007AA9B
:10B46000A34918464FF04BF8A04605462746264606
:10B470003DB9089A0C9FBA4260D19E48FFF71CFF65
:10B48000D8E7062F12D8DFE807F0041E2328454C22
:10B49000510059462846FFF77DF978B14FF4806096
:10B4A00041F0B8FD90F904300893012407AA9049AF
:10B4B00000204FF024F801370546D9E72846FFF76A
:10B4C00047FA0890F2E72846FFF742FA0990EDE7BD
:10B4D0002846FFF776F90A90E8E728464DF072FB18
:10B4E0008549814602462846FFF730F918B34A4697
:10B4F00051462846FFF72AF906460028D6D02846A6
:10B50000FFF726FA04280646D0D901467B48FFF704
:10B51000D3FE8FE72846FFF71BFA00230C900F930A
:10B52000C4E72846FFF714FA0D90BFE72846FFF757
:10B5300048F90E90BAE74FF00108B7E7D3B21F2BD6
:10B5400013D8DFF8FC9129FA03F3D9070DD50121AF
:10B550006B48FFF7B1FEFBB21F2B04D829FA03F9A1
:10B5600019F0010F08D1022101E0174601213A46E6
:10B570006448FFF7A1FE5DE73A4602216048FFF705
:10B580009BFE099B002B36D1A7F114025342534175
:10B59000059308AD00235F1CEB68002B38D195F9AB
:10B5A00000B0584641F054FDD5F804A020B1D0F8C1
:10B5B0000090B9F1000F66D1BAF1000F1DD14FF420
:10B5C00061436B604FF0010AAB680BB90323AB60BA
:10B5D0000023D5F8049002932A7A1946CDE9009207
:10B5E00058461A4641F073FDE86048B93946464866
:10B5F000FFF762FE1EE70595CBE74FF0000AE3E791
:10B600004A463946BAF1000F39D04048FFF7F8FEF4
:10B61000022F05F110054FF00103BCD1059B0B9DD6
:10B620000F9F4BB13A48FEF739F82B681B6A1BB1E4
:10B630003A46384928469847DDF83090B8F1000F6F
:10B6400051D03549354BB9F1140F18BF194634485C
:10B65000FFF732FEB9F1140F0AD1B8F1000F00D193
:10B6600036B12B68DB691BB132462E492846984714
:10B67000002C67D10022394628464DF02FF92A4880
:10B68000FFF7BEFEC4E7C5F80C90BAF1000F23D057
:10B69000394626485246FFF7B3FE514648460BF05E
:10B6A000AFFDD5F808A0BAF1000F0DD099F804202D
:10B6B000924509D039461E485346FFF7A1FE5FFA6E
:10B6C0008AF148460EF096FCD9F82C30002B9FD01A
:10B6D0000023C9F82C309BE7D9F8082015483946D3
:10B6E000FFF78EFEDDE70D49B1E700BFE026002041
:10B6F000D4620608B14F0608934F0608994F060812
:10B70000CA4F0608D64F0608E84F06080450060838
:10B71000BB500608017201087B4F0608435006081B
:10B72000E450060875E6000828500608445006084C
:10B730009650060871500608836A0608884F060866
:10B74000030010C00EF094FC05200EF091FA164B89
:10B75000DFF858A093F8009000264FF0030B4E45F9
:10B7600088D206EB0A03DC79C4B120460DF0ECFC6C
:10B77000804698B120460EF0ADFC044618B1002377
:10B7800080F806B0C371204601210DF033FE98F811
:10B790000730DB07204603D50EF072FE0136DEE7E8
:10B7A0000EF074FEFAE700BF41810020D4CE0020E5
:10B7B0002DE9F843037903F0E002402A50D004D881
:10B7C0006AB1202A28D0BDE8F883602A4DD0802AAB
:10B7D000F9D1827941792748BDE8F8436CE503F057
:10B7E0000703022B02D0042B08D06BB9B0F8072056
:10B7F000B0F805102048BDE8F8435DE5D0F8051025
:10B800001E48BDE8F84357E5B0F90720B0F9051028
:10B810001948BDE8F8434FE54579194E1948FDF739
:10B8200033FF06EBC502002492F804800123A045F3
:10B8300003D8BDE8F843FDF72DBF56F8357057F82B
:10B8400024204FEA84094AB113B90F48FDF71CFFC1
:10B8500057F809100D48FFF7D3FD00230134E6E740
:10B8600041790B48BDE8F84326E50A48BDE8F843AE
:10B8700022E500BF595106081D5106080751060868
:10B8800050EF05083451060845510608B160060816
:10B8900048510608705106082DE9F0471F460B79FC
:10B8A0000E4603F0E00140298046154638D10024B9
:10B8B000DFF884815E4FDFF8A09115E0337903F063
:10B8C0000703013B032B03D8DFE803F013181E2402
:10B8D000295D3846FFF794FD7379013BA34202DDF1
