:020000040800F2
:10000000F0FF0010B9C9050863D60308E15A0208D9
:1000100059CA050859CA050859CA05080000000050
:1000200000000000000000000000000061D603088E
:100030005FD60308000000005DD60308455B020898
:1000400059CA050859CA050859CA050859CA0508F0
:1000500059CA050859CA05084D790308797A030871
:100060003D7A0308017A0308C57903080D0D0508D8
:10007000FD0C0508ED0C0508DD0C0508C90C05088C
:10008000B50C0508A10C050859CA050859CA050888
:1000900059CA050859CA050859CA050889790308C3
:1000A0008D12020829180208BD110208051902085C
:1000B00069170208A9160208DD150208E1150508EE
:1000C000E9150508D5150508DD15050859CA0508FF
:1000D00059CA0508515D020859CA0508955C02080D
:1000E0001179030859CA0508A9130408ED1002087C
:1000F0005D1302081D1002083D1402088D0C05084E
:1001000059CA050859CA05080D15020859CA050833
:1001100059CA050859CA05081D2E0108A52C010851
:10012000790C0508650C0508510C05083D0C0508FF
:10013000290C050859CA050859CA050859CA0508ED
:1001400059CA050859CA050859CA050899EC03088F
:10015000150C0508010C0508ED0B0508D95B020814
:10016000C9150508D115050859CA050859CA050851
:1001700059CA050859CA050859CA050859CA0508BF
:0801800059CA050859CA050817
:0801880060C505000100000044
:1001900007020100020000002C2000209024002013
:1001A00000000000100900081D0202000600000007
:1001B000F81F002094240020000000000000000030
:1001C000060203000C000000142000201C2900205F
:1001D0000000000085900008081203000F000000D6
:1001E000042000202829002000000000A586000827
:1001F0002700010004000000401B002038290020D7
:1002000000000000120900080A02010014000000AA
:1002100040500020AC5300200000000011F2000804
:10022000F8210100060000004C530020C0530020BC
:100230000000000016090008030001000100000092
:1002400058530020C85300200000000000000000A8
:100250001010010002000000304B0020CC530020A1
:10026000000000001C09000825201E002C010000D1
:100270005C500020D053002000000000000000006F
:10028000012001000C000000F46A0020C47100206D
:1002900000000000200900080EF00300CE0100005D
:1002A0000C660020D0710020000000005D180508D9
:1002B000130001000400000088710020A0730020DA
:1002C000000000002C0900080101010004000000EA
:1002D0004C650020A4730020000000000000000016
:1002E000000101000400000044650020A873002004
:1002F00000000000300900080201010003000000B6
:1003000040650020AC73002000000000B1EB000845
:10031000220201001C010000506F0020B073002079
:1003200000000000399200080C200600580200006E
:1003300000680020CC7400200000000091EB000851
:10034000010201000B000000586500202477002006
:1003500000000000958600081B020100100000004C
:10036000BC6D002030770020000000000D870008E1
:100370001B1001000C000000805600204077002078
:1003800000000000A98A010821020100F00000001D
:10039000045500204C7700200000000089890108E6
:1003A0002802040004000000AC7A0020107C002029
:1003B0000000000009870008270204000400000074
:1003C000A87A0020147C002000000000FD860008B0
:1003D0001A0201003C00000068790020187C00200F
:1003E000000000006D930008031201003D000000B2
:1003F000587A0020547C00200000000034090008D6
:10040000381001000100000058780020947C002082
:100410000000000072090008020001000C0000004A
:100420002C7D0020BC7D00200000000000000000AA
:100430002902010040000000A07C0020C87D0020AF
:1004400000000000740900082C00040010000000E7
:10045000888A0020788A002000000000B9DA0208AB
:100460002B00120024000000BC8A0020988A002083
:100470000000000089DA020829201400780000003A
:10048000C4880020E08A0020000000000000000076
:10049000F62101000C00000048870020588B002046
:1004A00000000000B40900081C0202001C0000004B
:1004B000DC860020A88B002000000000B98F000817
:1004C0002820010018000000F8860020C48B0020BE
:1004D000000000001DDF02080B3001001A000000C0
:1004E000D89A002054A0002000000000C009000895
:1004F0001F300100240000001492002070A0002092
:1005000000000000DC0900080502010004000000F2
:10051000A89D002094A0002000000000000A000810
:10052000030101000A0000005C9A002098A000204E
:1005300000000000F1BD03081302010004000000E8
:10054000848C0020A4A0002000000000040A000801
:1005500023120100100000008CA20020B4A900208A
:1005600000000000080A0008051001000600000055
:1005700084A20020C4A9002000000000180A00087E
:10058000371001002E00000060A90020CCA9002037
:10059000000000001E0A00080E0201000200000018
:1005A00080A20020FCA90020000000004C0A0008E6
:1005B000161001000600000078A2002000AA00200A
:1005C000000000004E0A00082F1001002200000069
:1005D00090A9002008AA002000000000540A00088A
:1005E0001E000100090000009CA100202CAA002090
:1005F00000000000760A0008F58101006800000094
:10060000ACA0002038AA0020000000008D8801085E
:10061000232001001000000024A20020A0AA002036
:1006200000000000A5BB0208FD07010076000000E5
:10063000C4A80020B0AA002000000000097301082F
:10064000261001000E00000038AB002028AB00206F
:1006500000000000F513040814000100040000006D
:1006600090A6002048AB002000000000800A00088F
:100670000D1001004C00000088CA0020C4D30020E7
:1006800000000000DD850208040008008000000072
:10069000C8C9002010D400200000000000000000A5
:1006A000090201000100000070C9002090D4002060
:1006B00000000000840A0008FD0101002400000081
:1006C00008C9002094D4002000000000C7F30108EE
:1006D0001820010032000000D0C80020B8D400204B
:1006E00000000000F1920008FB0101000100000081
:1006F00090C80020ECD4002000000000A591000864
:10070000FC010100090000005CC70020F0D40020BB
:1007100000000000B5910008F7010100060000008C
:1007200054C70020FCD4002000000000860A000806
:10073000F90101000400000050C7002004D500208A
:100740000000000049470308160215003F000000A2
:1007500058AF002008D5002000000000819200085A
:1007600034000100100000007CC6002048D50020A5
:10077000000000008D1805081102010008000000AB
:1007800054C6002058D50020000000008C0A000844
:1007900012120100040000004CC6002060D50020A9
:1007A00000000000940A00080A80010028000000F0
:1007B00024C6002064D50020000000008DBA020885
:1007C000061001001C0000003CAF00208CD500206A
:1007D00000000000D191000812200100110000006B
:1007E00064C50020A8D5002000000000980A000879
:1007F000000201000B000000A0C20020BCD50020B8
:100800000000000000000000FA01010003000000E9
:1008100034BC0020C8D500200000000089860008F4
:10082000020201000300000034AF0020CCD50020FC
:1008300000000000000000000C02010004000000A5
:1008400014AF0020D0D50020000000007186000801
:100850001F02080010000000BCBB0020D4D50020FF
:100860000000000051860008FE0101001400000095
:100870008CBA0020E4D5002000000000218600088A
:10088000100201000100000000FA0020FCF9002025
:1008900000000000AA0A000819000100050000007D
:1008A000D4FF00201C00012000000000AC0A00085A
:1008B0001A0001000E000000A0FE0020240001200C
:1008C00000000000B20A0008203201000A00000007
:1008D00090FD002034000120000000003D180508B4
:1008E000150010007000000024FB002040000120D3
:1008F00000000000000000002A0008006000000066
:1009000008FF0020B00001200000000015180508B5
:10091000013C200300000101F40114000005000067
:10092000E8036400040A000114001E0008004400EB
:100930009001000000000000000000000000000026
:1009400000000000000000000000000000000000A7
:100950000000000000000000000000000000000097
:100960000000000000000000000000000000000087
:100970000100000000000000000000000000000076
:100980000000000000000000000000000000000067
:100990000000000000000000000000000000000057
:1009A0000000000000000000000000000000000047
:1009B0000000000000000000010000000202000032
:1009C000AE014A015E012C01640102000000010039
:1009D0000A019A01001E0A00000200000000000047
:1009E00000010000000500000102030000000000FB
:1009F0000000000000000000000000000080070070
:100A000000000000000001350000000000000000B0
:100A10000000000000000000200001010000200094
:100A20003200C800D00796001400320028004C04A1
:100A300040060005500014000F000800640001008B
:100A4000010005000A000000F40196000000C4093E
:100A5000000019000000000000000000000000007D
:100A60000000000000000000000000000000000086
:100A70000000000000000005010000000000000070
:100A800003000023390018010000000000000000EE
:100A900001010101FFFFFFFF00000001000005460A
:100AA00059344F0000080002000000000000280137
:100AB00000007E05EA05B4053200E803D007000017
:100AC0001A03000000000000000000000000000009
:100AD0000000000000000000000000000403090402
:100AE00012010002000000408304205700020102AE
:100AF00003010000FD930008558700085187000896
:100B00004D87000849940008498700084587000878
:100B1000C40C060879E50308AFB803085DE40308D0
:100B20000000000000000000F1DB030801DB030807
:100B300000000000000000000000000085B703086E
:100B4000ED870008E18700087D9900089999000861
:100B50009987000861990008459900081F00000066
:100B60001C0000001F0000001E0000001F0000000D
:100B70001E0000001F0000001F0000001E000000FB
:100B80001F0000001E0000001F0000000068214C34
:100B900064160608F4010000FFFF00000000FA439D
:100BA0000000FA430000803F000000000000000049
:100BB000000000001D890208000000000000000085
:100BC00000000000FFFFFFFF000000009C5300201A
:100BD00008000000000000008C5300200800000006
:100BE0000000803F00000100E00101FF0100000063
:100BF000517F01080000000000000000EC1C060806
:100C0000000000000000000000000000282306088B
:100C1000000000000000000000000000E0230608C3
:100C20000000000000000000000000008C23060807
:100C3000080000000000000000000000A9B4010846
:100C40003B6E00200101FF00FFFFFFFF95DC010864
:100C50000000000000000000B4240608D1DF0108F5
:100C600000000000000000006C2406082D202D2D3F
:100C7000202D2D2D2D202D2D2D00000000000000F9
:100C80000000000000000000000000000000000064
:100C9000000000000000000028240608549D0020E9
:100CA0009CFF2C010000000000710020E0150C17D3
:100CB00000000000396E00200200000060240608D9
:100CC0003465002088136F1701000000366500208E
:100CD00088136F17000000003ECB002000000000CA
:100CE000000000003CCB00200000000000000000DD
:100CF0003ACB0020000000000000000038CB0020AC
:100D0000000000000000000036CB002000000000C2
:100D10000000000034CB00200000000000000000B4
:100D2000980F00200000000000000000BD640020BB
:100D300003000000502506082C65002088136F175B
:100D4000010000009E9D002088136F170000000026
:100D50002180010800000000000000006025060856
:100D60003A6E002001000000B4250608A09D002076
:100D700001000000C0250608969D0020020000002A
:100D8000C825060800000000000000000000000068
:100D9000D4250608098001080000000000000000BA
:100DA000702606080000000000000000000000009F
:100DB000C42606080000000000000000000000003B
:100DC0003427060838650020020000006C2706085A
:100DD0009A9D0020E0150C1700000000685E0C00D2
:100DE00002FF000071DD0308EFB8030805DD03080A
:100DF00000000000D1B70308DDE5030845DC030867
:100E0000B1D80308000000000000000091B70308FB
:100E10005DB703084FB7030835D7030851D7030858
:100E200019D70308FDD60308E3D6030827DD030816
:100E3000CDB8030847DC030800000000A9B7030889
:100E4000B3D8030819DC03081BD80308000000000E
:100E5000000000009DB703083C8000209080002027
:100E6000D60101FFFFFFFFFF35C3010800000000AE
:100E7000000000002452060801000000FA000000F3
:100E8000010000000100000001000000000101015C
:100E900000000000EC6A00200000F40101000000E6
:100EA000EA6A00200000F40101000000E86A002066
:100EB0000000F40101000000E66A00200000F401D7
:100EC00001000000E46A00200000F40101000000BD
:100ED000E26A00200000F40101000000E06A002046
:100EE0000000F4010100000021870108E5860108E7
:100EF00000000000A43E0608D06A00200532010070
:100F0000DE6A00206400F40101000000DC6A0020B9
:100F10006400C40901000000CE6A0020E803D00785
:100F200001000000CC6A0020E803D00701000000A7
:100F3000CA6A0020E803D00701000000C86A002048
:100F40001E00B80B01000000D66A002005000F004B
:100F500001000000D86A002003000A000100000020
:100F6000C66A00201E00F40101000000DA6A0020B9
:100F700002000000303F0608C46A0020140064002C
:100F800001000000D26A00203200E80301000000E6
:100F9000C26A00200000C80001000000FD670020B8
:100FA00000C80100FC67002000500100FB67002022
:100FB000005A0100F9670020020000003C3F0608CB
:100FC000BCB50608C4B50608FACA00200100C40969
:100FD00000000000F8CA00200100C4090000000061
:100FE000F6CA00200100C40900000000F4CA002075
:100FF0000100C40900000000F0CA00200100C4097B
:1010000000000000F2CA00200100C4090000000036
:10101000EECA00200100C40900000000ECCA002054
:101020000100C409000000007765002000C801002D
:101030007665002000C80100746500200000FFFFF5
:101040000A000000726500200100C80001000000D5
:101050007065002032003075320000006E6500209F
:10106000058205006C65002005002C0105000000CC
:101070006B650020055A05006865002000FF01002F
:101080006A650020020000008806002066650020D6
:1010900003000000E48006086765002000FF0100EF
:1010A00069650020020000008806002065650020B8
:1010B00003000000E4800608758601080586010823
:1010C00000000000483F0608046B0020EE02CA083A
:1010D00001000000026B002000C801006400000055
:1010E000016B002000C8010064000000006B0020BC
:1010F0000200000054400608526500200000803EB7
:10110000050000005065002080C1803E0500000001
:101110004A6500200083007D05000000486500202E
:1011200080C1803E050000004365002000FF0100F3
:101130003C6500206400F401010000003A650020D5
:10114000040000006040060839650020020000002D
:1011500074400608FD6500200D0000008040060870
:10116000FA65002000640100F865002032001027B5
:101170000A000000F66500200D000000804006080F
:10118000F56500200D00000080400608F465002091
:1011900002000000B8400608000000000000000047
:1011A00000000000C44006080A6B00203E0000005A
:1011B000FC400608086B00200100FF7F01000000D2
:1011C000076B002002000000F8410608FF650020C0
:1011D0000300000008420608FE650020030000002E
:1011E00008420608EA670020000A0100E8670020BC
:1011F0000000E80301000000E66700200000E803AB
:1012000001000000E46700200000E8030100000086
:10121000E26700200000E80301000000DA67002018
:101220000000E80301000000E06700200000E80380
:1012300001000000DE6700200000E803010000005C
:10124000DC67002000140100F867002002000000A5
:1012500018420608F66700200000F40101000000B3
:10126000F46700200000F40101000000F267002094
:101270000000F40101000000F06700200000F4010C
:1012800001000000EE6700200000A00F0100000038
:10129000EC6700200000A00F010000006B6A002036
:1012A000196401006A6A0020020000002442060856
:1012B000686A0020E803D0070A000000666A002080
:1012C000006401000A0000005B6A00200064010065
:1012D0005A6A002000640100626A00200064010074
:1012E0000A000000616A0020006401000A0000009A
:1012F000606A0020006401000A000000656A0020A6
:1013000000FF01000A000000646A002000FF0100E5
:101310000A000000636A002000FF01000A000000CC
:101320005F6A002001FF01000A0000005E6A0020E1
:1013300001FF01000A0000005D6A002001FF0100BA
:101340000A000000086600200000F401010000000F
:10135000066600200000A00F0100000004660020C7
:101360000000A00F01000000026600200000A00F96
:1013700001000000006600200000A00F0100000036
:10138000836E002000C80100826E0020006401000E
:10139000816E002000640100806E00200064010066
:1013A0007F6E0020006401007E6E0020FF080100B7
:1013B0007D6E0020016401007D85010841850108E2
:1013C0000000000030420608866E00200132010055
:1013D000856E002001000000A0420608846E0020F7
:1013E00004000000A84206087C6E00200064010092
:1013F0007A6E00201400E80301000000786E0020DF
:10140000E80330750A000000776E002000C8010074
:10141000766E002000C80100756E002000C8010033
:10142000746E002000320100886E0020004B010025
:10143000876E002004000000BC420608736E002086
:10144000006401000A000000A06E00200000D00728
:10145000010000009A6E002000002003010000003F
:10146000986E00200000C80001000000966E002069
:101470000000C800010000009E6E00200000D007A0
:1014800001000000946E0020000020030100000015
:10149000926E00200000C80001000000906E002045
:1014A0000000C800010000009C6E00200000D00772
:1014B000010000008E6E00200000200301000000EB
:1014C0008C6E00200000C800010000008A6E002021
:1014D0000000C80001000000598301084183010891
:1014E00000000000D0420608F1650020005A01000B
:1014F000F065002000C80100EE650020E803D00779
:10150000010000000000000000000000E9B4010834
:101510006C4306084655525946344F534400000068
:1015200064650020000301006365002000030100E2
:101530007D8201083182010800000000C0430608D6
:10154000F1810108A9810108000000005C4406083F
:10155000C98201083DC8010800000000DC440608FB
:101560005465002001030100C98701089D87010817
:1015700000000000344806082D810108E1800108C0
:1015800000000000A4480608698301088DEB0108EB
:101590000000000040490608C5C60108F58701089B
:1015A00000000000E8490608B983010800000000B7
:1015B00000000000744A06087184010819840108BB
:1015C00000000000D84A060805850108C984010802
:1015D00000000000804B060865F10108B98501088C
:1015E000000000000C4C0608C06A00200106010043
:1015F000F1830108C983010800000000084D0608B6
:10160000A3F00108ADC4010800000000784D0608F1
:101610009DF101086DC5010800000000C84E0608D4
:10162000BE6A0020010003000100000011830108D0
:10163000E1820108000000009C4F0608F5F1010856
:101640000000000000000000005006087981010839
:101650001DC30108000000008050060800000000C3
:1016600000000000000000000C510608DD850108A4
:10167000E5C50108000000007C510608FFFF0000DE
:10168000FFFFFFFFF40D0708000008020503030039
:1016900000000000FC0D070801000802050403001B
:1016A00000000000A0A006080200FE0101100300D7
:1016B0000000000038B9060803001402000300000F
:1016C00000000000040E070804001F0202000800CA
:1016D000000000000C0E070805001F0202010800B0
:1016E000000000000403090412010002EF0201409F
:1016F00083045632000201020301000012010002BD
:10170000020200408304405700020102030100006E
:1017100009022000010104C0320904000002080689
:101720005005070581024000000705010240000046
:1017300009026400030100C0320904000001030033
:101740000000092111010001223600070583030969
:10175000000A080B01020202010009040100010253
:1017600002010005240010010524010002042402E6
:10177000020524060102070582030800FF0904028E
:1017800000020A0000000705010240000007058171
:101790000240000009024300020100C032090400B7
:1017A00000010202010005240010010524010001CE
:1017B000042402020524060001070582030800FF35
:1017C00009040100020A00000007050102400000B0
:1017D0000705810240000000FF00000000FF00003C
:1017E000000000000000AA550701000001AA5505ED
:1017F00001000008887F0608FF1FFF1F050109057B
:10180000A101A10005010930093109320933093567
:101810000934093609371581257F75089508810235
:10182000050919012908150025019508750181028E
:10183000C0C0000009022200010100E032090400DA
:1018400000010301020009211101000122360007F5
:1018500005830309000A00000000000001020304E0
:10186000010203040607080913DE030811E3030855
:101870008DDE030807B80308B9B9030817B80308D1
:1018800033B80308E1B70308D3B70308000000002A
:10189000000000002D202D2D202D2D2D2D202D2D53
:1018A0002D2D0000000000000000000000000000DE
:1018B000000000AA550B010000AA5505010000AA6E
:1018C000550902000000AA5503009F000100000016
:1018D000C012000024A00020000000004CA0002046
:1018E000000000007EFF0000FFFFFFFF010000007E
:1018F000A00F0000900E0708C418070800000000A1
:1019000021EC0008A0860100040000000000000097
:1019100000000000000000000000000000000000C7
:1019200000000000000000000000000000000000B7
:1019300000000000900E07082C19070800000000A6
:101940005DF20108E8030000040000000000000050
:101950000000000000000000000000000000000087
:101960000000000000000000000000000000000077
:101970000000000094BB060800000000000000000A
:101980002DED00087D000000FF00000000000000B9
:101990000000000000000000000000000000000047
:1019A0000000000000000000000000000000000037
:1019B000000000000C1207080000000000000000FA
:1019C0008D0101087D000000FF0000000000000004
:1019D0000000000000000000000000000000000007
:1019E00000000000000000000000000000000000F7
:1019F0000000000084BE0608000000000000000097
:101A0000254701087D000000FF00000000000000E5
:101A100000000000000000000000000000000000C6
:101A200000000000000000000000000000000000B6
:101A30000000000038BC06080000000000000000A4
:101A400039FA0108E803000003000000000000006C
:101A50000000000000000000000000000000000086
:101A60000000000000000000000000000000000076
:101A7000000000003419070800000000000000000A
:101A8000419B050810270000030000000000000033
:101A90000000000000000000000000000000000046
:101AA0000000000000000000000000000000000036
:101AB00000000000000E070800000000ADD602087C
:101AC000152902085F7600000500000000000000F4
:101AD0000000000000000000000000000000000006
:101AE00000000000000000000000000000000000F6
:101AF00000000000A4110708000000000000000022
:101B0000F15F020810270000010000000000000043
:101B100000000000000000000000000000000000C5
:101B200000000000000000000000000000000000B5
:101B3000000000004019070800000000000000003D
:101B400061F20108E8030000050000000000000049
:101B50000000000000000000000000000000000085
:101B60000000000000000000000000000000000075
:101B7000000000004C1907080000000000000000F1
:101B800071F40008204E0000030000000000000077
:101B90000000000000000000000000000000000045
:101BA0000000000000000000000000000000000035
:101BB000000000005C1907080000000000000000A1
:101BC0004DF20008204E000003000000000000005D
:101BD0000000000000000000000000000000000005
:101BE00000000000000000000000000000000000F5
:101BF000000000006C190708000000000000000051
:101C000035000208400D0300030000000000000042
:101C100000000000000000000000000000000000C4
:101C200000000000000000000000000000000000B4
:101C30000000000028B306080000000000000000BB
:101C400011870208102700000100000000000000BA
:101C50000000000000000000000000000000000084
:101C60000000000000000000000000000000000074
:101C7000000000000CA606080000000000000000A4
:101C8000419601081027000003000000000000003A
:101C90000000000000000000000000000000000044
:101CA0000000000000000000000000000000000034
:101CB000000000007C190708000000000000000080
:101CC00005120308A08601000100000000000000CA
:101CD0000000000000000000000000000000000004
:101CE00000000000000000000000000000000000F4
:101CF000000000009CBA0608000000000000000080
:101D0000C5F8010850C300000100000000000000F9
:101D100000000000000000000000000000000000C3
:101D200000000000000000000000000000000000B3
:101D30000000000044B80608000000000000000099
:101D4000C5F40108A86100000100000000000000C7
:101D50000000000000000000000000000000000083
:101D60000000000000000000000000000000000073
:101D700000000000841907080000000000000000B7
:101D800059EC0108A08601000100000000000000DD
:101D90000000000000000000000000000000000043
:101DA0000000000000000000000000000000000033
:101DB0000000000050B30608000000000000000012
:101DC00075F40108A00F00000100000000000000F1
:101DD0000000000000000000000000000000000003
:101DE00000000000000000000000000000000000F3
:101DF000000000009019070800000000000000002B
:101E0000D5E60108102700000100000000000000D6
:101E100000000000000000000000000000000000C2
:101E200000000000000000000000000000000000B2
:101E3000000000005CC60608000000000000000072
:101E4000A16604081A410000010000000000000023
:101E50000000000000000000000000000000000082
:101E60000000000000000000000000000000000072
:101E70000000000004B80608000000000000000098
:101E800025BE03081027000001000000000000002C
:101E90000000000000000000000000000000000042
:101EA0000000000000000000000000000000000032
:101EB00000000000D018070800000000000000002B
:101EC000F5F2020850C3000001000000000000000D
:101ED0000000000000000000000000000000000002
:101EE00000000000000000000000000000000000F2
:101EF000000000009C19070800000000000000001E
:101F0000B9C50308400D03000000000000000000F8
:101F100000000000000000000000000000000000C1
:101F200000000000000000000000000000000000B1
:101F300000000000A41907080000000000000000D5
:101F400019F20108400D030000000000000000002D
:101F50000000000000000000000000000000000081
:101F60000000000000000000000000000000000071
:101F700000000000AC19070800000000000000008D
:101F800041CE010850C30000030000000000000023
:101F90000000000000000000000000000000000041
:101FA0000000000000000000000000000000000031
:101FB00000000000B8190708000000000000000041
:101FC0001141010840420F00000000000000000025
:101FD0000000000000000000000000000000000001
:101FE00000000000000000000000000000000000F1
:101FF00000000000C41907080000000000000000F5
:10200000D168020850C3000000000000000000007A
:1020100000000000000000000000000000000000C0
:1020200000000000000000000000000000000000B0
:1020300000000000B80B00000102FFFF01010100D9
:102040000800000000000401000000000000000281
:1020500010000000070000007D000000006002404A
:10206000106002400000000000000000000B0000B3
:1020700000000000000000000000000000600240BE
:10208000286002400100000000000000060C000073
:10209000000000000000000000000000006002409E
:1020A000406002400200000000000000100D00002F
:1020B000000000000000000000000000006002407E
:1020C000586002400300000000000000160E0000EF
:1020D000000000000000000000000000006002405E
:1020E000706002400400000000000000200F0000AB
:1020F000000000000000000000000000006002403E
:10210000886002400500000000000000261000006A
:10211000000000000000000000000000006002401D
:10212000A060024006000000000000003011000026
:1021300000000000000000000000000000600240FD
:10214000B86002400700000000000000362F0000C9
:1021500000000000000000000000000000640240D9
:102160001064024000000000000000000038000081
:1021700000000000000000000000000000640240B9
:102180002864024001000000000000000639000041
:102190000000000000000000000000000064024099
:1021A000406402400200000000000000103A0000FD
:1021B0000000000000000000000000000064024079
:1021C000586402400300000000000000163B0000BD
:1021D0000000000000000000000000000064024059
:1021E000706402400400000000000000203C000079
:1021F0000000000000000000000000000064024039
:102200008864024005000000000000002644000031
:102210000000000000000000000000000064024018
:10222000A0640240060000000000000030450000ED
:1022300000000000000000000000000000640240F8
:10224000B8640240070000000000000036460000AD
:102250000000000000000000000000004DB703086F
:102260004BB7030849B7030843B7030841B703084E
:1022700047B7030845B70308010000000000803F8E
:102280000100000000000000000000000102030443
:1022900006070809FFFFFFFF0000803F0000000065
:1022A00000000000000000000000803F000000006F
:1022B000000000000000000000000000000000001E
:1022C000000000000000000000000000000000000E
:1022D0000000803F0000000000000000000000003F
:1022E00001010000B0190020000000000000000003
:1022F00000000000000000000000000000000000DE
:1023000000000000000000000000000000000000CD
:1023100000000000000000000000000000000000BD
:1023200000000000000000000000000000000000AD
:10233000000000000000000000000000000000009D
:08234000000000000000000095
:082800000000000000000000D0
:1080000090ED057A90ED004AD0ED066AD0ED014A78
:10801000D0ED047A90ED035AD0ED025AA4EE007A26
:10802000B0EE406AB0EE470AB0EE667AA4EE867A09
:1080300067EEC07AA5EE407AE5EE867A80ED057AA5
:10804000C0ED067A704700BFD0ED057A90ED013A99
:10805000D0ED003AD0ED064A90ED024A90ED077A55
:1080600090ED035A90ED086AD0ED045AC0ED067AFF
:10807000F0EE406A27EE830AC0ED056AA3EEA60A79
:1080800080ED087AA4EE240AA5EE470AA5EEC60AFA
:1080900080ED070A704700BFDFED2B7AB4EEE70AE8
:1080A000F1EE10FA4ADDDFED296A9FED297A01E051
:1080B000B0EE670AB4EEC70AF1EE10FA70EE667A17
:1080C000F6DC9FED247AF4EEC77AF1EE10FA38D59B
:1080D000DFED1E6A9FED207A01E0F0EE407AF4EECB
:1080E000C77AF1EE10FA37EEA60AF6D4DFED1B7A66
:1080F000B4EEE70AF1EE10FA14DDDFED137A37EE95
:10810000C00A60EE006A9FED166A9FED167ADFEDF9
:10811000167AA6EE867A20EE266AE6EE877AA6EE34
:10812000270A7047DFED117AB4EEE70AF1EE10FA94
:1081300044BFDFED087A37EEC00AE2E7F0EE407A9E
:10814000BFE7B0EE670AD1E7DB0F4940DB0FC9405C
:10815000E4CB1641DB0F49C0E4CB16C1DB0FC93FAE
:1081600092E741B99730083C15A82ABEDB0FC9BF7A
:10817000D0ED007A90ED017A30EE670AE7EE007AF2
:10818000B0EE670AC0ED007A704700BF704700BFCD
:108190000028F0B403DA2D230B7040420131092886
:1081A00004464FF0010307DD03EB83035B00B0FBE4
:1081B000F3F2092AF8D883B10F48A0FB0326B4FBD9
:1081C000F3F2092A02F1570C02F1300709DD03FB33
:1081D0001244F30801F801CBEFD100230B70F0BC7F
:1081E000704703FB1244F30801F8017BE5D100233B
:1081F0000B70F0BC704700BFCDCCCCCC884270B4C3
:108200004FF0010442D301FB04F4B0FBF4F58D42BE
:10821000F9D2ECB142BB092D04FB150005F157065C
:1082200005F130020EDDB4FBF1F403F8016B7CB113
:10823000B0FBF4F5092D04FB150005F1570605F117
:108240003002F0DCB4FBF1F403F8012B002CEFD189
:1082500000221A7070BC704703F8016BB4FBF1F494
:10826000002CF5D0B0FBF4F5092D04FB150005F149
:10827000370605F13002EFDCB4FBF1F403F8012B13
:10828000002CEFD100221A7070BC70470546002AFE
:10829000EAD1C0E70388B3F5FA6F17D38378013BBF
:1082A0000B2B13D8C378013B1E2B0FD80379172B48
:1082B0000CD843793B2B09D883793B2B06D800890E
:1082C000B0F57A7F2CBF0020012070470020704756
:1082D0002DE9F04714461D4606464FF47A720023F6
:1082E0002046294654F09CF94D4BDFF848814D4A11
:1082F0004D4F034488FB03101844D91782FB032C0D
:10830000C1EB601088FB002887FB03279C44474A89
:10831000C1EBEC2CC0EB001E82FB0C29A3EB8E0EF4
:108320001F44434A86F806E0C1EB27474FEAEC7E3C
:1083300008EB000ACEEBA90E82FB07824FEAE07839
:108340000EEB4E0EC8EB6A18ACEBCE0CC8EB08185F
:10835000DFF8E4E086F804C0A0EB880070718EFBC3
:108360000303F817C0EBE21240F2B55000FB1272A3
:10837000C1EBE353B2F5896F4FEA83073CDA40F271
:10838000DA239A4242DCB2F5B77FB4BF4FF0000E59
:108390004FF0010E4FEA4E09DFF8A08009EB0E0303
:1083A00008EBC3031FFA8EFCD88A09EB0E0108EB19
:1083B000C10116310B2301E031F8020D904218DDA6
:1083C000013BF9D1CE44012338F83E00B37007F5E4
:1083D000FA670132121ABC44F270A6F800C02046B7
:1083E00029464FF47A72002354F01AF93281BDE81D
:1083F000F0870133DBB2E9E74FF0030CE64640F2C9
:108400009650DFF838804FF00609CEE74FF0020CA7
:10841000DFF82880E64640F229404FF00409C4E71F
:1084200080BC92C7C5B3A29107452EC2ABAAAA2AA7
:1084300073B06D1689888888792D03117C08060829
:1084400003685A1C02601970704700BF2DE9F0479D
:10845000089C2578002B804689460CBF4FF0200AE7
:108460004FF0300A661C25B3002A26DD334601E0B2
:10847000024698B113F8011B501E0029F8D1971E2F
:1084800060B13D46013D51464046C8476B1C002B3C
:10849000F8DC257827EAE770013045B1041B29464E
:1084A0004046C847301916F8015B002DF7D1BDE8EA
:1084B000F087002A03DC2846F9E70020EEE7571E84
:1084C000DFE700BFD0ED005A9FED530A35EE800A7A
:1084D00008B5FDEEC07A2DED028B17EE903A2033F1
:1084E000402B40F294809FED4D5AFDEEE57A17EE59
:1084F000903A2033402B40F28380DFED485AD0ED94
:10850000014A9FED450A34EE800AFDEEC07A17EE6F
:10851000903A2033402B6AD99FED402AB0EE421AA0
:10852000B0EE424AFDEEE47A17EE903A2033402B4B
:1085300056D9DFED3A3AD0ED022A9FED370A32EEF6
:10854000800AFDEEC07A17EE903A2033402B3AD9DC
:10855000DFED324AB0EE643AF0EE640AB0EE648ABF
:10856000F0EE641AFDEEE27A17EE903A2033402BDB
:1085700024D99FED2A0AC1ED001A20EE057A60EE9B
:10858000257AE7EE234A37EE087ABDEC028BA7EE98
:10859000E33A24EE404A77EEE07AC1ED074A81EDF6
:1085A000037A81ED043AC1ED067A81ED014AC1ED0D
:1085B000023A81ED051A81ED082A08BDB0EE620A83
:1085C000FFF76AFDD7E7FFF767FD60EE254A20EE6B
:1085D000053A23EEA48A60EE041A63EE830AC1E72B
:1085E000B0EE640AFFF758FDF0EE403AA3E7FFF75C
:1085F00053FDB0EE404A25EEC01A20EE052A91E761
:10860000B0EE650AFFF748FDF0EE405A77E7FFF756
:1086100043FDB0EE405A68E7DB0FC93F00000000A1
:1086200030B43123332232254FF60174FF214370D9
:10863000427101230022C5700482817403720370A9
:108640000371837042818281C28130BC704700BF58
:10865000034600F11001FF221A705A70023399424A
:10866000FAD102704270027142718272C272704716
:1086700010B42C2101240222002304704170827066
:10868000C3705DF8044B70472322032302704370CC
:10869000704700BF00230222027103704370837091
:1086A000C3707047144BFF22F0B54FF0FF34C27017
:1086B0000271027242724273827303F10C0EA4467D
:1086C000172716261525002202EB820281189E45E7
:1086D00085544E708F7081F803C00C710AD093F9E5
:1086E0000620DD791E7A5F7A93F90AC093F90B4070
:1086F0000633E9E7F0BD00BFDC080608002303707D
:1087000043708370C3707047F8E700BF00230621F1
:108710004FF47A720170C0E901230373704700BF00
:1087200030B41D6995420AD314460A4621448D424D
:10873000996938BF2A1B214430BC54F051BF30BC6A
:10874000704700BF0020704701207047012070472C
:10875000002070474FF40070024B10609B680B6064
:108760000020704768C20020013A30B4D2B28C1C9D
:1087700004EB42040025020F092AD3B203F13002B0
:108780008ABF37330A700B704D7002318C424FEA4A
:108790000010F0D130BC70470B4A0C4B10681B68BE
:1087A0001A22C0180A8001D10948704710B5094B38
:1087B00009491C680822FFF7D7FF20460422074911
:1087C000FFF7D2FF024810BDE8F7FF1FECF7FF1FCD
:1087D00088010020EAF7FF1F8A0100209A0100208B
:1087E00004230B8000487047A401002012230B8053
:1087F00000487047A80100202DE9F047134B1D6881
:10880000ED0A84B01BD0DFF848800026C14604AFD3
:10881000D8F80030AC196410D3F824A0E10210237A
:108820006A464846D0470F2809DD6B4653F8042BAB
:10883000013208D19F42F9D12546B542E8DCE80271
:1088400004B0BDE8F087661CF7E700BFA46E002007
:1088500048BC002004307047704700BF416170473A
:108860002DE9F04FDFF8E8C1784CDCF800502288A1
:10887000C2EB25135200C2EBE502B4F902505B4390
:108880006A43B4F904501B135D43AD1305EBE225B5
:10889000B5F5FA324FEAE57985B049F1FF33CDE914
:1088A0000023DDE900325343009ACCF80450A2FBC8
:1088B00002ABB4F90820CDE902010199009812B287
:1088C0000BEB430B5143D31700FB0311A2FB002317
:1088D0000B441F03160347EA1257B4F90A200FFA94
:1088E00082F84FEAE87908FB0BF10AFB0913A8FBB1
:1088F0000A0119444FEA102848EA016818EB0602F9
:10890000E6884FEA212949EB0703B6B212F10008C5
:1089100043F50049A8FB060106FB09114A10CB17D5
:1089200052EA030100F09080B4F91060B4F90E002F
:1089300036B2F71706FB0BF10AFB0711A6FB0AABD1
:10894000019E00B200FB06FE009E8B44C11706FB91
:1089500001EEA0FB060171444FEA4149DCF8081022
:108960004FEA4048C1F5801C1AEB080649EAD039A5
:108970004BEB09074FEAEC794FEAC97141EA5C0118
:108980004FEACC70B4F90CC04FF0000A1AEB06089D
:108990004FEACC0B4BEB0709B0EB080061EB090188
:1089A00040F635468B46A0FB060106FB0B1153F043
:1089B00037FEB4F916204E1312B2470B47EAC147EF
:1089C00002FB06FCD31707FB03CCA2FB072363447F
:1089D000564307FB0366A2FB07233344560E46EAC1
:1089E000C3163218B4F914604FEA63670FFA86FAB7
:1089F00047EB010380460AFB01F14FEAEA7B08FBE3
:108A00000B17AAFB08013944C60C46EA413612EBA3
:108A10000608B4F912204FEAE14743EB07094FEA91
:108A2000182112B241EA096113010B44029A0AB1FA
:108A30001B0A1360039B23B105EB850580352D12BE
:108A40001D6005B0BDE8F08F0023EFE738880020F7
:108A5000101A00200378012B07D190F904300E4A38
:108A6000242101FB03235B7DA3B90C4B5A7B197BAB
:108A7000120142EA0132997B42EA11129A601A7C91
:108A8000D97B120142EA0132597C42EA11121A6082
:108A90000120704700207047B4BA0020101A00204F
:108AA000012070470120704770476D4B2DE9F04F52
:108AB0005C696C4BB3F80AE0B3F804809A894FEA1A
:108AC0000E2AB4EB0A044FEA1E6B4FF0000587B084
:108AD00065EB0B05CDE900450746009C1889019E12
:108AE000A0FB044500FB0655E00940EA45604FEA5B
:108AF00008448C46E9114FEA184510EB0408D88861
:108B0000009C41EB0509CDE90489A0FB0445B3F8BD
:108B1000028000FB0655200A40EA05604FEAC8348F
:108B200029124FEA584510EB040841EB050900995A
:108B3000A2FB010102FB06114FEAD05A4AEA412A80
:108B40001AF5FA634FEAE15B4BF10004B3F5FA6FF3
:108B5000CDE9023474F10003414E64DA0524AAFB26
:108B6000040104FB0B1100FB0BF40AFB0144DDE9DB
:108B70000423A0FB0A0121444D104FEA3004121BCC
:108B80004FEA900463EB050344EA8174B8EB0408F0
:108B9000CDE90423DDE9023433484FEAA10569EB4E
:108BA00005094FF0FF31834274EB010326DA40F6EA
:108BB000AC501AEB00024FF000014BEB010302FB3B
:108BC00003F1A2FB022303EB4103D400DD00101BE1
:108BD00045EA527563EB0501DDE9044524184D4172
:108BE000CDE904450B24A2FB040104FB0311491049
:108BF0004FEA3000B8EB000869EB0109DDE900320B
:108C00005343009ADDE90201A2FB02AB0BEB430BDD
:108C10004FEADA7242EA4B02801A4FEAEB7361EBD9
:108C20000301CDE9020197B1B169A1FB082301FB62
:108C30000933540D5D1544EAC324DDE90423A21A67
:108C400065EB03031D46D30B43EA45433B60BCF190
:108C5000000F02D0029BCCF8003007B0BDE8F08FC7
:108C6000101A00202488002024FAFFFF0378012B2B
:108C700007D190F90430094A242101FB03235B7DCD
:108C800053B9074A537F117F1B0243EA0143917F87
:108C90000B4393610120704700207047B4BA002055
:108CA000101A00200378012B07D190F90430094AEB
:108CB000242101FB03235B7D53B9074A537F117FB6
:108CC0001B0243EA0143917F0B435361012070472C
:108CD00000207047B4BA0020101A002030B5437E3F
:108CE00083B004461BB90120637603B030BD052371
:108CF000ADF80430056A00BFA8682EF0EBFD6A46A7
:108D000001A90223686848F009F8A8682EF0E8FD78
:108D100000BF9DF8013003F0010383F0010063768A
:108D200003B030BD38B50446074D04E02B68E26956
:108D30009B1A002B06DA2046FFF7D0FF0028F5D05B
:108D40000023E36138BD00BF38BA0020F0B5077ECC
:108D500083B004464FF0030C0020009016461D46D9
:108D60008DF804008DF800C0002F30D00B0E8DF868
:108D700001300DF102030F0C0A0A997020461F7092
:108D80005A70FFF7CFFF00B3236A00BF98682EF038
:108D9000A1FD237E226A002B14BF0523042369460C
:108DA0005068002247F0BAFF236A32460021586813
:108DB0002B4647F0B3FF236A98682EF091FD00BF61
:108DC000044B1B6806332846E36103B0F0BD0DF188
:108DD0000103D0E738BA00202FF01ABB38B505469A
:108DE00058B14C1E14F8011F284619B9BDE8384087
:108DF0002FF000BB2FF00CFBF4E738BDF8B504688A
:108E0000C4F30D0405460E460CB32F68366835F0E2
:108E100027FC092840F08880454C236923F44073DF
:108E20002361236943F400732361236943F0010341
:108E300023613E6035F014FC2369092823F0010307
:108E4000236171D12B6804332B60002035E0394B4E
:108E5000394A93422BD902F58042934226D902F532
:108E6000804293422AD902F58042934228D902F5E2
:108E70008032934226D902F50032934224D902F57A
:108E80000032934222D902F50032934220D902F5F2
:108E9000003293421ED902F5802293421CD9B3F1CD
:108EA000016F1BD3052019F0BFF9FBE7082435F04B
:108EB000D7FB092814D04FF0FF30F8BD1024F6E797
:108EC0001824F4E72024F2E72824F0E73024EEE722
:108ED0003824ECE74024EAE74824E8E75824E6E7AA
:108EE000134F3B6923F440733B613B6943F40073C8
:108EF0003B613B6923F0F8033B613B6943F00203AC
:108F00001C433C613B6943F480333B6135F0A8FB73
:108F10003B6923F002033B613B69092823F0F80316
:108F20003B613FF472AFC6E76FF00100C5E700BFD9
:108F3000003C024000400008FF3F00082DE9F041DE
:108F400004460D468E18002700F10808B542206936
:108F500001D1BDE8F081E368591CE160234415F8B4
:108F6000012B1A720429F1D118B941462046FFF7A6
:108F700045FFC4E90370E9E701394B0003F008033A
:108F800001F00301194301F00303C3EB03130022B3
:108F90008908C3EB0313914214BF4FF4E1611146FA
:108FA0009B00028041808380704700BF092900D068
:108FB00001B97047E0E700BFF0B58DB0002502AE03
:108FC00004460570032130460295ADF80C50FFF7BA
:108FD000D3FF96E8030008AB0890ADF8241093E89F
:108FE00003001426ADF82C10BDF82C30E6700121DA
:108FF0004FF44D7202276E46A060E280A381A170FB
:10900000A173304667700095ADF80450FFF7B4FFC8
:1090100096E8030004AB0490ADF8141093E8030045
:10902000ADF81C10BDF81C30E7734FF48072257446
:109030006574A282C4F8160063830DB0F0BD00BF52
:1090400070B584880546C4F30B0422460846002107
:1090500057F0C0FB6969094A9142034602D3084AA6
:10906000914204D341B11846BDE8704008472246FA
:10907000BDE8704054F0B4BA70BD00BF10090008DC
:10908000C00A000801232621272201704270837044
:10909000C37070472DE9F047089C884616460021AA
:1090A00020221F46054657F095FB5CB1D4E90032FB
:1090B0006189EB81C3F30F432B82C2F30F43EA8232
:1090C0002B836982404652F09FFD16F0100A11D1A1
:1090D000431E78B118F803202E2A18BF08EB0301AD
:1090E00005D14EE011F801CDBCF12E0F41D013F1A6
:1090F000FF33F7D208280246C146A8BF08224FF026
:10910000000A4FF0203341462B606B6005F10808E0
:10911000284654F065FA1F4B2B81524688F80230DE
:109120004946404654F05CFA6B1EE81D13F8012FC7
:10913000A2F1610119299CBF203A1A708342F5D12E
:10914000404605F10B0110F8013BA3F16102192A19
:109150009CBF203B00F8013C8142F4D1C7F30F4291
:109160001823AA82EE72099A2B736F83EA61BDE815
:10917000F087C01A00F1FF3ABAF1030FA8BF4FF011
:10918000030A082B03F10109A8BF0823C1441A46AA
:10919000B7E700BF20202000014B18681CF08CBEF0
:1091A000B87B002010B500210446012018F022FEF3
:1091B000207010BD38B500240472451EE1B20220B3
:1091C00018F018FE0134082C05F8010FF6D138BD4F
:1091D00070B5184B1B78012B064621D040F22E416A
:1091E0004FF4F07209238182028083704FF4FA6198
:1091F0004FF47A7240F226230024F1823283738284
:109200007471F51DE1B2042018F0F4FD0134082C4E
:1092100005F8010BF6D10E220223B276338270BD1F
:109220004FF47A704FF47A5104223371B082318056
:10923000B270DBE73C50002038B5002405460480BE
:1092400021462846013414F053FA082CF8D10021A5
:1092500085F8EA10A5F8EC10A5F8EE10A5F8F010C6
:10926000A5F8F210A5F8F410A5F8F610A5F8F81076
:10927000A5F8FA102846BDE8384014F0FBB900BF45
:109280002DE9F047174E184C814606F1E0083921C8
:109290000027164B1022012503E02033A3421AD0E9
:1092A0001A799142F9D118683268904201D001359B
:1092B000F3E7587972799042F9D107EB470309EB4C
:1092C000030A09F8031030468AF801502EF00AFC10
:1092D00001378AF802002036464501D03179D8E7B7
:1092E000BDE8F087D83106085831060898270608E7
:1092F00038B53222002157F06DFA03460225642466
:1093000040F2DC5040F21A4140F26C721D721C7443
:1093100040F20225132458829982192040F27531B7
:10932000DA8240F643021D839C760E2503241877CB
:10933000D9830A201E211A84012283F82B0083F886
:109340002C1083F8225083F82A409A7383F8252042
:1093500083F8292083F82D2083F82E20194602480F
:10936000BDE8384029F088BBD895060838B51D4BB4
:109370001B78044600F1250593B105221A492030D7
:1093800057F066FA28461522184957F061FA01236A
:1093900084F83A30164B1B7873B984F83B3038BDEB
:1093A00028461522134957F053FA012384F83A301E
:1093B0000F4B1B78002BF0D00F4B186859689A6838
:1093C000DD68E56020606160A260DD691869596947
:1093D0009A69A2610123E5612061616184F83B30F3
:1093E00038BD00BFB87D00207C53002064530020AE
:1093F000B97D0020E49506088C7D002008B5002189
:10940000084617F0A7FB002008BD00BF38B50C4B7D
:109410000C4D1C682B6AE31A322B09D86B6AA342E5
:1094200000D338BD002032342EF004F86C6238BD11
:109430000021084617F08EFB00236B6238BD00BF89
:1094400038BA0020101A00202DE9F04FCE4CCF483A
:109450002468046287B0002B63D013440C46DFF805
:109460004493DFF844B3039315461CE0002D00F04D
:10947000D781D9F81430AB4260D0D9F81030AB4264
:1094800000F09380D9E90631AB424ED8A94200F2F0
:109490006E81691A204640F0A5FA039B01359D4272
:1094A00004F500743DD0D9F82060AE42DED8D9F87A
:1094B0003080AE1B4FEAD60AD8F830300AF1020AE3
:1094C0009A4506F0070603D3D8F838309A4509D9EB
:1094D0004146504640F054FA8046002800F04C8146
:1094E000C9F8300098F80430002B40F0DF80D8F83D
:1094F0002870002F00F0F181D8F83030D8F80C2017
:10950000AAEB030A06EBCA0A4346204602EB4A22AC
:109510004FF40071B847039B01359D4204F5007478
:10952000C1D1002007B0BDE8F08FA942B1D94FF4F6
:1095300000720021204657F04DF9AEE7522261201B
:109540004123002622706270A070722284F8E70125
:1095500084F8E631D9F82800E3704FF0FF33314644
:1095600084F8E42184F8E521C4F8E8014FF4F072AE
:1095700084F8EC3184F8ED3184F8EE3184F8EF3181
:10958000201D57F027F955216FF05502C4F8F061FE
:10959000C4F8F461C4F8F86184F8FC6184F8FD61F2
:1095A00084F8FE1184F8FF2177E74FF40072002160
:1095B000204657F00FF9764B764A03CBEB23C4F8DD
:1095C0000300237002204FF0080C58279026F82340
:1095D000A670207484F80DC0C4F807106770637516
:1095E000D9F81010D9F80830D9F81C702073591A1E
:1095F00021624FF0FF3100233F26A1763E21A07368
:10960000E372E3736374A374E3742375A375E37562
:109610006376E3766377A377E37721772676D9F8C5
:10962000186084F82C0003CA84F8283084F82930A4
:1096300084F82A3084F82B3084F82D3084F82E30CA
:1096400084F82F3084F8313084F8323084F83330A5
:10965000BE1B80236662C4F8470084F8403004F1E2
:109660004706292094234C4F84F846C084F84200D2
:1096700084F843300E200D234FF0010C84F8440091
:1096800084F8453084F830C03346716003CF1688C3
:109690001E8197789F725526AA22C4F85200C4F8FA
:1096A000561084F8FE6184F8FF21F6E64FF400724C
:1096B0000021204657F08EF8D8F84030002E75D1A2
:1096C00004F12007002B00F08B80D8F830303349AC
:1096D0001122CDE900662046FFF7DCFCD8F84030C7
:1096E0001A6C04F1400A002A00F08C801B6B2C4994
:1096F000CDE9006638461122FFF7CCFCD8F844606B
:10970000002E3FF4CAAE4FF4E078CDE904450CE0FA
:109710000024CDE900C4FFF7BDFCB66CBA46A8F141
:1097200020080EB3B8F11F0F1ED93468356B96F8B8
:1097300004E011222B46214650460AF1200706F18B
:109740001C0CBEF1000FE3D172793369019342F032
:1097500021022B46CDF800C0FFF79CFCB66CBA4640
:10976000A8F12008002EDDD1DDE9044595E6E91ACF
:10977000204640F037F990E6231F04F5FE7243F8C7
:1097800004BF9A42FBD188E638BA0020101A0020A4
:10979000F89506080496060810960608F09506083F
:1097A000F495060868C20020DEADBEEF002BD8F8A5
:1097B00044200CBF01230223C3EB0613002A3FF40D
:1097C0006CAE966C013B002E3FF467AE013BB66C6D
:1097D000F9D1002E3FF461AEA2464FF4007894E731
:1097E000CDE900663346D9F80C1008222046FFF771
:1097F00051FCD8F84460002E3FF44FAEBA464FF407
:10980000F07882E7CDE900663346384611224949AF
:10981000FFF740FCD8F84460002E7FF474AF3CE6BC
:109820004FF400722946204656F0D4FF80220C23C4
:1098300084F8BE2184F8C231D9F810003E4BD9F823
:10984000086084F8B85183FB0032C117C1EB2232A3
:10985000B2F5806F84F8B95184F8BA5184F8BB51DD
:1098600084F8BC5184F8BD51C4F8C601C4F8CA617B
:1098700042DBFF2384F8BF3184F8C13184F8C03162
:109880002D4B711E83FB0132CE17C6EB2232B2F58F
:10989000806F29DA294B84F8C52183FB01030B442F
:1098A0002748C6EB6313C3EB831680FB0370891B49
:1098B0001844DE17921022F03F020131C6EBE0108F
:1098C0000A43034484F8C42184F8C3315522AA23EF
:1098D00084F8FE2184F8FF31DFE539464FF4007249
:1098E000204656F077FFD8E5FF2384F8C33184F88B
:1098F000C53184F8C431E9E7104B84F8C12183FBFA
:10990000007303440E4FC1EB631387FB0317C3EBD4
:10991000831C9110A0EB0C02F818DF1721F03F0117
:109920000132C7EBE0100A43034484F8C02184F8F5
:10993000BF31A5E7F4950608975545418320088275
:109940008180808010B5044C04480A46214633F0DB
:10995000A3FE204610BD00BF381A00201C96060842
:1099600010B5044C04480A46214633F095FE2046C3
:1099700010BD00BF381A00202C96060810B5044C04
:1099800004480A46214633F087FE204610BD00BF3A
:10999000381A0020389606080A4608B5054920B14D
:1099A000054833F079FE034808BD044833F074FEDF
:1099B000004808BD381A0020649606084C96060830
:1099C00008B533F025FE1B202DF044FD18B12922E7
:1099D00000238271C3713DF05FFE18B1292200237C
:1099E0008271C371094B9B78012B01D0012008BD06
:1099F000074B084A03F1200103F14C0013603FF0CC
:109A0000ADFD054B002083F8230008BD84A2002093
:109A1000BC01002090CB002000ED00E008B5064B13
:109A2000D3F8280138B12DF069FF044B9B7813B1AE
:109A300080F00100C0B208BD101A0020848C002004
:109A400010B500F10C040022212120462EF0BCFCB0
:109A5000FC22202120462EF0B7FC40222421204663
:109A60002EF0B2FC0C22232120462EF0ADFC002269
:109A7000222120462EF0A8FC64201BF08DFF01203F
:109A800010BD10B500F10C0401220B2120462EF070
:109A90009BFC20B11D22092120462EF095FC00F0F0
:109AA000010010BD10B500F10C0470220021204609
:109AB0002EF08AFC2022012120462EF085FC002277
:109AC000022120462EF080FC64201BF065FF01205F
:109AD00010BD13B506230C466A4628210C302EF023
:109AE000F7FBF0B19DF801309DF8002042EA032217
:109AF00004219DF8033012B292FBF1F222809DF80E
:109B0000022042EA032212B29DF8043092FBF1F2E5
:109B100062809DF8052043EA02231BB293FBF1F318
:109B2000A38002B010BD7FB5002500F10C060C46E5
:109B30000D804D808D8001230DF1070206213046F6
:109B40002EF0C6FB10B9002004B070BD9DF80730A0
:109B50005B07F8D5062302AA294630462EF0B8FB4B
:109B60000028F0D09DF809209DF8083043EA022330
:109B700023809DF80B209DF80A3043EA022363807E
:109B80009DF80D209DF80C3043EA0223A380DBE70B
:109B900013B506230C466A4603210C302EF098FBC1
:109BA000A0B19DF800209DF8013043EA02232380F4
:109BB0009DF802209DF8033043EA0223A3809DF81C
:109BC00004209DF8053043EA0223638002B010BDF3
:109BD00037B50478012C054614D190F90400184AD1
:109BE000242303FB00235B7D3BBB431C1DD00328C8
:109BF0001BDC144B009369790623F72247F02EFAF9
:109C0000204618E0022C10D1836813B11A689B8893
:109C10005383F721686845F03BF90623094A6868D1
:109C2000002147F07BF8AB680BB9012003E01A680C
:109C30009B881383012003B030BD0020FBE700BFE9
:109C4000B4BA00201C1A002013B50478012C034676
:109C500014D1124990F90400242202FB0012517D14
:109C600001F0FF02A9B9411C10D003280EDC59797C
:109C70000B4B0093032347F0F1F907E0022C0AD1C4
:109C80000323074A00212EF075FA0124204602B072
:109C900010BD0024FAE70124F8E700BFB4BA0020A1
:109CA0002C1A0020D0E70378012B014605D0022BA7
:109CB00010D1312274212EF0B7BA074B90F904006D
:109CC00031221A70421C05D0032803DCF4224979A2
:109CD0003EF02ABC704700BF0CBC002048213FF07A
:109CE0000FB858213FF00CB820B10078B0FA80F0DE
:109CF000400970470120704708B5202156F081FDCA
:109D00000346184623B10278202A03F10103F8D054
:109D100008BD037903F01803082B0AD002D82BB131
:109D200000207047102B16D0182BF9D1B0F80B007B
:109D30007047124BB0F80B0093F90030591C06BF66
:109D40000F4B1B78DBB203EBC30202EB021213448E
:109D5000184480B270470B4BB0F80B0093F90030F9
:109D60005A1C06BF064B5B78DBB203EB830303EBA5
:109D7000830300EB830080B2704700BF450D0020D5
:109D800064C50020440D002070B5084D2A782AB91A
:109D9000074C084EB44202D301232B7070BDA28839
:109DA000D4E9021053F01CFC1834F3E7DC8B0020DC
:109DB0009001000810090008F0B5067906F0E003EC
:109DC000402B09D144794FF0FF350023012006F0E4
:109DD0000706A3420BD1F0BD602B08BF45794FF0B9
:109DE00001040CBF04FA05F54FF0FF35EDE7042E32
:109DF0000CD8DFE806F0030D18242E0030B1C85C43
:109E0000D75C784028420CBF012000200133E0E7F6
:109E10000028FBD0C856D756A0EB070CDCF1000099
:109E200040EB0C00F2E70028F0D031F8130032F8D4
:109E30001370784028420CBF01200020E6E700287C
:109E4000E4D031F9130032F91370C71B784278411E
:109E5000DCE70028DAD051F8230052F8237078406C
:109E600028420CBF01200020D0E7034B01461868B0
:109E700008B12EF0CDBA70476CC90020024B0146E4
:109E80001868FEF7ABBF00BF6CC900200048F5E7BB
:109E9000DED5060808B5FFF7F1FFBDE80840F5E795
:109EA00010B504460348FFF7E9FF2046BDE810401F
:109EB000F0E700BFCF94060808B532B1C30600D55D
:109EC00019B11046FFF7ECFF0022104608BD034B06
:109ED000186808B12EF08EBA704700BF6CC9002018
:109EE000044B1A68C04302401A60034A13680340D7
:109EF00013607047887100204CC90020034B012279
:109F00004FF400101A701EF057BD00BF0B6B0020FD
:109F1000022838B5044612D802B202EBC2030B483D
:109F20000B490C4D0C7003EB031313440344184608
:109F30002B604BF0E5F84FF0FFFA4FF09BFA601CF6
:109F4000C0B2BDE838401EF0D1BC00BF0C66002096
:109F500064C50020D4CA0020784B30B59A881C898B
:109F600058899989B2F57A6F88BF4FF47A622DEDDE
:109F7000028B88BF9A80DA88B2F57A6F84BF4FF47B
:109F80007A62DA80B4F57A6F84BF4FF47A641C8108
:109F9000B0F57A6F88BF0020DA8988BF5881B1F5A3
:109FA0007A6F84BF4FF47A619981B2F57A6F84BF7A
:109FB0000022DA8184429CBF0020188191429CBF1C
:109FC00000229A81598B9A8B5D4C914284BF00226A
:109FD0005A83238885B0002B53D05A4DAA78062A7D
:109FE00097BF59499FED598A01EB820292ED1D8A74
:109FF0002A79002A75D15649A8790A7807EE903A4D
:10A0000007EE102AF8EEE77AF8EEC76AB0EE667A45
:10A0100086EEA76A08B138EE088AB4EEC68AF1EE79
:10A0200010FA21DD27EE888ABCEEC87A8DED017A20
:10A030009DF8043007EE103AB8EEC77AB4EEC78A3E
:10A04000F1EE10FAC4BF0133DBB2002B67D0102B46
:10A05000A8BF10239A4204D807EE103AF8EEC76A58
:10A060001A460A70B0EE667ADFED3A6A27EE267A73
:10A07000C7EE276AFCEEE66A16EE903AB3F5FA7F71
:10A0800048D8354B35499A78022A04BF00229A7085
:10A090004B78052B14D8324A324803EB830303EB89
:10A0A000830302EB83030A780360022A10D900229B
:10A0B0002D4B0A702D4A136005B0BDEC028B30BDEC
:10A0C00000224A700A782748254B0360022AEED8FE
:10A0D00012B202EBC20303EB0313234913440B44F4
:10A0E000E8E704A8002300F8013D3FF00FFE9DF8CB
:10A0F0000F300BB9AB78A3B92388002BC1D0144A19
:10A10000127807EE903A07EE102AF8EEE77AB8EEEA
:10A11000C77AA9E74FF00050FFF7E2FEB1E701234D
:10A1200098E7B7EE000A80EE080A53F037FB2B8859
:10A13000984228BF18462880DEE700BF24C60020CA
:10A14000D80B00103CAF00207C0806086F120338C3
:10A150004C5300200024744984A2002064C50020D0
:10A1600000680020B49F00200C660020D4CA0020A4
:10A170002DE9F04FAB4B1B78A3F11702022A83B0F5
:10A180000FD9A94A12F83310002940F0B582D9003E
:10A190000A4452782AB1A54A12F83330002B00F055
:10A1A0004283A34EA34D96F80890DFF8B8820024AE
:10A1B00027462A5912F0010C05EB040307F10101AF
:10A1C00000F04A82CFB2510801F077319308511A5A
:10A1D000D00803F03333CB1A00F011315B1A03EBD4
:10A1E000131303F00F33A8FB031E4FEADE1ECEEB62
:10A1F0000E2EA3EB0E0EBEF1010F05EB0400494637
:10A2000004F10C040ED9BEF1020F40F02A82BCF119
:10A21000000F02D012F42F7F04D13BF0E1FC0028A4
:10A2200000F01F82482CC4D1013F022F00F2198296
:10A2300002201EF0DBF8804B1B78022B00F07482AA
:10A24000002800F0F4827D4F7D4D97F809A02B4641
:10A2500005F5E7794FF47A684FF0000E4FF0640B84
:10A260005A88B2F57A6FB3F8562088BFA3F80280F7
:10A27000B2F57A6F9A8888BFA3F85680B2F57A6FE4
:10A28000DA8888BFA3F804809988B2F57A6F84BF12
:10A290000022A3F806E09142B3F86A10B3F86C20EC
:10A2A00098BFA3F804E0914293F8802088BFA3F8F8
:10A2B0006AE0013A632A93F8812088BF83F880B06E
:10A2C0000132D2B2092A88BF83F881E003F1740019
:10A2D000194600228C8930F802CF0132A44528BFEC
:10A2E000A0F800E0032A01F10801F3D1BAF1010F4F
:10A2F00018BF83F898E09A334B45B1D1514CA378FD
:10A30000042B00F0038233B92388B3F5F07F84BFB8
:10A310004FF4F0732380FFF71FFE4B48DFF84881AE
:10A3200081781230FEF742FE98F8071008F1080015
:10A33000FEF73CFE98F8151008F11600FEF736FE01
:10A34000424BB3F9042022B9B3F90620002A00F0E9
:10A35000CD8101225A813E493E4BD1F80090DFF871
:10A360000C8109EA0303002B00F0658219F0010F4C
:10A3700040F03A8219F4804F40F01E8219F0080F25
:10A3800040F0238219F4005F40F0288219F4004F56
:10A3900000F09A810023F37386F8233005F038F932
:10A3A000002800F02981737E032B00F025815A1EBE
:10A3B000012A40F238810023EB83A5F8B830A5F8D4
:10A3C000523105F025F9002840F02C81002319F4C2
:10A3D000805F85F8593085F8F33085F88D3100F0CD
:10A3E0002A811D4BDA79022A08BF01224FF00700AB
:10A3F00008BFDA7151F060FA002840F0FB814FF499
:10A4000080601DF0F3FF002800F0FE81134B1E4614
:10A4100003F1780A03F17D097179A9B3307888B323
:10A420000F4B28E090A60020BC890608F49206088D
:10A43000D0C8002088CA00209CA10020D89A002003
:10A440000C6600203CAF0020F886002024A20020EB
:10A450008871002009600002F46A0020C48800208E
:10A46000C988002081808080DC8600204CC90020C3
:10A4700006334B4508D013F8052C8A42F8D11A78D8
:10A48000002AF5D051F0C2F90636B245C4D1A378FE
:10A49000082B00F06281797ABA7AD8F80000B44BC0
:10A4A000B44EA1F10101A2F10102C0F3C030B1FA32
:10A4B00081F1B2FA82F29870490952094FF40070A2
:10A4C00019701A71FFF70CFD4FF40010FFF708FD2B
:10A4D0004FF00070FFF704FDB388002B40F064815B
:10A4E000A54A136813F07F4F1CBF002313609368C5
:10A4F00023F4007323F002030BB10023936013795C
:10A5000002A8013B042B4FF0000688BF012300F88E
:10A51000016D88BF13713FF0F9FB9DF80730002BE8
:10A5200040F0BC80A379002B40F0D680002385F852
:10A530008D3085F8273185F8C131904BDA8802F0EB
:10A540000F01032954D8C2F30312022A50D81A89E2
:10A5500002F00F01032947D8C2F30312022A43D89D
:10A56000874B884A5C7850781978844240F28E8014
:10A5700000205870002940F08880997892F8EA20ED
:10A58000914284BF00229A707F4B03F516719A782E
:10A59000013A032A69D8DFE802F0111702025C7A57
:10A5A000987ADA7AC82CA8BFC824C828A8BFC820BF
:10A5B000C82AA8BFC8225C729872DA7264338B42D0
:10A5C000E5D103B0BDE8F08F5C7A987ADA7A632C33
:10A5D000A8BF63246328A8BF6320632AA8BF63229F
:10A5E0005C729872DA72E9E740F601221A81B7E7E5
:10A5F0004FF42062DA80AAE70023EB81EB82A5F812
:10A60000A830A5F8B030A5F84231A5F84A3104F0D9
:10A61000FFFF00283FF4CFAE737E5A1E012A3FF69B
:10A62000CAAE00E0737E023B022B3FF6CFAE19F4B8
:10A63000805F7FF4D6AE19F0800F3FF4D2AE534B5B
:10A64000197818293FF6DBAE0122514B8A4013409E
:10A65000002B3FF4D4AEC4E693F90430142B7FF4FE
:10A66000B2AD4C481DF0BAFFE2E55C7A987ADA7A2E
:10A67000642CA8BF64246428A8BF6420642AA8BFEF
:10A6800064225C729872DA7298E798801078884237
:10A69000BFF473AF0021197099806EE7227C267198
:10A6A000A379E2B13C4AD27B002A3FF43CAF002BB5
:10A6B0003FF43CAF394B1A78002A7FF43EAF1B7948
:10A6C000002B7FF43AAF31E7F37B002B00F0A18041
:10A6D000002386F8233061E60023A37126E7627920
:10A6E000012ADFD1002B3FF421AFF5E7B3F90820B1
:10A6F000002A3FF430AE2CE6D900501840680028FC
:10A700007FF446AD214C1720207041E54FF4805076
:10A71000FFF7E6FB238BB3F57A7F37BF4FF47A72EE
:10A72000A378A3782283EEE500283FF48CAD1C4F7C
:10A730001C4B97F82C1190F90440FF2503F14800B9
:10A7400093F90820A24202D10139C9B21D720C331B
:10A750008342F5D187F82C1175E5A379002B3FF4DE
:10A760009AAE237C012B04BF0223237493E600BF1F
:10A770008CBA002054C7002048870020ACA00020DD
:10A780005C9A0020506F00200068002090A60020F6
:10A790000041000188CA002064C5002090FD00200F
:10A7A000101A0020E47C0020307817F0C9FB002844
:10A7B0007FF496AEB08093E62448FFF791FBD1F882
:10A7C000009019F0080F3FF4DDAD2148FFF788FB3A
:10A7D000D1F8009019F4005F3FF4D8AD1D48FFF7A1
:10A7E0007FFBD1F80090D1E51B48FFF779FBD1F84A
:10A7F0000090BFE5072051F009F84FF480601DF08C
:10A80000F5FD00287FF402AE4FF00060FFF768FB13
:10A81000FCE542F2010319EA030F3FF4BFAD002348
:10A8200086F82330BAE50D4A18231370B9E4802066
:10A83000FFF756FB07E5D8F8003049F0080943F068
:10A840000803C1F80090C8F800308FE50920000225
:10A8500001600002094000020860000290A600208A
:10A860002DE9F04F764B1B78013B012B83B040F272
:10A87000CC80744B744ADFF81C92934280F0DD80E8
:10A88000DFF81482CDF8049003F118069B464FF0D0
:10A89000010A6E4C258862197DB142450DD2052D05
:10A8A0000BD936F8183C6188C3F30B03994272D078
:10A8B000144625886219002DEFD156F8101C584611
:10A8C000FEF7BEFB4FF0000A5F4B0BF1180B9B45E8
:10A8D00006F11806DDD3DDF804905D4A5D4B126881
:10A8E0001A60FFF745FC5C4BDA7B012A79D0022A1B
:10A8F00070D020245A7818785849594D594E02EB97
:10A90000820202EB820200EBC00301EB8202564995
:10A9100003EB03130A600344544A2B44336014606E
:10A9200004F084FE524B30684FF0FF321A604AF058
:10A93000E7FB51F051F84F4B4F4918791A894F4BAB
:10A940000B60642303FB02F2C8210A4413FB0011CD
:10A950000023C9E90112C9E90333C9E90533C9E98B
:10A96000073389F8243089F8253026F057FD444B09
:10A9700093F83211B3F830014EF0AAFF11F0CEFF78
:10A980001BF0BAFF2E4B1B78013B012B2BD95046F5
:10A9900003B0BDE8F08F637913F0030388D156F854
:10A9A000101C94F804905846FEF74AFB36F8182C11
:10A9B000B9EB123F86D136F8143C56F8100CAA1F9A
:10A9C000C3F30B039A4204F10601A8BF1A4652F0E2
:10A9D00007FE79E72B4A9279002A0CBF202428240D
:10A9E00088E7282486E717F043FF2749274B0C68A0
:10A9F000274A1860022101235046C9F80C40117003
:10AA000089F8253003B0BDE8F08F17F031FFDFF88B
:10AA100084901E49D9F80C301D4A00F5B71000F596
:10AA2000587003F2DC5308600221C9F80C30117031
:10AA3000044B054A9342FFF423AF4FF0010A4CE761
:10AA40002CC90020900100081009000802400008ED
:10AA5000887100204CC9002064C5002000680020D7
:10AA60000C660020D4CA0020B49F00200000001013
:10AA70008C020020F46A00203079002028A20020F7
:10AA8000101A00203CAF002038BA0020B079002016
:10AA9000AC790020689A00200080000830B4026879
:10AAA0001146531C036011F8024B0160D31C51780E
:10AAB00003609378151D05601B0443EA0123D078D9
:10AAC000234343EA006030BC704700BF0368591C51
:10AAD0001A46016012F8021B0260587841EA002011
:10AAE000704700BF03685A1C02601878704700BFA7
:10AAF00070B5044608460E4651F086F831460546C4
:10AB00000246206852F06CFD20682844206070BD29
:10AB100038B504460068154652F062FD22682A44A2
:10AB2000226038BD036810B40A0E5C1C04601A7001
:10AB300003680A0C5C1C04601A7003680A0A5C1C37
:10AB400004601A7003685A1C026019705DF8044BA7
:10AB5000704700BF036810B40A0A5C1C04601A70D6
:10AB600003685A1C026019705DF8044B704700BFFF
:10AB700003685A1C026010B4197003680A0A5C1C4E
:10AB800004601A7003680A0C5C1C04601A70036885
:10AB9000090E5A1C026019705DF8044B704700BF23
:10ABA00003685A1C026019700368090A5A1C026083
:10ABB00019707047B0F900309FED126A06EE903AB6
:10ABC000B0F9023007EE103AB0F9043000B507EEE4
:10ABD000903AF8EEE66AB8EEC77AF8EEE77A85B012
:10ABE00066EE866A27EE067A67EE867A01A8CDEDD4
:10ABF000016A8DED027ACDED037AFDF763FC05B0B5
:10AC00005DF804FB88C3E43A07EE901AF8EE677A21
:10AC10009FED837A27EE800A20EE070AFDEEC07AC8
:10AC200017EE903A2033402B00F28180DFED7D7AE1
:10AC3000B4EEE70AF1EE10FA40F3E680B0EE407AA7
:10AC40009FED796ADFED796A01E0B0EE677AB4EEE4
:10AC5000E67AF1EE10FA77EE467AF6DC9FED747A3A
:10AC6000F4EEC77AF1EE10FA40F1D1809FED6E6AF2
:10AC7000DFED706A01E0F0EE477AF4EEE67AF1EE8D
:10AC800010FA37EE867AF6D4DFED6B7AB4EEE77A17
:10AC9000F1EE10FA40F3A780DFED627A37EEC77A63
:10ACA00027EE076ADFED655ADFED657ADFED656A4D
:10ACB0009FED655AE6EE257A67EE065AE6EE276ABC
:10ACC000F7EE007AA5EEA67AF0EE675AE7EE055A9F
:10ACD000E7EE457A87EEA55ADFED577A30EE277A10
:10ACE000FDEEC76A16EE903A2033402B24D99FED33
:10ACF000577AF6EE006AB7EE006AF7EE004AC4EE45
:10AD0000A57A0023836143610362C36180ED045A25
:10AD100067EEA66A27EE866A27EE877AC0ED006A9C
:10AD2000C0ED026A80ED016A80ED037A7047B7EEEC
:10AD3000005AF0EE455ACFE7B4EEE70AF1EE10FA0A
:10AD40006BDD9FED396ADFED396A01E0B0EE677ABD
:10AD5000B4EEE67AF1EE10FA77EE467AF6DC9FED85
:10AD6000347AF4EEC77AF1EE10FA53D59FED2E6ADD
:10AD7000DFED306A01E0F0EE477AF4EEE67AF1EECC
:10AD800010FA37EE867AF6D4DFED2B7AB4EEE77A56
:10AD9000F1EE10FA33DCDFED2E7AB4EEE77AF1EE65
:10ADA00010FA44BFDFED227A37EEC77A27EE076A42
:10ADB000DFED224ADFED226ADFED227AE6EE246A39
:10ADC00067EE064AE6EE267AB7EE006AA4EEA77AA8
:10ADD000F6EE006A36EE476AF8EE007A27EE277A3A
:10ADE00066EE266A89E7DFED1A7AB4EEE77AF1EECD
:10ADF00010FA44BFDFED0E7A37EEC77A50E7DFED89
:10AE0000097A37EEC77AD1E7F0EE407A26E7B0EE5E
:10AE1000677A39E7B0EE677AB6E7F0EE477A9EE7F1
:10AE200027D4D236DB0F4940DB0FC940E4CB1641B3
:10AE3000DB0F49C0E4CB16C1DB0FC93F92E741B934
:10AE40009730083C15A82ABEF304353F00000000E7
:10AE5000DB0FC9BFDFED317A30EE277AFDEEC76A2E
:10AE600016EE903A2033402B02D99FED2D0A704701
:10AE7000B4EEE70AF1EE10FA4DDD9FED2A6ADFED40
:10AE80002A6A01E0B0EE677AB4EEE67AF1EE10FAE3
:10AE900077EE467AF6DC9FED257AF4EEC77AF1EE8E
:10AEA00010FA35D5DFED1F6A9FED217A01E0F0EE53
:10AEB000407AF4EEC77AF1EE10FA37EEA60AF6D42D
:10AEC000DFED167AB4EEE70AF1EE10FA1BDCDFEDE7
:10AED000197AB4EEE70AF1EE10FA44BFDFED137A07
:10AEE00037EEC00A60EE006A9FED136A9FED137A99
:10AEF000DFED137AA6EE867A20EE266AE6EE877AF2
:10AF0000A6EE270A7047DFED0F7A37EEC00AE9E7B1
:10AF1000B0EE670AD4E7F0EE477ABCE7DB0FC93F33
:10AF200000000000DB0FC940E4CB1641DB0F49C035
:10AF3000E4CB16C1DB0FC9BF92E741B99730083C9B
:10AF400015A82ABEDB0F494002B370B48E1803E087
:10AF5000121B14D1B14215D010F8012BA2F14103FC
:10AF6000192B11F8013BA3F1410598BF2032192D8F
:10AF700003F12004ECD9D21A01D1002BEAD11046FA
:10AF800070BC70470022104670BC70471046704776
:10AF900070B5044608460D4650F036FE064602E0FF
:10AFA00014F8013F43B1324629462046FFF7CCFF53
:10AFB0000028F5D1204670BD1C46204670BD00BF5C
:10AFC0006FF00042FFF7C0BFA0F16103192B98BFDB
:10AFD00020387047A0F14103192B98BF20307047EB
:10AFE000202805D0093804288CBF00200120704794
:10AFF00001207047613819288CBF0020012070475C
:10B00000413819288CBF00200120704730380928AA
:10B010008CBF002001207047A0F13003092B07D915
:10B0200020F02000413819288CBF002001207047F3
:10B03000012070472DE9F0411F46064603461C7863
:10B040002046FFF7CDFF1D4601330028F7D12B2CFA
:10B0500051D02D2C24D0102A804628D04FF0FF3319
:10B06000B3FBF2F302FB03FC6FEA0C0C5FFA8CFCFF
:10B07000013500200BE0303CE4B2944225DA9842DE
:10B080002E461DD81AD002FB004015F8014B392C72
:10B09000F1D944F02004602C17D9573CE4B2ECE716
:10B0A0004FF00108102A6C7805F10105D6D1302C3B
:10B0B00023D06FF070434FF00F0CD9E76445E2D90D
:10B0C00007EA08084FF0FF30DFE701B10E60B8F182
:10B0D000000F08D027B1B0F1004F28BF4FF000405B
:10B0E0004042BDE8F081002FFBD06FF00043984252
:10B0F00028BF1846F5E78046D4E76C782046FFF76E
:10B1000069FF782805F1010605D035466FF07043D8
:10B110004FF00F0CACE7AC786FF0704302354FF096
:10B120000F0CA5E701230A22002183E770B50D4625
:10B130001446FEF7E1FD0646A0B1FFF7F3FF40F627
:10B1400034039842A8BF1846B0F5617FB8BF4FF4EA
:10B1500061701923A0F5617090FBF3F028702378DB
:10B16000013323703046FEF7C7FD0646A0B1FFF756
:10B17000D9FF40F634039842A8BF1846B0F5617F66
:10B18000B8BF4FF461701923A0F5617090FBF3F024
:10B190006870237801332370304670BD002349E77F
:10B1A0000378202B024600F10100F9D0092BF7D0DB
:10B1B0002D2B00F0A4802B2B03BF5378B7EE000A91
:10B1C0000246B7EE000AA3F13001C8B209289FED8C
:10B1D000577A10D8F2EE046A07EE901AF8EEE77A82
:10B1E00012F8013FE7EE267AA3F13001C8B2092830
:10B1F000B0EE677AF0D92E2B63D003F0DF03452B36
:10B2000002D020EE070A704710B451782D294FD094
:10B210002B2979D0A1F13003092B02F101027AD850
:10B220000024002303EB830301EB430312F8011F07
:10B23000A1F130000928A3F13003F3D9B3F59A7FC7
:10B240001A4628BF4FF49A72072B6CD9DFED386A83
:10B250001346F7EE007A083B072B67EEA67AFAD87A
:10B2600002F00702DAB1F2EE046A012A67EEA67A6A
:10B2700015D0022A67EEA67A11D0032A67EEA67AC5
:10B280000DD0042A67EEA67A09D0052A67EEA67AC1
:10B2900005D067EEA67A062A18BF67EEA67A002CBC
:10B2A0003BD087EE277A5DF8044B20EE070A704703
:10B2B0009178A1F13003092B02F1020230D8012468
:10B2C000AFE75378A3F13001C8B2092802F10102B7
:10B2D00093D8F2EE046AF0EE665A07EE901AF8EE92
:10B2E000E77A12F8013F87EEA66AA3F13001C8B2EF
:10B2F000092866EEA56A37EE067AEED97DE753781F
:10B30000BFEE000A02465EE79178A1F13003092BF7
:10B3100002F1020284D9F7EE007A27EE277AC2E71B
:10B32000F7EE007ABDE7F7EE007A9BE70000000039
:10B3300020BCBE4CF8B5064615460846B6FBF2F4EE
:10B3400034B905FB14640C4B1B5D00F8013BF8BDE0
:10B35000B4FBF2F75FB905FB1747074B05FB146415
:10B36000DA5D00F8012B1B5D00F8013BF8BD3846A3
:10B37000FFF7E0FFEFE700BF7C960608B5EEC00AD6
:10B38000DFED677A674AF1EE10FACCBF30EE270A9C
:10B3900030EE670ADFED647A20EE270A2DE9F047E8
:10B3A000FDEEC07A88B017EE904A84EAE476002376
:10B3B000A6EBE476CDE902330493A2FB06325FEA02
:10B3C000D208054641D105AF58483946554BA3FB35
:10B3D0000623DB0803EB8303A6EB4303002CC35CCB
:10B3E0000B704FF00002ACBF20232D234A7038466B
:10B3F0008DF8083050F008FC0128394639D0022871
:10B4000042D0032805BF302302A802A88DF80930D6
:10B4100055F0E8F902A850F0F7FB0338C4B2224611
:10B4200002A9284652F0DCF800232B55284650F09C
:10B43000EBFB2E22431C02A92A542144E81855F0A4
:10B44000EDF9284608B0BDE8F087394BA3FB062389
:10B450005B0922D105AF35483946324AA2FB083292
:10B46000D20802EB8202A8EB4202835C01F8013BA6
:10B47000ACE7302302A88DF809308DF80A308DF83A
:10B480000B3055F0AFF9C5E7302302A88DF809302D
:10B490008DF80A3055F0A6F9BCE7264AA2FB061241
:10B4A0005FEA92190ED105AF204839461D4AA2FB2A
:10B4B00003C2D20802EB8202A3EB4203C35C01F891
:10B4C000013BCAE71C4AA2FB06125FEA523A0ED1C0
:10B4D00005AF16483946134AA2FB09C2D20802EB4F
:10B4E0008202A9EB4202825C01F8012BDEE71348DD
:10B4F000B6FBF0F058B905AF39460A20BAFBF0F2B6
:10B5000000FB12A20948825C01F8012BE3E705AFBA
:10B5100039460A220193FFF70DFF019B0146ECE734
:10B520006F12033ACDCCCCCC00007A447C9606084E
:10B530001F85EB51D34D62105917B7D1A08601007A
:10B54000802819D9F2B130B400234C1E01E09A4290
:10B550000ED060F07F05C009802803F1010304F8D4
:10B56000015FF4D89A4203D9C85430BC581C7047C4
:10B570004FF0FF3030BC704700239A4202D9C854C4
:10B58000581C70474FF0FF30704700BF0F4B2DE93C
:10B590003048D3E9004554EA05020AD1034640F297
:10B5A000011200201880988098715A801881BDE897
:10B5B0003088074B1A6814EB020B45F1000C5A4611
:10B5C0006346FCF785FE0120BDE83088A89B00207B
:10B5D00038BA002030B403888278C478154DA3F5BA
:10B5E000FA6303F0030101EB4101013A02EB81022E
:10B5F0009B0835F812500279611E40F2B55404FBE5
:10B6000003132B4403EB430302EBC3034279847916
:10B6100009490089C3EB031302EB83032144C3EB05
:10B62000031301EB83034FF47A720021C2FB030181
:10B6300030BC70477C08060880436D3870B40668DB
:10B640008E4217D90139751E002311F8014F0822C7
:10B65000634013F0800F4FEA430318BF83F0D50314
:10B66000013ADBB2F5D18D42EFD1721C026033702A
:10B6700070BC7047721C00230260337070BC70474E
:10B680000A44914215D010B40139541E11F8012F0B
:10B690000823504010F0800F4FEA400018BF80F0A0
:10B6A000D500013BC0B2F5D1A142EFD15DF8044B0A
:10B6B000704770474840082310F0800F4FEA400061
:10B6C00018BF80F0D500013BC0B2F5D1704700BF74
:10B6D0000A44914215D030B40139551E41F221027D
:10B6E00011F8014F082380EA042004044CBF82EAC9
:10B6F00040004000013B80B2F7D18D42F0D130BC18
:10B700007047704770B502221349144C144E4FF61F
:10B71000FF70FFF7DDFF22884AB1A518B54218D2A5
:10B72000052A16D92146FFF7D3FF2C46F3E7214619
:10B730000222FFF7CDFF0222A118FFF7C9FF094B34
:10B74000E41A094B1C8041F60F53C31A5842584162
:10B7500070BD0020FCE700BF004000080240000868
:10B7600000800008FA3F0008DE8B00202DE9F04F32
:10B770008DB0FEF7FDFC704B1B78013B012B40F2B6
