:020000040800F2
:10000000F0FF0010C9CE05085BE1020885C50108B4
:1000100069CF050869CF050869CF05080000000011
:1000200000000000000000000000000059E102088C
:1000300057E102080000000055E10208151B010805
:1000400069CF050869CF050869CF050869CF05089C
:1000500069CF050869CF0508ED25010819270108B2
:10006000DD260108A1260108652601082DE100080A
:100070001DE100080DE10008FDE00008E9E00008CE
:10008000D5E00008C1E0000869CF050869CF050880
:1000900069CF050869CF050869CF05082926010839
:1000A000E9CC010885D2010819CC010855D3010813
:1000B000C5D1010805D1010839D0010859E9000866
:1000C00061E900084DE9000855E9000869CF050815
:1000D00069CF0508451E0108891D0108CD1C0108CE
:1000E000B125010869CF0508C527030849CB0108D8
:1000F000B9CD010879CA010899CE0108ADE0000820
:1001000069CF050869CF050869CF010869CF0508DF
:10011000111C0108551B0108B52802083D270208DB
:1001200099E0000885E0000871E000085DE0000843
:1001300049E0000869CF050869CF050869CF0508BF
:1001400069CF050869CF050869CF050891F702084E
:1001500035E0000821E000080DE0000869CF05083F
:1001600041E9000849E9000869CF050869CF050899
:1001700069CF050869CF050869CF050869CF05086B
:0801800069CF050869CF0508ED
:0801880070CA0500010000002F
:1001900010020100010000006432002060320020E3
:1001A00000000000F8080008280204000400000015
:1001B000743200207832002000000000F19A030819
:1001C0002702040004000000703200207C3200206E
:1001D00000000000E59A03081A0201003C0000003C
:1001E00054370020F038002000000000E19B030895
:1001F000031201003D000000DC3600202C390020F5
:1002000000000000FA08000838100100010000009A
:10021000443500206C390020000000003809000837
:100220000A0201001400000048410020B8440020E8
:1002300000000000C5EC0108F821010006000000E4
:1002400058440020CC440020000000003A09000877
:10025000030001000100000064440020D444002099
:10026000000000000000000010100100020000006B
:10027000383C0020D844002000000000400900085D
:1002800025201E002C01000064410020DC440020D9
:100290000000000000000000020001000C0000004F
:1002A000B446002044470020000000000000000089
:1002B00029020100400000001046002050470020A5
:1002C0000000000042090008FD0701007600000060
:1002D000E05D0020585E0020000000003129030886
:1002E000261001000E000000E05E0020D05E00201D
:1002F0000000000075CC02080B3001001A0000005D
:10030000B0570020205F0020000000008409000892
:100310001F30010024000000EC4E00203C5F002054
:1003200000000000A0090008050201000400000010
:100330007C5A0020605F002000000000C409000813
:10034000030101000A00000034570020645F002010
:100350000000000009C802081302010004000000A8
:10036000B4470020705F002000000000C8090008AA
:10037000010201000B0000001C680020EC75002049
:10038000000000007D9A03081B020100100000001D
:1003900008680020F875002000000000F59A0308A6
:1003A0001B1001000C00000068610020087600208E
:1003B00000000000C94F030821020100F000000006
:1003C000E85F00201476002000000000414D030883
:1003D00023120100100000000865002004770020AF
:1003E00000000000CC090008051001000600000014
:1003F000006500201477002000000000DC090008E0
:10040000371001002E000000786700201C770020C4
:1004100000000000E20900080E02010002000000D6
:10042000FC6400204C77002000000000100A000847
:100430001610010006000000F46400205077002030
:1004400000000000120A00082F1001002200000026
:10045000C87500205877002000000000180A000826
:100460001E00010009000000186400207C770020B5
:10047000000000003A0A0008F58101006800000051
:10048000785F0020887700200000000021710308B9
:100490002320010010000000A0640020F07700205D
:1004A00000000000CDFA030807020100020000006E
:1004B000707E0020887E002000000000440A0008B2
:1004C0001D02020006000000387E00208C7E002005
:1004D0000000000000000000060203000C00000005
:1004E000587E00201486002000000000719D030843
:1004F000081203000F000000447E00202086002028
:10050000000000008D9A030827000100040000008D
:10051000287900203086002000000000460A0008EC
:100520002C00040010000000ACB000209CB00020A3
:1005300000000000DD1904082B0012002400000058
:10054000E0B00020BCB0002000000000AD1904089D
:10055000292014007800000054AF002004B10020CE
:100560000000000000000000F62101000C00000067
:10057000A0AD00207CB10020000000004C0A000863
:100580001C0202001C00000028AE0020CCB100209C
:1005900000000000A59C03081400010004000000F6
:1005A00064AD0020E8B1002000000000580A0008F7
:1005B0000D1001006400000028D100207CDA00202A
:1005C00000000000056E0208040008008000000022
:1005D00068D00020E0DA00200000000000000000E9
:1005E000090201000100000010D0002060DB0020A3
:1005F000000000005C0A0008FD010100240000006A
:10060000A8CF002064DB002000000000FFEC000801
:10061000182001003200000070CF002088DB00208D
:1006200000000000F1A10308FB010100010000002F
:1006300030CF0020BCDB002000000000E9A0030850
:10064000FC01010009000000FCCD0020C0DB0020FF
:1006500000000000F9A00308F701010006000000F7
:10066000F4CD0020CCDB0020000000005E0A000872
:10067000F901010004000000F0CD0020D4DB0020CF
:1006800000000000ADED0008160215003F0000005C
:1006900028B60020D8DB00200000000081A103085C
:1006A00034000100100000001CCD002018DC0020E8
:1006B0000000000045CB0408110201000800000002
:1006C000F4CC002028DC002000000000640A0008B0
:1006D0001212010004000000ECCC002030DC0020ED
:1006E000000000006C0A00080A80010028000000D9
:1006F000C4CC002034DC002000000000B5F9030861
:10070000061001001C0000000CB600205CDC00207C
:100710000000000015A103081220010011000000D4
:1007200004CC002078DC002000000000700A0008E3
:10073000000201000B00000040C900208CDC0020FA
:100740000000000000000000FA01010003000000AA
:10075000D0C2002098DC002000000000719A03083D
:10076000020201000300000004B600209CDC00200F
:1007700000000000000000000C0201000400000066
:10078000B4B50020A0DC002000000000599A030846
:100790001F0208001000000058C20020A4DC002046
:1007A00000000000059A0308FE010100140000008B
:1007B0005CC10020B4DC002000000000D5990308D3
:1007C00019000100050000009CF20020E4F2002066
:1007D00000000000820A00081A0001000E0000005C
:1007E00068F10020ECF2002000000000880A0008F8
:1007F000203201000A00000058F00020FCF2002026
:1008000000000000F5CA0408150010007000000088
:10081000ECED002008F300200000000000000000C4
:100820002A00080060000000D0F1002078F30020CA
:1008300000000000CDCA0408012001000C000000E7
:1008400004FA002080FE002000000000980A000842
:100850000EF00300CE0100001CF500208CFE0020ED
:100860000000000015CB0408130001000400000084
:1008700070FD00205C00012000000000A40A0008B8
:10088000010101000400000068F400206000012064
:100890000000000000000000000101000400000052
:1008A00060F400206400012000000000A80A000895
:1008B00002010100030000005CF400206800012038
:1008C0000000000065E60108220201001C01000092
:1008D00058FB00206C00012000000000859E0308EA
:1008E0000C2006005802000010F7002088010120AB
:0808F0000000000045E60108CC
:1008F80000000000000000000000000000000000F0
:1009080000000000000000000000000000000000DF
:1009180000000000000000000000000000000000CF
:1009280000000000000000000000000000000100BE
:1009380000000101F401140000050000000000009F
:10094800000000000000000000000000000000009F
:10095800000000000000000000000000000000008F
:10096800000000000000000000000000000000007F
:10097800000000000000000000000000AE014A0175
:100988005E012C0164010100000001000A019A01C6
:10099800001E0A0000020000000000000001000024
:1009A8000005000001020300000000000000000034
:1009B80000000000000000000080070000000000A8
:1009C800000001000000000000000000000000001E
:1009D8000000000020000101000020003200C800D3
:1009E800D00796001400320028004C044006000589
:1009F800500014000F00080064000100000005000A
:100A08000A000000F40196000000C4090000190063
:100A180000000000000000000000000000000000CE
:100A280000000000000000000000000000000000BE
:100A3800000000050100000000000000013C200348
:100A48000000000000000000010000000202000099
:100A58000300002313003E01000000000000000016
:100A680001010101FFFFFFFF000000010000054830
:100A78004B46340000080002000000002801000076
:100A88007E05EA05B4053200E803D007000000003F
:100A9800E8036400040A000114001E000800400076
:040AA80090010000B9
:100AAC00FF010000F4010000FF0000000000000046
:100ABC00000000000102030406070809FFFF000004
:100ACC00FFFFFFFF14DE0608000008020503030009
:100ADC00000000001CDE06080100080205040300EB
:100AEC00000000001CF506080200FE0101100300C6
:100AFC000000000024DE06080300140200030000BE
:100B0C00000000002CDE060804001F020200080092
:100B1C000000000034DE060805001F020201080078
:100B2C000000000001000000A00F0000B80B000046
:100B3C000102FFFF01000000685E0C0002FF0000D4
:100B4C000000FA430000FA430000803F0000000060
:100B5C000000000000000000218E020800000000D0
:100B6C000000000000000000FFFFFFFF000000007D
:100B7C00A844002008000000000000009844002059
:100B8C00080000000000803F69E8020807C3020863
:100B9C00FDE7020800000000E9C10208D5F00208D8
:100BAC003DE70208A9E30208000000000000000075
:100BBC00A9C1020875C1020867C102082DE202082A
:100BCC0049E2020811E20208F5E10208DBE1020841
:100BDC001FE80208E5C202083FE702080000000017
:100BEC00C1C10208ABE3020811E7020813E30208D3
:100BFC000000000000000000B5C102080403090455
:100C0C0012010002EF02014083045632000201027D
:100C1C00030100001201000202020040830440574D
:100C2C00000201020301000009022000010104C0BE
:100C3C003209040000020806500507058102400035
:100C4C00000705010240000009026400030100C016
:100C5C003209040000010300000009211101000108
:100C6C002236000705830309000A080B0102020261
:100C7C000100090401000102020100052400100119
:100C8C0005240100020424020205240601020705C2
:100C9C0082030800FF09040200020A000000070595
:100CAC0001024000000705810240000009024300D8
:100CBC00020100C0320904000001020201000524F7
:100CCC000010010524010001042402020524060081
:100CDC0001070582030800FF09040100020A000055
:100CEC0000070501024000000705810240000000DA
:100CFC00FF00000000FF0000000000000000AA55EB
:100D0C000701000001AA550501000008505806080B
:100D1C00FF1FFF1F05010905A101A10005010930F5
:100D2C000931093209330935093409360937158176
:100D3C00257F7508950881020509190129081500F8
:100D4C002501950875018102C0C00000090222002E
:100D5C00010100E032090400000103010200092135
:100D6C00110100012236000705830309000A000067
:100D7C000000000001020304010203040607080935
:100D8C000BE9020809EE020885E902081FC20208F5
:100D9C00D1C302082FC202084BC20208F9C10208D3
:100DAC00EBC1020800000000000000002D202D2DDA
:100DBC00202D2D2D2D202D2D2D2D0000000000007F
:100DCC000000000000000000000000AA550B01000C
:100DDC0000AA5505010000AA550902000000AA55F9
:100DEC0003009F0001000000C0120000F05E002014
:100DFC0000000000185F002000000000C0DE0608A4
:100E0C0070F7060800000000D5E60108A086010076
:100E1C0004000000000000000000000000000000C2
:100E2C0000000000000000000000000000000000B6
:100E3C00000000000000000000000000C0DE0608FA
:100E4C0078F7060800000000A5540108E80300002C
:100E5C000400000000000000000000000000000082
:100E6C000000000000000000000000000000000076
:100E7C00000000000000000000000000E8DD060893
:100E8C000000000000000000E1E701087D00000008
:100E9C00FF00000000000000000000000000000047
:100EAC000000000000000000000000000000000036
:100EBC0000000000000000000000000074E20608C2
:100ECC00000000000000000025FC01087D0000006F
:100EDC00FF00000000000000000000000000000007
:100EEC0000000000000000000000000000000000F6
:100EFC00000000000000000000000000E8140708DB
:100F0C000000000000000000B14102087D0000005C
:100F1C00FF000000000000000000000000000000C6
:100F2C0000000000000000000000000000000000B5
:100F3C00000000000000000000000000F0DD0608CA
:100F4C000000000000000000F5BC0108E8030000F0
:100F5C000300000000000000000000000000000082
:100F6C000000000000000000000000000000000075
:100F7C0000000000000000000000000080F70608E0
:100F8C000000000000000000F94D050810270000CB
:100F9C000300000000000000000000000000000042
:100FAC000000000000000000000000000000000035
:100FBC0000000000000000000000000020DE060819
:100FCC0000000000D5150408BD8C01085F760000F8
:100FDC000500000000000000000000000000000000
:100FEC0000000000000000000000000000000000F5
:100FFC00000000000000000000000000E4E1060812
:10100C00000000000000000015D4010810270000AB
:10101C0001000000000000000000000000000000C3
:10102C0000000000000000000000000000000000B4
:10103C000000000000000000000000008CF7060813
:10104C000000000000000000A9540108E8030000A3
:10105C00050000000000000000000000000000007F
:10106C000000000000000000000000000000000074
:10107C0000000000000000000000000098F70608C7
:10108C00000000000000000025EF0108204E0000C9
:10109C000300000000000000000000000000000041
:1010AC000000000000000000000000000000000034
:1010BC00000000000000000000000000A8F7060877
:1010CC00000000000000000001ED0108204E0000AF
:1010DC000300000000000000000000000000000001
:1010EC0000000000000000000000000000000000F4
:1010FC00000000000000000000000000B8F7060827
:10110C00000000000000000071890108400D030080
:10111C0003000000000000000000000000000000C0
:10112C0000000000000000000000000000000000B3
:10113C00000000000000000000000000B8DF0608FE
:10114C000000000000000000158C020810270000B1
:10115C000100000000000000000000000000000082
:10116C000000000000000000000000000000000073
:10117C0000000000000000000000000008DE06086F
:10118C000000000000000000615B03081027000055
:10119C000300000000000000000000000000000040
:1011AC000000000000000000000000000000000033
:1011BC00000000000000000000000000F4DD060844
:1011CC000000000000000000ED87010850C3000083
:1011DC000100000000000000000000000000000002
:1011EC0000000000000000000000000000000000F3
:1011FC00000000000000000000000000C8F7060816
:10120C000000000000000000D1830108A86100006C
:10121C0001000000000000000000000000000000C1
:10122C0000000000000000000000000000000000B2
:10123C00000000000000000000000000D4F70608C9
:10124C0000000000000000002DA70508A08601008A
:10125C000100000000000000000000000000000081
:10126C000000000000000000000000000000000072
:10127C00000000000000000000000000ECE1060887
:10128C000000000000000000E1540108A00F000065
:10129C000100000000000000000000000000000041
:1012AC000000000000000000000000000000000032
:1012BC00000000000000000000000000E0F706083D
:1012CC0000000000000000001D7C03081027000037
:1012DC000100000000000000000000000000000001
:1012EC0000000000000000000000000000000000F2
:1012FC00000000000000000000000000C0DF060835
:10130C0000000000000000002D7403081A410000CA
:10131C0001000000000000000000000000000000C0
:10132C0000000000000000000000000000000000B1
:10133C0000000000000000000000000050E2060861
:10134C0000000000000000003DC80208102700004B
:10135C000100000000000000000000000000000080
:10136C000000000000000000000000000000000071
:10137C00000000000000000000000000ECF7060870
:10138C00000000000000000079B0050850C3000008
:10139C000100000000000000000000000000000040
:1013AC000000000000000000000000000000000031
:1013BC00000000000000000000000000F0F706082C
:1013CC00000000000000000049D00208400D03009E
:1013DC000000000000000000000000000000000001
:1013EC0000000000000000000000000000000000F1
:1013FC00000000000000000000000000F8F70608E4
:10140C00000000000000000061540108400D0300C2
:10141C0000000000000000000000000000000000C0
:10142C0000000000000000000000000000000000B0
:10143C0000000000000000000000000000F806089A
:10144C0000000000000000001587030850C30000D6
:10145C00030000000000000000000000000000007D
:10146C000000000000000000000000000000000070
:10147C000000000000000000000000000CF806084E
:10148C0000000000000000009D3B020840420F00DD
:10149C000000000000000000000000000000000040
:1014AC000000000000000000000000000000000030
:1014BC0000000000000000000000000018F8060802
:1014CC000000000000000000D96E020850C30000AC
:1014DC000000000000000000000000000000000000
:1014EC0000000000000000000000000000000000F0
:1014FC0000000000000000000000000001000000DF
:10150C0000000100E0017EFFFFFFFFFFFF00000075
:10151C00FFFFFFFF0801FF011A030000000000009D
:10152C0000000000000000000000000000000000AF
:10153C000000000004030904120100020000004036
:10154C008304205700020102030100006DA203086E
:10155C003D9B0308399B0308359B030889A20308AC
:10156C00319B03082D9B0308A462060871F0020846
:10157C00C7C2020855EF020800000000000000007E
:10158C00E9E60208F9E5020800000000000000008E
:10159C00000000009DC10208D59B0308C99B0308ED
:1015AC00BDA70308D9A70308819B0308A1A70308BB
:1015BC0085A703081F0000001C0000001F0000008E
:1015CC001E0000001F0000001E0000001F00000095
:1015DC001F0000001E0000001F0000001E00000085
:1015EC001F0000000068214C446C060894A70020E2
:1015FC00E8A70020D60101FF010000000001010155
:10160C0000000000080000000000040100000000C1
:10161C000000000210000000070000007D00000028
:10162C00006002401060024000000000000000005A
:10163C00000B000000000000000000000000000093
:10164C000060024028600240010000000000000021
:10165C00060C00000000000000000000000000006C
:10166C0000600240406002400200000000000000E8
:10167C00100D000000000000000000000000000041
:10168C0000600240586002400300000000000000AF
:10169C00160E00000000000000000000000000001A
:1016AC000060024070600240040000000000000076
:1016BC00200F0000000000000000000000000000EF
:1016CC00006002408860024005000000000000003D
:1016DC0026100000000000000000000000000000C8
:1016EC0000600240A0600240060000000000000004
:1016FC00301100000000000000000000000000009D
:10170C0000600240B86002400700000000000000CA
:10171C00362F000000000000000000000000000058
:10172C000064024010640240000000000000000051
:10173C000038000000000000000000000000000065
:10174C000064024028640240010000000000000018
:10175C00063900000000000000000000000000003E
:10176C0000640240406402400200000000000000DF
:10177C00103A000000000000000000000000000013
:10178C0000640240586402400300000000000000A6
:10179C00163B0000000000000000000000000000EC
:1017AC00006402407064024004000000000000006D
:1017BC00203C0000000000000000000000000000C1
:1017CC000064024088640240050000000000000034
:1017DC002644000000000000000000000000000093
:1017EC0000640240A06402400600000000000000FB
:1017FC003045000000000000000000000000000068
:10180C0000640240B86402400700000000000000C1
:10181C003646000000000000000000000000000040
:10182C0065C1020863C1020861C102085BC10208FC
:10183C0059C102085FC102085DC102080100000025
:10184C000000803FFFFFFFFF0000803F0000000012
:10185C0000000000000000000000803F00000000BD
:10186C00000000000000000000000000000000006C
:10187C00000000000000000000000000000000005C
:10188C000000803F0000000000000000000000008D
:10189C0001000000010000000D6E050800000000B2
:1018AC00000000009C7D0608000000000000000005
:1018BC000000000070950608000000000000000009
:1018CC000000000028960608000000000000000040
:1018DC0000000000D4950608000000000000000085
:1018EC007D820508D1FA0020010100001D91050838
:1018FC000000000000000000FC960608519405084A
:10190C000000000000000000B49606082D202D2DCC
:10191C00202D2D2D2D202D2D2D0000000000000040
:10192C00000000000000000000000000FFFFFFFFAF
:10193C004188050800000000000000000095060822
:10194C0001000000FA00000001000000010000008E
:10195C00FCF900200000F40101000000FAF900205D
:10196C000000F40101000000F8F900200000F4016F
:10197C0001000000F6F900200000F4010100000055
:10198C00F4F900200000F40101000000F2F900203D
:10199C000000F40101000000F0F900200000F40147
:1019AC0001000000E9750508AD7505080000000090
:1019BC0080810608E0F9002005320100EEF90020D4
:1019CC006400F40101000000ECF900206400C4097B
:1019DC0001000000DEF90020E803D0070100000040
:1019EC00DCF90020E803D00701000000DAF9002040
:1019FC00E803D00701000000D8F900201E00B80B46
:101A0C0001000000E6F9002005000F0001000000B5
:101A1C00E8F9002003000A0001000000D6F90020BC
:101A2C001E00F40101000000EAF900200200000091
:101A3C000C820608D4F90020140064000100000098
:101A4C00E2F900203200E80301000000D2F9002086
:101A5C000000C800010000000DF7002000C80100C4
:101A6C000CF70020005001000BF70020005A010079
:101A7C0009F700200200000018820608F00C070885
:101A8C00F80C0708B2D100200100C40900000000C6
:101A9C00B0D100200100C40900000000AED100202C
:101AAC000100C40900000000ACD100200100C409F1
:101ABC0000000000A8D100200100C40900000000B3
:101ACC00AAD100200100C40900000000A6D100200A
:101ADC000100C40900000000A4D100200100C409C9
:101AEC000000000087F4002000C8010086F40020EC
:101AFC0000C8010084F400200000FFFF0A00000071
:101B0C0082F400200100C8000100000080F40020D5
:101B1C0032003075320000007EF400200582050092
:101B2C007CF4002005002C01050000007AF4002054
:101B3C00055A050077F4002000FF010079F400201D
:101B4C00020000006411002075F400200300000066
:101B5C00705A060876F4002000FF010078F400208B
:101B6C00020000006411002074F400200300000047
:101B7C00705A06083D750508CD7405080000000074
:101B8C002482060814FA0020EE02CA0801000000A4
:101B9C0012FA002000C801006400000011FA0020B5
:101BAC0000C801006400000010FA002002000000D0
:101BBC00308306086EF400200000803E0500000013
:101BCC006CF4002080C1803E0500000066F400200B
:101BDC000083007D0500000064F4002080C1803E7D
:101BEC00050000005FF4002000FF010058F4002005
:101BFC006400F4010100000056F400200400000011
:101C0C003C83060855F400200200000050830608AF
:101C1C000DF500200D0000005C8306080AF500207D
:101C2C000064010008F50020320010270A000000B3
:101C3C0006F500200D0000005C83060805F5002069
:101C4C000D0000005C83060804F500200200000073
:101C5C009483060800000000000000000000000053
:101C6C00A08306081AFA00203E000000D88306085C
:101C7C0018FA00200100FF7F0100000017FA002075
:101C8C0002000000D48406080FF5002003000000B9
:101C9C00E48406080EF5002003000000E484060826
:101CAC00FAF60020000A0100F8F600200000E80314
:101CBC0001000000F6F600200000E803010000001F
:101CCC00F4F600200000E80301000000F2F600200A
:101CDC000000E80301000000EAF600200000E80321
:101CEC0001000000F0F600200000E80301000000F5
:101CFC00EEF600200000E80301000000ECF60020E6
:101D0C000014010008F7002002000000F48406080B
:101D1C0006F700200000F4010100000004F7002089
:101D2C000000F4010100000002F700200000F401A3
:101D3C000100000000F700200000F4010100000089
:101D4C00FEF600200000A00F01000000FCF60020B1
:101D5C000000A00F010000007BF9002019640100B5
:101D6C007AF90020020000000085060878F90020AE
:101D7C00E803D0070A00000076F900200064010097
:101D8C000A0000006BF90020006401006AF90020D1
:101D9C000064010072F90020006401000A000000D8
:101DAC0071F90020006401000A00000070F90020A5
:101DBC00006401000A00000075F9002000FF01001A
:101DCC000A00000074F9002000FF01000A00000066
:101DDC0073F9002000FF01000A0000006FF90020D9
:101DEC0001FF01000A0000006EF9002001FF010054
:101DFC000A0000006DF9002001FF01000A0000003C
:101E0C0018F500200000F4010100000016F5002078
:101E1C000000A00F0100000014F500200000A00F2E
:101E2C000100000012F500200000A00F01000000CE
:101E3C0010F500200000A00F0100000019FB00208D
:101E4C0000C8010018FB00200064010017FB0020F3
:101E5C000064010016FB00200064010015FB00204B
:101E6C000064010014FB0020FF08010013FB00209C
:101E7C0001640100457405080974050800000000A0
:101E8C000C8506081CFB0020013201001BFB002006
:101E9C00010000007C8506081AFB002004000000ED
:101EAC008485060812FB00200064010010FB002052
:101EBC001400E803010000000EFB0020E80330755D
:101ECC000A0000000DFB002000C801000CFB0020E4
:101EDC0000C801000BFB002000C801000AFB002019
:101EEC00003201001EFB0020004B01001DFB0020F6
:101EFC00040000009885060809FB0020006401001E
:101F0C000A00000036FB00200000D0070100000092
:101F1C0030FB002000002003010000002EFB0020FD
:101F2C000000C800010000002CFB00200000C800CD
:101F3C000100000034FB00200000D007010000006D
:101F4C002AFB0020000020030100000028FB0020D9
:101F5C000000C8000100000026FB00200000C800A3
:101F6C000100000032FB00200000D007010000003F
:101F7C0024FB0020000020030100000022FB0020B5
:101F8C000000C8000100000020FB00200000C80079
:101F9C0001000000FD710508E57105080000000056
:101FAC00AC85060801F50020005A010000F5002060
:101FBC0000C80100FEF40020E803D0070100000077
:101FCC000000000000000000BD82050848860608DD
:101FDC0048414B52434634303500000073F4002026
:101FEC000003010072F400200003010021710508B8
:101FFC00D5700508000000009C8606089570050841
:10200C004D70050800000000388706086D71050842
:10201C002588050800000000B887060870F4002029
:10202C0001030100917605086576050800000000A3
:10203C00108B0608D16F0508856F0508000000009D
:10204C00808B06080D720508A19D05080000000094
:10205C001C8C0608498C0508BD760508000000009C
:10206C00C48C06085D72050800000000000000002A
:10207C00508D060839730508E17205080000000050
:10208C00B48D0608CD730508917305080000000097
:10209C005C8E0608C1BE05088174050800000000AE
:1020AC00E88E0608D0F9002001060100A57205088B
:1020BC007172050800000000E48F0608F5BD0508E4
:1020CC00C18905080000000054900608F9BE0508F7
:1020DC00898A050800000000A4910608CEF90020AA
:1020EC000100030001000000B571050885710508A9
:1020FC00000000007892060851BF0508000000009F
:10210C0000000000DC9206081D7005080D8805080B
:10211C00000000005C9306080000000000000000B6
:10212C0000000000E8930608A5740508058B050857
:10213C000000000058940608000000000000000099
:10214C000000000070960608285A00209CFF2C0105
:10215C000000000008FD0020E0150C170000000036
:10216C0066FA002002000000A896060850F4002031
:10217C0088136F170100000052F4002088136F17AA
:10218C0000000000F6D1002000000000000000005C
:10219C00F4D100200000000000000000F2D100206B
:1021AC000000000000000000F0D100200000000042
:1021BC0000000000EED10020000000000000000034
:1021CC00ECD100200000000000000000D004002032
:1021DC000000000000000000D8F300200300000005
:1021EC009897060848F4002088136F170100000028
:1021FC00725A002088136F1700000000C56E050886
:10220C000000000000000000A897060867FA0020F4
:10221C0001000000FC970608745A00200100000021
:10222C00089806086A5A0020020000001098060858
:10223C000000000000000000000000001C980608D0
:10224C00AD6E05080000000000000000B8980608FC
:10225C000000000000000000000000000C990608BF
:10226C000000000000000000000000007C9906083F
:10227C0054F4002002000000B49906086E5A0020A5
:10228C00E0150C1700000000010000007819002078
:10229C000000000000000000000000000000000032
:1022AC000000000000000000000000000000000022
:1022BC000000000000000000000000000000000012
:1022CC000000000000000000000000000000000002
:1022DC0000000000000000000000000000000000F2
:1022EC0000000000000000000000000000000000E2
:082800000000000000000000D0
:1080000004307047704700BF416170472A4A1368C7
:108010005268A3F5000307EE903A284BB8EEE77AD2
:10802000D3ED016AD3ED027A93ED046AD3ED085AD9
:1080300093ED075AE7EE276AA2F50002D3ED007A26
:10804000E7EE267A07EE102AF8EEC76A93ED057A76
:10805000A7EE276A93ED037AA7EE867A93ED0B6A73
:10806000E6EE865A93ED0A6AE6EE275A93ED096A20
:10807000A6EE275A93ED066AA5EE276AA5EEA66A34
:10808000A6EE867AB5EE407AF1EE10FA18BFBDEE94
:10809000C77AF5EE407A18BF80ED007AF1EE10FA5B
:1080A00008D0FDEEE77A4FF4807317EE902A92FB2A
:1080B000F3F30B60704700BFD8190020B0AE00206A
:1080C00001207047012070470120704770477047BA
:1080D0006D4B2DE9F04F9C686C4BB3F80AE0B3F898
:1080E00004809A894FEA0E2AB4EB0A044FEA1E6B09
:1080F0004FF0000587B065EB0B05CDE9004507465D
:10810000009C1889019EA0FB044500FB0655E00970
:1081100040EA45604FEA08448C46E9114FEA1845A9
:1081200010EB0408D888009C41EB0509CDE90489CF
:10813000A0FB0445B3F8028000FB0655200A40EA84
:1081400005604FEAC83429124FEA584510EB04087D
:1081500041EB05090099A2FB010102FB06114FEA60
:10816000D05A4AEA412A1AF5FA634FEAE15B4BF129
:108170000004B3F5FA6FCDE9023474F10003424E06
:1081800064DA0524AAFB040104FB0B1100FB0BF4C9
:108190000AFB0144DDE90423A0FB0A0121444D1040
:1081A0004FEA3004121B4FEA900463EB050344EAE4
:1081B0008174B8EB0408CDE90423DDE902343448C6
:1081C0004FEAA10569EB05094FF0FF31834274EBDB
:1081D000010326DA40F6AC501AEB00024FF0000122
:1081E0004BEB010302FB03F1A2FB022303EB410370
:1081F000D400DD00101B45EA527563EB0501DDE993
:10820000044524184D41CDE904450B24A2FB04018B
:1082100004FB031149104FEA3000B8EB000869EB8A
:108220000109DDE900325343009ADDE90201A2FBB6
:1082300002AB0BEB430B4FEADA7242EA4B02801AB5
:108240004FEAEB7361EB0301CDE9020197B1F168ED
:10825000A1FB082301FB0933540D5D1544EAC32437
:10826000DDE90423A21A65EB03031D46D30B43EAA1
:1082700045433B60BCF1000F02D0029BCCF80030BC
:1082800007B0BDE8F08F00BFD819002080AE0020F5
:1082900024FAFFFF2DE9F04FDFF8E8C1784CDCF855
:1082A00010502288C2EB25135200C2EBE502B4F94C
:1082B00002505B436A43B4F904501B135D43AD1392
:1082C00005EBE225B5F5FA324FEAE57985B049F1DB
:1082D000FF33CDE90023DDE900325343009ACCF8A7
:1082E0001450A2FB02ABB4F90820CDE902010199B8
:1082F000009812B20BEB430B5143D31700FB031151
:10830000A2FB00230B441F03160347EA1257B4F9DC
:108310000A200FFA82F84FEAE87908FB0BF10AFB12
:108320000913A8FB0A0119444FEA102848EA01681A
:1083300018EB0602E6884FEA212949EB0703B6B29B
:1083400012F1000843F50049A8FB060106FB0911DC
:108350004A10CB1752EA030100F09080B4F9106084
:10836000B4F90E0036B2F71706FB0BF10AFB071142
:10837000A6FB0AAB019E00B200FB06FE009E8B44EA
:10838000C11706FB01EEA0FB060171444FEA41490B
:10839000DCF818104FEA4048C1F5801C1AEB0806BB
:1083A00049EAD0394BEB09074FEAEC794FEAC9713A
:1083B00041EA5C014FEACC70B4F90CC04FF0000AFE
:1083C0001AEB06084FEACC0B4BEB0709B0EB0800A1
:1083D00061EB090140F635468B46A0FB060106FB22
:1083E0000B1154F0A5FBB4F916204E1312B2470B33
:1083F00047EAC14702FB06FCD31707FB03CCA2FBED
:1084000007236344564307FB0366A2FB0723334459
:10841000560E46EAC3163218B4F914604FEA636781
:108420000FFA86FA47EB010380460AFB01F14FEA97
:10843000EA7B08FB0B17AAFB08013944C60C46EA85
:10844000413612EB0608B4F912204FEAE14743EB3C
:1084500007094FEA182112B241EA096113010B44DE
:10846000029A0AB11B0A1360039B23B105EB850531
:1084700080352D121D6005B0BDE8F08F0023EFE7B9
:1084800094AE0020D8190020012070472DE9F0415A
:10849000334B344E9A8B7489B6F91450B6F9048074
:1084A000B6F90E70B6F920C01B6A121B348954430A
:1084B000E213B6F912401544E40294FBF5F4B6F960
:1084C00002501444A4F57A6E0EFB0EF20EFB05F575
:1084D0000EFB08FEB6F90C80F4611213574302FB41
:1084E00008F2121402EB6E32ED1205EBE7270232AE
:1084F000B6F90050B6F806E0921002F5004207EB1C
:1085000085070EFB02F207FA0CF74FEAD23E02375C
:108510004CF25032A3EBA70742FA0CF37B4355BF52
:108520005B00B3FBFEF3B3FBFEF35B0078B11A1202
:1085300002FB02F540F6DE326A430B4D12145D4336
:1085400002EB254202F6CF6203EB2213036021B156
:108550000A235C43083424110C60BDE8F08100BF9D
:10856000D819002058AE002043E3FFFF024B012240
:1085700083F82420704700BFD81900204FF400630F
:10858000038370474FF4006303837047012380F82F
:1085900044307047F0B4037C456902681F2B2DD925
:1085A000203B2021546899400C4219D010249C4053
:1085B000D160D4605168D940CE0744D4EFF3118321
:1085C000502282F312882A6C1168C90740D5DBB2A9
:1085D00083F31188037C02681F2B194614D9203BB2
:1085E000082150689940084200D0D16004215068A9
:1085F00001FA03F3184223D1F0BC70472024166817
:108600009C4026420FD11946082310688B4018421F
:1086100000D093600423106803FA01F10842EBD004
:108620009160F0BC7047102199409460916011688E
:10863000D940CC07C2D5012101FA03F39360BDE70D
:10864000D360F0BC7047012101FA03F3D360B5E7B2
:10865000516889B2A1B9D5E90964A64203D10122C2
:1086600085F86420B3E7AF692744D760A4B20FD878
:108670002E69341BA4B25460A962002185F86410ED
:10868000116841F00101DBB2116083F31188A1E7A9
:10869000341BA4B25460AE62EFE710B5027C0168EF
:1086A0001F2A4FF020030ED94C68203A93401C42F9
:1086B00008D00C4A406800241470026822F00102BD
:1086C0000260CB6010BD0C6893401C42FAD0054A92
:1086D000406800241470026822F0010202608B607E
:1086E000F0E700BF4C6800204368B0F8502030B479
:1086F0001A83EFF31182502383F312884168456C8B
:108700000B68C46C23EA05032343D2B20B6082F3E7
:108710001188826803691168446AD0E907251A60E4
:10872000826A5D61C56A5C60B0F860409A60002250
:10873000DD60CC62027630BC704700BF024B03EBB9
:108740004010407F704700BF60150010704700BFA9
:10875000F0B5404D44012A19137F03B9F0BD3E4ED8
:108760003E4BDFF804C137781E788C2303FB00C32F
:10877000B74293F802C082F802C04FF000029A702C
:108780001CD0720002EB060C354B13F83CC00CF108
:10879000FF3EBEF1010F08D9BCF1030F0ED106F167
:1087A000010C0CF0030CBC4508D0164403EBC603C7
:1087B0001844417B11B12B1901229A7029532919B0
:1087C000EFF31182902383F312888B782C5B0020C7
:1087D00043EA4403D2B29BB2887082F311882148E5
:1087E0001A0A007882EA13125A40C8B188694968A7
:1087F000D0F8A040D2431B0102F00F029BB201202F
:108800008840134304F1C0015A0013F4004F93B29F
:1088100002D16268024362600C348C42F4D1F0BD34
:108820008C694968D4F8A0401B0110319BB202F05A
:108830000F0201208840134304F1C0015A0013F4D1
:10884000004F93B202D16268024362600C34A142CD
:10885000F4D1F0BD6015001054C20020F2C1002018
:10886000F4C100205015001040480020BCEEC00AA2
:1088700010EE103A99B26BE74369016830B41D6994
:108880009C682A68246822F001022A60A2899D89D6
:1088900022EA0502A281027C1F2A06D9203A08207A
:1088A0004C689040204243D0FEE708200C6890407E
:1088B0002042F9D1202000FA02F28A60224A12787E
:1088C000002A33D01A7E012A37D0D3F8F42001329F
:1088D000C3F8F420EFF31181502282F31288586814
:1088E0005D6C02689C6C22EA05022243C9B20260F8
:1088F00081F31188D3E90C0599681A6909689C6BA2
:108900001060D86B55611D6C546090600024B3F802
:10891000A800D5604C62C86210689C8940F00100D4
:10892000012510601D768B8923438B8130BC7047F5
:10893000202000FA02F2CA60C0E7D3F8F820013222
:10894000C3F8F820F2E700BF501500102DE9F04100
:10895000C40023189B00BA49CA585268958AADB220
:10896000EFB2FE070B4465D4BE073AD5BFF35F8F65
:108970001D7EEDB2012D00F0C480B24E138BBFF30B
:108980005F8F231801EB83031D7E022D00F0D98039
:10899000231801EB83031D7E032D06D19B7E23B19B
:1089A00096F82630002B40F02681938896F925C052
:1089B00043F480639380231801EB83031B7E013310
:1089C00063450CD196F82730002586F82650002BF9
:1089D00040F09080204401EB800000234375BDE807
:1089E000F081984E17F0040F96F925C051D117F079
:1089F000400700F0BB80178A1D6AFFB205F80C70B3
:108A00005FFA8CF56F1C93F818E07BB2DF1CBE4553
:108A100086F825309C4600F01781271801EB870760
:108A20003F7EBB42C7D105F1020C4FFA8CFC86F8A1
:108A300025C0C0E71588834E25F400652D042D0C54
:108A40001580158845F4806515809D7E002786F881
:108A50002570002D40D096F82650002D39D02318CF
:108A600001EB830301251B7E86F82650022B03D1E0
:108A7000138843F400631380231801EB83039B7D69
:108A800043F001031382204401EB8000037EBDE824
:108A9000F0819F7E96F826504FF0010E86F827E071
:108AA000002F60D0002D7DD1231801EB83035B7E66
:108AB000002B00F0A98013880CF1010C4FFA8CFCFC
:108AC00043F4007386F825C013801388DF05FCD4B7
:108AD00071E7DB7DFF2BC2D0231801EB83039D7D63
:108AE00005F0FE051582DB7DFF2BCCD0FF2386F839
:108AF0002530C8E7938823F440731B041B0C938034
:108B000068E79B7E4F4E002B3FF438AF96F8263037
:108B1000002B3FF433AF138823F480631B041B0C3A
:108B20001380BFF35F8F138B138886F8275043F4AD
:108B300000731380938896F925C043F48063938073
:108B400039E79B7E002B3FF423AF96F82630002BAD
:108B50003FF41EAF138896F925C023F480631B04ED
:108B60001B0C138017E0002D9ED0A4E72D067FF587
:108B700022AFBCF1FF3F6ED0DD6915F80C501582B5
:108B80000CF1010C1D7E4FFA8CF39D429C4686F839
:108B900025307FF410AF938823F480631B041B0CF3
:108BA000938008E71F7ED3F820805FFA8CF5AE44EF
:108BB000022F4FFA8EFE17882ED927F480673F04C4
:108BC0003F0C1780178AFFB208F80C701788D3F88B
:108BD00020C047F400731380138ADBB20CF80E3008
:108BE000938805F1020C4FFA8CFC43F4806386F8FD
:108BF00025C0938069E7938896F925C023F48063A4
:108C00001B041B0C9380D6E61388012543F4807364
:108C1000138086F8265058E747F400771780178AA4
:108C2000FFB208F80C70178AD3F8208005F1030C06
:108C30004FFA8CFCFBB286F825C008F80E3044E7EA
:108C400084C10020D8190020978827F480673F044A
:108C50003F0C9780E1E6DD7D15829D7E86F82570CC
:108C60001DB91B7E002B7FF40EAF938823F4806325
:108C70001B041B0C938006E790F84F30042B0CD894
:108C800090F85230012B08D190F8573003F0FB03D5
:108C9000022B0CBF0020072070470020704700BF48
:108CA00008B5838940F2E93300E0A3B10289013BB2
:108CB00012F0020F9BB2F8D089B2818140F2E93301
:108CC00000E043B10289013B12F0010F9BB2F8D0E2
:108CD0008089C0B208BD0AF053F8C0B208BD00BF19
:108CE000F0B5876983B0064617B13B68BA885A83E6
:108CF0007069DFF8A8E08389C3244FF47A734FF0DA
:108D0000060C6D464FF6FF710EF1010E03E0013BBC
:108D10009BB28B4220D002899207F8D5A3B28381FF
:108D20004FF47A7302E0A3B28B4215D00289D207C6
:108D300003F1FF34F7D5828992B20DB12A70013563
:108D4000BCF1000F0BD00CF1FF3CFF24BEF1000F73
:108D5000E1D09EF80040D7E70AF012F8B76917B1E2
:108D60003B68BA881A839DF805009DF801509DF86C
:108D700002109DF803409DF804209DF8063041EA5A
:108D8000052143EA002342EA04220120A6F8441008
:108D9000A6F84620A6F8483003B0F0BDBC0D060882
:108DA00008B53FF0EBFEC0B90D4B93F8292093F8BE
:108DB0002810120242EA014293F82A100A435A602C
:108DC00093F82C2093F82B10120242EA014293F8F8
:108DD0002D100A431A60012008BD0020FCE700BFE7
:108DE000D819002010B504463FF0C8FE38B9062354
:108DF000044AF72120460AF0CFF8012010BD0020D8
:108E0000FCE700BF001A002008B53FF0B7FE68B9C4
:108E1000074A92F82F3092F82E101B0243EA0143C2
:108E200092F830100B43D360012008BD0020FCE70E
:108E3000D819002008B53FF0A1FE68B9074A92F89A
:108E40002F3092F82E101B0243EA014392F83010A3
:108E50000B439360012008BD0020FCE7D8190020D7
:108E600008B53FF08BFED0B90E4B93F8322093F843
:108E70003110120142EA013293F8331042EA111222
:108E80009A6193F8352093F83410120142EA0132C6
:108E900093F8361042EA11121A61012008BD002031
:108EA000FCE700BFD819002010B504463FF066FE6D
:108EB00038B90623044AF72120460AF06DF801204C
:108EC00010BD0020FCE700BF091A002008B53FF0E4
:108ED00055FE98B90A4A92F8383092F837101B02BA
:108EE00043EA014392F839100B430649B1F92010C7
:108EF000C1F10801CB401362012008BD0020FCE74E
:108F0000D819002058AE002010B504463FF036FEB8
:108F100070B9084B1B781BB1074B93F8240030B194
:108F20000323064AF62120460AF036F8012010BD38
:108F30000020FCE77CAE0020D81900200F1A00208A
:108F400008B53FF01BFE48B9054B93F8371093F86E
:108F5000382042EA01229A83012008BD0020FCE764
:108F6000D819002010B504463FF008FE70B9084B30
:108F70001B781BB1074B93F8240030B10223064A3B
:108F8000F62120460AF008F8012010BD0020FCE779
:108F90007CAE0020D81900200F1A00207B22F4217B
:108FA0000AF008B948213FF081BE58213FF07EBE4B
:108FB0003122F4210AF0E0B8064B93F82020064B4A
:108FC00092010021343283F8241002F0FC02F421D3
:108FD0000AF0D2B858AE0020D8190020034B002266
:108FE00083F82420F4212E220AF0C6B8D8190020D4
:108FF00008B5012026F0C2F8174A936803F00C0365
:10900000042B1ED0082B18D151685368490203F075
:109010003F0319D452681148B0FBF3F0C2F3881330
:1090200000FB03F00C4B0E4A5B68C3F301430133B2
:109030005B00B0FBF3F0106008BD094B074A1A60F3
:1090400008BD074B186008BDB0FBF3F05368C3F3CD
:10905000881300FB03F0E5E7003802400024F40029
:109060001CB800202DE9F04F454B1D7885B025B97F
:109070000125284605B0BDE8F08F424B1C6808F07A
:1090800027FC414B009093F82C30002B00F0F38329
:109090003E4A3F4BDFF820A1DFF82091A2FB0424D9
:1090A0006409A3FB0423DB0803EB8303A4EB430362
:1090B000DAB29B000192029354460025354B009A88
:1090C0001B68D31A03D4A26D9342C0F2A5838C23EC
:1090D00003FB05A3A26893F854301768D4F88060A6
:1090E00003F0FF0E002B40F069823168002321F06D
:1090F0000101316033607360B360F3603361264B0C
:1091000021219E42716100F01283244B9E4200F0A7
:109110001283234B9E4200F01383224B9E4200F0A9
:109120006683214B9E4200F06783204B9E4200F0F5
:109130006F831F4B9E4200F074831E4B9E4200F0D3
:1091400087833046039226F039F8039A8C2303FB79
:1091500005A3002183F8541053790C2B00F21C82D4
:10916000DFE813F0DF011A021A021A02A2011A0242
:109170001A021A025C011A021A021A022E0000BF19
:109180005015001008C10020181500101F85EB5164
:10919000CDCCCCCC140000101060024028600240FE
:1091A00040600240586002407060024088600240A7
:1091B000A0600240B8600240404800205C050010FA
:1091C000BB8B23F400631B041B0CBB833B8CB4F8E8
:1091D0006C20B4F86280B4F860E0DFF8C8C223F411
:1091E00080531B041B0C3B84398CB888BB8B21F447
:1091F000005123F4E64309041B04090C42EA080267
:109200001B0C41EA023243EA0E23674592B280B258
:109210009BB200F0B4829F498F4200F0B082A16EF1
:10922000B880BB8339643A84BB8B23F400631B048E
:109230001B0C43F40063BB83D4E90B12A369606B7E
:10924000A76B43F0400319430A431043D4E90F23AB
:1092500007431743402262623B43E76C3068226D4C
:109260008D493B43014013430B433360D4E9113232
:109270007169A06A21F0070113430B43D4E9071277
:1092800073617060B160F260336843F01003336063
:10929000824B93F82C3001359D4209F15C0904F1B1
:1092A0008C04FFF60BAF7E4900220A60002B3FF4CE
:1092B000DFAEDAF808109AF810400A684879A40777
:1092C00054BF012104218140108C89B220EA0100A1
:1092D0001084108C012B41EA000111843FF4C8AEC8
:1092E000DAF894109AF89C000A684C79810754BF08
:1092F00001210421108CA14089B220EA01001084D0
:10930000108C022B41EA000111843FF4B1AEDAF86F
:1093100020119AF828010A684C79870754BF012167
:109320000421108CA14089B220EA01001084108C25
:10933000032B41EA000111843FF49AAEDAF8AC1134
:109340009AF8B4410A684879A60754BF012104215C
:109350008140108C89B220EA01001084108C042B0B
:1093600041EA000111843FF483AEDAF838129AF82A
:1093700040420A684879A50754BF01210421814071
:10938000108C89B220EA01001084108C052B41EA70
:10939000000111843FF46CAEDAF8C4129AF8CC42A2
:1093A0000A684879A40754BF012104218140108C28
:1093B00089B220EA01001084108C062B41EA0001DA
:1093C00011843FF455AEDAF850139AF858030A683E
:1093D0004C79810754BF01210421108CA14089B22E
:1093E00020EA01001084108C082B41EA000111844E
:1093F0007FF43EAEDAF8DC239AF8E403136851797F
:1094000082074CBF042201228A40198C92B221EAC1
:1094100002011984198C0A431A8429E6BB8B23F0B4
:1094200008031B041B0CBB833B8CB4F86C00B4F822
:109430006280B4F860E0DFF86CC023F480731B0432
:109440001B0C3B843B8CB988BA8B23F400731B0440
:1094500022F073021B0C40EA0800120443EA0023C6
:10946000120C67459BB289B242EA0E0200F06D8190
:109470000848874200F06981A06EB980BA83F8631A
:109480003B84BB8B23F008031B041B0C43F0080335
:10949000BB83D1E6000401403F801CF0181500108A
:1094A00014000010000001403B8BB4F86C20B4F8AD
:1094B0006280B4F860E0DFF894C323F400631B0417
:1094C0001B0C3B833B8C23F010031B041B0C3B84C5
:1094D000398CB8883B8B21F0200123F4E643090442
:1094E0001B04090C42EA08021B0C41EA021143EA80
:1094F0000E23674589B280B29BB200F04881CB4A07
:10950000974200F04481A26EB8803B83BA633984ED
:109510003B8B23F400631B041B0C43F400633B836D
:109520008AE63B8B23F008031B041B0C3B833B8C1C
:10953000B4F86C20B4F86280B4F860E0DFF80CC3D3
:1095400023F001031B041B0C3B843B8CB888398B34
:1095500023F0020321F073011B0409041B0C42EAEF
:109560000802090C674543EA020380B241EA0E0192
:1095700000F02781AD4A974200F02381A26EB880A7
:1095800039837A633B843B8B23F008031B041B0C59
:1095900043F008033B834FE6082B3FF445AF0C2B09
:1095A0003FF414AE002BC2D0082B3FF46AAF0C2B53
:1095B0003FF43AAE002B7FF43FAEE4E77068A18938
:1095C000BB8980B2C0F1160023EA01030728BB81E2
:1095D0007FF68BAD9649D4F888208B6803920133CF
:1095E0008B601646136801210022B4468846164651
:1095F0005CF8047F8842A7EB030B40F22E81142E07
:1096000011DC1BF1080348BF0BF117031B111E44AB
:1096100003F1FF3B01319A4008FA0BFB88424BEA09
:1096200002023B46E4D2152E40F0EA808148C2F3A4
:109630008421C2F3441300EB810100EB830302F0A9
:109640001F0689689F6800EB8606C2F3C43200EBF0
:109650008202B3689268090241EA07171F4347EA8A
:10966000023787EA172383EA131303F00F030F2B44
:1096700040F0C6803B0940F6FF72934200F0F8804C
:10968000C3F308037F0B13FA07F700F0B9807B08D8
:1096900003F5122303F5F8634FF6FF71B3FBF7F7F9
:1096A000BAB28A4200F0AC80614B03EB8501032D16
:1096B0004FF001038A818B7306DC5F4B1B782D2BE7
:1096C00002D15E4B23F8157099F85830019AD9F8F9
:1096D00000009342029B09EB030111D08B68D9F87B
:1096E0000420C31AC9F800300B6BD31A0022C9F842
:1096F00004308A600A63019BD9F8000089F8583069
:109700000130C9F800008B68A268D4F8806017683F
:1097100001338B60BEF1000F7FF4E7ACD9F8043061
:109720000133C9F804300B6B01330B63DDE43D21D9
:1097300043F8081C0AE54FF4746143F8201C05E562
:109740004FF4741143F8381C00E5B4F86E00B4F817
:1097500070E0B4F872C023F4006343EA00234FF6CC
:10976000FF301840B4F8643021F440514EEA0C0C3C
:1097700040EA032341EA0C119BB289B27CE6B4F8BB
:10978000701020F4804040EA811080B247E5B4F8C0
:109790006E20B4F870E0B4F872C021F0800141EAA4
:1097A00002114FF6BF720A40B4F8641020F4406012
:1097B0004EEA0C0C42EA011140EA8C0089B280B2F8
:1097C000A1E6B4F86EE0B4F87020B4F872C023F0EB
:1097D000080343EA0E03B4F864E020F4407023F079
:1097E000040342EA0C0243EA0E031043C6E64FF0BC
:1097F000746143F8501CA9E4114943F8641CA5E4C2
:109800000B4A5368013353605DB34FF0000E5BE7C2
:109810000C4943F87C1C99E40025284605B0BDE8B6
:10982000F08F094943F8941C90E400BF0004014004
:10983000A4080010BC0D0608F5B50020F8B50020FE
:109840003D000020400F002000003D2000000140AE
:109850004FF03D5143F8AC1C78E4C6F115031526D2
:10986000D6E603990648582254F058F9AE462BE73D
:1098700000273A4618E7034A1360FFF7FABB00BF18
:10988000D0080010140000102DE9F047037C026896
:109890001F2B0BD9A3F1200520215468A940214298
:1098A00014BF0121002151B9BDE8F08720211468BF
:1098B0009940214214BF012100210029F4D07B49A5
:1098C0007B4D4968D0F81490DFF8248229608C2100
:1098D00001FB0981774E8C6836782768BEB9D1F8CC
:1098E0008060B1F80CC0346824F001043460B98998
:1098F00021EA0C01B98170490978B9B91F2B00F22E
:10990000A980202101FA03F39360BDE8F087646920
:10991000216821F001012160B98921F480710904D5
:10992000090CB981644909780029E7D08C2303FB2D
:109930000983624AD3F88060336823F001033360FF
:109940000023336096427360B360F36033614FF07D
:1099500021030446736100F08980594B9E4200F058
:109960008980584B9E427CD0574B9E4200F08780A6
:10997000564B9E4200F08880554B9E4200F08880F6
:10998000544B9E4200F08880534B9E4200F08880EA
:10999000304625F013FC8C2303FB0983DFF854A128
:1099A000012283F85420DAF800301BB907F090FF49
:1099B000CAF800003A888C2303FB09F909F1740105
:1099C00042F080034FF0FF323B804144FA62384658
:1099D00025F0EAFC08EB0903D3E90B709A693168BA
:1099E000D3F828C03A430243586BDF6C0243986BAC
:1099F0000243D86B0243186C02433A4337481F6D49
:109A000008403A430243002159623260D3E91127EA
:109A10007069D3F8801020F007003A430243D3E97D
:109A2000077072611622C6F804C0B760F0604A6021
:109A30000A6898689F8900681C4E42F001020A601B
:109A400083893B43838173686B60237C22681F2B6F
:109A50007FF657AFA3F1200120238B40D360BDE8F0
:109A6000F0874FF4741243F8382C94E71C4B3D22D6
:109A70009A6090E74FF4746243F8202C8BE74FF024
:109A8000746243F8502C86E7164A43F8642C82E748
:109A9000154A43F87C2C7EE7144A43F8942C7AE765
:109AA0004FF03D5243F8AC2C75E700BF001000E0CA
:109AB000480000105C1500105015001010600240A6
:109AC00028600240406002405860024070600240DE
:109AD00088600240A0600240B86002403F801CF0F5
:109AE000006002403D000020400F002000003D20AB
:109AF000404800201400001070B5B94AB94B1278E4
:109B00001B789A4240F07681B74B1A79002A00F010
:109B1000D280B64B1978B64B002940F0CD80D86B77
:109B2000B3F840500488B3F8506024F08004240453
:109B3000240C0480C562058845F0800505804162DB
:109B40008489012A44EA06048481A3F8501000F0B5
:109B5000B280586DB3F858500488B3F8686024F0A8
:109B600080042404240C0480C562058845F0800527
:109B7000058041628489022A44EA06048481A3F8AC
:109B8000681000F09880D86EB3F870500488B3F86D
:109B9000806024F080042404240C0480C5620588BD
:109BA00045F08005058041628489032A44EA060461
:109BB0008481A3F880107ED0D3F88400B3F8885055
:109BC0000488B3F8986024F080042404240C0480F2
:109BD000C562058845F08005058041628489042AB4
:109BE00044EA06048481A3F8981064D0D3F89C005A
:109BF000B3F8A0500488B3F8B06024F080042404C3
:109C0000240C0480C562058845F08005058041620A
:109C10008489052A44EA06048481A3F8B0104AD056
:109C2000D3F8B400B3F8B8500488B3F8C86024F08F
:109C300080042404240C0480C562058845F0800556
:109C4000058041628489062A44EA06048481A3F8D7
:109C5000C81030D0D3F8CC00B3F8D0500488B3F893
:109C6000E06024F080042404240C0480C56205888C
:109C700045F08005058041628489072A44EA06048C
:109C80008481A3F8E01016D0D3F8E420B3F8E840BC
:109C90001088B3F8F85020F080000004000C108009
:109CA000D462148844F0800414805162908928435F
:109CB0009081A3F8F81070BD5C6CB3F84810616037
:109CC0002568D86B45F0010540F20D312560A0F8FC
:109CD00048108489012A44F480748481EBD0DC6DBF
:109CE000B3F86050586D6560256845F00105256042
:109CF000A0F848108489022A44F480748481DAD060
:109D00005C6FB3F87850D86E6560256845F0010542
:109D10002560A0F848108489032A44F48074848163
:109D2000C9D0D3F88C40B3F89050D3F88400656064
:109D3000256845F001052560A0F848108489042AAB
:109D400044F480748481B6D0D3F8A440B3F8A8500A
:109D5000D3F89C006560256845F001052560A0F8F2
:109D600048108489052A44F480748481A3D0D3F8F0
:109D7000BC40B3F8C050D3F8B4006560256845F026
:109D800001052560A0F848108489062A44F48074EF
:109D9000848190D0D3F8D440B3F8D850D3F8CC0015
:109DA0006560256845F001052560A0F848108489A4
:109DB000072A44F4807484813FF47DAFD3F8EC200B
:109DC000B3F8F000D3F8E4305060106840F00100C0
:109DD0001060A3F848109A8942F480729A8170BD8D
:109DE00054C20020F2C10020140000105C150010C5
:109DF000D81900203EF0ACFC00287FF485AE70BD81
:109E00002DE9F843204A214B12781B789A4234D12D
:109E10001F4E3368002B15DDDFF880801D4F0024B6
:109E20004546A1463B783BB12B7E012B1ED02A69CB
:109E3000136843F00103136033680134A34205F54E
:109E40008075EFDC07F044FD134BDC689860002C54
:109E50000ADD103303EBC404196898888A89083333
:109E60000243A3428A81F7D1BDE8F88308EB0420BE
:109E700085F8F090FEF738FCD9E73EF069FC002841
:109E8000C6D1BDE8F88300BF54C20020F2C1002053
:109E90005000001050150010140000105400001065
:109EA00070B50D4E3368002B14DD0C4C002504E01A
:109EB0003368AB4204F120040CDD237F0135002B15
:109EC000F6D0217DE06807F043F93368AB4204F136
:109ED0002004F2DC012070BD541500106015001044
:109EE0002DE9F04FB14B1B7885B0EBB9B04E33681C
:109EF000002B15DD0024AF4821460569D0F8A030BD
:109F00002A6822F001022A6003F1C00259600C3372
:109F10009A42FBD133680134A34200F58070ECDC37
:109F2000012005B0BDE8F08FA34B1C6807F0D0FC02
:109F3000A24A9368126BC31A1432B3EB420FC0F2F9
:109F400031819F4A9F4B12789F4903929F4D096828
:109F50000191A3FB04235B09A5FB03259C499D4EAE
:109F60009D4FED08D1E9011B05EB8505A3EB4505E8
:109F70004FF0000CEBB2E646029106EB85054FF080
:109F80000109BC469846019B734540F30581DCF806
:109F90001810DCF804300A69D1F8EC005268D1F8E6
:109FA000E84092B2801A9B00640100F1806203F1E4
:109FB0000853E118393A01EB8212914280F0E080B7
:109FC000E358002B00F06E810B6C002B00F06D81CC
:109FD000D1F88030002B00F06B81D1F8C04001F542
:109FE0008073CCB1044608469A4240F2C980196891
:109FF000002900F04981196C002900F04B81D3F849
:10A000008010002900F04A8103F5807353F8401C4A
:10A010000029E9D1014620469A4240F2B180591AFE
:10A02000A0EBA111452928BF4521002703EB811191
:10A030003C461A46994216D910461A68002A40F042
:10A04000D1801A6C002A40F0F580D3F88020002AD5
:10A0500040F0F38003F5807353F8402C002A40F061
:10A06000EF809942E9D8112F40F28A80C7F1150795
:10A07000002FC0F2FF8000F023817B1E09FA03F35A
:10A0800004FA07F71F43C7F31302544CD00B07F031
:10A090001F07C2F3441104EB870304EB800004EBB9
:10A0A0008101C2F38422D3F88830D0F88800D1F837
:10A0B000881004EB820243EA0033D2F8882043EA96
:10A0C000011343EA022383EA132282EA121202F006
:10A0D0000F020F2A40F0CE80B3F5803F80F0CA8097
:10A0E0001A0940F6FF718A4200F0E580C2F30802C7
:10A0F0005B0B12FA03F300F0BD80590801F5122141
:10A100004FF6FE7201F5F861B1FBF3F1914237D0E1
:10A110004FF6FF7399420BF1010B00F0AD808AB24C
:10A120002B4B03EB8E03BEF1030F9A8183F80E9045
:10A1300005DC039B2D2B02D1294B23F81E1096F82A
:10A140005830306843450CD0AB687268C31A33602E
:10A150002B6BD31A73600023AB602B63306886F8D7
:10A16000588001303060AB680133AB604FF6FF734D
:10A17000994205D17368013373602B6B01332B63F4
:10A180000EF1010EBEF1080F06F15C0605F15C054B
:10A190000CF1200C7FF4F7AE0D4B029AC3F808B017
:10A1A0005A60A3E6002005B0BDE8F08F50150010FE
:10A1B000500000105400001008C1002014000010CE
:10A1C000F5B500201F85EB5154150010CDCCCCCC3B
:10A1D000A40800105C05001060150010BC0D0608F6
:10A1E000F8B500200246403399427FF63CAF9A1AF8
:10A1F00092114748013280FB02A0A0EBE272012AD3
:10A20000B8BF0122501E09FA00F0944004431744DD
:10A2100018460268B2B3026CD2B3D0F880208AB17B
:10A2200000F5807050F8402C6AB18142F1D81A468E
:10A230000346FFE602468033D6E70246C033D3E743
:10A240000246D1E7C0308142F1D9C31A9B11304A8E
:10A25000013382FB03A2A2EBE373012BB8BF0123FE
:10A260005A1E9C4009FA02F21F44034614431A4640
:10A270000346DFE60BF1010B029B013302934FF61D
:10A28000FF715CE74030DEE7014640332046C3E61D
:10A290008030D8E7014680332046BDE60146C03312
:10A2A0002046B9E601F14003B6E601F18003B3E6CA
:10A2B00001F1C003B0E600220BF1010B11462FE7BC
:10A2C000C4F3130304F01F00124CD90BC3F3441260
:10A2D00004EB800004EB810104EB8202C3F38423CE
:10A2E000D0F88800D1F88810D2F8882004EB8303D6
:10A2F00040EA0131D3F8880041EA021343EA00231F
:10A3000083EA132282EA121202F00F02E1E600BF92
:10A3100056555555BC0D060808B5064B186838B19A
:10A3200008F032F9044B9B7813B180F00100C0B201
:10A3300008BD00BF547E0020B447002038B50E4A47
:10A340000E4B14681B68E31A322B0CD80C4DD5F851
:10A35000FC30A34200D338BD0020323407F0B8FEF1
:10A36000C5F8FC4038BD0021084608F0F3F8044B5E
:10A370000022C3F8FC2038BD08C10020247800204A
:10A38000D81900202DE9F047134B1D68ED0A84B061
:10A390001BD0DFF848800026C14604AFD8F8003053
:10A3A000AC196410D3F824A0E10210236A46484691
:10A3B000D0470F2809DD6B4653F8042B013208D132
:10A3C0009F42F9D12546B542E8DCE80204B0BDE879
:10A3D000F087661CF7E700BF3CFB0020E4C20020CA
:10A3E000074A084B10781B78074A834296BFC31A66
:10A3F000C3F180030020126818441044704700BF66
:10A40000C8FD00204CFE0020C0FD00202DE9F04FCB
:10A4100087B04FEA82090491CDE9013000220B4652
:10A42000494453F8040B8B420244FAD1019B059234
:10A43000002B61D0414B1B685B880393059B002B6D
:10A4400048D03F4B3F4E1968029BDDF814B0994449
:10A45000039AB1FBF2FA02FB1A1A0AEB0B039342BE
:10A46000394B1B688CBFA2EB0A0ADA468B424FD9E4
:10A47000336834481B6998473168029C049D5746ED
:10A48000AC4655F8043B30461A468BB1D4F800E090
:10A49000D1F81480BB42714620D2C04755F8042C35
:10A4A00023683168134423600023BF1A45F8043C35
:10A4B00004344C45E4D18B6930469847204B1968E9
:10A4C00051441960019BABEB0A0B002B2DD0BBF163
:10A4D000000FBDD1059807B0BDE8F08F4346E046B8
:10A4E0003A4698472268D8F8003031683A44DF1B72
:10A4F0002260C8F80070DEE7124803681B689847BE
:10A50000002897D1019B0593059807B0BDE8F08F0F
:10A5100005980E490E4AA0EB0B0005900598002304
:10A520000B70137007B0BDE8F08F059BA3EB0B0316
:10A530000593059807B0BDE8F08F00BF9044002058
:10A54000C0FD0020E4C200203CFB0020C8FD00202C
:10A550004CFE002070B5104D104E2B7831788B4298
:10A5600084B016D00E4A03921A4402928CBF0C4655
:10A57000CA1A04A98CBFC3F180020024012341F848
:10A58000102D02A802220194FFF740FF0023337030
:10A590002B7004B070BD00BF4CFE0020C8FD002031
:10A5A000CCFD00200B4B1B682DE9F04115468218AD
:10A5B0009A4204460F4688BF1D1AFFF7CBFF064894
:10A5C00006682146746A2B463A46A446BDE8F04127
:10A5D000604700BF3CFB0020E4C2002070B5194C6E
:10A5E000194D23782978994284B027D0174A0392CD
:10A5F0001A44029234BF0E46CA1A04A934BFC3F1EA
:10A6000080020026002341F8102D02A802220196A4
:10A61000FFF7FCFE23781844C0B203062B7848BF2E
:10A6200080F080008342207002D0002004B070BD12
:10A63000002301202B70237004B070BD012004B0F2
:10A6400070BD00BF4CFE0020C8FD0020CCFD0020E6
:10A65000064A074B10781B7883428ABFC3F18003F8
:10A66000C01AC018C0F17F00704700BFC8FD0020AD
:10A670004CFE002008B5044B186800B908BD03481B
:10A6800003681B68984708BD3CFB0020E4C200201B
:10A690002DE9F0411B4D2B681A8842B91A481B4915
:10A6A0001B4A002303700B701360BDE8F081194949
:10A6B00009680029F2DD184FD7F8000101298688C2
:10A6C000448816D0B442E9D8DFF85080464600E00E
:10A6D0002B685968D8F8003001FB04F19B683046BC
:10A6E0009847D7F8003101349B88A4B2A342EFD237
:10A6F000D4E7711C091B9142E4D108480368DB6868
:10A700009847CBE790440020C8FD00204CFE002075
:10A71000C0FD00200CC30020D8190020E4C2002096
:10A7200038B504460D4600BF806807F0C3FE2946D1
:10A730006068FEF7B5FAA06807F0C2FE00BF38BD3A
:10A740000348036813B19B6A03B118470148704777
:10A75000E4C20020BC79060838B50F4D0F4C002329
:10A760002B603EF093FDC4F80001FFF7E9FF0C4AAF
:10A77000D4F8003110606BB159889A884368521A36
:10A7800002FB03332B60FFF7FDFD0446FFF7E2FEFB
:10A79000044B1C6038BD00BF3CFB0020D8190020D2
:10A7A00090440020C0FD00202DE9F047A84FA94AA1
:10A7B0007B6812881C88A84E24F040042404240CD2
:10A7C0001C801D8825F038052D04B34204468A46B6
:10A7D0004FEA154500F0D881A0498B4200F0D481A2
:10A7E000B2F5807FA8BF4FF48072022AB8BF022260
:10A7F000002A92FAA2F2B2FA82F208BF4FF0FF32B8
:10A80000013A45EAC20292B21A801988BA6841F048
:10A810004001198012B1116892884A83904A99893F
:10A820000121117040F2E93202E0002A00F0AE810D
:10A830001989013A11F0020F92B2F6D000229A81E2
:10A8400040F2E93202E0002A00F0A0811989013AC1
:10A8500011F0010F92B2F6D09A899A8940F2E9324A
:10A8600002E0002A00F0AB811989013A11F0020FD1
:10A8700092B2F6D000229A8140F2E93202E0002A38
:10A8800000F09D811989013A11F0010F92B2F6D0C2
:10A890009A899A8940F2E93202E0002A00F08A811E
:10A8A0001989013A11F0020F92B2F6D009229A8169
:10A8B00040F2E93202E0002A00F07C811989013A75
:10A8C00011F0010F92B2F6D09A899A8940F2E932DA
:10A8D00002E0002A00F069811989013A11F0020FA3
:10A8E00092B2F6D0A4B29C8140F2E93202E0002A92
:10A8F00000F05B811989013A11F0010F92B2F6D094
:10A900009A89584E0AF1FF3A00254FF00A094FF094
:10A910000B089A8940F2E93202E0002A00F01A811D
:10A920001989013A11F0020F92B2F6D0A3F80C90F7
:10A9300040F2E93202E0002A00F00C811989013A64
:10A9400011F0010F92B2F6D09A899A8940F2E93259
:10A9500002E0002A00F003811989013A11F0020F88
:10A9600092B2F6D0AAB29A8140F2E93202E0002A0D
:10A9700000F0F5801989013A11F0010F92B2F6D07A
:10A980009A899A891AF8014F40F2E93202E0002AC6
:10A9900000F0EA801989013A11F0020F92B2F6D064
:10A9A000A3F80C8040F2E93202E0002A00F0DC80DB
:10A9B0001989013A11F0010F92B2F6D09A899A8959
:10A9C00040F2E93202E0002A00F0BF801989013A22
:10A9D00011F0020F92B2F6D0A4B29C8140F2E9329B
:10A9E00002E0002A00F0B1801989013A11F0010F4C
:10A9F00092B2F6D09A89326832B111689288486969
:10AA0000024214BF4A830A830135362D81D19A89C7
:10AA100040F2E93202E0002A00F0C2801989013ACE
:10AA200011F0020F92B2F6D008229A8140F2E93278
:10AA300002E0002A00F0B4801989013A11F0010FF8
:10AA400092B2F6D09A899A8940F2E9320FE000BFBB
:10AA5000B8B50020EC0C002000380040003C00405D
:10AA600027680020D4C00020002A00F094801989B3
:10AA7000013A11F0020F92B2F6D0A0229A8140F270
:10AA8000E93202E0002A00F086801989013A11F0CB
:10AA9000010F92B2F6D09A89A02500249A8940F23B
:10AAA000E93201E0002A6AD01989013A11F0020F57
:10AAB00092B2F7D09D8140F2E93201E0002A5ED0E7
:10AAC0001989013A11F0010F92B2F7D09A899A8947
:10AAD00040F2E93201E0002A4BD01989013A11F025
:10AAE000020F92B2F7D09C8140F2E93201E0002AD5
:10AAF0003FD01989013A11F0010F92B2F7D098892D
:10AB0000C0B28206CAD4BA6812B1116892880A83A8
:10AB10001A882D4922F040021204120C1A801A8859
:10AB200022F0380212048B424FEA124205D001F59E
:10AB300080618B4218BF42F008021A801A8842F0E6
:10AB400040021A800120BDE8F087184608F018F985
:10AB50007B6850E7184608F013F97B68F5E618465D
:10AB600008F00EF97B680CE7184608F009F97B68D5
:10AB700025E7184608F004F97B68C0B2C1E718461B
:10AB800008F0FEF87B68A2E7520829E6184608F0AC
:10AB9000F7F87B6861E6184608F0F2F87B687BE717
:10ABA000184608F0EDF87B684DE7184608F0E8F81D
:10ABB0007B68A6E6184608F0E3F87B6885E6184649
:10ABC00008F0DEF87B6864E6003800400388174A26
:10ABD00023F040031B041B0C0380038823F038037D
:10ABE0001B0490424FEA13431DD002F5806290424D
:10ABF00019D0B1F5807FA8BF4FF480710229B8BF8A
:10AC00000221002991FAA1F1B1FA81F108BF4FF0B8
:10AC1000FF31013943EAC10189B20180038843F061
:10AC20004003038070474908E3E700BF0038004055
:10AC300038B54FF4807105464068FFF7C7FF8022A2
:10AC40006B21284608F060F90624962006F0BEFE27
:10AC5000F521284608F0B6F8682805D0013C14F024
:10AC6000FF04F2D1002038BD8C21284608F0AAF854
:10AC70001428F7D3182802D954380628F2D803200C
:10AC8000F1E770B590F855300546A3B31E09013EB3
:10AC9000032E03F00F0300F28380424A32F816209D
:10ACA00042FA03F414F0010410D001209840013856
:10ACB000104051F08DFF3C4B9C5D20443B4C14EB0D
:10ACC000C00403D02623A3710023E3712946384B27
:10ACD00041F80C3F20463CF0ADFC64B1A388B3FAC8
:10ACE00083F3C3F11F03012212FA03F303D03149A6
:10ACF0000A6813430B6005F1100468694FF4807112
:10AD0000FFF764FF80226B21204608F0FDF86420E5
:10AD100006F05CFE03226821204608F0F5F8642066
:10AD200006F054FE01226B21204608F0EDF80F20BA
:10AD300006F04CFE18221B21204608F0E5F80F20F3
:10AD400006F044FE18221C21204608F0DDF80F20F2
:10AD500006F03CFE2846FDF78FFF1A2102462046EA
:10AD600008F0D2F80F2006F031FE95F85420192192
:10AD7000204608F0C9F8642006F028FE102237218A
:10AD8000204608F0C1F80F2006F020FE38212046AA
:10AD9000012208F0B9F868690821BDE8704015E79C
:10ADA000002493E7B46E0608BC6E060894B6002033
:10ADB0008D850008003C014038B51C4C94F80431E6
:10ADC000054633B908214068FFF700FF012384F8E6
:10ADD00004314FF480716868FFF7F8FE80226B2120
:10ADE000284608F091F81524962006F0EFFDF5218D
:10ADF000284607F0E7FF982816D007D812280FD06A
:10AE0000013C14F0FF04EFD1204638BDAC2809D036
:10AE1000AF28F5D1092408216868FFF7D7FEF3E7CA
:10AE20000824F8E70724F6E70B24F4E7D8190020F4
:10AE300030B5214D6B6883B09A8940F2E93200E069
:10AE40006AB31C89013A14F0020F92B2F8D080B2B2
:10AE5000988140F2E93200E00AB31889013A10F013
:10AE6000010F92B2F8D09A899A8940F2E93200E053
:10AE7000E2B11889013A10F0020F92B2F8D089B20B
:10AE8000998140F2E93200E082B11989013A11F06A
:10AE9000010F92B2F8D09889C0B203B030BD184605
:10AEA000019107F06DFF6B680199DDE7184607F027
:10AEB00067FFC0B203B030BDB8B50020F8B58489D3
:10AEC0004FF6FF764FF47A7433B319B30F7801312C
:10AED00001E0B44218D00589013CAD07A4B2F8D511
:10AEE000BCB284814FF47A7402E0BCB2B4420BD09D
:10AEF0000589ED0704F1FF37F7D58589ADB20AB1B1
:10AF000015700132013BDFE707F03AFF003018BF50
:10AF10000120F8BDFF27DEE70120F8BD30B5437EF4
:10AF200083B004461BB90120637603B030BD05230E
:10AF3000ADF80430056A00BFA86807F0BBFA6A469E
:10AF400001A902236868FFF7B9FFA86807F0B8FAFB
:10AF500000BF9DF8013003F0010383F00100637628
:10AF600003B030BD38B50446074D04E02B68E269F4
:10AF70009B1A002B06DA2046FFF7D0FF0028F5D0F9
:10AF80000023E36138BD00BF08C10020F0B5077E93
:10AF900083B004464FF0030C0020009016461D4677
:10AFA0008DF804008DF800C0002F30D00B0E8DF806
:10AFB00001300DF102030F0C0A0A997020461F7030
:10AFC0005A70FFF7CFFF00B3236A00BF986807F0FD
:10AFD00071FA237E226A002B14BF052304236946DD
:10AFE00050680022FFF76AFF236A32460021586842
:10AFF0002B46FFF763FF236A986807F061FA00BFEA
:10B00000044B1B6806332846E36103B0F0BD0DF125
:10B010000103D0E708C10020F0B5077E436983B083
:10B0200004464FF0020C002000900E4615468DF8A5
:10B0300004008DF800C0002F37D01A0E8DF80120C3
:10B040000DEB0C021F0C190A9370517017702046FB
:10B05000FFF788FF0621206AFFF762FB0123637672
:10B06000236A00BF986807F025FA237E226A002B26
:10B0700014BF05230423694650680022FFF71EFF12
:10B08000236A3146002258682B46FFF717FF236AD0
:10B09000986807F015FA00BF054B626919682A44E1
:10B0A00006316261E16103B0F0BD0DF10102C9E753
:10B0B00008C1002010B4144641611A4621465DF8CB
:10B0C000044BA9E710B50446FFF74CFF206A0621A0
:10B0D000FFF726FB01236376206AC721FFF720FBD9
:10B0E000034B1B6803F543435033E36110BD00BFBE
:10B0F00008C1002070B5027E82B000230446D8202B
:10B1000000938DF804308DF800007AB30B0E8DF8A3
:10B1100001300DF102030A0A0D0C99701D705A706E
:10B120002046FFF71FFF0621206AFFF7F9FA237E6A
:10B13000256A002B4FF0010314BF05260426637611
:10B1400000BFA86807F0B6F9334669460022686870
:10B15000FFF7B4FEA86807F0B3F900BF054B1B6802
:10B1600003F59C530833E36102B070BD0DF1010398
:10B17000D1E700BF08C1002030B40F4C0F4B24783A
:10B18000C4EB0415147803EB451394B11D2810DCAF
:10B190001E2515FB0105191A1D31681E294403449B
:10B1A00001E08B4205D003F8014F12F8014F002C4B
:10B1B000F7D130BC704700BFA0620020F4B100207E
:10B1C0002DE9F04FDFF8F4A2B549DAF80400B54BE9
:10B1D000028809781B88B44CB44D22F04002120456
:10B1E000120C0280028822F03802C1EB0111120415
:10B1F000A04283B005EB41194FEA124200F0E8810A
:10B20000AB49884200F0E481B3F5807FA8BF4FF4DA
:10B210008073022BB8BF0223002B93FAA3F3B3FA77
:10B2200083F308BF4FF0FF33013B42EAC3039BB2F5
:10B2300003800388DAF8082043F04003038012B14A
:10B24000136892885A83838940F2E93302E0002B25
:10B2500000F031820289013B12F0020F9BB2F6D05E
:10B260000523838140F2E93302E0002B00F02382C2
:10B270000289013B12F0010F9BB2F6D083898389CA
:10B2800040F2E93302E0002B00F010820289013B1A
:10B2900012F0020F9BB2F6D00023838140F2E93313
:10B2A00002E0002B00F002820289013B12F0010F44
:10B2B0009BB2F6D08389838940F2E93302E0002B08
:10B2C00000F01F820289013B12F0020F9BB2F6D000
:10B2D0000623838140F2E93302E0002B00F0118263
:10B2E0000289013B12F0010F9BB2F6D0838983895A
:10B2F00040F2E93302E0002B00F0FE810289013BBD
:10B3000012F0020F9BB2F6D00023838140F2E933A2
:10B3100002E0002B00F0F0810289013B12F0010FE6
:10B320009BB2F6D083898389624B93F8054140F242
:10B33000E93344F0010402E0002B00F0D8810289D7
:10B34000013B12F0020F9BB2F6D00423838140F23E
:10B35000E93302E0002B00F0CA810289013B12F0C0
:10B36000010F9BB2F6D08389838940F2E93302E072
:10B37000002B00F0B7810289013B12F0020F9BB253
:10B38000F6D0A4B2848140F2E93302E0002B00F051
:10B39000A9810289013B12F0010F9BB2F6D083898B
:10B3A000DFF81CB1BBF80060002E58D0424909F10B
:10B3B000FF380F4600260725202218F8014FFF2CE2
:10B3C00000F00881B0F80CC040F2E93302E0002B35
:10B3D00000F03381B0F808E003F1FF3C1EF0020FEB
:10B3E0001FFA8CF3F3D0858140F2E93302E0002BA1
:10B3F00000F02381B0F808E003F1FF3C1EF0010FDC
:10B400001FFA8CF3F3D0B0F80CC0B0F80CC040F2C7
:10B41000E93302E0002B00F01981B0F808E003F1F5
:10B42000FF3C1EF0020F1FFA8CF3F3D0A4B284810C
:10B4300040F2E93402E0002C00F00881B0F808C0C6
:10B44000013C1CF0010FA4B2F5D0848998F80040AB
:10B4500007F8014BBBF800C07C1AA445ADDC82891B
:10B4600040F2E93202E0002A00F037810189013A16
:10B4700011F0020F92B2F6D00722828140F2E93237
:10B4800002E0002A00F029810189013A11F0010F40
:10B4900092B2F6D08289828940F2E93215E000BF8B
:10B4A000A0620020EC0C002000380040F4B1002025
:10B4B000003C0040D8190020E01A0020B8B5002058
:10B4C000EC0B0020002A00F003810189013A11F001
:10B4D000020F92B2F6D0FF22828140F2E93202E0FE
:10B4E000002A00F0F5800189013A11F0010F92B2B3
:10B4F000F6D08289854B828993F8054140F2E93282
:10B5000002E0002A00F0DF800189013A11F0020F09
:10B5100092B2F6D00422828140F2E93202E0002A9F
:10B5200000F0D1800189013A11F0010F92B2F6D0FA
:10B530008289828940F2E93202E0002A00F0C0806C
:10B540000189013A11F0020F92B2F6D0A4B28481BF
:10B5500040F2E93202E0002A00F0B2800189013AAB
:10B5600011F0010F92B2F6D0828966B1BBF80020CB
:10B570004AB109F1FF39002419F8015FFF2D6ED09F
:10B580000134A242F8DCDAF8083013B11A689B885B
:10B590001383DAF804205E49138823F040031B0468
:10B5A0001B0C1380138823F038031B048A424FEAD4
:10B5B000134305D001F580618A4218BF43F00803A8
:10B5C0001380138843F04003138003B0BDE8F08F6D
:10B5D0005B0819E6848940F2E93401E0002C5CD074
:10B5E0000689013C16F0020FA4B2F7D0858140F223
:10B5F000E93401E0002C50D00689013C16F0010F1F
:10B60000A4B2F7D08489848940F2E93401E0002CA7
:10B6100039D00689013C16F0020FA4B2F7D082811E
:10B6200040F2E93400E074B30689013C16F0010FE2
:10B63000A4B2F8D08489012608E7CDE9001207F00A
:10B640009FFBDAF80400DDE90012DEE6CDE9001226
:10B6500007F096FBDAF80400DDE90012F6E6C4F321
:10B6600007210520FFF7E4FBE1B20620FFF7E0FB2E
:10B6700029460720FFF7DCFBBBF800200134944289
:10B68000FFF67AAF7FE7CDE90012012607F078FBDD
:10B69000DAF80400DDE90012D8E6CDE9001207F07F
:10B6A0006FFBDAF80400DDE90012ACE707F068FB95
:10B6B000DAF80400FFE507F063FBDAF80400DEE5E2
:10B6C00007F05EFB51E707F05BFBDAF8040030E7B8
:10B6D00007F056FBDAF804000CE707F051FBDAF844
:10B6E0000400D8E607F04CFBDAF8040058E607F04F
:10B6F00047FBDAF8040037E607F042FBDAF804000B
:10B7000011E607F03DFBDAF80400F0E5D819002057
:10B71000003800402DE9F047B24CB34F60683988DB
:10B720000388B24D23F040031B041B0C03800288E6
:10B7300022F038021204A8424FEA124204D0AC4B65
:10B74000984201D00B4600E04B08B3F5807FA8BFBC
:10B750004FF48073022BB8BF0223002B93FAA3F39C
:10B76000B3FA83F308BF4FF0FF33013B42EAC30350
:10B770009BB203800388A26843F04003038012B1A8
:10B78000136895885D839B4B1B78012B00F09B8190
:10B79000C0F05581022B00F01481DFF8748298F814
:10B7A000003013F0400F0CBF4FF4C37C4FF4F07C1B
:10B7B0000388914E914DA6F800C023F040031B046E
:10B7C0001B0C0380894BB0F800E04FF0010C98424D
