:020000040800F2
:10000000F0FF0010EDC80508F3D503088DE90008DE
:100010008DC905088DC905088DC9050800000000B7
:10002000000000000000000000000000F1D50308FF
:10003000EFD5030800000000EDD50308F1E9000842
:100040008DC905088DC905088DC905088DC9050824
:100050008DC905088DC90508D1780308FD79030805
:10006000C1790308857903084979030891AE050829
:1000700081AE050871AE050861AE05084DAE0508F4
:1000800039AE050825AE05088DC905088DC90508D6
:100090008DC905088DC905088DC905080D790308A6
:1000A00039A00008D5A50008699F0008A5A600088A
:1000B00015A5000855A4000889A300084BB8050839
:1000C00051B8050841B8050847B805088DC90508A5
:1000D0008DC9050821ED00088DC9050865EC0008EB
:1000E000957803088DC9050839130408999E0008FE
:1000F00009A10008C99D0008E9A1000811AE050882
:100100008DC905088DC90508B9A200088DC9050863
:10011000A9EB0008EDEA0008ED7402087573020807
:10012000FDAD0508E9AD0508D5AD0508C1AD05086B
:10013000ADAD05088DC905088DC905088DC905082F
:100140008DC905088DC905088DC9050829EC030866
:1001500099AD050885AD050871AD050831EA0008BF
:1001600037B805083DB805088DC905088DC90508CB
:100170008DC905088DC905088DC905088DC90508F3
:080180008DC905088DC90508B1
:0801880094C405000100000011
:100190002802040004000000781C0020DC1D002060
:1001A00000000000DDFD000827020400040000003C
:1001B000741C0020E01D002000000000D1FD00089C
:1001C0001A0201003C000000341B0020E41D002046
:1001D0000000000091070108031201003D0000002B
:1001E000241C0020201E0020000000001009000830
:1001F0003810010001000000241A0020601E0020B9
:10020000000000004E090008070201000200000083
:1002100068240020CC2800200000000050090008BD
:100220001D0202000600000034240020D028002017
:100230000000000000000000060203000C000000A7
:10024000502400205830002000000000A1040108C4
:10025000081203000F00000040240020643000203A
:1002600000000000A5FD00082700010004000000B8
:100270007C1F00207430002000000000520900089C
:10028000012001000C0000009C6500206C6C002027
:1002900000000000580900080EF00300CE01000025
:1002A000B4600020786C002000000000F9CF040842
:1002B0001300010004000000306C0020486E002094
:1002C00000000000640900080101010004000000B2
:1002D000F45F00204C6E00200000000000000000D1
:1002E0000001010004000000EC5F0020506E0020BF
:1002F000000000006809000802010100030000007E
:10030000E85F0020546E0020000000004135020824
:10031000220201001C010000F8690020586E002034
:10032000000000005D0601080C20060058020000D5
:10033000A8620020746F0020000000002135020830
:10034000010201000B00000000600020CC710020C1
:100350000000000095FD00081B02010010000000D5
:1003600064680020D871002000000000E1FD000852
:100370001B1001000C00000028510020E871002033
:10038000000000008170010821020100F00000005F
:10039000AC4F0020F471002000000000616F0108E4
:1003A000020001000C00000084730020147400207F
:1003B00000000000000000002902010040000000D1
:1003C000EC72002020740020000000006C0900087E
:1003D0000A020100140000005C770020C87A0020A7
:1003E000000000000D390208F8210100060000009D
:1003F000687A0020DC7A002000000000AC090008C8
:100400000300010001000000747A0020E47A00205B
:1004100000000000000000001010010002000000B9
:1004200028770020E87A002000000000B2090008C8
:1004300025201E002C01000078770020EC7A002097
:1004400000000000000000002C000400100000006C
:1004500098880020888800200000000001DA020847
:100460002B00120024000000CC880020A888002067
:1004700000000000D1D902082920140078000000F3
:10048000D4860020F088002000000000000000005A
:10049000F62101000C00000058850020688900202A
:1004A00000000000B40900081C0202001C0000004B
:1004B000EC840020B889002000000000D50301086A
:1004C000282001001800000008850020D4890020A1
:1004D0000000000065DE02080B3001001A00000079
:1004E000E8980020649E002000000000C009000879
:1004F0001F3001002400000024900020809E002076
:1005000000000000DC0900080502010004000000F2
:10051000B89B0020A49E002000000000000A0008F4
:10052000030101000A0000006C980020A89E002032
:100530000000000081BD0308130201000400000058
:10054000948A0020B49E002000000000040A0008E5
:100550000D100100580000005CC00020A4C900205C
:1005600000000000E9F50108040008008000000018
:100570009CBF0020FCC9002000000000000000001B
:10058000090201000100000044BF00207CCA0020D5
:1005900000000000080A00081820010032000000D6
:1005A000C8BE002080CA0020000000001507010816
:1005B000FB0101000100000088BE0020B4CA002039
:1005C00000000000C9050108FC010100090000004D
:1005D00054BD0020B8CA002000000000D905010861
:1005E000F7010100060000004CBD0020C4CA002035
:1005F000000000000A0A0008F901010004000000E0
:1006000048BD0020CCCA002000000000C9450308F6
:10061000160215003F000000C0A20020D0CA002032
:1006200000000000A50601083400010010000000D1
:1006300074BC002010CB00200000000029D004086A
:1006400011020100080000004CBC002020CB00205B
:1006500000000000100A000812120100040000004F
:1006600044BC002028CB002000000000180A00082D
:100670000A800100280000001CBC00202CCB0020B8
:1006800000000000D5B90208061001001C0000009F
:10069000A4A2002054CB002000000000F5050108B2
:1006A000FD010100210000004CBB002070CB0020A8
:1006B00000000000AF8100081220010011000000BE
:1006C000CCB8002094CB0020000000001C0A0008D9
:1006D000000201000B00000008B60020A8CB00209B
:1006E0000000000000000000FA010100030000000B
:1006F0009CAF0020B4CB00200000000089FD000862
:1007000002020100030000009CA20020B8CB0020E0
:1007100000000000000000000C02010004000000C6
:100720007CA20020BCCB00200000000071FD00086E
:100730001F0208001000000024AF0020C0CB0020E2
:10074000000000001DFD0008FE0101001400000073
:10075000F4AD0020D0CB002000000000EDFC00082C
:100760002312010010000000CCDD0020F4E4002082
:1007700000000000300A000805100100060000001B
:10078000C4DD002004E5002000000000400A00084D
:10079000371001002E000000A0E400200CE500202E
:1007A00000000000460A00080E02010002000000DE
:1007B000C0DD00203CE5002000000000740A0008B5
:1007C0001610010006000000B8DD002040E5002002
:1007D00000000000760A00082F100100220000002F
:1007E000D0E4002048E50020000000007C0A00085A
:1007F0001E00010009000000DCDC00206CE5002088
:10080000000000009E0A0008F58101006800000059
:10081000ECDB002078E5002000000000656E010898
:10082000232001001000000064DD0020E0E500202E
:1008300000000000EDBA0208FD070100760000008C
:1008400004E40020F0E5002000000000E158010869
:10085000261001000E00000078E6002068E6002067
:1008600000000000E9730408140001000400000007
:10087000D0E1002088E6002000000000A80A00085F
:1008800019000100050000005CEC0020A4EC002031
:1008900000000000AC0A00081A0001000E00000071
:1008A00028EB0020ACEC002000000000B20A000899
:1008B000203201000A00000018EA0020BCEC0020F1
:1008C00000000000D9CF04081500100070000000DF
:1008D000ACE70020C8EC0020000000000000000091
:1008E0002A0008006000000090EB002038ED002096
:1008F00000000000B1CF0408100201000100000058
:10090000B4010120B001012000000000C00A00086D
:1009100000000000000000000000000000000000D7
:1009200000000000000000000000000000000000C7
:1009300000000000000000000000000000000000B7
:1009400000000000000000000000000001000000A6
:10095000013C200300000000E8036400040A0001D9
:1009600014001E0008044400900100000000000074
:100970000000000000000000000000000000000077
:100980000000000000000000000000000000000067
:100990000000000000000000000000000000000057
:1009A0000000000000000000000000000101F40150
:1009B0001400000500000000010000000202000019
:1009C000AE014A015E012C01640102000000010039
:1009D0000A019A01001E0A00000200000000000047
:1009E00000010000000500000102030000000000FB
:1009F0000000000000000000000000000080070070
:100A0000000000000000011837003901000000005C
:100A10000000000001010101FFFFFFFF00000001D5
:100A20000000054B54563200000800020000000090
:100A300000000000000000000000000000000000B6
:100A400020000301000020003200C800D0079600FB
:100A50001400320028004C04400600055000140029
:100A60000F00080064000100010005000A000000FA
:100A7000F40196000000C409000019000000000005
:100A80000000000000000000000000000000000066
:100A90000000000000000000000000000000000551
:100AA00001000000000000000300002300002801F6
:100AB00000007E05EA05B4053200E803D007000017
:010AC0000035
:100AC100685E0C0002FF00001A0300000000000035
:100AD1000000000000000000000000000000000015
:100AE100000000000403090412010002000000409C
:100AF10083042057000201020301000021080108BC
:100B010029FE000825FE000821FE00086D080108E5
:100B11001DFE000819FE0008DC1A060809E5030895
:100B21003FB80308EDE303080000000000000000E7
:100B310081DB030891DA03080000000000000000D7
:100B41000000000015B70308C1FE0008B5FE00084B
:100B5100A10D0108BD0D01086DFE0008850D0108FC
:100B6100690D010800000000200000001F000000C6
:100B71001C0000001F0000001E0000001F000000FC
:100B81001E0000001F0000001F0000001E000000EA
:100B91001F0000001E0000001F0000000068214C23
:100BA1007C240608FF010000F4010000FF000000A2
:100BB10000000100E00101FF0100000029650108BA
:100BC1000000000000000000882606080000000068
:100BD1000000000000000000C42C06080000000016
:100BE10000000000000000007C2D0608000000004D
:100BF1000000000000000000282D06080800000089
:100C01000000000000000000819A0108E368002054
:100C11000101FF00FFFFFFFF6DC20108000000009E
:100C210000000000502E0608A9C5010800000000C0
:100C310000000000082E06082D202D2D202D2D2D21
:100C41002D202D2D2D0000000000000000000000CF
:100C51000000000000000000000000000000000093
:100C610000000000C42D0608649B00209CFF2C019D
:100C710000000000A86B0020E0150C170000000028
:100C8100E168002002000000FC2D0608DC5F002066
:100C910088136F1701000000DE5F002088136F17B3
:100CA100000000001EC10020000000000000000044
:100CB1001CC1002000000000000000001AC100203B
:100CC100000000000000000018C10020000000002A
:100CD1000000000016C1002000000000000000001C
:100CE10014C100200000000000000000A40F00203B
:100CF1000000000000000000655F0020030000000C
:100D0100EC2E0608D45F002088136F170100000045
:100D1100AE9B002088136F1700000000F9650108E1
:100D21000000000000000000FC2E0608E268002020
:100D310001000000502F0608B09B002001000000B8
:100D41005C2F0608A69B002002000000642F060805
:100D5100000000000000000000000000702F0608E5
:100D6100E165010800000000000000000C300608E9
:100D710000000000000000000000000060300608D4
:100D8100000000000000000000000000D030060854
:100D9100E05F00200200000008310608AA9B002045
:100DA100E0150C170000000001DD03087FB80308FF
:100DB10095DC03080000000061B703086DE5030836
:100DC100D5DB030841D80308000000000000000043
:100DD10021B70308EDB60308DFB60308C5D603083B
:100DE100E1D60308A9D603088DD6030873D60308F4
:100DF100B7DC03085DB80308D7DB03080000000077
:100E010039B7030843D80308A9DB0308ABD70308A4
:100E110000000000000000002DB703080000FA43A5
:100E21000000FA430000803F0000000000000000C5
:100E31000000000029F90108000000000000000086
:100E410000000000FFFFFFFF00000000B87A002053
:100E51000800000000000000A87A0020080000003F
:100E61000000803F4C7E0020A07E0020D60101FFC3
:100E7100FFFFFFFF0DA901080000000000000000B6
:100E81006451060801000000FA00000001000000A2
:100E9100010000000100000000010101000000004C
:100EA100946500200000F40101000000926500201B
:100EB1000000F40101000000906500200000F40131
:100EC100010000008E6500200000F4010100000017
:100ED1008C6500200000F401010000008A650020FB
:100EE1000000F40101000000886500200000F40109
:100EF10001000000F96C0108BD6C01080000000050
:100F0100E43D060878650020053201008665002071
:100F11006400F40101000000846500206400C4093C
:100F21000100000076650020E803D0070100000001
:100F310074650020E803D0070100000072650020FD
:100F4100E803D00701000000706500201E00B80B07
:100F5100010000007E65002005000F000100000077
:100F61008065002003000A00010000006E6500207A
:100F71001E00F40101000000826500200200000053
:100F8100703E06086C65002014006400010000003A
:100F91007A6500203200E803010000006A65002044
:100FA1000000C80001000000A562002000C8010087
:100FB100A462002000500100A3620020005A010039
:100FC100A1620020020000007C3E06081CB5060854
:100FD10024B50608DAC000200100C40900000000A1
:100FE100D8C000200100C40900000000D6C00020C4
:100FF1000100C40900000000D4C000200100C409A0
:1010010000000000D0C000200100C4090000000061
:10101100D2C000200100C40900000000CEC00020A1
:101021000100C40900000000CCC000200100C40977
:10103100000000001F60002000C801001E600020A9
:1010410000C801001C6000200000FFFF0A00000032
:101051001A6000200100C800010000001860002093
:101061003200307532000000166000200582050054
:101071001460002005002C01050000001360002011
:10108100055A05001060002000FF010012600020D9
:1010910002000000940600200E6000200300000002
:1010A100CC8B06080F60002000FF010011600020BA
:1010B10002000000940600200D60002003000000E3
:1010C100CC8B06084D6C0108DD6B010800000000A7
:1010D100883E0608AC650020EE02CA080100000047
:1010E100AA65002000C8010064000000A965002075
:1010F10000C8010064000000A86500200200000093
:10110100943F0608FA5F00200000803E05000000C1
:10111100F85F002080C1803E05000000F25F0020E2
:101121000083007D05000000F05F002080C1803E4B
:1011310005000000EB5F002000FF0100E45F0020DC
:101141006400F40101000000E25F002004000000DF
:10115100A03F0608E15F002002000000B43F06083E
:10116100A56000200D000000C03F0608A26000201D
:1011710000640100A0600020320010270A00000076
:101181009E6000200D000000C03F06089D60002009
:101191000D000000C03F06089C6000200200000016
:1011A100F83F0608000000000000000000000000F9
:1011B10004400608B26500203E0000003C400608DD
:1011C100B06500200100FF7F01000000AF65002035
:1011D1000200000038410608A7600020030000005B
:1011E10048410608A66000200300000048410608A7
:1011F10092620020000A0100906200200000E803D2
:10120100010000008E6200200000E80301000000E0
:101211008C6200200000E803010000008A620020C7
:101221000000E80301000000826200200000E803E2
:1012310001000000886200200000E80301000000B6
:10124100866200200000E8030100000084620020A3
:1012510000140100A06200200200000058410608AD
:101261009E6200200000F401010000009C62002049
:101271000000F401010000009A6200200000F40166
:1012810001000000986200200000F401010000004C
:10129100966200200000A00F01000000946200206F
:1012A1000000A00F01000000136500201964010077
:1012B100126500200200000064410608106500204C
:1012C100E803D0070A0000000E6500200064010059
:1012D1000A0000000365002000640100026500208F
:1012E100006401000A650020006401000A0000009A
:1012F10009650020006401000A0000000865002063
:10130100006401000A0000000D65002000FF0100DB
:101311000A0000000C65002000FF01000A00000027
:101321000B65002000FF01000A0000000765002096
:1013310001FF01000A0000000665002001FF010015
:101341000A0000000565002001FF01000A000000FD
:10135100B06000200000F40101000000AE60002038
:101361000000A00F01000000AC6000200000A00FF1
:1013710001000000AA6000200000A00F0100000091
:10138100A86000200000A00F010000002B690020D0
:1013910000C801002A6900200064010029690020B9
:1013A1000064010028690020006401002769002011
:1013B1000064010026690020FF0801002569002062
:1013C10001640100556B0108196B01080000000060
:1013D100704106082E690020013201002D690020AC
:1013E10001000000E04106082C6900200400000013
:1013F100E8410608246900200064010022690020F8
:101401001400E8030100000020690020E8033075A2
:101411000A0000001F69002000C801001E690020A9
:1014210000C801001D69002000C801001C690020DE
:101431000032010030690020004B01002F690020BB
:1014410004000000FC4106081B6900200064010043
:101451000A000000486900200000D00701000000D8
:1014610042690020000020030100000040690020C3
:101471000000C800010000003E6900200000C80013
:1014810001000000466900200000D00701000000B3
:101491003C69002000002003010000003A6900209F
:1014A1000000C80001000000386900200000C800E9
:1014B10001000000446900200000D0070100000085
:1014C100366900200000200301000000346900207B
:1014D1000000C80001000000326900200000C800BF
:1014E10001000000316901081969010800000000CC
:1014F1001042060899600020005A010098600020FF
:1015010000C8010096600020E803D0070100000038
:101511000000000000000000C19A0108AC4206086A
:101521004B414B5554454634563200000C60002067
:10153100000301000B600020000301005568010851
:10154100096801080000000000430608C967010896
:1015510081670108000000009C430608A16801089A
:1015610015AE0108000000001C440608FC5F0020C5
:1015710001030100A16D0108756D01080000000063
:101581007447060805670108B966010800000000F4
:10159100E44706084169010865D10108000000001F
:1015A100804806089DAC0108CD6D010800000000CF
:1015B10028490608916901080000000000000000A8
:1015C100B4490608496A0108F169010800000000F0
:1015D100184A0608DD6A0108A16A01080000000036
:1015E100C04A06083DD70108916B010800000000C0
:1015F1004C4B06086865002001060100C969010815
:10160100A169010800000000484C06087BD60108CA
:1016110085AA010800000000B84C060875D701082A
:1016210045AB010800000000084E06086665002071
:101631000100030001000000E9680108B968010820
:1016410000000000DC4E0608CDD7010800000000B4
:1016510000000000404F060851670108F5A8010885
:1016610000000000C04F060800000000000000005C
:10167100000000004C500608B56B0108BDAB010825
:1016810000000000BC500608FFFF0000FFFFFFFF45
:10169100540D0708000008020503030000000000C4
:1016A1005C0D0708010008020504030000000000AA
:1016B10028B406080200FE0101100300000000002A
:1016C10098B806080300140200030000000000009F
:1016D100640D070804001F0202000800000000005A
:1016E1006C0D070805001F02020108000000000040
:1016F1000403090412010002EF020140830456327F
:101701000002010203010000120100020202004076
:101711008304405700020102030100000902200076
:10172100010104C032090400000208065005070542
:101731008102400000070501024000000902640027
:10174100030100C032090400000103000000092167
:10175100110100012236000705830309000A080B65
:101761000102020201000904010001020201000557
:1017710024001001052401000204240202052406AC
:101781000102070582030800FF09040200020A00A2
:10179100000007050102400000070581024000002A
:1017A10009024300020100C03209040000010202E3
:1017B1000100052400100105240100010424020296
:1017C1000524060001070582030800FF0904010042
:1017D100020A00000007050102400000070581021E
:1017E10040000000FF00000000FF000000000000BA
:1017F1000000AA550701000001AA550501000008D3
:10180100C87E0608FF1FFF1F05010905A101A100F0
:10181100050109300931093209330935093409361D
:1018210009371581257F7508950881020509190178
:10183100290815002501950875018102C0C0000025
:1018410009022200010100E0320904000001030144
:101851000200092111010001223600070583030955
:10186100000A000000000000010203040102030459
:1018710006070809A3DD0308A1E203081DDE03082A
:1018810097B7030849B90308A7B70308C3B7030803
:1018910071B7030863B703080000000000000000EF
:1018A1002D202D2D202D2D2D2D202D2D2D2D0000E8
:1018B100000000000000000000000000000000AA7D
:1018C100550B010000AA5505010000AA55090200A7
:1018D1000000AA5503009F0001000000C012000093
:1018E100349E0020000000005C9E002000000000EB
:1018F10008000000000004010000000000000002D8
:1019010010000000070000007D00000000600240A0
:10191100106002400000000000000000000B000009
:101921000000000000000000000000000060024014
:10193100286002400100000000000000060C0000C9
:1019410000000000000000000000000000600240F4
:10195100406002400200000000000000100D000085
:1019610000000000000000000000000000600240D4
:10197100586002400300000000000000160E000045
:1019810000000000000000000000000000600240B4
:10199100706002400400000000000000200F000001
:1019A1000000000000000000000000000060024094
:1019B10088600240050000000000000026100000C1
:1019C1000000000000000000000000000060024074
:1019D100A06002400600000000000000301100007D
:1019E1000000000000000000000000000060024054
:1019F100B86002400700000000000000362F000020
:101A0100000000000000000000000000006402402F
:101A110010640240000000000000000000380000D7
:101A2100000000000000000000000000006402400F
:101A31002864024001000000000000000639000097
:101A410000000000000000000000000000640240EF
:101A5100406402400200000000000000103A000053
:101A610000000000000000000000000000640240CF
:101A7100586402400300000000000000163B000013
:101A810000000000000000000000000000640240AF
:101A9100706402400400000000000000203C0000CF
:101AA100000000000000000000000000006402408F
:101AB1008864024005000000000000002644000088
:101AC100000000000000000000000000006402406F
:101AD100A064024006000000000000003045000044
:101AE100000000000000000000000000006402404F
:101AF100B864024007000000000000003646000004
:101B0100000000000000000000000000DDB6030836
:101B1100DBB60308D9B60308D3B60308D1B6030868
:101B2100D7B60308D5B60308010000000000803FC6
:101B31007EFF0000FFFFFFFF01000000A00F00007B
:101B4100F00D07083418070800000000B13502083D
:101B5100A086010004000000000000000000000059
:101B61000000000000000000000000000000000074
:101B71000000000000000000000000000000000064
:101B8100F00D07089C1807080000000045800008B8
:101B9100E803000004000000000000000000000055
:101BA1000000000000000000000000000000000034
:101BB1000000000000000000000000000000000024
:101BC100F4BA06080000000000000000BD3602085B
:101BD1007D000000FF000000000000000000000088
:101BE10000000000000000000000000000000000F4
:101BF10000000000000000000000000000000000E4
:101C01006C1107080000000000000000894802086C
:101C11007D000000FF000000000000000000000047
:101C210000000000000000000000000000000000B3
:101C310000000000000000000000000000000000A3
:101C4100E4BD06080000000000000000F58D020858
:101C51007D000000FF000000000000000000000007
:101C61000000000000000000000000000000000073
:101C71000000000000000000000000000000000063
:101C810098BB06080000000000000000ED87000876
:101C9100E803000003000000000000000000000055
:101CA1000000000000000000000000000000000033
:101CB1000000000000000000000000000000000023
:101CC100A41807080000000000000000DD5205080C
:101CD10010270000030000000000000000000000C9
:101CE10000000000000000000000000000000000F3
:101CF10000000000000000000000000000000000E3
:101D0100600D070800000000F5D502086DB7000856
:101D11005F760000050000000000000000000000E8
:101D210000000000000000000000000000000000B2
:101D310000000000000000000000000000000000A2
:101D4100041107080000000000000000FDEE00087B
:101D5100102700000100000000000000000000004A
:101D61000000000000000000000000000000000072
:101D71000000000000000000000000000000000062
:101D8100B0180708000000000000000049800008AA
:101D9100E803000005000000000000000000000052
:101DA1000000000000000000000000000000000032
:101DB1000000000000000000000000000000000022
:101DC100BC18070800000000000000006D3B02087D
:101DD100204E000003000000000000000000000091
:101DE10000000000000000000000000000000000F2
:101DF10000000000000000000000000000000000E2
:101E0100CC18070800000000000000004939020852
:101E1100204E000003000000000000000000000050
:101E210000000000000000000000000000000000B1
:101E310000000000000000000000000000000000A1
:101E4100DC1807080000000000000000E98D000810
:101E5100400D03000300000000000000000000002E
:101E61000000000000000000000000000000000071
:101E71000000000000000000000000000000000061
:101E810060A9060800000000000000001DF701081D
:101E91001027000001000000000000000000000009
:101EA1000000000000000000000000000000000031
:101EB1000000000000000000000000000000000021
:101EC100D4A706080000000000000000197C0108EA
:101ED10010270000030000000000000000000000C7
:101EE10000000000000000000000000000000000F1
:101EF10000000000000000000000000000000000E1
:101F0100EC1807080000000000000000B5100308ED
:101F1100A086010001000000000000000000000098
:101F210000000000000000000000000000000000B0
:101F310000000000000000000000000000000000A0
:101F4100FCB90608000000000000000079860008C6
:101F510050C300000100000000000000000000006C
:101F61000000000000000000000000000000000070
:101F71000000000000000000000000000000000060
:101F8100A4B70608000000000000000079820008E4
:101F9100A861000001000000000000000000000036
:101FA1000000000000000000000000000000000030
:101FB1000000000000000000000000000000000020
:101FC100F4180708000000000000000031D20108E9
:101FD100A0860100010000000000000000000000D8
:101FE10000000000000000000000000000000000F0
:101FF10000000000000000000000000000000000E0
:1020010088A90608000000000000000029820008DD
:10201100A00F00000100000000000000000000000F
:1020210000000000000000000000000000000000AF
:10203100000000000000000000000000000000009F
:10204100001907080000000000000000ADCC0108E5
:102051001027000001000000000000000000000047
:10206100000000000000000000000000000000006F
:10207100000000000000000000000000000000005F
:10208100BCC50608000000000000000095C6040859
:102091001A410000010000000000000000000000E3
:1020A100000000000000000000000000000000002F
:1020B100000000000000000000000000000000001F
:1020C10064B706080000000000000000B5BD030869
:1020D10010270000010000000000000000000000C7
:1020E10000000000000000000000000000000000EF
:1020F10000000000000000000000000000000000DF
:10210100401807080000000000000000A5F10208C7
:1021110050C30000010000000000000000000000AA
:1021210000000000000000000000000000000000AE
:10213100000000000000000000000000000000009E
:102141000C190708000000000000000049C5030841
:10215100400D03000000000000000000000000002E
:10216100000000000000000000000000000000006E
:10217100000000000000000000000000000000005E
:102181001419070800000000000000000180000889
:10219100400D0300000000000000000000000000EE
:1021A100000000000000000000000000000000002E
:1021B100000000000000000000000000000000001E
:1021C1001C190708000000000000000019B40108F4
:1021D10050C30000030000000000000000000000E8
:1021E10000000000000000000000000000000000EE
:1021F10000000000000000000000000000000000DE
:10220100281907080000000000000000E18702080B
:1022110040420F000000000000000000000000002C
:1022210000000000000000000000000000000000AD
:10223100000000000000000000000000000000009D
:1022410034190708000000000000000001D901084E
:1022510050C300000000000000000000000000006A
:10226100000000000000000000000000000000006D
:10227100000000000000000000000000000000005D
:10228100B80B00000102FFFF01010100FFFFFFFF8A
:102291000000803F0000000000000000000000007E
:1022A1000000803F0000000000000000000000006E
:1022B100000000000000000000000000000000001D
:1022C10000000000000000000000803F000000004E
:1022D100000000000000000001010000A81900201A
:1022E10000000000000000000000000000000000ED
:1022F10000000000000000000000000000000000DD
:1023010000000000000000000000000000000000CC
:1023110000000000000000000000000000000000BC
:1023210000000000000000000000000000000000AC
:10233100000000000000000000000000000000009C
:082800000000000000000000D0
:108000000C4B1B78DB0700D570470B4A1368002B1D
:10801000FAD04FF47A7101FB03F39842F4D3074B83
:108020001B781BB9064B99681B690B600023136012
:10803000704700BF76980020707700205C770020A2
:108040009C760020704700BF70B50C4C23689BB134
:108050005A68821A002A0FDB0546002603E05A6898
:10806000AA1A002A08DB9A681E73226018461A684A
:1080700090472368002BF2D170BD00BF50770020DD
:10808000436A8269D154436A0169026C01338B42AD
:1080900028BF00234362E2B1EFF31183502282F341
:1080A0001288026C1168C90703D5DBB283F311880B
:1080B0007047516889B270B4F1B9D0E90954A5424A
:1080C0000DD1012280F86420DBB283F3118870BCEB
:1080D0007047026ED36843F08003D36070478669AF
:1080E0002644D660A4B210D805692C1BA4B25460F3
:1080F0008162002180F86410116841F00101DBB257
:10810000116083F3118870BC70472C1BA4B25460BB
:108110008562EEE7034610B4C46BD968406954B178
:108120005A6D8C1A013A005D5DF8044B08BF0A468F
:10813000C0B25A6570471A6A805C01328A4228BF11
:108140002246C0B21A625DF8044B7047036C13B14B
:1081500090F864007047D0E90903181AB0FA80F06B
:1081600040097047D0E909120369914238BFC91824
:108170008A1A016C013B21B1496812FA81F29A42D4
:1081800001D2981A70470020704700BFC36B33B10B
:108190005B68426D9BB29A4205D3D01A7047D0E912
:1081A00007239A42F9D2C0681044C01A70470B4B9B
:1081B00030B503F1180493F900205D78092AC8BF8F
:1081C000143A81180433CD7213F8025C855413F805
:1081D000012C8A759C42EED130BD00BFA407060871
:1081E00003682DE9F0415D6A1DB12B46BDE8F04101
:1081F0001847002A174611DD04460E460F4400E0DA
:1082000023689B68204698470028F9D0236816F811
:10821000011B1B6820469847BE42F1D1BDE8F081A2
:1082200003681B69184700BF38B50F4B1B7803B1B3
:1082300038BD0E4B1B685B05FAD50D4D9FED0D7AD1
:108240002B68C31A07EE903AF8EEE77A0446F4EE8C
:10825000C77AF1EE10FA02DB28F022FB2C602046F0
:10826000BDE8384040F0C6BFB498002020BF0020D1
:10827000081A0020001B374A2DE9F043D64D6C68E0
:108280002DED028B041B46F2A7139C4283B004D849
:1082900003B0BDEC028BBDE8F083D04B68601E6874
:1082A00016F0040140F08E800F4616F0200344D1F2
:1082B0009FEDCB8A9C461846CA4ECB4A367892F838
:1082C000008016F0010672D1B8F1000F00D01670D0
:1082D000AA6901926A69BF1A019AA0EB0208002BF1
:1082E0003ED151B12B7F012B07D8C04B21463846D8
:1082F0001F604EF09FFDBE4B1880BE4B1B780E2BAF
:10830000C6D1DFEDBD7ABA4BBC49188828EE278A62
:108310000022BDEEC88A134618EE104A68F30F0318
:1083200064F30F0267F31F4260F31F43C1E90023A8
:1083300003B0BDEC028BBDE8F083B14B1B7813F0AA
:10834000020300F0F080AF4AAF4E538A9068B6F94E
:1083500000C0002B40F029819FEDA18A0123ABE7EB
:108360002B7F002900F0D480002B40F01A81002ED2
:1083700000F08081F7EE007A37EEC87A07EE907A47
:10838000F8EEE77A67EE877A07EE108AB8EEC77ADA
:10839000E7EE087AFDEEE77A17EE903A934A214627
:1083A000384613604EF046FD914B1880A5E7B8F1B2
:1083B000000F8DD14FF0010EC5E9057082F800E085
:1083C00047468CE7DFF8A482904898F80620078893
:1083D000AB68013AB3FBF2F3002F00F0A9808C499F
:1083E0009FED8C6A0A689FED8C7A9FED8C2ADFEDF9
:1083F0008C2A9FED8C3ADFED8C3ADFED8C8ADFED35
:108400008C0A9FED8C4A9FED8C8A9FED8C0ADFEDE4
:108410008C7ADFED8C1A9FED8C1ADFED8C4A9FED84
:108420008C5ADFED8C5A002A9446B8BF02F1070C33
:10843000A2EBEC021344002B1A46B8BFDA1DD2108F
:1084400006EE902AF8EEE66A0B6066EE866A296907
:1084500016EE902AC2F3160C4CF07E5C06EE10CAA3
:10846000A6EE072AD21507EE102AE6EE022AB8EE8B
:10847000C77AA6EE223A27EE287AE6EE033AF4EE21
:10848000E06AA6EE237AF1EE10FAD4BFF0EE486A65
:10849000F0EE446A37EE267A9FED6F6A9FED6F4AE1
:1084A000E7EE007AB7EE007AF4EEE17AF1EE10FA38
:1084B00088BFF0EE617AF4EEE07AF1EE10FAB8BF20
:1084C000F0EE607AFDEEE77A8B4217EE902AC2F367
:1084D000160C4CF07E5C06EE90CAE6EE814A02F085
:1084E000FF4207EE902AA6EEA45AE6EE855AA6EEC3
:1084F000A56AA7EEC67A67EE047AFDEEE77AC5EDC7
:10850000037A64D0013F002107802B610F46CCE63F
:1085100013F0FD0F7FF4F1AE344A354BC2F8008002
:10852000A3F800C0E9E69FED2E8A9C461846C3E6F4
:1085300007EE903A9FED370ADFED490ADFF83091F8
:10854000F8EE677AB7EE008A27EE800A55F060FBF6
:10855000DFED427A38EE400A20EE270A55F0B2F8F5
:10856000B8F80830DFED3F6A07EE103AEB68C01A42
:10857000B8EEC77A07EE900AA7EE668AB8EEE70A69
:10858000D9ED0D7AF8EEE77A20EE080A67EEA67AC2
:10859000A7EE270A55F096F801210746C9F83400DE
:1085A00083E6022B7FF49FAEB6E707EE903ADFED4D
:1085B000126A9FED2D7AF8EEE77A86EEA78AB4EE7E
:1085C000C78AF1EE10FA88BFB0EE478AC6E60023EC
:1085D000194603801F4668E6081A00200490002010
:1085E0009A99993E7698002008680020B49D002052
:1085F0001A9900208DA200200000C84290A20020FD
:10860000C898002044C00020CC650020966500205A
:108610008801002008942537DACDFE3CB9D593BEF9
:108620005CB8903FAA841DC022E061401872313FBF
:108630000000000007F1B3C2000080FF64890C4A0B
:1086400000007E4E0000FF4EED185E3C81900FBB97
:10865000AF9D2A3EB2D19F3EE886023FD048874A6E
:10866000B1DC423E6F12833A6666663F78E60020D0
:1086700034AF0020434691E6534B1B685B0700D4A0
:1086800070472DE9F04F514D514C2A782379372A04
:1086900008BF504A83B008BF1380042B76D8DFE8A8
:1086A00003F06D635B4F03004B4FFB6A38469847FE
:1086B000002849D0494E3B6B06F1200106F1240009
:1086C0009847474BD6F808809879D6E90AA2D6E9A8
:1086D000083B0AF10109511C814508BF4FF0000910
:1086E0000329C7F83CB0BB635DD03E48F16296F801
:1086F000301040F822B000295DD1584606EB8A0AB6
:1087000006EB8902CAF83400397CD2F834C02A78E2
:10871000C6F828900029A8EB0C080CBF05210221FF
:108720004044372AB060217104D12A4A5380A2F80C
:1087300004B0D0807B8A002B42D103B0BDE8F08F1B
:108740002548836A984748BB4FF47A73264A1268D3
:10875000136103B0BDE8F08F1F4D6B6A2846984740
:108760000322AB8A2271E6E71B48036A9847002878
:10877000EAD0022323714FF47A73E7E71648C369FE
:1087800098470028E0D001232371DDE7124DAB6943
:108790002846984700226B8A2271CCE70423237174
:1087A0004FF47A73D2E70F4A0121C2F808B00022D1
:1087B00086F83010F26201933CF092FF019B9DE736
:1087C0000A2BB8BF0A23C1E7049000208DA2002025
:1087D0008801002090A2002034AF0020081A002059
:1087E00078E6002024BF00207C1700102DE9F04718
:1087F000CF4C2DED028BA36820469847002800F04F
:10880000D480CC4B1B780122042B84F85C2000F030
:10881000D080B4F91A3006EE903AB4F91C3007EE65
:10882000103AB4F91E3007EE903AF8EEE66AB8EE68
:10883000C77AF8EEE77AC4ED146A84ED157AC4EDD0
:10884000167ABD4B1B88002B60D0BC4B94ED142ACC
:10885000D4ED152A94ED163A93ED008AD3ED054A2E
:1088600093ED090AD3ED0E3AD3ED120A93ED174AB0
:1088700093ED011A93ED065AD3ED0A1A93ED0F6AA0
:10888000D3ED137A93ED187AD3ED045AD3ED0D6A34
:10889000E8EE024AE0EE223AA3EE204AA1EE025AA6
:1088A000A1EEA26AA3EE277A93ED038AD3ED167A9E
:1088B00093ED020AD3ED0C0A93ED0B1AD3ED151AC2
:1088C000C4ED144A65EEE45AA8EE645A66EEE36A13
:1088D000D3ED144A83ED055A67EEC47AE0EE025AEE
:1088E000A0EEE36AE1EE226AA4EE617AE3EE247A76
:1088F000C3ED065AC4ED153A83ED0E6AC3ED0F6A57
:1089000083ED177AC3ED187A84ED164A94F8221095
:1089100009296BD08A4828F03FF88A4E8A4D328860
:10892000D5F8F430002A40F02581884A12685007B3
:1089300000F1BF80B3F9022094ED146A94ED167A29
:1089400094ED155A824905EE902AB3F90420B3F943
:10895000003007EE902A06EE903AF8EEE55A7D4B8D
:108960000A68D3ED013A93ED004AD3ED024AF8EEDE
:10897000E66AF8EEE77A75EE655A76EE666A77EEA5
:10898000677AC4ED155A34EE266A73EEA55A34EEB2
:10899000A77A0132C3ED015AC4ED146A83ED006A6F
:1089A000C4ED167A83ED027A0A60BDEC028BBDE855
:1089B000F087B4F91A00B4F91C10B4F91E20664B04
:1089C00007EE900AF8EEE76A07EE901AB8EEE77A3B
:1089D00007EE902AF8EEE77AC4ED146A1880598001
:1089E0009A8084ED157AC4ED167A2AE794ED157A0B
:1089F000D4ED0D6AD4ED0E7A94ED0F2AD4ED145A0D
:108A0000D4ED0A2A94ED0B3AD4ED0C3A94ED166AA3
:108A100094ED104AD4ED114A94ED125A4F4B67EE83
:108A2000266A67EE277A27EE027AE5EEA26A1B78BD
:108A3000E5EE837AA5EEA37AE6EE046AE6EE247A02
:108A4000A6EE057AC4ED146AC4ED157A84ED167AA3
:108A5000002B7FF462AF424B93ED046AD3ED035ACF
:108A600093ED052A93ED013AD3ED002AD3ED023AB6
:108A700093ED064AD3ED074A93ED085A27EE866A2E
:108A800067EEA55A67EE827AA6EE836AE6EEA25AF0
:108A9000E6EEA37AF0EE466AE7EE045AE7EE246AC1
:108AA000E7EE057AC4ED145AC4ED156AC4ED167AE2
:108AB00033E7B5F80421322A00F0E680002A40F0BE
:108AC0000C8195F82221002A3FF434AFD5F81C011F
:108AD000244ED5F81411D5F81821278B86FB00EC0D
:108AE000C017C0EB2C10C01B86FB01C786FB02C65B
:108AF000C917D217C1EB2711C2EB26121A4E1980E3
:108B000098805A80DFF864C000230222B381F38189
:108B1000012785F822318CF80E20778109F0ACFF0F
:108B200009F024F8384616F0E7FED5F8F43001E7EE
:108B3000B80A00108DA20020C2850020C485002044
:108B4000080B001098650020081A002020BF0020A4
:108B500010EC002014EC002090A200205C05002006
:108B6000348500201F85EB5164DD0020CCB8002047
:108B700000000000B2F5C87F18BFD5ED3E7A94ED35
:108B8000147A0CBF5FED067AF8EEE77A4FF0000C2E
:108B9000002077EE877AC4F850C018803788FDEE41
:108BA000E77AB7F5C87F17EE902AC5ED3E7A58D020
:108BB000D5ED3F7A94ED156AD4ED166AC4F854C029
:108BC000B8EEE77AD5ED407A5880F8EEE77A37EEDE
:108BD000067A77EEA67ABDEEC77AFDEEE77A012F28
:108BE000C4F858C017EE108A17EE901A85ED3F7A38
:108BF000C5ED407A988031D1DFF8E0C1B4F818E0D3
:108C0000C8318CFB01A9C832C91708F1C808C1EBEB
:108C1000E9118CFB02A9D2178CFB08ACC2EBE91955
:108C20004FEAE878674AA3F80090A1EB0E01C8EB81
:108C3000EC18DFF8ACC19980A3F802800223908180
:108C4000D08157818CF80E3009F016FF08F08EFFA6
:108C5000384616F051FE3788D5F8F430013F37809A
:108C600063E694ED157AD4ED167AC4F854C0BDEEDF
:108C7000C77AFDEEE77A588085ED3F7AC4F858C090
:108C8000C5ED407A9880E9E7D4ED146A94ED157A41
:108C9000D4ED167A4B491E68C968C5F80861FDEE27
:108CA000E66ABDEEC77AFDEEE77AB3F90460C5F86F
:108CB000101100200021A5F80C61C5ED456A206562
:108CC000198085ED467A60655980A065C5ED477AC3
:108CD0009980013AA5F80421F3E6D5ED457A94EDA3
:108CE000145AD4ED155A94ED166AF8EEE76AD5EDEC
:108CF000467AB8EEE77AD5ED477AF8EEE77A76EE7F
:108D0000856A37EE257A77EE867AFDEEE66ABDEE65
:108D1000C77AFDEEE77A00200021012AC5ED456AF9
:108D20002065198085ED467A60655980A065C5ED9E
:108D3000477A9980CDD1244885F82011016885F8BB
:108D40002121890332D4214E002031460F780B2F88
:108D500001F10C010DD001301928F7D1D5F8081117
:108D600019601849B5F90C61D5F810019E80C860EA
:108D7000AFE7174FD7F800C04100BCF1000F09D092
:108D800001EB000E06EB8E0E9CF801C09EF801E090
:108D9000E645E3D20144DFF84CC00E4806EB8106FD
:108DA00000213E60ACF800100160D7E70A4909785D
:108DB0000329C8D116F054FCD5F8F430B5F80421D5
:108DC000CCE700BF64DD002058850020043C060885
:108DD000648500206C850020D5DC00201F85EB51C8
:108DE000CCB80020688500202DE9F04FA84BA94D94
:108DF0001B7895F80080DB0785B007467BD5A64C2D
:108E0000A64EB8F1010F52D01DD3B8F1020F06D112
:108E1000A34AA44B12881B889A4200F28280E37B0B
:108E2000002B2DD0A3895BB39F4B1B7843B31FF05E
:108E300019FB002800F0F380237C83422CBF012221
:108E4000002232701DE0994B954A1B88617C128884
:108E50005B1A9A42964A3CDC9649E37D1268D1F847
:108E6000241103EB8303521A03EB8303B2EB830F4A
:108E7000D5DBE37B4FF0010885F80080002BD1D1D2
:108E80003278217A632907D88B48B8F1020F03782A
:108E900000F08780002B70D18849A37B904538BFB4
:108EA000904681F80080CBB905B0BDE8F08F7D4BCE
:108EB0007B4A1B88617C12885B1A9A4237DD7B4BA8
:108EC0001B88934238BF4FF00008794A38BF85F8B5
:108ED0000080784B1268C3F82421A0E7B8F1010F95
:108EE00000F09780B8F1020FDED1072005B0BDE891
:108EF000F04F16F0D1BB6A49674C0A88A8F103030A
:108F0000012B54D94B88D31A002BB8BF5B42142BCA
:108F100005DCE38893421ED8218891421BD35F4E23
:108F20006FE7634A634B1268C3F82421A1E7604AE4
:108F30006049237E1268D1F8241103EB8303521A8F
:108F400003EB8303B2EB830FFFF669AF4FF0020828
:108F500085F8008063E7B2EB430F504E3FF751AF07
:108F60000323514851494F4A33702B70002303703B
:108F70000B8013804FF0030851E74368504DFB1AF4
:108F8000AB42C8BF417087DCC1F164014D4D03FBAA
:108F900001F385FB0351DB17A3EBA153643343704B
:108FA0007AE7002BE9D1012547600570ECE7E388FB
:108FB000934225D82088904222D34B88374ED31A2B
:108FC000002BB8BF5B42142B3FF729AF237D002055
:108FD0003070287033B3344A80461370A188334A06
:108FE000B4F802C02F489BB211FB03F111801CFBA7
:108FF00003F3314A0380642100235170536000E77A
:10900000B2EB430FD9DCB8F1030F7FF47BAF234EF3
:10901000B0E7082005B0BDE8F04F16F03DBB0222D6
:1090200032702EE7284B21881B68B2FBF1F1013129
:10903000082993F98120DFF87080A8BF0821CBB2FE
:109040008A4288F800306CD0002A6AD01F4ADFF8C4
:1090500080E092F800A00AF10102AEFB029C4FEA08
:109060005C0C0CEB4C0CA2EB0C0CD445624658D0BB
:10907000DFF860B09A2000FB0CB999F9819089451E
:1090800055D0CDE901E003934FF0FF3028E000BF59
:109090007698002038DF0020E898002039DF002093
:1090A000CC980020107A0020D49800200E7A00205E
:1090B000A0AD0020081A0020147A0020D5DC002082
:1090C0007F9698006BCA5F6BB4C00020CCB80020BC
:1090D000ABAAAAAAB46000209EF98190894523D04A
:1090E00002F1010E019AA2FB0E32520802EB42027B
:1090F000029BAEEB0202002803FB02BE03DAB9F1C9
:10910000000F08BF604652459446E5D1039B0028F6
:1091100007DBC0B208F082F898F8003095F80080BC
:109120005CE74FF0000859E7039B1046EFE7604605
:10913000EFE700BF038A2DE9F047B0F80C9019EA79
:10914000030928D00E4605464FF000474FF00008AF
:10915000B9FA89F327FA03F2D24391B21B3B09EA29
:1091600002092982042B13D8DFE803F032292017E3
:109170000300736A002B34D1EB6A1FFA83FA346A56
:1091800034B123682046514698476468002CF8D1D2
:10919000B9F1000FDCD1BDE8F0873068696B036876
:1091A00089B29847B9F1000FD2D1F4E77068A96B82
:1091B000036889B29847B9F1000FC9D1EBE7B068ED
:1091C000E96B036889B29847B9F1000FC0D1E2E7B3
:1091D000F068296C036889B29847B9F1000FB7D1DC
:1091E000D9E703F1FF3A1FFA8AFAC6F82480C6E7E6
:1091F000F0B5056E01710446A889A668944F20F465
:1092000000500004000CA88162792B8A10039BB2E5
:1092100023F4405300F40050184312F0040F01F0FF
:1092200001034FEA0222288202F480620CBF002070
:109230004FF48050002B0CBF08230C2342EA00029D
:109240000CBF0020042011F0020FA98908BF0346BB
:109250001A430F403A43AA81AA8A22F440721204A8
:1092600091B0120CAA8201A835F090FC794B9D4276
:1092700005D003F580639D4201D0039B00E0049B71
:10928000AA8911044CBF7100B100734EAA8903EB87
:10929000830303EB8303B3FBF1F1A6FB0130400929
:1092A0006423120403FB10134FEA001000F1A7809F
:1092B0001B013233A6FB0323C3F3431303439BB2C7
:1092C0002B816279236ED70700F1838012F0080F9B
:1092D0009A8A05BF22F00802120442F00802120C1A
:1092E0009A829A8942F400529A812279D60735D51A
:1092F000E26B002A00F0928001A835F0FDF94FF4EE
:109300008070E36D0A904FF4803002930B9000233D
:109310004FF48060626CE1680693CDE90833CDE9D3
:109320000C33CDE90E33049307906369E06B01922F
:109330000393059135F01CFA01A9E06B35F0EDF9C6
:10934000E26B236E116841F001011160998A41F0CE
:10935000400199825168227989B26165950732D5B9
:10936000226C002A55D001A835F0C6F9A36D0293EE
:109370004FF480330B934FF480630025A26C216976
:109380000793206C01924023049305910A9506955A
:10939000CDE90855CDE90C55CDE90E5535F0E8F984
:1093A00001A9206C35F0B9F9226C236E516941F0A6
:1093B00080015161116841F01601116055609A8A6F
:1093C00042F080029A829A8942F400529A8111B046
:1093D000F0BD20498B4235D0A1F548418B422AD0BF
:1093E00001F580618B422FD001F580618B422DD039
:1093F00001F544418B427FF469AF05201CE0DB009E
:1094000003F13202A6FB0223C3F3421242EA000335
:1094100055E7DA6842F08002DA60D4E74FF6DF728F
:109420001A80DA6842F02002DA60DA6842F010024C
:10943000DA60227992E70220012150F0F9F862798E
:10944000236E43E70020F7E70320F5E70420F3E766
:10945000F3E9FFFF001001401F85EB51F0B5056EE9
:1094600081600E46A98921F4005109040446090CC3
:10947000A98162792B8A2779914811039BB223F441
:10948000405301F40051194312F0040F07F0010397
:109490004FEA0222298202F480620CBF00214FF4BD
:1094A0008051002B0BBF08230C234FF0000C4FF012
:1094B000040C0A4317F0020FA98908BF63461A4338
:1094C00008400243AA81AA8A22F44072120491B091
:1094D000120CAA8201A835F059FB7A4B9D4205D0A7
:1094E00003F580639D4201D0039B00E0049BAA89A1
:1094F00011044CBF7100B100734EAA8903EB8303C2
:1095000003EB8303B3FBF1F1A6FB013040096423B5
:10951000120403FB10134FEA001000F1A7801B0197
:109520003233A6FB0323C3F3431303439BB22B81C4
:109530006279236ED70700F1838012F0080F9A8AB0
:1095400005BF22F00802120442F00802120C9A82AF
:109550009A8942F400529A812279D60735D5E26B76
:10956000002A00F0928001A835F0C6F84FF4807010
:10957000E36D0A904FF4803002930B9000234FF478
:109580008060626CE1680693CDE90833CDE90C3365
:10959000CDE90E33049307906369E06B0192039366
:1095A000059135F0E5F801A9E06B35F0B6F8E26B0E
:1095B000236E116841F001011160998A41F0400168
:1095C00099825168227989B26165950732D5226CFA
:1095D000002A55D001A835F08FF8A36D02934FF4FF
:1095E00080330B934FF480630025A26C21690793AD
:1095F000206C01924023049305910A950695CDE9CC
:109600000855CDE90C55CDE90E5535F0B1F801A955
:10961000206C35F082F8226C236E516941F0800194
:109620005161116841F01601116055609A8A42F04B
:1096300080029A829A8942F400529A8111B0F0BD58
:1096400020498B4235D0A1F548418B422AD001F503
:1096500080618B422FD001F580618B422DD001F5C6
:1096600044418B427FF469AF05201CE0DB0003F12D
:109670003202A6FB0223C3F3421242EA000355E77B
:10968000DA6842F08002DA60D4E74FF6DF721A80BF
:10969000DA6842F02002DA60DA6842F01002DA603A
:1096A000227992E7022001214FF0C2FF6279236EF6
:1096B00043E70020F7E70320F5E70420F3E700BFC6
:1096C000F3E9FFFF001001401F85EB51884B8948EB
:1096D0002DE9F04178220124874E1C70002157F0BB
:1096E0000DF8864A8649874D002330460B6013608B
:1096F0001FF0BCF9214620461FF006FA214608203B
:109700001FF002FA6F7A804A804BB2F8542093FB24
:10971000F2F3391C18BF01210A20C6F810321FF0DD
:10972000F3F97B4B1B78002B40F09E8095F80A8064
:1097300018F100014FF00B0018BF01211FF0E4F9F0
:10974000AB7B002B00F08180724C002F40F08A80B0
:1097500018F1000118BF01216F4D0C201FF0D4F942
:109760002B68D80700F19480990705D56B4FB7F89F
:109770004C30002B40F0AC80012107201FF0C4F9D1
:10978000674B092093F828111FF0BEF901210D2025
:109790001FF0BAF921680E20C1F3C0111FF0B4F90F
:1097A00029680F20C1F3C0011FF0AEF9296810200D
:1097B000C1F380011FF0A8F92B685A0756BF216832
:1097C0000121C1F3C01111201FF09EF92168122060
:1097D000C1F340411FF098F921684B0549D4C1F30A
:1097E000004114201FF090F9216811F4802104D069
:1097F0004C4B1968003118BF012115201FF084F966
:1098000021681620C1F3C0611FF07EF901211B20E1
:109810001FF07AF901211C201FF076F90121172091
:109820001FF072F9012118201FF06EF90121192093
:109830001FF06AF93C4B196800314FF01A0018BF4D
:109840000121BDE8F0411FF05FB9EB7B314C002BEB
:109850007FF47BAF216811F480213FF47DAF002FAE
:109860003FF476AF012177E741F28833C6F89032B2
:109870005CE7012113201FF047F92C4B21685B782E
:10988000083B012B9CBF4FF4FA63C6F8D034A6E71F
:10989000274BD3E901320A2AB8BF0A220A2BB8BFE4
:1098A0000A2301210220C6F89020C6F8D030C6F85D
:1098B00010311FF029F9012103201FF025F90121A2
:1098C00004201FF021F91B4A2B68012111704BE77E
:1098D000012105201FF018F901210620B7F84C20BE
:1098E0000A4B93FBF2F3C6F850311FF00DF943E732
:1098F00094060010C006001008120020380700105F
:10990000BC060010E89800205CC0002040420F0018
:10991000FC76002020BF002004900020B80A001030
:10992000081A0020B4B800207069002000BF002091
:109930000C0C0010B8060010074B1B7853B9074BEE
:1099400000F1200250F8041B43F8041B9042F9D1A7
:10995000012070470020704711740020E47300203C
:1099600008B5094B1B78014613B1084B1B7843B966
:109970001522064856F000FF054B012083F8290107
:1099800008BD0020FCE700BF10740020807A002092
:10999000081A002008B5094B1B78014613B1084B83
:1099A0001B7843B90522064856F0E6FE054B012018
:1099B00083F8290108BD0020FCE700BF10740020D7
:1099C000987A0020081A002038B5164C94F86631B1
:1099D000002B154B14BF012200221A700BD0052258
:1099E00004F5A671114856F0C7FE152204F2511174
:1099F0000F4856F0C1FE94F86731002B0D4B14BF91
:109A0000012200221A700CD00B4C0C4A04F12005E4
:109A1000234603CBAB42106051601C4602F10802A2
:109A2000F6D138BD081A002010740020987A002062
:109A3000807A002011740020341B0020E473002081
:109A400038B50C4B1B789BB90B4B0C4C03F1200524
:109A500018685968224603C20833AB421446F7D14E
:109A6000074B012483F86741FFF7AEFF204638BD5E
:109A70000020FCE711740020E4730020341B002058
:109A8000081A002038B50B4C94F8295185B10522ED
:109A9000094904F5A67056F06FFE1522074904F235
:109AA000511056F069FE012384F86631FFF78CFFF0
:109AB000284638BD081A0020987A0020807A0020B5
:109AC000F0B50C2934D8DFE801F08A3333335F3343
:109AD0003333343333330700048C9689B2F802C031
:109AE0001788744D24F480542404240C0484038CBB
:109AF0008488818B23F4005321F4E6411B0409047C
:109B00001B0C46EA0C06090C43EA063341EA07211E
:109B1000A8429BB2A4B289B200F09E8005F5806590
:109B2000A84200F099809268848081830264038453
:109B3000F0BD048C9589B2F802E017885D4E24F4DC
:109B400080742404240C0484038CB0F804C0818B3A
:109B500023F400731B0421F0730145EA0E041B0C6F
:109B6000090443EA0423090CB0429BB21FFA8CF5A6
:109B700041EA07015BD0504CA04258D092688580E2
:109B80008183C2630384F0BD048C9589B2F802E03E
:109B9000B2F800C0474E24F010042404240C0484BE
:109BA000038C8788018B23F0200321F4E6411B04FA
:109BB00009041B0C45EA0E04090C43EA041341EAAC
:109BC0000C21B0429BB2BFB289B25BD03A4CA042EA
:109BD00058D092688780018382630384F0BD048C2F
:109BE0009589B2F802C01788324E24F0010424048B
:109BF000240C0484018C8488038B21F0020123F05F
:109C0000730309041B04090C45EA0C051B0CB04244
:109C100041EA0501A4B243EA070324D0264DA84235
:109C200021D092688480038342630184F0BDD4898B
:109C3000168A578A23F4006343EA04234FF6FF345D
:109C40001C40938825F440553E4344EA032345EAEB
:109C500006149BB2A5B291E7158A24F4804444EA25
:109C60008514A4B25FE7D689158A578A21F00801C6
:109C70003143968824F4407421F004013D4331437C
:109C80002C43CEE7D489168AB2F812C023F08003A1
:109C900043EA04134FF6BF741C40938827F44065D1
:109CA00046EA0C0644EA031345EA86049BB2A7B2CF
:109CB0008FE700BF00000140000401402DE9F0479C
:109CC0004FF40C7200213448344D354E354FDFF8D7
:109CD000E480DFF8E490DFF8E4A056F00FFD324AAC
:109CE0003248DFF8DCC0DFF8DCE002F51C6426E077
:109CF000B3F1804F2FD0B34232D0BB4232D0634554
:109D000032D0734532D0434532D04B4532D05345E3
:109D100032D027498B4232D001F580618B4231D05D
:109D2000A1F598318B4230D001F580618B422ED065
:109D300001F580618B422CD02032944209D0136807
:109D40008342D5D101216B6C20320B4394426B646A
:109D5000F5D1BDE8F08701212B6C0B432B64EBE7B9
:109D60000221F9E70421F7E70821F5E71021F3E7DD
:109D70002021F1E70221E6E74FF48031E3E74FF4D9
:109D80000031E0E74FF48021DDE74021E4E7802166
:109D9000E2E74FF48071DFE768740020003802408A
:109DA0000004004000080040BC0706080000014015
:109DB0000044014000140040000401400040014004
:109DC000000C0040001000402DE9F843304D2B8A74
:109DD000B5F80C8018EA030827D02E4E4FF0004744
:109DE000B8FA88F327FA03F2D24391B21B3B08EA90
:109DF00002082982042B15D8DFE803F0372D231938
:109E00000300D6F82C32002B39D1EB6A1FFA83F904
:109E1000D6F8284234B123682046494698476468FA
:109E2000002CF8D1B8F1000FDAD1BDE8F883D6F8EC
:109E30000802696B036889B29847B8F1000FCFD167
:109E4000F3E7D6F80C02A96B036889B29847B8F11A
:109E5000000FC5D1E9E7D6F81002E96B036889B2B3
:109E60009847B8F1000FBBD1DFE7D6F81402296C90
:109E7000036889B29847B8F1000FB1D1D5E703F173
:109E8000FF3900231FFA89F9C6F82C32C0E700BF5A
:109E900000200040687400202DE9F843304D2B8AE3
:109EA000B5F80C8018EA030827D02E4E4FF0004773
:109EB000B8FA88F327FA03F2D24391B21B3B08EABF
:109EC00002082982042B15D8DFE803F0372D231967
:109ED0000300D6F8DC31002B39D1EB6A1FFA83F985
:109EE000D6F8D84134B1236820464946984764687B
:109EF000002CF8D1B8F1000FDAD1BDE8F883D6F81C
:109F0000B801696B036889B29847B8F1000FCFD1E7
:109F1000F3E7D6F8BC01A96B036889B29847B8F19A
:109F2000000FC5D1E9E7D6F8C001E96B036889B233
:109F30009847B8F1000FBBD1DFE7D6F8C401296C10
:109F4000036889B29847B8F1000FB1D1D5E703F1A2
:109F5000FF3900231FFA89F9C6F8DC31C0E700BFDA
:109F600000180040687400202DE9F843304D2B8A1A
:109F7000B5F80C8018EA030827D02E4E4FF00047A2
:109F8000B8FA88F327FA03F2D24391B21B3B08EAEE
:109F900002082982042B15D8DFE803F0372D231996
:109FA0000300D6F8B431002B39D1EB6A1FFA83F9DC
:109FB000D6F8B04134B123682046494698476468D2
:109FC000002CF8D1B8F1000FDAD1BDE8F883D6F84B
:109FD0009001696B036889B29847B8F1000FCFD13F
:109FE000F3E7D6F89401A96B036889B29847B8F1F2
:109FF000000FC5D1E9E7D6F89801E96B036889B28B
:10A000009847B8F1000FBBD1DFE7D6F89C01296C67
:10A01000036889B29847B8F1000FB1D1D5E703F1D1
:10A02000FF3900231FFA89F9C6F8B431C0E700BF31
:10A0300000480140687400202DE9F843304D2B8A18
:10A04000B5F80C8018EA030827D02E4E4FF00047D1
:10A05000B8FA88F327FA03F2D24391B21B3B08EA1D
:10A0600002082982042B15D8DFE803F0372D2319C5
:10A070000300D6F86431002B39D1EB6A1FFA83F95B
:10A08000D6F8604134B12368204649469847646851
:10A09000002CF8D1B8F1000FDAD1BDE8F883D6F87A
:10A0A0004001696B036889B29847B8F1000FCFD1BE
:10A0B000F3E7D6F84401A96B036889B29847B8F171
:10A0C000000FC5D1E9E7D6F84801E96B036889B20A
:10A0D0009847B8F1000FBBD1DFE7D6F84C01296CE7
:10A0E000036889B29847B8F1000FB1D1D5E703F101
:10A0F000FF3900231FFA89F9C6F86431C0E700BFB1
:10A1000000400140687400202DE9F843324D2B8A4D
:10A11000B5F80C8018EA030827D0304E4FF00047FE
:10A12000B8FA88F327FA03F2D24391B21B3B08EA4C
:10A1300002082982042B15D8DFE803F03B31271DE4
:10A140000300D6F83C31002B3DD1EB6A1FFA83F9AE
:10A15000D6F8384134B123682046494698476468A8
:10A16000002CF8D1B8F1000FDAD11D491D48BDE827
:10A17000F843FEF7DFBFD6F81801696B036889B2B0
:10A180009847B8F1000FCBD1EFE7D6F81C01A96BC7
:10A19000036889B29847B8F1000FC1D1E5E7D6F856
:10A1A0002001E96B036889B29847B8F1000FB7D175
:10A1B000DBE7D6F82401296C036889B29847B8F127
:10A1C000000FADD1D1E703F1FF3900231FFA89F960
:10A1D000C6F83C31BCE700BF0004014068740020B1
:10A1E00048760020001C00402DE9F843304D2B8AB2
:10A1F000B5F80C8018EA030827D02E4E4FF0004720
:10A20000B8FA88F327FA03F2D24391B21B3B08EA6B
:10A2100002082982042B15D8DFE803F0372D231913
:10A220000300D6F83C31002B39D1EB6A1FFA83F9D1
:10A23000D6F8384134B123682046494698476468C7
:10A24000002CF8D1B8F1000FDAD1BDE8F883D6F8C8
:10A250001801696B036889B29847B8F1000FCFD134
:10A26000F3E7D6F81C01A96B036889B29847B8F1E7
:10A27000000FC5D1E9E7D6F82001E96B036889B280
:10A280009847B8F1000FBBD1DFE7D6F82401296C5D
:10A29000036889B29847B8F1000FB1D1D5E703F14F
:10A2A000FF3900231FFA89F9C6F83C31C0E700BF27
:10A2B00000040140687400202DE9F843304D2B8ADA
:10A2C000B5F80C8018EA030827D02E4E4FF000474F
:10A2D000B8FA88F327FA03F2D24391B21B3B08EA9B
:10A2E00002082982042B15D8DFE803F0372D231943
:10A2F0000300D6F8C430002B39D1EB6A1FFA83F97A
:10A30000D6F8C04034B1236820464946984764686F
:10A31000002CF8D1B8F1000FDAD1BDE8F883D6F8F7
:10A32000A000696B036889B29847B8F1000FCFD1DC
:10A33000F3E7D6F8A400A96B036889B29847B8F18F
:10A34000000FC5D1E9E7D6F8A800E96B036889B228
:10A350009847B8F1000FBBD1DFE7D6F8AC00296C05
:10A36000036889B29847B8F1000FB1D1D5E703F17E
:10A37000FF3900231FFA89F9C6F8C430C0E700BFCF
:10A38000000C0040687400202DE9F8432F4D2B8A03
:10A39000B5F80C8018EA030827D02D4E4FF000477F
:10A3A000B8FA88F327FA03F2D24391B21B3B08EACA
:10A3B00002082982042B15D8DFE803F0352B221977
:10A3C0000300D6F89C30002B37D1EB6A1FFA83F9D3
:10A3D000D6F8984034B123682046494698476468C7
:10A3E000002CF8D1B8F1000FDAD1BDE8F883B06FD6
:10A3F000696B036889B29847B8F1000FD0D1F4E7D0
:10A40000F06FA96B036889B29847B8F1000FC7D104
:10A41000EBE7D6F88000E96B036889B29847B8F19A
:10A42000000FBDD1E1E7D6F88400296C036889B23A
:10A430009847B8F1000FB3D1D7E703F1FF390023F4
:10A440001FFA89F9C6F89C30C2E700BF0008004037
:10A45000687400202DE9F8432C4D2B8AB5F80C8048
:10A4600018EA030825D02A4E4FF00047B8FA88F3BF
:10A4700027FA03F2D24391B21B3B08EA0208298271
:10A48000042B13D8DFE803F0322920170300736F81
:10A49000002B34D1EB6A1FFA83F9346F34B123688F
:10A4A0002046494698476468002CF8D1B8F1000F5F
:10A4B000DCD1BDE8F883306D696B036889B29847D9
:10A4C000B8F1000FD2D1F4E7706DA96B036889B2BF
:10A4D0009847B8F1000FC9D1EBE7B06DE96B03689D
:10A4E00089B29847B8F1000FC0D1E2E7F06D296C4E
:10A4F000036889B29847B8F1000FB7D1D9E703F1E3
:10A50000FF3900231FFA89F97367C6E7000400408A
:10A51000687400202DE9F8434FF080452B8AB5F888
:10A520000C8018EA030825D0294E4FF00047B8FAEE
:10A5300088F327FA03F2D24391B21B3B08EA0208E0
:10A540002982042B13D8DFE803F0322920170300F7
:10A55000F36C002B34D1EB6A1FFA83F9B46C34B17D
:10A5600023682046494698476468002CF8D1B8F122
:10A57000000FDCD1BDE8F883B06A696B036889B26B
:10A580009847B8F1000FD2D1F4E7F06AA96B0368DD
:10A5900089B29847B8F1000FC9D1EBE7306BE96B8E
:10A5A000036889B29847B8F1000FC0D1E2E7706B39
:10A5B000296C036889B29847B8F1000FB7D1D9E781
:10A5C00003F1FF3900231FFA89F9F364C6E700BFDE
:10A5D000687400202DE9F8432E4D2B8AB5F80C80C5
:10A5E00018EA030825D02C4E4FF00047B8FA88F33C
:10A5F00027FA03F2D24391B21B3B08EA02082982F0
:10A60000042B13D8DFE803F0362D241B0300736AF4
:10A61000002B38D1EB6A1FFA83F9346A34B123680E
:10A620002046494698476468002CF8D1B8F1000FDD
:10A63000DCD11A491A48BDE8F843FEF77BBD306803
:10A64000696B036889B29847B8F1000FCED1F0E783
:10A650007068A96B036889B29847B8F1000FC5D13B
:10A66000E7E7B068E96B036889B29847B8F1000F73
:10A67000BCD1DEE7F068296C036889B29847B8F16D
:10A68000000FB3D1D5E703F1FF3900231FFA89F991
:10A690007362C2E70000014068740020D07500209A
:10A6A000004401402DE9F8432C4D2B8AB5F80C806D
:10A6B00018EA030825D02A4E4FF00047B8FA88F36D
:10A6C00027FA03F2D24391B21B3B08EA020829821F
:10A6D000042B13D8DFE803F0322920170300736A34
:10A6E000002B34D1EB6A1FFA83F9346A34B1236842
:10A6F0002046494698476468002CF8D1B8F1000F0D
:10A70000DCD1BDE8F8833068696B036889B298478B
:10A71000B8F1000FD2D1F4E77068A96B036889B271
:10A720009847B8F1000FC9D1EBE7B068E96B03684F
:10A7300089B29847B8F1000FC0D1E2E7F068296C00
:10A74000036889B29847B8F1000FB7D1D9E703F190
:10A75000FF3900231FFA89F97362C6E70000014040
:10A7600068740020F0B40568AB0AA3F58013522B7F
:10A770005AD8364CE45C0D2C56D84379B5F80CC049
:10A78000022023FA00F6B04087B2A0003346061933
:10A7900003EB46032E4E00294ED047EA0C0703F187
:10A7A000040C46F8231046F82C20AF8120232827DC
:10A7B00017FB0437F319EFF31181502282F312884B
:10A7C000021906EBC202D2F810C0BCF1000F03D090
:10A7D00046F807C013690433021906EBC202576931
:10A7E00017B11F6053690433021906EBC20297695F
:10A7F00017B11F6093690433021906EBC202D769CF
:10A8000017B11F60D36904330022C9B21A6081F303
:10A810001188044406EBC406336A3BB9AB8923F0C4
:10A8200001031B041B0CAB81F0BC7047AB8943F0E8
:10A830000103AB81F0BC70472CEA070703F1040C5D
:10A84000AF8146F8231046F82C20AFE7843706087E
:10A850006874002010B503687D487E4C013983423E
:10A8600082B0246889B200F0B180A0F58060834294
:10A8700000F0AC8000F58040834200F0828000F55B
:10A88000806083427DD000F58060834279D0188853
:10A890006408B4FBF2F4013CA4B282B2B3F1804F7D
:10A8A0000AD06D48834207D000F58060834203D010
:10A8B00000F58060834202D122F0700292B26748B4
:10A8C000834200F0918000F58060834200F0958023
:10A8D00022F4407200F56C4092B283421A80D96231
:10A8E0001C8540F09380012100221A8699821988E4
:10A8F0005B4841F00101834219804AD0B3F1804F97
:10A9000000F08F80544A934200F08D8002F58062FF
:10A91000934200F08A8002F58062934200F08780C3
:10A9200002F58062934200F0848002F580629342D7
:10A9300000F0818002F5704293427ED002F57052A1
:10A9400093427CD002F5806293427AD002F5806215
:10A95000934278D0A2F59832934276D002F5806285
:10A96000934215D002F58062934208BF0D2210D0A9
:10A9700002A84FF0012340F8043D33F001FE02B07D
:10A9800010BD1888B4FBF2F4013CA4B282B285E792
:10A990000C22344B03EBC20201A892F8DD498DF87A
:10A9A0000440012300228DF805308DF807308DF822
:10A9B000062033F0E5FD1B2C0FD02E2CDFD12A4BC7
:10A9C000019301A833F0DCFD02B010BD1888B4FB80
:10A9D000F2F4013CA4B282B26EE7244B019301A8C9
:10A9E00033F0CEFD02B010BD01201A80D9621C8563
:10A9F00098821A8802431A8084E701201A80D9625B
:10AA00001C8598821A8802431A8077E7104A93427D
:10AA10003FF469AF01229A821A8842F001021A803B
:10AA20006CE70122B5E70222B3E70322B1E7042273
:10AA3000AFE70522ADE70622ABE70722A9E7082228
:10AA4000A7E70922A5E70A22A3E70B22A1E700BF97
:10AA500000040140B4A400200004004000100040A5
:10AA600000000140A40706082C01000119010001A3
:10AA70002C4B98423DD0B0F1804F3CD0A3F57C43A5
:10AA800098423AD003F58063984238D003F580634A
:10AA9000984236D003F58063984234D003F5806342
:10AAA000984234D003F57043984232D003F5705386
:10AAB00098422AD003F5806398422CD003F5806336
:10AAC00098422AD0A3F59833984228D003F58063A2
:10AAD000984207D003F58063984208BF0D2202D048
:10AAE000002070470C22104B03EBC20393F8DC09E3
:10AAF00070470022F7E70122F5E70222F3E703227D
:10AB0000F1E70422EFE70522EDE70822EBE7062252
:10AB1000E9E70722E7E70922E5E70A22E3E70B2254
:10AB2000E1E700BF00000140A4070608800AA0F585
:10AB30008010522808D8054B1B5C0D2B04D8044A02
:10AB4000134493F9480A7047002070478437060879
:10AB5000A407060870B40E4E1024334601250022C7
:10AB600003E001324E2A0BD01C79A04203F12003EE
:10AB7000F7D18D4207D0013201354E2AEDB2F3D123
:10AB8000002070BC704706EB421070BC704700BFDD
:10AB9000BC070608002330B40E4A1D46012403E01A
:10ABA0000133062B0CD0947930EA040402F1200220
:10ABB000F6D1A94207D001330135062BEDB2F2D10F
:10ABC000002030BC7047044A02EB431330BC93F8BA
:10ABD0005C0A7047FC110608A40706082DE9F84333
:10ABE000214C06460F46002514F8010C58B1237875
:10ABF000194643B1FFF7AEFF014620B10068FFF7E9
:10AC000095FFB04222D00135152D04F10304EBD19C
:10AC1000164BD3F80090B9F1000F21DD03F10408C1
:10AC20004146002402E00134A14519D08D6828680E
:10AC3000FFF77CFF864201F58071F4D16B79BB424E
:10AC4000F1D108EB042303F1FC000AE04B79BB428D
:10AC5000D9D1074810F8153000EB45000BB9D7E7FC
:10AC60000448BDE8F88300BFC1A200201400001012
:10AC700000A30020BC1206082DE9F04128B3154EB0
:10AC8000002402E00134152C1FD065002B19F718A1
:10AC9000F35C8342F6D17B78ABB188461946174600
:10ACA000FFF758FF06460068FFF740FF7179FFF78E
:10ACB00095FF03784BB9084B1D4403F814806F705F
:10ACC0003046BDE8F0811B68FFDE00263046BDE857
:10ACD000F08100BFC0A2002000A3002010B40B49E7
:10ACE000002301E0152B0CD003EB430201338C5CF5
:10ACF00084420A44F6D1517818B111B15DF8044B81
:10AD000028E700205DF8044B704700BFC0A2002078
:10AD100008B101B11EE70020704700BF10B40A4916
:10AD2000002301E0152B0AD003EB430201338C5CB6
:10AD300084420A44F6D110465DF8044B7047002067
:10AD40005DF8044B704700BFC0A200209A4AF0B4DF
:10AD500002F5C470994F9A4D012603E008329042E3
:10AD600000F020819379002BF8D1136803F13F4163
:10AD700001F57E01890A795C01F01F044909032964
:10AD800006FA04F400F01481042900F00D81022970
:10AD900002D1696C0C436C649188CC070DD51C689A
:10ADA00024F003041C601C681C60DC6824F00304AD
:10ADB000DC60DC6844F00104DC608C070DD51C68A5
:10ADC00024F00C041C601C681C60DC6824F00C047B
:10ADD000DC60DC6844F00404DC604C070DD51C68C2
:10ADE00024F030041C601C681C60DC6824F0300413
:10ADF000DC60DC6844F01004DC600C070DD51C68D6
:10AE000024F0C0041C601C681C60DC6824F0C004D2
:10AE1000DC60DC6844F04004DC60CC060DD51C68C6
:10AE200024F440741C601C681C60DC6824F44074CA
:10AE3000DC60DC6844F48074DC608C060DD51C6832
:10AE400024F440641C601C681C60DC6824F44064CA
:10AE5000DC60DC6844F48064DC604C060DD51C6862
:10AE600024F440541C601C681C60DC6824F44054CA
:10AE7000DC60DC6844F48054DC600C060DD51C6892
:10AE800024F440441C601C681C60DC6824F44044CA
:10AE9000DC60DC6844F48044DC60CC050DD51C68C3
:10AEA00024F440341C601C681C60DC6824F44034CA
:10AEB000DC60DC6844F48034DC608C050DD51C68F3
:10AEC00024F440241C601C681C60DC6824F44024CA
:10AED000DC60DC6844F48024DC604C050DD51C6823
:10AEE00024F440141C601C681C60DC6824F44014CA
:10AEF000DC60DC6844F48014DC600C050DD51C6853
:10AF000024F440041C601C681C60DC6824F44004C9
:10AF1000DC60DC6844F48004DC60CC040DD51C6883
:10AF200024F040741C601C681C60DC6824F04074D1
:10AF3000DC60DC6844F08074DC608C040DD51C6837
:10AF400024F040641C601C681C60DC6824F04064D1
:10AF5000DC60DC6844F08064DC604C040DD51C6867
:10AF600024F040541C601C681C60DC6824F04054D1
:10AF7000DC60DC6844F08054DC6009047FF5EEAEF0
:10AF8000196821F04041196019681960D96821F0E9
:10AF90004041D960D968083241F080419042D9607F
:10AFA0007FF4E0AEF0BC7047296B0C432C63F3E6F2
:10AFB000296C0C432C64EFE62CA30020307F06089C
:10AFC000003802402DE9F04F85B0CDE90210A94DBF
:10AFD000DFF8C4A2029B013B0293013300F0C98257
:10AFE00036F060FFA44CDFF8B4B2DFF8A8C2A34E7D
:10AFF0004FF4FA7301934FF0100EDCF80430C3F3F2
:10B000000803002B40F08B81EFF31183002B40F0FD
:10B0100086812068AA6823689842FAD133689A42E8
:10B02000F7D8DBF800704FF47A7101FB07F39B1A35
:10B03000B3FBF7F301FB00304FF47A774FF00108D0
:10B04000DCF80430C3F30803002B40F04981EFF330
:10B050001183002B40F044812368A9682268934241
:10B06000FAD132689142F7D8DBF8002007FB02F9E9
:10B07000A9EB0101B1FBF2F107FB03131B1AB3F5B6
:10B080007A7FDDD3019B013B0193B6D17C4E039BBC
:10B0900031787C4F01337868C1F34001DBB2019312
:10B0A0002CF0BAFB31783868C94301F001012CF06B
:10B0B000B3FB019B013BDBB2FF2B019300F0C78187
:10B0C000704B5A6832B11368928859690A4214BFAA
:10B0D0005A831A836B4B1A6832B113689288596984
:10B0E0000A4214BF5A831A83674B1B88002B40F017
:10B0F0009F81664A664B117818682CF08DFBFA2305
:10B100005E484FF0100C9E46624B5B68C3F3080329
:10B11000002B40F06381EFF31183002B40F05E8140
:10B120002168AA6823689942FAD103689A42F7D83D
:10B13000DBF800704FF47A7606FB07F39B1AB3FB3B
:10B14000F7F306FB01314FF47A76524B5B68C3F399
:10B150000803002B40F02281EFF31183002B40F015
:10B160001D812368AF6822689342FAD10268974232
:10B17000F7D8DBF8008006FB08F2D21BB2FBF8F22E
:10B1800006FB03235B1AB3F57A7FDED3BEF1010E13
:10B19000BAD13C4B5A6832B11368928859690A4255
:10B1A00014BF5A831A83374B1A6832B113689288D6
:10B1B00059690A4214BF5A831A83334B1B88002BE8
:10B1C00040F02C81314A324B1178186881F001012E
:10B1D0002CF022FBFA239E462E4B28485B68C3F3D3
:10B1E00008034FF0100C002B5AD1EFF31183002B02
:10B1F00056D12168AA6823689942FAD103689A4215
:10B20000F7D8DBF800704FF47A7606FB07F39B1A49
:10B21000B3FBF7F306FB01314FF47A761D4B5B6805
:10B22000C3F30803002B40F09980EFF31183002B48
:10B2300040F094802368AF6822689342FAD1026894
:10B240009742F7D8DBF8008006FB08F2D21BB2FB6E
:10B25000F8F206FB03235B1AB3F57A7FDED3BEF167
:10B26000010E3FF426AF0B4B5B68C3F30803002BC2
:10B27000BBD015E010E000E0A0AD0020A8AD00209C
:10B280006BAD00206CAD002078AD00207AAD0020C1
:10B290007CAD002000ED00E09CAD0020A4AD0020BE
:10B2A000EFF311838CF31288AE682A68D20303D5BA
:10B2B0000122CAF80020AE68D4F80080DAF8001045
:10B2C000DBB283F31188DBF800704FF47A724144EB
:10B2D00002FB07F39B1BB3FBF7F302FB01319BE778
:10B2E000EFF311818EF31288D5F808902B68DB03F9
:10B2F00044BFCAF80080D5F808902368DAF8002027
:10B30000C9B281F31188DBF80010134407FB01F286
:10B31000A2EB0902B2FBF1F207FB0323AEE6EFF367
:10B3200011838EF31288AF682A68D20303D50122F5
:10B33000CAF80020AF682068DAF80080DBB283F337
:10B340001188DBF800104FF47A72404402FB01F3DD
:10B35000DB1BB3FBF1F302FB00306DE6EFF3118270
:10B360008CF31288D5F808802B68DF0304D50123FD
:10B37000CAF80030D5F808802368DAF80090D2B215
:10B3800082F31188DBF800704B4406FB07F2A2EB56
:10B390000802B2FBF7F206FB03235CE7EFF311822E
:10B3A0008CF31288D5F808802B68DF0304D50123BD
:10B3B000CAF80030D5F808802368DAF80090D2B2D5
:10B3C00082F31188DBF800704B4406FB07F2A2EB16
:10B3D0000802B2FBF7F206FB0323D3E6EFF3118377
:10B3E0008CF31288AE682A68D20303D50122CAF80A
:10B3F0000020AE68D4F80080DAF80010DBB283F3E6
:10B400001188DBF800704FF47A72414402FB07F3B5
:10B410009B1BB3FBF7F302FB013194E6564B5A69D1
:10B42000002A3FF4D7AE196800220A605A74D1E6A8
:10B43000514B5A69002A3FF462AE504A196810888D
:10B440004F4A92FBF0F201200A60587457E6DFF889
:10B4500038C14C4E4FF47A730193DCF80430C3F3D7
:10B4600008034FF0100E002B45D1EFF31183002B92
:10B4700041D12068AA6823689842FAD133689A4279
:10B48000F7D8DBF800704FF47A7101FB07F39B1AD1
:10B49000B3FBF7F301FB00304FF47A774FF001086C
:10B4A000DCF80430C3F30803002B43D1EFF311831E
:10B4B000002B3FD12368A96822689342FAD13268F1
:10B4C0009142F7D8DBF8002007FB02F9A9EB010154
:10B4D000B1FBF2F107FB03131B1AB3F57A7FDFD33D
:10B4E000019B013B01933FF475ADDCF80430C3F3DD
:10B4F0000803002BB9D0EFF311838EF31288AF68E5
:10B500002A68D20303D50122CAF80020AF68206858
:10B51000DAF80080DBB283F31188DBF800104FF417
:10B520007A72404402FB01F3DB1BB3FBF1F302FB35
:10B530000030B1E7EFF311818EF31288D5F808904F
:10B540002B68DB0344BFCAF80080D5F80890236855
:10B55000DAF80020C9B281F31188DBF80010134437
:10B5600007FB01F2A2EB0902B2FBF1F207FB032396
:10B57000B2E705B0BDE8F08F80AD002098AD0020A7
:10B5800020A10700A8AD002000ED00E0484B5B685B
:10B59000C3F308032DE9F04FDBB9EFF31183C3B90F
:10B5A000444C454D454926688A6823689E42FAD135
:10B5B0002B689A42F7D8DFF80CE1DEF800504FF420
:10B5C0007A7101FB05F39B1AB3FBF5F301FB063619
:10B5D00024E0EFF31183102282F3128802F1E022BB
:10B5E000DBB29568116811F4803F35491CBF012416
:10B5F0000C60304C18BF956827680E6883F311887B
:10B60000DFF8C0E0DEF800104FF47A723E4402FB2F
:10B6100001F35B1BB3FBF1F302FB0636DFF890800E
:10B62000264DDFF89C90244F4FF0100A4FF47A7C9F
:10B63000D8F80430C3F30803CBB9EFF31183B3B9DF
:10B640002368A96822689342FAD13A689142F7D8F0
:10B65000DEF800200CFB02FBABEB0101B1FBF2F1C9
:10B660000CFB03139B1B8342E2D3BDE8F08FEFF387
:10B6700011818AF31288D5F808B02B68DB0304D552
:10B680000123C9F80030D5F808B02368D9F80020A4
:10B69000C9B281F31188DEF8001013440CFB01F2EB
:10B6A000A2EB0B02B2FBF1F20CFB0323DAE700BFC3
:10B6B00000ED00E0A0AD0020A8AD002010E000E00B
:10B6C0009CAD0020A4AD0020224B5B68C3F30803AF
:10B6D00030B4D3B9EFF31183BBB91F4A1F4D2048D3
:10B6E0001368846811688B42FAD129688C42F7D8B4
:10B6F0001C4A11684FF47A7202FB01F0001B30BC47
:10B70000B0FBF1F002FB03007047EFF3118210234E
:10B7100083F3128803F1E023D2B29C68196811F414
:10B72000803F11491EBF012008609C680A4B1868C1
:10B730000B6882F311880B4A11684FF47A72034444
:10B7400002FB01F0001B30BCB0FBF1F002FB030078
:10B75000704700BF00ED00E0A0AD0020A8AD0020C4
:10B7600010E000E0A4AD00209CAD00202DE9F04FDA
:10B77000BA4DDFF86CB36B692DED068B82469FB036
