:020000040800F2
:10000000F0FF0010D59D0508E36D03086D5C010845
:10001000759E0508759E0508759E05080000000080
:10002000000000000000000000000000E16D030877
:10003000DF6D030800000000DD6D030819AD000846
:10004000759E0508759E0508759E0508759E050830
:10005000759E0508759E050801BC00082DBD0008A9
:10006000F1BC0008B5BC000879BC0008FD8C05088F
:10007000ED8C0508DD8C0508CD8C0508B98C0508CC
:10008000A58C0508918C0508759E0508759E0508C8
:10009000759E0508759E0508759E05083DBC0008FF
:1000A000D16301086D69010801630108496A01080B
:1000B000AD680108ED67010821670108759E050814
:1000C000759E0508759E0508759E0508759E0508B0
:1000D000759E0508C9AE0008759E050811AE00089A
:1000E000C5BB0008759E050861B4030831620108AC
:1000F000A164010861610108816501087D8C050822
:10010000759E0508759E050851660108759E0508CF
:10011000759E0508759E050895B702081DB602086C
:10012000698C0508558C0508418C05082D8C05083F
:10013000198C0508759E0508759E0508759E0508AD
:10014000759E0508759E0508759E050819840308A7
:10015000058C0508F18B0508DD8B050859AD0008F5
:10016000759E0508759E0508759E0508759E05080F
:10017000759E0508759E0508759E0508759E0508FF
:08018000759E0508759E050837
:080188007C9905000100000054
:100190002802040004000000E8190020EC190020E7
:1001A00000000000450B02082702040004000000C4
:1001B000E4190020F019002000000000390B0208AB
:1001C0001A0201003C000000E81D0020841F0020EE
:1001D0000000000011130208031201003D0000009E
:1001E000701D0020C01F002000000000B0080008A3
:1001F0003810010001000000001A0020002000203B
:1002000000000000EE080008F62101000C000000CC
:10021000843000206431002000000000F008000855
:100220001C0202001C0000000C310020B431002030
:1002300000000000CD0D02081400010004000000C1
:1002400058300020D031002000000000FC080008D9
:10025000012001000C0000002C260020D4310020D9
:1002600000000000000900080C20060058020000F1
:100270003C230020E0310020000000003D75020812
:100280000EF00300CE010000482100203834002089
:1002900000000000EDBA0308130001000400000094
:1002A000982D002008360020000000000C090008EE
:1002B0000101010004000000942000200C36002001
:1002C0000000000000000000000101000400000028
:1002D0008C200020103600200000000010090008CB
:1002E00002010100030000008820002014360020D5
:1002F000000000005D750208220201001C010000E0
:10030000802B00201836002000000000DD110208BC
:100310001D02020006000000043D00206041002094
:100320000000000000000000081203000F000000A1
:10033000103D0020E8450020000000000D0B0208E1
:1003400027000100040000004C380020F845002080
:1003500000000000140900080A0201001400000057
:10036000006D00207070002000000000BD7B0208BE
:10037000F8210100060000001070002084700020A9
:10038000000000001809000803000100010000003F
:100390001C7000208C700020000000000000000095
:1003A0001010010002000000F06700209070002093
:1003B000000000001E09000825201E002C0100007E
:1003C0001C6D002094700020000000000000000060
:1003D000020001000C00000054720020E4720020B2
:1003E00000000000000000002902010040000000A1
:1003F000C8710020F07200200000000020090008F1
:10040000FD0701007600000084890020FC8900209F
:1004100000000000118204080B3001001A000000E7
:100420004C830020A48A002000000000600900081E
:100430001F30010024000000887A0020C08A0020BC
:10044000000000007C090008050201000400000013
:1004500020860020E48A002000000000A009000897
:10046000030101000A000000D0820020E88A002079
:1004700000000000295603081302010004000000D8
:1004800054730020F48A002000000000A409000832
:10049000190001000500000064940020A4940020CD
:1004A00000000000A80900081A0001000E0000006A
:1004B00030930020AC94002000000000AE0900083A
:1004C000203201000A00000020920020BC9400208D
:1004D00000000000CDBA03081500100070000000F5
:1004E000B48F0020C894002000000000000000002D
:1004F0002A00080060000000989300203895002032
:1005000000000000A5BA03082C0004001000000041
:10051000A8950020989500200000000079B80308F5
:100520002B00120024000000DC950020B89500206C
:100530000000000049B803082920140078000000DA
:10054000608D0020009600200000000000000000E8
:10055000010201000B000000489F002008AD0020B0
:1005600000000000FD0A02081B020100100000004C
:10057000349F002014AD002000000000490B020849
:100580001B1001000C0000009498002024AD0020F6
:100590000000000071A8040821020100F000000022
:1005A000EC96002030AD002000000000E9A5040812
:1005B0002312010010000000349C002020AE002017
:1005C00000000000BC090008051001000600000042
:1005D0002C9C002030AE002000000000CC09000858
:1005E000371001002E000000A49E002038AE00202D
:1005F00000000000D20900080E0201000200000005
:10060000289C002068AE002000000000000A0008BE
:100610001610010006000000209C00206CAE002097
:1006200000000000020A00082F1001002200000054
:10063000E4AC002074AE002000000000080A0008AE
:100640001E00010009000000449B002098AE00201D
:10065000000000002A0A0008F5810100680000007F
:100660007C960020A4AE00200000000071C90408A0
:100670002320010010000000CC9B00200CAF0020C4
:1006800000000000B18301080D1001004C000000C3
:100690009CCD0020B4D6002000000000E119030822
:1006A0000400080080000000DCCC002000D70020FF
:1006B000000000000000000009020100010000002D
:1006C00084CC002080D7002000000000340A0008FD
:1006D000FD0101002400000028CC002084D7002068
:1006E000000000005F8100081820010032000000B7
:1006F000F0CB0020A8D700200000000095120208CF
:10070000FB01010001000000B0CB0020DCD700207D
:100710000000000049110208FC010100090000006E
:100720007CCA0020E0D70020000000005911020818
:10073000F70101000600000074CA0020ECD7002079
:1007400000000000360A0008F90101000400000062
:1007500070CA0020F4D70020000000000D820008BD
:10076000160215003F00000058B30020F8D7002003
:1007700000000000251202083400010010000000F3
:100780009CC9002038D800200000000001C70308E1
:10079000110201000800000074C9002048D80020A0
:1007A000000000003C0A00081212010004000000D2
:1007B0006CC9002050D8002000000000440A000846
:1007C0000A8001002800000044C9002054D80020FD
:1007D0000000000099820108061001001C000000C2
:1007E0003CB300207CD800200000000075110208F6
:1007F000122001001100000084C8002098D80020B9
:1008000000000000480A0008000201000B00000080
:10081000C0C50020ACD8002000000000000000008F
:10082000FA0101000300000054BF0020B8D80020E6
:1008300000000000F10A02080202010003000000AB
:1008400034B30020BCD800200000000000000000ED
:100850000C02010004000000E4B20020C0D8002017
:1008600000000000D90A02081F0208001000000062
:1008700020BF0020C4D8002000000000B90A0208F0
:10088000FE0101001400000090BE0020D4D800201A
:1008900000000000890A02081002010001000000A7
:1008A000F8FC0020F4FC0020000000005A0A0008B8
:1008B0000000000000000000000000000000000038
:1008C0000000000000000000000000000000000028
:1008D0000000000000000000000000000000000018
:1008E0000000000000000000000000000100000007
:1008F00000000000010000000202000003000023CD
:10090000E8036400040A000114001E000804440007
:1009100090010000200300000101F4011400000513
:1009200000000000000000000000000000000000C7
:1009300000000000000000000000000000000000B7
:1009400000000000000000000000000000000000A7
:100950000000000000000000000000000000000097
:10096000AE014A015E012C01640102000000010099
:100970000A019A01001E0A000002000000000000A7
:10098000000100000005000001020300000000005B
:1009900000000000000000000000000000800700D0
:1009A00000000000000001180000280100007E0582
:1009B000EA05B4053200E803D0070000000000009B
:1009C0000000000000000000000000002000030103
:1009D000000020003200C800D0079600140032004A
:1009E00028004C0440060005500014000F000800C9
:1009F00064000100000005000A000000F4019600F8
:100A00000000C40900001900000000000000000000
:100A100000000000000000000000000000000000D6
:100A200000000000000000000000000501000000C0
:100A30000000000037003901000000000000000045
:100A400001010101FFFFFFFF000000010000054B55
:0B0A50005456310000080002000000B6
:100A5B00FFFF0000FFFFFFFF549F06080000080286
:100A6B0005030300000000005C9F0608010008025C
:100A7B000504030000000000B8D006080200FE01C8
:100A8B000110030000000000649F0608030014021D
:100A9B0000030000000000006C9F060804001F020A
:100AAB000200080000000000749F060805001F02EA
:100ABB00020108000000000001000000A00F000070
:100ACB00B80B00000102FFFF01FF00000100000056
:100ADB007579010800000000000000004C0D0608AD
:100AEB0084280020D8280020D60100000000000038
:100AFB000000000000000000942306080000000026
:100B0B0000000000000000004C240608000000005C
:100B1B000000000000000000F823060800000000A1
:100B2B0000000000B1A90108C52A0020FF01010047
:100B3B00BDBF0108000000000000000020250608D2
:100B4B00F1C201080000000000000000D8240608D4
:100B5B002D202D2D202D2D2D2D202D2D2D00000068
:100B6B00000000000000000000000000000000007A
:100B7B00FFFFFFFF35AF0108000000000000000081
:100B8B002423060801000000FA0000000100000009
:100B9B000100000001000000000101010000000045
:100BAB00282600200000F40101000000262600206A
:100BBB000000F40101000000242600200000F401D5
:100BCB0001000000222600200000F40101000000BB
:100BDB00202600200000F401010000001E2600204A
:100BEB000000F401010000001C2600200000F401AD
:100BFB00010000005181010815810108000000006F
:100C0B00B00F06080C260020053201001A26002022
:100C1B006400F40101000000182600206400C409E0
:100C2B00010000000A260020E803D00701000000A5
:100C3B0008260020E803D00701000000062600204C
:100C4B00E803D00701000000042600201E00B80BAB
:100C5B00010000001226002005000F00010000001B
:100C6B001426002003000A000100000002260020C9
:100C7B001E00F401010000001626002002000000F7
:100C8B003C10060800260020140064000100000040
:100C9B000E2600203200E80301000000FE25002094
:100CAB000000C800010000003923002000C801002B
:100CBB00382300200050010037230020005A010088
:100CCB0035230020020000004810060870B3060808
:100CDB0078B306086E9800200100C40900000000DC
:100CEB006C9800200100C409000000006A980020E5
:100CFB000100C40900000000689800200100C4092D
:100D0B0000000000649800200100C40900000000EE
:100D1B00669800200100C4090000000062980020C2
:100D2B000100C40900000000609800200100C40904
:100D3B0000000000B320002000C80100B2200020FA
:100D4B0000C80100B02000200000FFFF0A000000D7
:100D5B00AE2000200100C80001000000AC200020E4
:100D6B003200307532000000AA20002005820500F9
:100D7B00A820002005002C0105000000A620002063
:100D8B00055A0500A320002000FF0100A52000202C
:100D9B000200000004040020A1200020030000003A
:100DAB00A4460608A220002000FF0100A42000207A
:100DBB000200000004040020A0200020030000001B
:100DCB00A4460608A5800108358001080000000034
:100DDB00541006083C260020EE02CA080100000051
:100DEB003A26002000C801006400000039260020CC
:100DFB0000C801006400000038260020020000003B
:100E0B00601106089A2000200000803E05000000BB
:100E1B009820002080C1803E050000009220002019
:100E2B000083007D050000009020002080C1803EE3
:100E3B00050000008B20002000FF01008420002013
:100E4B006400F40101000000822000200400000077
:100E5B006C1106088120002002000000801106089A
:100E6B00392100200D0000008C11060836210020CE
:100E7B000064010034210020320010270A0000001A
:100E8B00322100200D0000008C11060831210020BA
:100E9B000D0000008C11060830210020020000001C
:100EAB00C411060800000000000000000000000054
:100EBB00D0110608422600203E000000081206084A
:100ECB00402600200100FF7F010000003F2600208C
:100EDB0002000000041306083B2100200300000061
:100EEB00141306083A21002003000000141306080F
:100EFB0026230020000A0100242300200000E80321
:100F0B0001000000222300200000E8030100000084
:100F1B00202300200000E803010000001E23002016
:100F2B000000E80301000000162300200000E80386
:100F3B00010000001C2300200000E803010000005A
:100F4B001A2300200000E8030100000018230020F2
:100F5B0000140100342300200200000024130608B3
:100F6B00322300200000F401010000003023002098
:100F7B000000F401010000002E2300200000F4010A
:100F8B00010000002C2300200000F40101000000F0
:100F9B002A2300200000A00F0100000028230020BE
:100FAB000000A00F01000000A7250020196401001C
:100FBB00A62500200200000030130608A4250020FF
:100FCB00E803D0070A000000A225002000640100FE
:100FDB000A000000972500200064010096250020E0
:100FEB00006401009E250020006401000A0000003F
:100FFB009D250020006401000A0000009C250020B4
:10100B00006401000A000000A125002000FF010080
:10101B000A000000A025002000FF01000A000000CC
:10102B009F25002000FF01000A0000009B250020E7
:10103B0001FF01000A0000009A25002001FF0100BA
:10104B000A0000009925002001FF01000A000000A2
:10105B00442100200000F401010000004221002087
:10106B000000A00F01000000402100200000A00F95
:10107B00010000003E2100200000A00F0100000035
:10108B003C2100200000A00F010000000D2B0020D0
:10109B0000C801000C2B0020006401000B2B00206A
:1010AB00006401000A2B002000640100092B0020C2
:1010BB0000640100082B0020FF080100072B002013
:1010CB0001640100AD7F0108717F01080000000081
:1010DB003C130608102B0020013201000F2B0020BF
:1010EB0001000000AC1306080E2B002004000000CA
:1010FB00B4130608062B002000640100042B00200B
:10110B001400E80301000000022B0020E8033075F7
:10111B000A000000012B002000C80100002B00205A
:10112B0000C80100FF2A002000C80100FE2A002091
:10113B0000320100122B0020004B0100112B00206C
:10114B0004000000C8130608FD2A002000640100FB
:10115B000A0000002A2B00200000D007010000002D
:10116B00242B00200000200301000000222B002074
:10117B000000C80001000000202B00200000C80068
:10118B0001000000282B00200000D0070100000008
:10119B001E2B002000002003010000001C2B002050
:1011AB000000C800010000001A2B00200000C8003E
:1011BB0001000000262B00200000D00701000000DA
:1011CB00182B00200000200301000000162B00202C
:1011DB000000C80001000000142B00200000C80014
:1011EB0001000000657D01084D7D01080000000035
:1011FB00DC1306082D210020005A01002C210020B1
:10120B0000C801002A210020E803D00701000000DC
:10121B000000000000000000F1A901087814060886
:10122B004B414B5554454634000000009F20002095
:10123B00000301009E20002000030100897C0108AF
:10124B003D7C010800000000C0140608FD7B01086E
:10125B00B57B0108000000005C150608D57C010871
:10126B0019AF010800000000DC1506089C200020C7
:10127B0001030100DD810108B181010800000000BC
:10128B0034190608397B0108ED7A010800000000CB
:10129B00A4190608757D010841CC01080000000067
:1012AB00401A06083DB3010809820108000000003E
:1012BB00E81A0608C57D01080000000000000000C8
:1012CB00741B0608A17E0108497E0108000000007E
:1012DB00D81B0608357F0108F97E010800000000C5
:1012EB00801C06084D010208E97F01080000000080
:1012FB000C1D0608FC250020010601000D7E0108CF
:10130B00D97D010800000000081E06087F000208B6
:10131B00B5B0010800000000781E06088501020820
:10132B007DB1010800000000C81F0608FA25002047
:10133B0001000300010000001D7D0108ED7C010888
:10134B00000000009C200608E101020800000000DC
:10135B000000000000210608857B010801AF010891
:10136B0000000000802106080000000000000000C3
:10137B00000000000C2206080D800108F9B10108DD
:10138B00000000007C2206080000000000000000A6
:10139B000000000094240608CC8500209CFF2C0143
:1013AB0000000000302D0020E0150C17000000009D
:1013BB00582A002002000000CC2406087C200020C4
:1013CB0088136F17010000007E20002088136F1711
:1013DB00000000002ECE00200000000000000000E6
:1013EB002CCE002000000000000000002ACE0020C0
:1013FB00000000000000000028CE002000000000CC
:10140B000000000026CE00200000000000000000BD
:10141B0024CE00200000000000000000940F0020EC
:10142B00000000000000000004200020030000006A
:10143B00BC2506087420002088136F1701000000DC
:10144B001686002088136F17000000002D7A010804
:10145B000000000000000000CC250608592A0020DF
:10146B00010000002026060818860020010000005D
:10147B002C2606080E8600200200000034260608E3
:10148B0000000000000000000000000040260608DD
:10149B00157A01080000000000000000DC26060899
:1014AB0000000000000000000000000030270608CC
:1014BB00000000000000000000000000A02706084C
:1014CB008020002002000000D8270608128600208A
:1014DB00E0150C17000000001A03000000000000CC
:1014EB0000000000000000000000000000000000F1
:1014FB000000000004030904120100020000004078
:10150B00830420570002010203010000A11302080B
:10151B00910B02088D0B0208890B0208ED130208D0
:10152B00850B0208810B02087C2B0608F97C03084B
:10153B00E7500308DD7B03080000000000000000FB
:10154B0071730308817203080000000000000000A3
:10155B0000000000BD4F0308290C02081D0C0208F7
:10156B00211902083D190208D50B020805190208BA
:10157B00E918020800000000200000001F00000016
:10158B001C0000001F0000001E0000001F000000D8
:10159B001E0000001F0000001F0000001E000000C6
:1015AB001F0000001E0000001F0000000068214CFF
:1015BB001C3506080000FA430000FA430000803F88
:1015CB00000000000000000000000000211D0308C7
:1015DB00000000000000000000000000FFFFFFFF04
:1015EB0000000000607000200800000000000000F8
:1015FB0050700020080000000000803FF1740308C9
:10160B0027510308857403080000000009500308E4
:10161B005D7D0308C57303083170030800000000EB
:10162B0000000000C94F0308954F0308874F0308BC
:10163B00B56E0308D16E0308996E03087D6E03081F
:10164B00636E0308A774030805510308C7730308E7
:10165B0000000000E14F030833700308997303087F
:10166B009B6F03080000000000000000D54F03082B
:10167B000403090412010002EF02014083045632F5
:10168B0000020102030100001201000202020040ED
:10169B0083044057000201020301000009022000ED
:1016AB00010104C0320904000002080650050705B9
:1016BB00810240000007050102400000090264009E
:1016CB00030100C0320904000001030000000921DE
:1016DB00110100012236000705830309000A080BDC
:1016EB0001020202010009040100010202010005CE
:1016FB002400100105240100020424020205240623
:10170B000102070582030800FF09040200020A0018
:10171B0000000705010240000007058102400000A0
:10172B0009024300020100C0320904000001020259
:10173B00010005240010010524010001042402020C
:10174B000524060001070582030800FF09040100B8
:10175B00020A000000070501024000000705810294
:10176B0040000000FF00000000FF00000000000030
:10177B000000AA550701000001AA55050100000849
:10178B00D0410608FF1FFF1F05010905A101A1009C
:10179B000501093009310932093309350934093694
:1017AB0009371581257F75089508810205091901EF
:1017BB00290815002501950875018102C0C000009C
:1017CB0009022200010100E03209040000010301BB
:1017DB0002000921110100012236000705830309CC
:1017EB00000A0000000000000102030401020304D0
:1017FB000607080993750308917A03080D76030809
:10180B003F500308F15103084F5003086B50030876
:10181B00195003080B5003080000000000000000E3
:10182B002D202D2D202D2D2D2D202D2D2D2D00005E
:10183B00000000000000000000000000000000AAF3
:10184B00550B010000AA5505010000AA550902001D
:10185B000000AA5503009F0001000000C012000009
:10186B00748A0020000000009C8A00200000000009
:10187B0000A00608ACD2060800000000CD750208D7
:10188B00A086010004000000000000000000000022
:10189B00000000000000000000000000000000003D
:1018AB00000000000000000000000000000000002D
:1018BB0000A00608B4D20608000000009DF1000845
:1018CB00E80300000400000000000000000000001E
:1018DB0000000000000000000000000000000000FD
:1018EB0000000000000000000000000000000000ED
:1018FB00289F06080000000000000000D9760208AF
:10190B007D000000FF000000000000000000000050
:10191B0000000000000000000000000000000000BC
:10192B0000000000000000000000000000000000AC
:10193B00B4A306080000000000000000058B02089D
:10194B007D000000FF000000000000000000000010
:10195B00000000000000000000000000000000007C
:10196B00000000000000000000000000000000006C
:10197B008CBB0608000000000000000091D002089C
:10198B007D000000FF0000000000000000000000D0
:10199B00000000000000000000000000000000003C
:1019AB00000000000000000000000000000000002C
:1019BB00309F06080000000000000000795301086A
:1019CB00E80300000300000000000000000000001E
:1019DB0000000000000000000000000000000000FC
:1019EB0000000000000000000000000000000000EC
:1019FB00BCD20608000000000000000001630408D0
:101A0B001027000003000000000000000000000091
:101A1B0000000000000000000000000000000000BB
:101A2B0000000000000000000000000000000000AB
:101A3B00609F060800000000ADB40308F123010805
:101A4B005F760000050000000000000000000000B1
:101A5B00000000000000000000000000000000007B
:101A6B00000000000000000000000000000000006B
:101A7B0024A3060800000000000000008570010888
:101A8B001027000001000000000000000000000013
:101A9B00000000000000000000000000000000003B
:101AAB00000000000000000000000000000000002B
:101ABB00C8D206080000000000000000A1F10008D9
:101ACB00E80300000500000000000000000000001B
:101ADB0000000000000000000000000000000000FB
:101AEB0000000000000000000000000000000000EB
:101AFB00D4D2060800000000000000001D7E020882
:101B0B00204E000003000000000000000000000059
:101B1B0000000000000000000000000000000000BA
:101B2B0000000000000000000000000000000000AA
:101B3B00E4D206080000000000000000F97B020858
:101B4B00204E000003000000000000000000000019
:101B5B00000000000000000000000000000000007A
:101B6B00000000000000000000000000000000006A
:101B7B00F4D206080000000000000000A5200108B8
:101B8B00400D0300030000000000000000000000F7
:101B9B00000000000000000000000000000000003A
:101BAB00000000000000000000000000000000002A
:101BBB00F8A006080000000000000000151B030839
:101BCB0010270000010000000000000000000000D2
:101BDB0000000000000000000000000000000000FA
:101BEB0000000000000000000000000000000000EA
:101BFB00489F06080000000000000000EDB3040839
:101C0B00102700000300000000000000000000008F
:101C1B0000000000000000000000000000000000B9
:101C2B0000000000000000000000000000000000A9
:101C3B00CCB5060800000000000000006DF00008A5
:101C4B00A86100000100000000000000000000007F
:101C5B000000000000000000000000000000000079
:101C6B000000000000000000000000000000000069
:101C7B002CA306080000000000000000D9F10008AA
:101C8B00A00F000001000000000000000000000099
:101C9B000000000000000000000000000000000039
:101CAB000000000000000000000000000000000029
:101CBB0004D30608000000000000000065D40408EF
:101CCB0010270000010000000000000000000000D1
:101CDB0000000000000000000000000000000000F9
:101CEB0000000000000000000000000000000000E9
:101CFB0000A1060800000000000000007DCC0408D5
:101D0B001A4100000100000000000000000000006C
:101D1B0000000000000000000000000000000000B8
:101D2B0000000000000000000000000000000000A8
:101D3B0090A3060800000000000000005D56030899
:101D4B001027000001000000000000000000000050
:101D5B000000000000000000000000000000000078
:101D6B000000000000000000000000000000000068
:101D7B0010D30608000000000000000069D4010821
:101D8B0050C3000001000000000000000000000034
:101D9B000000000000000000000000000000000038
:101DAB000000000000000000000000000000000028
:101DBB0014D306080000000000000000F15D0308CA
:101DCB00400D0300000000000000000000000000B8
:101DDB0000000000000000000000000000000000F8
:101DEB0000000000000000000000000000000000E8
:101DFB001CD30608000000000000000029F00008BA
:101E0B00400D030000000000000000000000000077
:101E1B0000000000000000000000000000000000B7
:101E2B0000000000000000000000000000000000A7
:101E3B0024D3060800000000000000003DDF04086A
:101E4B0050C3000003000000000000000000000071
:101E5B000000000000000000000000000000000077
:101E6B000000000000000000000000000000000067
:101E7B0030D3060800000000000000007DCA0208F5
:101E8B0040420F00000000000000000000000000B6
:101E9B000000000000000000000000000000000037
:101EAB000000000000000000000000000000000027
:101EBB003CD30608000000000000000051FD0208A2
:101ECB0050C30000000000000000000000000000F4
:101EDB0000000000000000000000000000000000F7
:101EEB0000000000000000000000000000000000E7
:101EFB000100000001000000FFFFFFFF0000803F1A
:101F0B000000000000000000000000000000803F07
:101F1B0000000000000000000000000000000000B6
:101F2B0000000000000000000000000000000000A6
:101F3B00000000000000803F0000000000000000D7
:101F4B00000000000100000000000100E0017EFF26
:101F5B00FFFFFFFFFF000000FFFFFFFF0801FF0176
:101F6B000800000000000401000000000000000257
:101F7B0010000000070000007D0000000060024020
:101F8B00106002400000000000000000000B000089
:101F9B000000000000000000000000000060024094
:101FAB00286002400100000000000000060C000049
:101FBB000000000000000000000000000060024074
:101FCB00406002400200000000000000100D000005
:101FDB000000000000000000000000000060024054
:101FEB00586002400300000000000000160E0000C5
:101FFB000000000000000000000000000060024034
:10200B00706002400400000000000000200F000080
:10201B000000000000000000000000000060024013
:10202B008860024005000000000000002610000040
:10203B0000000000000000000000000000600240F3
:10204B00A0600240060000000000000030110000FC
:10205B0000000000000000000000000000600240D3
:10206B00B86002400700000000000000362F00009F
:10207B0000000000000000000000000000640240AF
:10208B001064024000000000000000000038000057
:10209B00000000000000000000000000006402408F
:1020AB002864024001000000000000000639000017
:1020BB00000000000000000000000000006402406F
:1020CB00406402400200000000000000103A0000D3
:1020DB00000000000000000000000000006402404F
:1020EB00586402400300000000000000163B000093
:1020FB00000000000000000000000000006402402F
:10210B00706402400400000000000000203C00004E
:10211B00000000000000000000000000006402400E
:10212B008864024005000000000000002644000007
:10213B0000000000000000000000000000640240EE
:10214B00A0640240060000000000000030450000C3
:10215B0000000000000000000000000000640240CE
:10216B00B864024007000000000000003646000083
:10217B00000000000000000000000000854F030875
:10218B00834F0308814F03087B4F0308794F0308E4
:10219B007F4F03087D4F0308010000000000803FC4
:1021AB00FF010000F4010000FF0000000000000030
:1021BB0000000000010203040607080901000000EB
:1021CB00FC180020000000000000000000000000D0
:1021DB0000000000000000000000000000000000F4
:1021EB0000000000000000000000000000000000E4
:1021FB0000000000000000000000000000000000D4
:10220B0000000000000000000000000000000000C3
:10221B0000000000000000000000000000000000B3
:04222B0000000000AF
:082800000000000000000000D0
:1080000010B40A49002301E0152B0AD003EB430208
:1080100001338C5C84420A44F6D110465DF8044B6F
:10802000704700205DF8044B704700BF58B3002034
:10803000436A8269D154436A0169026C01338B42FD
:1080400028BF00234362E2B1EFF31183502282F391
:108050001288026C1168C90703D5DBB283F311885B
:108060007047516889B270B4F1B9D0E90954A5429A
:108070000DD1012280F86420DBB283F3118870BC3B
:108080007047026ED36843F08003D36070478669FF
:108090002644D660A4B210D805692C1BA4B2546043
:1080A0008162002180F86410116841F00101DBB2A7
:1080B000116083F3118870BC70472C1BA4B254600C
:1080C0008562EEE7034610B4C46BD968406954B1C9
:1080D0005A6D8C1A013A005D5DF8044B08BF0A46E0
:1080E000C0B25A6570471A6A805C01328A4228BF62
:1080F0002246C0B21A625DF8044B7047036C13B19C
:1081000090F864007047D0E90903181AB0FA80F0BB
:1081100040097047D0E909120369914238BFC91874
:108120008A1A016C013B21B1496812FA81F29A4224
:1081300001D2981A70470020704700BFC36B33B15B
:108140005B68426D9BB29A4205D3D01A7047D0E962
:1081500007239A42F9D2C0681044C01A70470B4BEB
:1081600030B503F1140493F900205D78092AC8BFE3
:10817000143A811804330D7313F8025C855413F814
:10818000012C0A769C42EED130BD00BF0CD105080F
:1081900003682DE9F0415D6A1DB12B46BDE8F04151
:1081A0001847002A174611DD04460E460F4400E02A
:1081B00023689B68204698470028F9D0236816F862
:1081C000011B1B6820469847BE42F1D1BDE8F081F3
:1081D00003681B69184700BF002070479FED010A24
:1081E000704700BF00000000704700BF704700BF2D
:1081F000704700BF704700BF0120704700207047E4
:10820000704700BF00207047704700BF10B42421A2
:10821000252426220023047041708270C3705DF80B
:10822000044B704710B40B49002301E0152B0BD011
:1082300003EB430201338C5C84420A44F6D192F989
:1082400002005DF8044B70474FF0FF305DF8044BBF
:10825000704700BF58B30020034B00EB400003EB16
:10826000C003587C704700BFBC230010704700BF9C
:10827000704700BF70B48E0005460424130B03EB57
:10828000430318331201013C2B6092B23544F5D1FF
:108290000B01C218C450062042F8214070BC704740
:1082A00070B410238E00044612F4004F14BF0E2544
:1082B00007255200013B256092B23444F4D18A0173
:1082C00084188350122044F8213070BC704700BFDE
:1082D000274B1B68DB0420D5B5EE400AF1EE10FAFF
:1082E00033D0DFED247AB4EEE70AF1EE10FA2CD4A5
:1082F0009FED217AB4EEC70AF1EE10FA28D830EEDD
:10830000670A9FED1E7ADFED1E7AE0EE077AFCEE3B
:10831000E77A17EE903A98B27047DFED167AB4EE2E
:10832000E70AF1EE10FA0DDB30EE670A9FED157AE1
:10833000DFED157AE0EE077AFCEEE77A17EE903A79
:1083400098B270474FF47A70704740F2DC50704733
:10835000DFED0E6A9FED0E7ADFED0E7A30EE660AE3
:10836000E0EE077AFCEEE77A17EE903A98B27047A3
:108370006CCC00200000404200E0824466BEFFBE9C
:108380000060BB4438DFFF3E00407A440000834475
:1083900066BEFF3E00A0BB44294B1B68B0F57A7F48
:1083A00003F480530BDBB0F5FA6F11DDDFED257AB6
:1083B0009FED250A002B08BFB0EE670A7047DFED7E
:1083C000237A9FED230A002B08BFB0EE670A70479F
:1083D0008BB9B0F57A7F12D007EE900ADFED1D6AF7
:1083E0009FED1D7A9FED1D0AF8EE677A77EEE67A2B
:1083F000A7EE870A704740F2DC53984202D19FED06
:10840000130A704740F2DB5307EE900A9842F8EEE9
:10841000677A0AD9DFED126A9FED127A9FED120A90
:1084200077EEE67AA7EE870A7047DFED106A9FEDD8
:10843000107A9FED070A77EEE67AA7EE870A704773
:108440006CCC0020FFDFFF4400E0FF440000000090
:1084500000E0824400407A44661000400000404240
:1084600000A0BB44D62000400000834400007A44B2
:10847000D62000C038B5074C074DAC4203D3074B9C
:1084800000221A7038BDA288D4E9020152F008FA1D
:108490001834F2E790010008B008000860190020C5
:1084A00010B109B10EF028BD00207047F0B5056E7F
:1084B00001710446A889A6688E4F20F4005000047C
:1084C000000CA88162792B8A10039BB223F44053DD
:1084D00000F40050184312F0040F01F001034FEABA
:1084E0000222288202F480620CBF00204FF48050E8
:1084F000002B0CBF08230C2342EA00020CBF002013
:10850000042011F0020FA98908BF03461A430F4047
:108510003A43AA81AA8A22F44072120491B0120C42
:10852000AA8201A82FF02AFF734B9D4205D003F5C4
:1085300080639D4201D0039B00E0049BAA89110443
:108540004CBF7100B1006D4EAA8903EB830303EBAE
:108550008303B3FBF1F1A6FB01304009642312044D
:1085600003FB10134FEA001000F19F801B01323310
:10857000A6FB0323C3F3431303439BB22B8162790E
:10858000236ED70700F1838012F0080F9A8A05BF87
:1085900022F00802120442F00802120C9A829A8910
:1085A00042F400529A812279D60735D5E26B002A2F
:1085B00000F08A8001A82FF097FC4FF48070E36DE3
:1085C0000A904FF4803002930B9000234FF48060A8
:1085D000626CE1680693CDE90833CDE90C33CDE94F
:1085E0000E33049307906369E06B01920393059146
:1085F0002FF0B6FC01A9E06B2FF087FCE26B236E35
:10860000116841F001011160998A41F0400199829D
:108610005168227989B26165950732D5226C002AAA
:108620004DD001A82FF060FCA36D02934FF480336E
:108630000B934FF480630025A26C21690793206C93
:1086400001924023049305910A950695CDE90855BA
:10865000CDE90C55CDE90E552FF082FC01A9206C17
:108660002FF053FC226C236E516941F0800151615F
:10867000116841F01601116055609A8A42F080023B
:108680009A829A8942F400529A8111B0F0BD1A4937
:108690008B422DD0A1F548418B4222D001F54C41AF
:1086A0008B427FF471AF05201CE0DB0003F1320246
:1086B000A6FB0223C3F3421242EA00035DE7DA6835
:1086C00042F08002DA60DCE74FF6DF721A80DA6887
:1086D00042F02002DA60DA6842F01002DA602279B1
:1086E0009AE7022001214EF0EDFE6279236E4BE7FE
:1086F0000020F7E7F3E9FFFF001001401F85EB5171
:10870000F0B5056E81600E46A98921F40051090477
:108710000446090CA98162792B8A27798B481103B9
:108720009BB223F4405301F40051194312F0040F9B
:1087300007F001034FEA0222298202F480620CBF93
:1087400000214FF48051002B0BBF08230C234FF066
:10875000000C4FF0040C0A4317F0020FA98908BF60
:1087600063461A4308400243AA81AA8A22F440724F
:10877000120491B0120CAA8201A82FF0FFFD744BD5
:108780009D4205D003F580639D4201D0039B00E02C
:10879000049BAA8911044CBF7100B1006D4EAA89D7
:1087A00003EB830303EB8303B3FBF1F1A6FB01307F
:1087B00040096423120403FB10134FEA001000F178
:1087C0009F801B013233A6FB0323C3F343130343F0
:1087D0009BB22B816279236ED70700F1838012F060
:1087E000080F9A8A05BF22F00802120442F008021C
:1087F000120C9A829A8942F400529A812279D60701
:1088000035D5E26B002A00F08A8001A82FF06CFBBE
:108810004FF48070E36D0A904FF4803002930B9018
:1088200000234FF48060626CE1680693CDE9083361
:10883000CDE90C33CDE90E33049307906369E06B07
:108840000192039305912FF08BFB01A9E06B2FF0B0
:108850005CFBE26B236E116841F001011160998AA3
:1088600041F0400199825168227989B2616595078A
:1088700032D5226C002A4DD001A82FF035FBA36D14
:1088800002934FF480330B934FF480630025A26C66
:1088900021690793206C01924023049305910A9566
:1088A0000695CDE90855CDE90C55CDE90E552FF0CB
:1088B00057FB01A9206C2FF028FB226C236E516915
:1088C00041F080015161116841F01601116055605D
:1088D0009A8A42F080029A829A8942F400529A81DE
:1088E00011B0F0BD1A498B422DD0A1F548418B4201
:1088F00022D001F54C418B427FF471AF05201CE082
:10890000DB0003F13202A6FB0223C3F3421242EA68
:1089100000035DE7DA6842F08002DA60DCE74FF6D8
:10892000DF721A80DA6842F02002DA60DA6842F018
:108930001002DA6022799AE7022001214EF0C2FD8E
:108940006279236E4BE70020F7E700BFF3E9FFFFF2
:10895000001001401F85EB514EF0FABC10B50446E3
:1089600052F07CF881B22046BDE810404EF0F0BCD9
:108970007FB50A4B04930A4B03930A4B02930A4BAD
:1089800001930A4B00930A4A0A4B0B490B481AF011
:10899000C1FF07B05DF804EB19F0F6B8CC57060834
:1089A0005BC80608D1570608DA570608E6570608D6
:1089B0008C5706088BC8002095570608A157060853
:1089C000D6E738B50A4B03EBC0040D4694F86C218A
:1089D000084803EB820359691AF09CFF94F872313E
:1089E0002BB1691C0448BDE838401AF093BF38BD6C
:1089F0000CD10508F857060854C906082DE9F84FA8
:108A00001C4CDFF87CB081460D4604F5587A0027EF
:108A1000284618F0E7FFD4E9008648B929464046C1
:108A20001AF038F920B9294630461AF033F978B1EE
:108A3000404619F0A1F81EB1314658461AF06AFFB7
:108A4000A16811B10C481AF065FF19F09DF80127D3
:108A500010345445DCD1284618F0C4FF38B937B972
:108A60002A4648460549BDE8F84F1AF055BEBDE80C
:108A7000F88F00BFC4080608F5570608FB5706081C
:108A8000EF5706082DE9F04F89B00C4607920021F8
:108A90001A46814619F08EF80026079D8346B24695
:108AA0004FF019084FF46177079B43B3294606221C
:108AB000204654F0AFFA00285A4614BF0121002185
:108AC00048460CBF4FF0010A4FF0000A19F072F847
:108AD0006B791A4A18FB037305932B7918FB037300
:108AE0000493EB780393AB7802936B7801932B7824
:108AF000009383463346514648461BF039FA637962
:108B00000E4A18FB03730593237918FB0373049330
:108B1000E3780393A37802936378019314F8063BF8
:108B2000009351463346484601361BF039FA0A2E67
:108B300005F10605B8D109B0BDE8F08F0F58060859
:108B40002DE9F04F8A468DB0164600211A4605469B
:108B500019F030F8364F81460024C4EBC4030AEB09
:108B60000302106891889279089040F30748ADF8A5
:108B700024108DF82620B8F1000F54D0002E55D0C7
:108B800033440AA918689A880A909B79ADF82C207A
:108B900008A807228DF82E3054F03CFA00284A46E7
:108BA00014BF0121002128460CBF4FF0010B4FF0EC
:108BB000000B18F0FFFF9DF82E3006939DF92D3025
:108BC00005939DF92C3004939DF82B3003939DF968
:108BD0002A3002939DF8293001939DF828300093A4
:108BE000814623463A46594628461BF0C1F99DF86E
:108BF000263006939DF9253005939DF92430049382
:108C00009DF82330CDE902839DF8213001939DF832
:108C1000203000933A4623465946284601341BF03B
:108C2000BFF9102C99D10DB0BDE8F08FB346DEE747
:108C3000285806082DE9F04F8946174689B01A468C
:108C40000021064618F0B6FF4D4683463C464FF0DD
:108C50000008002F7ED021460C22284654F0DAF975
:108C600000285A4614BF0121002130460CBF4FF0A6
:108C7000010A4FF0000A18F09DFF94F90B3004939D
:108C800094F90A300393B4F908300293B4F906302A
:108C90000193B4F90430009383464346394A514660
:108CA00030461BF065F995F90B30049395F90A30BD
:108CB0000393B5F908300293B5F906300193B5F97D
:108CC000043000932F4A43465146304608F10108CC
:108CD0001BF066F9B8F1080F05F10C0504F10C045E
:108CE000B7D10024DFF8A0A02546AFB34FF00008AD
:108CF000012303FA08FB3A5959F8043053403BEA80
:108D0000030314BF0123002312EA0B0F079307D0BC
:108D1000CDF800802B465246079930461BF028F9C3
:108D200059F804301BEA030F07D0CDF800802B461A
:108D30005246079930461BF033F908F10108B8F1A3
:108D40000E0FD5D10135082D04F10C04CDD109B099
:108D5000BDE8F08FBA46A6E7B846012359F80420CB
:108D600003FA08F3134207D0CDF800802B46524691
:108D7000012130461BF014F908F10108B8F10E0F7B
:108D8000EBD1DFE7455806085D58060838B53C4882
:108D900018F0F2FE3B4B93F82530012B6BD13A4C87
:108DA0003A4818F0F5FE94F8953053B194F899309C
:108DB00083B1374B1B6893F892305BB994F89A30C3
:108DC00043B9B4F8A050334818F0D6FEA5BB3248DA
:108DD00018F0DEFE94F89430304D314805EB8303F3
:108DE000D3F85C121AF0F2FCB4F896102D481AF081
:108DF00091FD94F8953053BB2B4818F0C9FE94F8B8
:108E000099302A4805EB8305D5F864121AF082FDE3
:108E100094F89830032B1ED1254818F0B9FEB4F809
:108E20009C1024481AF076FD94F89930B3B9224882
:108E3000BDE8384018F0ACBE4FF47A72B5FBF2F1E1
:108E400002FB115292B21D481AF0C0FCC2E71C4846
:108E500018F09EFED3E718F097FEE0E794F89A30FA
:108E600023B91848BDE8384018F092BE1648BDE84E
:108E7000384018F08DBE1548BDE8384018F088BE5F
:108E800072580608F0CB0020E82D0010885806081C
:108E9000E8CD00208F580608AA5806080CD105080E
:108EA000BE580608D65806081A590608FC5806087F
:108EB000195906082159060844590608B4580608E5
:108EC000F35806081B590608F458060849590608BD
:108ED00070B505460846164619F0BAFF0C4B1A78CD
:108EE0009042044605D201460A481AF06FFC20461B
:108EF00070BD2EB1FF2803D107481AF067FCF6E7D2
:108F0000013A064928461AF007FC4FF0FF34EEE715
:108F1000B409001057590608685906087B59060815
:108F2000044B054A05491B681268096804481AF091
:108F30004DBC00BF187AFF1F147AFF1F107AFF1F65
:108F4000A1590608F0B5134B1B6889B00446E3B17C
:108F50001A6804AED56A31466A461846A8470546DF
:108F600080B90D4920461AF0D7FB09E03DF81420DE
:108F700036F8141038461AF029FC0134A542F5DC05
:108F800009B0F0BD0024054FF8E705491AF0C4FB0D
:108F9000F6E700BF1C830020CF590608B559060824
:108FA000E75906083E4B1B782DE9F74F002B70D090
:108FB0003C4C3D48A168DFF82091DFF820A1DFF8A4
:108FC00020B11AF003FC616838481AF0FFFB384BF7
:108FD0003848D3E90031C91A374B1A68B1FBF2F2AD
:108FE0001AF0F4FB18F0D0FD344818F0D1FD3448E5
:108FF00018F0CEFD002799F80030FDB2AB4220D822
:1090000018F0C2FD2F4E002563193046D96A043589
:109010001AF080FC582DF7D12B4C2A4E18F0B4FDD5
:1090200004F154052346D3E900310434C91A30460B
:109030001AF070FCAC42F5D103B0BDE8F04F18F067
:10904000A3BDAE1C04EB8606C823B2889AF81A109A
:109050004FF064085343584693FBF1F308FB02F2C8
:109060003C2193FBF1F1009129461AF053FCB379AE
:109070005BB128464EF042F990FBF8F108FB110273
:1090800012481AF0A3FB0137B5E7114818F080FD2C
:10909000F9E7104803B0BDE8F04F18F079BD00BF04
:1090A000D42C00101C0A0010EE590608FE590608C0
:1090B00014000010155A06080CBE0020425A06087B
:1090C0006D5A0608C45A0608480A0010B15A060824
:1090D000BC5A0608C85A0608B40900103CB3002060
:1090E000985A06082DE9F04F0A4687B00021074636
:1090F00018F060FD384C8346384A2378608802EBCC
:109100008303D3F814901CF003F8D0E9028304938E
:10911000334B1B7813B9CDF8108098460025A379FE
:10912000002B08BF01239D4206DB2E4B08349C42D6
:10913000E2D107B0BDE8F08F6279237905FB032304
:10914000049AD65CB8F1000F2FD018F803300593BD
:10915000B3425A4614BF0121002138460CBF4FF0DC
:10916000010A4FF0000A18F025FD059B83460135E2
:10917000EBB103F00F021B0940330292CDE900531B
:10918000194A4B46514638461AF0F2FED6B106F05F
:109190000F03360940360293CDE900564B46124A7A
:1091A000514638461AF0FCFEB9E74346CFE7B8F11E
:1091B000000FEBD000954B460C4A514638461AF04A
:1091C000D7FEE3E77B06AAD400954B46074A5146F3
:1091D00038461AF0E5FEA2E778D205080CD105085A
:1091E0006019002068D30508E45A0608FA5A0608F0
:1091F0002DE9F04387B00509914698460E9F40350A
:1092000000F00F0439B3FFF74BF9037A174A06460B
:10921000CDE9004349462B464046B847C0B13068C7
:109220000DF056FEF2797379114912F0020F4FEAF0
:109230009303104A18BF0A46317A00940133CDE9EE
:109240000321CDE901030C4A2B4600214046B847D3
:1092500007B0BDE8F083094A0E942B4649464046C4
:10926000BC4607B0BDE8F043604700BF0E5B060890
:10927000A7C906085BC80608205B0608425B06080B
:109280002DE9F04F05468BB040F216200E461BF03C
:109290003FFF324604460021284618F08BFC414A25
:1092A000D4E90293147806460CB14C46994615222F
:1092B000002104A853F0D6FE002719F807A0BAF140
:1092C000000F34D009EB07035B780393002C66D0C2
:1092D000224600231178514559D192F801800AAAFB
:1092E0001344012203F8182C039B9845324614BFFF
:1092F0000121002128460CBF4FF0010B4FF0000B5D
:1093000018F058FC064654B1B8F1000F07D0264BB0
:1093100000935A462B4641465046FFF769FF234BC0
:1093200000935A462B4603995046FFF761FF0337D7
:109330003F2FC2D144B3DFF87090DFF870A0002750
:1093400004ABDB5DEBB907EB470814F80830C3B199
:1093500016B1304618F022FC04EB080314F808009C
:109360005978CDF800902B460022FFF741FF0022EC
:1093700014F80800CDF800A02B461146FFF738FF7F
:1093800000260137152FDBD10BB0BDE8F08F01337C
:10939000152B02F103029DD14FF00008A4E7A0466F
:1093A000A2E700BF60190020713F0208A13F020838
:1093B00010B501311446FFF773F828B9064B1A6847
:1093C0001B792260237110BD027A04492046BDE852
:1093D00010401BF03DBD00BFA56106081B5B0608E1
:1093E0000246531C084605D1044A116812790160EF
:1093F0000271704702491BF02BBD00BFA561060832
:1094000055C90608F8B5084F4D1E064601F11F0460
:1094100015F8012F304639461BF01AFDA54206F11A
:109420000206F5D1F8BD00BF545B06082DE9F04FE8
:109430004E4F93B0FB780797002B00F089804C4883
:1094400018F0A6FB0025DFF84CA1DFF84C91DFF8FF
:109450004CB12E46A84608A9E8B223F019FC9DF8A5
:109460002830002B4ED0109C54B107EE904A9FED4F
:10947000410AF8EE677A80EE270A51F0EFFA0446C7
:10948000089A294650461AF045FA0D9A002A63D0E8
:1094900041F2883002FB04004FF47A73B0FBF3F022
:1094A0000F9B002B5AD041F2883103FB04114FF47B
:1094B0007A7CB1FBFCF1079F97F803C0082D1CBF15
:1094C00080447618BCF1000F4AD04FF47A7C0E9F8E
:1094D000B7FBFCFCCDF810C04FF00A0C91FBFCFE72
:1094E0000CFB1E11CDE902E190FBFCF10CFB11001D
:1094F000CDE90010214620481AF068F909EB8513E0
:1095000000229A6301351A2DA5D1079BDB78E3B1C0
:109510001A4B1B4C19681B4B1B481A684FF47A7383
:109520005209B1FBF3F321681AF050F90A2296FBB5
:10953000F2F302FB136698FBF2F1009602FB118234
:1095400012481AF043F90023236013B0BDE8F08FEE
:109550000F4818F01DFB75E71046A1E71946AAE76A
:10956000214658461AF032F9C8E700BF84C80020E7
:10957000595B060800247449BA5B0608D06F0020C6
:10958000D46F0020C86F0020E25B0608025C06086A
:10959000A15B0608AB5B0608A80F0020DE5B06088F
:1095A0002DE9F04F924B93491A689348934BB2FBC5
:1095B000F3F297B01AF0AEF9914B924F0FCBBD6812
:1095C0000AAE86E80F00C5F381058F4B0593012D88
:1095D0008E4BC8BF7C68069316AB03EB8503C8BFF0
:1095E000C4F38054012D53F8301CD8BF884A8948F1
:1095F000894D8A4E8A4FC2BF16AB03EB840454F8E0
:10960000442C1AF087F9874B1B884FF47A72B3FB0E
:10961000F2F102FB1132844B0A20B3F9003092B20E
:10962000B2FBF0F281481AF0D1F8814A81498248B0
:109630001AF070F918F0A8FA804B814A8148D21AC2
:10964000814B59881AF0C2F8804818F095FA002129
:109650000A4695F827300B4113F0010F01F1010480
:1096600008D012B1384618F087FA214630461AF071
:1096700051F90122072C2146EBD118F085FA744BE1
:10968000744DD3F80080002405F5217905F5297A79
:1096900059F82470A30007B30126A64016EA080F64
:1096A00019D0F20617D06C4A53F80A30125D53F8FD
:1096B00022B014B1694818F05FFA5A463946684832
:1096C0001AF028F9022E06D1664B93F8251011B135
:1096D00065481AF01FF90134DAE718F055FA634BC0
:1096E00063481B7805EB8303D3F8B8121AF06EF8C1
:1096F000604B614819684FF47A73B1FBF3F11AF0CB
:1097000009F907A819F00EFD38B107A90EA81BF03A
:109710003BFC0EA959481AF0FDF818F035FA584BE1
:10972000D3F89C20002A52D007EE902ADFED556A2C
:10973000B8EEE77AC6EE877AFDEEE77ACDED037AEA
:109740005149088858B107EE900ADFED4E6AF8EEED
:10975000E77A86EEA77AFDEEC77A17EE900ADB6904
:109760005BB107EE903ADFED476AF8EEE77A86EEF6
:10977000A77AFDEEC77A17EE903A4449444E09881D
:10978000444F6429A8BF6421CDE90003039B4248EC
:109790001AF01CF8414B424A1B784249127809885A
:1097A000414805EB8305D5F8CC321AF00FF80021BB
:1097B0003E481AF00BF83E4818F0DEF93D4B1C68A5
:1097C000012534B918F0E0F917B0BDE8F08F039225
:1097D000B6E794FAA4F3B3FA83F305FA03F256F862
:1097E0002310384624EA02041AF094F8E9E700BF8F
:1097F0004CB50020305C0608355C060840420F007E
:1098000080D3050800380240485C06084D5C060815
:109810005BC80608525C060844C90020DB5C0608E9
:10982000D95C060860670020348600205A5C060870
:10983000F0FF0010000800007B5C060800400008F4
:10984000008000089F5C060860190020C95C0608BB
:10985000808300200CD10508D0020020E45C0608BB
:10986000E75C0608BC090010ED5C0608759F002047
:10987000F15C060808BE0020F95C0608135D0608C6
:10988000A80F0020002474495C910020F00500100E
:1098900024460608BD630608265D06088D9800204C
:1098A00038830020308300206C5D0608935D060835
:1098B000A25D06087C8600200A4B1B7810B513B108
:1098C000094B1B7853B9094C22790AB10CF0A6FA5E
:1098D00064792CB10CF080FA204610BD0024FBE71F
:1098E0000124F9E7801F0020811F0020601900205B
:1098F00070B5124E05460C46204618F073F860B15C
:109900000F4B104893F900104B1C0ABF0E4BC9B205
:109910005978BDE8704019F059BF204619F098FAFF
:10992000052804D8C0B221F059FF3446E4E72846A0
:1099300005220649BDE8704019F0EEBE5BC8060876
:1099400088010020B85D060884C80020C75D0608AD
:10995000F0B5052985B006460C46174614D80B4DC0
:10996000297018F011F90A493046FFF7C1FF224665
:10997000084968461BF06CFA6B463A46102130469F
:109980001BF0DCFBFF232B7005B0F0BD880100202D
:109990005BC80608B85D060870B5124E05460C4651
:1099A000204618F01FF860B10F4B104893F90110D2
:1099B0004B1C0ABF0E4BC9B21978BDE8704019F0B4
:1099C00005BF204619F044FA022804D8C0B218F0A6
:1099D0001DF93446E4E7284602220649BDE87040F6
:1099E00019F09ABE5BC8060888010020BC5D060815
:1099F00084C80020CC5D06082DE9F04F424B434D52
:109A00001A78DFF80CB15B786A7085B000240746DD
:109A100002912B70A04618F035F81BF067FB1BF085
:109A200069FC01950D263A4B029966439D19D5F8BC
:109A30000090484619F02EF9002841D0B8F1000FE7
:109A400001D018F0A1F8494632485E4419F062FF8F
:109A50000022294638461BF03DFC18F095F8337972
:109A600003F01803082B42D0102B45D028461AF0DB
:109A700029F90D2303FB04B3B3F809001BF048FBDD
:109A80008246D8B1284617F0C2FFDAE9022106461D
:109A900002440144284618F00DF878B9039049466D
:109AA0001D4819F037FFDAF80810039A38461346B4
:109AB0008A1929461AF07AF918F066F808F10108AF
:109AC0000134B4F5137FADD1144B1B780BB1FEF705
:109AD000D1FC019AFF2353701370B8F1000F10D11D
:109AE0000F49384605B0BDE8F04F19F015BE0D49D5
:109AF0003846FFF751FFB9E70A493846FFF7F8FE45
:109B0000B4E705B0BDE8F08F84C8002088010020CC
:109B100078DE050876CA0608E75D060860190020A9
:109B2000F75D06085BC80608F0B5022985B0064651
:109B30000C46174614D80B4D697018F025F80A49E1
:109B40003046FFF729FF2246084901A81BF080F99B
:109B500001AB3A46082130461BF0F0FAFF236B7048
:109B600005B0F0BD880100205BC80608BC5D060892
:109B700070B5064608460C4617F034FF88B3224BF2
:109B80005B680133182B21D820490C2202FB0312F9
:109B90001C4695684DB91D4A0C210134182C17DD5F
:109BA000002401FB042085689DB1174B5C6027F001
:109BB00053FF2A462146164819F008FE0C235C4341
:109BC000124B185DBDE8704027F062BF1C46E2E70B
:109BD000E7D99C42E1D130460E49BDE8704019F00A
:109BE0009BBD204619F034F91828044606D8074AC8
:109BF0000C2303FB00239D68002DD6D12146064887
:109C0000BDE8704019F0E2BD88010020F00D0608A3
:109C10002E5E0608045E0608185E06082DE9F74366
:109C2000804608460D4617F0DDFE044628B1404642
:109C300019F094FD03B0BDE8F083284601AA2C4931
:109C4000DFF8AC9050F061FE2746054626467DB908
:109C5000022CECD1A7F57A73B3F57A7F21D94FF4B2
:109C6000FA634FF47A722349404619F06BFDE1E73D
:109C70004CB1012C10D001AA4946002050F045FEFD
:109C800001340546E3E7012229464046FFF720F963
:109C9000431C0646EFD1CDE7284619F0D9F8074610
:109CA000E9E7154B1B68B8B25B689847FF2EBCEE1E
:109CB000C00A124B0BD1124AF8EE407A1278AA422F
:109CC00012DC10EE101A0F4819F080FDB2E7F8EE22
:109CD000407A03EB860310EE102A31460A48C3EDA2
:109CE000007A19F073FDA5E7E3EC017A0135E6E7A8
:109CF000AF5A0608B4670608D02C00105093002015
:109D0000B4090010505E0608435E0608F0B5074629
:109D10008BB008460D4617F065FE002862D0002380
:109D20003C491A4601200BB0BDE8F040FEF782BF67
:109D30002D2903D0A1F13003092B48D8052C05DDCE
:109D400038460BB0BDE8F04019F008BD284619F0C0
:109D50007FF80AAB621C03EB440424F80C0C15F8E2
:109D6000013F303B092BFAD9144629780029DFD16D
:109D7000062CE5D1BDF91C309AB2072AE0D8BDF90E
:109D80001E40A4F2EE2292B240F2DC50824217D87A
:109D9000BDF92050A5F2EE2292B2824210D8BDF950
:109DA0002260B4420CDCB5420ADBBDF924C00CF1E0
:109DB000640292B2C82A03D8BDF92600112813DD27
:109DC000154938460BB0BDE8F04019F0A5BC202974
:109DD00002D101352246C7E738460BB0BDE8F04056
:109DE00019F0C2BC0446C0E70A4F0C2202FB037202
:109DF00040B29480D580168182F80AC0D072CDE935
:109E000003C0CDE901560094044A08461AF0C8F888
:109E10000BB0F0BD989300205F5E06084558060819
:109E200010B5104CA4F1CC03012818BF1C467521B5
:109E300020464EF0C3FF01460B4819F0C7FC1A211B
:109E400020464EF0BBFF0146084819F0BFFC1B211D
:109E500020464EF0B3FFBDE810400146044819F01B
:109E6000B5BC00BF94250010755E0608885E060824
:109E70009B5E060838B50B4CE07810F0FD0505D167
:109E8000094819F0A3FC2846FFF7CAFFE378013B15
:109E9000012B06D8054819F099FC0120BDE838408F
:109EA000BEE738BD44C90020AE5E0608B95E0608AC
:109EB000014B186843F08CBF241E002010B50446E7
:109EC000012032F033FC28B920460549BDE8104096
:109ED00019F022BC0348BDE8104019F077BC00BF60
:109EE000C45E0608D35E06082DE9F04F87B00E4623
:109EF00092460021119A254F9946054617F05AFEC1
:109F000086EA0A0A6FEA0A0380460024059320467F
:109F100027F090FD109B184231D0059B1C4ADFF8BA
:109F200074B0034014BF4FF0010A4FF0000A0393CE
:109F300010EA060304934FF00C0303FB042351467D
:109F40009B68029314BF3A465A46009328464B46F4
:109F50001AF00EF8039BB3FA83F1424649092846EA
:109F600017F028FE049A029B009380464B46002A75
:109F700014BF5A463A46514628461AF011F80134A1
:109F8000182CC4D107B0BDE8F08F00BF12CA060874
:109F9000F00D0608DE5E06082DE9F04307469BB08B
:109FA000084688464FF03EF801AD064620220021C3
:109FB000284653F057F816B3402E08D040233246B7
:109FC0002F49384619F0A8FB1BB0BDE8F0830024E8
:109FD000A146022208EB4401684653F081F81022A2
:109FE00009A968468DF8029018F06EFF099B0DF1E3
:109FF000020293421DD128550134202CE9D141227F
:10A00000002109A853F02EF876B31E4B1B78B3B18C
:10A0100020221D49284652F0FDFF80B109A81A49A7
:10A02000FFF7F0F909AB194A1949384619F074FBE2
:10A03000CAE71A781749384619F06EFBC4E7164C80
:10A0400023788BB928460BF043FE68B1012309A899
:10A050000D496371FFF7D6F9104817F09FFD09A964
:10A060000F4819F0B3FBAFE70B4B5B791BB9054BFE
:10A070001B78002BF3D0044909A8FFF7C3F9EEE7DA
:10A08000E55E0608E1720020B4720020235F060836
:10A090002D5F0608075F060860190020575F060855
:10A0A000665F06082DE9F041074608460C464EF06B
:10A0B000B9FF064620B3154B1B78ABB1144D2B7876
:10A0C00093B128464EF0AEFFB042024604D121467D
:10A0D000284652F0F3FF38B138460D4B0D4A0E4971
:10A0E000BDE8F04119F018BB0C4D2B7843B9204660
:10A0F0000BF01CFE20B1012309482B7117F04EFD17
:10A1000003490848BDE8F04119F060BBE072002047
:10A1100040700020735F06082D5F0608601900205C
:10A12000835F0608985F06082DE9F0410746084658
:10A130000C464EF077FF064620B3154D2B78ABB199
:10A14000144B1B7893B128464EF06CFFB042024688
:10A1500004D12146284652F0B1FF38B138460C4BA5
:10A160000D4A0E49BDE8F04119F0D6BA0C4D2B78D6
:10A1700043B920460BF0C0FD20B1012309482B71E3
:10A1800017F00CFD02490848BDE8F04119F01EBB6C
:10A1900028700020E0720020AB5F06082D5F0608E3
:10A1A00060190020B65F0608C65F0608F7B50C4DBB
:10A1B0000C4F002305F8063F044600EB4106B4426D
:10A1C00002D1094803B0F0BD394634F8022B684685
:10A1D0001AF03EFE6946284652F04CFFEFE700BFFA
:10A1E0006019002054C9060866190020F7B5114D02
:10A1F0000746284600230C4600F82F3F0E490F4B18
:10A20000002F08BF1946164652F034FF0C4F04EBDE
:10A2100046062F35B44202D10A4803B0F0BD394694
:10A2200034F8022B68461AF013FE6946284652F0AD
:10A2300021FFEFE760190020D45F0608DD5F060804
:10A24000E65F06088F1900202DE9F341124D134FE8
:10A25000002305F8603F044600EB8106B44203D1B9
:10A260000F4802B0BDE8F0813946284652F002FF9F
:10A270002146684652F01AFF4FF000082021684638
:10A2800052F007FF28B96946284652F0F3FE04341D
:10A29000E4E780F80080F1E760190020AF5A060873
:10A2A000C01900202DE9F04F074689B008468B46BB
:10A2B00017F098FB044640B100231A464A49012092
:10A2C000FEF7E0FB09B0BDE8F08F484B584693F825
:10A2D00000A093F8018093F8EA9018F0B9FD0928DE
:10A2E000054679DC062646430BF101008DF81F4038
:10A2F00017F080FB3C4C834648B118F0A9FD0D28AF
:10A3000005D89DF81F30A05501338DF81F305846F1
:10A3100017F070FB834660B118F09AFD824508D3B0
:10A32000062303FB054358709DF81F3001338DF859
:10A330001F30584617F05EFB824660B118F088FD6A
:10A34000404508D8062303FB054398709DF81F304D
:10A3500001338DF81F30504617F04CFB804660B13A
:10A3600018F076FD814508D3062303FB0543D8701A
:10A370009DF81F3001338DF81F30311D0DF11F0284
:10A380002144404618F068FD9DF81F30062B07D089
:10A39000A2190023A3513846938019F0DFF991E701
:10A3A0006B43E2184FF461765079192111FB00607C
:10A3B0000590107911FB00610491D1780391917897
:10A3C000029152780192E35C009300212B46084AE7
:10A3D000084619F0E5FD75E7092322460549384688
:10A3E00019F0B0F96EE700BF701D0020802B00202F
:10A3F0000F580608EB5F06082DE9F7431BF0A0FA9B
:10A4000082688389018801924288009242681C4ECA
:10A41000DFF880801B4FDFF8809004461A4819F05F
:10A42000D5F9002515B9404617F0B2FB3B689D42AF
:10A4300013DA3378B1880091052B96BF09EB8303BB
:10A440000022D3F8E022114873882946013519F01B
:10A45000BDF9062D06F10606E4D146F083FD4188DC
:10A46000838864685B1A03FB04441AF0E7FF024622
:10A470000748214603B0BDE8F04319F0A7B900BF73
:10A4800030BF002090BF0020F15F06084A60060838
:10A49000596006083F6006080CD10508F0B505466E
:10A4A00085B008460E4617F09DFA044638B10023E1
:10A4B0001A461B49012019F087FD05B0F0BD304652
:10A4C0006A461849174F50F020FA01AEB8B1032C74
:10A4D00003D1284619F042F9EFE718F0B9FC6A46B3
:10A4E00046F824003946002050F00FFA0134EDE719
:10A4F0003B46324621460C4819F068F9DDE7032C4B
:10A50000E7D1DDE90146039F31463A46E0B243F028
:10A51000FFF90028ECD1284619F026F9CDE700BF55
:10A52000EC960020AF5A06087660060810B40B4976
:10A53000002301E0152B0DD003EB430201338C5CAB
:10A5400084420A44F6D1517820B119B15DF8044B28
:10A550000CF0D2BC00205DF8044B704758B30020CB
:10A560009A4AF0B402F5C470994F9A4D012603E05F
:10A570000832904200F020819379002BF8D11368C3
:10A5800003F13F4101F57E01890A795C01F01F0466
:10A590004909032906FA04F400F01481042900F0A3
:10A5A0000D81022902D1696C0C436C649188CC073F
:10A5B0000DD51C6824F003041C601C681C60DC685A
:10A5C00024F00304DC60DC6844F00104DC608C07E8
:10A5D0000DD51C6824F00C041C601C681C60DC6831
:10A5E00024F00C04DC60DC6844F00404DC604C07FC
:10A5F0000DD51C6824F030041C601C681C60DC68ED
:10A6000024F03004DC60DC6844F01004DC600C07EB
:10A610000DD51C6824F0C0041C601C681C60DC683C
:10A6200024F0C004DC60DC6844F04004DC60CC064C
:10A630000DD51C6824F440741C601C681C60DC6828
:10A6400024F44074DC60DC6844F48074DC608C06C4
:10A650000DD51C6824F440641C601C681C60DC6818
:10A6600024F44064DC60DC6844F48064DC604C0604
:10A670000DD51C6824F440541C601C681C60DC6808
:10A6800024F44054DC60DC6844F48054DC600C0644
:10A690000DD51C6824F440441C601C681C60DC68F8
:10A6A00024F44044DC60DC6844F48044DC60CC0585
:10A6B0000DD51C6824F440341C601C681C60DC68E8
:10A6C00024F44034DC60DC6844F48034DC608C05C5
:10A6D0000DD51C6824F440241C601C681C60DC68D8
:10A6E00024F44024DC60DC6844F48024DC604C0505
:10A6F0000DD51C6824F440141C601C681C60DC68C8
:10A7000024F44014DC60DC6844F48014DC600C0544
:10A710000DD51C6824F440041C601C681C60DC68B7
:10A7200024F44004DC60DC6844F48004DC60CC0485
:10A730000DD51C6824F040741C601C681C60DC682B
:10A7400024F04074DC60DC6844F08074DC608C04CD
:10A750000DD51C6824F040641C601C681C60DC681B
:10A7600024F04064DC60DC6844F08064DC604C040D
:10A770000DD51C6824F040541C601C681C60DC680B
:10A7800024F04054DC60DC6844F08054DC60090450
:10A790007FF5EEAE196821F0404119601968196023
:10A7A000D96821F04041D960D968083241F0804130
:10A7B0009042D9607FF4E0AEF0BC7047296B0C4347
:10A7C0002C63F3E6296C0C432C64EFE6C4B3002041
:10A7D000304A06080038024000B97047036803F1A8
:10A7E0003F4202F57E022DE9F04F920A464DAA5CE7
:10A7F00002F01F0552090124032A04FA05F47ED051
:10A80000042A77D0022A30D001F00306721E012AF2
:10A81000C1F3810EC1F300188588C1F341114FF0D7
:10A8200000024FF0010C25D94FF0030E0CFA02F094
:10A83000A84315D150001F680EFA00F4E4432740E6
:10A840001F60D3F8008006FA00F747EA08071F6088
:10A85000DF683C40DC60DC6801FA00F02043D8602F
:10A860000132102AE2D1BDE8F08F284A556C2C4302
:10A870005464C9E74FF003090CFA02F737EA050000
:10A8800033D15000D3F800A009FA00F4E4430AEAF7
:10A89000040AC3F800A0D3F800B006FA00FA4AEAA6
:10A8A0000B0AC3F800A0D3F808A004EA0A0AC3F808
:10A8B00008A0D3F808B00EFA00FA4AEA0B0AC3F867
:10A8C00008A0D3F804A02AEA07075F60D3F804A021
:10A8D00008FA02F747EA0A075F60DF683C40DC607D
:10A8E000DC6801FA00F02043D8600132102AC3D19D
:10A8F000BDE8F08F054A156B2C43146384E7034AC7
:10A90000156C2C4314647FE7304A06080038024077
:10A91000484B5B68C3F308032DE9F04FDBB9EFF355
:10A920001183C3B9444C454D454926688A6823685C
:10A930009E42FAD12B689A42F7D8DFF80CE1DEF894
:10A9400000504FF47A7101FB05F39B1AB3FBF5F34A
:10A9500001FB063624E0EFF31183102282F3128804
:10A9600002F1E022DBB29568116811F4803F3549AD
:10A970001CBF01240C60304C18BF956827680E6816
:10A9800083F31188DFF8C0E0DEF800104FF47A722C
:10A990003E4402FB01F35B1BB3FBF1F302FB063603
:10A9A000DFF89080264DDFF89C90244F4FF0100A7E
:10A9B0004FF47A7CD8F80430C3F30803CBB9EFF333
:10A9C0001183B3B92368A96822689342FAD13A681F
:10A9D0009142F7D8DEF800200CFB02FBABEB010143
:10A9E000B1FBF2F10CFB03139B1B8342E2D3BDE8E6
:10A9F000F08FEFF311818AF31288D5F808B02B6835
:10AA0000DB0304D50123C9F80030D5F808B023686A
:10AA1000D9F80020C9B281F31188DEF80010134480
:10AA20000CFB01F2A2EB0B02B2FBF1F20CFB0323D5
:10AA3000DAE700BF00ED00E008BE002010BE0020F5
:10AA400010E000E004BE00200CBE0020224B5B683A
:10AA5000C3F3080330B4D3B9EFF31183BBB91F4A72
:10AA60001F4D20481368846811688B42FAD1296809
:10AA70008C42F7D81C4A11684FF47A7202FB01F03D
:10AA8000001B30BCB0FBF1F002FB03007047EFF39A
:10AA90001182102383F3128803F1E023D2B29C6861
:10AAA000196811F4803F11491EBF012008609C689D
:10AAB0000A4B18680B6882F311880B4A11684FF42F
:10AAC0007A72034402FB01F0001B30BCB0FBF1F0D2
:10AAD00002FB0300704700BF00ED00E008BE00204D
:10AAE00010BE002010E000E00CBE002004BE0020DC
:10AAF00030B4EFF31181102383F312880E4A946867
:10AB0000136813F4803F0D4B1EBF0120186094683A
:10AB10000B4AC9B215681A6881F31188094B196884
:10AB20004FF47A702A4400FB01F31B1B30BCB3FBCB
:10AB3000F1F300FB0230704710E000E004BE00209B
:10AB400008BE00200CBE0020064B53F820302BB16D
:10AB50001A689B8851690B4201D113837047538354
:10AB6000704700BF18BE00202DE9F04FDFF834C158
:10AB7000494CDFF834E1DFF83481484E82464848DA
:10AB80001AF1FF3AC0F08680DCF80430C3F3080302
:10AB9000002B5ED1EFF31183002B5AD10568A26818
:10ABA00003689D42FAD133689A42F7D8DEF8007004
:10ABB0004FF47A7101FB07F39B1AB3FBF7F301FB28
:10ABC0000535DCF80430C3F308034FF010094FF4E7
:10ABD0007A77F3B9EFF31183DBB90368A1680268F0
:10ABE0009342FAD132689142F7D8DEF8002007FB91
:10ABF00002FBABEB0101B1FBF2F107FB03135B1BA3
:10AC0000B3F57A7FBCD2DCF80430C3F30803002B21
:10AC1000E0D0EFF3118189F31288D4F808B02368EB
:10AC2000DB0304D50123C8F80030D4F808B003686A
:10AC3000D8F80020C9B281F31188DEF8001013445F
:10AC400007FB01F2A2EB0B02B2FBF1F207FB0323BD
:10AC5000D5E7EFF31183102282F31288A1682268EE
:10AC6000D20303D50122C8F80020A168D0F80090D3
:10AC7000D8F80050DBB283F31188DEF800704FF48F
:10AC80007A724D4402FB07F35B1AB3FBF7F302FB46
:10AC9000053596E7BDE8F08F10E000E010BE00201B
:10ACA00008BE002000ED00E00CBE002004BE002025
:10ACB000154B1B6870B533B31448154E16F068FF7A
:10ACC00016F083FF1AF018FD00241AF007FD054660
:10ACD00048B1132026F0DCFE16F056FF0D48BDE803
:10ACE000704016F055BF304618F014FE782C06D888
:10ACF000013416F06AFF6420FFF736FFE5E716F02F
:10AD000043FF2C46F5E770BD302B00208A60060813
:10AD1000A8B20608A460060830B4EFF3118310222D
:10AD200082F31288084809490268094D094C01322A
:10AD300002608A682A6000222260DBB20A6883F31C
:10AD4000118830BC704700BF08BE002010E000E052
:10AD500010BE002004BE002038B52C4BDC69E26B2D
:10AD6000236E002A30D0226CC2B1998A1A88CD078E
:10AD700092B204D5100744BF4FF6F7721A80998932
:10AD80001A88C90692B201D5D20600D438BD626BCA
:10AD90000AB19047236E1A889B8838BD99891A8812
:10ADA000090692B2E1D51206DFD5D4E909128A422A
:10ADB00018D0A1692569885C98800132B2FBF5F151
:10ADC00005FB1122A262D0E799891A888D0692B2FA
:10ADD000C9D59006C7D5E26A4AB19888216B9047D9
:10ADE000236EC0E7DA6822F08002DA60BDE79B8854
:10ADF000E2696169DBB28B54E269E068236E01327B
:10AE0000B2FBF0F100FB1122E261ACE7140000108C
:10AE100038B52C4B1C69E26B236E002A30D0226CB3
:10AE2000C2B1998A1A88CD0792B204D5100744BFDF
:10AE30004FF6F7721A8099891A88C90692B201D51D
:10AE4000D20600D438BD626B0AB19047236E1A88CF
:10AE50009B8838BD99891A88090692B2E1D51206F5
:10AE6000DFD5D4E909128A4218D0A1692569885C26
:10AE700098800132B2FBF5F105FB1122A262D0E706
:10AE800099891A888D0692B2C9D59006C7D5E26A0B
:10AE90004AB19888216B9047236EC0E7DA6822F0A8
:10AEA0008002DA60BDE79B88E2696169DBB28B549E
:10AEB000E269E068236E0132B2FBF0F100FB11227F
:10AEC000E261ACE71400001038B52C4B9C68E26BD3
:10AED000236E002A30D0226CC2B1998A1A88CD071D
:10AEE00092B204D5100744BF4FF6F7721A809989C1
:10AEF0001A88C90692B201D5D20600D438BD626B59
:10AF00000AB19047236E1A889B8838BD99891A88A0
:10AF1000090692B2E1D51206DFD5D4E909128A42B8
:10AF200018D0A1692569885C98800132B2FBF5F1DF
:10AF300005FB1122A262D0E799891A888D0692B288
:10AF4000C9D59006C7D5E26A4AB19888216B904767
:10AF5000236EC0E7DA6822F08002DA60BDE79B88E2
:10AF6000E2696169DBB28B54E269E068236E013209
:10AF7000B2FBF0F100FB1122E261ACE7140000101B
:10AF8000002A12DD70B504460D468E18236820464F
:10AF90009B6898470028F9D0236815F8011B1B68A7
:10AFA00020469847B542F1D170BD70470368DB6A0F
:10AFB00003B11847704700BF03689B6A03B1184785
:10AFC000704700BF03682DE9F0415D6A1DB12B4653
:10AFD000BDE8F0411847002A174611DD04460E4629
:10AFE0000F4400E023689B68204698470028F9D06A
:10AFF000236816F8011B1B6820469847BE42F1D112
:10B00000BDE8F08103689B69184700BF03685B696E
:10B01000184700BF0368DB68184700BF03689B68D8
:10B02000184700BF03685B68184700BF03681B68C8
:10B03000184700BF38B50C46097849B105460134B8
:10B040002B6828461B68984714F8011B0029F7D184
:10B0500038BD00BF10B5084C236893F82D2012B1FD
:10B06000DB68984700B910BD044A236812681A6368
:10B07000012283F82E2010BDD02C001008BE002025
:10B0800010B5054C23681B6998472368002283F894
:10B090002E201A6310BD00BFD02C001010B5084C34
:10B0A00023689B6A98472368002283F82E201A633E
:10B0B00083F82D2040F2DC50BDE8104028E400BFAA
:10B0C000D02C001038B51A4B9B78012B05460C4646
:10B0D00029D1184B1B6833B3084616F083FC70B9AE
:10B0E000204617F0B5FE00F54373B3F5C36F044671
:10B0F00008D928461049BDE8384018F00DBB0F4B61
:10B10000B3F900400E4816F049FD0E4816F034FD24
:10B1100016F05BFD0C4B186824F07EFFFFF7BEFFB6
:10B1200020461AF04BF90948BDE8384016F036BD04
:10B130002C9C0020302B0020AA600608289C0020B0
:10B14000C2600608E2600608241E0020EE600608C1
:10B1500010B50409013C032C17D80E4B33F814200A
:10B1600000F00F0042FA00F313F001030FD00123A7
:10B1700003FA00F0013810404EF0B0FC064A074BCD
:10B18000125D104403EBC00010BD002010BD184636
:10B1900010BD00BF244A06082C4A0608C4B300208C
:10B1A0002DE9F041104D00242E1D4FF05208532779
:10B1B00015F8010BFFF7CCFF01342021E4B220B1D8
:10B1C00080F80680C471FFF707FB16F8010BFFF744
:10B1D000BFFF402118B18771C471FFF7FDFA042C3D
:10B1E000E6D1BDE8F08100BFE41900202DE9F04F61
:10B1F0004A484B494B4B4C4C4FF0010A4FF0020967
:10B200004FF004084FF0080E4FF0100C2027402696
:10B21000802530F8022B12F0010F03D01960A3F83B
:10B2200004A0083312F0020F03D01960A3F80490B1
:10B23000083312F0040F03D01960A3F80480083318
:10B2400012F0080F03D01960A3F804E0083312F0DD
:10B25000100F03D01960A3F804C0083312F0200FB8
:10B2600002D019609F80083312F0400F02D019609D
:10B270009E80083312F0800F02D019609D80083341
:10B2800012F4807F05D04FF4807B1960A3F804B0DE
:10B29000083312F4007F05D04FF4007B1960A3F847
:10B2A00004B0083312F4806F05D04FF4806B19603E
:10B2B000A3F804B0083312F4006F05D04FF4006B0C
:10B2C0001960A3F804B0083312F4805F05D04FF47E
:10B2D000805B1960A3F804B0083312F4005F05D056
:10B2E0004FF4005B1960A3F804B0083312F4804FE8
:10B2F00005D04FF4804B1960A3F804B00833D20B8B
:10B3000004D04FF4004219609A80083301F580613F
:10B31000A1427FF47EAFBDE8F08F00BF244A06084B
:10B3200000000240C4B300200010024000B9704782
:10B3300003682DE9F04F03F13F4404F57E04534EBA
:10B34000A40A0125345D04F01F066409032C05FAE4
:10B3500006F500F09580042C00F08D80022C45D07D
:10B360008588B5FA85F0C0F11F0080B2C40803EBF0
:10B37000840400F00700266A80000F27874026EA31
:10B3800007062662276A01F003068240701E3A43D0
:10B3900001282262C1F3810EC1F300184FF00002B0
:10B3A000C1F341114FF0010C25D94FF0030E0CFAF7
:10B3B00002F0A84315D150001F680EFA00F4E443D0
:10B3C00027401F60D3F8008006FA00F747EA080715
:10B3D0001F60DF683C40DC60DC6801FA00F020435D
:10B3E000D8600132102AE2D1BDE8F08F284C666C9B
:10B3F00035436564B4E74FF003090CFA02F737EA06
:10B40000050033D15000D3F800A009FA00F4E4435A
:10B410000AEA040AC3F800A0D3F800B006FA00FA5A
:10B420004AEA0B0AC3F800A0D3F808A004EA0A0A03
:10B43000C3F808A0D3F808B00EFA00FA4AEA0B0ADB
:10B44000C3F808A0D3F804A02AEA07075F60D3F87E
:10B4500004A008FA02F747EA0A075F60DF683C4089
:10B46000DC60DC6801FA00F02043D8600132102A69
:10B47000C3D1BDE8F08F064C266B354325636FE7DB
:10B48000034C266C354325646AE700BF304A060842
:10B490000038024008B53920FFF75AFE18B13E22A5
:10B4A00002238271C371064A936823F0784343F004
:10B4B000E04393600A210022BDE8084036E700BF60
:10B4C00000380240F8B50B4F97F82C3083B10A4C86
:10B4D0000025A6683079FFF73BFE217D327AFFF721
:10B4E00025FF97F82C300135AB4204F18C04F0DCD9
:10B4F0000120F8BD9C2C0010E073002038B1807949
:10B5000028B1A0F14100B0FA80F040097047012055
:10B51000704700BF10B1036882885A83704700BF2C
:10B5200010B1036882881A83704700BF18B103689E
:10B53000828809B95A8370471A8370470E4B1B885B
:10B5400001463BB90D4B0E4A1B7810680BB981F0D0
:10B550000101EBE70B4B5A691AB11A6810B9106078
:10B560005874704708480949008891FBF0F10120A0
:10B5700011605874704700BF24BE002026BE002012
:10B5800028BE00202CBE002044BE002020A10700C1
:10B5900010B40A4B0A4A1C7801238340234052F816
:10B5A000200029B9B3FA83F149095DF8044BBDE7DE
:10B5B000191C18BF01215DF8044BB7E714BE002029
:10B5C00018BE00202DE9F04F85B0CDE90210A94D3D
:10B5D000DFF8C4A2029B013B0293013300F0C98251
:10B5E00043F0F4FFA44CDFF8B4B2DFF8A8C2A34ED6
:10B5F0004FF4FA7301934FF0100EDCF80430C3F3EC
:10B600000803002B40F08B81EFF31183002B40F0F7
:10B6100086812068AA6823689842FAD133689A42E2
:10B62000F7D8DBF800704FF47A7101FB07F39B1A2F
:10B63000B3FBF7F301FB00304FF47A774FF00108CA
:10B64000DCF80430C3F30803002B40F04981EFF32A
:10B650001183002B40F044812368A968226893423B
:10B66000FAD132689142F7D8DBF8002007FB02F9E3
:10B67000A9EB0101B1FBF2F107FB03131B1AB3F5B0
:10B680007A7FDDD3019B013B0193B6D17C4E039BB6
:10B6900031787C4F01337868C1F34001DBB201930C
:10B6A000FFF744FF31783868C94301F00101FFF723
:10B6B0003DFF019B013BDBB2FF2B019300F0C781F3
:10B6C000704B5A6832B11368928859690A4214BFA4
:10B6D0005A831A836B4B1A6832B11368928859697E
:10B6E0000A4214BF5A831A83674B1B88002B40F011
:10B6F0009F81664A664B11781868FFF717FFFA2397
:10B700005E484FF0100C9E46624B5B68C3F3080323
:10B71000002B40F06381EFF31183002B40F05E813A
:10B720002168AA6823689942FAD103689A42F7D837
:10B73000DBF800704FF47A7606FB07F39B1AB3FB35
:10B74000F7F306FB01314FF47A76524B5B68C3F393
:10B750000803002B40F02281EFF31183002B40F00F
:10B760001D812368AF6822689342FAD1026897422C
:10B77000F7D8DBF8008006FB08F2D21BB2FBF8F228
:10B7800006FB03235B1AB3F57A7FDED3BEF1010E0D
:10B79000BAD13C4B5A6832B11368928859690A424F
:10B7A00014BF5A831A83374B1A6832B113689288D0
:10B7B00059690A4214BF5A831A83334B1B88002BE2
:10B7C00040F02C81314A324B1178186881F0010128
:10B7D000FFF7ACFEFA239E462E4B28485B68C3F366
:10B7E00008034FF0100C002B5AD1EFF31183002BFC
:10B7F00056D12168AA6823689942FAD103689A420F
:10B80000F7D8DBF800704FF47A7606FB07F39B1A43
:10B81000B3FBF7F306FB01314FF47A761D4B5B68FF
:10B82000C3F30803002B40F09980EFF31183002B42
:10B8300040F094802368AF6822689342FAD102688E
:10B840009742F7D8DBF8008006FB08F2D21BB2FB68
:10B85000F8F206FB03235B1AB3F57A7FDED3BEF161
:10B86000010E3FF426AF0B4B5B68C3F30803002BBC
:10B87000BBD015E010E000E008BE002010BE0020A4
:10B8800014BE002018BE002024BE002026BE0020CA
:10B8900028BE002000ED00E004BE00200CBE002009
