:020000040800F2
:10000000F0FF001079C70508790C010839BD010817
:1000100019C8050819C8050819C805080000000016
:10002000000000000000000000000000750C010846
:10003000710C0108000000006D0C01089DBD010855
:1000400019C8050819C8050819C8050819C80508F8
:1000500019C8050819C80508EDEB030819ED0308D0
:10006000DDEC0308A1EC030865EC0308D5C6040821
:10007000C5C60408B5C60408A5C6040891C6040888
:100080007DC6040869C6040819C8050819C805080A
:1000900019C8050819C8050819C8050829EC030876
:1000A000F5740108917A010825740108617B010843
:1000B000D17901081179010845780108EFD00408C9
:1000C000F5D00408E5D00408EBD0040819C80508E9
:1000D00019C8050865C00108A9BF0108EDBE0108DF
:1000E000B1EB030819C805081D5401085573010830
:1000F000C575010885720108A576010855C6040872
:1001000019C8050819C805087577010819C8050830
:1001100019C8050819C80508E51702086D16020870
:1001200041C604082DC6040819C6040805C60408FB
:10013000F1C5040819C8050819C8050819C8050833
:1001400019C8050819C8050819C80508712C01083F
:10015000DDC50408C9C50408B5C5040831BE0108D9
:10016000DBD00408E1D0040819C8050819C805083F
:1001700019C8050819C8050819C8050819C80508C7
:0801800019C8050819C805089B
:0801880020C305000100000086
:100190000702010002000000142000207824002043
:1001A00000000000100900081D0202000600000007
:1001B000E01F00207C240020000000000000000060
:1001C000060203000C000000FC1F0020842A00200F
:1001D00000000000C98D0008081203000F00000095
:1001E000EC1F0020902A002000000000A1860008DB
:1001F0002700010004000000281B0020A02A002086
:1002000000000000120900080B3001001A00000075
:1002100028610020887000200000000018090008F4
:100220001F3001002400000014580020A47000209A
:10023000000000003409000805020100040000006D
:10024000DC6D0020C8700020000000005809000884
:10025000030101000A00000080600020CC70002033
:100260000000000031EC000813020100040000004F
:10027000FC510020D8700020000000005C0900083C
:100280000D10010058000000A0620020DC7000206A
:1002900000000000FDF902080400080080000000D2
:1002A000F861002034710020000000000000000010
:1002B0000902010001000000006D0020B47100205F
:1002C000000000006009000828020400040000008B
:1002D000288400208C85002000000000058700088D
:1002E00027020400040000002484002090850020E0
:1002F00000000000F98600081A0201003C0000001E
:10030000E48200209485002000000000B1900008E5
:10031000031201003D000000D4830020D08500209E
:100320000000000062090008381001000100000010
:10033000D48100201086002000000000A0090008E1
:100340000A02010014000000EC8D002058910020EA
:1003500000000000D9DB0108F821010006000000C0
:10036000F89000206C91002000000000A209000815
:10037000030001000100000004910020749100209E
:10038000000000000000000010100100020000004A
:10039000DC8800207891002000000000A8090008F7
:1003A00025201E002C010000088E00207C910020DA
:1003B0000000000000000000012001000C0000000F
:1003C0006CA8002030AF002000000000AC0900083D
:1003D0000EF003009E010000B8A300203CAF0020F7
:1003E0000000000055D304081300010004000000C1
:1003F000F4AE0020DCB0002000000000B8090008C6
:100400000101010004000000F8A20020E0B000207B
:1004100000000000000000000001010004000000D6
:10042000F0A20020E4B0002000000000BC09000899
:100430000201010003000000ECA20020E8B000204F
:100440000000000079D50108220201001C01000013
:10045000BCAC0020ECB00020000000007D8F000844
:100460000C200600580200007CA5002008B20020E5
:100470000000000059D50108010201000B00000036
:1004800004A3002060B40020000000009186000852
:100490001B0201001000000034AB00206CB40020EF
:1004A00000000000098700081B1001000C0000007C
:1004B0002C9400207CB4002000000000617402082D
:1004C00021020100F0000000B092002088B400205A
:1004D0000000000041730208020001000C0000004F
:1004E00018B60020A8B600200000000000000000A0
:1004F000290201004000000080B50020B4B60020B1
:1005000000000000C00900082C00040010000000DA
:1005100074C3002064C3002000000000F14E0308F3
:100520002B00120024000000A8C3002084C3002078
:1005300000000000C14E03082920140078000000CC
:10054000B0C10020CCC3002000000000000000006B
:10055000F62101000C00000034C0002044C400203B
:1005600000000000000A00081C0202001C0000003D
:10057000C8BF002094C4002000000000FD8C0008CB
:100580002820010018000000E4BF0020B0C40020B3
:100590000000000055530308231201001000000062
:1005A00040C7002068CE0020000000000C0A0008B0
:1005B000051001000600000038C7002078CE00209A
:1005C000000000001C0A0008371001002E00000087
:1005D00014CE002080CE002000000000220A000877
:1005E0000E0201000200000034C70020B0CE00203F
:1005F00000000000500A000816100100060000006C
:100600002CC70020B4CE002000000000520A0008D1
:100610002F1001002200000044CE0020BCCE00209C
:1006200000000000580A00081E0001000900000038
:1006300050C60020E0CE0020000000007A0A00082A
:10064000F58101006800000054C50020ECCE0020B8
:100650000000000045720208232001001000000085
:10066000D8C6002054CF002000000000DD2F030872
:10067000FD0701007600000078CD002064CF002047
:1006800000000000C15C0208261001000E000000FE
:10069000ECCF0020DCCF002000000000352904084A
:1006A000140001000400000044CB0020FCCF002017
:1006B00000000000840A0008100201000100000090
:1006C00018E4002014E4002000000000880A00085C
:1006D0001900010005000000ECE9002034EA0020C8
:1006E000000000008A0A00081A0001000E00000045
:1006F000B8E800203CEA002000000000900A000852
:10070000203201000A000000A8E700204CEA002087
:100710000000000035D30408150010007000000030
:100720003CE5002058EA0020000000000000000026
:100730002A0008006000000020E90020C8EA00202C
:10074000000000000DD30408FD010100240000009A
:1007500050000120B80001200000000017560108D9
:10076000182001003200000018000120DC000120E8
:100770000000000035900008FB01010001000000AE
:10078000D8FF00201001012000000000E98E0008C1
:10079000FC01010009000000A4FE0020140101205A
:1007A00000000000F98E0008F701010006000000BB
:1007B0009CFE002020010120000000009E0A00088D
:1007C000F90101000400000098FE0020280101202A
:1007D00000000000E9B90308160215003F00000000
:1007E00030EF00202C01012000000000C58F000820
:1007F0003400010010000000C4FD00206C01012045
:100800000000000085D30408110201000800000068
:100810009CFD00207C01012000000000A40A0008CB
:10082000121201000400000094FD00208401012048
:1008300000000000AC0A00080A8001002800000047
:100840006CFD00208801012000000000C52E030877
:10085000061001001C00000014EF0020B001012070
:1008600000000000158F0008122001001100000098
:10087000ACFC0020CC01012000000000B00A000800
:10088000000201000B000000E8F90020E001012057
:100890000000000000000000FA0101000300000059
:1008A00078F30020EC01012000000000858600089C
:1008B00002020100030000000CEF0020F001012003
:1008C00000000000000000000C0201000400000015
:1008D000ECEE0020F4010120000000006D8600080D
:1008E0001F0208001000000000F30020F8010120A2
:1008F0000000000049860008FE010100140000000D
:10090000D0F100200802012000000000218600082C
:10091000023C200300000000AE014A015E012C01F0
:1009200064000200000001000A019A01001E0A0092
:1009300000020000000000000001000000050000AF
:1009400001020300000000000000000000000000A1
:1009500000000000008007000000000000000135DA
:10096000280000000000000000000000000000005F
:100970000000000000000000000000000000000077
:100980000000000000000000000000000000000067
:100990000000000000000000000000000000010056
:1009A00000000101F401140000050000E8036400E8
:1009B000040A000114001E000804443090010000E5
:1009C0000000000000000000000000000000000027
:1009D0000000000000000000000000000000000017
:1009E0000000000000000000000000000000000007
:1009F00000000000000000000000000000000000F7
:100A000000000000010000000202000000000000E1
:100A100000000000000000000000000020000101B4
:100A2000000020003200C800D007960014003200F9
:100A300028004C0440060005500014000F00080078
:100A400064000100010005000A000000F4019600A6
:100A50000000C409000019000000000000000000B0
:100A60000000000000000000000000000000000086
:100A70000000000000000000000000050100000070
:100A80000000000003000023000000002801000017
:100A90007E05EA05B4053200E803D0070000240112
:100AA000000000000000000001010101FFFFFFFF46
:100AB0000000000100000542464634000008000224
:010AC0000035
:100AC1001A03000000000000000000000000000008
:100AD1000000000000000000000000000403090401
:100AE10012010002000000408304205700020102AD
:100AF1000301000041910008518700084D8700085B
:100B0100498700088D910008458700084187000842
:100B1100B80A06081D2001086DE50008051F010837
:100B21000000000000000000551401087D140108B8
:100B3100000000000000000000000000CDE30008FC
:100B4100E9870008DD870008C1960008DD960008E6
:100B510095870008A5960008899600081F000000E7
:100B61001C0000001F0000001E0000001F0000000C
:100B71001E0000001F0000001F0000001E000000FA
:100B81001F0000001E0000001F0000000068214C33
:100B910058140608FF010000F4010000FF000000E6
:100BA1000403090412010002EF02014083045632DA
:100BB10000020102030100001201000202020040D2
:100BC10083044057000201020301000009022000D2
:100BD100010104C03209040000020806500507059E
:100BE1008102400000070501024000000902640083
:100BF100030100C0320904000001030000000921C3
:100C0100110100012236000705830309000A080BC0
:100C110001020202010009040100010202010005B2
:100C21002400100105240100020424020205240607
:100C31000102070582030800FF09040200020A00FD
:100C41000000070501024000000705810240000085
:100C510009024300020100C032090400000102023E
:100C610001000524001001052401000104240202F1
:100C71000524060001070582030800FF090401009D
:100C8100020A000000070501024000000705810279
:100C910040000000FF00000000FF00000000000015
:100CA1000000AA550701000001AA5505010000082E
:100CB10018160608FF1FFF1F0000803F05010905E8
:100CC100A101A100050109300931093209330935B2
:100CD1000934093609371581257F75089508810280
:100CE10005091901290815002501950875018102D9
:100CF100C0C0000009022200010100E03209040025
:100D0100000103010200092111010001223600073F
:100D110005830309000A000000000000010203042A
:100D21000102030406070809A9160108711D01083B
:100D3100ED18010859E400087DE6000869E400089F
:100D410085E4000831E4000821E400080000000007
:100D5100000000002D202D2D202D2D2D2D202D2D9D
:100D61002D2D000000000000000000000000000028
:100D7100000000AA550B010000AA5505010000AAB8
:100D8100550902000000AA5503009F000100000060
:100D9100C012000058700020000000008070002088
:100DA10000000000685E0C0002FF00000000FA4332
:100DB1000000FA430000803F000000000000000036
:100DC1000000000049FD02080000000000000000D2
:100DD10000000000FFFFFFFF00000000489100201D
:100DE1000800000000000000389100200800000009
:100DF1000000803F00000100E00101FF0100000050
:100E0100096902080000000000000000EC3006083B
:100E11000000000000000000000000002837060864
:100E2100000000000000000000000000E03706089C
:100E31000000000000000000000000008C370608E0
:100E4100080000000000000000000000619E020890
:100E5100B3AB00200101FF00FFFFFFFF51C60208F5
:100E61000000000000000000B43806088DC9020827
:100E710000000000000000006C3806082D202D2D18
:100E8100202D2D2D2D202D2D2D00000000000000E6
:100E91000000000000000000000000000000000051
:100EA100000000000000000028380608886D0020BE
:100EB1009CFF2C01000000006CAE0020E0150C1717
:100EC10000000000B1AB00200200000060380608FD
:100ED100E0A2002088136F1701000000E2A20020A9
:100EE10088136F17000000007260002000000000EE
:100EF1000000000070600020000000000000000001
:100F01006E60002000000000000000006C60002006
:100F110000000000000000006A60002000000000E6
:100F210000000000686000200000000000000000D8
:100F310058040020000000000000000069A2002009
:100F41000300000050390608D8A2002088136F174B
:100F510001000000D26D002088136F17000000000F
:100F6100D96902080000000000000000603906088D
:100F7100B2AB002001000000B4390608D46D002096
:100F810001000000C0390608CA6D002002000000FF
:100F9100C839060800000000000000000000000041
:100FA100D4390608C16902080000000000000000F1
:100FB100703A060800000000000000000000000078
:100FC100C43A060800000000000000000000000014
:100FD100343B0608E4A20020020000006C3B060836
:100FE100CE6D0020E0150C1700000000E5E90008B7
:100FF100B1E50008C9180108000000001DE400085F
:101001007D20010899E9000801160108000000008F
:1010110000000000D9E300086DE3000861E3000867
:101021001D0D0108390D0108010D0108E50C01082C
:10103100C90C01089DE900088DE50008091801089F
:1010410000000000F1E30008051601086DE9000841
:10105100611501080000000000000000E5E3000840
:1010610028B900207CB90020D60101FFFFFFFFFF56
:10107100EDAC02080000000000000000E057060887
:1010810001000000FA000000010000000100000062
:1010910001000000000101010000000066A800201D
:1010A1000000F4010100000064A800200000F40128
:1010B1000100000062A800200000F401010000000E
:1010C10060A800200000F401010000005EA80020DB
:1010D1000000F401010000005CA800200000F40100
:1010E100010000005AA800200000F40101000000E6
:1010F100D97002089D70020800000000FC43060838
:101101004AA800200532010058A800206400F4011B
:101111000100000056A800206400C409010000007D
:1011210048A80020E803D0070100000046A80020DD
:10113100E803D0070100000044A80020E803D0071D
:101141000100000042A800201E00B80B01000000B1
:1011510050A8002005000F000100000052A8002047
:1011610003000A000100000040A800201E00F40155
:101171000100000054A80020020000008844060875
:101181003EA8002014006400010000004CA80020CB
:101191003200E803010000003CA800200000C80064
:1011A1000100000079A5002000C8010078A50020F9
:1011B1000050010077A50020005A010075A500200C
:1011C1000200000094440608DCB40608E4B40608F2
:1011D1001E6300200100C409000000001C63002000
:1011E1000100C409000000001A6300200100C409C5
:1011F10000000000186300200100C4090000000085
:10120100146300200100C4090000000016630020DF
:101211000100C40900000000126300200100C4099C
:1012210000000000106300200100C409000000005C
:1012310023A3002000C8010022A3002000C8010050
:1012410020A300200000FFFF0A0000001EA30020D1
:101251000100C800010000001CA30020320030750D
:10126100320000001AA300200582050018A3002007
:1012710005002C010500000017A30020055A0500F8
:1012810014A3002000FF010016A3002002000000AB
:101291009008002012A30020030000001886060811
:1012A10013A3002000FF010015A30020020000008D
:1012B1009008002011A300200300000018860608F2
:1012C1002D700208BD6F020800000000A04406084E
:1012D1007CA80020EE02CA08010000007AA80020C4
:1012E10000C801006400000079A8002000C80100C6
:1012F1006400000078A8002002000000AC45060848
:10130100FEA200200000803E05000000FCA200209B
:1013110080C1803E05000000F6A200200083007D10
:1013210005000000F4A2002080C1803E05000000FD
:10133100EFA2002000FF0100E8A200206400F401F8
:1013410001000000E6A2002004000000B8450608E4
:10135100E5A2002002000000CC450608A9A3002058
:101361000D000000D8450608A6A300200064010076
:10137100A4A30020320010270A000000A2A300202D
:101381000D000000D8450608A1A300200D000000B3
:10139100D8450608A0A30020020000001046060858
:1013A1000000000000000000000000001C460608CC
:1013B10082A800203E0000005446060880A80020B4
:1013C1000100FF7F010000007FA800200200000053
:1013D1005047060838A8002000001900010000004D
:1013E10036A800200000F4010100000034A800200C
:1013F1000000102701000000ABA300200300000043
:1014010060470608AAA30020030000006047060801
:1014110066A50020000A010064A500200000E80381
:101421000100000062A500200000E80301000000A7
:1014310060A500200000E803010000005EA5002077
:101441000000E8030100000056A500200000E803A9
:10145100010000005CA500200000E803010000007D
:101461005AA500200000E8030100000058A5002053
:101471000014010074A50020020000007047060856
:1014810072A500200000F4010100000070A50020F9
:101491000000F401010000006EA500200000F4012D
:1014A100010000006CA500200000F4010100000013
:1014B1006AA500200000A00F0100000068A500201F
:1014C1000000A00F01000000E7A70020196401003F
:1014D100E6A70020020000007C470608E4A70020E0
:1014E100E803D0070A000000E2A700200064010021
:1014F1000A000000D7A7002000640100D6A7002041
:1015010000640100DEA70020006401000A00000061
:10151100DDA70020006401000A000000DCA7002014
:10152100006401000A000000E1A7002000FF0100A3
:101531000A000000E0A7002000FF01000A000000EF
:10154100DFA7002000FF01000A000000DBA7002048
:1015510001FF01000A000000DAA7002001FF0100DD
:101561000A000000D9A7002001FF01000A000000C5
:10157100B4A300200000F40101000000B2A3002088
:101581000000A00F01000000B0A300200000A00F88
:1015910001000000AEA300200000A00F0100000028
:1015A100ACA300200000A00F01000000FBAB002055
:1015B10000C80100FAAB002000640100F9AB002073
:1015C10000640100F8AB002000640100F7AB0020CB
:1015D10000640100F6AB0020FF080100F5AB00201C
:1015E10001640100356F0208F96E02080000000075
:1015F10088470608FEAB002001320100FDAB002048
:1016010001000000F8470608FCAB002004000000C0
:1016110000480608F4AB002000640100F2AB002092
:101621001400E80301000000F0AB0020E80330756E
:101631000A000000EFAB002000C80100EEAB002063
:1016410000C80100EDAB002000C80100ECAB002098
:101651000032010000AC0020004B0100FFAB002074
:101661000400000014480608EBAB002000640100F0
:101671000A0000000EAC00200000D00701000000AD
:1016810009AC002000C8010008AC002000C801001E
:1016910007AC002000C801000CAC00200000D007FE
:1016A1000100000006AC002000C8010005AC0020CC
:1016B10000C8010004AC002000C801000AAC0020F1
:1016C1000000D0070100000003AC002000C80100A9
:1016D10002AC002000C8010001AC002000C80100DC
:1016E100116D0208F96C0208000000002848060884
:1016F1009DA30020005A01009CA3002000C8010006
:101701009AA30020E803D0070100000000000000B8
:1017110000000000A19E0208C44806084245544149
:10172100464C4947485446340000000010A30020AD
:10173100000301000FA3002000030100356C020823
:10174100E96B02080000000018490608A96B0208AD
:10175100616B020800000000B4490608816C0208B0
:10176100F9B1020800000000344A060800A3002075
:101771000103010081710208557102080000000097
:101781008C4D0608E56A0208996A0208000000000B
:10179100FC4D0608216D020849D502080000000031
:1017A100984E060881B00208AD71020800000000E1
:1017B100404F060829DB0208716F02080000000093
:1017C100CC4F0608716D0208000000000000000007
:1017D10020500608296E0208D16D020800000000A1
:1017E10084500608BD6E0208816E020800000000E8
:1017F1002C51060829DB0208716F02080000000065
:10180100B85106083BA8002001060100A96D020895
:10181100816D020800000000B45206085FDA020878
:1018210065AE0208000000002453060861DB0208CF
:1018310029AF020800000000745406083AA80020ED
:1018410001030100C96C0208996C02080000000044
:1018510048550608B9DB020800000000000000003E
:10186100AC550608316B0208D5AC02080000000037
:101871002C560608000000000000000000000000D7
:10188100B8560608956F0208A1AF020800000000D3
:1018910028570608FFFF0000FFFFFFFF500D070854
:1018A100000008020503030000000000580D0708AE
:1018B10001000802050403000000000080AB0608D7
:1018C1000200FE01011003000000000058B80608E4
:1018D100030014020003000000000000600D07086F
:1018E10004001F020200080000000000680D070844
:1018F10005001F0202010800000000007EFF000039
:10190100FFFFFFFF01000000A00F0000EC0D070822
:10191100D417070800000000E9D50108A0860100DE
:1019210004000000000000000000000000000000B2
:1019310000000000000000000000000000000000A6
:10194100000000000000000000000000EC0D07088E
:101951003C18070800000000AD540108E80300002E
:101961000400000000000000000000000000000072
:101971000000000000000000000000000000000066
:10198100000000000000000000000000B4BA0608DA
:101991000000000000000000F5D601087D000000F5
:1019A100FF00000000000000000000000000000037
:1019B1000000000000000000000000000000000026
:1019C1000000000000000000000000005C1107089A
:1019D100000000000000000055EB01087D00000040
:1019E100FF000000000000000000000000000000F7
:1019F10000000000000000000000000000000000E6
:101A0100000000000000000000000000A4BD060866
:101A11000000000000000000DD3002087D00000031
:101A2100FF000000000000000000000000000000B6
:101A310000000000000000000000000000000000A5
:101A410000000000000000000000000058BB060874
:101A51000000000000000000895C0108E8030000AC
:101A61000300000000000000000000000000000072
:101A71000000000000000000000000000000000065
:101A810000000000000000000000000044180708EA
:101A910000000000000000002D560508102700007E
:101AA1000300000000000000000000000000000032
:101AB1000000000000000000000000000000000025
:101AC1000000000000000000000000005C0D07089D
:101AD10000000000E54A03086D8B01085F760000F5
:101AE10005000000000000000000000000000000F0
:101AF10000000000000000000000000000000000E5
:101B010000000000000000000000000000110708B4
:101B1100000000000000000005C3010810270000BC
:101B210001000000000000000000000000000000B3
:101B310000000000000000000000000000000000A4
:101B4100000000000000000000000000501807081D
:101B51000000000000000000B1540108E80300008B
:101B6100050000000000000000000000000000006F
:101B71000000000000000000000000000000000064
:101B81000000000000000000000000005C180708D1
:101B9100000000000000000039DE0108204E0000B6
:101BA1000300000000000000000000000000000031
:101BB1000000000000000000000000000000000024
:101BC1000000000000000000000000006C18070881
:101BD100000000000000000015DC0108204E00009C
:101BE10003000000000000000000000000000000F1
:101BF10000000000000000000000000000000000E4
:101C01000000000000000000000000007C18070830
:101C1100000000000000000085620108400D030083
:101C210003000000000000000000000000000000B0
:101C310000000000000000000000000000000000A3
:101C410000000000000000000000000048B206088B
:101C510000000000000000003DFB0208102700000A
:101C61000100000000000000000000000000000072
:101C71000000000000000000000000000000000063
:101C8100000000000000000000000000D4B00608C1
:101C91000000000000000000F97F0208102700008A
:101CA1000300000000000000000000000000000030
:101CB1000000000000000000000000000000000023
:101CC1000000000000000000000000008C18070860
:101CD100000000000000000025850308A086010027
:101CE10001000000000000000000000000000000F2
:101CF10000000000000000000000000000000000E3
:101D0100000000000000000000000000BCB906084F
:101D11000000000000000000155B010850C3000036
:101D210001000000000000000000000000000000B1
:101D310000000000000000000000000000000000A2
:101D410000000000000000000000000064B7060869
:101D5100000000000000000015570108A861000004
:101D61000100000000000000000000000000000071
:101D71000000000000000000000000000000000062
:101D81000000000000000000000000009418070897
:101D9100000000000000000015D60208A086010026
:101DA1000100000000000000000000000000000031
:101DB1000000000000000000000000000000000022
:101DC10000000000000000000000000070B20608E2
:101DD1000000000000000000C5560108A00F00002F
:101DE10001000000000000000000000000000000F1
:101DF10000000000000000000000000000000000E2
:101E0100000000000000000000000000A01807080A
:101E1100000000000000000091D00208102700001F
:101E210001000000000000000000000000000000B0
:101E310000000000000000000000000000000000A1
:101E4100000000000000000000000000B8C5060806
:101E51000000000000000000058204081A41000093
:101E61000100000000000000000000000000000070
:101E71000000000000000000000000000000000061
:101E810000000000000000000000000024B7060868
:101E9100000000000000000069EC000810270000AD
:101EA1000100000000000000000000000000000030
:101EB1000000000000000000000000000000000021
:101EC100000000000000000000000000E01707080B
:101ED10000000000000000009166030850C30000EC
:101EE10001000000000000000000000000000000F0
:101EF10000000000000000000000000000000000E1
:101F0100000000000000000000000000AC180708FD
:101F110000000000000000006DF40008400D030007
:101F210000000000000000000000000000000000B0
:101F310000000000000000000000000000000000A0
:101F4100000000000000000000000000B4180708B5
:101F5100000000000000000069540108400D03006A
:101F61000000000000000000000000000000000070
:101F71000000000000000000000000000000000060
:101F8100000000000000000000000000BC1807086D
:101F91000000000000000000FDB7020850C300006F
:101FA100030000000000000000000000000000002D
:101FB1000000000000000000000000000000000020
:101FC100000000000000000000000000C818070821
:101FD1000000000000000000C92A020840420F0072
:101FE10000000000000000000000000000000000F0
:101FF10000000000000000000000000000000000E0
:10200100000000000000000000000000D4180708D4
:102011000000000000000000EDDC020850C30000D9
:1020210000000000000000000000000000000000AF
:10203100000000000000000000000000000000009F
:10204100000000000000000000000000B80B0000CC
:102051000102FFFF01010100FFFFFFFF0000803FC0
:102061000000000000000000000000000000803FB0
:10207100000000000000000000000000000000005F
:10208100000000000000000000000000000000004F
:10209100000000000000803F000000000000000080
:1020A1000000000001000000080000000000040121
:1020B1000000000000000002100000000700000006
:1020C1007D0000000060024010600240000000003E
:1020D10000000000000B00000000000000000000F4
:1020E1000000000000600240286002400100000082
:1020F10000000000060C00000000000000000000CD
:102101000000000000600240406002400200000048
:1021110000000000100D00000000000000000000A1
:10212100000000000060024058600240030000000F
:1021310000000000160E000000000000000000007A
:1021410000000000006002407060024004000000D6
:1021510000000000200F000000000000000000004F
:10216100000000000060024088600240050000009D
:102171000000000026100000000000000000000028
:102181000000000000600240A06002400600000064
:1021910000000000301100000000000000000000FD
:1021A1000000000000600240B8600240070000002B
:1021B10000000000362F00000000000000000000B9
:1021C10000000000006402401064024000000000B2
:1021D10000000000003800000000000000000000C6
:1021E1000000000000640240286402400100000079
:1021F100000000000639000000000000000000009F
:10220100000000000064024040640240020000003F
:1022110000000000103A0000000000000000000073
:102221000000000000640240586402400300000006
:1022310000000000163B000000000000000000004C
:1022410000000000006402407064024004000000CD
:1022510000000000203C0000000000000000000021
:102261000000000000640240886402400500000094
:1022710000000000264400000000000000000000F3
:102281000000000000640240A0640240060000005B
:1022910000000000304500000000000000000000C8
:1022A1000000000000640240B86402400700000022
:1022B10000000000364600000000000000000000A1
:1022C100000000005DE3000859E3000855E3000841
:1022D10049E3000845E3000851E300084DE3000825
:1022E10001010000B0190020000000000000000002
:1022F10000000000000000000000000000000000DD
:1023010000000000000000000000000000000000CC
:1023110000000000000000000000000000000000BC
:1023210000000000000000000000000000000000AC
:10233100000000000000000000000000000000009C
:08234100000000000000000094
:082800000000000000000000D0
:1080000090ED057A90ED004AD0ED066AD0ED014A78
:10801000D0ED047A90ED035AD0ED025AA4EE007A26
:10802000B0EE406AB0EE470AB0EE667AA4EE867A09
:1080300067EEC07AA5EE407AE5EE867A80ED057AA5
:10804000C0ED067A704700BFD0ED057A90ED013A99
:10805000D0ED003AD0ED064A90ED024A90ED077A55
:1080600090ED035A90ED086AD0ED045AC0ED067AFF
:10807000F0EE406A27EE830AC0ED056AA3EEA60A79
:1080800080ED087AA4EE240AA5EE470AA5EEC60AFA
:1080900080ED070A704700BFDFED2B7AB4EEE70AE8
:1080A000F1EE10FA4ADDDFED296A9FED297A01E051
:1080B000B0EE670AB4EEC70AF1EE10FA70EE667A17
:1080C000F6DC9FED247AF4EEC77AF1EE10FA38D59B
:1080D000DFED1E6A9FED207A01E0F0EE407AF4EECB
:1080E000C77AF1EE10FA37EEA60AF6D4DFED1B7A66
:1080F000B4EEE70AF1EE10FA14DDDFED137A37EE95
:10810000C00A60EE006A9FED166A9FED167ADFEDF9
:10811000167AA6EE867A20EE266AE6EE877AA6EE34
:10812000270A7047DFED117AB4EEE70AF1EE10FA94
:1081300044BFDFED087A37EEC00AE2E7F0EE407A9E
:10814000BFE7B0EE670AD1E7DB0F4940DB0FC9405C
:10815000E4CB1641DB0F49C0E4CB16C1DB0FC93FAE
:1081600092E741B99730083C15A82ABEDB0FC9BF7A
:10817000D0ED007A90ED017A30EE670AE7EE007AF2
:10818000B0EE670AC0ED007A704700BF704700BFCD
:108190000028F0B403DA2D230B7040420131092886
:1081A00004464FF0010307DD03EB83035B00B0FBE4
:1081B000F3F2092AF8D883B10F48A0FB0326B4FBD9
:1081C000F3F2092A02F1570C02F1300709DD03FB33
:1081D0001244F30801F801CBEFD100230B70F0BC7F
:1081E000704703FB1244F30801F8017BE5D100233B
:1081F0000B70F0BC704700BFCDCCCCCC884270B4C3
:108200004FF0010442D301FB04F4B0FBF4F58D42BE
:10821000F9D2ECB142BB092D04FB150005F157065C
:1082200005F130020EDDB4FBF1F403F8016B7CB113
:10823000B0FBF4F5092D04FB150005F1570605F117
:108240003002F0DCB4FBF1F403F8012B002CEFD189
:1082500000221A7070BC704703F8016BB4FBF1F494
:10826000002CF5D0B0FBF4F5092D04FB150005F149
:10827000370605F13002EFDCB4FBF1F403F8012B13
:10828000002CEFD100221A7070BC70470546002AFE
:10829000EAD1C0E70388B3F5FA6F17D38378013BBF
:1082A0000B2B13D8C378013B1E2B0FD80379172B48
:1082B0000CD843793B2B09D883793B2B06D800890E
:1082C000B0F57A7F2CBF0020012070470020704756
:1082D0002DE9F04714461D4606464FF47A720023F6
:1082E0002046294654F07CF84D4BDFF848814D4A32
:1082F0004D4F034488FB03101844D91782FB032C0D
:10830000C1EB601088FB002887FB03279C44474A89
:10831000C1EBEC2CC0EB001E82FB0C29A3EB8E0EF4
:108320001F44434A86F806E0C1EB27474FEAEC7E3C
:1083300008EB000ACEEBA90E82FB07824FEAE07839
:108340000EEB4E0EC8EB6A18ACEBCE0CC8EB08185F
:10835000DFF8E4E086F804C0A0EB880070718EFBC3
:108360000303F817C0EBE21240F2B55000FB1272A3
:10837000C1EBE353B2F5896F4FEA83073CDA40F271
:10838000DA239A4242DCB2F5B77FB4BF4FF0000E59
:108390004FF0010E4FEA4E09DFF8A08009EB0E0303
:1083A00008EBC3031FFA8EFCD88A09EB0E0108EB19
:1083B000C10116310B2301E031F8020D904218DDA6
:1083C000013BF9D1CE44012338F83E00B37007F5E4
:1083D000FA670132121ABC44F270A6F800C02046B7
:1083E00029464FF47A72002353F0FAFF3281BDE838
:1083F000F0870133DBB2E9E74FF0030CE64640F2C9
:108400009650DFF838804FF00609CEE74FF0020CA7
:10841000DFF82880E64640F229404FF00409C4E71F
:1084200080BC92C7C5B3A29107452EC2ABAAAA2AA7
:1084300073B06D1689888888792D03113C0606086B
:1084400003685A1C02601970704700BF2DE9F0479D
:10845000089C2578002B804689460CBF4FF0200AE7
:108460004FF0300A661C25B3002A26DD334601E0B2
:10847000024698B113F8011B501E0029F8D1971E2F
:1084800060B13D46013D51464046C8476B1C002B3C
:10849000F8DC257827EAE770013045B1041B29464E
:1084A0004046C847301916F8015B002DF7D1BDE8EA
:1084B000F087002A03DC2846F9E70020EEE7571E84
:1084C000DFE700BFD0ED005A9FED530A35EE800A7A
:1084D00008B5FDEEC07A2DED028B17EE903A2033F1
:1084E000402B40F294809FED4D5AFDEEE57A17EE59
:1084F000903A2033402B40F28380DFED485AD0ED94
:10850000014A9FED450A34EE800AFDEEC07A17EE6F
:10851000903A2033402B6AD99FED402AB0EE421AA0
:10852000B0EE424AFDEEE47A17EE903A2033402B4B
:1085300056D9DFED3A3AD0ED022A9FED370A32EEF6
:10854000800AFDEEC07A17EE903A2033402B3AD9DC
:10855000DFED324AB0EE643AF0EE640AB0EE648ABF
:10856000F0EE641AFDEEE27A17EE903A2033402BDB
:1085700024D99FED2A0AC1ED001A20EE057A60EE9B
:10858000257AE7EE234A37EE087ABDEC028BA7EE98
:10859000E33A24EE404A77EEE07AC1ED074A81EDF6
:1085A000037A81ED043AC1ED067A81ED014AC1ED0D
:1085B000023A81ED051A81ED082A08BDB0EE620A83
:1085C000FFF76AFDD7E7FFF767FD60EE254A20EE6B
:1085D000053A23EEA48A60EE041A63EE830AC1E72B
:1085E000B0EE640AFFF758FDF0EE403AA3E7FFF75C
:1085F00053FDB0EE404A25EEC01A20EE052A91E761
:10860000B0EE650AFFF748FDF0EE405A77E7FFF756
:1086100043FDB0EE405A68E7DB0FC93F00000000A1
:1086200030B43223012231254FF60174FF2143700B
:1086300000234571048281740272027002714381C9
:108640008381C38130BC7047034600F11001FF22D3
:108650001A705A7002338B42FAD1027042708270E3
:10866000C270027142718272C272704710B42C21C2
:10867000012402220023047041708270C3705DF8EF
:10868000044B70471F22032302704370704700BFE2
:10869000002302220271037043708370C37070471D
:1086A000144BFF22F0B54FF0FF34C270027102721A
:1086B00042724273827303F10C0EA44617271626EA
:1086C0001525002202EB820281189E4585544E70CA
:1086D0008F7081F803C00C710AD093F90620DD7900
:1086E0001E7A5F7A93F90AC093F90B400633E9E7E3
:1086F000F0BD00BF9C060608002303704370837022
:10870000C3707047F8E700BF002306214FF47A7268
:108710000170C0E901230373704700BF30B41D69C5
:1087200095420AD314460A4621448D42996938BFBE
:108730002A1B214430BC54F031BE30BC704700BF0E
:1087400000207047012070470120704700207047CB
:108750004FF40070024B10609B680B600020704764
:10876000B0F90020013A30B4D2B28C1C04EB4204C0
:108770000025020F092AD3B203F130028ABF373332
:108780000A700B704D7002318C424FEA0010F0D12C
:1087900030BC70470B4A0C4B10681B681A22C0187B
:1087A0000A8001D10948704710B5094B09491C6876
:1087B0000822FFF7D7FF204604220749FFF7D2FF20
:1087C000024810BDE8F7FF1FECF7FF1F88010020EB
:1087D000EAF7FF1F8A0100209A01002004230B8082
:1087E00000487047A401002012230B800048704706
:1087F000A80100202DE9F047134B1D68ED0A84B055
:108800001BD0DFF848800026C14604AFD8F80030FE
:10881000AC196410D3F824A0E10210236A4648463C
:10882000D0470F2809DD6B4653F8042B013208D1DD
:108830009F42F9D12546B542E8DCE80204B0BDE824
:10884000F087661CF7E700BF10AC00208CF3002017
:1088500004307047704700BF4161704730B5437EB8
:1088600083B004461BB90120637603B030BD0523F5
:10887000ADF80430056A00BFA86836F07BF96A4697
:1088800001A90223686844F07BF8A86836F078F9FB
:1088900000BF9DF8013003F0010383F0010063760F
:1088A00003B030BD38B50446074D04E02B68E269DB
:1088B0009B1A002B06DA2046FFF7D0FF0028F5D0E0
:1088C0000023E36138BD00BF7CF10020F0B5077ED6
:1088D00083B004464FF0030C0020009016461D465E
:1088E0008DF804008DF800C0002F30D00B0E8DF8ED
:1088F00001300DF102030F0C0A0A997020461F7017
:108900005A70FFF7CFFF00B3236A00BF986836F0B4
:1089100031F9237E226A002B14BF05230423694604
:108920005068002244F02CF8236A3246002158682F
:108930002B4644F025F8236A986836F021F900BFE9
:10894000044B1B6806332846E36103B0F0BD0DF10C
:108950000103D0E77CF100206D4B2DE9F04F1C683E
:108960006C4BB3F80AE0B3F804809A894FEA0E2AF8
:10897000B4EB0A044FEA1E6B4FF0000587B065EBBD
:108980000B05CDE900450746009C1889019EA0FB18
:10899000044500FB0655E00940EA45604FEA0844FB
:1089A0008C46E9114FEA184510EB0408D888009C62
:1089B00041EB0509CDE90489A0FB0445B3F8028029
:1089C00000FB0655200A40EA05604FEAC834291228
:1089D0004FEA584510EB040841EB05090099A2FB4A
:1089E000010102FB06114FEAD05A4AEA412A1AF560
:1089F000FA634FEAE15B4BF10004B3F5FA6FCDE99E
:108A0000023474F10003424E64DA0524AAFB040127
:108A100004FB0B1100FB0BF40AFB0144DDE904230A
:108A2000A0FB0A0121444D104FEA3004121B4FEA0B
:108A3000900463EB050344EA8174B8EB0408CDE9C4
:108A40000423DDE9023434484FEAA10569EB050946
:108A50004FF0FF31834274EB010326DA40F6AC504D
:108A60001AEB00024FF000014BEB010302FB03F194
:108A7000A2FB022303EB4103D400DD00101B45EAF7
:108A8000527563EB0501DDE9044524184D41CDE93C
:108A900004450B24A2FB040104FB031149104FEA17
:108AA0003000B8EB000869EB0109DDE900325343FF
:108AB000009ADDE90201A2FB02AB0BEB430B4FEA8C
:108AC000DA7242EA4B02801A4FEAEB7361EB030160
:108AD000CDE9020197B17168A1FB082301FB0933BD
:108AE000540D5D1544EAC324DDE90423A21A65EBA5
:108AF00003031D46D30B43EA45433B60BCF1000F23
:108B000002D0029BCCF8003007B0BDE8F08F00BF68
:108B1000101A002010C1002024FAFFFF36F010BE0A
:108B200038B5054658B14C1E14F8011F284619B92E
:108B3000BDE8384036F0F6BD36F002FEF4E738BD49
:108B4000F8B50468C4F30D0405460E460CB32F684F
:108B5000366809F0D5FA092840F08880454C236929
:108B600023F440732361236943F400732361236971
:108B700043F0010323613E6009F0C2FA236909282A
:108B800023F00103236171D12B6804332B60002093
:108B900035E0394B394A93422BD902F58042934252
:108BA00026D902F5804293422AD902F580429342A7
:108BB00028D902F58032934226D902F50032934239
:108BC00024D902F50032934222D902F500329342B1
:108BD00020D902F5003293421ED902F58022934239
:108BE0001CD9B3F1016F1BD305200FF049FCFBE743
:108BF000082409F085FA092814D04FF0FF30F8BD99
:108C00001024F6E71824F4E72024F2E72824F0E7FC
:108C10003024EEE73824ECE74024EAE74824E8E78C
:108C20005824E6E7134F3B6923F440733B613B69EB
:108C300043F400733B613B6923F0F8033B613B69FC
:108C400043F002031C433C613B6943F480333B61C6
:108C500009F056FA3B6923F002033B613B6909289E
:108C600023F0F8033B613FF472AFC6E76FF00100F9
:108C7000C5E700BF003C024000400008FF3F00087D
:108C80002DE9F04104460D468E18002700F1080832
:108C9000B542206901D1BDE8F081E368591CE1606B
:108CA000234415F8012B1A720429F1D118B9414651
:108CB0002046FFF745FFC4E90370E9E701394B009F
:108CC00003F0080301F00301194301F00303C3EBB0
:108CD000031300228908C3EB0313914214BF4FF41E
:108CE000E16111469B00028041808380704700BF94
:108CF000092900D001B97047E0E700BFF0B58DB099
:108D0000002502AE04460570032130460295ADF8F9
:108D10000C50FFF7D3FF96E8030008AB0890ADF8BE
:108D2000241093E803001426ADF82C10BDF82C3065
:108D3000E67001214FF44D7202276E46A060E2807A
:108D4000A381A170A173304667700095ADF80450FF
:108D5000FFF7B4FF96E8030004AB0490ADF81410DD
:108D600093E80300ADF81C10BDF81C30E7734FF416
:108D7000807225746574A282C4F8160063830DB0F6
:108D8000F0BD00BF70B584880546C4F30B042246CD
:108D90000846002157F0FEFB6969094A91420346E3
:108DA00002D3084A914204D341B11846BDE870404D
:108DB00008472246BDE8704054F0F0BA70BD00BFCD
:108DC00010090008C10A0008002301228271036013
:108DD00003714371C37170472DE9F047089C8846C1
:108DE0001646002120221F46054657F0D3FB5CB1F2
:108DF000D4E900326189EB81C3F30F432B82C2F3C4
:108E00000F43EA822B836982404652F0DDFD16F063
:108E1000100A11D1431E78B118F803202E2A18BF6A
:108E200008EB030105D14EE011F801CDBCF12E0F86
:108E300041D013F1FF33F7D208280246C146A8BF3C
:108E400008224FF0000A4FF0203341462B606B6040
:108E500005F10808284654F0A1FA1F4B2B81524611
:108E600088F802304946404654F098FA6B1EE81DD7
:108E700013F8012FA2F1610119299CBF203A1A7041
:108E80008342F5D1404605F10B0110F8013BA3F1F7
:108E90006102192A9CBF203B00F8013C8142F4D1B9
:108EA000C7F30F421823AA82EE72099A2B736F83BD
:108EB000EA61BDE8F087C01A00F1FF3ABAF1030F8A
:108EC000A8BF4FF0030A082B03F10109A8BF08232C
:108ED000C1441A46B7E700BF20202000014B1868A4
:108EE00013F074B93485002010B500210446012028
:108EF0000FF0AEF8207010BD38B500240472451E86
:108F0000E1B202200FF0A4F80134082C05F8010F9B
:108F1000F6D138BD70B5184B1B78012B064621D011
:108F200040F22E414FF4F072092381820280837057
:108F30004FF4FA614FF47A7240F226230024F18252
:108F4000328373827471F51DE1B204200FF080F852
:108F50000134082C05F8010BF6D10E220223B2765B
:108F6000338270BD4FF47A704FF47A51042233711A
:108F7000B0823180B270DBE7E88D002038B5002484
:108F80000546048021462846013423F08FF8082C3A
:108F9000F8D1002185F8EA10A5F8EC10A5F8EE103C
:108FA000A5F8F010A5F8F210A5F8F410A5F8F61041
:108FB000A5F8F810A5F8FA102846BDE8384023F0C7
:108FC00037B800BF2DE9F047174E184C814606F51B
:108FD000C07828210027164B1022012503E02033FA
:108FE000A3421AD01A799142F9D118683268904296
:108FF00001D00135F3E7587972799042F9D107EB46
:10900000470309EB030A09F8031030468AF80150B8
:1090100035F0B8FE01378AF802002036464501D007
:109020003179D8E7BDE8F087A02506082025060895
:10903000601B060838B53222002157F0ABFA034610
:109040000225642440F2DC5040F21A4140F26C7276
:109050001D721C7440F20225132458829982192033
:1090600040F27531DA8240F643021D839C760E256C
:1090700003241877D9830A201E211A84012283F839
:109080002B0083F82C1083F8225083F82A409A731F
:1090900083F8252083F8292083F82D2083F82E20BB
:1090A00019460248BDE8384030F036BEB494060890
:1090B00038B51D4B1B78044600F1250593B10522F8
:1090C0001A49203057F0A4FA28461522184957F0BB
:1090D0009FFA012384F83A30164B1B7873B984F851
:1090E0003B3038BD28461522134957F091FA012329
:1090F00084F83A300F4B1B78002BF0D00F4B1868D8
:1091000059689A68DD68E56020606160A260DD6989
:10911000186959699A69A2610123E5612061616159
:1091200084F83B3038BD00BFA4B600202891002051
:1091300010910020A5B60020C094060878B6002043
:1091400008B5002108460DF039FE002008BD00BF1B
:1091500038B50C4B0C4D1C68AB68E31A322B09D8A0
:10916000EB68A34200D338BD0020323435F0B2FAA8
:10917000EC6038BD002108460DF020FE0023EB60B6
:1091800038BD00BF7CF10020101A00202DE9F04FFF
:10919000CE4CCF482468846087B0002B63D0134442
:1091A0000C46DFF84493DFF844B3039315461CE004
:1091B000002D00F0D781D9F81430AB4260D0D9F837
:1091C0001030AB4200F09380D9E90631AB424ED863
:1091D000A94200F26E81691A204650F07DFF039B80
:1091E00001359D4204F500743DD0D9F82060AE42AF
:1091F000DED8D9F83080AE1B4FEAD60AD8F8303026
:109200000AF1020A9A4506F0070603D3D8F8383067
:109210009A4509D94146504650F02CFF8046002817
:1092200000F04C81C9F8300098F80430002B40F071
:10923000DF80D8F82870002F00F0F181D8F83030A6
:10924000D8F80C20AAEB030A06EBCA0A43462046CC
:1092500002EB4A224FF40071B847039B01359D424F
:1092600004F50074C1D1002007B0BDE8F08FA94219
:10927000B1D94FF400720021204657F08BF9AEE7C8
:10928000522261204123002622706270A070722257
:1092900084F8E70184F8E631D9F82800E3704FF04C
:1092A000FF33314684F8E42184F8E521C4F8E8016D
:1092B0004FF4F07284F8EC3184F8ED3184F8EE313B
:1092C00084F8EF31201D57F065F955216FF05502F4
:1092D000C4F8F061C4F8F461C4F8F86184F8FC6182
:1092E00084F8FD6184F8FE1184F8FF2177E74FF4DC
:1092F00000720021204657F04DF9764B764A03CB99
:10930000EB23C4F80300237002204FF0080C582709
:109310009026F823A670207484F80DC0C4F80710B6
:1093200067706375D9F81010D9F80830D9F81C7037
:109330002073591A21624FF0FF3100233F26A17696
:109340003E21A073E372E3736374A374E374237523
:10935000A375E3756376E3766377A377E377217785
:109360002676D9F8186084F82C0003CA84F82830CF
:1093700084F8293084F82A3084F82B3084F82D3092
:1093800084F82E3084F82F3084F8313084F832306D
:1093900084F83330BE1B80236662C4F8470084F82B
:1093A000403004F14706292094234C4F84F846C0EE
:1093B00084F8420084F843300E200D234FF0010C56
:1093C00084F8440084F8453084F830C03346716036
:1093D00003CF16881E8197789F725526AA22C4F85B
:1093E0005200C4F8561084F8FE6184F8FF21F6E6B6
:1093F0004FF400720021204657F0CCF8D8F84030E6
:10940000002E75D104F12007002B00F08B80D8F8D6
:10941000303033491122CDE900662046FFF7DCFCED
:10942000D8F840301A6C04F1400A002A00F08C8011
:109430001B6B2C49CDE9006638461122FFF7CCFCA6
:10944000D8F84460002E3FF4CAAE4FF4E078CDE97E
:1094500004450CE00024CDE900C4FFF7BDFCB66C68
:10946000BA46A8F120080EB3B8F11F0F1ED9346810
:10947000356B96F804E011222B46214650460AF13E
:10948000200706F11C0CBEF1000FE3D1727933699D
:10949000019342F021022B46CDF800C0FFF79CFC5F
:1094A000B66CBA46A8F12008002EDDD1DDE90445EE
:1094B00095E6E91A204650F00FFE90E6231F04F5CA
:1094C000FE7243F804BF9A42FBD188E67CF100208B
:1094D000101A0020D8940608E4940608F0940608B0
:1094E000D0940608D4940608B0F90020DEADBEEF93
:1094F000002BD8F844200CBF01230223C3EB061332
:10950000002A3FF46CAE966C013B002E3FF467AE30
:10951000013BB66CF9D1002E3FF461AEA2464FF488
:10952000007894E7CDE900663346D9F80C1008229C
:109530002046FFF751FCD8F84460002E3FF44FAEB0
:10954000BA464FF4F07882E7CDE9006633463846F4
:1095500011224949FFF740FCD8F84460002E7FF4FF
:1095600074AF3CE64FF400722946204657F012F8DB
:1095700080220C2384F8BE2184F8C231D9F810006F
:109580003E4BD9F8086084F8B85183FB0032C1170C
:10959000C1EB2232B2F5806F84F8B95184F8BA5128
:1095A00084F8BB5184F8BC5184F8BD51C4F8C6019D
:1095B000C4F8CA6142DBFF2384F8BF3184F8C131AB
:1095C00084F8C0312D4B711E83FB0132CE17C6EBE0
:1095D0002232B2F5806F29DA294B84F8C52183FB4A
:1095E00001030B442748C6EB6313C3EB831680FBD0
:1095F0000370891B1844DE17921022F03F020131DC
:10960000C6EBE0100A43034484F8C42184F8C33154
:109610005522AA2384F8FE2184F8FF31DFE539467C
:109620004FF40072204656F0B5FFD8E5FF2384F8CA
:10963000C33184F8C53184F8C431E9E7104B84F8AC
:10964000C12183FB007303440E4FC1EB631387FBFF
:109650000317C3EB831C9110A0EB0C02F818DF1763
:1096600021F03F010132C7EBE0100A43034484F8C4
:10967000C02184F8BF31A5E7D49406089755454129
:10968000832008828180808010B5044C04480A46FB
:10969000214607F0F3FA204610BD00BF201A002033
:1096A000FC94060810B5044C04480A46214607F00D
:1096B000E5FA204610BD00BF201A00200C950608D0
:1096C00010B5044C04480A46214607F0D7FA204654
:1096D00010BD00BF201A0020189506080A4608B5DC
:1096E000054920B1054807F0C9FA034808BD0448F8
:1096F00007F0C4FA004808BD201A00204495060867
:109700002C95060808B507F08BFA1B2034F0F2FF01
:1097100018B1292200238271C3714EF0C7FA18B123
:10972000292200238271C371094B9B78012B01D040
:10973000012008BD074B084A03F1200103F14C004A
:10974000136050F079FA054B002083F8230008BD20
:1097500038C70020BC0100204C64002000ED00E070
:1097600008B5064BD3F8100138B135F017FA044BA1
:109770009B7813B180F00100C0B208BD101A002020
:10978000FC51002010B500F10C04002221212046DC
:1097900035F06AFFFC222021204635F065FF40228B
:1097A0002421204635F060FF0C222321204635F08D
:1097B0005BFF00222221204635F056FF642012F084
:1097C00017FA012010BD10B500F10C0401220B2185
:1097D000204635F049FF20B11D220921204635F0F1
:1097E00043FF00F0010010BD10B500F10C04702221
:1097F0000021204635F038FF20220121204635F097
:1098000033FF00220221204635F02EFF642012F0A3
:10981000EFF9012010BD13B506230C466A46282136
:109820000C3035F0A5FEF0B19DF801309DF8002018
:1098300042EA032204219DF8033012B292FBF1F2B6
:1098400022809DF8022042EA032212B29DF80430E1
:1098500092FBF1F262809DF8052043EA02231BB2DD
:1098600093FBF1F3A38002B010BD7FB5002500F19A
:109870000C060C460D804D808D8001230DF10702F2
:109880000621304635F074FE10B9002004B070BDDA
:109890009DF807305B07F8D5062302AA2946304613
:1098A00035F066FE0028F0D09DF809209DF80830BC
:1098B00043EA022323809DF80B209DF80A3043EAF7
:1098C000022363809DF80D209DF80C3043EA0223AB
:1098D000A380DBE713B506230C466A4603210C3050
:1098E00035F046FEA0B19DF800209DF8013043EA16
:1098F000022323809DF802209DF8033043EA0223CF
:10990000A3809DF804209DF8053043EA022363807C
:1099100002B010BD20B10078B0FA80F04009704765
:109920000120704708B5202156F04BFE034618462B
:1099300023B10278202A03F10103F8D008BD03798E
:1099400003F01803082B0AD002D82BB1002070476F
:10995000102B16D0182BF9D1B0F80B007047124B12
:10996000B0F80B0093F90030591C06BF0F4B1B7861
:10997000DBB203EB031203EB820300EB430080B284
:1099800070470B4BB0F80B0093F900305A1C06BF20
:10999000064B5B78DBB203EB830303EB830300EB43
:1099A000830080B2704700BF5D0F0020ACFC002038
:1099B0005C0F002070B5084D2A782AB9074C084E74
:1099C000B44202D301232B7070BDA288D4E90210E7
:1099D00053F0E4FC1834F3E7C8C4002090010008F9
:1099E00010090008F0B5067906F0E003402B09D114
:1099F00044794FF0FF350023012006F00706A3420B
:109A00000BD1F0BD602B08BF45794FF001040CBFAE
:109A100004FA05F54FF0FF35EDE7042E0CD8DFE82A
:109A200006F0030D18242E0030B1C85CD75C7840D6
:109A300028420CBF012000200133E0E70028FBD0C2
:109A4000C856D756A0EB070CDCF1000040EB0C0029
:109A5000F2E70028F0D031F8130032F813707840A4
:109A600028420CBF01200020E6E70028E4D031F9AD
:109A7000130032F91370C71B78427841DCE70028E5
:109A8000DAD051F8230052F82370784028420CBFF6
:109A900001200020D0E7034B0146186808B135F0DB
:109AA0004FBE7047B4000120024B01461868FFF713
:109AB00037B800BFB40001200048F5E733D50608E9
:109AC00008B5FFF7F1FFBDE80840F5E710B504461B
:109AD0000348FFF7E9FF2046BDE81040F0E700BF6C
:109AE000AC93060808B532B1C30600D519B11046CB
:109AF000FFF7ECFF0022104608BD034B186808B1C1
:109B000035F010BE704700BFB4000120044B1A6846
:109B1000C04302401A60034A136803401360704751
:109B2000F4AE002094000120034B01224FF40010FA
:109B30001A7026F057B900BF83A80020022838B554
:109B4000044611D80B4A0C490C4D0C7000EB001365
:109B500000EB830302EB430318462B6047F046F803
:109B60004BF060FA4BF0FCF9601CC0B2BDE8384025
:109B700026F0D2B8B8A30020ACFC0020F862002088
:109B8000774B30B59A881C8958899989B2F57A6FD4
:109B900088BF4FF47A622DED028B88BF9A80DA88F5
:109BA000B2F57A6F84BF4FF47A62DA80B4F57A6FD7
:109BB00084BF4FF47A641C81B0F57A6F88BF0020AF
:109BC000DA8988BF5881B1F57A6F84BF4FF47A6122
:109BD0009981B2F57A6F84BF0022DA8184429CBFFA
:109BE0000020188191429CBF00229A81598B9A8B48
:109BF0005C4C914284BF00225A83238885B0002B9D
:109C000053D0594DAA78062A97BF58499FED588AD4
:109C100001EB820292ED1D8A2A79002A74D15549FE
:109C2000A8790A7807EE903A07EE102AF8EEE77A5C
:109C3000F8EEC76AB0EE667A86EEA76A08B138EE2B
:109C4000088AB4EEC68AF1EE10FA21DD27EE888A82
:109C5000BCEEC87A8DED017A9DF8043007EE103A1B
:109C6000B8EEC77AB4EEC78AF1EE10FAC4BF01337A
:109C7000DBB2002B66D0102BA8BF10239A4204D869
:109C800007EE103AF8EEC76A1A460A70B0EE667A26
:109C9000DFED396A27EE267AC7EE276AFCEEE66A20
:109CA00016EE903AB3F5FA7F47D8344B34499A7898
:109CB000022A04BF00229A704B78052B14D8314A2F
:109CC000314803EB830303EB830302EB83030A783E
:109CD0000360022A10D900232C4A0B702C4B1A6007
:109CE00005B0BDEC028B30BD00224A700A782648D0
:109CF000244B0360022AEED802EB0211234B02EB45
:109D0000810203EB4202E9E704A8002300F8013DC9
:109D100050F054FB9DF80F300BB9AB78A3B92388F2
:109D2000002BC2D0134A127807EE903A07EE102AA1
:109D3000F8EEE77AB8EEC77AAAE74FF00050FFF7DF
:109D4000E5FEB2E7012399E7B7EE000A80EE080AC4
:109D500053F004FC2B88984228BF18462880DEE781
:109D60006CFD00208426001014EF00203C0606083D
:109D70006F120338F89000200024744938C700207F
:109D8000ACFC00207CA50020E86F0020B8A30020D8
:109D9000F86200202DE9F04FAB4B1B78A3F11702BE
:109DA000022A83B00FD9A94A12F83310002940F0D3
:109DB000AF82D9000A4452782AB1A54A12F833304A
:109DC000002B00F04283A34EA34C96F80880A34FCB
:109DD00004F15409002554F8042C12F0010C05F18B
:109DE000010300F04B82DDB2510801F07731930896
:109DF000511AD00803F03333CB1A00F011315B1A3B
:109E000003EB131303F00F33A7FB031E4FEADE1E11
:109E1000CEEB0E2EA3EB0E0EBEF1010FA4F104004B
:109E2000414604F10C040ED9BEF1020F40F02B8222
:109E3000BCF1000F02D012F42F7F04D13DF082FC60
:109E4000002800F020824C45C5D1013D022D00F2D2
:109E50001A82022025F0DCFC814B1B78022B00F0DB
:109E60007582002800F0F5827E4F7F4D97F809A09B
:109E70002B4605F5CF794FF47A684FF0000E4FF07E
:109E8000640B5A88B2F57A6FB3F84C2088BFA3F8F8
:109E90000280B2F57A6F9A8888BFA3F84C80B2F539
:109EA0007A6FDA8888BFA3F804809988B2F57A6F50
:109EB00084BF0022A3F806E09142B3F86010B3F823
:109EC000622098BFA3F804E0914293F8712088BF04
:109ED000A3F860E0013A632A93F8722088BF83F800
:109EE00071B00132D2B2092A88BF83F872E003F15F
:109EF0006B00194600228C7A10F801CF0132A4457C
:109F000028BF80F800E0032A01F10601F3D1BAF17D
:109F1000010F18BF83F889E08A334B45B1D1534C08
:109F2000A378042B00F0048233B92388B3F5F07FC3
:109F300084BF4FF4F0732380FFF722FE4C48DFF814
:109F40004C8181781230FEF7D3FE98F8071008F1A3
:109F50000800FEF7CDFE98F8151008F11600FEF780
:109F6000C7FE444BB3F9042022B9B3F90620002AF6
:109F700000F0D88101225A813F49404BD1F800902E
:109F8000DFF80C8109EA0303002B00F0668219F068
:109F9000010F40F03B8219F4804F40F01F8219F00E
:109FA000080F40F0248219F4005F40F0298219F470
:109FB000004F00F09B810023F37386F8233014F0E8
:109FC0000BF8002800F02A81737E032B00F0268115
:109FD0005A1E012A40F2398100232B83A5F8A230B2
:109FE000A5F82C3113F0F8FF002840F02D81002354
:109FF00019F4805F85F84F3085F8D93085F86331E2
:10A0000000F02B811E4BDA79022A08BF01224FF0A3
:10A01000070008BFDA714DF0C5F9002840F0FC8157
:10A020004FF4806025F0F4FB002800F0FF81154B11
:10A030001E4603F1780A03F17D097179B1B33078D6
:10A0400090B3114B29E000BF44CB0020BC1406089C
:10A05000908C060818000120A46200208180808076
:10A0600050C6002028610020B8A3002014EF002073
:10A07000E4BF0020D8C60020F4AE00200960000232
:10A080006CA80020B0C10020B5C10020C8BF0020CE
:10A090009400012006334B4508D013F8052C8A4262
:10A0A000F8D11A78002AF5D04DF026F90636B245D7
:10A0B000C3D1A378082B00F06281797ABA7AD8F8F4
:10A0C0000000B44BB44EA1F10101A2F10102C0F3B2
:10A0D000C030B1FA81F1B2FA82F29870490952099E
:10A0E0004FF4007019701A71FFF710FD4FF4001053
:10A0F000FFF70CFD4FF00070FFF708FDB388002B51
:10A1000040F06481A54A136813F07F4F1CBF002301
:10A110001360936823F4007323F002030BB1002350
:10A120009360137902A8013B042B4FF0000688BF0F
:10A13000012300F8016D88BF137150F03FF99DF8BD
:10A140000730002B40F0BC80A379002B40F0D68074
:10A15000002385F87E3085F8083185F89231904BE0
:10A16000DA8802F00F01032954D8C2F30312022A3D
:10A1700050D81A8902F00F01032947D8C2F30312FD
:10A18000022A43D8874B884A5C78507819788442F1
:10A1900040F28E8000205870002940F08880997825
:10A1A00092F8EA20914284BF00229A707F4B03F517
:10A1B00016719A78013A032A69D8DFE802F011177C
:10A1C00002025C7A987ADA7AC82CA8BFC824C82818
:10A1D000A8BFC820C82AA8BFC8225C729872DA72C9
:10A1E00064338B42E5D103B0BDE8F08F5C7A987A96
:10A1F000DA7A632CA8BF63246328A8BF6320632A8C
:10A20000A8BF63225C729872DA72E9E740F6012215
:10A210001A81B7E74FF42062DA80AAE70023AB8106
:10A220006B82A5F89630A5F89C30A5F82031A5F8EA
:10A23000263113F0D1FE00283FF4CEAE737E5A1EB5
:10A24000012A3FF6C9AE00E0737E023B022B3FF6C7
:10A25000CEAE19F4805F7FF4D5AE19F0800F3FF4D5
:10A26000D1AE534B197818293FF6DAAE0122514B83
:10A270008A401340002B3FF4D3AEC3E694F900307C
:10A28000142B7FF4B1AD4C4825F0B8FBE1E55C7AC6
:10A29000987ADA7A642CA8BF64246428A8BF642062
:10A2A000642AA8BF64225C729872DA7298E7988078
:10A2B00010788842BFF473AF0021197099806EE75F
:10A2C000227C2671A379E2B13C4AD27B002A3FF47A
:10A2D0003CAF002B3FF43CAF394B1A78002A7FF497
:10A2E0003EAF1B79002B7FF43AAF31E7F37B002BB5
:10A2F00000F0A180002386F8233060E60023A371DC
:10A3000026E76279012ADFD1002B3FF421AFF5E780
:10A31000D9005018406800287FF44CAD244C172019
:10A32000207047E5B3F90820002A3FF425AE21E666
:10A330004FF48050FFF7EAFB238BB3F57A7F37BFEA
:10A340004FF47A72A378A3782283EDE500283FF4D6
:10A350008BAD1C4F1C4B97F8141190F90440FF254E
:10A3600003F1540093F90820A24202D10139C9B285
:10A370001D720C338342F5D187F8141174E5A3796B
:10A38000002B3FF49AAE237C012B04BF02232374DD
:10A3900093E600BFD0F100209CFE002034C00020D6
:10A3A00054C5002080600020BCAC00207CA50020AB
:10A3B00044CB002000410001A0620020ACFC002042
:10A3C000A8E70020101A0020C4B5002030780DF056
:10A3D000E3FE00287FF496AEB08093E62448FFF7B2
:10A3E00095FBD1F8009019F0080F3FF4DCAD21483F
:10A3F000FFF78CFBD1F8009019F4005F3FF4D7AD64
:10A400001D48FFF783FBD1F80090D0E51B48FFF70C
:10A410007DFBD1F80090BEE507204CF06DFF4FF4B6
:10A42000806025F0F5F900287FF401AE4FF0006060
:10A43000FFF76CFBFBE542F2010319EA030F3FF45F
:10A44000BEAD002386F82330B9E50D4A18231370FA
:10A45000B9E48020FFF75AFB06E5D8F8003049F050
:10A46000080943F00803C1F80090C8F800308EE5F1
:10A470000920000201600002094000020860000299
:10A4800044CB00202DE9F04F764B1B78013B012B8C
:10A4900083B040F2CC80744B744ADFF81C92934234
:10A4A00080F0DD80DFF81482CDF8049003F1180607
:10A4B0009B464FF0010A6E4C258862197DB14245DA
:10A4C0000DD2052D0BD936F8183C6188C3F30B0368
:10A4D000994272D0144625886219002DEFD156F8A2
:10A4E000101C5846FEF74EFC4FF0000A5F4B0BF174
:10A4F000180B9B4506F11806DDD3DDF804905D4A84
:10A500005D4B12681A60FFF745FC5C4BDA7B012A51
:10A5100079D0022A70D020241A785B78584859499B
:10A52000594D03EB830303EB830300EB830357488D
:10A53000036002EB021302EB8302554B01EB420274
:10A540002A601C6013F056FD524B28684FF0FF3212
:10A550001A6046F04BFB4CF0B5FF4F4B4F49187952
:10A560001A894F4B0B60642303FB02F2C8210A4493
:10A5700013FB00110023C9E90112C9E90333C9E93A
:10A580000533C9E9073389F8243089F825302EF0DE
:10A59000D5F8444B93F81A11B3F818014AF00EFF9E
:10A5A00020F09AFE23F0B6FB2E4B1B78013B012BCB
:10A5B0002BD9504603B0BDE8F08F637913F0030345
:10A5C00088D156F8101C94F804905846FEF7DAFB30
:10A5D00036F8182CB9EB123F86D136F8143C56F8F1
:10A5E000100CAA1FC3F30B039A4204F10601A8BF83
:10A5F0001A4652F0D3FE79E72B4A9279002A0CBF13
:10A600002024282488E7282486E70EF05DFA2749CD
:10A61000274B0C68274A1860022101235046C9F8CD
:10A620000C40117089F8253003B0BDE8F08F0EF0B2
:10A630004BFADFF884901E49D9F80C301D4A00F51A
:10A64000B71000F5587003F2DC5308600221C9F816
:10A650000C301170044B054A9342FFF423AF4FF0C6
:10A66000010A4CE77400012090010008100900085D
:10A6700002400008F4AE002094000120ACFC002051
:10A680007CA50020B8A30020F8620020E86F00201D
:10A69000000000109C0400206CA80020AC82002068
:10A6A000DCC60020101A002014EF00207CF10020EE
:10A6B0002C830020288300208C600020008000086C
:10A6C00030B402681146531C036011F8024B01605C
:10A6D000D31C517803609378151D05601B0443EA71
:10A6E0000123D078234343EA006030BC704700BFA9
:10A6F0000368591C1A46016012F8021B0260587860
:10A7000041EA0020704700BF03685A1C02601878B5
:10A71000704700BF70B5044608460E4651F054F924
:10A72000314605460246206852F038FE206828442B
:10A73000206070BD38B504460068154652F02EFE04
:10A7400022682A44226038BD036810B40A0E5C1CDB
:10A7500004601A7003680A0C5C1C04601A700368B9
:10A760000A0A5C1C04601A7003685A1C02601970A3
:10A770005DF8044B704700BF036810B40A0A5C1C04
:10A7800004601A7003685A1C026019705DF8044B6B
:10A79000704700BF03685A1C026010B41970036848
:10A7A0000A0A5C1C04601A7003680A0C5C1C0460D2
:10A7B0001A700368090E5A1C026019705DF8044B88
:10A7C000704700BF03685A1C026019700368090AC9
:10A7D0005A1C026019707047B0F900309FED126A80
:10A7E00006EE903AB0F9023007EE103AB0F90430B4
:10A7F00000B507EE903AF8EEE66AB8EEC77AF8EEE2
:10A80000E77A85B066EE866A27EE067A67EE867A84
:10A8100001A8CDED016A8DED027ACDED037AFDF749
:10A8200051FE05B05DF804FB88C3E43A07EE901AC8
:10A83000F8EE677A9FED837A27EE800A20EE070A0A
:10A84000FDEEC07A17EE903A2033402B00F2818063
:10A85000DFED7D7AB4EEE70AF1EE10FA40F3E68020
:10A86000B0EE407A9FED796ADFED796A01E0B0EEF3
:10A87000677AB4EEE67AF1EE10FA77EE467AF6DC15
:10A880009FED747AF4EEC77AF1EE10FA40F1D180C0
:10A890009FED6E6ADFED706A01E0F0EE477AF4EE4C
:10A8A000E67AF1EE10FA37EE867AF6D4DFED6B7ABF
:10A8B000B4EEE77AF1EE10FA40F3A780DFED627AAA
:10A8C00037EEC77A27EE076ADFED655ADFED657A66
:10A8D000DFED656A9FED655AE6EE257A67EE065A6A
:10A8E000E6EE276AF7EE007AA5EEA67AF0EE675A52
:10A8F000E7EE055AE7EE457A87EEA55ADFED577A7F
:10A9000030EE277AFDEEC76A16EE903A2033402BE0
:10A9100024D99FED577AF6EE006AB7EE006AF7EE9B
:10A92000004AC4EEA57A0023836143610362C361D8
:10A9300080ED045A67EEA66A27EE866A27EE877ACC
:10A94000C0ED006AC0ED026A80ED016A80ED037A15
:10A950007047B7EE005AF0EE455ACFE7B4EEE70A7B
:10A96000F1EE10FA6BDD9FED396ADFED396A01E037
:10A97000B0EE677AB4EEE67AF1EE10FA77EE467A48
:10A98000F6DC9FED347AF4EEC77AF1EE10FA53D587
:10A990009FED2E6ADFED306A01E0F0EE477AF4EECB
:10A9A000E67AF1EE10FA37EE867AF6D4DFED2B7AFE
:10A9B000B4EEE77AF1EE10FA33DCDFED2E7AB4EE86
:10A9C000E77AF1EE10FA44BFDFED227A37EEC77A6C
:10A9D00027EE076ADFED224ADFED226ADFED227AF9
:10A9E000E6EE246A67EE064AE6EE267AB7EE006ADD
:10A9F000A4EEA77AF6EE006A36EE476AF8EE007A21
:10AA000027EE277A66EE266A89E7DFED1A7AB4EE3A
:10AA1000E77AF1EE10FA44BFDFED0E7A37EEC77A2F
:10AA200050E7DFED097A37EEC77AD1E7F0EE407AEA
:10AA300026E7B0EE677A39E7B0EE677AB6E7F0EE70
:10AA4000477A9EE727D4D236DB0F4940DB0FC94057
:10AA5000E4CB1641DB0F49C0E4CB16C1DB0FC93F85
:10AA600092E741B99730083C15A82ABEF304353F58
:10AA700000000000DB0FC9BFDFED317A30EE277A2E
:10AA8000FDEEC76A16EE903A2033402B02D99FEDB7
:10AA90002D0A7047B4EEE70AF1EE10FA4DDD9FED96
:10AAA0002A6ADFED2A6A01E0B0EE677AB4EEE67A50
:10AAB000F1EE10FA77EE467AF6DC9FED257AF4EEA9
:10AAC000C77AF1EE10FA35D5DFED1F6A9FED217AD6
:10AAD00001E0F0EE407AF4EEC77AF1EE10FA37EECC
:10AAE000A60AF6D4DFED167AB4EEE70AF1EE10FA14
:10AAF0001BDCDFED197AB4EEE70AF1EE10FA44BF81
:10AB0000DFED137A37EEC00A60EE006A9FED136A3C
:10AB10009FED137ADFED137AA6EE867A20EE266A91
:10AB2000E6EE877AA6EE270A7047DFED0F7A37EE5A
:10AB3000C00AE9E7B0EE670AD4E7F0EE477ABCE76F
:10AB4000DB0FC93F00000000DB0FC940E4CB16411A
:10AB5000DB0F49C0E4CB16C1DB0FC9BF92E741B997
:10AB60009730083C15A82ABEDB0F494002B370B4E9
:10AB70008E1803E0121B14D1B14215D010F8012B2E
:10AB8000A2F14103192B11F8013BA3F1410598BF34
:10AB90002032192D03F12004ECD9D21A01D1002B57
:10ABA000EAD1104670BC70470022104670BC704756
:10ABB0001046704770B5044608460D4650F004FF35
:10ABC000064602E014F8013F43B1324629462046CA
:10ABD000FFF7CCFF0028F5D1204670BD1C4620466B
:10ABE00070BD00BF6FF00042FFF7C0BFA0F161036E
:10ABF000192B98BF20387047A0F14103192B98BF3B
:10AC000020307047202805D0093804288CBF002048
:10AC10000120704701207047613819288CBF00203F
:10AC200001207047413819288CBF0020012070474F
:10AC3000303809288CBF002001207047A0F1300374
:10AC4000092B07D920F02000413819288CBF00209B
:10AC500001207047012070472DE9F0411F4606464C
:10AC600003461C782046FFF7CDFF1D460133002820
:10AC7000F7D12B2C51D02D2C24D0102A804628D04F
:10AC80004FF0FF33B3FBF2F302FB03FC6FEA0C0C53
:10AC90005FFA8CFC013500200BE0303CE4B29442BA
:10ACA00025DA98422E461DD81AD002FB004015F82E
:10ACB000014B392CF1D944F02004602C17D9573CB2
:10ACC000E4B2ECE74FF00108102A6C7805F10105B9
:10ACD000D6D1302C23D06FF070434FF00F0CD9E752
:10ACE0006445E2D907EA08084FF0FF30DFE701B119
:10ACF0000E60B8F1000F08D027B1B0F1004F28BFA7
:10AD00004FF000404042BDE8F081002FFBD06FF0D3
:10AD10000043984228BF1846F5E78046D4E76C7890
:10AD20002046FFF769FF782805F1010605D0354672
:10AD30006FF070434FF00F0CACE7AC786FF07043DE
:10AD400002354FF00F0CA5E701230A22002183E70B
:10AD500070B50D461446FEF7E5FD0646A0B1FFF7B7
:10AD6000F3FF40F634039842A8BF1846B0F5617F60
:10AD7000B8BF4FF461701923A0F5617090FBF3F038
:10AD800028702378013323703046FEF7CBFD06464A
:10AD9000A0B1FFF7D9FF40F634039842A8BF184688
:10ADA000B0F5617FB8BF4FF461701923A0F56170F1
:10ADB00090FBF3F06870237801332370304670BD48
:10ADC000002349E70378202B024600F10100F9D067
:10ADD000092BF7D02D2B00F0A4802B2B03BF537829
:10ADE000B7EE000A0246B7EE000AA3F13001C8B27E
:10ADF00009289FED577A10D8F2EE046A07EE901AF0
:10AE0000F8EEE77A12F8013FE7EE267AA3F1300177
:10AE1000C8B20928B0EE677AF0D92E2B63D003F0C0
:10AE2000DF03452B02D020EE070A704710B451789B
:10AE30002D294FD02B2979D0A1F13003092B02F114
:10AE400001027AD80024002303EB830301EB4303C0
:10AE500012F8011FA1F130000928A3F13003F3D942
:10AE6000B3F59A7F1A4628BF4FF49A72072B6CD914
:10AE7000DFED386A1346F7EE007A083B072B67EEE2
:10AE8000A67AFAD802F00702DAB1F2EE046A012AD1
:10AE900067EEA67A15D0022A67EEA67A11D0032AA9
:10AEA00067EEA67A0DD0042A67EEA67A09D0052AA5
:10AEB00067EEA67A05D067EEA67A062A18BF67EE77
:10AEC000A67A002C3BD087EE277A5DF8044B20EE63
:10AED000070A70479178A1F13003092B02F10202B1
:10AEE00030D80124AFE75378A3F13001C8B2092864
:10AEF00002F1010293D8F2EE046AF0EE665A07EE10
:10AF0000901AF8EEE77A12F8013F87EEA66AA3F1ED
:10AF10003001C8B2092866EEA56A37EE067AEED986
:10AF20007DE75378BFEE000A02465EE79178A1F113
:10AF30003003092B02F1020284D9F7EE007A27EEE2
:10AF4000277AC2E7F7EE007ABDE7F7EE007A9BE7D3
:10AF50000000000020BCBE4CF8B506461546084669
:10AF6000B6FBF2F434B905FB14640C4B1B5D00F81E
:10AF7000013BF8BDB4FBF2F75FB905FB1747074B80
:10AF800005FB1464DA5D00F8012B1B5D00F8013B42
:10AF9000F8BD3846FFF7E0FFEFE700BF5C95060815
:10AFA000B5EEC00ADFED677A674AF1EE10FACCBF62
:10AFB00030EE270A30EE670ADFED647A20EE270ACA
:10AFC0002DE9F047FDEEC07A88B017EE904A84EA8A
:10AFD000E4760023A6EBE476CDE902330493A2FBEA
:10AFE00006325FEAD208054641D105AF58483946D6
:10AFF000554BA3FB0623DB0803EB8303A6EB4303BC
:10B00000002CC35C0B704FF00002ACBF20232D233B
:10B010004A7038468DF8083050F0D6FC0128394681
:10B0200039D0022842D0032805BF302302A802A845
:10B030008DF8093055F0B6FA02A850F0C5FC033877
:10B04000C4B2224602A9284652F0A8F900232B5583
:10B05000284650F0B9FC2E22431C02A92A54214450
:10B06000E81855F0BBFA284608B0BDE8F087394B20
:10B07000A3FB06235B0922D105AF35483946324A86
:10B08000A2FB0832D20802EB8202A8EB4202835CE8
:10B0900001F8013BACE7302302A88DF809308DF8A8
:10B0A0000A308DF80B3055F07DFAC5E7302302A841
:10B0B0008DF809308DF80A3055F074FABCE7264A4D
:10B0C000A2FB06125FEA92190ED105AF204839465D
:10B0D0001D4AA2FB03C2D20802EB8202A3EB420389
:10B0E000C35C01F8013BCAE71C4AA2FB06125FEAF7
:10B0F000523A0ED105AF16483946134AA2FB09C28F
:10B10000D20802EB8202A9EB4202825C01F8012B19
:10B11000DEE71348B6FBF0F058B905AF39460A2010
:10B12000BAFBF0F200FB12A20948825C01F8012B85
:10B13000E3E705AF39460A220193FFF70DFF019BB4
:10B140000146ECE76F12033ACDCCCCCC00007A4438
:10B150005C9506081F85EB51D34D62105917B7D186
:10B16000A0860100802819D9F2B130B400234C1E0A
:10B1700001E09A420ED060F07F05C009802803F1FB
:10B18000010304F8015FF4D89A4203D9C85430BCD3
:10B19000581C70474FF0FF3030BC704700239A4274
:10B1A00002D9C854581C70474FF0FF30704700BF99
:10B1B0000F4B2DE93048D3E9004554EA05020AD186
:10B1C000034640F2011200201880988098715A803E
:10B1D0001881BDE83088074B1A6814EB020B45F163
:10B1E000000C5A466346FDF773F80120BDE830882D
:10B1F000C0C500207CF1002030B403888278C47878
:10B20000154DA3F5FA6303F0030101EB4101013A87
:10B2100002EB81029B0835F812500279611E40F260
:10B22000B55404FB03132B4403EB430302EBC303AA
:10B230004279847909490089C3EB031302EB830344
:10B240002144C3EB031301EB83034FF47A72002113
:10B25000C2FB030130BC70473C06060880436D38D2
:10B2600070B406688E4217D90139751E002311F893
:10B27000014F0822634013F0800F4FEA430318BFC9
:10B2800083F0D503013ADBB2F5D18D42EFD1721CC8
:10B290000260337070BC7047721C00230260337010
:10B2A00070BC70470A44914215D010B40139541E45
:10B2B00011F8012F0823504010F0800F4FEA400092
:10B2C00018BF80F0D500013BC0B2F5D1A142EFD14B
:10B2D0005DF8044B704770474840082310F0800F1A
:10B2E0004FEA400018BF80F0D500013BC0B2F5D155
:10B2F000704700BF0A44914215D030B40139551E41
:10B3000041F2210211F8014F082380EA04200404CD
:10B310004CBF82EA40004000013B80B2F7D18D4231
:10B32000F0D130BC7047704770B502221349144CFD
:10B33000144E4FF6FF70FFF7DDFF22884AB1A518C3
:10B34000B54218D2052A16D92146FFF7D3FF2C465D
:10B35000F3E721460222FFF7CDFF0222A118FFF7F3
:10B36000C9FF094BE41A094B1C8041F60F53C31A5D
:10B370005842584170BD0020FCE700BF0040000863
:10B380000240000800800008FA3F0008CAC40020FC
:10B390002DE9F04F8DB0FEF7FDFC704B1B78013BA3
:10B3A000012B40F2CA806E4ADFF8DC916D4BB2F897
:10B3B00090206D4FDFF8D481ADF80620A3EB090390
:10B3C00000934FF0030A0026CDE90866CDE90A662E
:10B3D000009BCDF818900793D8F81030002BC0F2DE
:10B3E000958001238DF82C30F323C8F80C3002220D
:10B3F000BDF80630ADF8083002A906A8FDF740FCFC
:10B40000022202A94FF6FF70FFF774FF574BBB42B1
:10B41000834629D21C46A58823888DF81560C5F37C
:10B420000B05C3F30B00A91D1B0B0622ADF8101072
:10B43000ADF8120004A906A88DF81430FDF720FC21
:10B440005846062204A9FFF755FFA16883462A46FD
:10B4500006A8FDF715FCA16858462A46FFF74AFFE3
:10B460001834BC428346D6D3022203A906A8ADF8FD
:10B470000C60FDF705FC022203A95846FFF73AFFCE
:10B4800040BAC343022204A906A8ADF81030FDF764
:10B49000F7FB099850BB0A989DF82C308BB9C0B1C6
:10B4A000BAF1010A90D105200CF0EAFF2B4B1B7872
:10B4B000013B012B32D92E4B00221A700DB0BDE892
:10B4C000F08FD8F8103043F00043C8F8103000284F
:10B4D000E6D199F80030AD2BE5D199F80130BE2BBB
:10B4E000E1D1FFF721FF0028E0D1DCE708ABC0F194
:10B4F00004020021184455F04DF80A9818B908A91B
:10B5000006A8FDF71DFBCDE90960C5E7194BC8F892
:10B51000043003F18833C8F8043062E70DF0D4FA40
:10B52000154C1649164B174A08602468DC60012048
:10B53000022183F825001170BDE70DF0C5FA104A0D
:10B540000E4CD3680F4900F5B71000F5587003F2A0
:10B55000DC5320600220D360087024E774000120CF
:10B560003C06060800800008100900089001000849
:10B570009C900020230167457CF100202C83002053
:10B580008C6000202883002000400008003C02401E
:10B5900008B5064B02229A73FFF7FAFEFEF772FF18
:10B5A0000120BDE8084024F0B7BB00BFACFC002080
:10B5B0002DE9F043002489B006460D461F46A046FB
:10B5C00005E025290CD030460134A847039A531CC6
:10B5D000039311780029F4D1204609B0BDE8F08327
:10B5E000931CCDE903385078302842D0A0F13003C5
:10B5F000DBB2092B4FF0000945D96C282AD064280A
:10B6000073D019D9732858D063D9752840F0828037
:10B6100007F1040C386805AB00220A216746FCF7E5
:10B62000EDFD05AB049A009329464B463046FCF7E6
:10B630000DFF039A0444CAE725283CD051D9582865
:10B640006BD06328C2D139783046A847043701341B
:10B65000039ABCE7039B5A1C03921B78642B52D0BD
:10B6600016D8252B27D064D9582B18D0632BEAD0B5
:10B67000ADE7D31C03939078A0F13003DBB2092B24
:10B680004FF00109B9D804AA03A94EF077FDB4E739
:10B69000732B12D051D9752B2DD0782B97D1A3F1C4
:10B6A0005802B2FA82F23868520905AB1021043709
:10B6B000FCF7A4FDB5E7252185E73B68049A0093D4
:10B6C000294600233046FCF7C1FE04370444039AA0
:10B6D0007DE76E287FF47AAF039A3B6804371C60DD
:10B6E00075E700283FF478AF70E7386805A9FCF7E4
:10B6F0004FFD043795E7386805AB00220A21FCF7B7
:10B700007DFD04378DE73B1D386805A91F46FCF712
:10B710003FFD86E778287FF459AFA0F15802B2FACE
:10B7200082F23868520905AB1021FCF767FD043737
:10B7300077E7002B3FF450AF49E76E2BCDD046E7BB
:10B74000F8B5114C074620680D461646A0B10F49C2
:10B75000FDF7E6F939462068FDF7E2F90C49206863
:10B76000FDF7DEF90B49206833462A46FFF720FF34
:10B7700009492068FDF7D4F9084B1B7813B1084B31
